{
  "_format": "hh-sol-artifact-1",
  "contractName": "BitredictPoolCore",
  "sourceName": "contracts/BitredictPoolCore.sol",
  "abi": [
    {
      "inputs": [
        {
          "internalType": "address",
          "name": "_bitrToken",
          "type": "address"
        },
        {
          "internalType": "address",
          "name": "_feeCollector",
          "type": "address"
        },
        {
          "internalType": "address",
          "name": "_guidedOracle",
          "type": "address"
        },
        {
          "internalType": "address",
          "name": "_optimisticOracle",
          "type": "address"
        }
      ],
      "stateMutability": "nonpayable",
      "type": "constructor"
    },
    {
      "inputs": [
        {
          "internalType": "address",
          "name": "owner",
          "type": "address"
        }
      ],
      "name": "OwnableInvalidOwner",
      "type": "error"
    },
    {
      "inputs": [
        {
          "internalType": "address",
          "name": "account",
          "type": "address"
        }
      ],
      "name": "OwnableUnauthorizedAccount",
      "type": "error"
    },
    {
      "inputs": [],
      "name": "ReentrancyGuardReentrantCall",
      "type": "error"
    },
    {
      "anonymous": false,
      "inputs": [
        {
          "indexed": true,
          "internalType": "uint256",
          "name": "poolId",
          "type": "uint256"
        },
        {
          "indexed": false,
          "internalType": "uint256",
          "name": "totalVolume",
          "type": "uint256"
        },
        {
          "indexed": false,
          "internalType": "uint256",
          "name": "participantCount",
          "type": "uint256"
        }
      ],
      "name": "AnalyticsUpdated",
      "type": "event"
    },
    {
      "anonymous": false,
      "inputs": [
        {
          "indexed": true,
          "internalType": "uint256",
          "name": "poolId",
          "type": "uint256"
        },
        {
          "indexed": true,
          "internalType": "address",
          "name": "bettor",
          "type": "address"
        },
        {
          "indexed": false,
          "internalType": "uint256",
          "name": "amount",
          "type": "uint256"
        },
        {
          "indexed": false,
          "internalType": "bool",
          "name": "isForOutcome",
          "type": "bool"
        }
      ],
      "name": "BetPlaced",
      "type": "event"
    },
    {
      "anonymous": false,
      "inputs": [
        {
          "indexed": true,
          "internalType": "uint256",
          "name": "poolId",
          "type": "uint256"
        },
        {
          "indexed": true,
          "internalType": "address",
          "name": "provider",
          "type": "address"
        },
        {
          "indexed": false,
          "internalType": "uint256",
          "name": "amount",
          "type": "uint256"
        }
      ],
      "name": "LiquidityAdded",
      "type": "event"
    },
    {
      "anonymous": false,
      "inputs": [
        {
          "indexed": true,
          "internalType": "address",
          "name": "previousOwner",
          "type": "address"
        },
        {
          "indexed": true,
          "internalType": "address",
          "name": "newOwner",
          "type": "address"
        }
      ],
      "name": "OwnershipTransferred",
      "type": "event"
    },
    {
      "anonymous": false,
      "inputs": [
        {
          "indexed": true,
          "internalType": "uint256",
          "name": "poolId",
          "type": "uint256"
        },
        {
          "indexed": true,
          "internalType": "address",
          "name": "creator",
          "type": "address"
        },
        {
          "indexed": false,
          "internalType": "uint256",
          "name": "eventStartTime",
          "type": "uint256"
        },
        {
          "indexed": false,
          "internalType": "uint256",
          "name": "eventEndTime",
          "type": "uint256"
        },
        {
          "indexed": false,
          "internalType": "enum OracleType",
          "name": "oracleType",
          "type": "uint8"
        },
        {
          "indexed": false,
          "internalType": "enum MarketType",
          "name": "marketType",
          "type": "uint8"
        },
        {
          "indexed": false,
          "internalType": "string",
          "name": "marketId",
          "type": "string"
        },
        {
          "indexed": false,
          "internalType": "bytes32",
          "name": "league",
          "type": "bytes32"
        },
        {
          "indexed": false,
          "internalType": "bytes32",
          "name": "category",
          "type": "bytes32"
        }
      ],
      "name": "PoolCreated",
      "type": "event"
    },
    {
      "anonymous": false,
      "inputs": [
        {
          "indexed": true,
          "internalType": "uint256",
          "name": "poolId",
          "type": "uint256"
        },
        {
          "indexed": false,
          "internalType": "string",
          "name": "reason",
          "type": "string"
        }
      ],
      "name": "PoolRefunded",
      "type": "event"
    },
    {
      "anonymous": false,
      "inputs": [
        {
          "indexed": true,
          "internalType": "uint256",
          "name": "poolId",
          "type": "uint256"
        },
        {
          "indexed": false,
          "internalType": "bytes32",
          "name": "result",
          "type": "bytes32"
        },
        {
          "indexed": false,
          "internalType": "bool",
          "name": "creatorSideWon",
          "type": "bool"
        },
        {
          "indexed": false,
          "internalType": "uint256",
          "name": "timestamp",
          "type": "uint256"
        }
      ],
      "name": "PoolSettled",
      "type": "event"
    },
    {
      "anonymous": false,
      "inputs": [
        {
          "indexed": true,
          "internalType": "address",
          "name": "user",
          "type": "address"
        },
        {
          "indexed": false,
          "internalType": "enum ReputationSystem.ReputationAction",
          "name": "action",
          "type": "uint8"
        },
        {
          "indexed": false,
          "internalType": "uint256",
          "name": "value",
          "type": "uint256"
        },
        {
          "indexed": true,
          "internalType": "bytes32",
          "name": "poolId",
          "type": "bytes32"
        },
        {
          "indexed": false,
          "internalType": "uint256",
          "name": "timestamp",
          "type": "uint256"
        }
      ],
      "name": "ReputationActionOccurred",
      "type": "event"
    },
    {
      "anonymous": false,
      "inputs": [
        {
          "indexed": true,
          "internalType": "uint256",
          "name": "poolId",
          "type": "uint256"
        },
        {
          "indexed": true,
          "internalType": "address",
          "name": "user",
          "type": "address"
        },
        {
          "indexed": false,
          "internalType": "uint256",
          "name": "amount",
          "type": "uint256"
        }
      ],
      "name": "RewardClaimed",
      "type": "event"
    },
    {
      "anonymous": false,
      "inputs": [
        {
          "indexed": true,
          "internalType": "uint256",
          "name": "poolId",
          "type": "uint256"
        },
        {
          "indexed": true,
          "internalType": "address",
          "name": "user",
          "type": "address"
        }
      ],
      "name": "UserWhitelisted",
      "type": "event"
    },
    {
      "inputs": [],
      "name": "HIGH_ODDS_THRESHOLD",
      "outputs": [
        {
          "internalType": "uint256",
          "name": "",
          "type": "uint256"
        }
      ],
      "stateMutability": "view",
      "type": "function"
    },
    {
      "inputs": [],
      "name": "MAX_LP_PROVIDERS",
      "outputs": [
        {
          "internalType": "uint256",
          "name": "",
          "type": "uint256"
        }
      ],
      "stateMutability": "view",
      "type": "function"
    },
    {
      "inputs": [],
      "name": "MAX_PARTICIPANTS",
      "outputs": [
        {
          "internalType": "uint256",
          "name": "",
          "type": "uint256"
        }
      ],
      "stateMutability": "view",
      "type": "function"
    },
    {
      "inputs": [
        {
          "internalType": "uint256",
          "name": "poolId",
          "type": "uint256"
        },
        {
          "internalType": "uint256",
          "name": "amount",
          "type": "uint256"
        }
      ],
      "name": "addLiquidity",
      "outputs": [],
      "stateMutability": "payable",
      "type": "function"
    },
    {
      "inputs": [
        {
          "internalType": "uint256",
          "name": "poolId",
          "type": "uint256"
        },
        {
          "internalType": "address",
          "name": "user",
          "type": "address"
        }
      ],
      "name": "addToWhitelist",
      "outputs": [],
      "stateMutability": "nonpayable",
      "type": "function"
    },
    {
      "inputs": [
        {
          "internalType": "address",
          "name": "user",
          "type": "address"
        }
      ],
      "name": "adjustedFeeRate",
      "outputs": [
        {
          "internalType": "uint256",
          "name": "",
          "type": "uint256"
        }
      ],
      "stateMutability": "view",
      "type": "function"
    },
    {
      "inputs": [],
      "name": "arbitrationTimeout",
      "outputs": [
        {
          "internalType": "uint256",
          "name": "",
          "type": "uint256"
        }
      ],
      "stateMutability": "view",
      "type": "function"
    },
    {
      "inputs": [],
      "name": "bettingGracePeriod",
      "outputs": [
        {
          "internalType": "uint256",
          "name": "",
          "type": "uint256"
        }
      ],
      "stateMutability": "view",
      "type": "function"
    },
    {
      "inputs": [
        {
          "internalType": "uint256",
          "name": "",
          "type": "uint256"
        },
        {
          "internalType": "address",
          "name": "",
          "type": "address"
        }
      ],
      "name": "bettorStakes",
      "outputs": [
        {
          "internalType": "uint256",
          "name": "",
          "type": "uint256"
        }
      ],
      "stateMutability": "view",
      "type": "function"
    },
    {
      "inputs": [],
      "name": "bitrToken",
      "outputs": [
        {
          "internalType": "contract IERC20",
          "name": "",
          "type": "address"
        }
      ],
      "stateMutability": "view",
      "type": "function"
    },
    {
      "inputs": [],
      "name": "boostSystem",
      "outputs": [
        {
          "internalType": "contract IBitredictBoostSystem",
          "name": "",
          "type": "address"
        }
      ],
      "stateMutability": "view",
      "type": "function"
    },
    {
      "inputs": [
        {
          "internalType": "bytes32",
          "name": "data",
          "type": "bytes32"
        }
      ],
      "name": "bytes32ToString",
      "outputs": [
        {
          "internalType": "string",
          "name": "",
          "type": "string"
        }
      ],
      "stateMutability": "pure",
      "type": "function"
    },
    {
      "inputs": [
        {
          "internalType": "bytes32",
          "name": "",
          "type": "bytes32"
        },
        {
          "internalType": "uint256",
          "name": "",
          "type": "uint256"
        }
      ],
      "name": "categoryPools",
      "outputs": [
        {
          "internalType": "uint256",
          "name": "",
          "type": "uint256"
        }
      ],
      "stateMutability": "view",
      "type": "function"
    },
    {
      "inputs": [
        {
          "internalType": "bytes32",
          "name": "",
          "type": "bytes32"
        }
      ],
      "name": "categoryStats",
      "outputs": [
        {
          "internalType": "uint256",
          "name": "totalPools",
          "type": "uint256"
        },
        {
          "internalType": "uint256",
          "name": "totalVolume",
          "type": "uint256"
        },
        {
          "internalType": "uint256",
          "name": "averageOdds",
          "type": "uint256"
        },
        {
          "internalType": "uint256",
          "name": "lastActivityTime",
          "type": "uint256"
        }
      ],
      "stateMutability": "view",
      "type": "function"
    },
    {
      "inputs": [
        {
          "internalType": "uint256",
          "name": "poolId",
          "type": "uint256"
        }
      ],
      "name": "claim",
      "outputs": [],
      "stateMutability": "nonpayable",
      "type": "function"
    },
    {
      "inputs": [
        {
          "internalType": "uint256",
          "name": "",
          "type": "uint256"
        },
        {
          "internalType": "address",
          "name": "",
          "type": "address"
        }
      ],
      "name": "claimed",
      "outputs": [
        {
          "internalType": "bool",
          "name": "",
          "type": "bool"
        }
      ],
      "stateMutability": "view",
      "type": "function"
    },
    {
      "inputs": [
        {
          "internalType": "bytes32",
          "name": "_predictedOutcome",
          "type": "bytes32"
        },
        {
          "internalType": "uint256",
          "name": "_odds",
          "type": "uint256"
        },
        {
          "internalType": "uint256",
          "name": "_creatorStake",
          "type": "uint256"
        },
        {
          "internalType": "uint256",
          "name": "_eventStartTime",
          "type": "uint256"
        },
        {
          "internalType": "uint256",
          "name": "_eventEndTime",
          "type": "uint256"
        },
        {
          "internalType": "bytes32",
          "name": "_league",
          "type": "bytes32"
        },
        {
          "internalType": "bytes32",
          "name": "_category",
          "type": "bytes32"
        },
        {
          "internalType": "bytes32",
          "name": "_region",
          "type": "bytes32"
        },
        {
          "internalType": "bytes32",
          "name": "_homeTeam",
          "type": "bytes32"
        },
        {
          "internalType": "bytes32",
          "name": "_awayTeam",
          "type": "bytes32"
        },
        {
          "internalType": "bytes32",
          "name": "_title",
          "type": "bytes32"
        },
        {
          "internalType": "bool",
          "name": "_isPrivate",
          "type": "bool"
        },
        {
          "internalType": "uint256",
          "name": "_maxBetPerUser",
          "type": "uint256"
        },
        {
          "internalType": "bool",
          "name": "_useBitr",
          "type": "bool"
        },
        {
          "internalType": "enum OracleType",
          "name": "_oracleType",
          "type": "uint8"
        },
        {
          "internalType": "enum MarketType",
          "name": "_marketType",
          "type": "uint8"
        },
        {
          "internalType": "string",
          "name": "_marketId",
          "type": "string"
        }
      ],
      "name": "createPool",
      "outputs": [
        {
          "internalType": "uint256",
          "name": "",
          "type": "uint256"
        }
      ],
      "stateMutability": "payable",
      "type": "function"
    },
    {
      "inputs": [],
      "name": "creationFeeBITR",
      "outputs": [
        {
          "internalType": "uint256",
          "name": "",
          "type": "uint256"
        }
      ],
      "stateMutability": "view",
      "type": "function"
    },
    {
      "inputs": [],
      "name": "creationFeeSTT",
      "outputs": [
        {
          "internalType": "uint256",
          "name": "",
          "type": "uint256"
        }
      ],
      "stateMutability": "view",
      "type": "function"
    },
    {
      "inputs": [
        {
          "internalType": "address",
          "name": "",
          "type": "address"
        },
        {
          "internalType": "uint256",
          "name": "",
          "type": "uint256"
        }
      ],
      "name": "creatorActivePools",
      "outputs": [
        {
          "internalType": "uint256",
          "name": "",
          "type": "uint256"
        }
      ],
      "stateMutability": "view",
      "type": "function"
    },
    {
      "inputs": [
        {
          "internalType": "address",
          "name": "",
          "type": "address"
        }
      ],
      "name": "creatorStats",
      "outputs": [
        {
          "internalType": "uint256",
          "name": "totalPoolsCreated",
          "type": "uint256"
        },
        {
          "internalType": "uint256",
          "name": "successfulPools",
          "type": "uint256"
        },
        {
          "internalType": "uint256",
          "name": "totalVolumeGenerated",
          "type": "uint256"
        },
        {
          "internalType": "uint256",
          "name": "averagePoolSize",
          "type": "uint256"
        },
        {
          "internalType": "uint256",
          "name": "reputationScore",
          "type": "uint256"
        },
        {
          "internalType": "uint256",
          "name": "winRate",
          "type": "uint256"
        },
        {
          "internalType": "uint256",
          "name": "totalEarnings",
          "type": "uint256"
        },
        {
          "internalType": "uint256",
          "name": "activePoolsCount",
          "type": "uint256"
        }
      ],
      "stateMutability": "view",
      "type": "function"
    },
    {
      "inputs": [
        {
          "internalType": "address",
          "name": "stakingContract",
          "type": "address"
        }
      ],
      "name": "distributeFees",
      "outputs": [],
      "stateMutability": "nonpayable",
      "type": "function"
    },
    {
      "inputs": [],
      "name": "feeCollector",
      "outputs": [
        {
          "internalType": "address",
          "name": "",
          "type": "address"
        }
      ],
      "stateMutability": "view",
      "type": "function"
    },
    {
      "inputs": [
        {
          "internalType": "uint256",
          "name": "limit",
          "type": "uint256"
        }
      ],
      "name": "getActivePools",
      "outputs": [
        {
          "internalType": "uint256[]",
          "name": "",
          "type": "uint256[]"
        }
      ],
      "stateMutability": "view",
      "type": "function"
    },
    {
      "inputs": [],
      "name": "getActivePools",
      "outputs": [
        {
          "internalType": "uint256[]",
          "name": "",
          "type": "uint256[]"
        }
      ],
      "stateMutability": "view",
      "type": "function"
    },
    {
      "inputs": [
        {
          "internalType": "bytes32",
          "name": "categoryHash",
          "type": "bytes32"
        }
      ],
      "name": "getCategoryStats",
      "outputs": [
        {
          "internalType": "uint256",
          "name": "totalPools",
          "type": "uint256"
        },
        {
          "internalType": "uint256",
          "name": "totalVolume",
          "type": "uint256"
        },
        {
          "internalType": "uint256",
          "name": "averageOdds",
          "type": "uint256"
        },
        {
          "internalType": "uint256",
          "name": "lastActivityTime",
          "type": "uint256"
        }
      ],
      "stateMutability": "view",
      "type": "function"
    },
    {
      "inputs": [
        {
          "internalType": "address",
          "name": "creator",
          "type": "address"
        }
      ],
      "name": "getCreatorStats",
      "outputs": [
        {
          "internalType": "uint256",
          "name": "totalPoolsCreated",
          "type": "uint256"
        },
        {
          "internalType": "uint256",
          "name": "successfulPools",
          "type": "uint256"
        },
        {
          "internalType": "uint256",
          "name": "totalVolumeGenerated",
          "type": "uint256"
        },
        {
          "internalType": "uint256",
          "name": "averagePoolSize",
          "type": "uint256"
        },
        {
          "internalType": "uint256",
          "name": "reputationScore",
          "type": "uint256"
        },
        {
          "internalType": "uint256",
          "name": "winRate",
          "type": "uint256"
        },
        {
          "internalType": "uint256",
          "name": "totalEarnings",
          "type": "uint256"
        },
        {
          "internalType": "uint256",
          "name": "activePoolsCount",
          "type": "uint256"
        }
      ],
      "stateMutability": "view",
      "type": "function"
    },
    {
      "inputs": [],
      "name": "getGlobalStats",
      "outputs": [
        {
          "internalType": "uint256",
          "name": "totalPools",
          "type": "uint256"
        },
        {
          "internalType": "uint256",
          "name": "totalVolume",
          "type": "uint256"
        },
        {
          "internalType": "uint256",
          "name": "averagePoolSize",
          "type": "uint256"
        },
        {
          "internalType": "uint256",
          "name": "lastUpdated",
          "type": "uint256"
        }
      ],
      "stateMutability": "view",
      "type": "function"
    },
    {
      "inputs": [],
      "name": "getMarketTypeDistribution",
      "outputs": [
        {
          "internalType": "uint256[8]",
          "name": "",
          "type": "uint256[8]"
        }
      ],
      "stateMutability": "view",
      "type": "function"
    },
    {
      "inputs": [],
      "name": "getOracleTypeDistribution",
      "outputs": [
        {
          "internalType": "uint256[2]",
          "name": "",
          "type": "uint256[2]"
        }
      ],
      "stateMutability": "view",
      "type": "function"
    },
    {
      "inputs": [
        {
          "internalType": "uint256",
          "name": "poolId",
          "type": "uint256"
        }
      ],
      "name": "getPool",
      "outputs": [
        {
          "components": [
            {
              "internalType": "address",
              "name": "creator",
              "type": "address"
            },
            {
              "internalType": "uint16",
              "name": "odds",
              "type": "uint16"
            },
            {
              "internalType": "uint8",
              "name": "flags",
              "type": "uint8"
            },
            {
              "internalType": "enum OracleType",
              "name": "oracleType",
              "type": "uint8"
            },
            {
              "internalType": "enum MarketType",
              "name": "marketType",
              "type": "uint8"
            },
            {
              "internalType": "uint8",
              "name": "reserved",
              "type": "uint8"
            },
            {
              "internalType": "uint256",
              "name": "creatorStake",
              "type": "uint256"
            },
            {
              "internalType": "uint256",
              "name": "totalCreatorSideStake",
              "type": "uint256"
            },
            {
              "internalType": "uint256",
              "name": "maxBettorStake",
              "type": "uint256"
            },
            {
              "internalType": "uint256",
              "name": "totalBettorStake",
              "type": "uint256"
            },
            {
              "internalType": "bytes32",
              "name": "predictedOutcome",
              "type": "bytes32"
            },
            {
              "internalType": "bytes32",
              "name": "result",
              "type": "bytes32"
            },
            {
              "internalType": "uint256",
              "name": "eventStartTime",
              "type": "uint256"
            },
            {
              "internalType": "uint256",
              "name": "eventEndTime",
              "type": "uint256"
            },
            {
              "internalType": "uint256",
              "name": "bettingEndTime",
              "type": "uint256"
            },
            {
              "internalType": "uint256",
              "name": "resultTimestamp",
              "type": "uint256"
            },
            {
              "internalType": "uint256",
              "name": "arbitrationDeadline",
              "type": "uint256"
            },
            {
              "internalType": "uint256",
              "name": "maxBetPerUser",
              "type": "uint256"
            },
            {
              "internalType": "bytes32",
              "name": "league",
              "type": "bytes32"
            },
            {
              "internalType": "bytes32",
              "name": "category",
              "type": "bytes32"
            },
            {
              "internalType": "bytes32",
              "name": "region",
              "type": "bytes32"
            },
            {
              "internalType": "bytes32",
              "name": "homeTeam",
              "type": "bytes32"
            },
            {
              "internalType": "bytes32",
              "name": "awayTeam",
              "type": "bytes32"
            },
            {
              "internalType": "bytes32",
              "name": "title",
              "type": "bytes32"
            },
            {
              "internalType": "string",
              "name": "marketId",
              "type": "string"
            }
          ],
          "internalType": "struct BitredictPoolCore.Pool",
          "name": "",
          "type": "tuple"
        }
      ],
      "stateMutability": "view",
      "type": "function"
    },
    {
      "inputs": [
        {
          "internalType": "uint256",
          "name": "poolId",
          "type": "uint256"
        }
      ],
      "name": "getPoolAnalytics",
      "outputs": [
        {
          "internalType": "uint256",
          "name": "totalVolume",
          "type": "uint256"
        },
        {
          "internalType": "uint256",
          "name": "participantCount",
          "type": "uint256"
        },
        {
          "internalType": "uint256",
          "name": "averageBetSize",
          "type": "uint256"
        },
        {
          "internalType": "uint256",
          "name": "creatorReputation",
          "type": "uint256"
        },
        {
          "internalType": "uint256",
          "name": "liquidityRatio",
          "type": "uint256"
        },
        {
          "internalType": "uint256",
          "name": "timeToFill",
          "type": "uint256"
        },
        {
          "internalType": "bool",
          "name": "isHotPool",
          "type": "bool"
        },
        {
          "internalType": "uint256",
          "name": "fillPercentage",
          "type": "uint256"
        },
        {
          "internalType": "uint256",
          "name": "lastActivityTime",
          "type": "uint256"
        }
      ],
      "stateMutability": "view",
      "type": "function"
    },
    {
      "inputs": [
        {
          "internalType": "uint256",
          "name": "poolId",
          "type": "uint256"
        }
      ],
      "name": "getPoolWithDecodedNames",
      "outputs": [
        {
          "internalType": "address",
          "name": "creator",
          "type": "address"
        },
        {
          "internalType": "uint16",
          "name": "odds",
          "type": "uint16"
        },
        {
          "internalType": "uint8",
          "name": "flags",
          "type": "uint8"
        },
        {
          "internalType": "enum OracleType",
          "name": "oracleType",
          "type": "uint8"
        },
        {
          "internalType": "uint256",
          "name": "creatorStake",
          "type": "uint256"
        },
        {
          "internalType": "uint256",
          "name": "eventStartTime",
          "type": "uint256"
        },
        {
          "internalType": "uint256",
          "name": "eventEndTime",
          "type": "uint256"
        },
        {
          "internalType": "string",
          "name": "marketId",
          "type": "string"
        },
        {
          "internalType": "string",
          "name": "league",
          "type": "string"
        },
        {
          "internalType": "string",
          "name": "category",
          "type": "string"
        },
        {
          "internalType": "string",
          "name": "region",
          "type": "string"
        },
        {
          "internalType": "string",
          "name": "homeTeam",
          "type": "string"
        },
        {
          "internalType": "string",
          "name": "awayTeam",
          "type": "string"
        },
        {
          "internalType": "string",
          "name": "title",
          "type": "string"
        }
      ],
      "stateMutability": "view",
      "type": "function"
    },
    {
      "inputs": [
        {
          "internalType": "bytes32",
          "name": "categoryHash",
          "type": "bytes32"
        }
      ],
      "name": "getPoolsByCategory",
      "outputs": [
        {
          "internalType": "uint256[]",
          "name": "",
          "type": "uint256[]"
        }
      ],
      "stateMutability": "view",
      "type": "function"
    },
    {
      "inputs": [
        {
          "internalType": "address",
          "name": "creator",
          "type": "address"
        },
        {
          "internalType": "uint256",
          "name": "limit",
          "type": "uint256"
        }
      ],
      "name": "getPoolsByCreator",
      "outputs": [
        {
          "internalType": "uint256[]",
          "name": "",
          "type": "uint256[]"
        }
      ],
      "stateMutability": "view",
      "type": "function"
    },
    {
      "inputs": [
        {
          "internalType": "address",
          "name": "creator",
          "type": "address"
        }
      ],
      "name": "getPoolsByCreator",
      "outputs": [
        {
          "internalType": "uint256[]",
          "name": "",
          "type": "uint256[]"
        }
      ],
      "stateMutability": "view",
      "type": "function"
    },
    {
      "inputs": [
        {
          "internalType": "enum MarketType",
          "name": "marketType",
          "type": "uint8"
        },
        {
          "internalType": "uint256",
          "name": "limit",
          "type": "uint256"
        }
      ],
      "name": "getPoolsByMarketType",
      "outputs": [
        {
          "internalType": "uint256[]",
          "name": "",
          "type": "uint256[]"
        }
      ],
      "stateMutability": "view",
      "type": "function"
    },
    {
      "inputs": [
        {
          "internalType": "enum OracleType",
          "name": "oracleType",
          "type": "uint8"
        },
        {
          "internalType": "uint256",
          "name": "limit",
          "type": "uint256"
        }
      ],
      "name": "getPoolsByOracleType",
      "outputs": [
        {
          "internalType": "uint256[]",
          "name": "",
          "type": "uint256[]"
        }
      ],
      "stateMutability": "view",
      "type": "function"
    },
    {
      "inputs": [
        {
          "internalType": "uint256",
          "name": "limit",
          "type": "uint256"
        }
      ],
      "name": "getTopCreators",
      "outputs": [
        {
          "internalType": "address[]",
          "name": "creators",
          "type": "address[]"
        },
        {
          "internalType": "uint256[]",
          "name": "volumes",
          "type": "uint256[]"
        }
      ],
      "stateMutability": "pure",
      "type": "function"
    },
    {
      "inputs": [],
      "name": "globalStats",
      "outputs": [
        {
          "internalType": "uint256",
          "name": "totalPools",
          "type": "uint256"
        },
        {
          "internalType": "uint256",
          "name": "totalVolume",
          "type": "uint256"
        },
        {
          "internalType": "uint256",
          "name": "totalUsers",
          "type": "uint256"
        },
        {
          "internalType": "uint256",
          "name": "totalBets",
          "type": "uint256"
        },
        {
          "internalType": "uint256",
          "name": "averagePoolSize",
          "type": "uint256"
        },
        {
          "internalType": "uint256",
          "name": "lastUpdated",
          "type": "uint256"
        }
      ],
      "stateMutability": "view",
      "type": "function"
    },
    {
      "inputs": [],
      "name": "guidedOracle",
      "outputs": [
        {
          "internalType": "address",
          "name": "",
          "type": "address"
        }
      ],
      "stateMutability": "view",
      "type": "function"
    },
    {
      "inputs": [
        {
          "internalType": "address",
          "name": "",
          "type": "address"
        }
      ],
      "name": "longestStreak",
      "outputs": [
        {
          "internalType": "uint256",
          "name": "",
          "type": "uint256"
        }
      ],
      "stateMutability": "view",
      "type": "function"
    },
    {
      "inputs": [
        {
          "internalType": "uint256",
          "name": "",
          "type": "uint256"
        },
        {
          "internalType": "address",
          "name": "",
          "type": "address"
        }
      ],
      "name": "lpStakes",
      "outputs": [
        {
          "internalType": "uint256",
          "name": "",
          "type": "uint256"
        }
      ],
      "stateMutability": "view",
      "type": "function"
    },
    {
      "inputs": [],
      "name": "minBetAmount",
      "outputs": [
        {
          "internalType": "uint256",
          "name": "",
          "type": "uint256"
        }
      ],
      "stateMutability": "view",
      "type": "function"
    },
    {
      "inputs": [],
      "name": "minPoolStakeBITR",
      "outputs": [
        {
          "internalType": "uint256",
          "name": "",
          "type": "uint256"
        }
      ],
      "stateMutability": "view",
      "type": "function"
    },
    {
      "inputs": [],
      "name": "minPoolStakeSTT",
      "outputs": [
        {
          "internalType": "uint256",
          "name": "",
          "type": "uint256"
        }
      ],
      "stateMutability": "view",
      "type": "function"
    },
    {
      "inputs": [],
      "name": "optimisticOracle",
      "outputs": [
        {
          "internalType": "address",
          "name": "",
          "type": "address"
        }
      ],
      "stateMutability": "view",
      "type": "function"
    },
    {
      "inputs": [],
      "name": "owner",
      "outputs": [
        {
          "internalType": "address",
          "name": "",
          "type": "address"
        }
      ],
      "stateMutability": "view",
      "type": "function"
    },
    {
      "inputs": [
        {
          "internalType": "uint256",
          "name": "poolId",
          "type": "uint256"
        },
        {
          "internalType": "uint256",
          "name": "amount",
          "type": "uint256"
        }
      ],
      "name": "placeBet",
      "outputs": [],
      "stateMutability": "payable",
      "type": "function"
    },
    {
      "inputs": [],
      "name": "platformFee",
      "outputs": [
        {
          "internalType": "uint256",
          "name": "",
          "type": "uint256"
        }
      ],
      "stateMutability": "view",
      "type": "function"
    },
    {
      "inputs": [
        {
          "internalType": "uint256",
          "name": "",
          "type": "uint256"
        }
      ],
      "name": "poolAnalytics",
      "outputs": [
        {
          "internalType": "uint256",
          "name": "totalVolume",
          "type": "uint256"
        },
        {
          "internalType": "uint256",
          "name": "participantCount",
          "type": "uint256"
        },
        {
          "internalType": "uint256",
          "name": "averageBetSize",
          "type": "uint256"
        },
        {
          "internalType": "uint256",
          "name": "creatorReputation",
          "type": "uint256"
        },
        {
          "internalType": "uint256",
          "name": "liquidityRatio",
          "type": "uint256"
        },
        {
          "internalType": "uint256",
          "name": "timeToFill",
          "type": "uint256"
        },
        {
          "internalType": "bool",
          "name": "isHotPool",
          "type": "bool"
        },
        {
          "internalType": "uint256",
          "name": "fillPercentage",
          "type": "uint256"
        },
        {
          "internalType": "uint256",
          "name": "lastActivityTime",
          "type": "uint256"
        }
      ],
      "stateMutability": "view",
      "type": "function"
    },
    {
      "inputs": [
        {
          "internalType": "uint256",
          "name": "",
          "type": "uint256"
        },
        {
          "internalType": "uint256",
          "name": "",
          "type": "uint256"
        }
      ],
      "name": "poolBettors",
      "outputs": [
        {
          "internalType": "address",
          "name": "",
          "type": "address"
        }
      ],
      "stateMutability": "view",
      "type": "function"
    },
    {
      "inputs": [],
      "name": "poolCount",
      "outputs": [
        {
          "internalType": "uint256",
          "name": "",
          "type": "uint256"
        }
      ],
      "stateMutability": "view",
      "type": "function"
    },
    {
      "inputs": [
        {
          "internalType": "uint256",
          "name": "",
          "type": "uint256"
        }
      ],
      "name": "poolDisplayData",
      "outputs": [
        {
          "internalType": "string",
          "name": "",
          "type": "string"
        }
      ],
      "stateMutability": "view",
      "type": "function"
    },
    {
      "inputs": [
        {
          "internalType": "uint256",
          "name": "poolId",
          "type": "uint256"
        }
      ],
      "name": "poolExists",
      "outputs": [
        {
          "internalType": "bool",
          "name": "",
          "type": "bool"
        }
      ],
      "stateMutability": "view",
      "type": "function"
    },
    {
      "inputs": [
        {
          "internalType": "uint256",
          "name": "",
          "type": "uint256"
        }
      ],
      "name": "poolIdToCreatorIndex",
      "outputs": [
        {
          "internalType": "uint256",
          "name": "",
          "type": "uint256"
        }
      ],
      "stateMutability": "view",
      "type": "function"
    },
    {
      "inputs": [
        {
          "internalType": "uint256",
          "name": "",
          "type": "uint256"
        },
        {
          "internalType": "uint256",
          "name": "",
          "type": "uint256"
        }
      ],
      "name": "poolLPs",
      "outputs": [
        {
          "internalType": "address",
          "name": "",
          "type": "address"
        }
      ],
      "stateMutability": "view",
      "type": "function"
    },
    {
      "inputs": [
        {
          "internalType": "uint256",
          "name": "",
          "type": "uint256"
        },
        {
          "internalType": "address",
          "name": "",
          "type": "address"
        }
      ],
      "name": "poolWhitelist",
      "outputs": [
        {
          "internalType": "bool",
          "name": "",
          "type": "bool"
        }
      ],
      "stateMutability": "view",
      "type": "function"
    },
    {
      "inputs": [
        {
          "internalType": "uint256",
          "name": "",
          "type": "uint256"
        }
      ],
      "name": "pools",
      "outputs": [
        {
          "internalType": "address",
          "name": "creator",
          "type": "address"
        },
        {
          "internalType": "uint16",
          "name": "odds",
          "type": "uint16"
        },
        {
          "internalType": "uint8",
          "name": "flags",
          "type": "uint8"
        },
        {
          "internalType": "enum OracleType",
          "name": "oracleType",
          "type": "uint8"
        },
        {
          "internalType": "enum MarketType",
          "name": "marketType",
          "type": "uint8"
        },
        {
          "internalType": "uint8",
          "name": "reserved",
          "type": "uint8"
        },
        {
          "internalType": "uint256",
          "name": "creatorStake",
          "type": "uint256"
        },
        {
          "internalType": "uint256",
          "name": "totalCreatorSideStake",
          "type": "uint256"
        },
        {
          "internalType": "uint256",
          "name": "maxBettorStake",
          "type": "uint256"
        },
        {
          "internalType": "uint256",
          "name": "totalBettorStake",
          "type": "uint256"
        },
        {
          "internalType": "bytes32",
          "name": "predictedOutcome",
          "type": "bytes32"
        },
        {
          "internalType": "bytes32",
          "name": "result",
          "type": "bytes32"
        },
        {
          "internalType": "uint256",
          "name": "eventStartTime",
          "type": "uint256"
        },
        {
          "internalType": "uint256",
          "name": "eventEndTime",
          "type": "uint256"
        },
        {
          "internalType": "uint256",
          "name": "bettingEndTime",
          "type": "uint256"
        },
        {
          "internalType": "uint256",
          "name": "resultTimestamp",
          "type": "uint256"
        },
        {
          "internalType": "uint256",
          "name": "arbitrationDeadline",
          "type": "uint256"
        },
        {
          "internalType": "uint256",
          "name": "maxBetPerUser",
          "type": "uint256"
        },
        {
          "internalType": "bytes32",
          "name": "league",
          "type": "bytes32"
        },
        {
          "internalType": "bytes32",
          "name": "category",
          "type": "bytes32"
        },
        {
          "internalType": "bytes32",
          "name": "region",
          "type": "bytes32"
        },
        {
          "internalType": "bytes32",
          "name": "homeTeam",
          "type": "bytes32"
        },
        {
          "internalType": "bytes32",
          "name": "awayTeam",
          "type": "bytes32"
        },
        {
          "internalType": "bytes32",
          "name": "title",
          "type": "bytes32"
        },
        {
          "internalType": "string",
          "name": "marketId",
          "type": "string"
        }
      ],
      "stateMutability": "view",
      "type": "function"
    },
    {
      "inputs": [
        {
          "internalType": "address",
          "name": "",
          "type": "address"
        }
      ],
      "name": "predictionStreaks",
      "outputs": [
        {
          "internalType": "uint256",
          "name": "",
          "type": "uint256"
        }
      ],
      "stateMutability": "view",
      "type": "function"
    },
    {
      "inputs": [
        {
          "internalType": "uint256",
          "name": "poolId",
          "type": "uint256"
        }
      ],
      "name": "refundPool",
      "outputs": [],
      "stateMutability": "nonpayable",
      "type": "function"
    },
    {
      "inputs": [
        {
          "internalType": "uint256",
          "name": "poolId",
          "type": "uint256"
        },
        {
          "internalType": "address",
          "name": "user",
          "type": "address"
        }
      ],
      "name": "removeFromWhitelist",
      "outputs": [],
      "stateMutability": "nonpayable",
      "type": "function"
    },
    {
      "inputs": [],
      "name": "renounceOwnership",
      "outputs": [],
      "stateMutability": "nonpayable",
      "type": "function"
    },
    {
      "inputs": [],
      "name": "reputationSystem",
      "outputs": [
        {
          "internalType": "contract IReputationSystem",
          "name": "",
          "type": "address"
        }
      ],
      "stateMutability": "view",
      "type": "function"
    },
    {
      "inputs": [
        {
          "internalType": "address",
          "name": "_boostSystem",
          "type": "address"
        }
      ],
      "name": "setBoostSystem",
      "outputs": [],
      "stateMutability": "nonpayable",
      "type": "function"
    },
    {
      "inputs": [
        {
          "internalType": "address",
          "name": "_reputationSystem",
          "type": "address"
        }
      ],
      "name": "setReputationSystem",
      "outputs": [],
      "stateMutability": "nonpayable",
      "type": "function"
    },
    {
      "inputs": [
        {
          "internalType": "uint256",
          "name": "poolId",
          "type": "uint256"
        },
        {
          "internalType": "bytes32",
          "name": "outcome",
          "type": "bytes32"
        }
      ],
      "name": "settlePool",
      "outputs": [],
      "stateMutability": "nonpayable",
      "type": "function"
    },
    {
      "inputs": [
        {
          "internalType": "uint256",
          "name": "poolId",
          "type": "uint256"
        }
      ],
      "name": "settlePoolAutomatically",
      "outputs": [],
      "stateMutability": "nonpayable",
      "type": "function"
    },
    {
      "inputs": [
        {
          "internalType": "address",
          "name": "",
          "type": "address"
        }
      ],
      "name": "streakMultiplier",
      "outputs": [
        {
          "internalType": "uint256",
          "name": "",
          "type": "uint256"
        }
      ],
      "stateMutability": "view",
      "type": "function"
    },
    {
      "inputs": [],
      "name": "totalCollectedBITR",
      "outputs": [
        {
          "internalType": "uint256",
          "name": "",
          "type": "uint256"
        }
      ],
      "stateMutability": "view",
      "type": "function"
    },
    {
      "inputs": [],
      "name": "totalCollectedSTT",
      "outputs": [
        {
          "internalType": "uint256",
          "name": "",
          "type": "uint256"
        }
      ],
      "stateMutability": "view",
      "type": "function"
    },
    {
      "inputs": [
        {
          "internalType": "address",
          "name": "newOwner",
          "type": "address"
        }
      ],
      "name": "transferOwnership",
      "outputs": [],
      "stateMutability": "nonpayable",
      "type": "function"
    },
    {
      "inputs": [
        {
          "internalType": "uint256",
          "name": "poolId",
          "type": "uint256"
        },
        {
          "internalType": "string",
          "name": "displayData",
          "type": "string"
        }
      ],
      "name": "updatePoolDisplayData",
      "outputs": [],
      "stateMutability": "nonpayable",
      "type": "function"
    },
    {
      "inputs": [
        {
          "internalType": "address",
          "name": "user",
          "type": "address"
        },
        {
          "internalType": "bool",
          "name": "won",
          "type": "bool"
        }
      ],
      "name": "updateStreak",
      "outputs": [],
      "stateMutability": "nonpayable",
      "type": "function"
    }
  ],
  "bytecode": "0x60e0346200014c57601f620056b638819003918201601f19168301916001600160401b0383118484101762000151578084926080946040528339810103126200014c576200004d8162000167565b906200005c6020820162000167565b90620000796060620000716040840162000167565b920162000167565b9133156200013357600080546001600160a01b03198082163390811784556040519791936001600160a01b03938416907f8be0079c531659141344cd1fd0a4f28419497f9722a3daafe3b4186f6b6457e09080a3600180551690600254161760025560805260a05260c0524260185561553990816200017d82396080518181816107f301526111e1015260a051818181610838015281816139b40152613c50015260c051818181613abe01528181613b3f0152613da60152f35b604051631e4fbdf760e01b815260006004820152602490fd5b600080fd5b634e487b7160e01b600052604160045260246000fd5b51906001600160a01b03821682036200014c5756fe61018080604052600436101561001457600080fd5b600090813560e01c90816301b708c21461470257508063068bcd8d146144cf578063075ffe76146144175780630e8a01bc14613f3f57806310b082f914613eb4578063120aa87714613e6b578063152cdda914613bbe5780631a3221ed14613b6e5780632230292214613b29578063237e23be146139455780632562e9031461389157806326232a2e1461041057806326d84629146137ac5780632d785461146137135780632e24c587146136ad57806331143cee146136685780633256435014613645578063379607f51461327557806337f284e814613194578063394d9976146131765780633bdc087c146130fd5780633e8670ff146130cb5780634afe62b514612a955780634c2809f1146103c45780634d7aae7814612a715780635556b67614612a385780635e1871d214612a155780635e4de665146129ca578063657c183f146129ae5780636587eda1146129855780636b4169c3146129575780636f068ec314612882578063715018a61461283a57806384499bb6146128165780638483c43c146127d457806385edbcab14611d5457806386a6242714611c605780638b4ed23514611c365780638be9fa5f146118f15780638da5cb5b146118ca5780638ec08354146117fe5780638f63f748146117e05780639201de55146116f4578063933d7c881461158b5780639413f25c146111bb5780639cd441da14610cb15780639f82d47214610bff5780639fd482be14610bb3578063a12a41cf14610b6b578063a695ee3814610b3f578063aac137d614610b21578063ab78cc1514610b05578063ac4afa3814610915578063aedc5981146108ce578063c26e797e14610887578063c2be236914610867578063c341261014610822578063c415b95c146107dd578063c6ae0c3b146107a4578063c84728ef1461076b578063cd7f99df1461069e578063d3d1993d1461063d578063d96d09aa14610410578063de96303b14610604578063e4dc4efc146105bc578063e843f61c14610518578063eb6bc08b146104d3578063ed5175471461048b578063f2fde38b14610415578063f3baf07014610410578063f525cb68146103f2578063f6915af5146103c9578063fa968eea146103c45763fea3e6131461035057600080fd5b346103c15760403660031901126103c15760043561036c6147bb565b9061037a6003548210614dd5565b808352600860205260408320546001600160a01b03919061039e9083163314615191565b8352600f602052604083209116600052602052604060002060ff19815416905580f35b80fd5b6149fe565b50346103c157806003193601126103c1576005546040516001600160a01b039091168152602090f35b50346103c157806003193601126103c1576020600354604051908152f35b614966565b50346103c15760203660031901126103c15761042f6147d6565b610437614ac1565b6001600160a01b03908116908115610472576000548260018060a01b0319821617600055166000805160206154e4833981519152600080a380f35b604051631e4fbdf760e01b815260048101849052602490fd5b50346103c15760403660031901126103c157602435906004358152601c602052604081209081548310156103c15760206104c584846149d0565b90546040519160031b1c8152f35b50346103c15760203660031901126103c1576104ed6147d6565b6104f5614ac1565b600580546001600160a01b0319166001600160a01b039290921691909117905580f35b50346103c157602090816003193601126103c157906004359161053a836151df565b91610548604051938461490f565b838352610568610557856151df565b8483019590601f19013687376151f6565b9160405193604085019060408652518091526060850195915b81811061059f5785870384870152858061059b8988614932565b0390f35b82516001600160a01b031687529583019591830191600101610581565b50346103c157806003193601126103c15760c06013546014546015546016546017549160185493604051958652602086015260408501526060840152608083015260a0820152f35b50346103c15760203660031901126103c1576020906040906001600160a01b0361062c6147d6565b168152601a83522054604051908152f35b50346103c15760203660031901126103c1576040906004358152601260205220805461059b6001830154926002810154906003810154600482015460058301549060ff600685015416926008600786015495015495604051998a998a614a83565b50346103c15760203660031901126103c1576004358152601260205260409081902090519061012082016001600160401b038111838210176107555760405261059b610100825492838552600181015494856020820152600282015480604083015260038301548060608401526004840154908160808501526005850154928360a086015260ff6006870154161515948560c082015260086007880154978860e084015201549788910152604051998a998a614a83565b634e487b7160e01b600052604160045260246000fd5b50346103c15760203660031901126103c15761059b61079061078b6147d6565b615228565b604051918291602083526020830190614932565b50346103c15760203660031901126103c1576020906040906001600160a01b036107cc6147d6565b168152601983522054604051908152f35b50346103c157806003193601126103c1576040517f00000000000000000000000000000000000000000000000000000000000000006001600160a01b03168152602090f35b50346103c157806003193601126103c1576040517f00000000000000000000000000000000000000000000000000000000000000006001600160a01b03168152602090f35b50346103c15760403660031901126103c15761059b61079061078b6147d6565b50346103c15760403660031901126103c15760406108a36147bb565b916004358152600d602052209060018060a01b03166000526020526020604060002054604051908152f35b50346103c15760403660031901126103c15760406108ea6147bb565b916004358152600a602052209060018060a01b03166000526020526020604060002054604051908152f35b50346103c15760203660031901126103c15760043581526008602052604090208061010052808054600182015460a05260028201546101405260038201546004830154600584015460068501546007860154600887015490600988015492600a89015494600b8a015496600c8b015498600d8c01549a600e8d01549c600f01549d601081015460e052601181015461012052601281015461016052604051809181608052601301906109c691614826565b03608051906109d49161490f565b6040518060c052600160a01b60019003821690528060a01c61ffff1660c051602001528060b01c60ff1660c0516040015260c0516060018160b81c60ff1690610a1c91614727565b60c0516080018160c01c60ff1690610a339161474a565b60c81c60ff1660c05160a0015260a05160c05160c001526101405160c05160e0015260c051610100015260c051610120015260c051610140015260c051610160015260c051610180015260c0516101a0015260c0516101c0015260c0516101e0015260c051610200015260c051610220015260c051610240015260c051610260015260c051610280015260e05160c0516102a001526101205160c0516102c001526101605160c0516102e001526103208060c051610300015260c05190810160805190610aff9161477a565b0360c051f35b50346103c157806003193601126103c1576020604051603c8152f35b50346103c157806003193601126103c1576020600654604051908152f35b50346103c15760203660031901126103c1576020610b63610b5e6147d6565b6150b0565b604051908152f35b50346103c15760403660031901126103c157610b856147d6565b6001600160a01b03168152601d60205260408120805460243592908310156103c15760206104c584846149d0565b50346103c15760403660031901126103c1576040610bcf6147bb565b916004358152600f602052209060018060a01b0316600052602052602060ff604060002054166040519015158152f35b50346103c15760203660031901126103c1576040906001600160a01b03610c246147d6565b1681526010602052206040519061010082016001600160401b038111838210176107555760405261059b60e0825492838552600181015494856020820152600282015480604083015260038301548060608401526004840154918260808501526005850154938460a082015260076006870154968760c08401520154968791015260405198899889614983565b50610cbb366149ba565b90610cc4614bbd565b610cd16003548210614dd5565b8083526020600881526040842090610cf1610ceb846152bb565b15614e10565b670de0b6b3a7640000841061117d576969e10de76676d0800000841161114357610d2060098301544210614e4b565b60028201805485191061110557838652600d825260408620336000528252604060002054156110b5575b610d53846152d4565b61108e575b838652600d82526040862033600052825260406000205415611075575b838652600d8252604086203360005282526040600020610d96868254614afa565b9055610da3858254614afa565b80915560048301548015908115611067575b501561105b57915b61ffff815460a01c166063198101908111611047576064938481029080820486149015171561103357600391610df291614ea1565b910155610dfe836152ed565b15611023576002546040516323b872dd60e01b815290829082906001600160a01b0316818981610e338b303360048501614b07565b03925af18015611018578690610fde575b610e4e9150614b29565b8260005260128152604060002091610e67858454614afa565b808455600184018054914260088701558280610fc9575b50508560005260088452610e956040600020614c1b565b9061010082018051610f9c575b5060e08201918783511515600014610f6d57506101200151848102948186041490151715610f57576000805160206154a483398151915295600a60008051602061544483398151915294610efb8a976040965190614ea1565b6004840155101580610f3e575b610f2190600683019060ff801983541691151516179055565b549054825191825285820152a26040519384523393a36001805580f35b50610f21610e10610f4f4242614b6c565b109050610f08565b634e487b7160e01b600052601160045260246000fd5b94604093506000805160206154a483398151915297915060008051602061544483398151915294600a91610efb565b61012083015185810290808204871490151715610f5757610fbe915190614ea1565b600787015538610ea2565b610fd291614ea1565b60028601553882610e7e565b508181813d8311611011575b610ff4818361490f565b8101031261100d57611008610e4e91614aed565b610e44565b8580fd5b503d610fea565b6040513d88823e3d90fd5b61102e843414614f3a565b610e4e565b634e487b7160e01b88526011600452602488fd5b634e487b7160e01b87526011600452602487fd5b50600182015491610dbd565b905060018401541038610db5565b838652600c82526110893360408820614eff565b610d75565b838652600f8252604086203360005282526110b060ff60406000205416614ec1565b610d58565b838652600c82526064604087205410610d4a5760405162461bcd60e51b8152600481018390526015602482015274546f6f206d616e79204c502070726f76696465727360581b6044820152606490fd5b60405162461bcd60e51b815260048101839052601660248201527543726561746f72207374616b65206f766572666c6f7760501b6044820152606490fd5b6064906040519062461bcd60e51b8252600482015260136024820152724c697175696469747920746f6f206c6172676560681b6044820152fd5b6064906040519062461bcd60e51b8252600482015260176024820152764c69717569646974792062656c6f77206d696e696d756d60481b6044820152fd5b50346103c157602080600319360112611587576111d66147d6565b906001600160a01b037f000000000000000000000000000000000000000000000000000000000000000081811692913384900361154d576006549460075494861593849182159081611448575b5087159687159283611313575b50509161130b575b50611241578680f35b1691601e8402938404601e1417156112f757601e8402938404601e1417156112e357908184923b156112df5760649183604492846040519788968795633d6bcfaf60e11b87520460048601520460248401525af180156112d4576112a9575b80808080808680f35b6001600160401b0381116112c057604052386112a0565b634e487b7160e01b82526041600452602482fd5b6040513d84823e3d90fd5b8280fd5b634e487b7160e01b84526011600452602484fd5b634e487b7160e01b85526011600452602485fd5b905038611238565b909350601e8902898104601e148917156114345760648c91048160075581866113638d611345858d6002541692614b6c565b60405196878094819363a9059cbb60e01b9b8c845260048401615095565b03925af19283156114275787936113ee575b506113959389600254169160405180968195829483528c60048401615095565b03925af19384156113e3578794156112305790809450813d83116113dc575b6113be818361490f565b810103126113d8576113d08693614aed565b503880611230565b8980fd5b503d6113b4565b6040513d8d823e3d90fd5b9283813d8311611420575b611403818361490f565b810103126103c157611395936114198894614aed565b5093611375565b503d6113f9565b50604051903d90823e3d90fd5b634e487b7160e01b8c52601160045260248cfd5b90919250601e8902898104601e14871715611539578a80808c946114756064839604809784600655614b6c565b905af1611480615065565b50156114ea5789808080938888165af1611498615065565b50156114a75790849138611223565b60405162461bcd60e51b815260048101879052601b60248201527a14d515081cdd185ada5b99c81d1c985b9cd9995c8819985a5b1959602a1b6044820152606490fd5b60405162461bcd60e51b815260048101889052602160248201527f5354542066656520636f6c6c6563746f72207472616e73666572206661696c656044820152601960fa1b6064820152608490fd5b634e487b7160e01b8b52601160045260248bfd5b60405162461bcd60e51b815260048101849052601260248201527127b7363c903332b29031b7b63632b1ba37b960711b6044820152606490fd5b5080fd5b50346103c15760403660031901126103c1576001600160401b0390602435828111611587576115be903690600401614a3c565b916115d360018060a01b038354163314614be0565b6004358252602090600b8252604083209184519182116116e0576115f783546147ec565b601f811161169d575b5080601f831160011461163b5750839482939492611630575b50508160011b916000199060031b1c191617905580f35b015190503880611619565b90601f198316958486528286209286905b8882106116855750508360019596971061166c575b505050811b01905580f35b015160001960f88460031b161c19169055388080611661565b8060018596829496860151815501950193019061164c565b838552818520601f840160051c8101918385106116d6575b601f0160051c01905b8181106116cb5750611600565b8581556001016116be565b90915081906116b5565b634e487b7160e01b84526041600452602484fd5b50346103c1576020806003193601126115875760043590825b818110806117b0575b156117295761172490614bae565b61170d565b91909161173581614a21565b93611743604051958661490f565b818552601f1961175283614a21565b013685870137805b828110611774576040518581528061059b8188018961477a565b8481101561179c57855181101561179c578084611797921a868289010153614bae565b61175a565b634e487b7160e01b82526032600452602482fd5b156117cc5782811a60f81b6001600160f81b0319161515611716565b634e487b7160e01b84526032600452602484fd5b50346103c157806003193601126103c1576020600754604051908152f35b50346103c157806003193601126103c15760035461181b816151f6565b8291835b818110611874575050611831826151f6565b925b828110611850576040516020808252819061059b90820187614932565b8061185e61186f92846151cb565b5161186982876151cb565b52614bae565b611833565b61187d816152bb565b15806118b2575b611897575b61189290614bae565b61181f565b926118aa818561186961189294876151cb565b939050611889565b50808552600860205260096040862001544210611884565b50346103c157806003193601126103c157546040516001600160a01b039091168152602090f35b50346103c15760203660031901126103c1576004358152600860205261191960408220614c1b565b9060018060a01b038251169061ffff6020840151169260ff60408201511660608201516002811015611c225760c08301516101808401516101a0850151610300860151906102408701519260405193639201de5560e01b855260048501528884602481305afa938415611c17578994611bfb575b506102608801519460405195639201de5560e01b875260048701528986602481305afa958615611bf0578a96611bd4575b506102808901519660405197639201de5560e01b895260048901528a88602481305afa9788156113e3578b98611bb8575b506102a08a01519860405199639201de5560e01b8b5260048b01528b8a602481305afa998a15611bad578c9a611b90575b506102c08b01519a6040519b639201de5560e01b8d5260048d01528c8c602481305afa9b8c15611b85578d809d611b63575b50506102e0015160405190639201de5560e01b825260048201528c81602481305afa9c8d15611b5757809d611b32575b50506040519d8e809e81526020015260408d015260608c01611aa391614727565b60808b015260a08a015260c08901526101c08060e08a01528801611ac69161477a565b878103610100890152611ad89161477a565b868103610120880152611aea9161477a565b858103610140870152611afc9161477a565b848103610160860152611b0e9161477a565b838103610180850152611b209161477a565b8281036101a084015261059b9161477a565b611b4f929d503d8091833e611b47818361490f565b810190614d9c565b9a3880611a82565b604051903d90823e3d90fd5b6102e0929d5090611b7d913d8091833e611b47818361490f565b9b908d611a52565b6040513d8f823e3d90fd5b611ba6919a508c3d8091833e611b47818361490f565b9838611a20565b6040513d8e823e3d90fd5b611bcd9198503d808d833e611b47818361490f565b96386119ef565b611be99196503d808c833e611b47818361490f565b94386119be565b6040513d8c823e3d90fd5b611c109194503d808b833e611b47818361490f565b923861198d565b6040513d8b823e3d90fd5b634e487b7160e01b84526021600452602484fd5b50346103c15760203660031901126103c15760406020916004358152601e83522054604051908152f35b50346103c15760403660031901126103c1576004359060089081831015918261158757602492833593611c92856151f6565b9380938196600354975b88811080611d4b575b15611d0d57808452826020528560ff604086205460c01c1690611cfa5783811015611cfa578a14611cdf575b611cda90614bae565b611c9c565b95611cf28188611869611cda948c6151cb565b969050611cd1565b634e487b7160e01b855260216004528585fd5b838789611d19826151f6565b925b828110611d38576040516020808252819061059b90820187614932565b8061185e611d4692846151cb565b611d1b565b50818710611ca5565b506102203660031901126103c15761016435151561016435036103c1576101a43515156101a435036103c15760026101c43510156103c15760086101e43510156103c157610204356001600160401b03811161158757611db8903690600401614a3c565b90611dc1614bbd565b606460243511806127c6575b1561276b576101c4351561270c575b6004546001600160a01b0316806125bf575b506101a4351561256e57683635c9adc5dea000006044351061252e575b69d3c21bcecceda1000000604435116124f7574260643511156124b857606435608435111561247357603c420180421161234457606435111561243d576101a4351561242c57611e686802b5e3af16b18800005b60443590614afa565b6101a435156123ea57346123a5576020611ea7839260018060a01b0360025416906040519485809481936323b872dd60e01b8352303360048501614b07565b03925af180156112d457829061236b575b611ec29150614b29565b809161016435612362575b6101a435612358575b606435603b19810111612344576201518060843501608435116123445760ff60405193611f02856148bc565b33855261ffff602435166020860152166040840152611f276101c43560608501614b79565b611f376101e43560808501614b85565b8160a084015260443560c084015260443560e08401528161010084015281610120840152600435610140840152816101608401526064356101808401526084356101a0840152603b19606435016101c0840152816101e084015262015180608435016102008401526101843561022084015260a43561024084015260c43561026084015260e435610280840152610104356102a0840152610124356102c0840152610144356102e08401528061030084015260035482526008602052604082209260018060a01b0381511684549061ffff60a01b602084015160a01b169160018060b01b0319161717845561203360ff60408301511685614b91565b60608101516002811015611c2257845460808301519060088210156123305760a084015160c092831b60ff60c01b1662ffffff60b81b1990921660b89490941b60ff60b81b16939093171760c89290921b60ff60c81b16919091178555810151600185015560e08101516002850155610100810151600385015561012081015160048501556101408101516005850155610160810151600685015561018081015160078501556101a081015160088501556101c081015160098501556101e0810151600a850155610200810151600b850155610220810151600c850155610240810151600d850155610260810151600e850155610280810151600f8501556102a081015160108501556102c081015160118501556102e08101516012850155610300015180519093906001600160401b0381116116e05761217760138301546147ec565b94601f86116122ec575b602095508590601f83116001146122815760139291869183612276575b50508160011b916000199060031b1c1916179101555b600354918291827f96f8a332da237902cb0bd09f9a168d33100f2084c52e4a07cf3b28b9977327fa612220604051936064358552608435898601526121ff604086016101c435614727565b61220f606086016101e43561474a565b60e0608086015260e085019061477a565b9260a43560a082015260c43560c08201528033940390a36040519081526044358482015242604082015260008051602061548483398151915260603392a361226781614bae565b60035560018055604051908152f35b01519050388061219e565b9060138401865286862091865b601f19851681106122d55750918391600193601395601f198116106122bc575b505050811b019101556121b4565b015160001960f88460031b161c191690553880806122ae565b91928860018192868501518155019401920161228e565b60138301855260208520601f830160051c810160208410612329575b601f880160051c8201811061231e575050612181565b868155600101612308565b5080612308565b634e487b7160e01b86526021600452602486fd5b634e487b7160e01b82526011600452602482fd5b9160081791611ed6565b60049250611ecd565b506020813d821161239d575b816123846020938361490f565b8101031261158757612398611ec291614aed565b611eb8565b3d9150612377565b60405162461bcd60e51b815260206004820152601d60248201527f4e6f20455448207061796d656e7420666f72204249545220706f6f6c730000006044820152606490fd5b3414611ec25760405162461bcd60e51b815260206004820152601460248201527308aa89040e0c2f2dacadce840dad2e6dac2e8c6d60631b6044820152606490fd5b611e68670de0b6b3a7640000611e5f565b60405162461bcd60e51b815260206004820152600e60248201526d22bb32b73a103a37b79039b7b7b760911b6044820152606490fd5b60405162461bcd60e51b815260206004820152601d60248201527f4576656e7420656e64206d7573742062652061667465722073746172740000006044820152606490fd5b60405162461bcd60e51b81526020600482015260176024820152764576656e74206d75737420626520696e2066757475726560481b6044820152606490fd5b60405162461bcd60e51b815260206004820152600f60248201526e5374616b6520746f6f206c6172676560881b6044820152606490fd5b60405162461bcd60e51b815260206004820152601860248201527742495452207374616b652062656c6f77206d696e696d756d60401b6044820152606490fd5b674563918244f400006044351015611e0b5760405162461bcd60e51b8152602060048201526017602482015276535454207374616b652062656c6f77206d696e696d756d60481b6044820152606490fd5b608060249160405192838092634a7a638f60e11b82523360048301525afa9081156112d457829083926126b6575b506101c43560010361265a575015612606575b38611dee565b60405162461bcd60e51b815260206004820152602660248201527f496e73756666696369656e742072657075746174696f6e20666f72204f50454e60448201526520706f6f6c7360d01b6064820152608490fd5b90506126005760405162461bcd60e51b815260206004820152602860248201527f496e73756666696369656e742072657075746174696f6e20666f722047554944604482015267454420706f6f6c7360c01b6064820152608490fd5b9150506080813d8211612704575b816126d16080938361490f565b81010312611587576126e560208201614aed565b6126fd60606126f660408501614aed565b9301614aed565b50386125ed565b3d91506126c4565b60076101e43503611ddc5760405162461bcd60e51b815260206004820152602660248201527f47756964656420706f6f6c73206e656564207370656369666963206d61726b6560448201526574207479706560d01b6064820152608490fd5b60405162461bcd60e51b815260206004820152602d60248201527f496e76616c6964206f6464733a206d757374206265206265747765656e20312e60448201526c0303120616e64203130302e303609c1b6064820152608490fd5b506127106024351115611dcd565b50346103c15760203660031901126103c1576040906004358152601160205220805461059b60018301549260036002820154910154906040519485948561479f565b50346103c157806003193601126103c15760206040516802b5e3af16b18800008152f35b50346103c157806003193601126103c157612853614ac1565b80546001600160a01b03198116825581906001600160a01b03166000805160206154e48339815191528280a380f35b50346103c157806003193601126103c157604080516128a0816148f4565b369037604051906128b0826148f4565b6040368337600354815b8181106128ec576040518385825b600283106128d557604084f35b6001908251815260208091019201920191906128c8565b808352600860205260ff604084205460b81c16600281108015612943579061291a929161291f575b50614bae565b6128ba565b61293c61293561292f8389615432565b51614bae565b9187615432565b5238612914565b634e487b7160e01b85526021600452602485fd5b50346103c157806003193601126103c1576013546014549061059b601754601854906040519485948561479f565b50346103c157806003193601126103c1576004546040516001600160a01b039091168152602090f35b50346103c157806003193601126103c157602060405160648152f35b50346103c1576129d9366149ba565b91908152600c602052604081209081548310156103c15760206129fc84846149d0565b905460405160039290921b1c6001600160a01b03168152f35b50346103c15760203660031901126103c157602060035460043510604051908152f35b50346103c15760203660031901126103c1576020906040906001600160a01b03612a606147d6565b168152601b83522054604051908152f35b50346103c157806003193601126103c1576020604051683635c9adc5dea000008152f35b50612a9f366149ba565b90612aa8614bbd565b612ab56003548210614dd5565b80835260206008815260408420612acb81614c1b565b90612ad8610ceb856152bb565b670de0b6b3a764000085106130925769152d02c7e14af6800000851161305d57612b086101c08301514210614e4b565b61012091828101908151878115918215613046575b50501561303b5760e0810151925b61ffff8683015116606494858102908082048714901517156115395760631982019182116115395790612b5d91614ea1565b9283612b6a8a8351614afa565b1161300b57908888949392858c52600a895260408c20338d5289528b60408120548a811580612fa3575b612b9d8a6152d4565b612f7e575b61022088018051612f14575b5085612be196959493604093612bc993612efb575b50614afa565b91898152600a8d528181203382528d52205551614afa565b6004820193818555806003840155858c5260088952601060408d205460b01c16159182612ec9575b5050612e7a575b505050612c1c906152ed565b15612e6a576002546040516323b872dd60e01b815290849082906001600160a01b0316818a81612c518c303360048501614b07565b03925af18015612e5f578790612e25575b612c6c9150614b29565b838652601283526040862090612c83868354614afa565b90818355600183019384549260018401809411612e11578386554260088601558380612dfc575b505086895260088652612cbf60408a20614c1b565b9061010082018051612dd1575b5060e08201918883511515600014612dad57500151828102928184041490151715612d9957938693600a60008051602061544483398151915294612d1760409560019a995190614ea1565b6004840155101580612d80575b612d3d90600683019060ff801983541691151516179055565b549054825191825285820152a26040519384528301527fb1bd10cf5ea9540f12b9b182707734fd82deacc56830e2bd316133deb372bff460403393a36001805580f35b50612d3d610e10612d914242614b6c565b109050612d24565b634e487b7160e01b89526011600452602489fd5b95915050600196959150600a60008051602061544483398151915294604094612d17565b8183015190848202918083048614901517156114345751612df191614ea1565b600786015538612ccc565b612e0591614ea1565b60028501553883612caa565b634e487b7160e01b8a52601160045260248afd5b508381813d8311612e58575b612e3b818361490f565b81010312612e5457612e4f612c6c91614aed565b612c62565b8680fd5b503d612e31565b6040513d89823e3d90fd5b612e75853414614f3a565b612c6c565b60008051602061548483398151915291612ea182601060ff6060955460b01c161790614b91565b60018060a01b039051169254604051906005825288820152426040820152a383388080612c10565b87919394959650809250029080820487149015171561153957612ef28995949392603c92614ea1565b10153880612c09565b6009908d875252612f0e33858720614eff565b8e612bc3565b93509395969798505092612f289084614afa565b905110612f3f57918b8b928a8c9897969538612bae565b60405162461bcd60e51b8152600481018a9052601860248201527722bc31b2b2b2399036b0bc103132ba103832b9103ab9b2b960411b60448201528790fd5b898452600f8252604084203385528252612f9e60ff604086205416614ec1565b612ba2565b9395969798929194505052600989526101f460408d20541015612fcf57918b8b928a8c98979695612b94565b60405162461bcd60e51b8152600481018a90526015602482015274546f6f206d616e79207061727469636970616e747360581b60448201528790fd5b60405162461bcd60e51b8152600481018890526009602482015268141bdbdb08199d5b1b60ba1b60448201528590fd5b60c081015192612b2b565b6130509250614afa565b60c0820151108738612b1d565b60405162461bcd60e51b815260048101849052600d60248201526c42657420746f6f206c6172676560981b6044820152606490fd5b60405162461bcd60e51b81526004810184905260116024820152704265742062656c6f77206d696e696d756d60781b6044820152606490fd5b50346103c1576130da366149ba565b919081526009602052604081209081548310156103c15760206129fc84846149d0565b50346103c157602080600319360112611587576004358252601c81526040822091604051809384918482549182815201918452848420935b858282106131605750505061314c9250038361490f565b61059b604051928284938452830190614932565b8554845260019586019588955093019201613135565b50346103c157806003193601126103c1576020604051620151808152f35b50346103c15760403660031901126103c15760043590600290818310159182611587576024928335936131c6856151f6565b9380938196600354975b8881108061326c575b1561322e578084526008602052604084205460b81c60ff1686611cfa5783811015611cfa578a14613213575b61320e90614bae565b6131d0565b95613226818861186961320e948c6151cb565b969050613205565b83878961323a826151f6565b925b828110613259576040516020808252819061059b90820187614932565b8061185e61326792846151cb565b61323c565b508187106131d9565b50346103c157602080600319360112611587576004356132986003548210614dd5565b808352600882526132ab60408420614c1b565b916132b5826152bb565b1561361357818452600e815260408420338552815260ff6040852054166135dd57818452600e815260408085203386528252808520805460ff191660011790558285526008825284205484939060b01c600216156134db57828552600d82526040852033865282526040852054908115908115613490575b5050505b8261333a578380f35b613343826152ed565b1561342d5760025460405163a9059cbb60e01b815290829082906001600160a01b03168188816133778a3360048401615095565b03925af19081156134225785916133e9575b50156133b0576000805160206154c4833981519152905b6040519384523393a33880808380f35b6064906040519062461bcd60e51b82526004820152601260248201527110925514881c185e5bdd5d0819985a5b195960721b6044820152fd5b90508181813d831161341b575b613400818361490f565b810103126134175761341190614aed565b38613389565b8480fd5b503d6133f6565b6040513d87823e3d90fd5b8380808086335af161343d615065565b5015613458576000805160206154c4833981519152906133a0565b6064906040519062461bcd60e51b82526004820152601160248201527014d515081c185e5bdd5d0819985a5b1959607a1b6044820152fd5b909192945061271091828402908482048414171561104757816101206134c36134cb9360e06134d2989796015190614ea1565b910151614e8e565b0490614afa565b9138808061332d565b600a8252604085203386528252604085205490816134fb575b5050613331565b8391945061351261ffff8460649301511686614e8e565b049361353e6127106135366135278489614b6c565b613530336150b0565b90614e8e565b048096614b6c565b94806135a5575b5061354f826152ed565b1561359457686c6b935b8bbd4000008110155b156134f45760405190600382528382015242604082015260008051602061548483398151915260603392a381386134f4565b678ac7230489e80000811015613562565b6135ae836152ed565b156135c9576135bf90600754614afa565b6007555b38613545565b6135d590600654614afa565b6006556135c3565b6064906040519062461bcd60e51b82526004820152600f60248201526e105b1c9958591e4818db185a5b5959608a1b6044820152fd5b6064906040519062461bcd60e51b82526004820152600b60248201526a139bdd081cd95d1d1b195960aa1b6044820152fd5b50346103c157806003193601126103c1576020604051674563918244f400008152f35b50346103c15760203660031901126103c1576136826147d6565b61368a614ac1565b600480546001600160a01b0319166001600160a01b039290921691909117905580f35b50346103c15760203660031901126103c1576040906001600160a01b036136d26147d6565b168152601060205220805461059b60018301549260028101549060038101546004820154600583015491600760068501549401549460405198899889614983565b50346103c15760403660031901126103c1576004356137306147bb565b9061373e6003548210614dd5565b808352600860205260408320546001600160a01b03906137619082163314615191565b818452600f6020526040842092169182845260205260408320600160ff198254161790557fef35c6815799b054cdc749d1f5bb07547c285ef9d7559c6e839da576f42b49098380a380f35b50346103c15760403660031901126103c1576137c66147d6565b60243580151581036112df57303314801561387e575b6137e590614be0565b1561385a5760018060a01b0316808252602090601982526040832061380a8154614bae565b90558252601981526040822054601a8252604083205410613843575b60198152601b613839604084205461528b565b9152604082205580f35b601981526040822054601a82526040832055613826565b60018060a01b031681526019602052806040812055601b6020526001604082205580f35b5082546001600160a01b031633146137dc565b50346103c15760203660031901126103c1576004356138af816151f6565b828392600354935b8481108061393c575b156138fd576138ce816152bb565b156138e2575b6138dd90614bae565b6138b7565b916138f581846118696138dd94886151cb565b9290506138d4565b5050915061390a826151f6565b925b828110613929576040516020808252819061059b90820187614932565b8061185e61393792846151cb565b61390c565b508183106138c0565b50346103c15760403660031901126103c15760043560243561396a6003548310614dd5565b81835260086020526040832090613989613983846152bb565b15614f7d565b6139996008830154421015614fbb565b81549160ff8360b81c1660028110156123305780613a9757507f00000000000000000000000000000000000000000000000000000000000000006001600160a01b03163303613a5d57613a0b600160ff600080516020615464833981519152955b85600686015560b01c161782614b91565b60058101548214159081613a44575b600a42910155613a2984615306565b6040805192835290151560208301524290820152606090a280f35b613a58600260ff835460b01c161782614b91565b613a1a565b60405162461bcd60e51b81526020600482015260126024820152714f6e6c7920677569646564206f7261636c6560701b6044820152606490fd5b600114613abb575b613a0b600160ff600080516020615464833981519152956139fa565b337f00000000000000000000000000000000000000000000000000000000000000006001600160a01b031614613a9f5760405162461bcd60e51b81526020600482015260166024820152754f6e6c79206f7074696d6973746963206f7261636c6560501b6044820152606490fd5b50346103c157806003193601126103c1576040517f00000000000000000000000000000000000000000000000000000000000000006001600160a01b03168152602090f35b50346103c15760203660031901126103c157613ba3613baa604061059b936004358152600b6020522060405192838092614826565b038261490f565b60405191829160208352602083019061477a565b50346103c1576020806003193601126115875760043590613be26003548310614dd5565b8183526008815260408320613bf9613983846152bb565b613c096008820154421015614fbb565b8054848060b883901c60ff166002811015613e575780613d6e5750505060405163c6522d0160e01b8152836004820152858180613c4c6024820160138801614826565b03817f00000000000000000000000000000000000000000000000000000000000000006001600160a01b03165afa9081156110185786908792613d49575b5015613d0557613c9990615042565b9260015b15613ccd575090613a0b600160ff859460008051602061546483398151915296600686015560b01c161782614b91565b6064906040519062461bcd60e51b8252600482015260116024820152704f7574636f6d65206e6f7420726561647960781b6044820152fd5b60405162461bcd60e51b815260048101859052601c60248201527b477569646564206f7574636f6d65206e6f7420617661696c61626c6560201b6044820152606490fd5b9050613d6791503d8088833e613d5f818361490f565b810190614ffd565b9038613c8a565b91949160001901613c9d5750925060405163c6522d0160e01b8152836004820152858180613da26024820160138801614826565b03817f00000000000000000000000000000000000000000000000000000000000000006001600160a01b03165afa9081156110185786908792613e3a575b5015613df757613def90615042565b926001613c9d565b6064846040519062461bcd60e51b825280600483015260248201527f4f7074696d6973746963206f7574636f6d65206e6f742066696e616c697a65646044820152fd5b9050613e5091503d8088833e613d5f818361490f565b9038613de0565b634e487b7160e01b88526021600452602488fd5b50346103c15760403660031901126103c15760ff6040602092613e8c6147bb565b6004358252600e85528282206001600160a01b03909116825284522054604051911615158152f35b50346103c15760203660031901126103c15760043581526011602052604080822090519160808301906001600160401b03821184831017613f2b575060405261059b60608254928385526001810154948560208201526003600283015492836040840152015492839101526040519485948561479f565b634e487b7160e01b81526041600452602490fd5b50346103c1576020806003193601126115875760043590613f636003548310614dd5565b8183526008815260408320613f7a613983846152bb565b600b8101544211156143d257613f9c6001918260ff825460b01c161790614b91565b828452600c825280604085206040519081858254918281520191885285882090885b878282106143b6575050505081613fd691038261490f565b85825b614228575b5050508284526009825260408420604051808285829454938481520190885285882092885b868883831061420a575050505061401c9250038261490f565b84825b614080575b50505060607f5d017285e8f2eb1ffcbc2466eaedb487942e395d5f1e312f09e9384b1687bea59161405484615306565b60136040519180835282015272105c989a5d1c985d1a5bdb881d1a5b595bdd5d606a1b6040820152a280f35b81518110156142055785846001600160a01b038061409e85876151cb565b5116888452600a8352604084208185528352604084205491826140d0575b50505050506140ca90614bae565b8261401f565b6140d98a6152ed565b156141a457614105945060025416908a60405180968195829463a9059cbb60e01b845260048401615095565b03925af1908115612e5f57879161416f575b501561412e576140ca905b905085843880806140bc565b60405162461bcd60e51b8152600481018590526019602482015278109255148818995d1d1bdc881c99599d5b990819985a5b1959603a1b6044820152606490fd5b90508481813d831161419d575b614186818361490f565b81010312612e545761419790614aed565b38614117565b503d61417c565b50839250829182915af16141b6615065565b50156141c5576140ca90614122565b60405162461bcd60e51b815260048101859052601860248201527714d5150818995d1d1bdc881c99599d5b990819985a5b195960421b6044820152606490fd5b614024565b86546001600160a01b03168552958101958795509093019201614003565b81518110156143b15786856001600160a01b038061424685876151cb565b5116898452600d835260408420818552835260408420549182614278575b505050505061427290614bae565b82613fd9565b90919293949596506142898a6152ed565b15614352576142b5945060025416908a60405180968195829463a9059cbb60e01b845260048401615095565b03925af1908115612e5f57879161431d575b50156142e0579061427283925b90508685388080614264565b60405162461bcd60e51b815260048101859052601560248201527410925514881314081c99599d5b990819985a5b1959605a1b6044820152606490fd5b90508481813d831161434b575b614334818361490f565b81010312612e545761434590614aed565b386142c7565b503d61432a565b50839250829182915af1614364615065565b5015614375579061427283926142d4565b60405162461bcd60e51b815260048101859052601460248201527314d515081314081c99599d5b990819985a5b195960621b6044820152606490fd5b613fde565b83546001600160a01b0316855287969401939283019201613fbe565b60405162461bcd60e51b815260048101839052601e60248201527f4172626974726174696f6e20706572696f64206e6f74206578706972656400006044820152606490fd5b50346103c157806003193601126103c15760405190614435826148d8565b61010080923690376040519061444a826148d8565b82368337600354815b81811061448657505060405191825b6008831061446f57505050f35b600190825181526020809101920192019190614462565b80835260088060205260ff604085205460c01c16908110801561294357906144b392916144b85750614bae565b614453565b61293c6144c861292f8389615421565b9187615421565b50346103c15760203660031901126103c1576145b360406103009260608483516144f8816148bc565b838152836020820152838582015283838201528360808201528360a08201528360c08201528360e08201528361010082015283610120820152836101408201528361016082015283610180820152836101a0820152836101c0820152836101e08201528361020082015283610220820152836102408201528361026082015283610280820152836102a0820152836102c0820152836102e082015201526003546145a6600435918210614dd5565b8152600860205220614c1b565b61059b6040519283926020845260018060a01b03815116602085015261ffff602082015116604085015260ff60408201511660608501526145fc60608201516080860190614727565b61460e608082015160a086019061474a565b60ff60a08201511660c085015260c081015160e085015260e08101516101008501526101008101516101208501526101208101516101408501526101408101516101608501526101608101516101808501526101808101516101a08501526101a08101516101c08501526101c08101516101e08501526101e08101516102008501526102008101516102208501526102208101516102408501526102408101516102608501526102608101516102808501526102808101516102a08501526102a08101516102c08501526102c08101516102e08501526102e08101518285015201516103208084015261034083019061477a565b9050346115875781600319360112611587576002546001600160a01b03168152602090f35b9060028210156147345752565b634e487b7160e01b600052602160045260246000fd5b9060088210156147345752565b60005b83811061476a5750506000910152565b818101518382015260200161475a565b9060209161479381518092818552858086019101614757565b601f01601f1916010190565b9094939260609260808301968352602083015260408201520152565b602435906001600160a01b03821682036147d157565b600080fd5b600435906001600160a01b03821682036147d157565b90600182811c9216801561481c575b602083101461480657565b634e487b7160e01b600052602260045260246000fd5b91607f16916147fb565b9060009291805491614837836147ec565b9182825260019384811690816000146148995750600114614859575b50505050565b90919394506000526020928360002092846000945b838610614885575050505001019038808080614853565b80548587018301529401938590820161486e565b9294505050602093945060ff191683830152151560051b01019038808080614853565b61032081019081106001600160401b0382111761075557604052565b61010081019081106001600160401b0382111761075557604052565b604081019081106001600160401b0382111761075557604052565b601f909101601f19168101906001600160401b0382119082101761075557604052565b90815180825260208080930193019160005b828110614952575050505090565b835185529381019392810192600101614944565b346147d15760003660031901126147d15760206040516101f48152f35b94919260e0969399989794919961010087019a8752602087015260408601526060850152608084015260a083015260c08201520152565b60409060031901126147d1576004359060243590565b80548210156149e85760005260206000200190600090565b634e487b7160e01b600052603260045260246000fd5b346147d15760003660031901126147d1576020604051670de0b6b3a76400008152f35b6001600160401b03811161075557601f01601f191660200190565b81601f820112156147d157803590614a5382614a21565b92614a61604051948561490f565b828452602083830101116147d157816000926020809301838601378301015290565b95926101009794919a9998959261012088019b8852602088015260408701526060860152608085015260a0840152151560c083015260e08201520152565b6000546001600160a01b03163303614ad557565b60405163118cdaa760e01b8152336004820152602490fd5b519081151582036147d157565b91908201809211610f5757565b6001600160a01b03918216815291166020820152604081019190915260600190565b15614b3057565b60405162461bcd60e51b815260206004820152601460248201527310925514881d1c985b9cd9995c8819985a5b195960621b6044820152606490fd5b91908203918211610f5757565b60028210156147345752565b60088210156147345752565b805460ff60b01b191660b09290921b60ff60b01b16919091179055565b6000198114610f575760010190565b600260015414614bce576002600155565b604051633ee5aeb560e01b8152600490fd5b15614be757565b60405162461bcd60e51b815260206004820152600c60248201526b155b985d5d1a1bdc9a5e995960a21b6044820152606490fd5b906013610300604051614c2d816148bc565b614d61819560ff815460018060a01b038116855261ffff8160a01c166020860152818160b01c166040860152614c6b828260b81c1660608701614b79565b614c7d828260c01c1660808701614b85565b60c81c1660a0840152600181015460c0840152600281015460e08401526003810154610100840152600481015461012084015260058101546101408401526006810154610160840152600781015461018084015260088101546101a084015260098101546101c0840152600a8101546101e0840152600b810154610200840152600c810154610220840152600d810154610240840152600e810154610260840152600f81015461028084015260108101546102a084015260118101546102c084015260128101546102e0840152614d5a6040518096819301614826565b038461490f565b0152565b90929192614d7281614a21565b91614d80604051938461490f565b8294828452828201116147d1576020614d9a930190614757565b565b6020818303126147d1578051906001600160401b0382116147d157019080601f830112156147d1578151614dd292602001614d65565b90565b15614ddc57565b60405162461bcd60e51b815260206004820152600c60248201526b125b9d985b1a59081c1bdbdb60a21b6044820152606490fd5b15614e1757565b60405162461bcd60e51b815260206004820152600c60248201526b141bdbdb081cd95d1d1b195960a21b6044820152606490fd5b15614e5257565b60405162461bcd60e51b815260206004820152601460248201527310995d1d1a5b99c81c195c9a5bd908195b99195960621b6044820152606490fd5b81810292918115918404141715610f5757565b8115614eab570490565b634e487b7160e01b600052601260045260246000fd5b15614ec857565b60405162461bcd60e51b815260206004820152600f60248201526e139bdd081dda1a5d195b1a5cdd1959608a1b6044820152606490fd5b8054600160401b81101561075557614f1c916001820181556149d0565b819291549060031b9160018060a01b03809116831b921b1916179055565b15614f4157565b60405162461bcd60e51b8152602060048201526014602482015273125b98dbdc9c9958dd0814d51508185b5bdd5b9d60621b6044820152606490fd5b15614f8457565b60405162461bcd60e51b815260206004820152600f60248201526e105b1c9958591e481cd95d1d1b1959608a1b6044820152606490fd5b15614fc257565b60405162461bcd60e51b8152602060048201526013602482015272115d995b9d081b9bdd08195b991959081e595d606a1b6044820152606490fd5b91906040838203126147d15761501283614aed565b602084015190936001600160401b0382116147d157019080601f830112156147d1578151614dd292602001614d65565b602081519101519060208110615056575090565b6000199060200360031b1b1690565b3d15615090573d9061507682614a21565b91615084604051938461490f565b82523d6000602084013e565b606090565b6001600160a01b039091168152602081019190915260400190565b6002546040516370a0823160e01b81526001600160a01b0392831660048201529160209183916024918391165afa90811561518557600091615154575b50690a968163f0a57b40000081101561514e5769043c33c19375648000008110156151475769010f0cf064dd5920000081101561514057686c6b935b8bbd400000111561513a576101f490565b6101c290565b5061019090565b5061015e90565b5060fa90565b906020823d821161517d575b8161516d6020938361490f565b810103126103c1575051386150ed565b3d9150615160565b6040513d6000823e3d90fd5b1561519857565b60405162461bcd60e51b815260206004820152600b60248201526a2737ba1031b932b0ba37b960a91b6044820152606490fd5b80518210156149e85760209160051b010190565b6001600160401b0381116107555760051b60200190565b90615200826151df565b61520d604051918261490f565b828152809261521e601f19916151df565b0190602036910137565b60018060a01b03166000526020601d81526040600020906040518092839183825491828152019160005283600020936000905b82821061527157505050614dd29250038261490f565b85548452600195860195879550938101939091019061525b565b60148110156152b557600a8110156152af57600511156152aa57600190565b600290565b50600390565b50600590565b6000526008602052600160406000205460b01c16151590565b6000526008602052600460406000205460b01c16151590565b6000526008602052600860406000205460b01c16151590565b600090808252600860205260018060a01b036040832054168252601d60205260408220818352601e60205260408320549080549182811080615408575b61534f575b5050505050565b600019928084019081116153f4578082036153b4575b5050805480156153a05782019161537c83836149d0565b909182549160031b1b19169055558152601e60205260408120553880808080615348565b634e487b7160e01b85526031600452602485fd5b6153be90836149d0565b90549060031b1c6153cf82846149d0565b81549060031b908684831b921b19161790558552601e60205260408520553880615365565b634e487b7160e01b86526011600452602486fd5b508361541482846149d0565b90549060031b1c14615343565b9060088110156149e85760051b0190565b9060028110156149e85760051b019056feae1dd3f2d7e1c58d3a89e27565ac6732a48cc3a0ee34874f1749e6fcca59730886acb9671870fda5e7ea8aa500f96625102d6f2e5a2ee12d3ca0fb612850fa29d43c77f044c1f8bc6adf6676b4ce17edda35ef8ee63f154568826c0ecb3c6bf3c733c2813826d31c105dbff518b08258e9e7aeb3eb1c7c7f642d77696faf501d24b5efa61dd1cfc659205a97fb8ed868f3cb8c81922bab2b96423e5de1de2cb78be0079c531659141344cd1fd0a4f28419497f9722a3daafe3b4186f6b6457e0a26469706673582212205bcc202abd3aca8babb9225633d8cb34bae64f21ee3c5fcce53ccb669811b79c64736f6c63430008140033",
  "linkReferences": {},
  "deployedLinkReferences": {}
}