{
  "_format": "hh-sol-artifact-1",
  "contractName": "BitrFaucet",
  "sourceName": "contracts/BitrFaucet.sol",
  "abi": [
    {
      "inputs": [
        {
          "internalType": "address",
          "name": "_bitrToken",
          "type": "address"
        }
      ],
      "stateMutability": "nonpayable",
      "type": "constructor"
    },
    {
      "inputs": [
        {
          "internalType": "address",
          "name": "owner",
          "type": "address"
        }
      ],
      "name": "OwnableInvalidOwner",
      "type": "error"
    },
    {
      "inputs": [
        {
          "internalType": "address",
          "name": "account",
          "type": "address"
        }
      ],
      "name": "OwnableUnauthorizedAccount",
      "type": "error"
    },
    {
      "inputs": [],
      "name": "ReentrancyGuardReentrantCall",
      "type": "error"
    },
    {
      "anonymous": false,
      "inputs": [
        {
          "indexed": true,
          "internalType": "address",
          "name": "owner",
          "type": "address"
        },
        {
          "indexed": false,
          "internalType": "uint256",
          "name": "amount",
          "type": "uint256"
        },
        {
          "indexed": false,
          "internalType": "uint256",
          "name": "timestamp",
          "type": "uint256"
        }
      ],
      "name": "EmergencyWithdraw",
      "type": "event"
    },
    {
      "anonymous": false,
      "inputs": [
        {
          "indexed": true,
          "internalType": "address",
          "name": "user",
          "type": "address"
        },
        {
          "indexed": false,
          "internalType": "uint256",
          "name": "amount",
          "type": "uint256"
        },
        {
          "indexed": false,
          "internalType": "uint256",
          "name": "timestamp",
          "type": "uint256"
        }
      ],
      "name": "FaucetClaimed",
      "type": "event"
    },
    {
      "anonymous": false,
      "inputs": [
        {
          "indexed": false,
          "internalType": "uint256",
          "name": "timestamp",
          "type": "uint256"
        }
      ],
      "name": "FaucetDeactivated",
      "type": "event"
    },
    {
      "anonymous": false,
      "inputs": [
        {
          "indexed": false,
          "internalType": "uint256",
          "name": "timestamp",
          "type": "uint256"
        }
      ],
      "name": "FaucetReactivated",
      "type": "event"
    },
    {
      "anonymous": false,
      "inputs": [
        {
          "indexed": false,
          "internalType": "uint256",
          "name": "amount",
          "type": "uint256"
        },
        {
          "indexed": false,
          "internalType": "uint256",
          "name": "timestamp",
          "type": "uint256"
        }
      ],
      "name": "FaucetRefilled",
      "type": "event"
    },
    {
      "anonymous": false,
      "inputs": [
        {
          "indexed": true,
          "internalType": "address",
          "name": "previousOwner",
          "type": "address"
        },
        {
          "indexed": true,
          "internalType": "address",
          "name": "newOwner",
          "type": "address"
        }
      ],
      "name": "OwnershipTransferred",
      "type": "event"
    },
    {
      "inputs": [],
      "name": "FAUCET_AMOUNT",
      "outputs": [
        {
          "internalType": "uint256",
          "name": "",
          "type": "uint256"
        }
      ],
      "stateMutability": "view",
      "type": "function"
    },
    {
      "inputs": [],
      "name": "bitrToken",
      "outputs": [
        {
          "internalType": "contract IERC20",
          "name": "",
          "type": "address"
        }
      ],
      "stateMutability": "view",
      "type": "function"
    },
    {
      "inputs": [],
      "name": "claimBitr",
      "outputs": [],
      "stateMutability": "nonpayable",
      "type": "function"
    },
    {
      "inputs": [],
      "name": "emergencyWithdraw",
      "outputs": [],
      "stateMutability": "nonpayable",
      "type": "function"
    },
    {
      "inputs": [
        {
          "internalType": "uint256",
          "name": "amount",
          "type": "uint256"
        }
      ],
      "name": "emergencyWithdrawAmount",
      "outputs": [],
      "stateMutability": "nonpayable",
      "type": "function"
    },
    {
      "inputs": [],
      "name": "faucetActive",
      "outputs": [
        {
          "internalType": "bool",
          "name": "",
          "type": "bool"
        }
      ],
      "stateMutability": "view",
      "type": "function"
    },
    {
      "inputs": [],
      "name": "getFaucetStats",
      "outputs": [
        {
          "internalType": "uint256",
          "name": "balance",
          "type": "uint256"
        },
        {
          "internalType": "uint256",
          "name": "totalDistributed",
          "type": "uint256"
        },
        {
          "internalType": "uint256",
          "name": "userCount",
          "type": "uint256"
        },
        {
          "internalType": "bool",
          "name": "active",
          "type": "bool"
        }
      ],
      "stateMutability": "view",
      "type": "function"
    },
    {
      "inputs": [
        {
          "internalType": "address",
          "name": "user",
          "type": "address"
        }
      ],
      "name": "getUserInfo",
      "outputs": [
        {
          "internalType": "bool",
          "name": "claimed",
          "type": "bool"
        },
        {
          "internalType": "uint256",
          "name": "claimTime",
          "type": "uint256"
        }
      ],
      "stateMutability": "view",
      "type": "function"
    },
    {
      "inputs": [
        {
          "internalType": "address",
          "name": "",
          "type": "address"
        }
      ],
      "name": "hasClaimed",
      "outputs": [
        {
          "internalType": "bool",
          "name": "",
          "type": "bool"
        }
      ],
      "stateMutability": "view",
      "type": "function"
    },
    {
      "inputs": [],
      "name": "hasSufficientBalance",
      "outputs": [
        {
          "internalType": "bool",
          "name": "",
          "type": "bool"
        }
      ],
      "stateMutability": "view",
      "type": "function"
    },
    {
      "inputs": [
        {
          "internalType": "address",
          "name": "",
          "type": "address"
        }
      ],
      "name": "lastClaimTime",
      "outputs": [
        {
          "internalType": "uint256",
          "name": "",
          "type": "uint256"
        }
      ],
      "stateMutability": "view",
      "type": "function"
    },
    {
      "inputs": [],
      "name": "maxPossibleClaims",
      "outputs": [
        {
          "internalType": "uint256",
          "name": "",
          "type": "uint256"
        }
      ],
      "stateMutability": "view",
      "type": "function"
    },
    {
      "inputs": [],
      "name": "owner",
      "outputs": [
        {
          "internalType": "address",
          "name": "",
          "type": "address"
        }
      ],
      "stateMutability": "view",
      "type": "function"
    },
    {
      "inputs": [
        {
          "internalType": "uint256",
          "name": "amount",
          "type": "uint256"
        }
      ],
      "name": "refillFaucet",
      "outputs": [],
      "stateMutability": "nonpayable",
      "type": "function"
    },
    {
      "inputs": [],
      "name": "renounceOwnership",
      "outputs": [],
      "stateMutability": "nonpayable",
      "type": "function"
    },
    {
      "inputs": [
        {
          "internalType": "bool",
          "name": "active",
          "type": "bool"
        }
      ],
      "name": "setFaucetActive",
      "outputs": [],
      "stateMutability": "nonpayable",
      "type": "function"
    },
    {
      "inputs": [],
      "name": "totalClaimed",
      "outputs": [
        {
          "internalType": "uint256",
          "name": "",
          "type": "uint256"
        }
      ],
      "stateMutability": "view",
      "type": "function"
    },
    {
      "inputs": [],
      "name": "totalUsers",
      "outputs": [
        {
          "internalType": "uint256",
          "name": "",
          "type": "uint256"
        }
      ],
      "stateMutability": "view",
      "type": "function"
    },
    {
      "inputs": [
        {
          "internalType": "address",
          "name": "newOwner",
          "type": "address"
        }
      ],
      "name": "transferOwnership",
      "outputs": [],
      "stateMutability": "nonpayable",
      "type": "function"
    }
  ],
  "bytecode": "0x60a03461015557601f61100838819003918201601f19168301916001600160401b0383118484101761015a5780849260209460405283398101031261015557516001600160a01b038082169182900361015557331561013c576000543360018060a01b0319821617600055604051913391167f8be0079c531659141344cd1fd0a4f28419497f9722a3daafe3b4186f6b6457e0600080a360018055600160ff19600654161760065581156100fa5750608052604051610e97908161017182396080518181816101bb015281816103a001528181610519015281816106680152818161079501528181610a7f01528181610bf10152610d270152f35b62461bcd60e51b815260206004820152601a60248201527f496e76616c6964204249545220746f6b656e20616464726573730000000000006044820152606490fd5b604051631e4fbdf760e01b815260006004820152602490fd5b600080fd5b634e487b7160e01b600052604160045260246000fdfe608060408181526004908136101561001657600080fd5b600092833560e01c90816301b708c214610d13575080632487426014610c80578063485405d714610bc35780636386c1c714610b77578063715018a614610b1d57806371ecbb1a14610a5157806373b2e80e14610a1257806376697640146109ed5780637868e2031461073e5780638da5cb5b1461071657806390559584146106f2578063a6e340c614610617578063b77cf9c6146105dd578063bff1f9e1146105be578063c13463c9146104ee578063c6c8f6b61461035a578063d54ad2a11461033c578063db2e21bc146101855763f2fde38b146100f557600080fd5b34610181576020366003190112610181576001600160a01b0382358181169391929084900361017d57610126610d56565b831561016757505082546001600160a01b0319811683178455167f8be0079c531659141344cd1fd0a4f28419497f9722a3daafe3b4186f6b6457e08380a380f35b51631e4fbdf760e01b8152908101849052602490fd5b8480fd5b8280fd5b509190346103385781600319360112610338576101a0610d56565b82516370a0823160e01b815230828201526001600160a01b037f00000000000000000000000000000000000000000000000000000000000000008116946020939092919084836024818a5afa92831561032e5786936102fb575b5082156102c0578554845163a9059cbb60e01b81529083166001600160a01b0316918101918252602082018490529596859187919082908a90829060400103925af19485156102b6577fbb757047c2b5f3974fe26b7c10f732e7bce710b0952a71082702781e62ae05959495610277918891610289575b50610e23565b8554169382519182524290820152a280f35b6102a99150873d89116102af575b6102a18183610d82565b810190610dba565b38610271565b503d610297565b83513d88823e3d90fd5b835162461bcd60e51b815290810185905260156024820152744e6f20746f6b656e7320746f20776974686472617760581b6044820152606490fd5b9092508481813d8311610327575b6103138183610d82565b81010312610323575191386101fa565b8580fd5b503d610309565b84513d88823e3d90fd5b5080fd5b50903461018157826003193601126101815760209250549051908152f35b50829034610338576020908160031936011261018157833561037a610d56565b610385811515610dd7565b81516370a0823160e01b815230868201526001600160a01b037f0000000000000000000000000000000000000000000000000000000000000000811696909185816024818b5afa9081156104e45790849188916104af575b5010610475578554845163a9059cbb60e01b81529083166001600160a01b0316918101918252602082018490529596859187919082908a90829060400103925af19485156102b6577fbb757047c2b5f3974fe26b7c10f732e7bce710b0952a71082702781e62ae059594956102779188916104585750610e23565b61046f9150873d89116102af576102a18183610d82565b88610271565b835162461bcd60e51b81529081018590526014602482015273496e73756666696369656e742062616c616e636560601b6044820152606490fd5b809250878092503d83116104dd575b6104c88183610d82565b810103126104d957839051896103dd565b8680fd5b503d6104be565b85513d89823e3d90fd5b503461018157826003193601126101815780516370a0823160e01b81523083820152916020836024817f00000000000000000000000000000000000000000000000000000000000000006001600160a01b03165afa9283156105b4578493610579575b506080935054906005549060ff60065416928151948552602085015283015215156060820152f35b9092506020813d82116105ac575b8161059460209383610d82565b810103126105a85760809350519138610551565b8380fd5b3d9150610587565b82513d86823e3d90fd5b8382346103385781600319360112610338576020906005549051908152f35b50903461018157602036600319011261018157356001600160a01b0381169081900361018157828291602094526003845220549051908152f35b5034610181576020366003190112610181578135610633610d56565b61063e811515610dd7565b81516323b872dd60e01b8152339381019390935230602484015260448301819052602083606481877f00000000000000000000000000000000000000000000000000000000000000006001600160a01b03165af19283156105b4577f816ddc8dab13184fc09fe728cd28ba4738cf188266c107b2cb3158d5aa006d49936106cb9186916106da5750610e23565b8151908152426020820152a180f35b6102a9915060203d81116102af576102a18183610d82565b83823461033857816003193601126103385760209060ff6006541690519015158152f35b838234610338578160031936011261033857905490516001600160a01b039091168152602090f35b50903461018157826003193601126101815760019160028354146109e0576002835560ff60065416156109a65733845260206002815260ff82862054166109735781516370a0823160e01b815230818501529260247f00000000000000000000000000000000000000000000000000000000000000006001600160a01b031683868381845afa9586156108e3578896610940575b5069043c33c19375648000008096106108ff57338852600284528488208760ff1982541617905560038452428589205582548681018091116108ed57835560055460001981146108ed57889188869201600555604487518094819363a9059cbb60e01b835233898401528b888401525af19081156108e35788916108c6575b501561088e575050907fa19a7d2b5bf6a987a66e0eac8a6eb2dbd34ae6a43285849af788b224268ec02291815193845242908401523392a2805580f35b60159192606494519362461bcd60e51b855284015282015274151bdad95b881d1c985b9cd9995c8819985a5b1959605a1b6044820152fd5b6108dd9150843d86116102af576102a18183610d82565b38610851565b85513d8a823e3d90fd5b634e487b7160e01b8952601184528289fd5b50601b9192606494519362461bcd60e51b85528401528201527f496e73756666696369656e74206661756365742062616c616e636500000000006044820152fd5b9095508381813d831161096c575b6109588183610d82565b81010312610968575194386107d2565b8780fd5b503d61094e565b905162461bcd60e51b815291820152600f60248201526e105b1c9958591e4818db185a5b5959608a1b6044820152606490fd5b906020606492519162461bcd60e51b83528201526014602482015273466175636574206973206e6f742061637469766560601b6044820152fd5b51633ee5aeb560e01b8152fd5b8382346103385781600319360112610338576020905169043c33c19375648000008152f35b50903461018157602036600319011261018157356001600160a01b0381169081900361018157818360ff92602095526002855220541690519015158152f35b50903461018157826003193601126101815781516370a0823160e01b815230918101919091526020816024817f00000000000000000000000000000000000000000000000000000000000000006001600160a01b03165afa928315610b12578093610ace575b60208469043c33c193756480000085519110158152f35b9092506020833d8211610b0a575b81610ae960209383610d82565b81010312610b07575069043c33c19375648000006020925192610ab7565b80fd5b3d9150610adc565b8251903d90823e3d90fd5b8334610b075780600319360112610b0757610b36610d56565b80546001600160a01b03198116825581906001600160a01b03167f8be0079c531659141344cd1fd0a4f28419497f9722a3daafe3b4186f6b6457e08280a380f35b5091903461033857602036600319011261033857356001600160a01b0381169081900361033857815260026020528160ff81832054169160036020522054825191151582526020820152f35b50903461018157826003193601126101815781516370a0823160e01b815230918101919091526020816024817f00000000000000000000000000000000000000000000000000000000000000006001600160a01b03165afa928315610b12578093610c3f575b60208469043c33c1937564800000855191048152f35b9092506020833d8211610c78575b81610c5a60209383610d82565b81010312610b07575069043c33c19375648000006020925192610c29565b3d9150610c4d565b50903461018157602036600319011261018157358015158082036105a857610ca6610d56565b60ff801960065416911617600655600014610ce75760207fb410793f8aa086651daa1819a0f70d6b03a433510a7d1a7c995af5bbcba458c49151428152a180f35b60207fdbbda224ce43b9a76fdd2a5b3bd5ac693e8a1738f7f57beea8b84d6a4af4839c9151428152a180f35b8490346103385781600319360112610338577f00000000000000000000000000000000000000000000000000000000000000006001600160a01b03168152602090f35b6000546001600160a01b03163303610d6a57565b60405163118cdaa760e01b8152336004820152602490fd5b90601f8019910116810190811067ffffffffffffffff821117610da457604052565b634e487b7160e01b600052604160045260246000fd5b90816020910312610dd257518015158103610dd25790565b600080fd5b15610dde57565b60405162461bcd60e51b815260206004820152601d60248201527f416d6f756e74206d7573742062652067726561746572207468616e20300000006044820152606490fd5b15610e2a57565b60405162461bcd60e51b815260206004820152600f60248201526e151c985b9cd9995c8819985a5b1959608a1b6044820152606490fdfea2646970667358221220d9db941730aea29059e8bfe7b76fc9f9d02749ac803f33bac86d18e4a985c2ad64736f6c63430008140033",
  "linkReferences": {},
  "deployedLinkReferences": {}
}