{
  "_format": "hh-sol-artifact-1",
  "contractName": "BitredictPoolCore",
  "sourceName": "contracts/BitredictPoolCore.sol",
  "abi": [
    {
      "inputs": [
        {
          "internalType": "address",
          "name": "_bitrToken",
          "type": "address"
        },
        {
          "internalType": "address",
          "name": "_feeCollector",
          "type": "address"
        },
        {
          "internalType": "address",
          "name": "_guidedOracle",
          "type": "address"
        },
        {
          "internalType": "address",
          "name": "_optimisticOracle",
          "type": "address"
        }
      ],
      "stateMutability": "nonpayable",
      "type": "constructor"
    },
    {
      "inputs": [
        {
          "internalType": "address",
          "name": "owner",
          "type": "address"
        }
      ],
      "name": "OwnableInvalidOwner",
      "type": "error"
    },
    {
      "inputs": [
        {
          "internalType": "address",
          "name": "account",
          "type": "address"
        }
      ],
      "name": "OwnableUnauthorizedAccount",
      "type": "error"
    },
    {
      "anonymous": false,
      "inputs": [
        {
          "indexed": true,
          "internalType": "uint256",
          "name": "poolId",
          "type": "uint256"
        },
        {
          "indexed": false,
          "internalType": "uint256",
          "name": "totalVolume",
          "type": "uint256"
        },
        {
          "indexed": false,
          "internalType": "uint256",
          "name": "participantCount",
          "type": "uint256"
        }
      ],
      "name": "AnalyticsUpdated",
      "type": "event"
    },
    {
      "anonymous": false,
      "inputs": [
        {
          "indexed": true,
          "internalType": "uint256",
          "name": "poolId",
          "type": "uint256"
        },
        {
          "indexed": true,
          "internalType": "address",
          "name": "bettor",
          "type": "address"
        },
        {
          "indexed": false,
          "internalType": "uint256",
          "name": "amount",
          "type": "uint256"
        },
        {
          "indexed": false,
          "internalType": "bool",
          "name": "isForOutcome",
          "type": "bool"
        }
      ],
      "name": "BetPlaced",
      "type": "event"
    },
    {
      "anonymous": false,
      "inputs": [
        {
          "indexed": true,
          "internalType": "uint256",
          "name": "poolId",
          "type": "uint256"
        },
        {
          "indexed": true,
          "internalType": "address",
          "name": "provider",
          "type": "address"
        },
        {
          "indexed": false,
          "internalType": "uint256",
          "name": "amount",
          "type": "uint256"
        }
      ],
      "name": "LiquidityAdded",
      "type": "event"
    },
    {
      "anonymous": false,
      "inputs": [
        {
          "indexed": true,
          "internalType": "address",
          "name": "previousOwner",
          "type": "address"
        },
        {
          "indexed": true,
          "internalType": "address",
          "name": "newOwner",
          "type": "address"
        }
      ],
      "name": "OwnershipTransferred",
      "type": "event"
    },
    {
      "anonymous": false,
      "inputs": [
        {
          "indexed": true,
          "internalType": "uint256",
          "name": "poolId",
          "type": "uint256"
        },
        {
          "indexed": true,
          "internalType": "address",
          "name": "creator",
          "type": "address"
        },
        {
          "indexed": false,
          "internalType": "uint256",
          "name": "eventStartTime",
          "type": "uint256"
        },
        {
          "indexed": false,
          "internalType": "uint256",
          "name": "eventEndTime",
          "type": "uint256"
        },
        {
          "indexed": false,
          "internalType": "enum OracleType",
          "name": "oracleType",
          "type": "uint8"
        },
        {
          "indexed": false,
          "internalType": "bytes32",
          "name": "marketId",
          "type": "bytes32"
        },
        {
          "indexed": false,
          "internalType": "enum MarketType",
          "name": "marketType",
          "type": "uint8"
        },
        {
          "indexed": false,
          "internalType": "bytes32",
          "name": "league",
          "type": "bytes32"
        },
        {
          "indexed": false,
          "internalType": "bytes32",
          "name": "category",
          "type": "bytes32"
        }
      ],
      "name": "PoolCreated",
      "type": "event"
    },
    {
      "anonymous": false,
      "inputs": [
        {
          "indexed": true,
          "internalType": "uint256",
          "name": "poolId",
          "type": "uint256"
        },
        {
          "indexed": false,
          "internalType": "string",
          "name": "reason",
          "type": "string"
        }
      ],
      "name": "PoolRefunded",
      "type": "event"
    },
    {
      "anonymous": false,
      "inputs": [
        {
          "indexed": true,
          "internalType": "uint256",
          "name": "poolId",
          "type": "uint256"
        },
        {
          "indexed": false,
          "internalType": "bytes32",
          "name": "result",
          "type": "bytes32"
        },
        {
          "indexed": false,
          "internalType": "bool",
          "name": "creatorSideWon",
          "type": "bool"
        },
        {
          "indexed": false,
          "internalType": "uint256",
          "name": "timestamp",
          "type": "uint256"
        }
      ],
      "name": "PoolSettled",
      "type": "event"
    },
    {
      "anonymous": false,
      "inputs": [
        {
          "indexed": true,
          "internalType": "address",
          "name": "user",
          "type": "address"
        },
        {
          "indexed": false,
          "internalType": "enum ReputationSystem.ReputationAction",
          "name": "action",
          "type": "uint8"
        },
        {
          "indexed": false,
          "internalType": "uint256",
          "name": "value",
          "type": "uint256"
        },
        {
          "indexed": true,
          "internalType": "bytes32",
          "name": "poolId",
          "type": "bytes32"
        },
        {
          "indexed": false,
          "internalType": "uint256",
          "name": "timestamp",
          "type": "uint256"
        }
      ],
      "name": "ReputationActionOccurred",
      "type": "event"
    },
    {
      "anonymous": false,
      "inputs": [
        {
          "indexed": true,
          "internalType": "uint256",
          "name": "poolId",
          "type": "uint256"
        },
        {
          "indexed": true,
          "internalType": "address",
          "name": "user",
          "type": "address"
        },
        {
          "indexed": false,
          "internalType": "uint256",
          "name": "amount",
          "type": "uint256"
        }
      ],
      "name": "RewardClaimed",
      "type": "event"
    },
    {
      "anonymous": false,
      "inputs": [
        {
          "indexed": true,
          "internalType": "uint256",
          "name": "poolId",
          "type": "uint256"
        },
        {
          "indexed": true,
          "internalType": "address",
          "name": "user",
          "type": "address"
        }
      ],
      "name": "UserWhitelisted",
      "type": "event"
    },
    {
      "inputs": [],
      "name": "HIGH_ODDS_THRESHOLD",
      "outputs": [
        {
          "internalType": "uint256",
          "name": "",
          "type": "uint256"
        }
      ],
      "stateMutability": "view",
      "type": "function"
    },
    {
      "inputs": [],
      "name": "MAX_LP_PROVIDERS",
      "outputs": [
        {
          "internalType": "uint256",
          "name": "",
          "type": "uint256"
        }
      ],
      "stateMutability": "view",
      "type": "function"
    },
    {
      "inputs": [],
      "name": "MAX_PARTICIPANTS",
      "outputs": [
        {
          "internalType": "uint256",
          "name": "",
          "type": "uint256"
        }
      ],
      "stateMutability": "view",
      "type": "function"
    },
    {
      "inputs": [
        {
          "internalType": "uint256",
          "name": "poolId",
          "type": "uint256"
        },
        {
          "internalType": "uint256",
          "name": "amount",
          "type": "uint256"
        }
      ],
      "name": "addLiquidity",
      "outputs": [],
      "stateMutability": "payable",
      "type": "function"
    },
    {
      "inputs": [
        {
          "internalType": "uint256",
          "name": "poolId",
          "type": "uint256"
        },
        {
          "internalType": "address",
          "name": "user",
          "type": "address"
        }
      ],
      "name": "addToWhitelist",
      "outputs": [],
      "stateMutability": "nonpayable",
      "type": "function"
    },
    {
      "inputs": [
        {
          "internalType": "address",
          "name": "user",
          "type": "address"
        }
      ],
      "name": "adjustedFeeRate",
      "outputs": [
        {
          "internalType": "uint256",
          "name": "",
          "type": "uint256"
        }
      ],
      "stateMutability": "view",
      "type": "function"
    },
    {
      "inputs": [],
      "name": "arbitrationTimeout",
      "outputs": [
        {
          "internalType": "uint256",
          "name": "",
          "type": "uint256"
        }
      ],
      "stateMutability": "view",
      "type": "function"
    },
    {
      "inputs": [],
      "name": "bettingGracePeriod",
      "outputs": [
        {
          "internalType": "uint256",
          "name": "",
          "type": "uint256"
        }
      ],
      "stateMutability": "view",
      "type": "function"
    },
    {
      "inputs": [
        {
          "internalType": "uint256",
          "name": "",
          "type": "uint256"
        },
        {
          "internalType": "address",
          "name": "",
          "type": "address"
        }
      ],
      "name": "bettorStakes",
      "outputs": [
        {
          "internalType": "uint256",
          "name": "",
          "type": "uint256"
        }
      ],
      "stateMutability": "view",
      "type": "function"
    },
    {
      "inputs": [],
      "name": "bitrToken",
      "outputs": [
        {
          "internalType": "contract IERC20",
          "name": "",
          "type": "address"
        }
      ],
      "stateMutability": "view",
      "type": "function"
    },
    {
      "inputs": [],
      "name": "boostSystem",
      "outputs": [
        {
          "internalType": "contract IBitredictBoostSystem",
          "name": "",
          "type": "address"
        }
      ],
      "stateMutability": "view",
      "type": "function"
    },
    {
      "inputs": [
        {
          "internalType": "bytes32",
          "name": "",
          "type": "bytes32"
        },
        {
          "internalType": "uint256",
          "name": "",
          "type": "uint256"
        }
      ],
      "name": "categoryPools",
      "outputs": [
        {
          "internalType": "uint256",
          "name": "",
          "type": "uint256"
        }
      ],
      "stateMutability": "view",
      "type": "function"
    },
    {
      "inputs": [
        {
          "internalType": "bytes32",
          "name": "",
          "type": "bytes32"
        }
      ],
      "name": "categoryStats",
      "outputs": [
        {
          "internalType": "uint256",
          "name": "totalPools",
          "type": "uint256"
        },
        {
          "internalType": "uint256",
          "name": "totalVolume",
          "type": "uint256"
        },
        {
          "internalType": "uint256",
          "name": "averageOdds",
          "type": "uint256"
        },
        {
          "internalType": "uint256",
          "name": "lastActivityTime",
          "type": "uint256"
        }
      ],
      "stateMutability": "view",
      "type": "function"
    },
    {
      "inputs": [
        {
          "internalType": "uint256",
          "name": "poolId",
          "type": "uint256"
        }
      ],
      "name": "claim",
      "outputs": [],
      "stateMutability": "nonpayable",
      "type": "function"
    },
    {
      "inputs": [
        {
          "internalType": "uint256",
          "name": "",
          "type": "uint256"
        },
        {
          "internalType": "address",
          "name": "",
          "type": "address"
        }
      ],
      "name": "claimed",
      "outputs": [
        {
          "internalType": "bool",
          "name": "",
          "type": "bool"
        }
      ],
      "stateMutability": "view",
      "type": "function"
    },
    {
      "inputs": [
        {
          "internalType": "bytes32",
          "name": "_predictedOutcome",
          "type": "bytes32"
        },
        {
          "internalType": "uint256",
          "name": "_odds",
          "type": "uint256"
        },
        {
          "internalType": "uint256",
          "name": "_creatorStake",
          "type": "uint256"
        },
        {
          "internalType": "uint256",
          "name": "_eventStartTime",
          "type": "uint256"
        },
        {
          "internalType": "uint256",
          "name": "_eventEndTime",
          "type": "uint256"
        },
        {
          "internalType": "bytes32",
          "name": "_leagueHash",
          "type": "bytes32"
        },
        {
          "internalType": "bytes32",
          "name": "_categoryHash",
          "type": "bytes32"
        },
        {
          "internalType": "bytes32",
          "name": "_regionHash",
          "type": "bytes32"
        },
        {
          "internalType": "bytes32",
          "name": "_homeTeamHash",
          "type": "bytes32"
        },
        {
          "internalType": "bytes32",
          "name": "_awayTeamHash",
          "type": "bytes32"
        },
        {
          "internalType": "bytes32",
          "name": "_titleHash",
          "type": "bytes32"
        },
        {
          "internalType": "bool",
          "name": "_isPrivate",
          "type": "bool"
        },
        {
          "internalType": "uint256",
          "name": "_maxBetPerUser",
          "type": "uint256"
        },
        {
          "internalType": "bool",
          "name": "_useBitr",
          "type": "bool"
        },
        {
          "internalType": "enum OracleType",
          "name": "_oracleType",
          "type": "uint8"
        },
        {
          "internalType": "bytes32",
          "name": "_marketId",
          "type": "bytes32"
        },
        {
          "internalType": "enum MarketType",
          "name": "_marketType",
          "type": "uint8"
        }
      ],
      "name": "createPool",
      "outputs": [
        {
          "internalType": "uint256",
          "name": "",
          "type": "uint256"
        }
      ],
      "stateMutability": "payable",
      "type": "function"
    },
    {
      "inputs": [],
      "name": "creationFeeBITR",
      "outputs": [
        {
          "internalType": "uint256",
          "name": "",
          "type": "uint256"
        }
      ],
      "stateMutability": "view",
      "type": "function"
    },
    {
      "inputs": [],
      "name": "creationFeeSTT",
      "outputs": [
        {
          "internalType": "uint256",
          "name": "",
          "type": "uint256"
        }
      ],
      "stateMutability": "view",
      "type": "function"
    },
    {
      "inputs": [
        {
          "internalType": "address",
          "name": "",
          "type": "address"
        },
        {
          "internalType": "uint256",
          "name": "",
          "type": "uint256"
        }
      ],
      "name": "creatorActivePools",
      "outputs": [
        {
          "internalType": "uint256",
          "name": "",
          "type": "uint256"
        }
      ],
      "stateMutability": "view",
      "type": "function"
    },
    {
      "inputs": [
        {
          "internalType": "address",
          "name": "",
          "type": "address"
        }
      ],
      "name": "creatorStats",
      "outputs": [
        {
          "internalType": "uint256",
          "name": "totalPoolsCreated",
          "type": "uint256"
        },
        {
          "internalType": "uint256",
          "name": "successfulPools",
          "type": "uint256"
        },
        {
          "internalType": "uint256",
          "name": "totalVolumeGenerated",
          "type": "uint256"
        },
        {
          "internalType": "uint256",
          "name": "averagePoolSize",
          "type": "uint256"
        },
        {
          "internalType": "uint256",
          "name": "reputationScore",
          "type": "uint256"
        },
        {
          "internalType": "uint256",
          "name": "winRate",
          "type": "uint256"
        },
        {
          "internalType": "uint256",
          "name": "totalEarnings",
          "type": "uint256"
        },
        {
          "internalType": "uint256",
          "name": "activePoolsCount",
          "type": "uint256"
        }
      ],
      "stateMutability": "view",
      "type": "function"
    },
    {
      "inputs": [
        {
          "internalType": "address",
          "name": "stakingContract",
          "type": "address"
        }
      ],
      "name": "distributeFees",
      "outputs": [],
      "stateMutability": "nonpayable",
      "type": "function"
    },
    {
      "inputs": [],
      "name": "feeCollector",
      "outputs": [
        {
          "internalType": "address",
          "name": "",
          "type": "address"
        }
      ],
      "stateMutability": "view",
      "type": "function"
    },
    {
      "inputs": [],
      "name": "getActivePools",
      "outputs": [
        {
          "internalType": "uint256[]",
          "name": "",
          "type": "uint256[]"
        }
      ],
      "stateMutability": "view",
      "type": "function"
    },
    {
      "inputs": [
        {
          "internalType": "bytes32",
          "name": "categoryHash",
          "type": "bytes32"
        }
      ],
      "name": "getCategoryStats",
      "outputs": [
        {
          "components": [
            {
              "internalType": "uint256",
              "name": "totalPools",
              "type": "uint256"
            },
            {
              "internalType": "uint256",
              "name": "totalVolume",
              "type": "uint256"
            },
            {
              "internalType": "uint256",
              "name": "averageOdds",
              "type": "uint256"
            },
            {
              "internalType": "uint256",
              "name": "lastActivityTime",
              "type": "uint256"
            }
          ],
          "internalType": "struct BitredictPoolCore.CategoryStats",
          "name": "",
          "type": "tuple"
        }
      ],
      "stateMutability": "view",
      "type": "function"
    },
    {
      "inputs": [
        {
          "internalType": "address",
          "name": "creator",
          "type": "address"
        }
      ],
      "name": "getCreatorStats",
      "outputs": [
        {
          "components": [
            {
              "internalType": "uint256",
              "name": "totalPoolsCreated",
              "type": "uint256"
            },
            {
              "internalType": "uint256",
              "name": "successfulPools",
              "type": "uint256"
            },
            {
              "internalType": "uint256",
              "name": "totalVolumeGenerated",
              "type": "uint256"
            },
            {
              "internalType": "uint256",
              "name": "averagePoolSize",
              "type": "uint256"
            },
            {
              "internalType": "uint256",
              "name": "reputationScore",
              "type": "uint256"
            },
            {
              "internalType": "uint256",
              "name": "winRate",
              "type": "uint256"
            },
            {
              "internalType": "uint256",
              "name": "totalEarnings",
              "type": "uint256"
            },
            {
              "internalType": "uint256",
              "name": "activePoolsCount",
              "type": "uint256"
            }
          ],
          "internalType": "struct BitredictPoolCore.CreatorStats",
          "name": "",
          "type": "tuple"
        }
      ],
      "stateMutability": "view",
      "type": "function"
    },
    {
      "inputs": [],
      "name": "getGlobalStats",
      "outputs": [
        {
          "components": [
            {
              "internalType": "uint256",
              "name": "totalPools",
              "type": "uint256"
            },
            {
              "internalType": "uint256",
              "name": "totalVolume",
              "type": "uint256"
            },
            {
              "internalType": "uint256",
              "name": "totalUsers",
              "type": "uint256"
            },
            {
              "internalType": "uint256",
              "name": "totalBets",
              "type": "uint256"
            },
            {
              "internalType": "uint256",
              "name": "averagePoolSize",
              "type": "uint256"
            },
            {
              "internalType": "uint256",
              "name": "lastUpdated",
              "type": "uint256"
            }
          ],
          "internalType": "struct BitredictPoolCore.GlobalStats",
          "name": "",
          "type": "tuple"
        }
      ],
      "stateMutability": "view",
      "type": "function"
    },
    {
      "inputs": [
        {
          "internalType": "uint256",
          "name": "poolId",
          "type": "uint256"
        }
      ],
      "name": "getPool",
      "outputs": [
        {
          "components": [
            {
              "internalType": "address",
              "name": "creator",
              "type": "address"
            },
            {
              "internalType": "uint16",
              "name": "odds",
              "type": "uint16"
            },
            {
              "internalType": "uint8",
              "name": "flags",
              "type": "uint8"
            },
            {
              "internalType": "enum OracleType",
              "name": "oracleType",
              "type": "uint8"
            },
            {
              "internalType": "uint8",
              "name": "reserved",
              "type": "uint8"
            },
            {
              "internalType": "uint256",
              "name": "creatorStake",
              "type": "uint256"
            },
            {
              "internalType": "uint256",
              "name": "totalCreatorSideStake",
              "type": "uint256"
            },
            {
              "internalType": "uint256",
              "name": "maxBettorStake",
              "type": "uint256"
            },
            {
              "internalType": "uint256",
              "name": "totalBettorStake",
              "type": "uint256"
            },
            {
              "internalType": "bytes32",
              "name": "predictedOutcome",
              "type": "bytes32"
            },
            {
              "internalType": "bytes32",
              "name": "result",
              "type": "bytes32"
            },
            {
              "internalType": "bytes32",
              "name": "marketId",
              "type": "bytes32"
            },
            {
              "internalType": "uint256",
              "name": "eventStartTime",
              "type": "uint256"
            },
            {
              "internalType": "uint256",
              "name": "eventEndTime",
              "type": "uint256"
            },
            {
              "internalType": "uint256",
              "name": "bettingEndTime",
              "type": "uint256"
            },
            {
              "internalType": "uint256",
              "name": "resultTimestamp",
              "type": "uint256"
            },
            {
              "internalType": "uint256",
              "name": "arbitrationDeadline",
              "type": "uint256"
            },
            {
              "internalType": "bytes32",
              "name": "league",
              "type": "bytes32"
            },
            {
              "internalType": "bytes32",
              "name": "category",
              "type": "bytes32"
            },
            {
              "internalType": "bytes32",
              "name": "region",
              "type": "bytes32"
            },
            {
              "internalType": "bytes32",
              "name": "homeTeam",
              "type": "bytes32"
            },
            {
              "internalType": "bytes32",
              "name": "awayTeam",
              "type": "bytes32"
            },
            {
              "internalType": "bytes32",
              "name": "title",
              "type": "bytes32"
            },
            {
              "internalType": "uint256",
              "name": "maxBetPerUser",
              "type": "uint256"
            }
          ],
          "internalType": "struct BitredictPoolCore.Pool",
          "name": "",
          "type": "tuple"
        }
      ],
      "stateMutability": "view",
      "type": "function"
    },
    {
      "inputs": [
        {
          "internalType": "uint256",
          "name": "poolId",
          "type": "uint256"
        }
      ],
      "name": "getPoolAnalytics",
      "outputs": [
        {
          "components": [
            {
              "internalType": "uint256",
              "name": "totalVolume",
              "type": "uint256"
            },
            {
              "internalType": "uint256",
              "name": "participantCount",
              "type": "uint256"
            },
            {
              "internalType": "uint256",
              "name": "averageBetSize",
              "type": "uint256"
            },
            {
              "internalType": "uint256",
              "name": "creatorReputation",
              "type": "uint256"
            },
            {
              "internalType": "uint256",
              "name": "liquidityRatio",
              "type": "uint256"
            },
            {
              "internalType": "uint256",
              "name": "timeToFill",
              "type": "uint256"
            },
            {
              "internalType": "bool",
              "name": "isHotPool",
              "type": "bool"
            },
            {
              "internalType": "uint256",
              "name": "fillPercentage",
              "type": "uint256"
            },
            {
              "internalType": "uint256",
              "name": "lastActivityTime",
              "type": "uint256"
            }
          ],
          "internalType": "struct BitredictPoolCore.PoolAnalytics",
          "name": "",
          "type": "tuple"
        }
      ],
      "stateMutability": "view",
      "type": "function"
    },
    {
      "inputs": [
        {
          "internalType": "bytes32",
          "name": "categoryHash",
          "type": "bytes32"
        }
      ],
      "name": "getPoolsByCategory",
      "outputs": [
        {
          "internalType": "uint256[]",
          "name": "",
          "type": "uint256[]"
        }
      ],
      "stateMutability": "view",
      "type": "function"
    },
    {
      "inputs": [
        {
          "internalType": "address",
          "name": "creator",
          "type": "address"
        }
      ],
      "name": "getPoolsByCreator",
      "outputs": [
        {
          "internalType": "uint256[]",
          "name": "",
          "type": "uint256[]"
        }
      ],
      "stateMutability": "view",
      "type": "function"
    },
    {
      "inputs": [
        {
          "internalType": "uint256",
          "name": "limit",
          "type": "uint256"
        }
      ],
      "name": "getTopCreators",
      "outputs": [
        {
          "internalType": "address[]",
          "name": "creators",
          "type": "address[]"
        },
        {
          "internalType": "uint256[]",
          "name": "volumes",
          "type": "uint256[]"
        }
      ],
      "stateMutability": "pure",
      "type": "function"
    },
    {
      "inputs": [],
      "name": "globalStats",
      "outputs": [
        {
          "internalType": "uint256",
          "name": "totalPools",
          "type": "uint256"
        },
        {
          "internalType": "uint256",
          "name": "totalVolume",
          "type": "uint256"
        },
        {
          "internalType": "uint256",
          "name": "totalUsers",
          "type": "uint256"
        },
        {
          "internalType": "uint256",
          "name": "totalBets",
          "type": "uint256"
        },
        {
          "internalType": "uint256",
          "name": "averagePoolSize",
          "type": "uint256"
        },
        {
          "internalType": "uint256",
          "name": "lastUpdated",
          "type": "uint256"
        }
      ],
      "stateMutability": "view",
      "type": "function"
    },
    {
      "inputs": [],
      "name": "guidedOracle",
      "outputs": [
        {
          "internalType": "address",
          "name": "",
          "type": "address"
        }
      ],
      "stateMutability": "view",
      "type": "function"
    },
    {
      "inputs": [
        {
          "internalType": "address",
          "name": "",
          "type": "address"
        }
      ],
      "name": "longestStreak",
      "outputs": [
        {
          "internalType": "uint256",
          "name": "",
          "type": "uint256"
        }
      ],
      "stateMutability": "view",
      "type": "function"
    },
    {
      "inputs": [
        {
          "internalType": "uint256",
          "name": "",
          "type": "uint256"
        },
        {
          "internalType": "address",
          "name": "",
          "type": "address"
        }
      ],
      "name": "lpStakes",
      "outputs": [
        {
          "internalType": "uint256",
          "name": "",
          "type": "uint256"
        }
      ],
      "stateMutability": "view",
      "type": "function"
    },
    {
      "inputs": [],
      "name": "minBetAmount",
      "outputs": [
        {
          "internalType": "uint256",
          "name": "",
          "type": "uint256"
        }
      ],
      "stateMutability": "view",
      "type": "function"
    },
    {
      "inputs": [],
      "name": "minPoolStakeBITR",
      "outputs": [
        {
          "internalType": "uint256",
          "name": "",
          "type": "uint256"
        }
      ],
      "stateMutability": "view",
      "type": "function"
    },
    {
      "inputs": [],
      "name": "minPoolStakeSTT",
      "outputs": [
        {
          "internalType": "uint256",
          "name": "",
          "type": "uint256"
        }
      ],
      "stateMutability": "view",
      "type": "function"
    },
    {
      "inputs": [],
      "name": "optimisticOracle",
      "outputs": [
        {
          "internalType": "address",
          "name": "",
          "type": "address"
        }
      ],
      "stateMutability": "view",
      "type": "function"
    },
    {
      "inputs": [],
      "name": "owner",
      "outputs": [
        {
          "internalType": "address",
          "name": "",
          "type": "address"
        }
      ],
      "stateMutability": "view",
      "type": "function"
    },
    {
      "inputs": [
        {
          "internalType": "uint256",
          "name": "poolId",
          "type": "uint256"
        },
        {
          "internalType": "uint256",
          "name": "amount",
          "type": "uint256"
        }
      ],
      "name": "placeBet",
      "outputs": [],
      "stateMutability": "payable",
      "type": "function"
    },
    {
      "inputs": [],
      "name": "platformFee",
      "outputs": [
        {
          "internalType": "uint256",
          "name": "",
          "type": "uint256"
        }
      ],
      "stateMutability": "view",
      "type": "function"
    },
    {
      "inputs": [
        {
          "internalType": "uint256",
          "name": "",
          "type": "uint256"
        }
      ],
      "name": "poolAnalytics",
      "outputs": [
        {
          "internalType": "uint256",
          "name": "totalVolume",
          "type": "uint256"
        },
        {
          "internalType": "uint256",
          "name": "participantCount",
          "type": "uint256"
        },
        {
          "internalType": "uint256",
          "name": "averageBetSize",
          "type": "uint256"
        },
        {
          "internalType": "uint256",
          "name": "creatorReputation",
          "type": "uint256"
        },
        {
          "internalType": "uint256",
          "name": "liquidityRatio",
          "type": "uint256"
        },
        {
          "internalType": "uint256",
          "name": "timeToFill",
          "type": "uint256"
        },
        {
          "internalType": "bool",
          "name": "isHotPool",
          "type": "bool"
        },
        {
          "internalType": "uint256",
          "name": "fillPercentage",
          "type": "uint256"
        },
        {
          "internalType": "uint256",
          "name": "lastActivityTime",
          "type": "uint256"
        }
      ],
      "stateMutability": "view",
      "type": "function"
    },
    {
      "inputs": [
        {
          "internalType": "uint256",
          "name": "",
          "type": "uint256"
        },
        {
          "internalType": "uint256",
          "name": "",
          "type": "uint256"
        }
      ],
      "name": "poolBettors",
      "outputs": [
        {
          "internalType": "address",
          "name": "",
          "type": "address"
        }
      ],
      "stateMutability": "view",
      "type": "function"
    },
    {
      "inputs": [],
      "name": "poolCount",
      "outputs": [
        {
          "internalType": "uint256",
          "name": "",
          "type": "uint256"
        }
      ],
      "stateMutability": "view",
      "type": "function"
    },
    {
      "inputs": [
        {
          "internalType": "uint256",
          "name": "poolId",
          "type": "uint256"
        }
      ],
      "name": "poolExists",
      "outputs": [
        {
          "internalType": "bool",
          "name": "",
          "type": "bool"
        }
      ],
      "stateMutability": "view",
      "type": "function"
    },
    {
      "inputs": [
        {
          "internalType": "uint256",
          "name": "",
          "type": "uint256"
        }
      ],
      "name": "poolIdToCreatorIndex",
      "outputs": [
        {
          "internalType": "uint256",
          "name": "",
          "type": "uint256"
        }
      ],
      "stateMutability": "view",
      "type": "function"
    },
    {
      "inputs": [
        {
          "internalType": "uint256",
          "name": "",
          "type": "uint256"
        },
        {
          "internalType": "uint256",
          "name": "",
          "type": "uint256"
        }
      ],
      "name": "poolLPs",
      "outputs": [
        {
          "internalType": "address",
          "name": "",
          "type": "address"
        }
      ],
      "stateMutability": "view",
      "type": "function"
    },
    {
      "inputs": [
        {
          "internalType": "uint256",
          "name": "",
          "type": "uint256"
        },
        {
          "internalType": "address",
          "name": "",
          "type": "address"
        }
      ],
      "name": "poolWhitelist",
      "outputs": [
        {
          "internalType": "bool",
          "name": "",
          "type": "bool"
        }
      ],
      "stateMutability": "view",
      "type": "function"
    },
    {
      "inputs": [
        {
          "internalType": "uint256",
          "name": "",
          "type": "uint256"
        }
      ],
      "name": "pools",
      "outputs": [
        {
          "internalType": "address",
          "name": "creator",
          "type": "address"
        },
        {
          "internalType": "uint16",
          "name": "odds",
          "type": "uint16"
        },
        {
          "internalType": "uint8",
          "name": "flags",
          "type": "uint8"
        },
        {
          "internalType": "enum OracleType",
          "name": "oracleType",
          "type": "uint8"
        },
        {
          "internalType": "uint8",
          "name": "reserved",
          "type": "uint8"
        },
        {
          "internalType": "uint256",
          "name": "creatorStake",
          "type": "uint256"
        },
        {
          "internalType": "uint256",
          "name": "totalCreatorSideStake",
          "type": "uint256"
        },
        {
          "internalType": "uint256",
          "name": "maxBettorStake",
          "type": "uint256"
        },
        {
          "internalType": "uint256",
          "name": "totalBettorStake",
          "type": "uint256"
        },
        {
          "internalType": "bytes32",
          "name": "predictedOutcome",
          "type": "bytes32"
        },
        {
          "internalType": "bytes32",
          "name": "result",
          "type": "bytes32"
        },
        {
          "internalType": "bytes32",
          "name": "marketId",
          "type": "bytes32"
        },
        {
          "internalType": "uint256",
          "name": "eventStartTime",
          "type": "uint256"
        },
        {
          "internalType": "uint256",
          "name": "eventEndTime",
          "type": "uint256"
        },
        {
          "internalType": "uint256",
          "name": "bettingEndTime",
          "type": "uint256"
        },
        {
          "internalType": "uint256",
          "name": "resultTimestamp",
          "type": "uint256"
        },
        {
          "internalType": "uint256",
          "name": "arbitrationDeadline",
          "type": "uint256"
        },
        {
          "internalType": "bytes32",
          "name": "league",
          "type": "bytes32"
        },
        {
          "internalType": "bytes32",
          "name": "category",
          "type": "bytes32"
        },
        {
          "internalType": "bytes32",
          "name": "region",
          "type": "bytes32"
        },
        {
          "internalType": "bytes32",
          "name": "homeTeam",
          "type": "bytes32"
        },
        {
          "internalType": "bytes32",
          "name": "awayTeam",
          "type": "bytes32"
        },
        {
          "internalType": "bytes32",
          "name": "title",
          "type": "bytes32"
        },
        {
          "internalType": "uint256",
          "name": "maxBetPerUser",
          "type": "uint256"
        }
      ],
      "stateMutability": "view",
      "type": "function"
    },
    {
      "inputs": [
        {
          "internalType": "address",
          "name": "",
          "type": "address"
        }
      ],
      "name": "predictionStreaks",
      "outputs": [
        {
          "internalType": "uint256",
          "name": "",
          "type": "uint256"
        }
      ],
      "stateMutability": "view",
      "type": "function"
    },
    {
      "inputs": [
        {
          "internalType": "uint256",
          "name": "poolId",
          "type": "uint256"
        }
      ],
      "name": "refundPool",
      "outputs": [],
      "stateMutability": "nonpayable",
      "type": "function"
    },
    {
      "inputs": [
        {
          "internalType": "uint256",
          "name": "poolId",
          "type": "uint256"
        },
        {
          "internalType": "address",
          "name": "user",
          "type": "address"
        }
      ],
      "name": "removeFromWhitelist",
      "outputs": [],
      "stateMutability": "nonpayable",
      "type": "function"
    },
    {
      "inputs": [],
      "name": "renounceOwnership",
      "outputs": [],
      "stateMutability": "nonpayable",
      "type": "function"
    },
    {
      "inputs": [],
      "name": "reputationSystem",
      "outputs": [
        {
          "internalType": "contract IReputationSystem",
          "name": "",
          "type": "address"
        }
      ],
      "stateMutability": "view",
      "type": "function"
    },
    {
      "inputs": [
        {
          "internalType": "address",
          "name": "_boostSystem",
          "type": "address"
        }
      ],
      "name": "setBoostSystem",
      "outputs": [],
      "stateMutability": "nonpayable",
      "type": "function"
    },
    {
      "inputs": [
        {
          "internalType": "address",
          "name": "_reputationSystem",
          "type": "address"
        }
      ],
      "name": "setReputationSystem",
      "outputs": [],
      "stateMutability": "nonpayable",
      "type": "function"
    },
    {
      "inputs": [
        {
          "internalType": "uint256",
          "name": "poolId",
          "type": "uint256"
        },
        {
          "internalType": "bytes32",
          "name": "outcome",
          "type": "bytes32"
        }
      ],
      "name": "settlePool",
      "outputs": [],
      "stateMutability": "nonpayable",
      "type": "function"
    },
    {
      "inputs": [
        {
          "internalType": "uint256",
          "name": "poolId",
          "type": "uint256"
        }
      ],
      "name": "settlePoolAutomatically",
      "outputs": [],
      "stateMutability": "nonpayable",
      "type": "function"
    },
    {
      "inputs": [
        {
          "internalType": "address",
          "name": "",
          "type": "address"
        }
      ],
      "name": "streakMultiplier",
      "outputs": [
        {
          "internalType": "uint256",
          "name": "",
          "type": "uint256"
        }
      ],
      "stateMutability": "view",
      "type": "function"
    },
    {
      "inputs": [],
      "name": "totalCollectedBITR",
      "outputs": [
        {
          "internalType": "uint256",
          "name": "",
          "type": "uint256"
        }
      ],
      "stateMutability": "view",
      "type": "function"
    },
    {
      "inputs": [],
      "name": "totalCollectedSTT",
      "outputs": [
        {
          "internalType": "uint256",
          "name": "",
          "type": "uint256"
        }
      ],
      "stateMutability": "view",
      "type": "function"
    },
    {
      "inputs": [
        {
          "internalType": "address",
          "name": "newOwner",
          "type": "address"
        }
      ],
      "name": "transferOwnership",
      "outputs": [],
      "stateMutability": "nonpayable",
      "type": "function"
    },
    {
      "inputs": [
        {
          "internalType": "address",
          "name": "user",
          "type": "address"
        },
        {
          "internalType": "bool",
          "name": "won",
          "type": "bool"
        }
      ],
      "name": "updateStreak",
      "outputs": [],
      "stateMutability": "nonpayable",
      "type": "function"
    }
  ],
  "bytecode": "0x60e0346200014857601f62004c7c38819003918201601f19168301916001600160401b038311848410176200014d5780849260809460405283398101031262000148576200004d8162000163565b906200005c6020820162000163565b90620000796060620000716040840162000163565b920162000163565b9133156200012f57600080546001600160a01b03198082163390811784556040519791936001600160a01b03938416907f8be0079c531659141344cd1fd0a4f28419497f9722a3daafe3b4186f6b6457e09080a31690600154161760015560805260a05260c05242601655614b0390816200017982396080518181816108550152611e5e015260a05181818161089a0152818161335201526135a9015260c05181818161345c015281816134f101526136f70152f35b604051631e4fbdf760e01b815260006004820152602490fd5b600080fd5b634e487b7160e01b600052604160045260246000fd5b51906001600160a01b0382168203620001485756fe61018080604052600436101561001457600080fd5b600090813560e01c90816301b708c214613f8357508063068bcd8d14613d7b5780630e8a01bc1461389557806310b082f914613805578063120aa877146137bc578063152cdda91461352057806322302922146134db578063237e23be146132e357806326232a2e146103a257806326d84629146131ce5780632d785461146131355780632e24c587146130ae57806331143cee146130695780633256435014613046578063379607f514612c76578063394d997614612c585780633bdc087c14612bf35780633e8670ff14612bc15780634afe62b5146125a45780634c2809f1146103565780634d7aae78146125805780635556b676146125475780635e1871d2146125245780635e4de665146124d9578063657c183f146124bd5780636587eda1146124945780636b4169c3146123e9578063715018a6146123a157806384499bb61461237d5780638483c43c146123305780638b4ed235146123065780638da5cb5b146122df5780638ec08354146122135780638f63f748146121f55780639413f25c14611e385780639cd441da146119475780639f82d472146118475780639fd482be146117fb578063a12a41cf146117b3578063a695ee3814611787578063a91379f014610b46578063aac137d614610b28578063ab78cc1514610b0c578063ac4afa3814610957578063aedc598114610910578063c26e797e146108c9578063c341261014610884578063c415b95c1461083f578063c6ae0c3b14610806578063c84728ef1461077b578063cd7f99df14610657578063d3d1993d146105cf578063d96d09aa146103a2578063de96303b14610596578063e4dc4efc1461054e578063e843f61c146104aa578063eb6bc08b14610465578063ed5175471461041d578063f2fde38b146103a7578063f3baf070146103a2578063f525cb6814610384578063f6915af51461035b578063fa968eea146103565763fea3e613146102e257600080fd5b34610353576040366003190112610353576004356102fe613fcb565b9061030c6002548210614362565b808352600760205260408320546001600160a01b03919061033090831633146147ee565b8352600d602052604083209116600052602052604060002060ff19815416905580f35b80fd5b61408c565b50346103535780600319360112610353576004546040516001600160a01b039091168152602090f35b50346103535780600319360112610353576020600254604051908152f35b613ff7565b5034610353576020366003190112610353576103c1613fe1565b6103c96140af565b6001600160a01b03908116908115610404576000548260018060a01b031982161760005516600080516020614aae833981519152600080a380f35b604051631e4fbdf760e01b815260048101849052602490fd5b503461035357604036600319011261035357602435906004358152601a60205260408120908154831015610353576020610457848461405e565b90546040519160031b1c8152f35b50346103535760203660031901126103535761047f613fe1565b6104876140af565b600480546001600160a01b0319166001600160a01b039290921691909117905580f35b503461035357602090816003193601126103535790600435916104cc8361483c565b916104da604051938461417b565b8383526104fa6104e98561483c565b8483019590601f1901368737614853565b9160405193604085019060408652518091526060850195915b8181106105315785870384870152858061052d8988614014565b0390f35b82516001600160a01b031687529583019591830191600101610513565b503461035357806003193601126103535760c06011546012546013546014546015549160165493604051958652602086015260408501526060840152608083015260a0820152f35b5034610353576020366003190112610353576020906040906001600160a01b036105be613fe1565b168152601883522054604051908152f35b503461035357602036600319011261035357604061012091600435815260106020522080549060018101549060028101546003820154600483015460058401549160ff600686015416936008600787015496015496604051988952602089015260408801526060870152608086015260a0850152151560c084015260e0830152610100820152f35b5034610353576020366003190112610353576101209060406004359181519261067f8461415f565b81845281602085015281838501528160608501528160808501528160a08501528160c08501528160e085015281610100809501526106c06002548210614362565b8152601060205220906040516106d58161415f565b8254928382526001810154602083019081526002820154604084019081526003830154606085019081526004840154906080860191825260058501549260a0870193845260ff6006870154169460c08801951515865288600860078901549860e08b01998a5201549801978852604051998a525160208a01525160408901525160608801525160808701525160a086015251151560c08501525160e08401525190820152f35b503461035357602080600319360112610802576001600160a01b0361079e613fe1565b168252601b81526040822091604051809384918482549182815201918452848420935b858282106107ec575050506107d89250038361417b565b61052d604051928284938452830190614014565b85548452600195860195889550930192016107c1565b5080fd5b5034610353576020366003190112610353576020906040906001600160a01b0361082e613fe1565b168152601783522054604051908152f35b50346103535780600319360112610353576040517f00000000000000000000000000000000000000000000000000000000000000006001600160a01b03168152602090f35b50346103535780600319360112610353576040517f00000000000000000000000000000000000000000000000000000000000000006001600160a01b03168152602090f35b50346103535760403660031901126103535760406108e5613fcb565b916004358152600b602052209060018060a01b03166000526020526020604060002054604051908152f35b503461035357604036600319011261035357604061092c613fcb565b9160043581526009602052209060018060a01b03166000526020526020604060002054604051908152f35b503461035357602036600319011261035357600f600e600d600c600b600a60096008600760066005600460ff6003604060139f8435815287602052209e8f9e8f9e8f9e8f9e8f9e8f9e8f9e8f9e8f9e8f9e8f9e8f9e8f9d8e8060a052549e600181015461014052600281015460c05201549f01549f01549f01549f01549f01549f01549f01549f01549f01549f01549f01549f01549f601081015461016052601181015461012052601281015460e0520154610100526040518060805260018060a01b038216905261ffff8160a01c1660206080510152818160b01c1660406080510152610a4f606060805101838360b81c16613fa8565b60c01c166080805101526101405160a0608051015260c05160c0608051015260e06080510152610100608051015261012060805101526101406080510152610160608051015261018060805101526101a060805101526101c060805101526101e060805101526102006080510152610220608051015261024060805101526102606080510152610160516102806080510152610120516102a0608051015260e0516102c06080510152610100516102e06080510152610300608051f35b50346103535780600319360112610353576020604051603c8152f35b50346103535780600319360112610353576020600554604051908152f35b506102203660031901126103535761016435151561016435036112a4576101a43515156101a435036112a45760026101c43510156103535760086102043510156103535760646024351180611779575b1561171e576003546001600160a01b03168061158d575b506101a4351561153c57683635c9adc5dea00000604435106114fc575b69d3c21bcecceda1000000604435116114c55742606435111561148657606435608435111561144157603c42018042116112d157606435111561140b576101a435156113fc57806802b5e3af16b18800005b610c28604435826141ab565b6101a435156113dc576001546040516323b872dd60e01b81529360209285926001600160a01b03169183918290610c64903033600485016141fb565b03925af19182156113d157839261138d575b50610c83610c8b9261421d565b6006546141ab565b6006555b60243560631981019081116112d15780156113595760646044350260443581046064146044351517156113455790610cc691614280565b606435603b198101116112d1576201518060843501608435116112d15781906101643561133c575b6101a435611332575b60ff60405192610d06846140db565b33845261ffff602435166020850152166040830152610d2b6101c435606084016142a0565b82608083015260443560a083015260443560c083015260e082015281610100820152600435610120820152816101408201526101e4356101608201526064356101808201526084356101a0820152603b19606435016101c0820152816101e0820152620151806084350161020082015260a43561022082015260c43561024082015260e43561026082015261010435610280820152610124356102a0820152610144356102c0820152610184356102e082015260025482526007602052604082209060018060a01b0381511682549061ffff60a01b602084015160a01b169160018060b01b03191617178255610e2860ff604083015116836142ac565b6060810151600281101561131e576013916102e091845460ff60c01b608084015160c01b169160ff60b81b9060b81b169061ffff60b81b19161717845560a0810151600185015560c0810151600285015560e08101516003850155610100810151600485015561012081015160058501556101408101516006850155610160810151600785015561018081015160088501556101a081015160098501556101c0810151600a8501556101e0810151600b850155610200810151600c850155610220810151600d850155610240810151600e850155610260810151600f85015561028081015160108501556102a081015160118501556102c08101516012850155015191015560018060a01b03600354168015156000146113175760206024916040519283809263baccbfdb60e01b82523360048301525afa9081156112b15782916112e5575b505b600860405191610f7f8361415f565b60443583526020830190600182526110066040850191604435835260608601908152608086016064815260a087019088825260c088019289845260e08901958a87526101008a01974289526002548c52601060205260408c209a518b555160018b01555160028a0155516003890155516004880155516005870155511515600686016142c9565b516007840155519101556002548152600a60205261102733604083206142da565b6002548152600b602052604081203360005260205260443560406000205560c4358152601a60205261105f6040822060025490614315565b338152601b6020526110776040822060025490614315565b338152601b6020526040812054806000198101116112d1576002548252601c602052600019016040822055338152600e60205260408120906110b98254614353565b808355600783016110ca8154614353565b905560028301906110de60443583546141ab565b809255806112bc575b50506003546001600160a01b0316918261123c575b506040915060c4358152600f602052206111168154614353565b8082556001820161112a60443582546141ab565b80915542600384015581611225575b505050611147601154614353565b806011556111596044356012546141ab565b90816012554260165580611212575b602060025460405160643581526084358382015261118c604082016101c435613fa8565b6101e435606082015261020435608082015260a43560a082015260c43560c0820152817fe2092e1dafd36cd4cb06c74190c7ebe2029efcd90a185d581ca9bc661efdbc3660e03393a3806040516000815260443584820152426040820152600080516020614a4e83398151915260603392a361120781614353565b600255604051908152f35b61121b91614280565b6015553880611168565b60029161123191614280565b910155388080611139565b60206024936040519485809263baccbfdb60e01b82523360048301525afa9283156112b1578293611277575b509160046040930155386110fc565b92506020833d6020116112a9575b816112926020938361417b565b810103126112a4579151916004611268565b600080fd5b3d9150611285565b6040513d84823e3d90fd5b6112c591614280565b600383015538806110e7565b634e487b7160e01b82526011600452602482fd5b90506020813d60201161130f575b816113006020938361417b565b810103126112a4575138610f6e565b3d91506112f3565b5080610f70565b634e487b7160e01b84526021600452602484fd5b9060081790610cf7565b60049150610cee565b634e487b7160e01b83526011600452602483fd5b60405162461bcd60e51b815260206004820152600c60248201526b496e76616c6964206f64647360a01b6044820152606490fd5b91506020823d82116113c9575b816113a76020938361417b565b810103126113c557610c836113be610c8b9361419e565b9250610c76565b8280fd5b3d915061139a565b6040513d85823e3d90fd5b6113f492506113ec9034146141b8565b6005546141ab565b600555610c8f565b80670de0b6b3a7640000610c1c565b60405162461bcd60e51b815260206004820152600e60248201526d22bb32b73a103a37b79039b7b7b760911b6044820152606490fd5b60405162461bcd60e51b815260206004820152601d60248201527f4576656e7420656e64206d7573742062652061667465722073746172740000006044820152606490fd5b60405162461bcd60e51b81526020600482015260176024820152764576656e74206d75737420626520696e2066757475726560481b6044820152606490fd5b60405162461bcd60e51b815260206004820152600f60248201526e5374616b6520746f6f206c6172676560881b6044820152606490fd5b60405162461bcd60e51b815260206004820152601860248201527742495452207374616b652062656c6f77206d696e696d756d60401b6044820152606490fd5b674563918244f400006044351015610bca5760405162461bcd60e51b8152602060048201526017602482015276535454207374616b652062656c6f77206d696e696d756d60481b6044820152606490fd5b602060249160016101c43514600014611662576040516313f31f3960e31b815233600482015292839182905afa9081156112b1578291611629575b50156115d5575b38610bad565b60405162461bcd60e51b815260206004820152602660248201527f496e73756666696369656e742072657075746174696f6e20666f72204f50454e60448201526520706f6f6c7360d01b6064820152608490fd5b90506020813d821161165a575b816116436020938361417b565b81010312610802576116549061419e565b386115c8565b3d9150611636565b60405163fbad6cf560e01b815233600482015292839182905afa9081156112b15782916116e5575b506115cf5760405162461bcd60e51b815260206004820152602860248201527f496e73756666696369656e742072657075746174696f6e20666f722047554944604482015267454420706f6f6c7360c01b6064820152608490fd5b90506020813d8211611716575b816116ff6020938361417b565b81010312610802576117109061419e565b3861168a565b3d91506116f2565b60405162461bcd60e51b815260206004820152602d60248201527f496e76616c6964206f6464733a206d757374206265206265747765656e20312e60448201526c0303120616e64203130302e303609c1b6064820152608490fd5b506127106024351115610b96565b50346103535760203660031901126103535760206117ab6117a6613fe1565b61470d565b604051908152f35b5034610353576040366003190112610353576117cd613fe1565b6001600160a01b03168152601b6020526040812080546024359290831015610353576020610457848461405e565b5034610353576040366003190112610353576040611817613fcb565b916004358152600d602052209060018060a01b0316600052602052602060ff604060002054166040519015158152f35b503461035357602036600319011261035357604061010091611867613fe1565b8160e0845161187581614143565b82815282602082015282868201528260608201528260808201528260a08201528260c0820152015260018060a01b03168152600e602052206040516118b981614143565b8154918282526001810154602083019081526002820154604084019081526003830154606085019081526004840154916080860192835260058501549360a0870194855260e0600760068801549760c08a01988952015497019687526040519788525160208801525160408701525160608601525160808501525160a08401525160c08301525160e0820152f35b5061195136614048565b9061195f6002548210614362565b808352602060078152604084209061197f611979846148b5565b156144bd565b670de0b6b3a76400008410611dfa576969e10de76676d08000008411611dc0576119ae600a83015442106144f8565b600282018054851910611d8257838652600b82526040862033600052825260406000205415611d32575b6119e1846148ce565b611d0b575b838652600b82526040862033600052825260406000205415611cf2575b838652600b8252604086203360005282526040600020611a248682546141ab565b9055611a318582546141ab565b80915560048301548015908115611ce4575b5015611cd857915b61ffff815460a01c166063198101908111611cc45760649384810290808204861490151715611cb057600391611a8091614280565b910155611a8c836148e7565b15611ca0576001546040516323b872dd60e01b815290829082906001600160a01b0316818981611ac18b3033600485016141fb565b03925af18015611c95578690611c5b575b611adc915061421d565b8260005260108152604060002091611af58584546141ab565b808455600184018054914260088701558280611c46575b50508560005260078452611b23604060002061439d565b9060e082018051611c19575b5060c08201918783511515600014611bea57506101000151848102948186041490151715611bd457600080516020614a6e83398151915295600a600080516020614a0e83398151915294611b888a976040965190614280565b6004840155101580611bbb575b611ba290600683016142c9565b549054825191825285820152a26040519384523393a380f35b50611ba2610e10611bcc4242614260565b109050611b95565b634e487b7160e01b600052601160045260246000fd5b9460409350600080516020614a6e833981519152979150600080516020614a0e83398151915294600a91611b88565b61010083015185810290808204871490151715611bd457611c3b915190614280565b600787015538611b2f565b611c4f91614280565b60028601553882611b0c565b508181813d8311611c8e575b611c71818361417b565b81010312611c8a57611c85611adc9161419e565b611ad2565b8580fd5b503d611c67565b6040513d88823e3d90fd5b611cab8434146141b8565b611adc565b634e487b7160e01b88526011600452602488fd5b634e487b7160e01b87526011600452602487fd5b50600182015491611a4b565b905060018401541038611a43565b838652600a8252611d0633604088206142da565b611a03565b838652600d825260408620336000528252611d2d60ff6040600020541661453b565b6119e6565b838652600a825260646040872054106119d85760405162461bcd60e51b8152600481018390526015602482015274546f6f206d616e79204c502070726f76696465727360581b6044820152606490fd5b60405162461bcd60e51b815260048101839052601660248201527543726561746f72207374616b65206f766572666c6f7760501b6044820152606490fd5b6064906040519062461bcd60e51b8252600482015260136024820152724c697175696469747920746f6f206c6172676560681b6044820152fd5b6064906040519062461bcd60e51b8252600482015260176024820152764c69717569646974792062656c6f77206d696e696d756d60481b6044820152fd5b50346103535760208060031936011261080257611e53613fe1565b906001600160a01b037f00000000000000000000000000000000000000000000000000000000000000008181169291338490036121bb5760055494600654948615938491821590816120b6575b5087159687159283611f81575b505091611f79575b50611ebe578680f35b1691601e8402938404601e141715611f6557601e8402938404601e141715611f5157908184923b156113c55760649183604492846040519788968795633d6bcfaf60e11b87520460048601520460248401525af180156112b157611f26575b80808080808680f35b6001600160401b038111611f3d5760405238611f1d565b634e487b7160e01b82526041600452602482fd5b634e487b7160e01b84526011600452602484fd5b634e487b7160e01b85526011600452602485fd5b905038611eb5565b909350601e8902898104601e148917156120a25760648c9104816006558186611fd18d611fb3858d6001541692614260565b60405196878094819363a9059cbb60e01b9b8c8452600484016146f2565b03925af192831561209557879361205c575b506120039389600154169160405180968195829483528c600484016146f2565b03925af193841561205157879415611ead5790809450813d831161204a575b61202c818361417b565b810103126120465761203e869361419e565b503880611ead565b8980fd5b503d612022565b6040513d8d823e3d90fd5b9283813d831161208e575b612071818361417b565b810103126103535761200393612087889461419e565b5093611fe3565b503d612067565b50604051903d90823e3d90fd5b634e487b7160e01b8c52601160045260248cfd5b90919250601e8902898104601e148717156121a7578a80808c946120e36064839604809784600555614260565b905af16120ee6146c2565b50156121585789808080938888165af16121066146c2565b50156121155790849138611ea0565b60405162461bcd60e51b815260048101879052601b60248201527a14d515081cdd185ada5b99c81d1c985b9cd9995c8819985a5b1959602a1b6044820152606490fd5b60405162461bcd60e51b815260048101889052602160248201527f5354542066656520636f6c6c6563746f72207472616e73666572206661696c656044820152601960fa1b6064820152608490fd5b634e487b7160e01b8b52601160045260248bfd5b60405162461bcd60e51b815260048101849052601260248201527127b7363c903332b29031b7b63632b1ba37b960711b6044820152606490fd5b50346103535780600319360112610353576020600654604051908152f35b503461035357806003193601126103535760025461223081614853565b8291835b81811061228957505061224682614853565b925b828110612265576040516020808252819061052d90820187614014565b806122736122849284614828565b5161227e8287614828565b52614353565b612248565b612292816148b5565b15806122c7575b6122ac575b6122a790614353565b612234565b926122bf818561227e6122a79487614828565b93905061229e565b508085526007602052600a6040862001544210612299565b5034610353578060031936011261035357546040516001600160a01b039091168152602090f35b50346103535760203660031901126103535760406020916004358152601c83522054604051908152f35b50346103535760203660031901126103535760406080916004358152600f602052208054906001810154906003600282015491015491604051938452602084015260408301526060820152f35b503461035357806003193601126103535760206040516802b5e3af16b18800008152f35b50346103535780600319360112610353576123ba6140af565b80546001600160a01b03198116825581906001600160a01b0316600080516020614aae8339815191528280a380f35b503461035357806003193601126103535760a060405161240881614128565b828152826020820152826040820152826060820152826080820152015260c060405161243381614128565b6011549081815260125460208201908152601354604083019081526014549060608401918252601554926080850193845260a060165495019485526040519586525160208601525160408501525160608401525160808301525160a0820152f35b50346103535780600319360112610353576003546040516001600160a01b039091168152602090f35b5034610353578060031936011261035357602060405160648152f35b5034610353576124e836614048565b91908152600a6020526040812090815483101561035357602061250b848461405e565b905460405160039290921b1c6001600160a01b03168152f35b503461035357602036600319011261035357602060025460043510604051908152f35b5034610353576020366003190112610353576020906040906001600160a01b0361256f613fe1565b168152601983522054604051908152f35b50346103535780600319360112610353576020604051683635c9adc5dea000008152f35b506125ae36614048565b906125bc6002548210614362565b808352602060078152604084206125d28161439d565b906125df611979856148b5565b670de0b6b3a76400008510612b885769152d02c7e14af68000008511612b535761260f6101c083015142106144f8565b61010091828101908151878115918215612b3c575b505015612b315760c0810151925b61ffff8683015116606494858102908082048714901517156121a75760631982019182116121a7579061266491614280565b92836126718a83516141ab565b11612b0157908888949392858c526009895260408c20338d5289528b60408120548a811580612a99575b6126a48a6148ce565b612a74575b6102e088018051612a0a575b50856126e8969594936040936126d0936129f1575b506141ab565b9189815260098d528181203382528d522055516141ab565b6004820193818555806003840155858c5260078952601060408d205460b01c161591826129bf575b5050612970575b505050612723906148e7565b15612960576001546040516323b872dd60e01b815290849082906001600160a01b0316818a816127588c3033600485016141fb565b03925af1801561295557879061291b575b612773915061421d565b83865260108352604086209061278a8683546141ab565b908183556001830193845492600184018094116129075783865542600886015583806128f2575b5050868952600786526127c660408a2061439d565b9060e0820180516128c7575b5060c082019188835115156000146128a35750015182810292818404149015171561288f57938693600a600080516020614a0e8339815191529461281d60409560019a995190614280565b6004840155101580612876575b61283790600683016142c9565b549054825191825285820152a26040519384528301527fb1bd10cf5ea9540f12b9b182707734fd82deacc56830e2bd316133deb372bff460403393a380f35b50612837610e106128874242614260565b10905061282a565b634e487b7160e01b89526011600452602489fd5b95915050600196959150600a600080516020614a0e8339815191529460409461281d565b8183015190848202918083048614901517156120a257516128e791614280565b6007860155386127d2565b6128fb91614280565b600285015538836127b1565b634e487b7160e01b8a52601160045260248afd5b508381813d831161294e575b612931818361417b565b8101031261294a576129456127739161419e565b612769565b8680fd5b503d612927565b6040513d89823e3d90fd5b61296b8534146141b8565b612773565b600080516020614a4e8339815191529161299782601060ff6060955460b01c1617906142ac565b60018060a01b039051169254604051906005825288820152426040820152a383388080612717565b8791939495965080925002908082048714901517156121a7576129e88995949392603c92614280565b10153880612710565b6008908d875252612a04338587206142da565b8e6126ca565b93509395969798505092612a1e90846141ab565b905110612a3557918b8b928a8c98979695386126b5565b60405162461bcd60e51b8152600481018a9052601860248201527722bc31b2b2b2399036b0bc103132ba103832b9103ab9b2b960411b60448201528790fd5b898452600d8252604084203385528252612a9460ff60408620541661453b565b6126a9565b9395969798929194505052600889526101f460408d20541015612ac557918b8b928a8c9897969561269b565b60405162461bcd60e51b8152600481018a90526015602482015274546f6f206d616e79207061727469636970616e747360581b60448201528790fd5b60405162461bcd60e51b8152600481018890526009602482015268141bdbdb08199d5b1b60ba1b60448201528590fd5b60a081015192612632565b612b4692506141ab565b60a0820151108738612624565b60405162461bcd60e51b815260048101849052600d60248201526c42657420746f6f206c6172676560981b6044820152606490fd5b60405162461bcd60e51b81526004810184905260116024820152704265742062656c6f77206d696e696d756d60781b6044820152606490fd5b503461035357612bd036614048565b9190815260086020526040812090815483101561035357602061250b848461405e565b503461035357602080600319360112610802576004358252601a81526040822091604051809384918482549182815201918452848420935b85828210612c42575050506107d89250038361417b565b8554845260019586019588955093019201612c2b565b50346103535780600319360112610353576020604051620151808152f35b50346103535760208060031936011261080257600435612c996002548210614362565b80835260078252612cac6040842061439d565b91612cb6826148b5565b1561301457818452600c815260408420338552815260ff604085205416612fde57818452600c815260408085203386528252808520805460ff191660011790558285526007825284205484939060b01c60021615612edc57828552600b82526040852033865282526040852054908115908115612e91575b5050505b82612d3b578380f35b612d44826148e7565b15612e2e5760015460405163a9059cbb60e01b815290829082906001600160a01b0316818881612d788a33600484016146f2565b03925af1908115612e23578591612dea575b5015612db157600080516020614a8e833981519152905b6040519384523393a33880808380f35b6064906040519062461bcd60e51b82526004820152601260248201527110925514881c185e5bdd5d0819985a5b195960721b6044820152fd5b90508181813d8311612e1c575b612e01818361417b565b81010312612e1857612e129061419e565b38612d8a565b8480fd5b503d612df7565b6040513d87823e3d90fd5b8380808086335af1612e3e6146c2565b5015612e5957600080516020614a8e83398151915290612da1565b6064906040519062461bcd60e51b82526004820152601160248201527014d515081c185e5bdd5d0819985a5b1959607a1b6044820152fd5b9091929450612710918284029084820484141715611cc45781610100612ec4612ecc9360c0612ed3989796015190614280565b91015161426d565b04906141ab565b91388080612d2e565b6009825260408520338652825260408520549081612efc575b5050612d32565b83919450612f1361ffff846064930151168661426d565b0493612f3f612710612f37612f288489614260565b612f313361470d565b9061426d565b048096614260565b9480612fa6575b50612f50826148e7565b15612f9557686c6b935b8bbd4000008110155b15612ef557604051906003825283820152426040820152600080516020614a4e83398151915260603392a38138612ef5565b678ac7230489e80000811015612f63565b612faf836148e7565b15612fca57612fc0906006546141ab565b6006555b38612f46565b612fd6906005546141ab565b600555612fc4565b6064906040519062461bcd60e51b82526004820152600f60248201526e105b1c9958591e4818db185a5b5959608a1b6044820152fd5b6064906040519062461bcd60e51b82526004820152600b60248201526a139bdd081cd95d1d1b195960aa1b6044820152fd5b50346103535780600319360112610353576020604051674563918244f400008152f35b503461035357602036600319011261035357613083613fe1565b61308b6140af565b600380546001600160a01b0319166001600160a01b039290921691909117905580f35b503461035357602036600319011261035357610100906040906001600160a01b036130d7613fe1565b168152600e60205220805490600181015490600281015460038201546004830154906005840154926007600686015495015495604051978852602088015260408701526060860152608085015260a084015260c083015260e0820152f35b503461035357604036600319011261035357600435613152613fcb565b906131606002548210614362565b808352600760205260408320546001600160a01b039061318390821633146147ee565b818452600d6020526040842092169182845260205260408320600160ff198254161790557fef35c6815799b054cdc749d1f5bb07547c285ef9d7559c6e839da576f42b49098380a380f35b5034610353576040366003190112610353576131e8613fe1565b60243580151581036113c55730331480156132d0575b1561329c57156132785760018060a01b031680825260209060178252604083206132288154614353565b9055825260178152604082205460188252604083205410613261575b6017815260196132576040842054614885565b9152604082205580f35b601781526040822054601882526040832055613244565b60018060a01b03168152601760205280604081205560196020526001604082205580f35b60405162461bcd60e51b815260206004820152600c60248201526b155b985d5d1a1bdc9a5e995960a21b6044820152606490fd5b5082546001600160a01b031633146131fe565b5034610353576040366003190112610353576004356024356133086002548310614362565b81835260076020526040832090613327613321846148b5565b15614579565b61333760098301544210156145b7565b81549160ff8360b81c1660028110156134c7578061343557507f00000000000000000000000000000000000000000000000000000000000000006001600160a01b031633036133fb576133a9600160ff600080516020614a2e833981519152955b85600686015560b01c1617826142ac565b600581015482141590816133e2575b600b429101556133c784614900565b6040805192835290151560208301524290820152606090a280f35b6133f6600260ff835460b01c1617826142ac565b6133b8565b60405162461bcd60e51b81526020600482015260126024820152714f6e6c7920677569646564206f7261636c6560701b6044820152606490fd5b600114613459575b6133a9600160ff600080516020614a2e83398151915295613398565b337f00000000000000000000000000000000000000000000000000000000000000006001600160a01b03161461343d5760405162461bcd60e51b81526020600482015260166024820152754f6e6c79206f7074696d6973746963206f7261636c6560501b6044820152606490fd5b634e487b7160e01b86526021600452602486fd5b50346103535780600319360112610353576040517f00000000000000000000000000000000000000000000000000000000000000006001600160a01b03168152602090f35b50346103535760208060031936011261080257600435906135446002548310614362565b818352600781526040832061355b613321846148b5565b61356b60098201544210156145b7565b8054848060b883901c60ff1660028110156137a857806136c7575050506007820154604051632e8d1dc160e11b8152600481019190915285816024817f00000000000000000000000000000000000000000000000000000000000000006001600160a01b03165afa908115611c9557869087926136a2575b501561365e576135f29061469f565b9260015b156136265750906133a9600160ff8594600080516020614a2e83398151915296600686015560b01c1617826142ac565b6064906040519062461bcd60e51b8252600482015260116024820152704f7574636f6d65206e6f7420726561647960781b6044820152fd5b60405162461bcd60e51b815260048101859052601c60248201527b477569646564206f7574636f6d65206e6f7420617661696c61626c6560201b6044820152606490fd5b90506136c091503d8088833e6136b8818361417b565b810190614614565b90386135e3565b919491600019016135f657506007830154604051632e8d1dc160e11b8152600481019190915290935085816024817f00000000000000000000000000000000000000000000000000000000000000006001600160a01b03165afa908115611c95578690879261378b575b5015613748576137409061469f565b9260016135f6565b6064846040519062461bcd60e51b825280600483015260248201527f4f7074696d6973746963206f7574636f6d65206e6f742066696e616c697a65646044820152fd5b90506137a191503d8088833e6136b8818361417b565b9038613731565b634e487b7160e01b88526021600452602488fd5b50346103535760403660031901126103535760ff60406020926137dd613fcb565b6004358252600c85528282206001600160a01b03909116825284522054604051911615158152f35b5034610353576020366003190112610353576040816080926060835161382a8161410d565b828152826020820152828582015201526004358152600f602052206040516138518161410d565b815491828252600181015460208301908152606060036002840154936040860194855201549301928352604051938452516020840152516040830152516060820152f35b50346103535760208060031936011261080257600435906138b96002548310614362565b81835260078152604083206138d0613321846148b5565b600c810154421115613d36576138f26001918260ff825460b01c1617906142ac565b828452600a825280604085206040519081858254918281520191885285882090885b87828210613d1a57505050508161392c91038261417b565b85825b613b8d575b5050508284526008825260408420604051808285829454938481520190885285882092885b8688838310613b6f57505050506139729250038261417b565b84825b6139d6575b50505060607f5d017285e8f2eb1ffcbc2466eaedb487942e395d5f1e312f09e9384b1687bea5916139aa84614900565b60136040519180835282015272105c989a5d1c985d1a5bdb881d1a5b595bdd5d606a1b6040820152a280f35b8151811015613b6a5782919086856001600160a01b03806139f78587614828565b51168984526009835260408420818552835260408420549182613a2a575b5050505050613a2390614353565b9091613975565b9091929394959650613a3b8a6148e7565b15613b0757613a669450875416908a60405180968195829463a9059cbb60e01b8452600484016146f2565b03925af1908115612955578791613ad2575b5015613a915790613a2383925b90508685388080613a15565b60405162461bcd60e51b8152600481018590526019602482015278109255148818995d1d1bdc881c99599d5b990819985a5b1959603a1b6044820152606490fd5b90508481813d8311613b00575b613ae9818361417b565b8101031261294a57613afa9061419e565b38613a78565b503d613adf565b50839250829182915af1613b196146c2565b5015613b2a5790613a238392613a85565b60405162461bcd60e51b815260048101859052601860248201527714d5150818995d1d1bdc881c99599d5b990819985a5b195960421b6044820152606490fd5b61397a565b86546001600160a01b03168552958101958795509093019201613959565b8151811015613d155786856001600160a01b0380613bab8587614828565b5116898452600b835260408420818552835260408420549182613bdd575b5050505050613bd790614353565b8261392f565b9091929394959650613bee8a6148e7565b15613cb657613c199450875416908a60405180968195829463a9059cbb60e01b8452600484016146f2565b03925af1908115612955578791613c81575b5015613c445790613bd783925b90508685388080613bc9565b60405162461bcd60e51b815260048101859052601560248201527410925514881314081c99599d5b990819985a5b1959605a1b6044820152606490fd5b90508481813d8311613caf575b613c98818361417b565b8101031261294a57613ca99061419e565b38613c2b565b503d613c8e565b50839250829182915af1613cc86146c2565b5015613cd95790613bd78392613c38565b60405162461bcd60e51b815260048101859052601460248201527314d515081314081c99599d5b990819985a5b195960621b6044820152606490fd5b613934565b83546001600160a01b0316855287969401939283019201613914565b60405162461bcd60e51b815260048101839052601e60248201527f4172626974726174696f6e20706572696f64206e6f74206578706972656400006044820152606490fd5b503461035357602036600319011261035357613e5a604082610300936102e08351613da5816140db565b82815282602082015282858201528260608201528260808201528260a08201528260c08201528260e08201528261010082015282610120820152826101408201528261016082015282610180820152826101a0820152826101c0820152826101e08201528261020082015282610220820152826102408201528261026082015282610280820152826102a0820152826102c08201520152600254613e4d600435918210614362565b815260076020522061439d565b6102e06040519160018060a01b03815116835261ffff602082015116602084015260ff6040820151166040840152613e9a60608201516060850190613fa8565b60ff608082015116608084015260a081015160a084015260c081015160c084015260e081015160e08401526101008101516101008401526101208101516101208401526101408101516101408401526101608101516101608401526101808101516101808401526101a08101516101a08401526101c08101516101c08401526101e08101516101e08401526102008101516102008401526102208101516102208401526102408101516102408401526102608101516102608401526102808101516102808401526102a08101516102a08401526102c08101516102c084015201516102e0820152f35b9050346108025781600319360112610802576001546001600160a01b03168152602090f35b906002821015613fb55752565b634e487b7160e01b600052602160045260246000fd5b602435906001600160a01b03821682036112a457565b600435906001600160a01b03821682036112a457565b346112a45760003660031901126112a45760206040516101f48152f35b90815180825260208080930193019160005b828110614034575050505090565b835185529381019392810192600101614026565b60409060031901126112a4576004359060243590565b80548210156140765760005260206000200190600090565b634e487b7160e01b600052603260045260246000fd5b346112a45760003660031901126112a4576020604051670de0b6b3a76400008152f35b6000546001600160a01b031633036140c357565b60405163118cdaa760e01b8152336004820152602490fd5b61030081019081106001600160401b038211176140f757604052565b634e487b7160e01b600052604160045260246000fd5b608081019081106001600160401b038211176140f757604052565b60c081019081106001600160401b038211176140f757604052565b61010081019081106001600160401b038211176140f757604052565b61012081019081106001600160401b038211176140f757604052565b601f909101601f19168101906001600160401b038211908210176140f757604052565b519081151582036112a457565b91908201809211611bd457565b156141bf57565b60405162461bcd60e51b8152602060048201526014602482015273125b98dbdc9c9958dd0814d51508185b5bdd5b9d60621b6044820152606490fd5b6001600160a01b03918216815291166020820152604081019190915260600190565b1561422457565b60405162461bcd60e51b815260206004820152601460248201527310925514881d1c985b9cd9995c8819985a5b195960621b6044820152606490fd5b91908203918211611bd457565b81810292918115918404141715611bd457565b811561428a570490565b634e487b7160e01b600052601260045260246000fd5b6002821015613fb55752565b805460ff60b01b191660b09290921b60ff60b01b16919091179055565b9060ff801983541691151516179055565b8054600160401b8110156140f7576142f79160018201815561405e565b819291549060031b9160018060a01b03809116831b921b1916179055565b80549190600160401b8310156140f757826143389160016143519501815561405e565b90919082549060031b91821b91600019901b1916179055565b565b6000198114611bd45760010190565b1561436957565b60405162461bcd60e51b815260206004820152600c60248201526b125b9d985b1a59081c1bdbdb60a21b6044820152606490fd5b906040516143aa816140db565b6102e06013829460ff815460018060a01b038116865261ffff8160a01c166020870152818160b01c1660408701526143ea828260b81c16606088016142a0565b60c01c166080850152600181015460a0850152600281015460c0850152600381015460e08501526004810154610100850152600581015461012085015260068101546101408501526007810154610160850152600881015461018085015260098101546101a0850152600a8101546101c0850152600b8101546101e0850152600c810154610200850152600d810154610220850152600e810154610240850152600f810154610260850152601081015461028085015260118101546102a085015260128101546102c08501520154910152565b156144c457565b60405162461bcd60e51b815260206004820152600c60248201526b141bdbdb081cd95d1d1b195960a21b6044820152606490fd5b156144ff57565b60405162461bcd60e51b815260206004820152601460248201527310995d1d1a5b99c81c195c9a5bd908195b99195960621b6044820152606490fd5b1561454257565b60405162461bcd60e51b815260206004820152600f60248201526e139bdd081dda1a5d195b1a5cdd1959608a1b6044820152606490fd5b1561458057565b60405162461bcd60e51b815260206004820152600f60248201526e105b1c9958591e481cd95d1d1b1959608a1b6044820152606490fd5b156145be57565b60405162461bcd60e51b8152602060048201526013602482015272115d995b9d081b9bdd08195b991959081e595d606a1b6044820152606490fd5b6001600160401b0381116140f757601f01601f191660200190565b91906040838203126112a4576146298361419e565b60208085015191949091906001600160401b0382116112a4570182601f820112156112a45780519061465a826145f9565b93614668604051958661417b565b8285528383830101116112a45760005b82811061468c575050906000918301015290565b8181018401518582018501528301614678565b6020815191015190602081106146b3575090565b6000199060200360031b1b1690565b3d156146ed573d906146d3826145f9565b916146e1604051938461417b565b82523d6000602084013e565b606090565b6001600160a01b039091168152602081019190915260400190565b6001546040516370a0823160e01b81526001600160a01b0392831660048201529160209183916024918391165afa9081156147e2576000916147b1575b50690a968163f0a57b4000008110156147ab5769043c33c19375648000008110156147a45769010f0cf064dd5920000081101561479d57686c6b935b8bbd4000001115614797576101f490565b6101c290565b5061019090565b5061015e90565b5060fa90565b906020823d82116147da575b816147ca6020938361417b565b810103126103535750513861474a565b3d91506147bd565b6040513d6000823e3d90fd5b156147f557565b60405162461bcd60e51b815260206004820152600b60248201526a2737ba1031b932b0ba37b960a91b6044820152606490fd5b80518210156140765760209160051b010190565b6001600160401b0381116140f75760051b60200190565b9061485d8261483c565b61486a604051918261417b565b828152809261487b601f199161483c565b0190602036910137565b60148110156148af57600a8110156148a957600511156148a457600190565b600290565b50600390565b50600590565b6000526007602052600160406000205460b01c16151590565b6000526007602052600460406000205460b01c16151590565b6000526007602052600860406000205460b01c16151590565b600090808252600760205260018060a01b036040832054168252601b60205260408220818352601c602052604083205490805491828110806149f4575b614949575b5050505050565b600019928084019081116149e0578082036149ae575b50508054801561499a57820191614976838361405e565b909182549160031b1b19169055558152601c60205260408120553880808080614942565b634e487b7160e01b85526031600452602485fd5b6149b8908361405e565b90549060031b1c6149cd81614338848661405e565b8552601c6020526040852055388061495f565b634e487b7160e01b86526011600452602486fd5b5083614a00828461405e565b90549060031b1c1461493d56feae1dd3f2d7e1c58d3a89e27565ac6732a48cc3a0ee34874f1749e6fcca59730886acb9671870fda5e7ea8aa500f96625102d6f2e5a2ee12d3ca0fb612850fa29d43c77f044c1f8bc6adf6676b4ce17edda35ef8ee63f154568826c0ecb3c6bf3c733c2813826d31c105dbff518b08258e9e7aeb3eb1c7c7f642d77696faf501d24b5efa61dd1cfc659205a97fb8ed868f3cb8c81922bab2b96423e5de1de2cb78be0079c531659141344cd1fd0a4f28419497f9722a3daafe3b4186f6b6457e0a264697066735822122045aad2a25ceffd93d77ac01de99ed041a394358c067ae9205383abfe1153ab6064736f6c63430008140033",
  "linkReferences": {},
  "deployedLinkReferences": {}
}