{
  "_format": "hh-sol-artifact-1",
  "contractName": "BitredictPoolFactory",
  "sourceName": "contracts/BitredictPoolFactory.sol",
  "abi": [
    {
      "inputs": [
        {
          "internalType": "address",
          "name": "_poolCore",
          "type": "address"
        },
        {
          "internalType": "address",
          "name": "_comboPools",
          "type": "address"
        },
        {
          "internalType": "address payable",
          "name": "_boostSystem",
          "type": "address"
        },
        {
          "internalType": "address",
          "name": "_bitrToken",
          "type": "address"
        }
      ],
      "stateMutability": "nonpayable",
      "type": "constructor"
    },
    {
      "inputs": [
        {
          "internalType": "address",
          "name": "owner",
          "type": "address"
        }
      ],
      "name": "OwnableInvalidOwner",
      "type": "error"
    },
    {
      "inputs": [
        {
          "internalType": "address",
          "name": "account",
          "type": "address"
        }
      ],
      "name": "OwnableUnauthorizedAccount",
      "type": "error"
    },
    {
      "inputs": [],
      "name": "ReentrancyGuardReentrantCall",
      "type": "error"
    },
    {
      "anonymous": false,
      "inputs": [
        {
          "indexed": true,
          "internalType": "uint256",
          "name": "comboPoolId",
          "type": "uint256"
        },
        {
          "indexed": true,
          "internalType": "address",
          "name": "creator",
          "type": "address"
        },
        {
          "indexed": false,
          "internalType": "enum BoostTier",
          "name": "boostTier",
          "type": "uint8"
        },
        {
          "indexed": false,
          "internalType": "uint256",
          "name": "totalCost",
          "type": "uint256"
        }
      ],
      "name": "ComboPoolCreatedWithBoost",
      "type": "event"
    },
    {
      "anonymous": false,
      "inputs": [
        {
          "indexed": false,
          "internalType": "string",
          "name": "contractName",
          "type": "string"
        },
        {
          "indexed": false,
          "internalType": "address",
          "name": "oldAddress",
          "type": "address"
        },
        {
          "indexed": false,
          "internalType": "address",
          "name": "newAddress",
          "type": "address"
        }
      ],
      "name": "ContractUpgraded",
      "type": "event"
    },
    {
      "anonymous": false,
      "inputs": [
        {
          "indexed": false,
          "internalType": "uint256",
          "name": "totalPools",
          "type": "uint256"
        },
        {
          "indexed": false,
          "internalType": "uint256",
          "name": "totalVolume",
          "type": "uint256"
        },
        {
          "indexed": false,
          "internalType": "uint256",
          "name": "totalBoosted",
          "type": "uint256"
        }
      ],
      "name": "FactoryAnalyticsUpdated",
      "type": "event"
    },
    {
      "anonymous": false,
      "inputs": [
        {
          "indexed": true,
          "internalType": "address",
          "name": "previousOwner",
          "type": "address"
        },
        {
          "indexed": true,
          "internalType": "address",
          "name": "newOwner",
          "type": "address"
        }
      ],
      "name": "OwnershipTransferred",
      "type": "event"
    },
    {
      "anonymous": false,
      "inputs": [
        {
          "indexed": true,
          "internalType": "uint256",
          "name": "poolId",
          "type": "uint256"
        },
        {
          "indexed": true,
          "internalType": "address",
          "name": "creator",
          "type": "address"
        },
        {
          "indexed": false,
          "internalType": "enum BoostTier",
          "name": "boostTier",
          "type": "uint8"
        },
        {
          "indexed": false,
          "internalType": "uint256",
          "name": "totalCost",
          "type": "uint256"
        }
      ],
      "name": "PoolCreatedWithBoost",
      "type": "event"
    },
    {
      "inputs": [
        {
          "internalType": "bytes32[]",
          "name": "_predictedOutcomes",
          "type": "bytes32[]"
        },
        {
          "internalType": "uint256[]",
          "name": "_odds",
          "type": "uint256[]"
        },
        {
          "internalType": "uint256[]",
          "name": "_creatorStakes",
          "type": "uint256[]"
        },
        {
          "internalType": "uint256[]",
          "name": "",
          "type": "uint256[]"
        },
        {
          "internalType": "uint256[]",
          "name": "",
          "type": "uint256[]"
        },
        {
          "internalType": "string[]",
          "name": "",
          "type": "string[]"
        },
        {
          "internalType": "string[]",
          "name": "",
          "type": "string[]"
        },
        {
          "internalType": "bool",
          "name": "",
          "type": "bool"
        }
      ],
      "name": "batchCreatePools",
      "outputs": [
        {
          "internalType": "uint256[]",
          "name": "",
          "type": "uint256[]"
        }
      ],
      "stateMutability": "payable",
      "type": "function"
    },
    {
      "inputs": [],
      "name": "bitrToken",
      "outputs": [
        {
          "internalType": "contract IERC20",
          "name": "",
          "type": "address"
        }
      ],
      "stateMutability": "view",
      "type": "function"
    },
    {
      "inputs": [],
      "name": "boostSystem",
      "outputs": [
        {
          "internalType": "contract BitredictBoostSystem",
          "name": "",
          "type": "address"
        }
      ],
      "stateMutability": "view",
      "type": "function"
    },
    {
      "inputs": [
        {
          "internalType": "address",
          "name": "creator",
          "type": "address"
        },
        {
          "internalType": "uint256",
          "name": "poolId",
          "type": "uint256"
        },
        {
          "internalType": "enum BoostTier",
          "name": "boostTier",
          "type": "uint8"
        },
        {
          "internalType": "bool",
          "name": "useBitr",
          "type": "bool"
        }
      ],
      "name": "canCreatePoolWithBoost",
      "outputs": [
        {
          "internalType": "bool",
          "name": "canCreate",
          "type": "bool"
        },
        {
          "internalType": "string",
          "name": "reason",
          "type": "string"
        }
      ],
      "stateMutability": "view",
      "type": "function"
    },
    {
      "inputs": [],
      "name": "comboPools",
      "outputs": [
        {
          "internalType": "contract BitredictComboPools",
          "name": "",
          "type": "address"
        }
      ],
      "stateMutability": "view",
      "type": "function"
    },
    {
      "inputs": [
        {
          "components": [
            {
              "internalType": "bytes32",
              "name": "marketId",
              "type": "bytes32"
            },
            {
              "internalType": "bytes32",
              "name": "expectedOutcome",
              "type": "bytes32"
            },
            {
              "internalType": "bool",
              "name": "resolved",
              "type": "bool"
            },
            {
              "internalType": "bytes32",
              "name": "actualOutcome",
              "type": "bytes32"
            },
            {
              "internalType": "string",
              "name": "description",
              "type": "string"
            },
            {
              "internalType": "uint16",
              "name": "odds",
              "type": "uint16"
            }
          ],
          "internalType": "struct BitredictComboPools.OutcomeCondition[]",
          "name": "conditions",
          "type": "tuple[]"
        },
        {
          "internalType": "uint16",
          "name": "combinedOdds",
          "type": "uint16"
        },
        {
          "internalType": "uint256",
          "name": "creatorStake",
          "type": "uint256"
        },
        {
          "internalType": "uint256",
          "name": "earliestEventStart",
          "type": "uint256"
        },
        {
          "internalType": "uint256",
          "name": "latestEventEnd",
          "type": "uint256"
        },
        {
          "internalType": "string",
          "name": "category",
          "type": "string"
        },
        {
          "internalType": "uint256",
          "name": "maxBetPerUser",
          "type": "uint256"
        },
        {
          "internalType": "bool",
          "name": "useBitr",
          "type": "bool"
        },
        {
          "internalType": "enum BoostTier",
          "name": "_boostTier",
          "type": "uint8"
        }
      ],
      "name": "createComboPoolWithBoost",
      "outputs": [
        {
          "internalType": "uint256",
          "name": "comboPoolId",
          "type": "uint256"
        }
      ],
      "stateMutability": "payable",
      "type": "function"
    },
    {
      "inputs": [
        {
          "internalType": "bytes32",
          "name": "_predictedOutcome",
          "type": "bytes32"
        },
        {
          "internalType": "uint256",
          "name": "_odds",
          "type": "uint256"
        },
        {
          "internalType": "uint256",
          "name": "_creatorStake",
          "type": "uint256"
        },
        {
          "internalType": "uint256",
          "name": "_eventStartTime",
          "type": "uint256"
        },
        {
          "internalType": "uint256",
          "name": "_eventEndTime",
          "type": "uint256"
        },
        {
          "internalType": "bytes32",
          "name": "_leagueHash",
          "type": "bytes32"
        },
        {
          "internalType": "bytes32",
          "name": "_categoryHash",
          "type": "bytes32"
        },
        {
          "internalType": "bytes32",
          "name": "_regionHash",
          "type": "bytes32"
        },
        {
          "internalType": "bytes32",
          "name": "_homeTeamHash",
          "type": "bytes32"
        },
        {
          "internalType": "bytes32",
          "name": "_awayTeamHash",
          "type": "bytes32"
        },
        {
          "internalType": "bytes32",
          "name": "_titleHash",
          "type": "bytes32"
        },
        {
          "internalType": "bool",
          "name": "_isPrivate",
          "type": "bool"
        },
        {
          "internalType": "uint256",
          "name": "_maxBetPerUser",
          "type": "uint256"
        },
        {
          "internalType": "bool",
          "name": "_useBitr",
          "type": "bool"
        },
        {
          "internalType": "enum OracleType",
          "name": "_oracleType",
          "type": "uint8"
        },
        {
          "internalType": "bytes32",
          "name": "_marketId",
          "type": "bytes32"
        },
        {
          "internalType": "enum MarketType",
          "name": "_marketType",
          "type": "uint8"
        },
        {
          "internalType": "enum BoostTier",
          "name": "_boostTier",
          "type": "uint8"
        }
      ],
      "name": "createPoolWithBoost",
      "outputs": [
        {
          "internalType": "uint256",
          "name": "poolId",
          "type": "uint256"
        }
      ],
      "stateMutability": "payable",
      "type": "function"
    },
    {
      "inputs": [],
      "name": "emergencyPause",
      "outputs": [],
      "stateMutability": "nonpayable",
      "type": "function"
    },
    {
      "inputs": [],
      "name": "emergencyWithdraw",
      "outputs": [],
      "stateMutability": "nonpayable",
      "type": "function"
    },
    {
      "inputs": [],
      "name": "factoryAnalytics",
      "outputs": [
        {
          "internalType": "uint256",
          "name": "totalPoolsCreated",
          "type": "uint256"
        },
        {
          "internalType": "uint256",
          "name": "totalComboPoolsCreated",
          "type": "uint256"
        },
        {
          "internalType": "uint256",
          "name": "totalVolumeProcessed",
          "type": "uint256"
        },
        {
          "internalType": "uint256",
          "name": "totalBoostedPools",
          "type": "uint256"
        },
        {
          "internalType": "uint256",
          "name": "averagePoolSize",
          "type": "uint256"
        },
        {
          "internalType": "uint256",
          "name": "factoryFees",
          "type": "uint256"
        },
        {
          "internalType": "uint256",
          "name": "lastUpdated",
          "type": "uint256"
        }
      ],
      "stateMutability": "view",
      "type": "function"
    },
    {
      "inputs": [],
      "name": "getActivePoolsWithBoosts",
      "outputs": [
        {
          "internalType": "uint256[]",
          "name": "poolIds",
          "type": "uint256[]"
        },
        {
          "internalType": "enum BoostTier[]",
          "name": "boostTiers",
          "type": "uint8[]"
        }
      ],
      "stateMutability": "view",
      "type": "function"
    },
    {
      "inputs": [
        {
          "internalType": "uint256",
          "name": "comboPoolId",
          "type": "uint256"
        }
      ],
      "name": "getAllComboPoolData",
      "outputs": [
        {
          "components": [
            {
              "internalType": "address",
              "name": "creator",
              "type": "address"
            },
            {
              "internalType": "uint256",
              "name": "creatorStake",
              "type": "uint256"
            },
            {
              "internalType": "uint256",
              "name": "totalCreatorSideStake",
              "type": "uint256"
            },
            {
              "internalType": "uint256",
              "name": "maxBettorStake",
              "type": "uint256"
            },
            {
              "internalType": "uint256",
              "name": "totalBettorStake",
              "type": "uint256"
            },
            {
              "internalType": "uint16",
              "name": "totalOdds",
              "type": "uint16"
            },
            {
              "internalType": "uint8",
              "name": "flags",
              "type": "uint8"
            },
            {
              "internalType": "uint8",
              "name": "conditionCount",
              "type": "uint8"
            },
            {
              "internalType": "uint256",
              "name": "eventStartTime",
              "type": "uint256"
            },
            {
              "internalType": "uint256",
              "name": "eventEndTime",
              "type": "uint256"
            },
            {
              "internalType": "uint256",
              "name": "bettingEndTime",
              "type": "uint256"
            },
            {
              "internalType": "uint256",
              "name": "resultTimestamp",
              "type": "uint256"
            },
            {
              "internalType": "bytes32",
              "name": "category",
              "type": "bytes32"
            },
            {
              "internalType": "uint256",
              "name": "maxBetPerUser",
              "type": "uint256"
            },
            {
              "components": [
                {
                  "internalType": "bytes32",
                  "name": "marketId",
                  "type": "bytes32"
                },
                {
                  "internalType": "bytes32",
                  "name": "expectedOutcome",
                  "type": "bytes32"
                },
                {
                  "internalType": "bool",
                  "name": "resolved",
                  "type": "bool"
                },
                {
                  "internalType": "bytes32",
                  "name": "actualOutcome",
                  "type": "bytes32"
                },
                {
                  "internalType": "string",
                  "name": "description",
                  "type": "string"
                },
                {
                  "internalType": "uint16",
                  "name": "odds",
                  "type": "uint16"
                }
              ],
              "internalType": "struct BitredictComboPools.OutcomeCondition[]",
              "name": "conditions",
              "type": "tuple[]"
            }
          ],
          "internalType": "struct BitredictComboPools.ComboPool",
          "name": "comboPool",
          "type": "tuple"
        },
        {
          "internalType": "bool",
          "name": "isBoosted",
          "type": "bool"
        },
        {
          "internalType": "enum BoostTier",
          "name": "boostTier",
          "type": "uint8"
        },
        {
          "internalType": "uint256",
          "name": "boostExpiry",
          "type": "uint256"
        }
      ],
      "stateMutability": "view",
      "type": "function"
    },
    {
      "inputs": [
        {
          "internalType": "uint256",
          "name": "poolId",
          "type": "uint256"
        }
      ],
      "name": "getAllPoolData",
      "outputs": [
        {
          "components": [
            {
              "internalType": "address",
              "name": "creator",
              "type": "address"
            },
            {
              "internalType": "uint16",
              "name": "odds",
              "type": "uint16"
            },
            {
              "internalType": "uint8",
              "name": "flags",
              "type": "uint8"
            },
            {
              "internalType": "enum OracleType",
              "name": "oracleType",
              "type": "uint8"
            },
            {
              "internalType": "enum MarketType",
              "name": "marketType",
              "type": "uint8"
            },
            {
              "internalType": "uint8",
              "name": "reserved",
              "type": "uint8"
            },
            {
              "internalType": "uint256",
              "name": "creatorStake",
              "type": "uint256"
            },
            {
              "internalType": "uint256",
              "name": "totalCreatorSideStake",
              "type": "uint256"
            },
            {
              "internalType": "uint256",
              "name": "maxBettorStake",
              "type": "uint256"
            },
            {
              "internalType": "uint256",
              "name": "totalBettorStake",
              "type": "uint256"
            },
            {
              "internalType": "bytes32",
              "name": "predictedOutcome",
              "type": "bytes32"
            },
            {
              "internalType": "bytes32",
              "name": "result",
              "type": "bytes32"
            },
            {
              "internalType": "uint256",
              "name": "eventStartTime",
              "type": "uint256"
            },
            {
              "internalType": "uint256",
              "name": "eventEndTime",
              "type": "uint256"
            },
            {
              "internalType": "uint256",
              "name": "bettingEndTime",
              "type": "uint256"
            },
            {
              "internalType": "uint256",
              "name": "resultTimestamp",
              "type": "uint256"
            },
            {
              "internalType": "uint256",
              "name": "arbitrationDeadline",
              "type": "uint256"
            },
            {
              "internalType": "uint256",
              "name": "maxBetPerUser",
              "type": "uint256"
            },
            {
              "internalType": "bytes32",
              "name": "league",
              "type": "bytes32"
            },
            {
              "internalType": "bytes32",
              "name": "category",
              "type": "bytes32"
            },
            {
              "internalType": "bytes32",
              "name": "region",
              "type": "bytes32"
            },
            {
              "internalType": "bytes32",
              "name": "homeTeam",
              "type": "bytes32"
            },
            {
              "internalType": "bytes32",
              "name": "awayTeam",
              "type": "bytes32"
            },
            {
              "internalType": "bytes32",
              "name": "title",
              "type": "bytes32"
            },
            {
              "internalType": "string",
              "name": "marketId",
              "type": "string"
            }
          ],
          "internalType": "struct BitredictPoolCore.Pool",
          "name": "pool",
          "type": "tuple"
        },
        {
          "internalType": "bool",
          "name": "isBoosted",
          "type": "bool"
        },
        {
          "internalType": "enum BoostTier",
          "name": "boostTier",
          "type": "uint8"
        },
        {
          "internalType": "uint256",
          "name": "boostExpiry",
          "type": "uint256"
        }
      ],
      "stateMutability": "view",
      "type": "function"
    },
    {
      "inputs": [],
      "name": "getContractAddresses",
      "outputs": [
        {
          "internalType": "address",
          "name": "poolCoreAddress",
          "type": "address"
        },
        {
          "internalType": "address",
          "name": "comboPoolsAddress",
          "type": "address"
        },
        {
          "internalType": "address",
          "name": "boostSystemAddress",
          "type": "address"
        },
        {
          "internalType": "address",
          "name": "bitrTokenAddress",
          "type": "address"
        }
      ],
      "stateMutability": "view",
      "type": "function"
    },
    {
      "inputs": [
        {
          "internalType": "address",
          "name": "creator",
          "type": "address"
        }
      ],
      "name": "getCreatorAnalytics",
      "outputs": [
        {
          "internalType": "uint256",
          "name": "totalPoolsCreated",
          "type": "uint256"
        },
        {
          "internalType": "uint256",
          "name": "successfulPools",
          "type": "uint256"
        },
        {
          "internalType": "uint256",
          "name": "totalVolumeGenerated",
          "type": "uint256"
        },
        {
          "internalType": "uint256",
          "name": "averagePoolSize",
          "type": "uint256"
        },
        {
          "internalType": "uint256",
          "name": "reputationScore",
          "type": "uint256"
        },
        {
          "internalType": "uint256",
          "name": "winRate",
          "type": "uint256"
        },
        {
          "internalType": "uint256",
          "name": "totalEarnings",
          "type": "uint256"
        },
        {
          "internalType": "uint256",
          "name": "activePoolsCount",
          "type": "uint256"
        },
        {
          "internalType": "uint256[]",
          "name": "creatorPools",
          "type": "uint256[]"
        },
        {
          "internalType": "uint256[]",
          "name": "creatorComboPools",
          "type": "uint256[]"
        },
        {
          "internalType": "uint256",
          "name": "totalBoostedPools",
          "type": "uint256"
        }
      ],
      "stateMutability": "view",
      "type": "function"
    },
    {
      "inputs": [],
      "name": "getFactoryAnalytics",
      "outputs": [
        {
          "components": [
            {
              "internalType": "uint256",
              "name": "totalPoolsCreated",
              "type": "uint256"
            },
            {
              "internalType": "uint256",
              "name": "totalComboPoolsCreated",
              "type": "uint256"
            },
            {
              "internalType": "uint256",
              "name": "totalVolumeProcessed",
              "type": "uint256"
            },
            {
              "internalType": "uint256",
              "name": "totalBoostedPools",
              "type": "uint256"
            },
            {
              "internalType": "uint256",
              "name": "averagePoolSize",
              "type": "uint256"
            },
            {
              "internalType": "uint256",
              "name": "factoryFees",
              "type": "uint256"
            },
            {
              "internalType": "uint256",
              "name": "lastUpdated",
              "type": "uint256"
            }
          ],
          "internalType": "struct BitredictPoolFactory.FactoryAnalytics",
          "name": "",
          "type": "tuple"
        }
      ],
      "stateMutability": "view",
      "type": "function"
    },
    {
      "inputs": [],
      "name": "getGlobalAnalytics",
      "outputs": [
        {
          "internalType": "uint256",
          "name": "totalPools",
          "type": "uint256"
        },
        {
          "internalType": "uint256",
          "name": "totalVolume",
          "type": "uint256"
        },
        {
          "internalType": "uint256",
          "name": "averagePoolSize",
          "type": "uint256"
        },
        {
          "internalType": "uint256",
          "name": "lastUpdated",
          "type": "uint256"
        },
        {
          "components": [
            {
              "internalType": "uint256",
              "name": "totalPoolsCreated",
              "type": "uint256"
            },
            {
              "internalType": "uint256",
              "name": "totalComboPoolsCreated",
              "type": "uint256"
            },
            {
              "internalType": "uint256",
              "name": "totalVolumeProcessed",
              "type": "uint256"
            },
            {
              "internalType": "uint256",
              "name": "totalBoostedPools",
              "type": "uint256"
            },
            {
              "internalType": "uint256",
              "name": "averagePoolSize",
              "type": "uint256"
            },
            {
              "internalType": "uint256",
              "name": "factoryFees",
              "type": "uint256"
            },
            {
              "internalType": "uint256",
              "name": "lastUpdated",
              "type": "uint256"
            }
          ],
          "internalType": "struct BitredictPoolFactory.FactoryAnalytics",
          "name": "factoryStats",
          "type": "tuple"
        },
        {
          "internalType": "uint256",
          "name": "totalBoosted",
          "type": "uint256"
        },
        {
          "internalType": "uint256",
          "name": "totalComboVolume",
          "type": "uint256"
        }
      ],
      "stateMutability": "view",
      "type": "function"
    },
    {
      "inputs": [
        {
          "internalType": "uint256",
          "name": "_creatorStake",
          "type": "uint256"
        },
        {
          "internalType": "bool",
          "name": "_useBitr",
          "type": "bool"
        },
        {
          "internalType": "enum BoostTier",
          "name": "_boostTier",
          "type": "uint8"
        }
      ],
      "name": "getPoolCreationCost",
      "outputs": [
        {
          "internalType": "uint256",
          "name": "totalCost",
          "type": "uint256"
        },
        {
          "internalType": "uint256",
          "name": "creationFee",
          "type": "uint256"
        },
        {
          "internalType": "uint256",
          "name": "boostCost",
          "type": "uint256"
        }
      ],
      "stateMutability": "view",
      "type": "function"
    },
    {
      "inputs": [],
      "name": "owner",
      "outputs": [
        {
          "internalType": "address",
          "name": "",
          "type": "address"
        }
      ],
      "stateMutability": "view",
      "type": "function"
    },
    {
      "inputs": [],
      "name": "poolCore",
      "outputs": [
        {
          "internalType": "contract BitredictPoolCore",
          "name": "",
          "type": "address"
        }
      ],
      "stateMutability": "view",
      "type": "function"
    },
    {
      "inputs": [],
      "name": "renounceOwnership",
      "outputs": [],
      "stateMutability": "nonpayable",
      "type": "function"
    },
    {
      "inputs": [
        {
          "internalType": "address",
          "name": "newOwner",
          "type": "address"
        }
      ],
      "name": "transferOwnership",
      "outputs": [],
      "stateMutability": "nonpayable",
      "type": "function"
    },
    {
      "inputs": [
        {
          "internalType": "address",
          "name": "_newPoolCore",
          "type": "address"
        },
        {
          "internalType": "address",
          "name": "_newComboPools",
          "type": "address"
        },
        {
          "internalType": "address payable",
          "name": "_newBoostSystem",
          "type": "address"
        }
      ],
      "name": "upgradeContracts",
      "outputs": [],
      "stateMutability": "nonpayable",
      "type": "function"
    },
    {
      "stateMutability": "payable",
      "type": "receive"
    }
  ],
  "bytecode": "0x6080346200025757601f6200334d38819003918201601f191683019291906001600160401b038411838510176200025c5781608092849260409687528339810103126200025757620000518162000272565b6200005f6020830162000272565b8383015190926001600160a01b0380831692909190839003620002575760606200008a910162000272565b9033156200023f57600054948160018060a01b0319953387891617600055885197823391167f8be0079c531659141344cd1fd0a4f28419497f9722a3daafe3b4186f6b6457e0600080a36001805516958615620001fd57508116918215620001b95783156200017557169384156200013157836002541617600255826003541617600355816004541617600455600554161760055542600c55516130c59081620002888239f35b855162461bcd60e51b815260206004820152601a60248201527f496e76616c6964204249545220746f6b656e20616464726573730000000000006044820152606490fd5b865162461bcd60e51b815260206004820152601c60248201527f496e76616c696420626f6f73742073797374656d2061646472657373000000006044820152606490fd5b865162461bcd60e51b815260206004820152601b60248201527f496e76616c696420636f6d626f20706f6f6c73206164647265737300000000006044820152606490fd5b62461bcd60e51b815260206004820152601960248201527f496e76616c696420706f6f6c20636f72652061646472657373000000000000006044820152606490fd5b8551631e4fbdf760e01b815260006004820152602490fd5b600080fd5b634e487b7160e01b600052604160045260246000fd5b51906001600160a01b0382168203620002575756fe608080604052600436101561001d575b50361561001b57600080fd5b005b600090813560e01c90816301b708c21461264a5750806335ca6876146125c057806338cac0c21461259757806351858e271461257b5780635eec742b14612548578063715018a61461250057806375ff84b61461224d57806382b80393146121fc57806387ce953e146121d35780638da5cb5b146121ac5780638db8a21014611cea578063953874d214611ca2578063bc9c431814611acd578063bea52304146114b8578063c407be0414610e03578063db2e21bc14610c6a578063e8a0323a14610aba578063e8e791cd14610a56578063f2d366fc146108b1578063f2fde38b1461083d578063f3c1c3be1461067e578063f6915af5146106555763f6e339c30361000f573461043c57602036600319011261043c5760606103006040516101458161288d565b83815283602082015283604082015283838201528360808201528360a08201528360c08201528360e08201528361010082015283610120820152836101408201528361016082015283610180820152836101a0820152836101c0820152836101e08201528361020082015283610220820152836102408201528361026082015283610280820152836102a0820152836102c0820152836102e0820152015260248160018060a01b03600254166040519283809263068bcd8d60e01b825260043560048301525afa90811561048f57829161049a575b5060018060a01b0360045416916040519263fd12153960e01b84526004356004850152604084602481845afa90811561048f5782948392610453575b50602060249160405192838092634f02360760e01b825260043560048301525afa928315610447578093610400575b50506103f76103e5946040519586956080875260018060a01b03815116608088015261ffff60208201511660a088015260ff60408201511660c08801526102d4606082015160e0890190612a59565b6102e76080820151610100890190612a66565b60ff60a08201511661012088015260c081015161014088015260e08101516101608801526101008101516101808801526101208101516101a08801526101408101516101c08801526101608101516101e08801526101808101516102008801526101a08101516102208801526101c08101516102408801526101e08101516102608801526102008101516102808801526102208101516102a08801526102408101516102c08801526102608101516102e08801526102808101516103008801526103006102a08201519161032092838a01526102c08101516103408a01526102e08101516103608a01520151906103808801526103a0870190612747565b9315156020860152604085019061280a565b60608301520390f35b909492506020853d60201161043f575b8161041d602093836128df565b8101031261043c57506103f76104356103e595612b05565b9294610285565b80fd5b3d9150610410565b604051903d90823e3d90fd5b60209550602491925061047d9060403d604011610488575b61047581836128df565b810190612cb5565b959095929150610256565b503d61046b565b6040513d84823e3d90fd5b90503d8083833e6104ab81836128df565b6020828281010312610651578151916001600160401b03831161064d57610320838201838301031261064d57604051926104e48461288d565b6104ef818301612c3f565b84526104ff602082840101612c53565b6020850152610512604082840101612c62565b604085015260608183010151600281101561064957606085015260808183010151600881101561064957608085015261054f60a082840101612c62565b60a085015281810160c0818101519086015260e08082015190860152610100808201519086015261012080820151908601526101408082015190860152610160808201519086015261018080820151908601526101a080820151908601526101c080820151908601526101e08082015190860152610200808201519086015261022080820151908601526102408082015190860152610260808201519086015261028080820151908601526102a080820151908601526102c080820151908601526102e080820151908601526103000151906001600160401b0382116106495761063d938301920101612c70565b6103008201523861021a565b8580fd5b8380fd5b8280fd5b503461043c578060031936011261043c576004546040516001600160a01b039091168152602090f35b503461043c578060031936011261043c57610697612d87565b50600254604051636b4169c360e01b81526001600160a01b039290916080908390600490829087165afa801561083057819282839184936107e7575b5090600492916106e1612dbf565b9660e08186541660405196878092639f010deb851b82525afa9485156107dc5786956107a7575b5060a060049160035416604051928380926325bcec5d60e11b82525afa95861561044757809661076c575b5050916101a0969161075e936040519788526020880152604087015260608601526080850190612699565b610160830152610180820152f35b9091955060a0823d821161079f575b8161078860a093836128df565b8101031261043c575060200151938161075e610733565b3d915061077b565b90945060e0813d60e0116107d4575b816107c360e093836128df565b8101031261064957519360a0610708565b3d91506107b6565b6040513d88823e3d90fd5b94505050506080823d8211610828575b81610804608093836128df565b8101031261043c5781516020830151604084015160609094015191939060046106d3565b3d91506107f7565b50604051903d90823e3d90fd5b503461043c57602036600319011261043c576108576126da565b61085f612a73565b6001600160a01b039081169081156108985782546001600160a01b0319811683178455166000805160206130508339815191528380a380f35b604051631e4fbdf760e01b815260048101849052602490fd5b503461043c578060031936011261043c576002546040516323b020d560e21b8152916001600160a01b039181908490600490829086165afa928315610830578193610a32575b50829192519061091f61090983612902565b9261091760405194856128df565b808452612902565b6020939083850190601f1901368237829560045416955b82518110156109ce576109498184612d5d565b516040519063fd12153960e01b82526004820152602460408282818c5afa9182156107dc5786926109ac575b506109808388612d5d565b90600483101561099a57505261099590612d4e565b610936565b634e487b7160e01b8752602160045286fd5b6109c691925060403d6040116104885761047581836128df565b509038610975565b50906109ec91838587806040519687966040885260408801906126f0565b928684038288015251928381520193925b828110610a0c57505050500390f35b9193839550908082610a2260019483975161280a565b01950191019185949391926109fd565b610a4f9193503d8085833e610a4781836128df565b810190612cd5565b91386108f7565b503461043c57608036600319011261043c57610a706126da565b60443560048110156106515760643591821515830361064d57610a97935060243590612e03565b90610ab660405192839215158352604060208401526040830190612747565b0390f35b503461043c57606080600319360112610c6657610ad56126da565b906001600160a01b039060243582811690819003610c625760443593838516809503610649578390610b05612a73565b1680151580610c54575b610bff575b5080151580610bf1575b610b9a575b5082151580610b8c575b610b35578380f35b6000805160206130708339815191529260a09260045482600180871b0319821617600455600b604051948086528501526a426f6f737453797374656d60a81b60808501521660208301526040820152a13880808380f35b508160045416831415610b2d565b60a0600080516020613070833981519152916003549080600180851b03198316176003558560405192868452600a8785015269436f6d626f506f6f6c7360b01b60808501521660208301526040820152a138610b23565b508260035416811415610b1e565b60a0600080516020613070833981519152916002549080600180851b0319831617600255866040519287845260088885015267506f6f6c436f726560c01b60808501521660208301526040820152a138610b14565b508360025416811415610b0f565b8480fd5b5080fd5b503461043c578060031936011261043c57610c83612a73565b6005546040516370a0823160e01b8152306004820152906020906001600160a01b03908490479084908690602490829087165afa94851561048f578295610dd4575b5080610d55575b505082610cd7578380f35b610d039281839260055416908654168660405180978195829463a9059cbb60e01b845260048401612b77565b03925af18015610d4a57610d1657808380f35b81813d8311610d43575b610d2a81836128df565b81010312610c6657610d3b90612b05565b503880808380f35b503d610d20565b6040513d85823e3d90fd5b81808092858254165af13d15610dcf573d610d6f81612977565b90610d7d60405192836128df565b815285843d92013e5b15610d92578338610ccc565b60405162461bcd60e51b815260048101839052601560248201527414d515081dda5d1a191c985dd85b0819985a5b1959605a1b6044820152606490fd5b610d86565b9094508381813d8311610dfc575b610dec81836128df565b81010312610c6657519338610cc5565b503d610de2565b5061012036600319011261043c576004356001600160401b03808211610651573660238301121561065157816004013591610e3d83612902565b92610e4b60405194856128df565b8084526024602085019160051b830101913683116106495760248101915b83831061140f5750505050826024359161ffff83168303610c665760a435908111610c6657610e9c903690600401612992565b91610ea561266f565b93600461010435101561065157610eba612bd8565b8415611401576802b5e3af16b18800005b61010435156113fa57610ee061010435612fe4565b925b84610f0185610efc6044356001600160481b038716612a9f565b612a9f565b9688156113e1576005546040516323b872dd60e01b81529260209184916001600160a01b0390911690829081610f3c8e303360048501612b12565b03925af19182156113955787926113a0575b50610f5b610fa492612b34565b6005546003546020916001600160a01b039182169116610f866044356001600160481b038916612a9f565b918a60405180978195829463095ea7b360e01b845260048401612b77565b03925af1918215611395578792611349575b50916020939161ffff935b805190860120958a1561127b5760035460405163fe409c9f60e01b815261010060048201529788966001600160a01b0390921695508694859390929061100c9061010486019061276c565b9216602484015260443560448401526064356064840152608435608484015260a483015260c43560c48301528b151560e483015203925af1908115610d4a578391611249575b50935b6101043561115f575b50505061106c600754612d4e565b92836007556101043561114c575b61109c61108b604435600854612a9f565b948560085542600c55600654612a9f565b9081158015611118575b5050602093600080516020613030833981519152916110cd60095460405193849384612683565b0390a1604051906110e1826101043561280a565b83820152817f488e780d64cfe3a3d2b29010be751f8a452e1be3ecfa703e91926e51b6ab751f60403393a360018055604051908152f35b6111385750808404600a55836000805160206130308339815191526110a6565b634e487b7160e01b81526012600452602490fd5b611157600954612d4e565b60095561107a565b156111d95761116f813414612b92565b6004546001600160a01b0316803b1561065157829060446040518094819363ffd230c960e01b83528960048401526111ad602484016101043561280a565b5af1801561048f576111c5575b50505b82388061105e565b6111ce9061287a565b6106515782386111ba565b6004549091906001600160a01b0316803b15610c665760446040518094819363ffd230c960e01b8352886004840152611218602484016101043561280a565b5af1801561123e5761122b575b506111bd565b6112379093919361287a565b9138611225565b6040513d86823e3d90fd5b90506020813d602011611273575b81611264602093836128df565b81010312610651575138611052565b3d9150611257565b6003546001600160a01b0316936112cc9392506112a490604435906001600160481b0316612a9f565b916040519788968795869463fe409c9f60e01b8652610100600487015261010486019061276c565b9216602484015260443560448401526064356064840152608435608484015260a483015260c43560c48301528960e483015203925af1908115610d4a578391611317575b5093611055565b90506020813d602011611341575b81611332602093836128df565b81010312610651575138611310565b3d9150611325565b939150916020843d60201161138d575b81611366602093836128df565b81010312611389578661ffff9361137e602096612b05565b509193509193610fb6565b8680fd5b3d9150611359565b6040513d89823e3d90fd5b91506020823d6020116113d9575b816113bb602093836128df565b8101031261138957610f5b6113d2610fa493612b05565b9250610f4e565b3d91506113ae565b916020939161ffff936113f58a3414612ac2565b610fc1565b8392610ee2565b670de0b6b3a7640000610ecb565b82358581116114b45782019060c060231983360301126114b457604051916114368361285f565b6024810135835260448101356020840152606481013580151581036114b05760408401526084810135606084015260a4810135908782116114b05761148360c49260243691840101612992565b608085015201359061ffff821682036114ac57826020939260a085940152815201920191610e69565b8880fd5b8980fd5b8780fd5b5061024036600319011261043c57610164358015158103610c66576101a43515156101a43503610c665760026101c4351015610c66576008610204351015610c66576004610224351015610c665761150e612bd8565b6101a43515611abf576802b5e3af16b18800005b6102243515611ab85761153761022435612fe4565b915b61155283610efc6044356001600160481b038616612a9f565b916101a43515611aa8576005546040516323b872dd60e01b81529060209082906001600160a01b031681898161158d8a303360048501612b12565b03925af180156107dc578690611a6d575b6115a89150612b34565b6005546002546115f5916020916001600160a01b0390811691166115d76044356001600160481b038716612a9f565b918960405180968195829463095ea7b360e01b845260048401612b77565b03925af180156107dc57611a34575b505b6101a4351561190d575060206116fb9160018060a01b0360025416604051916101e43584840152838352611639836128c4565b876040518096819582946385edbcab60e01b84526004356004850152602435602485015260443560448501526064356064850152608435608485015260a43560a485015260c43560c485015260e43560e485015261010480359085015261012480359085015261014480359085015215156101648401526101848035908401526101a43515156101a48401526116d66101c484016101c435612a59565b6116e76101e4840161020435612a66565b610220610204840152610224830190612747565b03925af190811561123e5784916118db575b50915b61022435611805575b50611725600654612d4e565b9283600655610224356117f2575b611756611744604435600854612a9f565b948560085542600c5560075490612a9f565b90811580156117d2575b50506020936000805160206130308339815191529161178760095460405193849384612683565b0390a16040519061179b826102243561280a565b83820152817f11576008800a693051467e4ee714d9ec8fe4cb716c9040e940390eb77346c04160403393a360018055604051908152f35b6111385750808404600a5583600080516020613030833981519152611760565b6117fd600954612d4e565b600955611733565b6101a4351561187b57611819813414612b92565b60045484906001600160a01b0316803b15610c665760446040518094819363ffd230c960e01b8352886004840152611857602484016102243561280a565b5af1801561123e5761186c575b505b38611719565b6118759061287a565b38611864565b60045484906001600160a01b0316803b15610c665760446040518094819363ffd230c960e01b83528860048401526118b9602484016102243561280a565b5af1801561123e576118cc575b50611866565b6118d59061287a565b386118c6565b90506020813d602011611905575b816118f6602093836128df565b8101031261064d57513861170d565b3d91506118e9565b6002546119e99260209290916001600160a01b03169061193990604435906001600160481b0316612a9f565b91604051926101e43585850152848452611952846128c4565b6040518096819582946385edbcab60e01b84526004356004850152602435602485015260443560448501526064356064850152608435608485015260a43560a485015260c43560c485015260e43560e485015261010480359085015261012480359085015261014480359085015215156101648401526101848035908401528b6101a48401526116d66101c484016101c435612a59565b03925af190811561123e578491611a02575b5091611710565b90506020813d602011611a2c575b81611a1d602093836128df565b8101031261064d5751386119fb565b3d9150611a10565b6020813d602011611a65575b81611a4d602093836128df565b8101031261064957611a5e90612b05565b5038611604565b3d9150611a40565b506020813d602011611aa0575b81611a87602093836128df565b8101031261064957611a9b6115a891612b05565b61159e565b3d9150611a7a565b611ab3833414612ac2565b611606565b8291611539565b670de0b6b3a7640000611522565b5061010036600319011261043c57600435906001600160401b03808311610c665736602384011215610c6657826004013592611b0884612902565b90611b1660405192836128df565b84825260209460248684019160051b8301019136831161064957906024879201905b838210611c93575050505060243582811161064d57611b5b903690600401612919565b91604435818111610c6257611b74903690600401612919565b93606435828111610c6657611b8d903690600401612919565b50608435828111610c6657611ba6903690600401612919565b5060a435828111610c6657611bbf9036906004016129d9565b5060c43591821161043c575091611bf6611bff92611be4600a969536906004016129d9565b50611bed61266f565b50611bf6612bd8565b51825114612bfb565b5111611c55576084906040519062461bcd60e51b82526004820152602360248201527f4261746368206372656174696f6e2074656d706f726172696c792064697361626044820152621b195960ea1b6064820152fd5b6064906040519062461bcd60e51b8252600482015260176024820152760a8dede40dac2dcf240e0deded8e640d2dc40c4c2e8c6d604b1b6044820152fd5b81358152908201908201611b38565b503461043c578060031936011261043c57608060018060a01b038060025416908060035416908060045416906005541691604051938452602084015260408301526060820152f35b503461043c57602036600319011261043c5760606101c0604051611d0d8161282d565b83815283602082015283604082015283838201528360808201528360a08201528360c08201528360e08201528361010082015283610120820152836101408201528361016082015283610180820152836101a0820152015260248160018060a01b0360035416604051928380926340bae06b60e11b825260043560048301525afa90811561048f578291611f4f575b5060018060a01b0360045416916040519263fd12153960e01b84526004356004850152604084602481845afa90811561048f5782948392611f23575b50602060249160405192838092634f02360760e01b825260043560048301525afa928315610447578093611edf575b50506103f76103e5946040519586956080875260018060a01b038151166080880152602081015160a0880152604081015160c0880152606081015160e0880152608081015161010088015261ffff60a08201511661012088015260ff60c08201511661014088015260ff60e0820151166101608801526101008101516101808801526101208101516101a08801526101408101516101c08801526101c0610160820151916101e092838a01526101808101516102008a01526101a08101516102208a015201519061024088015261026087019061276c565b909492506020853d602011611f1b575b81611efc602093836128df565b8101031261043c57506103f7611f146103e595612b05565b9294611e07565b3d9150611eef565b602095506024919250611f449060403d6040116104885761047581836128df565b959095929150611dd8565b3d91508183823e611f6082826128df565b6020818381010312610651578051906001600160401b03821161064d576101e0828201848301031261064d5760405192611f998461282d565b611fa4838301612c3f565b845281830160208181015190860152604080820151908601526060808201519086015260808082015190860152611fdd9060a001612c53565b60a0850152611ff060c084840101612c62565b60c085015261200360e084840101612c62565b60e0850152818301610100818101519086015261012080820151908601526101408082015190860152610160808201519086015261018080820151908601526101a080820151908601526101c00151906001600160401b03821161064957808301601f8386860101011215610649578184840101519161208283612902565b9461209060405196876128df565b838652602086019483810160208660051b85858501010101116114ac576020838383010101955b60208660051b8585850101010187106120dd57505050505050506101c082015238611d9c565b86516001600160401b0381116121a85760c08385018601820187850103601f1901126121a857604051916121108361285f565b83850186018201602081810151855260408201519085015261213490606001612b05565b6040840152838501860182016080810151606085015260a00151906001600160401b0382116121a45760209361219260c08561218189898099988f998f8f849c8601950101010101612c70565b60808501528a8a8a01010101612c53565b60a082015281520197019690506120b7565b8c80fd5b8a80fd5b503461043c578060031936011261043c57546040516001600160a01b039091168152602090f35b503461043c578060031936011261043c576003546040516001600160a01b039091168152602090f35b503461043c578060031936011261043c5760e0600654600754600854600954600a5490600b5492600c5494604051968752602087015260408601526060850152608084015260a083015260c0820152f35b503461043c57602036600319011261043c576122676126da565b600254604051634fc16a3960e11b81526001600160a01b038381166004830152909116929061010081602481875afa918215610447578081908295839584958586918793612493575b508660249798999a9b6040519889809263c84728ef60e01b825260018060a01b03891660048301525afa96871561246c578897612477575b5060035460405163c105a19560e01b81526001600160a01b03958616600482015294899186916024918391165afa93841561246c578894612450575b506004546001600160a01b03169a9997988998895b89518110156123ea578d602061234f838d612d5d565b51602460405180948193634f02360760e01b835260048301525afa9081156123df578c916123a1575b5061238c575b61238790612d4e565b612339565b9a61239961238791612d4e565b9b905061237e565b90506020813d6020116123d7575b816123bc602093836128df565b810103126123d3576123cd90612b05565b38612378565b8b80fd5b3d91506123af565b6040513d8e823e3d90fd5b50612436969a99506124459895979b6040519c8d9c8d5260208d015260408c015260608b015260808a015260a089015260c088015260e0870152610160806101008801528601906126f0565b908482036101208601526126f0565b906101408301520390f35b6124659194503d808a833e610a4781836128df565b9238612324565b6040513d8a823e3d90fd5b61248c9197503d808a833e610a4781836128df565b95386122e8565b9850505050955050509050610100823d610100116124f8575b816124ba61010093836128df565b8101031261043c578151602083015160408401516060850151608086015160a087015160c088015160e09098015193989297919695939190866122b0565b3d91506124ac565b503461043c578060031936011261043c57612519612a73565b80546001600160a01b03198116825581906001600160a01b03166000805160206130508339815191528280a380f35b503461043c578060031936011261043c57612561612d87565b5060e061256c612dbf565b6125796040518092612699565bf35b503461043c578060031936011261043c57612594612a73565b80f35b503461043c578060031936011261043c576002546040516001600160a01b039091168152602090f35b503461043c57606036600319011261043c5760243590811515820361043c57604435916004831015610c66571561263c576802b5e3af16b18800005b6001600160481b0316918015612636576126169150612fe4565b610ab661262982610efc60043586612a9f565b9160405193849384612683565b50612616565b670de0b6b3a76400006125fc565b905034610c665781600319360112610c66576005546001600160a01b03168152602090f35b60e43590811515820361267e57565b600080fd5b6040919493926060820195825260208201520152565b60c08091805184526020810151602085015260408101516040850152606081015160608501526080810151608085015260a081015160a08501520151910152565b600435906001600160a01b038216820361267e57565b90815180825260208080930193019160005b828110612710575050505090565b835185529381019392810192600101612702565b60005b8381106127375750506000910152565b8181015183820152602001612727565b9060209161276081518092818552858086019101612724565b601f01601f1916010190565b90808183519182825260208080809401958560051b01019501936000915b84831061279a5750505050505090565b9091929394958480600192601f19858203018652895190815181528282015183820152604080830151151590820152606080830151908201526127ec6080808401519060c08091850152830190612747565b9161ffff60a08092015116910152980193019301919493929061278a565b9060048210156128175752565b634e487b7160e01b600052602160045260246000fd5b6101e081019081106001600160401b0382111761284957604052565b634e487b7160e01b600052604160045260246000fd5b60c081019081106001600160401b0382111761284957604052565b6001600160401b03811161284957604052565b61032081019081106001600160401b0382111761284957604052565b60e081019081106001600160401b0382111761284957604052565b604081019081106001600160401b0382111761284957604052565b601f909101601f19168101906001600160401b0382119082101761284957604052565b6001600160401b0381116128495760051b60200190565b81601f8201121561267e5780359161293083612902565b9261293e60405194856128df565b808452602092838086019260051b82010192831161267e578301905b828210612968575050505090565b8135815290830190830161295a565b6001600160401b03811161284957601f01601f191660200190565b81601f8201121561267e578035906129a982612977565b926129b760405194856128df565b8284526020838301011161267e57816000926020809301838601378301015290565b9080601f8301121561267e578135906129f182612902565b926129ff60405194856128df565b828452602092838086019160051b8301019280841161267e57848301915b848310612a2d5750505050505090565b82356001600160401b03811161267e578691612a4e84848094890101612992565b815201920191612a1d565b9060028210156128175752565b9060088210156128175752565b6000546001600160a01b03163303612a8757565b60405163118cdaa760e01b8152336004820152602490fd5b91908201809211612aac57565b634e487b7160e01b600052601160045260246000fd5b15612ac957565b60405162461bcd60e51b8152602060048201526014602482015273125b98dbdc9c9958dd0814d51508185b5bdd5b9d60621b6044820152606490fd5b5190811515820361267e57565b6001600160a01b03918216815291166020820152604081019190915260600190565b15612b3b57565b60405162461bcd60e51b815260206004820152601460248201527310925514881d1c985b9cd9995c8819985a5b195960621b6044820152606490fd5b6001600160a01b039091168152602081019190915260400190565b15612b9957565b60405162461bcd60e51b8152602060048201526017602482015276125b98dbdc9c9958dd08189bdbdcdd081c185e5b595b9d604a1b6044820152606490fd5b600260015414612be9576002600155565b604051633ee5aeb560e01b8152600490fd5b15612c0257565b60405162461bcd60e51b8152602060048201526015602482015274082e4e4c2f240d8cadccee8d040dad2e6dac2e8c6d605b1b6044820152606490fd5b51906001600160a01b038216820361267e57565b519061ffff8216820361267e57565b519060ff8216820361267e57565b81601f8201121561267e578051612c8681612977565b92612c9460405194856128df565b8184526020828401011161267e57612cb29160208085019101612724565b90565b919082604091031261267e578151600481101561267e5760209092015190565b602090818184031261267e578051906001600160401b03821161267e57019180601f8401121561267e578251612d0a81612902565b93612d1860405195866128df565b818552838086019260051b82010192831161267e578301905b828210612d3f575050505090565b81518152908301908301612d31565b6000198114612aac5760010190565b8051821015612d715760209160051b010190565b634e487b7160e01b600052603260045260246000fd5b60405190612d94826128a9565b8160c06000918281528260208201528260408201528260608201528260808201528260a08201520152565b60405190612dcc826128a9565b6006548252600754602083015260085460408301526009546060830152600a546080830152600b5460a0830152600c5460c0830152565b919392909360049485821015612fcf5781612f2f575b5050612e5e575b5060405160019260208201906001600160401b03821183831017612e4957506040526000815290565b604190634e487b7160e01b6000525260246000fd5b6005546040516370a0823160e01b81526001600160a01b03928316858201529160209183916024918391165afa8015612f2357600090612ee9575b6802b5e3af16b1880000915010612eb05738612e20565b60405160009250612ec0816128c4565b6019815278496e73756666696369656e7420424954522062616c616e636560381b602082015290565b6020823d8211612f1b575b81612f01602093836128df565b8101031261043c57506802b5e3af16b18800009051612e99565b3d9150612ef4565b6040513d6000823e3d90fd5b60018060a01b03865416612f5a6040519384936385ea867560e01b855289850152602484019061280a565b81604460009384935afa9182156108305781908293612f81575b50612e1957945092915050565b9250503d8082843e612f9381846128df565b8201604083820312610c6657612fa883612b05565b602084015190936001600160401b03821161064d57612fc8929101612c70565b9138612f74565b602186634e487b7160e01b6000525260246000fd5b6004811015612817576001811461302257600281146130155760031461300957600090565b674563918244f4000090565b506729a2241af62c000090565b50671bc16d674ec800009056fe44e2ea4ac9ae6e4f62191e63ce0e544f2d0cb79abc8347d7e58920f5c3f3c0078be0079c531659141344cd1fd0a4f28419497f9722a3daafe3b4186f6b6457e00441abf574021357ac657a1ea4fbfa96c4c3f39a68bc29c9d793d337c0e86fada2646970667358221220178521bc743a9761826aedfd9d781fb697d0a55c65f3b38446d746207f4c844364736f6c63430008140033",
  "linkReferences": {},
  "deployedLinkReferences": {}
}