{
  "_format": "hh-sol-artifact-1",
  "contractName": "BitredictPoolCore",
  "sourceName": "contracts/BitredictPoolCore.sol",
  "abi": [
    {
      "inputs": [
        {
          "internalType": "address",
          "name": "_bitrToken",
          "type": "address"
        },
        {
          "internalType": "address",
          "name": "_feeCollector",
          "type": "address"
        },
        {
          "internalType": "address",
          "name": "_guidedOracle",
          "type": "address"
        },
        {
          "internalType": "address",
          "name": "_optimisticOracle",
          "type": "address"
        }
      ],
      "stateMutability": "nonpayable",
      "type": "constructor"
    },
    {
      "inputs": [
        {
          "internalType": "address",
          "name": "owner",
          "type": "address"
        }
      ],
      "name": "OwnableInvalidOwner",
      "type": "error"
    },
    {
      "inputs": [
        {
          "internalType": "address",
          "name": "account",
          "type": "address"
        }
      ],
      "name": "OwnableUnauthorizedAccount",
      "type": "error"
    },
    {
      "anonymous": false,
      "inputs": [
        {
          "indexed": true,
          "internalType": "uint256",
          "name": "poolId",
          "type": "uint256"
        },
        {
          "indexed": false,
          "internalType": "uint256",
          "name": "totalVolume",
          "type": "uint256"
        },
        {
          "indexed": false,
          "internalType": "uint256",
          "name": "participantCount",
          "type": "uint256"
        }
      ],
      "name": "AnalyticsUpdated",
      "type": "event"
    },
    {
      "anonymous": false,
      "inputs": [
        {
          "indexed": true,
          "internalType": "uint256",
          "name": "poolId",
          "type": "uint256"
        },
        {
          "indexed": true,
          "internalType": "address",
          "name": "bettor",
          "type": "address"
        },
        {
          "indexed": false,
          "internalType": "uint256",
          "name": "amount",
          "type": "uint256"
        },
        {
          "indexed": false,
          "internalType": "bool",
          "name": "isForOutcome",
          "type": "bool"
        }
      ],
      "name": "BetPlaced",
      "type": "event"
    },
    {
      "anonymous": false,
      "inputs": [
        {
          "indexed": true,
          "internalType": "uint256",
          "name": "poolId",
          "type": "uint256"
        },
        {
          "indexed": true,
          "internalType": "address",
          "name": "provider",
          "type": "address"
        },
        {
          "indexed": false,
          "internalType": "uint256",
          "name": "amount",
          "type": "uint256"
        }
      ],
      "name": "LiquidityAdded",
      "type": "event"
    },
    {
      "anonymous": false,
      "inputs": [
        {
          "indexed": true,
          "internalType": "address",
          "name": "previousOwner",
          "type": "address"
        },
        {
          "indexed": true,
          "internalType": "address",
          "name": "newOwner",
          "type": "address"
        }
      ],
      "name": "OwnershipTransferred",
      "type": "event"
    },
    {
      "anonymous": false,
      "inputs": [
        {
          "indexed": true,
          "internalType": "uint256",
          "name": "poolId",
          "type": "uint256"
        },
        {
          "indexed": true,
          "internalType": "address",
          "name": "creator",
          "type": "address"
        },
        {
          "indexed": false,
          "internalType": "uint256",
          "name": "eventStartTime",
          "type": "uint256"
        },
        {
          "indexed": false,
          "internalType": "uint256",
          "name": "eventEndTime",
          "type": "uint256"
        },
        {
          "indexed": false,
          "internalType": "enum OracleType",
          "name": "oracleType",
          "type": "uint8"
        },
        {
          "indexed": false,
          "internalType": "bytes32",
          "name": "marketId",
          "type": "bytes32"
        },
        {
          "indexed": false,
          "internalType": "enum MarketType",
          "name": "marketType",
          "type": "uint8"
        },
        {
          "indexed": false,
          "internalType": "string",
          "name": "league",
          "type": "string"
        },
        {
          "indexed": false,
          "internalType": "string",
          "name": "category",
          "type": "string"
        }
      ],
      "name": "PoolCreated",
      "type": "event"
    },
    {
      "anonymous": false,
      "inputs": [
        {
          "indexed": true,
          "internalType": "uint256",
          "name": "poolId",
          "type": "uint256"
        },
        {
          "indexed": false,
          "internalType": "string",
          "name": "reason",
          "type": "string"
        }
      ],
      "name": "PoolRefunded",
      "type": "event"
    },
    {
      "anonymous": false,
      "inputs": [
        {
          "indexed": true,
          "internalType": "uint256",
          "name": "poolId",
          "type": "uint256"
        },
        {
          "indexed": false,
          "internalType": "bytes32",
          "name": "result",
          "type": "bytes32"
        },
        {
          "indexed": false,
          "internalType": "bool",
          "name": "creatorSideWon",
          "type": "bool"
        },
        {
          "indexed": false,
          "internalType": "uint256",
          "name": "timestamp",
          "type": "uint256"
        }
      ],
      "name": "PoolSettled",
      "type": "event"
    },
    {
      "anonymous": false,
      "inputs": [
        {
          "indexed": true,
          "internalType": "address",
          "name": "user",
          "type": "address"
        },
        {
          "indexed": false,
          "internalType": "enum ReputationSystem.ReputationAction",
          "name": "action",
          "type": "uint8"
        },
        {
          "indexed": false,
          "internalType": "uint256",
          "name": "value",
          "type": "uint256"
        },
        {
          "indexed": true,
          "internalType": "bytes32",
          "name": "poolId",
          "type": "bytes32"
        },
        {
          "indexed": false,
          "internalType": "uint256",
          "name": "timestamp",
          "type": "uint256"
        }
      ],
      "name": "ReputationActionOccurred",
      "type": "event"
    },
    {
      "anonymous": false,
      "inputs": [
        {
          "indexed": true,
          "internalType": "uint256",
          "name": "poolId",
          "type": "uint256"
        },
        {
          "indexed": true,
          "internalType": "address",
          "name": "user",
          "type": "address"
        },
        {
          "indexed": false,
          "internalType": "uint256",
          "name": "amount",
          "type": "uint256"
        }
      ],
      "name": "RewardClaimed",
      "type": "event"
    },
    {
      "anonymous": false,
      "inputs": [
        {
          "indexed": true,
          "internalType": "uint256",
          "name": "poolId",
          "type": "uint256"
        },
        {
          "indexed": true,
          "internalType": "address",
          "name": "user",
          "type": "address"
        }
      ],
      "name": "UserWhitelisted",
      "type": "event"
    },
    {
      "inputs": [],
      "name": "HIGH_ODDS_THRESHOLD",
      "outputs": [
        {
          "internalType": "uint256",
          "name": "",
          "type": "uint256"
        }
      ],
      "stateMutability": "view",
      "type": "function"
    },
    {
      "inputs": [],
      "name": "MAX_LP_PROVIDERS",
      "outputs": [
        {
          "internalType": "uint256",
          "name": "",
          "type": "uint256"
        }
      ],
      "stateMutability": "view",
      "type": "function"
    },
    {
      "inputs": [],
      "name": "MAX_PARTICIPANTS",
      "outputs": [
        {
          "internalType": "uint256",
          "name": "",
          "type": "uint256"
        }
      ],
      "stateMutability": "view",
      "type": "function"
    },
    {
      "inputs": [
        {
          "internalType": "uint256",
          "name": "poolId",
          "type": "uint256"
        },
        {
          "internalType": "uint256",
          "name": "amount",
          "type": "uint256"
        }
      ],
      "name": "addLiquidity",
      "outputs": [],
      "stateMutability": "payable",
      "type": "function"
    },
    {
      "inputs": [
        {
          "internalType": "uint256",
          "name": "poolId",
          "type": "uint256"
        },
        {
          "internalType": "address",
          "name": "user",
          "type": "address"
        }
      ],
      "name": "addToWhitelist",
      "outputs": [],
      "stateMutability": "nonpayable",
      "type": "function"
    },
    {
      "inputs": [
        {
          "internalType": "address",
          "name": "user",
          "type": "address"
        }
      ],
      "name": "adjustedFeeRate",
      "outputs": [
        {
          "internalType": "uint256",
          "name": "",
          "type": "uint256"
        }
      ],
      "stateMutability": "view",
      "type": "function"
    },
    {
      "inputs": [],
      "name": "arbitrationTimeout",
      "outputs": [
        {
          "internalType": "uint256",
          "name": "",
          "type": "uint256"
        }
      ],
      "stateMutability": "view",
      "type": "function"
    },
    {
      "inputs": [],
      "name": "bettingGracePeriod",
      "outputs": [
        {
          "internalType": "uint256",
          "name": "",
          "type": "uint256"
        }
      ],
      "stateMutability": "view",
      "type": "function"
    },
    {
      "inputs": [
        {
          "internalType": "uint256",
          "name": "",
          "type": "uint256"
        },
        {
          "internalType": "address",
          "name": "",
          "type": "address"
        }
      ],
      "name": "bettorStakes",
      "outputs": [
        {
          "internalType": "uint256",
          "name": "",
          "type": "uint256"
        }
      ],
      "stateMutability": "view",
      "type": "function"
    },
    {
      "inputs": [],
      "name": "bitrToken",
      "outputs": [
        {
          "internalType": "contract IERC20",
          "name": "",
          "type": "address"
        }
      ],
      "stateMutability": "view",
      "type": "function"
    },
    {
      "inputs": [],
      "name": "boostSystem",
      "outputs": [
        {
          "internalType": "contract IBitredictBoostSystem",
          "name": "",
          "type": "address"
        }
      ],
      "stateMutability": "view",
      "type": "function"
    },
    {
      "inputs": [
        {
          "internalType": "bytes32",
          "name": "",
          "type": "bytes32"
        },
        {
          "internalType": "uint256",
          "name": "",
          "type": "uint256"
        }
      ],
      "name": "categoryPools",
      "outputs": [
        {
          "internalType": "uint256",
          "name": "",
          "type": "uint256"
        }
      ],
      "stateMutability": "view",
      "type": "function"
    },
    {
      "inputs": [
        {
          "internalType": "string",
          "name": "",
          "type": "string"
        }
      ],
      "name": "categoryStats",
      "outputs": [
        {
          "internalType": "uint256",
          "name": "totalPools",
          "type": "uint256"
        },
        {
          "internalType": "uint256",
          "name": "totalVolume",
          "type": "uint256"
        },
        {
          "internalType": "uint256",
          "name": "averageOdds",
          "type": "uint256"
        },
        {
          "internalType": "uint256",
          "name": "participationRate",
          "type": "uint256"
        },
        {
          "internalType": "uint256",
          "name": "successRate",
          "type": "uint256"
        },
        {
          "internalType": "uint256",
          "name": "growthRate",
          "type": "uint256"
        },
        {
          "internalType": "uint256",
          "name": "lastActivityTime",
          "type": "uint256"
        }
      ],
      "stateMutability": "view",
      "type": "function"
    },
    {
      "inputs": [
        {
          "internalType": "uint256",
          "name": "poolId",
          "type": "uint256"
        }
      ],
      "name": "claim",
      "outputs": [],
      "stateMutability": "nonpayable",
      "type": "function"
    },
    {
      "inputs": [
        {
          "internalType": "uint256",
          "name": "",
          "type": "uint256"
        },
        {
          "internalType": "address",
          "name": "",
          "type": "address"
        }
      ],
      "name": "claimed",
      "outputs": [
        {
          "internalType": "bool",
          "name": "",
          "type": "bool"
        }
      ],
      "stateMutability": "view",
      "type": "function"
    },
    {
      "inputs": [
        {
          "internalType": "bytes32",
          "name": "_predictedOutcome",
          "type": "bytes32"
        },
        {
          "internalType": "uint256",
          "name": "_odds",
          "type": "uint256"
        },
        {
          "internalType": "uint256",
          "name": "_creatorStake",
          "type": "uint256"
        },
        {
          "internalType": "uint256",
          "name": "_eventStartTime",
          "type": "uint256"
        },
        {
          "internalType": "uint256",
          "name": "_eventEndTime",
          "type": "uint256"
        },
        {
          "internalType": "string",
          "name": "_league",
          "type": "string"
        },
        {
          "internalType": "string",
          "name": "_category",
          "type": "string"
        },
        {
          "internalType": "string",
          "name": "_region",
          "type": "string"
        },
        {
          "internalType": "bool",
          "name": "_isPrivate",
          "type": "bool"
        },
        {
          "internalType": "uint256",
          "name": "_maxBetPerUser",
          "type": "uint256"
        },
        {
          "internalType": "bool",
          "name": "_useBitr",
          "type": "bool"
        },
        {
          "internalType": "enum OracleType",
          "name": "_oracleType",
          "type": "uint8"
        },
        {
          "internalType": "bytes32",
          "name": "_marketId",
          "type": "bytes32"
        },
        {
          "internalType": "enum MarketType",
          "name": "_marketType",
          "type": "uint8"
        }
      ],
      "name": "createPool",
      "outputs": [
        {
          "internalType": "uint256",
          "name": "",
          "type": "uint256"
        }
      ],
      "stateMutability": "payable",
      "type": "function"
    },
    {
      "inputs": [],
      "name": "creationFeeBITR",
      "outputs": [
        {
          "internalType": "uint256",
          "name": "",
          "type": "uint256"
        }
      ],
      "stateMutability": "view",
      "type": "function"
    },
    {
      "inputs": [],
      "name": "creationFeeSTT",
      "outputs": [
        {
          "internalType": "uint256",
          "name": "",
          "type": "uint256"
        }
      ],
      "stateMutability": "view",
      "type": "function"
    },
    {
      "inputs": [
        {
          "internalType": "address",
          "name": "",
          "type": "address"
        },
        {
          "internalType": "uint256",
          "name": "",
          "type": "uint256"
        }
      ],
      "name": "creatorActivePools",
      "outputs": [
        {
          "internalType": "uint256",
          "name": "",
          "type": "uint256"
        }
      ],
      "stateMutability": "view",
      "type": "function"
    },
    {
      "inputs": [
        {
          "internalType": "address",
          "name": "",
          "type": "address"
        }
      ],
      "name": "creatorStats",
      "outputs": [
        {
          "internalType": "uint256",
          "name": "totalPoolsCreated",
          "type": "uint256"
        },
        {
          "internalType": "uint256",
          "name": "successfulPools",
          "type": "uint256"
        },
        {
          "internalType": "uint256",
          "name": "totalVolumeGenerated",
          "type": "uint256"
        },
        {
          "internalType": "uint256",
          "name": "averagePoolSize",
          "type": "uint256"
        },
        {
          "internalType": "uint256",
          "name": "reputationScore",
          "type": "uint256"
        },
        {
          "internalType": "uint256",
          "name": "winRate",
          "type": "uint256"
        },
        {
          "internalType": "uint256",
          "name": "totalEarnings",
          "type": "uint256"
        },
        {
          "internalType": "uint256",
          "name": "activePoolsCount",
          "type": "uint256"
        },
        {
          "internalType": "uint256",
          "name": "influenceScore",
          "type": "uint256"
        },
        {
          "internalType": "uint256",
          "name": "followerCount",
          "type": "uint256"
        },
        {
          "internalType": "uint256",
          "name": "predictionAccuracy",
          "type": "uint256"
        },
        {
          "internalType": "uint256",
          "name": "socialEngagement",
          "type": "uint256"
        },
        {
          "internalType": "uint256",
          "name": "viralPoolsCreated",
          "type": "uint256"
        },
        {
          "internalType": "uint256",
          "name": "streakMultiplier",
          "type": "uint256"
        },
        {
          "internalType": "uint256",
          "name": "longestStreak",
          "type": "uint256"
        },
        {
          "internalType": "uint256",
          "name": "mentorshipPoints",
          "type": "uint256"
        },
        {
          "internalType": "uint256",
          "name": "leadershipRank",
          "type": "uint256"
        }
      ],
      "stateMutability": "view",
      "type": "function"
    },
    {
      "inputs": [
        {
          "internalType": "address",
          "name": "stakingContract",
          "type": "address"
        }
      ],
      "name": "distributeFees",
      "outputs": [],
      "stateMutability": "nonpayable",
      "type": "function"
    },
    {
      "inputs": [],
      "name": "feeCollector",
      "outputs": [
        {
          "internalType": "address",
          "name": "",
          "type": "address"
        }
      ],
      "stateMutability": "view",
      "type": "function"
    },
    {
      "inputs": [],
      "name": "getActivePools",
      "outputs": [
        {
          "internalType": "uint256[]",
          "name": "",
          "type": "uint256[]"
        }
      ],
      "stateMutability": "view",
      "type": "function"
    },
    {
      "inputs": [
        {
          "internalType": "string",
          "name": "category",
          "type": "string"
        }
      ],
      "name": "getCategoryStats",
      "outputs": [
        {
          "components": [
            {
              "internalType": "uint256",
              "name": "totalPools",
              "type": "uint256"
            },
            {
              "internalType": "uint256",
              "name": "totalVolume",
              "type": "uint256"
            },
            {
              "internalType": "uint256",
              "name": "averageOdds",
              "type": "uint256"
            },
            {
              "internalType": "uint256",
              "name": "participationRate",
              "type": "uint256"
            },
            {
              "internalType": "uint256",
              "name": "successRate",
              "type": "uint256"
            },
            {
              "internalType": "uint256",
              "name": "growthRate",
              "type": "uint256"
            },
            {
              "internalType": "uint256",
              "name": "lastActivityTime",
              "type": "uint256"
            }
          ],
          "internalType": "struct BitredictPoolCore.CategoryStats",
          "name": "",
          "type": "tuple"
        }
      ],
      "stateMutability": "view",
      "type": "function"
    },
    {
      "inputs": [
        {
          "internalType": "address",
          "name": "creator",
          "type": "address"
        }
      ],
      "name": "getCreatorMetrics",
      "outputs": [
        {
          "internalType": "uint256",
          "name": "totalPoolsCreated",
          "type": "uint256"
        },
        {
          "internalType": "uint256",
          "name": "totalVolumeGenerated",
          "type": "uint256"
        },
        {
          "internalType": "uint256",
          "name": "averagePoolSize",
          "type": "uint256"
        },
        {
          "internalType": "uint256",
          "name": "successRate",
          "type": "uint256"
        },
        {
          "internalType": "uint256",
          "name": "followerCount",
          "type": "uint256"
        },
        {
          "internalType": "uint256",
          "name": "influenceScoreValue",
          "type": "uint256"
        },
        {
          "internalType": "uint256",
          "name": "revenueEarned",
          "type": "uint256"
        },
        {
          "internalType": "uint256[]",
          "name": "topPerformingPools",
          "type": "uint256[]"
        },
        {
          "internalType": "string[]",
          "name": "unlockedBadges",
          "type": "string[]"
        }
      ],
      "stateMutability": "view",
      "type": "function"
    },
    {
      "inputs": [
        {
          "internalType": "address",
          "name": "creator",
          "type": "address"
        }
      ],
      "name": "getCreatorStats",
      "outputs": [
        {
          "components": [
            {
              "internalType": "uint256",
              "name": "totalPoolsCreated",
              "type": "uint256"
            },
            {
              "internalType": "uint256",
              "name": "successfulPools",
              "type": "uint256"
            },
            {
              "internalType": "uint256",
              "name": "totalVolumeGenerated",
              "type": "uint256"
            },
            {
              "internalType": "uint256",
              "name": "averagePoolSize",
              "type": "uint256"
            },
            {
              "internalType": "uint256",
              "name": "reputationScore",
              "type": "uint256"
            },
            {
              "internalType": "uint256",
              "name": "winRate",
              "type": "uint256"
            },
            {
              "internalType": "uint256",
              "name": "totalEarnings",
              "type": "uint256"
            },
            {
              "internalType": "uint256",
              "name": "activePoolsCount",
              "type": "uint256"
            },
            {
              "internalType": "uint256",
              "name": "influenceScore",
              "type": "uint256"
            },
            {
              "internalType": "uint256",
              "name": "followerCount",
              "type": "uint256"
            },
            {
              "internalType": "uint256",
              "name": "predictionAccuracy",
              "type": "uint256"
            },
            {
              "internalType": "uint256",
              "name": "socialEngagement",
              "type": "uint256"
            },
            {
              "internalType": "uint256",
              "name": "viralPoolsCreated",
              "type": "uint256"
            },
            {
              "internalType": "uint256",
              "name": "streakMultiplier",
              "type": "uint256"
            },
            {
              "internalType": "uint256",
              "name": "longestStreak",
              "type": "uint256"
            },
            {
              "internalType": "uint256",
              "name": "mentorshipPoints",
              "type": "uint256"
            },
            {
              "internalType": "uint256",
              "name": "leadershipRank",
              "type": "uint256"
            }
          ],
          "internalType": "struct BitredictPoolCore.CreatorStats",
          "name": "",
          "type": "tuple"
        }
      ],
      "stateMutability": "view",
      "type": "function"
    },
    {
      "inputs": [],
      "name": "getDashboardAnalytics",
      "outputs": [
        {
          "internalType": "uint256",
          "name": "totalVolume",
          "type": "uint256"
        },
        {
          "internalType": "uint256",
          "name": "activePools",
          "type": "uint256"
        },
        {
          "internalType": "uint256",
          "name": "totalUsers",
          "type": "uint256"
        },
        {
          "internalType": "uint256",
          "name": "totalBets",
          "type": "uint256"
        },
        {
          "internalType": "uint256",
          "name": "trendingPools",
          "type": "uint256"
        },
        {
          "internalType": "uint256",
          "name": "boostedPools",
          "type": "uint256"
        },
        {
          "internalType": "uint256",
          "name": "comboPools",
          "type": "uint256"
        },
        {
          "internalType": "uint256",
          "name": "platformRevenue",
          "type": "uint256"
        },
        {
          "internalType": "uint256",
          "name": "averagePoolSize",
          "type": "uint256"
        },
        {
          "internalType": "uint256",
          "name": "userEngagement",
          "type": "uint256"
        }
      ],
      "stateMutability": "view",
      "type": "function"
    },
    {
      "inputs": [],
      "name": "getGlobalStats",
      "outputs": [
        {
          "components": [
            {
              "internalType": "uint256",
              "name": "totalPools",
              "type": "uint256"
            },
            {
              "internalType": "uint256",
              "name": "totalVolume",
              "type": "uint256"
            },
            {
              "internalType": "uint256",
              "name": "totalUsers",
              "type": "uint256"
            },
            {
              "internalType": "uint256",
              "name": "totalBets",
              "type": "uint256"
            },
            {
              "internalType": "uint256",
              "name": "averagePoolSize",
              "type": "uint256"
            },
            {
              "internalType": "uint256",
              "name": "platformFees",
              "type": "uint256"
            },
            {
              "internalType": "uint256",
              "name": "lastUpdated",
              "type": "uint256"
            }
          ],
          "internalType": "struct BitredictPoolCore.GlobalStats",
          "name": "",
          "type": "tuple"
        }
      ],
      "stateMutability": "view",
      "type": "function"
    },
    {
      "inputs": [
        {
          "internalType": "uint256",
          "name": "poolId",
          "type": "uint256"
        }
      ],
      "name": "getPool",
      "outputs": [
        {
          "components": [
            {
              "internalType": "address",
              "name": "creator",
              "type": "address"
            },
            {
              "internalType": "uint16",
              "name": "odds",
              "type": "uint16"
            },
            {
              "internalType": "uint8",
              "name": "flags",
              "type": "uint8"
            },
            {
              "internalType": "enum OracleType",
              "name": "oracleType",
              "type": "uint8"
            },
            {
              "internalType": "uint256",
              "name": "creatorStake",
              "type": "uint256"
            },
            {
              "internalType": "uint256",
              "name": "totalCreatorSideStake",
              "type": "uint256"
            },
            {
              "internalType": "uint256",
              "name": "maxBettorStake",
              "type": "uint256"
            },
            {
              "internalType": "uint256",
              "name": "totalBettorStake",
              "type": "uint256"
            },
            {
              "internalType": "bytes32",
              "name": "predictedOutcome",
              "type": "bytes32"
            },
            {
              "internalType": "bytes32",
              "name": "result",
              "type": "bytes32"
            },
            {
              "internalType": "bytes32",
              "name": "marketId",
              "type": "bytes32"
            },
            {
              "internalType": "uint256",
              "name": "eventStartTime",
              "type": "uint256"
            },
            {
              "internalType": "uint256",
              "name": "eventEndTime",
              "type": "uint256"
            },
            {
              "internalType": "uint256",
              "name": "bettingEndTime",
              "type": "uint256"
            },
            {
              "internalType": "uint256",
              "name": "resultTimestamp",
              "type": "uint256"
            },
            {
              "internalType": "uint256",
              "name": "arbitrationDeadline",
              "type": "uint256"
            },
            {
              "internalType": "string",
              "name": "league",
              "type": "string"
            },
            {
              "internalType": "string",
              "name": "category",
              "type": "string"
            },
            {
              "internalType": "string",
              "name": "region",
              "type": "string"
            },
            {
              "internalType": "string",
              "name": "homeTeam",
              "type": "string"
            },
            {
              "internalType": "string",
              "name": "awayTeam",
              "type": "string"
            },
            {
              "internalType": "string",
              "name": "title",
              "type": "string"
            },
            {
              "internalType": "uint256",
              "name": "maxBetPerUser",
              "type": "uint256"
            }
          ],
          "internalType": "struct BitredictPoolCore.Pool",
          "name": "",
          "type": "tuple"
        }
      ],
      "stateMutability": "view",
      "type": "function"
    },
    {
      "inputs": [
        {
          "internalType": "uint256",
          "name": "poolId",
          "type": "uint256"
        }
      ],
      "name": "getPoolAnalytics",
      "outputs": [
        {
          "components": [
            {
              "internalType": "uint256",
              "name": "totalVolume",
              "type": "uint256"
            },
            {
              "internalType": "uint256",
              "name": "participantCount",
              "type": "uint256"
            },
            {
              "internalType": "uint256",
              "name": "averageBetSize",
              "type": "uint256"
            },
            {
              "internalType": "uint256",
              "name": "creatorReputation",
              "type": "uint256"
            },
            {
              "internalType": "uint256",
              "name": "liquidityRatio",
              "type": "uint256"
            },
            {
              "internalType": "uint256",
              "name": "timeToFill",
              "type": "uint256"
            },
            {
              "internalType": "bool",
              "name": "isHotPool",
              "type": "bool"
            },
            {
              "internalType": "uint256",
              "name": "fillPercentage",
              "type": "uint256"
            },
            {
              "internalType": "uint256",
              "name": "lastActivityTime",
              "type": "uint256"
            },
            {
              "internalType": "uint256",
              "name": "hotnessScore",
              "type": "uint256"
            },
            {
              "internalType": "uint256",
              "name": "socialBuzz",
              "type": "uint256"
            },
            {
              "internalType": "uint256",
              "name": "liquidityVelocity",
              "type": "uint256"
            },
            {
              "internalType": "uint256",
              "name": "creatorInfluence",
              "type": "uint256"
            },
            {
              "internalType": "uint256",
              "name": "successProbability",
              "type": "uint256"
            },
            {
              "internalType": "uint256",
              "name": "riskLevel",
              "type": "uint256"
            },
            {
              "internalType": "uint256",
              "name": "expectedReturn",
              "type": "uint256"
            },
            {
              "internalType": "uint256",
              "name": "marketSentiment",
              "type": "uint256"
            },
            {
              "internalType": "uint256",
              "name": "userEngagement",
              "type": "uint256"
            },
            {
              "internalType": "uint256",
              "name": "retentionRate",
              "type": "uint256"
            },
            {
              "internalType": "uint256",
              "name": "viralCoefficient",
              "type": "uint256"
            }
          ],
          "internalType": "struct BitredictPoolCore.PoolAnalytics",
          "name": "",
          "type": "tuple"
        }
      ],
      "stateMutability": "view",
      "type": "function"
    },
    {
      "inputs": [
        {
          "internalType": "bytes32",
          "name": "categoryHash",
          "type": "bytes32"
        }
      ],
      "name": "getPoolsByCategory",
      "outputs": [
        {
          "internalType": "uint256[]",
          "name": "",
          "type": "uint256[]"
        }
      ],
      "stateMutability": "view",
      "type": "function"
    },
    {
      "inputs": [
        {
          "internalType": "address",
          "name": "creator",
          "type": "address"
        }
      ],
      "name": "getPoolsByCreator",
      "outputs": [
        {
          "internalType": "uint256[]",
          "name": "",
          "type": "uint256[]"
        }
      ],
      "stateMutability": "view",
      "type": "function"
    },
    {
      "inputs": [
        {
          "internalType": "address",
          "name": "user",
          "type": "address"
        }
      ],
      "name": "getSmartRecommendations",
      "outputs": [
        {
          "internalType": "uint256[]",
          "name": "recommendedPools",
          "type": "uint256[]"
        },
        {
          "internalType": "uint256[]",
          "name": "confidenceScores",
          "type": "uint256[]"
        },
        {
          "internalType": "string[]",
          "name": "reasons",
          "type": "string[]"
        }
      ],
      "stateMutability": "view",
      "type": "function"
    },
    {
      "inputs": [
        {
          "internalType": "uint256",
          "name": "limit",
          "type": "uint256"
        }
      ],
      "name": "getTopCreators",
      "outputs": [
        {
          "internalType": "address[]",
          "name": "creators",
          "type": "address[]"
        },
        {
          "internalType": "uint256[]",
          "name": "volumes",
          "type": "uint256[]"
        }
      ],
      "stateMutability": "view",
      "type": "function"
    },
    {
      "inputs": [
        {
          "internalType": "uint256",
          "name": "limit",
          "type": "uint256"
        }
      ],
      "name": "getTrendingPools",
      "outputs": [
        {
          "internalType": "uint256[]",
          "name": "poolIds",
          "type": "uint256[]"
        },
        {
          "internalType": "uint256[]",
          "name": "trendingScores",
          "type": "uint256[]"
        },
        {
          "internalType": "string[]",
          "name": "categories",
          "type": "string[]"
        },
        {
          "internalType": "uint256[]",
          "name": "volumes",
          "type": "uint256[]"
        }
      ],
      "stateMutability": "view",
      "type": "function"
    },
    {
      "inputs": [
        {
          "internalType": "address",
          "name": "user",
          "type": "address"
        }
      ],
      "name": "getUserAnalytics",
      "outputs": [
        {
          "internalType": "uint256",
          "name": "totalBets",
          "type": "uint256"
        },
        {
          "internalType": "uint256",
          "name": "winRate",
          "type": "uint256"
        },
        {
          "internalType": "uint256",
          "name": "profitLoss",
          "type": "uint256"
        },
        {
          "internalType": "uint256",
          "name": "reputationScore",
          "type": "uint256"
        },
        {
          "internalType": "uint256",
          "name": "influenceScoreValue",
          "type": "uint256"
        },
        {
          "internalType": "uint256",
          "name": "predictionStreak",
          "type": "uint256"
        },
        {
          "internalType": "uint256",
          "name": "longestStreakValue",
          "type": "uint256"
        },
        {
          "internalType": "uint256[]",
          "name": "achievements",
          "type": "uint256[]"
        },
        {
          "internalType": "uint256[]",
          "name": "categoryPerformance",
          "type": "uint256[]"
        },
        {
          "internalType": "uint256",
          "name": "socialEngagementValue",
          "type": "uint256"
        }
      ],
      "stateMutability": "view",
      "type": "function"
    },
    {
      "inputs": [],
      "name": "globalStats",
      "outputs": [
        {
          "internalType": "uint256",
          "name": "totalPools",
          "type": "uint256"
        },
        {
          "internalType": "uint256",
          "name": "totalVolume",
          "type": "uint256"
        },
        {
          "internalType": "uint256",
          "name": "totalUsers",
          "type": "uint256"
        },
        {
          "internalType": "uint256",
          "name": "totalBets",
          "type": "uint256"
        },
        {
          "internalType": "uint256",
          "name": "averagePoolSize",
          "type": "uint256"
        },
        {
          "internalType": "uint256",
          "name": "platformFees",
          "type": "uint256"
        },
        {
          "internalType": "uint256",
          "name": "lastUpdated",
          "type": "uint256"
        }
      ],
      "stateMutability": "view",
      "type": "function"
    },
    {
      "inputs": [],
      "name": "guidedOracle",
      "outputs": [
        {
          "internalType": "address",
          "name": "",
          "type": "address"
        }
      ],
      "stateMutability": "view",
      "type": "function"
    },
    {
      "inputs": [
        {
          "internalType": "address",
          "name": "",
          "type": "address"
        }
      ],
      "name": "influenceScore",
      "outputs": [
        {
          "internalType": "uint256",
          "name": "",
          "type": "uint256"
        }
      ],
      "stateMutability": "view",
      "type": "function"
    },
    {
      "inputs": [
        {
          "internalType": "address",
          "name": "",
          "type": "address"
        }
      ],
      "name": "isVerifiedCreator",
      "outputs": [
        {
          "internalType": "bool",
          "name": "",
          "type": "bool"
        }
      ],
      "stateMutability": "view",
      "type": "function"
    },
    {
      "inputs": [
        {
          "internalType": "address",
          "name": "",
          "type": "address"
        }
      ],
      "name": "longestStreak",
      "outputs": [
        {
          "internalType": "uint256",
          "name": "",
          "type": "uint256"
        }
      ],
      "stateMutability": "view",
      "type": "function"
    },
    {
      "inputs": [
        {
          "internalType": "uint256",
          "name": "",
          "type": "uint256"
        },
        {
          "internalType": "address",
          "name": "",
          "type": "address"
        }
      ],
      "name": "lpStakes",
      "outputs": [
        {
          "internalType": "uint256",
          "name": "",
          "type": "uint256"
        }
      ],
      "stateMutability": "view",
      "type": "function"
    },
    {
      "inputs": [],
      "name": "minBetAmount",
      "outputs": [
        {
          "internalType": "uint256",
          "name": "",
          "type": "uint256"
        }
      ],
      "stateMutability": "view",
      "type": "function"
    },
    {
      "inputs": [],
      "name": "minPoolStakeBITR",
      "outputs": [
        {
          "internalType": "uint256",
          "name": "",
          "type": "uint256"
        }
      ],
      "stateMutability": "view",
      "type": "function"
    },
    {
      "inputs": [],
      "name": "minPoolStakeSTT",
      "outputs": [
        {
          "internalType": "uint256",
          "name": "",
          "type": "uint256"
        }
      ],
      "stateMutability": "view",
      "type": "function"
    },
    {
      "inputs": [],
      "name": "optimisticOracle",
      "outputs": [
        {
          "internalType": "address",
          "name": "",
          "type": "address"
        }
      ],
      "stateMutability": "view",
      "type": "function"
    },
    {
      "inputs": [],
      "name": "owner",
      "outputs": [
        {
          "internalType": "address",
          "name": "",
          "type": "address"
        }
      ],
      "stateMutability": "view",
      "type": "function"
    },
    {
      "inputs": [
        {
          "internalType": "uint256",
          "name": "poolId",
          "type": "uint256"
        },
        {
          "internalType": "uint256",
          "name": "amount",
          "type": "uint256"
        }
      ],
      "name": "placeBet",
      "outputs": [],
      "stateMutability": "payable",
      "type": "function"
    },
    {
      "inputs": [],
      "name": "platformFee",
      "outputs": [
        {
          "internalType": "uint256",
          "name": "",
          "type": "uint256"
        }
      ],
      "stateMutability": "view",
      "type": "function"
    },
    {
      "inputs": [
        {
          "internalType": "uint256",
          "name": "",
          "type": "uint256"
        }
      ],
      "name": "poolAnalytics",
      "outputs": [
        {
          "internalType": "uint256",
          "name": "totalVolume",
          "type": "uint256"
        },
        {
          "internalType": "uint256",
          "name": "participantCount",
          "type": "uint256"
        },
        {
          "internalType": "uint256",
          "name": "averageBetSize",
          "type": "uint256"
        },
        {
          "internalType": "uint256",
          "name": "creatorReputation",
          "type": "uint256"
        },
        {
          "internalType": "uint256",
          "name": "liquidityRatio",
          "type": "uint256"
        },
        {
          "internalType": "uint256",
          "name": "timeToFill",
          "type": "uint256"
        },
        {
          "internalType": "bool",
          "name": "isHotPool",
          "type": "bool"
        },
        {
          "internalType": "uint256",
          "name": "fillPercentage",
          "type": "uint256"
        },
        {
          "internalType": "uint256",
          "name": "lastActivityTime",
          "type": "uint256"
        },
        {
          "internalType": "uint256",
          "name": "hotnessScore",
          "type": "uint256"
        },
        {
          "internalType": "uint256",
          "name": "socialBuzz",
          "type": "uint256"
        },
        {
          "internalType": "uint256",
          "name": "liquidityVelocity",
          "type": "uint256"
        },
        {
          "internalType": "uint256",
          "name": "creatorInfluence",
          "type": "uint256"
        },
        {
          "internalType": "uint256",
          "name": "successProbability",
          "type": "uint256"
        },
        {
          "internalType": "uint256",
          "name": "riskLevel",
          "type": "uint256"
        },
        {
          "internalType": "uint256",
          "name": "expectedReturn",
          "type": "uint256"
        },
        {
          "internalType": "uint256",
          "name": "marketSentiment",
          "type": "uint256"
        },
        {
          "internalType": "uint256",
          "name": "userEngagement",
          "type": "uint256"
        },
        {
          "internalType": "uint256",
          "name": "retentionRate",
          "type": "uint256"
        },
        {
          "internalType": "uint256",
          "name": "viralCoefficient",
          "type": "uint256"
        }
      ],
      "stateMutability": "view",
      "type": "function"
    },
    {
      "inputs": [
        {
          "internalType": "uint256",
          "name": "",
          "type": "uint256"
        },
        {
          "internalType": "uint256",
          "name": "",
          "type": "uint256"
        }
      ],
      "name": "poolBettors",
      "outputs": [
        {
          "internalType": "address",
          "name": "",
          "type": "address"
        }
      ],
      "stateMutability": "view",
      "type": "function"
    },
    {
      "inputs": [],
      "name": "poolCount",
      "outputs": [
        {
          "internalType": "uint256",
          "name": "",
          "type": "uint256"
        }
      ],
      "stateMutability": "view",
      "type": "function"
    },
    {
      "inputs": [
        {
          "internalType": "uint256",
          "name": "poolId",
          "type": "uint256"
        }
      ],
      "name": "poolExists",
      "outputs": [
        {
          "internalType": "bool",
          "name": "",
          "type": "bool"
        }
      ],
      "stateMutability": "view",
      "type": "function"
    },
    {
      "inputs": [
        {
          "internalType": "uint256",
          "name": "",
          "type": "uint256"
        }
      ],
      "name": "poolIdToCreatorIndex",
      "outputs": [
        {
          "internalType": "uint256",
          "name": "",
          "type": "uint256"
        }
      ],
      "stateMutability": "view",
      "type": "function"
    },
    {
      "inputs": [
        {
          "internalType": "uint256",
          "name": "",
          "type": "uint256"
        },
        {
          "internalType": "uint256",
          "name": "",
          "type": "uint256"
        }
      ],
      "name": "poolLPs",
      "outputs": [
        {
          "internalType": "address",
          "name": "",
          "type": "address"
        }
      ],
      "stateMutability": "view",
      "type": "function"
    },
    {
      "inputs": [
        {
          "internalType": "uint256",
          "name": "",
          "type": "uint256"
        },
        {
          "internalType": "address",
          "name": "",
          "type": "address"
        }
      ],
      "name": "poolWhitelist",
      "outputs": [
        {
          "internalType": "bool",
          "name": "",
          "type": "bool"
        }
      ],
      "stateMutability": "view",
      "type": "function"
    },
    {
      "inputs": [
        {
          "internalType": "uint256",
          "name": "",
          "type": "uint256"
        }
      ],
      "name": "pools",
      "outputs": [
        {
          "internalType": "address",
          "name": "creator",
          "type": "address"
        },
        {
          "internalType": "uint16",
          "name": "odds",
          "type": "uint16"
        },
        {
          "internalType": "uint8",
          "name": "flags",
          "type": "uint8"
        },
        {
          "internalType": "enum OracleType",
          "name": "oracleType",
          "type": "uint8"
        },
        {
          "internalType": "uint256",
          "name": "creatorStake",
          "type": "uint256"
        },
        {
          "internalType": "uint256",
          "name": "totalCreatorSideStake",
          "type": "uint256"
        },
        {
          "internalType": "uint256",
          "name": "maxBettorStake",
          "type": "uint256"
        },
        {
          "internalType": "uint256",
          "name": "totalBettorStake",
          "type": "uint256"
        },
        {
          "internalType": "bytes32",
          "name": "predictedOutcome",
          "type": "bytes32"
        },
        {
          "internalType": "bytes32",
          "name": "result",
          "type": "bytes32"
        },
        {
          "internalType": "bytes32",
          "name": "marketId",
          "type": "bytes32"
        },
        {
          "internalType": "uint256",
          "name": "eventStartTime",
          "type": "uint256"
        },
        {
          "internalType": "uint256",
          "name": "eventEndTime",
          "type": "uint256"
        },
        {
          "internalType": "uint256",
          "name": "bettingEndTime",
          "type": "uint256"
        },
        {
          "internalType": "uint256",
          "name": "resultTimestamp",
          "type": "uint256"
        },
        {
          "internalType": "uint256",
          "name": "arbitrationDeadline",
          "type": "uint256"
        },
        {
          "internalType": "string",
          "name": "league",
          "type": "string"
        },
        {
          "internalType": "string",
          "name": "category",
          "type": "string"
        },
        {
          "internalType": "string",
          "name": "region",
          "type": "string"
        },
        {
          "internalType": "string",
          "name": "homeTeam",
          "type": "string"
        },
        {
          "internalType": "string",
          "name": "awayTeam",
          "type": "string"
        },
        {
          "internalType": "string",
          "name": "title",
          "type": "string"
        },
        {
          "internalType": "uint256",
          "name": "maxBetPerUser",
          "type": "uint256"
        }
      ],
      "stateMutability": "view",
      "type": "function"
    },
    {
      "inputs": [
        {
          "internalType": "address",
          "name": "",
          "type": "address"
        }
      ],
      "name": "predictionStreaks",
      "outputs": [
        {
          "internalType": "uint256",
          "name": "",
          "type": "uint256"
        }
      ],
      "stateMutability": "view",
      "type": "function"
    },
    {
      "inputs": [
        {
          "internalType": "uint256",
          "name": "poolId",
          "type": "uint256"
        }
      ],
      "name": "refundPool",
      "outputs": [],
      "stateMutability": "nonpayable",
      "type": "function"
    },
    {
      "inputs": [
        {
          "internalType": "uint256",
          "name": "poolId",
          "type": "uint256"
        },
        {
          "internalType": "address",
          "name": "user",
          "type": "address"
        }
      ],
      "name": "removeFromWhitelist",
      "outputs": [],
      "stateMutability": "nonpayable",
      "type": "function"
    },
    {
      "inputs": [],
      "name": "renounceOwnership",
      "outputs": [],
      "stateMutability": "nonpayable",
      "type": "function"
    },
    {
      "inputs": [],
      "name": "reputationSystem",
      "outputs": [
        {
          "internalType": "contract IReputationSystem",
          "name": "",
          "type": "address"
        }
      ],
      "stateMutability": "view",
      "type": "function"
    },
    {
      "inputs": [
        {
          "internalType": "address",
          "name": "_boostSystem",
          "type": "address"
        }
      ],
      "name": "setBoostSystem",
      "outputs": [],
      "stateMutability": "nonpayable",
      "type": "function"
    },
    {
      "inputs": [
        {
          "internalType": "address",
          "name": "_reputationSystem",
          "type": "address"
        }
      ],
      "name": "setReputationSystem",
      "outputs": [],
      "stateMutability": "nonpayable",
      "type": "function"
    },
    {
      "inputs": [
        {
          "internalType": "uint256",
          "name": "poolId",
          "type": "uint256"
        },
        {
          "internalType": "bytes32",
          "name": "outcome",
          "type": "bytes32"
        }
      ],
      "name": "settlePool",
      "outputs": [],
      "stateMutability": "nonpayable",
      "type": "function"
    },
    {
      "inputs": [
        {
          "internalType": "uint256",
          "name": "poolId",
          "type": "uint256"
        }
      ],
      "name": "settlePoolAutomatically",
      "outputs": [],
      "stateMutability": "nonpayable",
      "type": "function"
    },
    {
      "inputs": [
        {
          "internalType": "address",
          "name": "",
          "type": "address"
        }
      ],
      "name": "socialEngagement",
      "outputs": [
        {
          "internalType": "uint256",
          "name": "",
          "type": "uint256"
        }
      ],
      "stateMutability": "view",
      "type": "function"
    },
    {
      "inputs": [
        {
          "internalType": "address",
          "name": "",
          "type": "address"
        }
      ],
      "name": "streakMultiplier",
      "outputs": [
        {
          "internalType": "uint256",
          "name": "",
          "type": "uint256"
        }
      ],
      "stateMutability": "view",
      "type": "function"
    },
    {
      "inputs": [],
      "name": "totalCollectedBITR",
      "outputs": [
        {
          "internalType": "uint256",
          "name": "",
          "type": "uint256"
        }
      ],
      "stateMutability": "view",
      "type": "function"
    },
    {
      "inputs": [],
      "name": "totalCollectedSTT",
      "outputs": [
        {
          "internalType": "uint256",
          "name": "",
          "type": "uint256"
        }
      ],
      "stateMutability": "view",
      "type": "function"
    },
    {
      "inputs": [
        {
          "internalType": "address",
          "name": "newOwner",
          "type": "address"
        }
      ],
      "name": "transferOwnership",
      "outputs": [],
      "stateMutability": "nonpayable",
      "type": "function"
    },
    {
      "inputs": [
        {
          "internalType": "address",
          "name": "user",
          "type": "address"
        },
        {
          "internalType": "bool",
          "name": "won",
          "type": "bool"
        }
      ],
      "name": "updateStreak",
      "outputs": [],
      "stateMutability": "nonpayable",
      "type": "function"
    },
    {
      "inputs": [
        {
          "internalType": "address",
          "name": "",
          "type": "address"
        }
      ],
      "name": "viralScore",
      "outputs": [
        {
          "internalType": "uint256",
          "name": "",
          "type": "uint256"
        }
      ],
      "stateMutability": "view",
      "type": "function"
    }
  ],
  "bytecode": "0x60e0346200014857601f620063ec38819003918201601f19168301916001600160401b038311848410176200014d5780849260809460405283398101031262000148576200004d8162000163565b906200005c6020820162000163565b90620000796060620000716040840162000163565b920162000163565b9133156200012f57600080546001600160a01b03198082163390811784556040519791936001600160a01b03938416907f8be0079c531659141344cd1fd0a4f28419497f9722a3daafe3b4186f6b6457e09080a31690600154161760015560805260a05260c052426017556162739081620001798239608051818181610c9901526119e3015260a051818181610cde015281816134350152614b63015260c0518181816135860152818161361b0152614cd70152f35b604051631e4fbdf760e01b815260006004820152602490fd5b600080fd5b634e487b7160e01b600052604160045260246000fd5b51906001600160a01b0382168203620001485756fe6102e080604052600436101561001457600080fd5b600090813560e01c90816301b708c21461564757508063068bcd8d146153f05780630725100f146153b75780630e8a01bc14614e555780630feb6dc514614de5578063120aa87714614d9c578063152cdda914614ac6578063153d4b541461364a5780632230292214613605578063237e23be146133b257806326232a2e1461050557806326d846291461329d5780632d785461146132045780632e24c587146130d357806331143cee146130935780633256435014613070578063350df23c14613037578063379607f514612be1578063394d997614612bc35780633bdc087c14612b5e5780633e8670ff14612b2c57806340ef17b114612a7d5780634afe62b5146123fd5780634c2809f1146104b95780634d7aae78146123d957806350dcf8271461239a5780635556b676146123615780635e1871d21461233e5780635e4de665146122f3578063657c183f146122d75780636587eda1146122ae5780636b4169c314612208578063715018a6146121ae5780637b201441146120b957806384499bb6146120955780638598bcc414611eff5780638b4ed23514611ed55780638da5cb5b14611eae5780638ec0835414611dce5780638f63f74814611db05780639413f25c146119bd578063969ee14d1461184c5780639cd441da146112e55780639f82d472146110cf5780639fd482be14611083578063a12a41cf1461103c578063a695ee3814611010578063aac137d614610ff2578063ab78cc1514610fd6578063ac4afa3814610d9b578063aedc598114610d54578063c26e797e14610d0d578063c341261014610cc8578063c415b95c14610c83578063c6ae0c3b14610c4a578063c84728ef14610bc0578063cd7f99df14610948578063d3d1993d146107d3578063d7f80e9f1461074e578063d96d09aa14610505578063de96303b14610715578063e4dc4efc146106bd578063e843f61c1461061d578063eb6bc08b146105dd578063ed51754714610595578063f2fde38b1461050a578063f3baf07014610505578063f525cb68146104e7578063f6915af5146104be578063fa968eea146104b9578063faef13ac14610480578063fb2ef5cb146103b95763fea3e6131461034557600080fd5b346103b65760403660031901126103b6576004356103616156f2565b9061036f6002548210615bb6565b808352600760205260408320546001600160a01b039190610393908316331461600f565b8352600d602052604083209116600052602052604060002060ff19815416905580f35b80fd5b50346103b657602090816003193601126103b657506004356103da81616074565b906103e481616074565b926103ee8261605d565b916103fc60405193846157a8565b808352601f1961040b8261605d565b0160005b818110610471576104448661046d8961045f896104518a61042f8b616074565b9460405198899860808a5260808a0190615848565b9188830390890152615848565b9085820360408701526158e3565b908382036060850152615848565b0390f35b6060858201850152830161040f565b50346103b65760203660031901126103b6576020906040906001600160a01b036104a86156d7565b168152601e83522054604051908152f35b6158c0565b50346103b657806003193601126103b6576004546040516001600160a01b039091168152602090f35b50346103b657806003193601126103b6576020600254604051908152f35b61582b565b50346103b65760203660031901126103b6576105246156d7565b61052c615a18565b6001600160a01b0390811690811561057c57600054826001600160601b0360a01b821617600055167f8be0079c531659141344cd1fd0a4f28419497f9722a3daafe3b4186f6b6457e0600080a380f35b604051631e4fbdf760e01b815260048101849052602490fd5b50346103b65760403660031901126103b657602435906004358152601f602052604081209081548310156103b65760206105cf8484615892565b90546040519160031b1c8152f35b50346103b65760203660031901126103b6576105f76156d7565b6105ff615a18565b60018060a01b03166001600160601b0360a01b600454161760045580f35b50346103b657602090816003193601126103b657906004359161063f8361605d565b9161064d60405193846157a8565b83835261066d61065c8561605d565b8483019590601f1901368737616074565b9160405193604085019060408652518091526060850195915b8181106106a05785870384870152858061046d8988615848565b82516001600160a01b031687529583019591830191600101610686565b50346103b657806003193601126103b657601154601254601354601454601554601654601754604080519788526020880196909652948601939093526060850191909152608084015260a083015260c082015260e090f35b50346103b65760203660031901126103b6576020906040906001600160a01b0361073d6156d7565b168152601983522054604051908152f35b50346103b65760203660031901126103b6576107b79061076c6156d7565b5061046d6040519161077d8361578d565b8083526040519061078d8261578d565b81526107c56040519161079f8361578d565b60008352604051958695606087526060870190615848565b908582036020870152615848565b9083820360408501526158e3565b50346103b65760203660031901126103b657600e600d600c600b600a60096008600760ff600660056004600360136040600f9f843581526010602052209e8f9e8f9e8f9e8f9e8f9e8f9e8f9e8f9e8f9e8f9e8f9e8f9e8f9e8f8061024052549f60018101546101005260028101546101a05201549f01549f01549f0154169e01549e01549e01549e01549e01549e01549e01549e01549e01549e60108101546101405260118101546102805260128101546101e052015461016052604051806080525261010051602060805101526101a051604060805101526060608051015260808051015260a06080510152151560c0608051015260e06080510152610100608051015261012060805101526101406080510152610160608051015261018060805101526101a060805101526101c060805101526101e060805101526101405161020060805101526102805161022060805101526101e0516102406080510152610160516102606080510152610280608051f35b50346103b65760203660031901126103b65760408161028092610260835161096f8161573a565b82815282602082015282858201528260608201528260808201528260a08201528260c08201528260e08201528261010082015282610120820152826101408201528261016082015282610180820152826101a0820152826101c0820152826101e082015282610200820152826102208201528261024082015201526002546109fb600435918210615bb6565b8152601060205220610260604051610a128161573a565b601383549384835260018101546020840152600281015460408401526003810154606084015260048101546080840152600581015460a084015260ff600682015416151560c0840152600781015460e084015260088101546101008401526009810154610120840152600a810154610140840152600b810154610160840152600c810154610180840152600d8101546101a0840152600e8101546101c0840152600f8101546101e08401526010810154610200840152601181015461022084015260128101546102408401520154828201526040519283526020810151602084015260408101516040840152606081015160608401526080810151608084015260a081015160a084015260c0810151151560c084015260e081015160e08401526101008101516101008401526101208101516101208401526101408101516101408401526101608101516101608401526101808101516101808401526101a08101516101a08401526101c08101516101c08401526101e08101516101e08401526102008101516102008401526102208101516102208401526102408101516102408401520151610260820152f35b50346103b657602080600319360112610c46576001600160a01b03610be36156d7565b1682528080526040822091604051809384918482549182815201918452848420935b85828210610c3057505050610c1c925003836157a8565b61046d604051928284938452830190615848565b8554845260019586019588955093019201610c05565b5080fd5b50346103b65760203660031901126103b6576020906040906001600160a01b03610c726156d7565b168152601883522054604051908152f35b50346103b657806003193601126103b6576040517f00000000000000000000000000000000000000000000000000000000000000006001600160a01b03168152602090f35b50346103b657806003193601126103b6576040517f00000000000000000000000000000000000000000000000000000000000000006001600160a01b03168152602090f35b50346103b65760403660031901126103b6576040610d296156f2565b916004358152600b602052209060018060a01b03166000526020526020604060002054604051908152f35b50346103b65760403660031901126103b6576040610d706156f2565b9160043581526009602052209060018060a01b03166000526020526020604060002054604051908152f35b50346103b65760203660031901126103b65760043581526007602052604090208054600182015460028301546101205260038301546101805260048301546102a0526005830154600684015460078501546008860154600987015490600a88015492600b89015494600c8a015496600d8b01610e1690615972565b98610e23600e8d01615972565b9a610e30600f8e01615972565b9c610e3d60108201615972565b60a052610e4c60118201615972565b6101c052610e5c60128201615972565b6102c05260130154610200526040518061026052600160a01b60019003821690528060a01c61ffff1661026051602001528060b01c60ff166102605160400152610260516060019060b81c60ff1690610eb49161566c565b6102605160800152610120516102605160a00152610180516102605160c001526102a0516102605160e00152610260516101000152610260516101200152610260516101400152610260516101600152610260516101800152610260516101a00152610260516101c00152610260516101e001526102e0806102605161020001526102605101610f43916156b2565b61026051808203906102200152610f59916156b2565b61026051808203906102400152610f6f916156b2565b6102605180820390610260015260a05190610f89916156b2565b610260518082039061028001526101c05190610fa4916156b2565b61026051808203906102a001526102c05190610fbf916156b2565b61020051610260516102c001526102605180910390f35b50346103b657806003193601126103b6576020604051603c8152f35b50346103b657806003193601126103b6576020600554604051908152f35b50346103b65760203660031901126103b657602061103461102f6156d7565b615f2e565b604051908152f35b50346103b65760403660031901126103b6576110566156d7565b6001600160a01b031681526020805260408120805460243592908310156103b65760206105cf8484615892565b50346103b65760403660031901126103b657604061109f6156f2565b916004358152600d602052209060018060a01b0316600052602052602060ff604060002054166040519015158152f35b50346103b65760203660031901126103b6576040610220916110ef6156d7565b8161020084516110fe81615756565b82815282602082015282868201528260608201528260808201528260a08201528260c08201528260e08201528261010082015282610120820152826101408201528261016082015282610180820152826101a0820152826101c0820152826101e0820152015260018060a01b03168152600e6020522061020060405161118381615756565b601083549384835260018101546020840152600281015460408401526003810154606084015260048101546080840152600581015460a0840152600681015460c0840152600781015460e084015260088101546101008401526009810154610120840152600a810154610140840152600b810154610160840152600c810154610180840152600d8101546101a0840152600e8101546101c0840152600f8101546101e08401520154828201526040519283526020810151602084015260408101516040840152606081015160608401526080810151608084015260a081015160a084015260c081015160c084015260e081015160e08401526101008101516101008401526101208101516101208401526101408101516101408401526101608101516101608401526101808101516101808401526101a08101516101a08401526101c08101516101c08401526101e08101516101e08401520151610200820152f35b506112ef3661587c565b906112fd6002548210615bb6565b808352602060078152604084209061133161132b846000526007602052600160406000205460b01c16151590565b15615d2f565b670de0b6b3a76400008410611808576969e10de76676d080000084116117ce57611360600a8301544210615d6a565b60028201805485191061179057838652600b82526040862033600052825260406000205415611740575b6113a7846000526007602052600460406000205460b01c16151590565b611719575b838652600b82526040862033600052825260406000205415611700575b838652600b82526040862033600052825260406000206113ea868254615a51565b90556113f7858254615a51565b809155600483015480159081156116f2575b50156116e657915b61ffff815460a01c1660631981019081116116d257606493848102908082048614901517156116be5760039161144691615b04565b910155611466836000526007602052600860406000205460b01c16151590565b156116ae576001546040516323b872dd60e01b815233600482015230602482015260448101869052908290829060649082908a906001600160a01b03165af180156116a3578690611669575b6114bc9150615aa1565b82600052601081526040600020916114d5858454615a51565b808455600184018054914260088701558280611654575b505085600052600784526115036040600020615bf1565b9060c082018051611628575b5060a082019187835115156000146115e7575060e001518481029481860414901517156115d1577fc733c2813826d31c105dbff518b08258e9e7aeb3eb1c7c7f642d77696faf501d95600a60008051602061621e833981519152946115798a976040965190615b04565b60048401551015806115b8575b61159f90600683019060ff801983541691151516179055565b549054825191825285820152a26040519384523393a380f35b5061159f610e106115c94242615ae4565b109050611586565b634e487b7160e01b600052601160045260246000fd5b94604093507fc733c2813826d31c105dbff518b08258e9e7aeb3eb1c7c7f642d77696faf501d97915060008051602061621e83398151915294600a91611579565b60e0830151858102908082048714901517156115d157611649915190615b04565b60078701553861150f565b61165d91615b04565b600286015538826114ec565b508181813d831161169c575b61167f81836157a8565b81010312611698576116936114bc91615a44565b6114b2565b8580fd5b503d611675565b6040513d88823e3d90fd5b6116b9843414615a5e565b6114bc565b634e487b7160e01b88526011600452602488fd5b634e487b7160e01b87526011600452602487fd5b50600182015491611411565b905060018401541038611409565b838652600a82526117143360408820615b30565b6113c9565b838652600d82526040862033600052825261173b60ff60406000205416615dad565b6113ac565b838652600a8252606460408720541061138a5760405162461bcd60e51b8152600481018390526015602482015274546f6f206d616e79204c502070726f76696465727360581b6044820152606490fd5b60405162461bcd60e51b815260048101839052601660248201527543726561746f72207374616b65206f766572666c6f7760501b6044820152606490fd5b6064906040519062461bcd60e51b8252600482015260136024820152724c697175696469747920746f6f206c6172676560681b6044820152fd5b6064906040519062461bcd60e51b82526004820152601760248201527f4c69717569646974792062656c6f77206d696e696d756d0000000000000000006044820152fd5b50346103b65760203660031901126103b6576001600160a01b0361186e6156d7565b1690818152600e60205261046d604082209260405161188c81615756565b6119b085549485835260018701546020840152600287015496876040850152600381015493846060820152600482015460808201526005820154908160a082015260068301549060c08101918252600784015460e082015260088401549761010098898301526009850154916102006010610120978589850152600a810154610140850152600b810154610160850152600c810154610180850152600d8101546101a0850152600e8101546101c0850152600f8101546101e085015201549101528552601e6020526040852054915192604051956119698761578d565b8652604051976119788961578d565b600089526040519c8d9c8d5260208d015260408c015260608b015260808a015260a089015260c08801528060e0880152860190615848565b91848303908501526158e3565b50346103b657602080600319360112610c46576119d86156d7565b906001600160a01b037f0000000000000000000000000000000000000000000000000000000000000000818116929133849003611d76576005549460065494861593849182159081611c6f575b5087159687159283611b15575b505091611b0d575b50611a43578680f35b1691601e8402938404601e141715611af957601e8402938404601e141715611ae557908184923b15611ae15760649183604492846040519788968795633d6bcfaf60e11b87520460048601520460248401525af18015611ad657611aab575b80808080808680f35b6001600160401b038111611ac25760405238611aa2565b634e487b7160e01b82526041600452602482fd5b6040513d84823e3d90fd5b8280fd5b634e487b7160e01b84526011600452602484fd5b634e487b7160e01b85526011600452602485fd5b905038611a3a565b909350601e8902898104601e14891715611c5b5760648c9104816006558186611b7c8d611b47858d6001541692615ae4565b60405163a9059cbb60e01b8082526001600160a01b039099166004820152602481019190915295869283919082906044820190565b03925af1928315611c4e578793611c15575b506001546040519485526001600160a01b038916600486015260248501929092528391891690829081604481015b03925af1938415611c0a57879415611a325790809450813d8311611c03575b611be581836157a8565b81010312611bff57611bf78693615a44565b503880611a32565b8980fd5b503d611bdb565b6040513d8d823e3d90fd5b9283813d8311611c47575b611c2a81836157a8565b810103126103b657611bbc93611c408894615a44565b5093611b8e565b503d611c20565b50604051903d90823e3d90fd5b634e487b7160e01b8c52601160045260248cfd5b90919250601e8902898104601e14871715611d62578a80808c94611c9c6064839604809784600555615ae4565b905af1611ca7615efe565b5015611d135789808080938888165af1611cbf615efe565b5015611cce5790849138611a25565b60405162461bcd60e51b815260048101879052601b60248201527f535454207374616b696e67207472616e73666572206661696c656400000000006044820152606490fd5b60405162461bcd60e51b815260048101889052602160248201527f5354542066656520636f6c6c6563746f72207472616e73666572206661696c656044820152601960fa1b6064820152608490fd5b634e487b7160e01b8b52601160045260248bfd5b60405162461bcd60e51b815260048101849052601260248201527127b7363c903332b29031b7b63632b1ba37b960711b6044820152606490fd5b50346103b657806003193601126103b6576020600654604051908152f35b50346103b657806003193601126103b657600254611deb81616074565b8291835b818110611e44575050611e0182616074565b925b828110611e20576040516020808252819061046d90820187615848565b80611e2e611e3f9284616049565b51611e398287616049565b52615ba7565b611e03565b611e61816000526007602052600160406000205460b01c16151590565b1580611e96575b611e7b575b611e7690615ba7565b611def565b92611e8e8185611e39611e769487616049565b939050611e6d565b508085526007602052600a6040862001544210611e68565b50346103b657806003193601126103b657546040516001600160a01b039091168152602090f35b50346103b65760203660031901126103b65760406020916004358152602183522054604051908152f35b50346103b65760203660031901126103b6576001600160a01b03611f216156d7565b1690818152600e6020526040812061208a60405193611f3f85615756565b61207b83549485875260018501546020880152600285015460408801526003850154606088015260048501548060808901526005860154978860a082015261020060106006890154988960c0850152600781015460e085015260088101546101008501526009810154610120850152600a810154610140850152600b810154610160850152600c810154610180850152600d8101546101a0850152600e8101546101c0850152600f8101546101e08501520154910152838252601e60205260408220546018602052604083205490601960205260408420549260408051956120268761578d565b8087528151986120358a61578d565b818a528152601b6020522054986040519b8c9b8c5260208c015260408b015260608a0152608089015260a088015260c087015261014060e0870152610140860190615848565b90848203610100860152615848565b906101208301520390f35b50346103b657806003193601126103b65760206040516802b5e3af16b18800008152f35b50346103b65760203660031901126103b657600435906001600160401b0382116103b65760e061210d60206120f136600487016157e4565b6120f96160a6565b50816040519382858094519384920161568f565b8101600f81520301902060066040519161212683615772565b8054835260018101546020840152600281015460408401526003810154606084015260048101546080840152600581015460a0840152015460c08201526121ac604051809260c08091805184526020810151602085015260408101516040850152606081015160608501526080810151608085015260a081015160a08501520151910152565bf35b50346103b657806003193601126103b6576121c7615a18565b80546001600160a01b03198116825581906001600160a01b03167f8be0079c531659141344cd1fd0a4f28419497f9722a3daafe3b4186f6b6457e08280a380f35b50346103b657806003193601126103b6576122216160a6565b5060e060405161223081615772565b6011548152601254602082015260135460408201526014546060820152601554608082015260165460a082015260175460c08201526121ac604051809260c08091805184526020810151602085015260408101516040850152606081015160608501526080810151608085015260a081015160a08501520151910152565b50346103b657806003193601126103b6576003546040516001600160a01b039091168152602090f35b50346103b657806003193601126103b657602060405160648152f35b50346103b6576123023661587c565b91908152600a602052604081209081548310156103b65760206123258484615892565b905460405160039290921b1c6001600160a01b03168152f35b50346103b65760203660031901126103b657602060025460043510604051908152f35b50346103b65760203660031901126103b6576020906040906001600160a01b036123896156d7565b168152601a83522054604051908152f35b50346103b65760203660031901126103b65760209060ff906040906001600160a01b036123c56156d7565b168152601d84522054166040519015158152f35b50346103b657806003193601126103b6576020604051683635c9adc5dea000008152f35b506124073661587c565b906124156002548210615bb6565b8083526020600781526040842061242b81615bf1565b61244b61132b856000526007602052600160406000205460b01c16151590565b670de0b6b3a76400008510612a445769152d02c7e14af68000008511612a0f5761247b6101a08201514210615d6a565b60e081019081518681159182156129f8575b5050156129ed5760a0810151925b61ffff85830151166064948581029080820487149015171561289157606319820191821161289157906124cd91615b04565b92836124da898351615a51565b116129bd57908787949392858b526009885260408b20338c52885260408b2054888c821580612955575b6125218a6000526007602052600460406000205460b01c16151590565b612930575b6102c0880180516128c0575b509261254d928695949261256797936128a5575b5050615a51565b878d5260098a526040808e20338f528b528d205551615a51565b6004820193818555806003840155858b5260078852601060408c205460b01c1615918261285f575b50506127f1575b5050506125b6906000526007602052600860406000205460b01c16151590565b156127e1576001546040516323b872dd60e01b815233600482015230602482015260448101869052908390829060649082908a906001600160a01b03165af180156116a35786906127ab575b61260c9150615aa1565b8285526010825260408520612622858254615a51565b808255600182019283549160018301809311612733578285554260088501558280612796575b50508588526007855261265d60408920615bf1565b60c08101805161276a575b5060a08101908782511515600014612747575060e0015182810292818404149015171561273357938693600a60008051602061621e833981519152946126b560409560019a995190615b04565b600484015510158061271a575b6126db90600683019060ff801983541691151516179055565b549054825191825285820152a26040519384528301527fb1bd10cf5ea9540f12b9b182707734fd82deacc56830e2bd316133deb372bff460403393a380f35b506126db610e1061272b4242615ae4565b1090506126c2565b634e487b7160e01b89526011600452602489fd5b949050600196959150600a60008051602061621e833981519152946040946126b5565b60e08201519083820291808304851490151715611d62575161278b91615b04565b600785015538612668565b61279f91615b04565b60028401553882612648565b508281813d83116127da575b6127c181836157a8565b81010312611698576127d561260c91615a44565b612602565b503d6127b7565b6127ec843414615a5e565b61260c565b805460ff60b01b19811660b091821c60ff1660101790911b60ff60b01b161790557fd43c77f044c1f8bc6adf6676b4ce17edda35ef8ee63f154568826c0ecb3c6bf39060609060018060a01b039051169254604051906005825287820152426040820152a382388080612596565b879193949596508092500290808204871490151715612891576128888895949392603c92615b04565b1015388061258f565b634e487b7160e01b8a52601160045260248afd5b60086128b9928d8352526040339120615b30565b8b8f612546565b939591509395969798506128d5915084615a51565b9051106128ec57918991888c8b9897969538612532565b60405162461bcd60e51b815260048101899052601860248201527f45786365656473206d617820626574207065722075736572000000000000000060448201528790fd5b898252600d835260408220338352835261295060ff604084205416615dad565b612526565b9395969798929450905052600888526101f460408c2054101561298157918991888c8b98979695612504565b60405162461bcd60e51b8152600481018990526015602482015274546f6f206d616e79207061727469636970616e747360581b60448201528790fd5b60405162461bcd60e51b8152600481018790526009602482015268141bdbdb08199d5b1b60ba1b60448201528590fd5b60808101519261249b565b612a029250615a51565b608082015110863861248d565b60405162461bcd60e51b815260048101849052600d60248201526c42657420746f6f206c6172676560981b6044820152606490fd5b60405162461bcd60e51b81526004810184905260116024820152704265742062656c6f77206d696e696d756d60781b6044820152606490fd5b50346103b65760203660031901126103b657600435906001600160401b0382116103b657612ac66020612ab336600486016157e4565b816040519382858094519384920161568f565b8101600f815203019020805461046d600183015492600281015490600381015460048201549060066005840154930154936040519788978893909796959260c0959260e08601998652602086015260408501526060840152608083015260a08201520152565b50346103b657612b3b3661587c565b919081526008602052604081209081548310156103b65760206123258484615892565b50346103b657602080600319360112610c46576004358252601f81526040822091604051809384918482549182815201918452848420935b85828210612bad57505050610c1c925003836157a8565b8554845260019586019588955093019201612b96565b50346103b657806003193601126103b6576020604051620151808152f35b50346103b657602080600319360112610c4657600435612c046002548210615bb6565b80835260078252612c1760408420615bf1565b91612c35826000526007602052600160406000205460b01c16151590565b1561300557818452600c815260408420338552815260ff604085205416612fcf57818452600c815260408085203386528252808520805460ff191660011790558285526007825284205484939060b01c60021615612e9357828552600b82526040852033865282526040852054908115908115612e49575b5050505b82612cba578380f35b612cd7826000526007602052600860406000205460b01c16151590565b15612dd45760015460405163a9059cbb60e01b8152336004820152602481018590529082908290604490829089906001600160a01b03165af1908115612dc9578591612d90575b5015612d57577f24b5efa61dd1cfc659205a97fb8ed868f3cb8c81922bab2b96423e5de1de2cb7905b6040519384523393a33880808380f35b6064906040519062461bcd60e51b82526004820152601260248201527110925514881c185e5bdd5d0819985a5b195960721b6044820152fd5b90508181813d8311612dc2575b612da781836157a8565b81010312612dbe57612db890615a44565b38612d1e565b8480fd5b503d612d9d565b6040513d87823e3d90fd5b8380808086335af1612de4615efe565b5015612e11577f24b5efa61dd1cfc659205a97fb8ed868f3cb8c81922bab2b96423e5de1de2cb790612d47565b6064906040519062461bcd60e51b82526004820152601160248201527014d515081c185e5bdd5d0819985a5b1959607a1b6044820152fd5b90919294506127109182840290848204841417156116d2578160e0612e7b612e839360a0612e8a989796015190615b04565b910151615af1565b0490615a51565b91388080612cad565b6009825260408520338652825260408520549081612eb3575b5050612cb1565b83919450612eca61ffff8460649301511686615af1565b0493612ef6612710612eee612edf8489615ae4565b612ee833615f2e565b90615af1565b048096615ae4565b9480612f83575b50612f1b826000526007602052600860406000205460b01c16151590565b15612f7257686c6b935b8bbd4000008110155b15612eac576040519060038252838201524260408201527fd43c77f044c1f8bc6adf6676b4ce17edda35ef8ee63f154568826c0ecb3c6bf360603392a38138612eac565b678ac7230489e80000811015612f2e565b612fa0836000526007602052600860406000205460b01c16151590565b15612fbb57612fb190600654615a51565b6006555b38612efd565b612fc790600554615a51565b600555612fb5565b6064906040519062461bcd60e51b82526004820152600f60248201526e105b1c9958591e4818db185a5b5959608a1b6044820152fd5b6064906040519062461bcd60e51b82526004820152600b60248201526a139bdd081cd95d1d1b195960aa1b6044820152fd5b50346103b65760203660031901126103b6576020906040906001600160a01b0361305f6156d7565b168152601b83522054604051908152f35b50346103b657806003193601126103b6576020604051674563918244f400008152f35b50346103b65760203660031901126103b6576130ad6156d7565b6130b5615a18565b60018060a01b03166001600160601b0360a01b600354161760035580f35b50346103b65760203660031901126103b657600f600e600d600c600b600a60096008600760066005600460036002604060109f60018060a01b036131156156d7565b1681528e602052209e8f9e8f9e8f9e8f9e8f9e8f9e8f9e8f9e8f9e8f9e8f9e8f9e8f9e8f9e8f549f60018101546102205201549f01549f01549f01549f01549f01549f01549f01549f01549f01549f01549f01549f01549f01549f015460e0526040518060c0525261022051602060c0510152604060c0510152606060c0510152608060c051015260a060c051015260c08051015260e060c051015261010060c051015261012060c051015261014060c051015261016060c051015261018060c05101526101a060c05101526101c060c05101526101e060c051015260e05161020060c051015261022060c051f35b50346103b65760403660031901126103b6576004356132216156f2565b9061322f6002548210615bb6565b808352600760205260408320546001600160a01b0390613252908216331461600f565b818452600d6020526040842092169182845260205260408320600160ff198254161790557fef35c6815799b054cdc749d1f5bb07547c285ef9d7559c6e839da576f42b49098380a380f35b50346103b65760403660031901126103b6576132b76156d7565b6024358015158103611ae157303314801561339f575b1561336b57156133475760018060a01b031680825260209060188252604083206132f78154615ba7565b9055825260188152604082205460198252604083205410613330575b60188152601a61332660408420546160de565b9152604082205580f35b601881526040822054601982526040832055613313565b60018060a01b031681526018602052806040812055601a6020526001604082205580f35b60405162461bcd60e51b815260206004820152600c60248201526b155b985d5d1a1bdc9a5e995960a21b6044820152606490fd5b5082546001600160a01b031633146132cd565b50346103b65760403660031901126103b6576004356024356133d76002548310615bb6565b8183526007602052604083209061340a613404846000526007602052600160406000205460b01c16151590565b15615deb565b61341a6009830154421015615e29565b81549160ff8360b81c1660028110156135f1578061354d57507f00000000000000000000000000000000000000000000000000000000000000006001600160a01b03163303613513576134b4600160ff7f86acb9671870fda5e7ea8aa500f96625102d6f2e5a2ee12d3ca0fb612850fa29955b85600686015560b01c1617829081549060ff60b01b9060b01b169060ff60b01b1916179055565b600581015482141590816134ed575b600b429101556134d28461610e565b6040805192835290151560208301524290820152606090a280f35b805460ff60b01b19811660b091821c60ff1660021790911b60ff60b01b161781556134c3565b60405162461bcd60e51b81526020600482015260126024820152714f6e6c7920677569646564206f7261636c6560701b6044820152606490fd5b600114613583575b6134b4600160ff7f86acb9671870fda5e7ea8aa500f96625102d6f2e5a2ee12d3ca0fb612850fa299561348d565b337f00000000000000000000000000000000000000000000000000000000000000006001600160a01b0316146135555760405162461bcd60e51b81526020600482015260166024820152754f6e6c79206f7074696d6973746963206f7261636c6560501b6044820152606490fd5b634e487b7160e01b86526021600452602486fd5b50346103b657806003193601126103b6576040517f00000000000000000000000000000000000000000000000000000000000000006001600160a01b03168152602090f35b506101c03660031901126103b65760a4356001600160401b038111610c46576136779036906004016157e4565b60c4356001600160401b038111611ae1576136969036906004016157e4565b9060e4356001600160401b03811161419d576136b69036906004016157e4565b610104351515610104350361419d57610144351515610144350361419d57600261016435101561419d5760086101a435101561419d5760646024351180614ab8575b15614a5d576003546001600160a01b0316806148cc575b50610144351561487557683635c9adc5dea0000060443510614830575b69d3c21bcecceda1000000604435116147f9574260643511156147b457606435608435111561476f57603c4201804211611af957606435111561473957610144351561472a57836802b5e3af16b18800005b61378a60443582615a51565b610144351561470a576001546040516323b872dd60e01b81523360048201523060248201526044810192909252909260209184916064918391906001600160a01b03165af19182156116a35786926146ca575b506137ea6137f292615aa1565b600654615a51565b6006555b602435606319810111611ae5576024356063190115614696576064604435026044358104606414604435151715611af957613838906024356063190190615b04565b90606435603b19810111611af957620151806084350160843511611af95784916101043561468d575b61014435614683575b60ff6040519361387985615708565b33855261ffff60243516602086015216604084015261389e6101643560608501615b24565b604435608084015260443560a084015260c08301528460e08301526004356101008301528461012083015261018435610140830152606435610160830152608435610180830152603b19606435016101a0830152846101c083015262015180608435016101e083015282610200830152836102208301526102408201526040516139278161578d565b84815261026082015260405161393c8161578d565b8481526102808201526040516139518161578d565b8481526102a0820152610124356102c082015260025484526007602090815260408086208351815493850151928501516001600160b81b03199094166001600160a01b03919091161760a09290921b61ffff60a01b169190911760b09290921b60ff60b01b1691909117815590606081015160028110156135f157825460ff60b81b191660b89190911b60ff60b81b161782556080810151600183015560a0810151600283015560c0810151600383015560e08101516004830155610100810151600583015561012081015160068301556101408101516007830155610160810151600883015561018081015160098301556101a0810151600a8301556101c0810151600b8301556101e0810151600c8301556102008101518051906001600160401b03821161427d578190613a8a600d860154615938565b601f8111614633575b50602090601f83116001146145c45788926145b9575b50508160011b916000199060031b1c191617600d8301555b6102208101518051906001600160401b03821161427d578190613ae7600e860154615938565b601f8111614569575b50602090601f83116001146144fa5788926144ef575b50508160011b916000199060031b1c191617600e8301555b6102408101518051906001600160401b03821161427d578190613b44600f860154615938565b601f811161449f575b50602090601f8311600114614430578892614425575b50508160011b916000199060031b1c191617600f8301555b6102608101518051906001600160401b03821161427d578190613ba16010860154615938565b601f81116143d5575b50602090601f831160011461436657889261435b575b50508160011b916000199060031b1c19161760108301555b6102808101518051906001600160401b03821161427d578190613bfe6011860154615938565b601f811161430b575b50602090601f831160011461429c578892614291575b50508160011b916000199060031b1c19161760118301555b6102a08101518051906001600160401b03821161427d57613c596012850154615938565b601f8111614239575b50602090601f83116001146141c6579180601394926102c0948a926141bb575b50508160011b916000199060031b1c19161760128501555b01519101556003546001600160a01b031680156141b45760206024916040519283809263baccbfdb60e01b82523360048301525afa9081156141a9578491614173575b505b60405190613cec8261573a565b60443582526001602083015260443560408301526060820152606460808201528360a08201528360c08201528360e08201524261010082015283610120820152836101408201528361016082015283610180820152836101a082015260056101c0820152836101e082015260056102008201528361022082015283610240820152836102608201526002548452601060205260136102606040862092805184556020810151600185015560408101516002850155606081015160038501556080810151600485015560a08101516005850155613ddd60c08201511515600686019060ff801983541691151516179055565b60e0810151600785015561010081015160088501556101208101516009850155610140810151600a850155610160810151600b850155610180810151600c8501556101a0810151600d8501556101c0810151600e8501556101e0810151600f85015561020081015160108501556102208101516011850155610240810151601285015501519101556002548352600a602052613e7c3360408520615b30565b6002548352600b602052604083203384526020526044356040842055815160208301208352601f602052613eb66040842060025490615b6b565b33835260208052613ecd6040842060025490615b6b565b33835260208052604083205480600019810111611ae55760025484526021602052600019016040842055338352600e60205260408320613f0d8154615ba7565b80825560078201613f1e8154615ba7565b90556002820190613f326044358354615a51565b8092558061415e575b50506003546001600160a01b0316806140cf575b50506020927f0969c5071aabc67e302a63a5cbdf2d1fab657f3743f459fa914094ae7604c0ee926140469260405186818451613f8e818385890161568f565b8101600f815203019020613fa28154615ba7565b80825560018201613fb66044358254615a51565b809155426006840155816140b8575b505050613fd3601154615ba7565b80601155613fe5604435601254615a51565b908160125542601755806140a5575b5050600254948594859261405560405192839260643584526084358c850152614023604085016101643561566c565b6101843560608501526101a435608085015260e060a085015260e08401906156b2565b82810360c084015233966156b2565b0390a3604051908152604435848201524260408201527fd43c77f044c1f8bc6adf6676b4ce17edda35ef8ee63f154568826c0ecb3c6bf360603392a361409a81615ba7565b600255604051908152f35b6140ae91615b04565b6015553880613ff4565b6002916140c491615b04565b910155388080613fc5565b9060206024926040519384809263baccbfdb60e01b82523360048301525afa918215612dc9578592614128575b5060040155827f0969c5071aabc67e302a63a5cbdf2d1fab657f3743f459fa914094ae7604c0ee613f4f565b9091506020813d602011614156575b81614144602093836157a8565b81010312612dbe5751906140466140fc565b3d9150614137565b61416791615b04565b60038201553880613f3b565b90506020813d6020116141a1575b8161418e602093836157a8565b8101031261419d575138613cdd565b8380fd5b3d9150614181565b6040513d86823e3d90fd5b5082613cdf565b015190503880613c82565b906012850188526020882091885b601f1985168110614221575092601394926001926102c09583601f19811610614208575b505050811b016012850155613c9a565b015160001960f88460031b161c191690553880806141f8565b919260206001819286850151815501940192016141d4565b60128501885260208820601f840160051c810160208510614276575b601f830160051c8201811061426b575050613c62565b898155600101614255565b5080614255565b634e487b7160e01b87526041600452602487fd5b015190503880613c1d565b9250601185018852602088209088935b601f19841685106142f0576001945083601f198116106142d7575b505050811b016011830155613c35565b015160001960f88460031b161c191690553880806142c7565b818101518355602094850194600190930192909101906142ac565b90915060118501885260208820601f840160051c810160208510614354575b90849392915b601f830160051c82018110614346575050613c07565b8a8155859450600101614330565b508061432a565b015190503880613bc0565b9250601085018852602088209088935b601f19841685106143ba576001945083601f198116106143a1575b505050811b016010830155613bd8565b015160001960f88460031b161c19169055388080614391565b81810151835560209485019460019093019290910190614376565b90915060108501885260208820601f840160051c81016020851061441e575b90849392915b601f830160051c82018110614410575050613baa565b8a81558594506001016143fa565b50806143f4565b015190503880613b63565b9250600f85018852602088209088935b601f1984168510614484576001945083601f1981161061446b575b505050811b01600f830155613b7b565b015160001960f88460031b161c1916905538808061445b565b81810151835560209485019460019093019290910190614440565b909150600f8501885260208820601f840160051c8101602085106144e8575b90849392915b601f830160051c820181106144da575050613b4d565b8a81558594506001016144c4565b50806144be565b015190503880613b06565b9250600e85018852602088209088935b601f198416851061454e576001945083601f19811610614535575b505050811b01600e830155613b1e565b015160001960f88460031b161c19169055388080614525565b8181015183556020948501946001909301929091019061450a565b909150600e8501885260208820601f840160051c8101602085106145b2575b90849392915b601f830160051c820181106145a4575050613af0565b8a815585945060010161458e565b5080614588565b015190503880613aa9565b9250600d85018852602088209088935b601f1984168510614618576001945083601f198116106145ff575b505050811b01600d830155613ac1565b015160001960f88460031b161c191690553880806145ef565b818101518355602094850194600190930192909101906145d4565b909150600d8501885260208820601f840160051c81016020851061467c575b90849392915b601f830160051c8201811061466e575050613a93565b8a8155859450600101614658565b5080614652565b916008179161386a565b60049250613861565b60405162461bcd60e51b815260206004820152600c60248201526b496e76616c6964206f64647360a01b6044820152606490fd5b91506020823d8211614702575b816146e4602093836157a8565b81010312611698576137ea6146fb6137f293615a44565b92506137dd565b3d91506146d7565b614722925061471a903414615a5e565b600554615a51565b6005556137f6565b83670de0b6b3a764000061377e565b60405162461bcd60e51b815260206004820152600e60248201526d22bb32b73a103a37b79039b7b7b760911b6044820152606490fd5b60405162461bcd60e51b815260206004820152601d60248201527f4576656e7420656e64206d7573742062652061667465722073746172740000006044820152606490fd5b60405162461bcd60e51b815260206004820152601760248201527f4576656e74206d75737420626520696e206675747572650000000000000000006044820152606490fd5b60405162461bcd60e51b815260206004820152600f60248201526e5374616b6520746f6f206c6172676560881b6044820152606490fd5b60405162461bcd60e51b815260206004820152601860248201527f42495452207374616b652062656c6f77206d696e696d756d00000000000000006044820152606490fd5b674563918244f40000604435101561372c5760405162461bcd60e51b815260206004820152601760248201527f535454207374616b652062656c6f77206d696e696d756d0000000000000000006044820152606490fd5b6020602491600161016435146000146149a1576040516313f31f3960e31b815233600482015292839182905afa908115612dc9578591614968575b5015614914575b3861370f565b60405162461bcd60e51b815260206004820152602660248201527f496e73756666696369656e742072657075746174696f6e20666f72204f50454e60448201526520706f6f6c7360d01b6064820152608490fd5b90506020813d8211614999575b81614982602093836157a8565b81010312612dbe5761499390615a44565b38614907565b3d9150614975565b60405163fbad6cf560e01b815233600482015292839182905afa908115612dc9578591614a24575b5061490e5760405162461bcd60e51b815260206004820152602860248201527f496e73756666696369656e742072657075746174696f6e20666f722047554944604482015267454420706f6f6c7360c01b6064820152608490fd5b90506020813d8211614a55575b81614a3e602093836157a8565b81010312612dbe57614a4f90615a44565b386149c9565b3d9150614a31565b60405162461bcd60e51b815260206004820152602d60248201527f496e76616c6964206f6464733a206d757374206265206265747765656e20312e60448201526c0303120616e64203130302e303609c1b6064820152608490fd5b5061271060243511156136f8565b50346103b657602080600319360112610c465760043590614aea6002548310615bb6565b8183526007815260408320614b15613404846000526007602052600160406000205460b01c16151590565b614b256009820154421015615e29565b8054848060b883901c60ff166002811015614d885780614ca7575050506007820154604051632e8d1dc160e11b8152600481019190915285816024817f00000000000000000000000000000000000000000000000000000000000000006001600160a01b03165afa9081156116a35786908792614c82575b5015614c3d57614bac90615edb565b9260015b15614c05575060068201839055815460ff60b01b191660b091821c60ff1660011790911b60ff60b01b161781557f86acb9671870fda5e7ea8aa500f96625102d6f2e5a2ee12d3ca0fb612850fa2991906134b4565b6064906040519062461bcd60e51b8252600482015260116024820152704f7574636f6d65206e6f7420726561647960781b6044820152fd5b60405162461bcd60e51b815260048101859052601c60248201527f477569646564206f7574636f6d65206e6f7420617661696c61626c65000000006044820152606490fd5b9050614ca091503d8088833e614c9881836157a8565b810190615e6b565b9038614b9d565b91949160001901614bb057506007830154604051632e8d1dc160e11b8152600481019190915290935085816024817f00000000000000000000000000000000000000000000000000000000000000006001600160a01b03165afa9081156116a35786908792614d6b575b5015614d2857614d2090615edb565b926001614bb0565b6064846040519062461bcd60e51b825280600483015260248201527f4f7074696d6973746963206f7574636f6d65206e6f742066696e616c697a65646044820152fd5b9050614d8191503d8088833e614c9881836157a8565b9038614d11565b634e487b7160e01b88526021600452602488fd5b50346103b65760403660031901126103b65760ff6040602092614dbd6156f2565b6004358252600c85528282206001600160a01b03909116825284522054604051911615158152f35b50346103b657806003193601126103b6576101409060125490601154601354601454614e1660055460065490615a51565b91601554936040519687526020870152604086015260608501528260808501528260a08501528260c085015260e0840152610100830152610120820152f35b50346103b657602080600319360112610c465760043590614e796002548310615bb6565b8183526007815260408320614ea4613404846000526007602052600160406000205460b01c16151590565b600c81015442111561537257805460ff60b01b19811660b091821c60ff16600190811790921b60ff60b01b1617909155828452600a825280604085206040519081858254918281520191885285882090885b87828210615356575050505081614f0e9103826157a8565b85825b6151a8575b5050508284526008825260408420604051808285829454938481520190885285882092885b868883831061518a5750505050614f54925003826157a8565b84825b614fb8575b50505060607f5d017285e8f2eb1ffcbc2466eaedb487942e395d5f1e312f09e9384b1687bea591614f8c8461610e565b60136040519180835282015272105c989a5d1c985d1a5bdb881d1a5b595bdd5d606a1b6040820152a280f35b81518110156151855782919086856001600160a01b0380614fd98587616049565b5116898452600983526040842081855283526040842054918261500c575b505050505061500590615ba7565b9091614f57565b90919293949596506150318a6000526007602052600860406000205460b01c16151590565b1561511d57875460405163a9059cbb60e01b81526001600160a01b039390931660048401526024830193909352909350839160449183918c91165af19081156151125787916150d9575b5015615094579061500583925b90508685388080614ff7565b60405162461bcd60e51b815260048101859052601960248201527f4249545220626574746f7220726566756e64206661696c6564000000000000006044820152606490fd5b90508481813d831161510b575b6150f081836157a8565b810103126151075761510190615a44565b3861507b565b8680fd5b503d6150e6565b6040513d89823e3d90fd5b50839250829182915af161512f615efe565b501561514057906150058392615088565b60405162461bcd60e51b815260048101859052601860248201527f53545420626574746f7220726566756e64206661696c656400000000000000006044820152606490fd5b614f5c565b86546001600160a01b03168552958101958795509093019201614f3b565b81518110156153515786856001600160a01b03806151c68587616049565b5116898452600b8352604084208185528352604084205491826151f8575b50505050506151f290615ba7565b82614f11565b909192939495965061521d8a6000526007602052600860406000205460b01c16151590565b156152f257875460405163a9059cbb60e01b81526001600160a01b039390931660048401526024830193909352909350839160449183918c91165af19081156151125787916152bd575b501561528057906151f283925b905086853880806151e4565b60405162461bcd60e51b815260048101859052601560248201527410925514881314081c99599d5b990819985a5b1959605a1b6044820152606490fd5b90508481813d83116152eb575b6152d481836157a8565b81010312615107576152e590615a44565b38615267565b503d6152ca565b50839250829182915af1615304615efe565b501561531557906151f28392615274565b60405162461bcd60e51b815260048101859052601460248201527314d515081314081c99599d5b990819985a5b195960621b6044820152606490fd5b614f16565b83546001600160a01b0316855287969401939283019201614ef6565b60405162461bcd60e51b815260048101839052601e60248201527f4172626974726174696f6e20706572696f64206e6f74206578706972656400006044820152606490fd5b50346103b65760203660031901126103b6576020906040906001600160a01b036153df6156d7565b168152601c83522054604051908152f35b50346103b65760203660031901126103b6576040816154cb926102c0835161541781615708565b82815282602082015282858201528260608201528260808201528260a08201528260c08201528260e08201528261010082015282610120820152826101408201528261016082015282610180820152826101a0820152826101c0820152826101e08201526060610200820152606061022082015260606102408201526060610260820152606061028082015260606102a082015201526002546154be600435918210615bb6565b8152600760205220615bf1565b60405180916020825260018060a01b03815116602083015261ffff602082015116604083015260ff60408201511660608301526155106060820151608084019061566c565b608081015160a083015260a081015160c083015260c081015160e083015260e08101516101008301526101008101516101208301526101208101516101408301526101408101516101608301526101608101516101808301526101808101516101a08301526101a08101516101c08301526101c08101516101e08301526101e08101516102008301526102008101516102c061563c6155be6102e093846102208801526103008701906156b2565b6156276156116155fb6155e561022089015194601f1995868c8303016102408d01526156b2565b610240890151858b8303016102608c01526156b2565b610260880151848a8303016102808b01526156b2565b61028087015183898303016102a08a01526156b2565b906102a08601519087830301848801526156b2565b920151908301520390f35b905034610c465781600319360112610c46576001546001600160a01b03168152602090f35b9060028210156156795752565b634e487b7160e01b600052602160045260246000fd5b60005b8381106156a25750506000910152565b8181015183820152602001615692565b906020916156cb8151809281855285808601910161568f565b601f01601f1916010190565b600435906001600160a01b03821682036156ed57565b600080fd5b602435906001600160a01b03821682036156ed57565b6102e081019081106001600160401b0382111761572457604052565b634e487b7160e01b600052604160045260246000fd5b61028081019081106001600160401b0382111761572457604052565b61022081019081106001600160401b0382111761572457604052565b60e081019081106001600160401b0382111761572457604052565b602081019081106001600160401b0382111761572457604052565b90601f801991011681019081106001600160401b0382111761572457604052565b6001600160401b03811161572457601f01601f191660200190565b81601f820112156156ed578035906157fb826157c9565b9261580960405194856157a8565b828452602083830101116156ed57816000926020809301838601378301015290565b346156ed5760003660031901126156ed5760206040516101f48152f35b90815180825260208080930193019160005b828110615868575050505090565b83518552938101939281019260010161585a565b60409060031901126156ed576004359060243590565b80548210156158aa5760005260206000200190600090565b634e487b7160e01b600052603260045260246000fd5b346156ed5760003660031901126156ed576020604051670de0b6b3a76400008152f35b90815180825260208092019182818360051b85019501936000915b84831061590e5750505050505090565b909192939495848061592883856001950387528a516156b2565b98019301930191949392906158fe565b90600182811c92168015615968575b602083101461595257565b634e487b7160e01b600052602260045260246000fd5b91607f1691615947565b906040519182600082549261598684615938565b9081845260019485811690816000146159f557506001146159b2575b50506159b0925003836157a8565b565b9093915060005260209081600020936000915b8183106159dd5750506159b0935082010138806159a2565b855488840185015294850194879450918301916159c5565b9150506159b094506020925060ff191682840152151560051b82010138806159a2565b6000546001600160a01b03163303615a2c57565b60405163118cdaa760e01b8152336004820152602490fd5b519081151582036156ed57565b919082018092116115d157565b15615a6557565b60405162461bcd60e51b8152602060048201526014602482015273125b98dbdc9c9958dd0814d51508185b5bdd5b9d60621b6044820152606490fd5b15615aa857565b60405162461bcd60e51b815260206004820152601460248201527310925514881d1c985b9cd9995c8819985a5b195960621b6044820152606490fd5b919082039182116115d157565b818102929181159184041417156115d157565b8115615b0e570490565b634e487b7160e01b600052601260045260246000fd5b60028210156156795752565b8054600160401b81101561572457615b4d91600182018155615892565b819291549060031b9160018060a01b03809116831b921b1916179055565b90815491600160401b8310156157245782615b8e9160016159b095018155615892565b90919082549060031b91821b91600019901b1916179055565b60001981146115d15760010190565b15615bbd57565b60405162461bcd60e51b815260206004820152600c60248201526b125b9d985b1a59081c1bdbdb60a21b6044820152606490fd5b90604051615bfe81615708565b6102c060138294615c3c60ff825460018060a01b038116875261ffff8160a01c166020880152818160b01c16604088015260b81c1660608601615b24565b60018101546080850152600281015460a0850152600381015460c0850152600481015460e085015260058101546101008501526006810154610120850152600781015461014085015260088101546101608501526009810154610180850152600a8101546101a0850152600b8101546101c0850152600c8101546101e0850152615cc8600d8201615972565b610200850152615cda600e8201615972565b610220850152615cec600f8201615972565b610240850152615cfe60108201615972565b610260850152615d1060118201615972565b610280850152615d2260128201615972565b6102a08501520154910152565b15615d3657565b60405162461bcd60e51b815260206004820152600c60248201526b141bdbdb081cd95d1d1b195960a21b6044820152606490fd5b15615d7157565b60405162461bcd60e51b815260206004820152601460248201527310995d1d1a5b99c81c195c9a5bd908195b99195960621b6044820152606490fd5b15615db457565b60405162461bcd60e51b815260206004820152600f60248201526e139bdd081dda1a5d195b1a5cdd1959608a1b6044820152606490fd5b15615df257565b60405162461bcd60e51b815260206004820152600f60248201526e105b1c9958591e481cd95d1d1b1959608a1b6044820152606490fd5b15615e3057565b60405162461bcd60e51b8152602060048201526013602482015272115d995b9d081b9bdd08195b991959081e595d606a1b6044820152606490fd5b91906040838203126156ed57615e8083615a44565b926020810151906001600160401b0382116156ed570181601f820112156156ed578051615eac816157c9565b92615eba60405194856157a8565b818452602082840101116156ed57615ed8916020808501910161568f565b90565b602081519101519060208110615eef575090565b6000199060200360031b1b1690565b3d15615f29573d90615f0f826157c9565b91615f1d60405193846157a8565b82523d6000602084013e565b606090565b6001546040516370a0823160e01b81526001600160a01b0392831660048201529160209183916024918391165afa90811561600357600091615fd2575b50690a968163f0a57b400000811015615fcc5769043c33c1937564800000811015615fc55769010f0cf064dd59200000811015615fbe57686c6b935b8bbd4000001115615fb8576101f490565b6101c290565b5061019090565b5061015e90565b5060fa90565b906020823d8211615ffb575b81615feb602093836157a8565b810103126103b657505138615f6b565b3d9150615fde565b6040513d6000823e3d90fd5b1561601657565b60405162461bcd60e51b815260206004820152600b60248201526a2737ba1031b932b0ba37b960a91b6044820152606490fd5b80518210156158aa5760209160051b010190565b6001600160401b0381116157245760051b60200190565b9061607e8261605d565b61608b60405191826157a8565b828152809261609c601f199161605d565b0190602036910137565b604051906160b382615772565b8160c06000918281528260208201528260408201528260608201528260808201528260a08201520152565b601481101561610857600a81101561610257600511156160fd57600190565b600290565b50600390565b50600590565b90600082815260206007815260018060a01b036040832054168252808052604082209380835260218252604083205485549081811080616204575b616157575b50505050509050565b600019918083019081116161f0578082036161bf575b505085549586156161ab57816021959697019161618a8383615892565b909182549160031b1b1916905555835252604081205580388080808061614e565b634e487b7160e01b85526031600452602485fd5b6161c99088615892565b90549060031b1c6161de81615b8e848b615892565b8552602184526040852055388061616d565b634e487b7160e01b86526011600452602486fd5b50826162108289615892565b90549060031b1c1461614956feae1dd3f2d7e1c58d3a89e27565ac6732a48cc3a0ee34874f1749e6fcca597308a264697066735822122071948ce00cef464a6c170aef69db52d3365bc0c43842b37a79cd78e40851dfa064736f6c63430008140033",
  "linkReferences": {},
  "deployedLinkReferences": {}
}