{
  "_format": "hh-sol-artifact-1",
  "contractName": "BitredictBoostSystem",
  "sourceName": "contracts/BitredictBoostSystem.sol",
  "abi": [
    {
      "inputs": [
        {
          "internalType": "address",
          "name": "_poolCore",
          "type": "address"
        },
        {
          "internalType": "address",
          "name": "_revenueCollector",
          "type": "address"
        }
      ],
      "stateMutability": "nonpayable",
      "type": "constructor"
    },
    {
      "inputs": [
        {
          "internalType": "address",
          "name": "owner",
          "type": "address"
        }
      ],
      "name": "OwnableInvalidOwner",
      "type": "error"
    },
    {
      "inputs": [
        {
          "internalType": "address",
          "name": "account",
          "type": "address"
        }
      ],
      "name": "OwnableUnauthorizedAccount",
      "type": "error"
    },
    {
      "anonymous": false,
      "inputs": [
        {
          "indexed": false,
          "internalType": "enum BoostTier",
          "name": "tier",
          "type": "uint8"
        },
        {
          "indexed": false,
          "internalType": "uint256",
          "name": "totalUsage",
          "type": "uint256"
        },
        {
          "indexed": false,
          "internalType": "uint256",
          "name": "totalRevenue",
          "type": "uint256"
        }
      ],
      "name": "BoostAnalyticsUpdated",
      "type": "event"
    },
    {
      "anonymous": false,
      "inputs": [
        {
          "indexed": true,
          "internalType": "uint256",
          "name": "poolId",
          "type": "uint256"
        },
        {
          "indexed": false,
          "internalType": "enum BoostTier",
          "name": "tier",
          "type": "uint8"
        }
      ],
      "name": "BoostExpired",
      "type": "event"
    },
    {
      "anonymous": false,
      "inputs": [
        {
          "indexed": true,
          "internalType": "address",
          "name": "collector",
          "type": "address"
        },
        {
          "indexed": false,
          "internalType": "uint256",
          "name": "amount",
          "type": "uint256"
        }
      ],
      "name": "BoostRevenueClaimed",
      "type": "event"
    },
    {
      "anonymous": false,
      "inputs": [
        {
          "indexed": true,
          "internalType": "uint256",
          "name": "poolId",
          "type": "uint256"
        },
        {
          "indexed": false,
          "internalType": "enum BoostTier",
          "name": "fromTier",
          "type": "uint8"
        },
        {
          "indexed": false,
          "internalType": "enum BoostTier",
          "name": "toTier",
          "type": "uint8"
        },
        {
          "indexed": false,
          "internalType": "uint256",
          "name": "additionalFee",
          "type": "uint256"
        }
      ],
      "name": "BoostUpgraded",
      "type": "event"
    },
    {
      "anonymous": false,
      "inputs": [
        {
          "indexed": true,
          "internalType": "address",
          "name": "previousOwner",
          "type": "address"
        },
        {
          "indexed": true,
          "internalType": "address",
          "name": "newOwner",
          "type": "address"
        }
      ],
      "name": "OwnershipTransferred",
      "type": "event"
    },
    {
      "anonymous": false,
      "inputs": [
        {
          "indexed": true,
          "internalType": "uint256",
          "name": "poolId",
          "type": "uint256"
        },
        {
          "indexed": false,
          "internalType": "enum BoostTier",
          "name": "tier",
          "type": "uint8"
        },
        {
          "indexed": false,
          "internalType": "uint256",
          "name": "expiry",
          "type": "uint256"
        },
        {
          "indexed": false,
          "internalType": "uint256",
          "name": "fee",
          "type": "uint256"
        },
        {
          "indexed": true,
          "internalType": "address",
          "name": "booster",
          "type": "address"
        }
      ],
      "name": "PoolBoosted",
      "type": "event"
    },
    {
      "inputs": [],
      "name": "BOOST_DURATION",
      "outputs": [
        {
          "internalType": "uint256",
          "name": "",
          "type": "uint256"
        }
      ],
      "stateMutability": "view",
      "type": "function"
    },
    {
      "inputs": [],
      "name": "MAX_BRONZE_POOLS",
      "outputs": [
        {
          "internalType": "uint256",
          "name": "",
          "type": "uint256"
        }
      ],
      "stateMutability": "view",
      "type": "function"
    },
    {
      "inputs": [],
      "name": "MAX_GOLD_POOLS",
      "outputs": [
        {
          "internalType": "uint256",
          "name": "",
          "type": "uint256"
        }
      ],
      "stateMutability": "view",
      "type": "function"
    },
    {
      "inputs": [],
      "name": "MAX_SILVER_POOLS",
      "outputs": [
        {
          "internalType": "uint256",
          "name": "",
          "type": "uint256"
        }
      ],
      "stateMutability": "view",
      "type": "function"
    },
    {
      "inputs": [
        {
          "internalType": "enum BoostTier",
          "name": "",
          "type": "uint8"
        }
      ],
      "name": "activeBoostCount",
      "outputs": [
        {
          "internalType": "uint256",
          "name": "",
          "type": "uint256"
        }
      ],
      "stateMutability": "view",
      "type": "function"
    },
    {
      "inputs": [],
      "name": "batchCleanupExpiredBoosts",
      "outputs": [],
      "stateMutability": "nonpayable",
      "type": "function"
    },
    {
      "inputs": [
        {
          "internalType": "uint256",
          "name": "",
          "type": "uint256"
        }
      ],
      "name": "bitrBoostFees",
      "outputs": [
        {
          "internalType": "uint256",
          "name": "",
          "type": "uint256"
        }
      ],
      "stateMutability": "view",
      "type": "function"
    },
    {
      "inputs": [],
      "name": "boostAnalytics",
      "outputs": [
        {
          "internalType": "uint256",
          "name": "totalBoostedPools",
          "type": "uint256"
        },
        {
          "internalType": "uint256",
          "name": "totalBoostRevenue",
          "type": "uint256"
        },
        {
          "internalType": "uint256",
          "name": "averageBoostDuration",
          "type": "uint256"
        },
        {
          "internalType": "uint256",
          "name": "lastUpdated",
          "type": "uint256"
        }
      ],
      "stateMutability": "view",
      "type": "function"
    },
    {
      "inputs": [
        {
          "internalType": "uint256",
          "name": "",
          "type": "uint256"
        }
      ],
      "name": "boostFees",
      "outputs": [
        {
          "internalType": "uint256",
          "name": "",
          "type": "uint256"
        }
      ],
      "stateMutability": "view",
      "type": "function"
    },
    {
      "inputs": [
        {
          "internalType": "uint256",
          "name": "poolId",
          "type": "uint256"
        },
        {
          "internalType": "enum BoostTier",
          "name": "tier",
          "type": "uint8"
        }
      ],
      "name": "boostPool",
      "outputs": [],
      "stateMutability": "payable",
      "type": "function"
    },
    {
      "inputs": [
        {
          "internalType": "uint256",
          "name": "poolId",
          "type": "uint256"
        },
        {
          "internalType": "enum BoostTier",
          "name": "tier",
          "type": "uint8"
        }
      ],
      "name": "canBoostPool",
      "outputs": [
        {
          "internalType": "bool",
          "name": "canBoost",
          "type": "bool"
        },
        {
          "internalType": "string",
          "name": "reason",
          "type": "string"
        }
      ],
      "stateMutability": "view",
      "type": "function"
    },
    {
      "inputs": [],
      "name": "claimBoostRevenue",
      "outputs": [],
      "stateMutability": "nonpayable",
      "type": "function"
    },
    {
      "inputs": [
        {
          "internalType": "uint256[]",
          "name": "poolIds",
          "type": "uint256[]"
        }
      ],
      "name": "cleanupExpiredBoosts",
      "outputs": [],
      "stateMutability": "nonpayable",
      "type": "function"
    },
    {
      "inputs": [],
      "name": "emergencyWithdraw",
      "outputs": [],
      "stateMutability": "nonpayable",
      "type": "function"
    },
    {
      "inputs": [
        {
          "internalType": "uint256",
          "name": "poolId",
          "type": "uint256"
        },
        {
          "internalType": "uint256",
          "name": "additionalHours",
          "type": "uint256"
        }
      ],
      "name": "extendBoost",
      "outputs": [],
      "stateMutability": "payable",
      "type": "function"
    },
    {
      "inputs": [],
      "name": "getBoostAnalytics",
      "outputs": [
        {
          "internalType": "uint256",
          "name": "totalBoostedPools",
          "type": "uint256"
        },
        {
          "internalType": "uint256",
          "name": "totalBoostRevenueValue",
          "type": "uint256"
        },
        {
          "internalType": "uint256",
          "name": "averageBoostDuration",
          "type": "uint256"
        },
        {
          "internalType": "uint256",
          "name": "bronzeUsage",
          "type": "uint256"
        },
        {
          "internalType": "uint256",
          "name": "silverUsage",
          "type": "uint256"
        },
        {
          "internalType": "uint256",
          "name": "goldUsage",
          "type": "uint256"
        },
        {
          "internalType": "uint256",
          "name": "lastUpdated",
          "type": "uint256"
        }
      ],
      "stateMutability": "view",
      "type": "function"
    },
    {
      "inputs": [
        {
          "internalType": "uint256",
          "name": "poolId",
          "type": "uint256"
        },
        {
          "internalType": "enum BoostTier",
          "name": "tier",
          "type": "uint8"
        }
      ],
      "name": "getBoostCost",
      "outputs": [
        {
          "internalType": "uint256",
          "name": "cost",
          "type": "uint256"
        }
      ],
      "stateMutability": "view",
      "type": "function"
    },
    {
      "inputs": [
        {
          "internalType": "uint256",
          "name": "poolId",
          "type": "uint256"
        }
      ],
      "name": "getBoostInfo",
      "outputs": [
        {
          "internalType": "enum BoostTier",
          "name": "tier",
          "type": "uint8"
        },
        {
          "internalType": "uint256",
          "name": "expiry",
          "type": "uint256"
        },
        {
          "internalType": "uint256",
          "name": "startTime",
          "type": "uint256"
        },
        {
          "internalType": "address",
          "name": "booster",
          "type": "address"
        },
        {
          "internalType": "bool",
          "name": "isActive",
          "type": "bool"
        },
        {
          "internalType": "uint256",
          "name": "remainingTime",
          "type": "uint256"
        }
      ],
      "stateMutability": "view",
      "type": "function"
    },
    {
      "inputs": [],
      "name": "getBoostStats",
      "outputs": [
        {
          "internalType": "uint256",
          "name": "totalBoosted",
          "type": "uint256"
        },
        {
          "internalType": "uint256",
          "name": "bronzeBoosted",
          "type": "uint256"
        },
        {
          "internalType": "uint256",
          "name": "silverBoosted",
          "type": "uint256"
        },
        {
          "internalType": "uint256",
          "name": "goldBoosted",
          "type": "uint256"
        },
        {
          "internalType": "uint256",
          "name": "totalRevenue",
          "type": "uint256"
        },
        {
          "internalType": "uint256",
          "name": "averageFee",
          "type": "uint256"
        }
      ],
      "stateMutability": "view",
      "type": "function"
    },
    {
      "inputs": [],
      "name": "getBoostedPools",
      "outputs": [
        {
          "internalType": "uint256[]",
          "name": "poolIds",
          "type": "uint256[]"
        },
        {
          "internalType": "enum BoostTier[]",
          "name": "tiers",
          "type": "uint8[]"
        }
      ],
      "stateMutability": "view",
      "type": "function"
    },
    {
      "inputs": [
        {
          "internalType": "enum BoostTier",
          "name": "tier",
          "type": "uint8"
        }
      ],
      "name": "getBoostedPoolsByTier",
      "outputs": [
        {
          "internalType": "uint256[]",
          "name": "",
          "type": "uint256[]"
        }
      ],
      "stateMutability": "view",
      "type": "function"
    },
    {
      "inputs": [
        {
          "internalType": "uint256",
          "name": "poolId",
          "type": "uint256"
        }
      ],
      "name": "getPoolBoost",
      "outputs": [
        {
          "internalType": "enum BoostTier",
          "name": "tier",
          "type": "uint8"
        },
        {
          "internalType": "uint256",
          "name": "expiry",
          "type": "uint256"
        }
      ],
      "stateMutability": "view",
      "type": "function"
    },
    {
      "inputs": [
        {
          "internalType": "uint256",
          "name": "limit",
          "type": "uint256"
        }
      ],
      "name": "getTopBoostedPools",
      "outputs": [
        {
          "internalType": "uint256[]",
          "name": "poolIds",
          "type": "uint256[]"
        },
        {
          "internalType": "enum BoostTier[]",
          "name": "tiers",
          "type": "uint8[]"
        },
        {
          "internalType": "uint256[]",
          "name": "expiries",
          "type": "uint256[]"
        }
      ],
      "stateMutability": "pure",
      "type": "function"
    },
    {
      "inputs": [
        {
          "internalType": "uint256",
          "name": "poolId",
          "type": "uint256"
        }
      ],
      "name": "isPoolBoosted",
      "outputs": [
        {
          "internalType": "bool",
          "name": "",
          "type": "bool"
        }
      ],
      "stateMutability": "view",
      "type": "function"
    },
    {
      "inputs": [],
      "name": "owner",
      "outputs": [
        {
          "internalType": "address",
          "name": "",
          "type": "address"
        }
      ],
      "stateMutability": "view",
      "type": "function"
    },
    {
      "inputs": [],
      "name": "pauseBoostSystem",
      "outputs": [],
      "stateMutability": "nonpayable",
      "type": "function"
    },
    {
      "inputs": [
        {
          "internalType": "uint256",
          "name": "",
          "type": "uint256"
        }
      ],
      "name": "poolBoostExpiry",
      "outputs": [
        {
          "internalType": "uint256",
          "name": "",
          "type": "uint256"
        }
      ],
      "stateMutability": "view",
      "type": "function"
    },
    {
      "inputs": [
        {
          "internalType": "uint256",
          "name": "",
          "type": "uint256"
        }
      ],
      "name": "poolBoostStartTime",
      "outputs": [
        {
          "internalType": "uint256",
          "name": "",
          "type": "uint256"
        }
      ],
      "stateMutability": "view",
      "type": "function"
    },
    {
      "inputs": [
        {
          "internalType": "uint256",
          "name": "",
          "type": "uint256"
        }
      ],
      "name": "poolBoostTier",
      "outputs": [
        {
          "internalType": "enum BoostTier",
          "name": "",
          "type": "uint8"
        }
      ],
      "stateMutability": "view",
      "type": "function"
    },
    {
      "inputs": [
        {
          "internalType": "uint256",
          "name": "",
          "type": "uint256"
        }
      ],
      "name": "poolBooster",
      "outputs": [
        {
          "internalType": "address",
          "name": "",
          "type": "address"
        }
      ],
      "stateMutability": "view",
      "type": "function"
    },
    {
      "inputs": [],
      "name": "poolCore",
      "outputs": [
        {
          "internalType": "contract IBitredictPoolCore",
          "name": "",
          "type": "address"
        }
      ],
      "stateMutability": "view",
      "type": "function"
    },
    {
      "inputs": [],
      "name": "renounceOwnership",
      "outputs": [],
      "stateMutability": "nonpayable",
      "type": "function"
    },
    {
      "inputs": [],
      "name": "revenueCollector",
      "outputs": [
        {
          "internalType": "address",
          "name": "",
          "type": "address"
        }
      ],
      "stateMutability": "view",
      "type": "function"
    },
    {
      "inputs": [
        {
          "internalType": "address",
          "name": "_poolCore",
          "type": "address"
        }
      ],
      "name": "setPoolCore",
      "outputs": [],
      "stateMutability": "nonpayable",
      "type": "function"
    },
    {
      "inputs": [
        {
          "internalType": "address",
          "name": "_revenueCollector",
          "type": "address"
        }
      ],
      "name": "setRevenueCollector",
      "outputs": [],
      "stateMutability": "nonpayable",
      "type": "function"
    },
    {
      "inputs": [],
      "name": "totalBoostRevenue",
      "outputs": [
        {
          "internalType": "uint256",
          "name": "",
          "type": "uint256"
        }
      ],
      "stateMutability": "view",
      "type": "function"
    },
    {
      "inputs": [
        {
          "internalType": "address",
          "name": "newOwner",
          "type": "address"
        }
      ],
      "name": "transferOwnership",
      "outputs": [],
      "stateMutability": "nonpayable",
      "type": "function"
    },
    {
      "inputs": [
        {
          "internalType": "uint256[4]",
          "name": "_newFees",
          "type": "uint256[4]"
        }
      ],
      "name": "updateBoostFees",
      "outputs": [],
      "stateMutability": "nonpayable",
      "type": "function"
    },
    {
      "stateMutability": "payable",
      "type": "receive"
    }
  ],
  "bytecode": "0x60803462000248576200208d906001600160401b03601f38849003908101601f1916830190828211848310176200024d57808491604096879485528339810103126200024857620000508262000283565b6200005f602080940162000283565b903315620002305760008054336001600160a01b031980831682178455956001600160a01b03948594909390929085167f8be0079c531659141344cd1fd0a4f28419497f9722a3daafe3b4186f6b6457e08480a3620000bd62000263565b828152671bc16d674ec8000089820152674563918244f400008a820152678ac7230489e800006060820152825b6004811062000217575050506200010062000263565b81815267a688906bd8b00000888201526801a055690d9db8000089820152680340aad21b3b7000006060820152905b60048110620001f757505016918215620001b3571692831562000170575081600154161760015560105416176010554260165551611df49081620002998239f35b60649085519062461bcd60e51b82526004820152601960248201527f496e76616c696420726576656e756520636f6c6c6563746f72000000000000006044820152fd5b855162461bcd60e51b815260048101869052601960248201527f496e76616c696420706f6f6c20636f72652061646472657373000000000000006044820152606490fd5b81516001600160481b03166006820155849350908701906001016200012f565b81518316600282015586955090890190600101620000ea565b8451631e4fbdf760e01b815260006004820152602490fd5b600080fd5b634e487b7160e01b600052604160045260246000fd5b60405190608082016001600160401b038111838210176200024d57604052565b51906001600160a01b0382168203620002485756fe6080604081815260049081361015610022575b505050361561002057600080fd5b005b600092833560e01c90816325edb328146115af57816333649e1c1461157e5750806338cac0c21461155557806339cb2c91146115295780633df2afa614611501578063480d1541146114cf57806348c367b5146114645780634f0236071461140a578063715018a6146113c25780637210b206146113355780637ed2882e1461129b57806385ea86751461123057806386e4673e146112085780638da5cb5b146111e057806394cbdbe0146111265780639bd55d31146110a85780639eadf2d7146110895780639f010deb14611023578063a824578314610e41578063aa57f57e14610df1578063ab48992914610d01578063b33ef43d14610cd5578063b6a1b6a514610cac578063cd7358b914610c90578063cde38cdf14610c40578063d505854714610bf6578063d9c6176c14610bd8578063db2e21bc14610b16578063db885cec14610add578063e233459314610839578063e82ac07614610805578063ebbe74d71461064a578063f286d160146106ce578063f2fde38b1461064f578063f56926b21461064a578063f8bf195f1461064a578063fd121539146105f15763ffd230c903610012576101d6366116ae565b929091818410156105de5783156105a6576001548151632f0c38e960e11b815280840185905260249360209290916001600160a01b039182169084818881855afa8015610562578a9061056c575b61022e91506117b0565b8451809163068bcd8d60e01b8252888583015281886104409485935afa918215610562578a92610514575b50501633036104db5761026b86611ca3565b610274876116d2565b5410156104a957848752600b825260ff838820541693866002015482861015610497578515158080610484575b1561045b575085881115610421577f1f04bf32346be6ad58fcb574391fb7ad3c912bf4f5ef6c758624501be99e4c5460606102e28993896002015490611960565b976102ec816116d2565b6102f6815461193d565b9055610304885180926115c3565b6103108782018c6115c3565b8888820152a25b8434036103e45761032a85600f5461196d565b600f55858852600b835283882060ff1981541660ff8916179055620151804201918242116103d3575050848752600c80835283882091909155600d8252828720429055600e825282872080546001600160a01b03191633179055600080516020611d7f83398151915293929161039f876116d2565b6103a9815461197a565b90556103b58488611cd3565b858852526103cd818720549151928392339784611989565b0390a380f35b634e487b7160e01b89526011905287fd5b601a9192606494519362461bcd60e51b855284015282015279125b98dbdc9c9958dd08189bdbdcdd0819995948185b5bdd5b9d60321b6044820152fd5b5060169192606494519362461bcd60e51b85528401528201527510d85b881bdb9b1e481d5c19dc98591948189bdbdcdd60521b6044820152fd5b959095610469575b50610317565b610472906116d2565b61047c815461193d565b905538610463565b50878a52600c8552858a205442106102a1565b50634e487b7160e01b88526021825287fd5b600f8460649385519362461bcd60e51b85528401528201526e109bdbdcdd081d1a595c88199d5b1b608a1b6044820152fd5b60168460649385519362461bcd60e51b85528401528201527513db9b1e4818dc99585d1bdc8818d85b88189bdbdcdd60521b6044820152fd5b6105339250803d1061055b575b61052b818361168b565b810190611800565b5050505050505050505050505050505050505050505050505050505050505050503880610259565b503d610521565b86513d8c823e3d90fd5b508481813d831161059f575b610582818361168b565b8101031261059b5761059661022e916117a3565b610224565b8980fd5b503d610578565b906020606492519162461bcd60e51b8352820152601260248201527124b73b30b634b2103137b7b9ba103a34b2b960711b6044820152fd5b634e487b7160e01b855260218252602485fd5b5091903461064657602036600319011261064657358152600b60205260ff828220541690600c60205282812054908142101561063c575b50610635835180936115c3565b6020820152f35b9150508038610628565b5080fd5b61171d565b50346106ca5760203660031901126106ca576001600160a01b038235818116939192908490036106c657610681611739565b83156106b057505082546001600160a01b031981168317845516600080516020611d9f8339815191528380a380f35b51631e4fbdf760e01b8152908101849052602490fd5b8480fd5b8280fd5b5090346106ca57826003193601126106ca576010546001600160a01b039081169133831480156107f9575b156107c5574792831561078c578580808681945af16107166119a6565b501561074f57507f582a791fd86fb488ef8a2d4c5d6786ded47a2ed6621bb569f836291489aae22b91602091601054169351908152a280f35b606490602085519162461bcd60e51b8352820152601760248201527614995d995b9d59481d1c985b9cd9995c8819985a5b1959604a1b6044820152fd5b845162461bcd60e51b815260208184015260136024820152724e6f20726576656e756520746f20636c61696d60681b6044820152606490fd5b606490602085519162461bcd60e51b8352820152600e60248201526d139bdd08185d5d1a1bdc9a5e995960921b6044820152fd5b508185541633146106f9565b50823461083657602036600319011261083657823592831015610836575061082e6020926116d2565b549051908152f35b80fd5b5090816003193601126106ca57803590602492833560018060a01b039081600154169183518093632f0c38e960e11b82528787830152818960209687935afa8015610ad3578990610a99575b61088f91506117b0565b858852600e835283882054163303610a5c57848752600b825260ff83882054169584871015610a4b578615610a1757858852600c8352838820544210156109de578115948515806109d3575b156109995787600201548381029080820485149015171561098757601890049586340361094c5761090e87600f5461196d565b600f55610e108085029485041417156103d3575050600080516020611d7f833981519152939291600c918689528282526103a9848a2091825461196d565b5060176064928587519362461bcd60e51b855284015282015276496e636f727265637420657874656e73696f6e2066656560481b6044820152fd5b50634e487b7160e01b89526011905287fd5b60176064928587519362461bcd60e51b855284015282015276496e76616c696420657874656e73696f6e20686f75727360481b6044820152fd5b5060308311156108db565b8460156064928587519362461bcd60e51b855284015282015274109bdbdcdd08185b1c9958591e48195e1c1a5c9959605a1b6044820152fd5b8460106064928587519362461bcd60e51b85528401528201526f141bdbdb081b9bdd08189bdbdcdd195960821b6044820152fd5b634e487b7160e01b88526021855287fd5b825162461bcd60e51b8152808501839052601881880152772737ba103a34329037b934b3b4b730b6103137b7b9ba32b960411b6044820152606490fd5b508381813d8311610acc575b610aaf818361168b565b81010312610ac857610ac361088f916117a3565b610885565b8880fd5b503d610aa5565b85513d8b823e3d90fd5b83823461064657816003193601126106465760809060115490601254906013549060165492815194855260208501528301526060820152f35b50346106ca57826003193601126106ca57610b2f611739565b478015610b9e57835484918291829182916001600160a01b03165af1610b536119a6565b5015610b5d578280f35b906020606492519162461bcd60e51b8352820152601b60248201527a115b595c99d95b98de481dda5d1a191c985dd85b0819985a5b1959602a1b6044820152fd5b815162461bcd60e51b815260208185015260146024820152734e6f2066756e647320746f20776974686472617760601b6044820152606490fd5b83823461064657816003193601126106465760209051620151808152f35b508234610836576020366003190112610836578235928310156108365750610c29610c23610c3c936116d2565b546119fc565b90519182916020835260208301906115e6565b0390f35b50503461064657602036600319011261064657356001600160a01b0381169081900361064657610c6e611739565b610c79811515611765565b601080546001600160a01b03191691909117905580f35b8334610836578060031936011261083657610ca9611739565b80f35b83823461064657816003193601126106465760105490516001600160a01b039091168152602090f35b5090346106ca5760203660031901126106ca578035908110156106ca5760209250600601549051908152f35b5082903461064657610d12366116ae565b90929084811015610dde578015610dac576002015492808252600b60205260ff83832054169085821015610d9957602095508115159081610d86575b50610d5c575b505051908152f35b60020154919290919081811115610d7f57610d779250611960565b908380610d54565b5050610d77565b835250600c855282822054421086610d4e565b634e487b7160e01b835260218652602483fd5b825162461bcd60e51b8152602081870152600c60248201526b24b73b30b634b2103a34b2b960a11b6044820152606490fd5b634e487b7160e01b825260218552602482fd5b50503461064657602036600319011261064657356001600160a01b0381169081900361064657610e1f611739565b610e2a811515611765565b600180546001600160a01b03191691909117905580f35b50346106ca576020918260031936011261101f578035926001600160401b039283851161101b573660238601121561101b578483013593841161101b576024946005368787831b84010111611017578796975b868110610e9f578780f35b6001548451632f0c38e960e11b815282841b85018b013588820181905291879082908d9082906001600160a01b03165afa908115610562578a91610fe2575b5015610fd557808952600b80875260ff868b205416600c808952878c20548a831015610fc35791888d9e9d8b93610f2e989796958415159081610fb8575b50610f36575b5050505050505061197a565b979697610e94565b7f3b39599a0e569d32e7c39669f521b7704a4abb9e4ec2a4d9826f205270f6c30295878352855282822060ff19815416905584528082812055600d84528082812055600e84522060018060a01b03198154169055610f93816116d2565b610f9d815461193d565b9055610fab895180926115c3565ba238808781888e82610f22565b905042101538610f1c565b634e487b7160e01b8d5260218b528d8dfd5b50610f2e9098979861197a565b90508681813d8311611010575b610ff9818361168b565b8101031261059b5761100a906117a3565b38610ede565b503d610fef565b8780fd5b8580fd5b8380fd5b83823461064657816003193601126106465760e09160115491601254916013546001825260146020528282205490600283528380842054936003815220549360165495815197885260208801528601526060850152608084015260a083015260c0820152f35b838234610646578160031936011261064657602090600f549051908152f35b5082346108365780600319360112610836578060016110ef9252600a602052826110dd8183205460028452828420549061196d565b9160038152600a60205220549061196d565b90610c3c6111056110ff846119fc565b936119fc565b61111883519484869586528501906115e6565b90838203602085015261161a565b50823461083657602090816003193601126108365783358152600b825260ff838220541692600c83528082205490600d84528083205490600e855260018060a01b03818520541692878710156111cd5760c0975086151594856111c2575b85156111bc57506111954282611960565b955b6111a3835180996115c3565b87015285015260608401521515608083015260a0820152f35b95611197565b945080421094611184565b634e487b7160e01b855260218852602485fd5b838234610646578160031936011261064657905490516001600160a01b039091168152602090f35b5090346106ca5760203660031901126106ca576020928291358152600d845220549051908152f35b83823461064657611249611243366116ae565b90611a2e565b918051938492151583526020828185015284518093850152815b83811061128457505060608094508284010152601f80199101168101030190f35b808601820151878201606001528694508101611263565b50346106ca5760803660031901126106ca5736602312156106ca5780519060808201906001600160401b0382118383101761132257526084813682116106c65783905b828210611312575050506112f0611739565b825b8281106112fd578380f35b600190602083519301928160020155016112f2565b81358152602091820191016112de565b634e487b7160e01b855260418452602485fd5b5082903461064657816003193601126106465760115460018352600a60205281832054600284528284205460038552838520546012549395929490928615806113b7576113a4575060c09650858404945b815196875260208701528501526060840152608083015260a0820152f35b634e487b7160e01b815260128852602490fd5b5060c0975094611386565b83346108365780600319360112610836576113db611739565b80546001600160a01b03198116825581906001600160a01b0316600080516020611d9f8339815191528280a380f35b5082903461064657602036600319011261064657823591828152600b60205260ff828220541684811015610dde57602094501515928361144f575b5050519015158152f35b8293508152600c845220544210908380611445565b5082346108365760203660031901126108365750610c3c6114b492359161148a836119fc565b926114c26114a061149a836119fc565b926119fc565b9183519687966060885260608801906115e6565b90868203602088015261161a565b91848303908501526115e6565b5090346106ca5760203660031901126106ca5760ff826020946114ff93358152600b8652205416915180926115c3565bf35b5090346106ca5760203660031901126106ca576020928291358152600c845220549051908152f35b5090346106ca5760203660031901126106ca578035908110156106ca5760209250600201549051908152f35b83823461064657816003193601126106465760015490516001600160a01b039091168152602090f35b91849150346106465760203660031901126106465792358152600e6020908152929020546001600160a01b03168152f35b843461083657806003193601126108365780f35b9060048210156115d05752565b634e487b7160e01b600052602160045260246000fd5b90815180825260208080930193019160005b828110611606575050505090565b8351855293810193928101926001016115f8565b90815180825260208080930193019160005b82811061163a575050505090565b9091929382808261164e60019489516115c3565b0195019392910161162c565b604081019081106001600160401b0382111761167557604052565b634e487b7160e01b600052604160045260246000fd5b601f909101601f19168101906001600160401b0382119082101761167557604052565b60409060031901126116cd576004359060243560048110156116cd5790565b600080fd5b60048110156115d057600052600a602052604060002090565b60048110156115d0576000526014602052604060002090565b60048110156115d0576000526015602052604060002090565b346116cd5760003660031901126116cd57602060405160058152f35b6000546001600160a01b0316330361174d57565b60405163118cdaa760e01b8152336004820152602490fd5b1561176c57565b60405162461bcd60e51b815260206004820152600f60248201526e496e76616c6964206164647265737360881b6044820152606490fd5b519081151582036116cd57565b156117b757565b60405162461bcd60e51b8152602060048201526013602482015272141bdbdb08191bd95cc81b9bdd08195e1a5cdd606a1b6044820152606490fd5b519060ff821682036116cd57565b9190826104409103126116cd5781516001600160a01b03811681036116cd5791602081015161ffff811681036116cd579161183d604083016117f2565b9161184a606082016117f2565b91611857608083016117f2565b9161186460a082016117f2565b9160c08201519160e08101519161010082015191610120810151916101408201519161016081015191610180820151916101a0810151916101c0820151916118af6101e082016117f2565b9161020082015191610220810151916102408201519161026081015191610280820151916102a0810151916102c0820151916102e08101519161030082015191610320810151916103408201519161190a61036082016117a3565b916103808201519161191f6103a082016117a3565b916103c0820151916103e08101519161042061040083015192015190565b801561194a576000190190565b634e487b7160e01b600052601160045260246000fd5b9190820391821161194a57565b9190820180921161194a57565b600019811461194a5760010190565b60409194939261199d8260608101976115c3565b60208201520152565b3d156119e0573d906001600160401b03821161167557604051916119d4601f8201601f19166020018461168b565b82523d6000602084013e565b606090565b6001600160401b0381116116755760051b60200190565b90611a06826119e5565b611a13604051918261168b565b8281528092611a24601f19916119e5565b0190602036910137565b919060018060a01b0360015416604093845192632f0c38e960e11b845260049282848601526020948581602481855afa908115611bfe57600091611c6e575b5015611c3b5783821015611b80578115611c09578651809163068bcd8d60e01b825284868301528160246104409485935afa8015611bfe57611bc3575b5050611ab581611ca3565b611abe826116d2565b541015611b955781600052600b845260ff8660002054169183831015611b80578215159081611b6a575b50611b2a575b5050835160019490928301916001600160401b03831184841017611b155750526000815290565b604190634e487b7160e01b6000525260246000fd5b1115611b37573880611aee565b507510d85b881bdb9b1e481d5c19dc98591948189bdbdcdd60521b6000935191611b608361165a565b6016835282015290565b9050600052600c84528560002054421038611ae8565b602184634e487b7160e01b6000525260246000fd5b5050506e109bdbdcdd081d1a595c88199d5b1b608a1b6000935191611bb98361165a565b600f835282015290565b81611bd992903d1061055b5761052b818361168b565b5050505050505050505050505050505050505050505050505050505050505050611aaa565b88513d6000823e3d90fd5b505050507124b73b30b634b2103137b7b9ba103a34b2b960711b6000935191611c318361165a565b6012835282015290565b5050505072141bdbdb08191bd95cc81b9bdd08195e1a5cdd606a1b6000935191611c648361165a565b6013835282015290565b908682813d8311611c9c575b611c84818361168b565b810103126108365750611c96906117a3565b38611a6d565b503d611c7a565b60048110156115d05760018114611ccd5760028114611ccd57600314611cc857600090565b600590565b50600590565b7fcd94a5125a4dac18dc42874d70c23227e18aa9b209fd556060fe34110d056d1e91611d0060115461197a565b601155611d0f8160125461196d565b601255611d1b826116eb565b611d25815461197a565b9055611d3b611d3383611704565b91825461196d565b905542601655601154611d72575b611d52816116eb565b5490611d6d611d6082611704565b5460405193849384611989565b0390a1565b62015180601355611d4956fe57729166f7044080032425b1a2983f2d598bea4b7fcb81566631c207972d5a2b8be0079c531659141344cd1fd0a4f28419497f9722a3daafe3b4186f6b6457e0a2646970667358221220fb90fa70dbd16529ec2bb3451d56f89fb79e7749f48f58ed7eb5a4c21fa15a2164736f6c63430008140033",
  "linkReferences": {},
  "deployedLinkReferences": {}
}