{
  "_format": "hh-sol-artifact-1",
  "contractName": "BitredictToken",
  "sourceName": "contracts/BitredictToken.sol",
  "abi": [
    {
      "inputs": [],
      "stateMutability": "nonpayable",
      "type": "constructor"
    },
    {
      "inputs": [
        {
          "internalType": "address",
          "name": "spender",
          "type": "address"
        },
        {
          "internalType": "uint256",
          "name": "allowance",
          "type": "uint256"
        },
        {
          "internalType": "uint256",
          "name": "needed",
          "type": "uint256"
        }
      ],
      "name": "ERC20InsufficientAllowance",
      "type": "error"
    },
    {
      "inputs": [
        {
          "internalType": "address",
          "name": "sender",
          "type": "address"
        },
        {
          "internalType": "uint256",
          "name": "balance",
          "type": "uint256"
        },
        {
          "internalType": "uint256",
          "name": "needed",
          "type": "uint256"
        }
      ],
      "name": "ERC20InsufficientBalance",
      "type": "error"
    },
    {
      "inputs": [
        {
          "internalType": "address",
          "name": "approver",
          "type": "address"
        }
      ],
      "name": "ERC20InvalidApprover",
      "type": "error"
    },
    {
      "inputs": [
        {
          "internalType": "address",
          "name": "receiver",
          "type": "address"
        }
      ],
      "name": "ERC20InvalidReceiver",
      "type": "error"
    },
    {
      "inputs": [
        {
          "internalType": "address",
          "name": "sender",
          "type": "address"
        }
      ],
      "name": "ERC20InvalidSender",
      "type": "error"
    },
    {
      "inputs": [
        {
          "internalType": "address",
          "name": "spender",
          "type": "address"
        }
      ],
      "name": "ERC20InvalidSpender",
      "type": "error"
    },
    {
      "inputs": [
        {
          "internalType": "address",
          "name": "owner",
          "type": "address"
        }
      ],
      "name": "OwnableInvalidOwner",
      "type": "error"
    },
    {
      "inputs": [
        {
          "internalType": "address",
          "name": "account",
          "type": "address"
        }
      ],
      "name": "OwnableUnauthorizedAccount",
      "type": "error"
    },
    {
      "anonymous": false,
      "inputs": [
        {
          "indexed": true,
          "internalType": "address",
          "name": "owner",
          "type": "address"
        },
        {
          "indexed": true,
          "internalType": "address",
          "name": "spender",
          "type": "address"
        },
        {
          "indexed": false,
          "internalType": "uint256",
          "name": "value",
          "type": "uint256"
        }
      ],
      "name": "Approval",
      "type": "event"
    },
    {
      "anonymous": false,
      "inputs": [
        {
          "indexed": true,
          "internalType": "address",
          "name": "previousOwner",
          "type": "address"
        },
        {
          "indexed": true,
          "internalType": "address",
          "name": "newOwner",
          "type": "address"
        }
      ],
      "name": "OwnershipTransferred",
      "type": "event"
    },
    {
      "anonymous": false,
      "inputs": [
        {
          "indexed": true,
          "internalType": "address",
          "name": "from",
          "type": "address"
        },
        {
          "indexed": true,
          "internalType": "address",
          "name": "to",
          "type": "address"
        },
        {
          "indexed": false,
          "internalType": "uint256",
          "name": "value",
          "type": "uint256"
        }
      ],
      "name": "Transfer",
      "type": "event"
    },
    {
      "inputs": [],
      "name": "MAX_SUPPLY",
      "outputs": [
        {
          "internalType": "uint256",
          "name": "",
          "type": "uint256"
        }
      ],
      "stateMutability": "view",
      "type": "function"
    },
    {
      "inputs": [
        {
          "internalType": "address",
          "name": "owner",
          "type": "address"
        },
        {
          "internalType": "address",
          "name": "spender",
          "type": "address"
        }
      ],
      "name": "allowance",
      "outputs": [
        {
          "internalType": "uint256",
          "name": "",
          "type": "uint256"
        }
      ],
      "stateMutability": "view",
      "type": "function"
    },
    {
      "inputs": [
        {
          "internalType": "address",
          "name": "spender",
          "type": "address"
        },
        {
          "internalType": "uint256",
          "name": "value",
          "type": "uint256"
        }
      ],
      "name": "approve",
      "outputs": [
        {
          "internalType": "bool",
          "name": "",
          "type": "bool"
        }
      ],
      "stateMutability": "nonpayable",
      "type": "function"
    },
    {
      "inputs": [
        {
          "internalType": "address",
          "name": "account",
          "type": "address"
        }
      ],
      "name": "balanceOf",
      "outputs": [
        {
          "internalType": "uint256",
          "name": "",
          "type": "uint256"
        }
      ],
      "stateMutability": "view",
      "type": "function"
    },
    {
      "inputs": [],
      "name": "canMint",
      "outputs": [
        {
          "internalType": "bool",
          "name": "",
          "type": "bool"
        }
      ],
      "stateMutability": "pure",
      "type": "function"
    },
    {
      "inputs": [],
      "name": "decimals",
      "outputs": [
        {
          "internalType": "uint8",
          "name": "",
          "type": "uint8"
        }
      ],
      "stateMutability": "view",
      "type": "function"
    },
    {
      "inputs": [],
      "name": "maxSupply",
      "outputs": [
        {
          "internalType": "uint256",
          "name": "",
          "type": "uint256"
        }
      ],
      "stateMutability": "pure",
      "type": "function"
    },
    {
      "inputs": [
        {
          "internalType": "address",
          "name": "",
          "type": "address"
        },
        {
          "internalType": "uint256",
          "name": "",
          "type": "uint256"
        }
      ],
      "name": "mint",
      "outputs": [],
      "stateMutability": "pure",
      "type": "function"
    },
    {
      "inputs": [],
      "name": "mintingFinished",
      "outputs": [
        {
          "internalType": "bool",
          "name": "",
          "type": "bool"
        }
      ],
      "stateMutability": "view",
      "type": "function"
    },
    {
      "inputs": [],
      "name": "name",
      "outputs": [
        {
          "internalType": "string",
          "name": "",
          "type": "string"
        }
      ],
      "stateMutability": "view",
      "type": "function"
    },
    {
      "inputs": [],
      "name": "owner",
      "outputs": [
        {
          "internalType": "address",
          "name": "",
          "type": "address"
        }
      ],
      "stateMutability": "view",
      "type": "function"
    },
    {
      "inputs": [],
      "name": "renounceOwnership",
      "outputs": [],
      "stateMutability": "nonpayable",
      "type": "function"
    },
    {
      "inputs": [],
      "name": "symbol",
      "outputs": [
        {
          "internalType": "string",
          "name": "",
          "type": "string"
        }
      ],
      "stateMutability": "view",
      "type": "function"
    },
    {
      "inputs": [],
      "name": "totalSupply",
      "outputs": [
        {
          "internalType": "uint256",
          "name": "",
          "type": "uint256"
        }
      ],
      "stateMutability": "view",
      "type": "function"
    },
    {
      "inputs": [
        {
          "internalType": "address",
          "name": "to",
          "type": "address"
        },
        {
          "internalType": "uint256",
          "name": "value",
          "type": "uint256"
        }
      ],
      "name": "transfer",
      "outputs": [
        {
          "internalType": "bool",
          "name": "",
          "type": "bool"
        }
      ],
      "stateMutability": "nonpayable",
      "type": "function"
    },
    {
      "inputs": [
        {
          "internalType": "address",
          "name": "from",
          "type": "address"
        },
        {
          "internalType": "address",
          "name": "to",
          "type": "address"
        },
        {
          "internalType": "uint256",
          "name": "value",
          "type": "uint256"
        }
      ],
      "name": "transferFrom",
      "outputs": [
        {
          "internalType": "bool",
          "name": "",
          "type": "bool"
        }
      ],
      "stateMutability": "nonpayable",
      "type": "function"
    },
    {
      "inputs": [
        {
          "internalType": "address",
          "name": "newOwner",
          "type": "address"
        }
      ],
      "name": "transferOwnership",
      "outputs": [],
      "stateMutability": "nonpayable",
      "type": "function"
    }
  ],
  "bytecode": "0x60803462000411576040906001600160401b039080830182811182821017620003fb5783526009815260209068109a5d1c99591a58dd60ba1b8282015283519284840184811082821117620003fb578552600493848152632124aa2960e11b848201528251828111620003e6576003918254916001958684811c94168015620003db575b88851014620003c6578190601f9485811162000370575b5088908583116001146200030957600092620002fd575b505060001982861b1c191690861b1783555b8051938411620002e85786548581811c91168015620002dd575b87821014620002c8578281116200027d575b5085918411600114620002125793839491849260009562000206575b50501b92600019911b1c19161782555b3315620001ef57600554336001600160a01b0382167f8be0079c531659141344cd1fd0a4f28419497f9722a3daafe3b4186f6b6457e0600080a36001600160a81b0319163360ff60a01b191617600160a01b176005556002546a52b7d2dcc80cd2e400000092838201918210620001da57506000917fddf252ad1be2c89b69c2b068fc378daa952ba7f163c4a11628f55a4df523b3ef9160025533835282815284832084815401905584519384523393a3516108fd9081620004178239f35b601190634e487b7160e01b6000525260246000fd5b5060006024925191631e4fbdf760e01b8352820152fd5b0151935038806200010b565b9190601f198416928760005284876000209460005b89898383106200026557505050106200024a575b50505050811b0182556200011b565b01519060f884600019921b161c19169055388080806200023b565b86860151895590970196948501948893500162000227565b87600052866000208380870160051c820192898810620002be575b0160051c019086905b828110620002b1575050620000ef565b60008155018690620002a1565b9250819262000298565b602288634e487b7160e01b6000525260246000fd5b90607f1690620000dd565b604187634e487b7160e01b6000525260246000fd5b015190503880620000b1565b90889350601f19831691876000528a6000209260005b8c82821062000359575050841162000340575b505050811b018355620000c3565b015160001983881b60f8161c1916905538808062000332565b8385015186558c979095019493840193016200031f565b90915085600052886000208580850160051c8201928b8610620003bc575b918a91869594930160051c01915b828110620003ac5750506200009a565b600081558594508a91016200039c565b925081926200038e565b602289634e487b7160e01b6000525260246000fd5b93607f169362000083565b604186634e487b7160e01b6000525260246000fd5b634e487b7160e01b600052604160045260246000fd5b600080fdfe6080604081815260048036101561001557600080fd5b600092833560e01c90816305d2035b1461071f5750806306fdde0314610644578063095ea7b31461059b57806318160ddd1461057c57806323b872dd14610489578063313ce5671461046d57806332cb6b0c146101bd57806340c10f191461040f57806370a08231146103d8578063715018a6146103785780638da5cb5b1461034f57806395d89b411461022f578063a9059cbb146101fe578063beb9716d146101e3578063d5abeb01146101bd578063dd62ed3e146101705763f2fde38b146100de57600080fd5b3461016c57602036600319011261016c576100f761078c565b906101006107bd565b6001600160a01b03918216928315610156575050600554826bffffffffffffffffffffffff60a01b821617600555167f8be0079c531659141344cd1fd0a4f28419497f9722a3daafe3b4186f6b6457e08380a380f35b51631e4fbdf760e01b8152908101849052602490fd5b8280fd5b5050346101b957806003193601126101b9578060209261018e61078c565b6101966107a7565b6001600160a01b0391821683526001865283832091168252845220549051908152f35b5080fd5b5050346101b957816003193601126101b957602090516a52b7d2dcc80cd2e40000008152f35b5050346101b957816003193601126101b95751908152602090f35b5050346101b957806003193601126101b95760209061022861021e61078c565b60243590336107e9565b5160018152f35b509190346101b957816003193601126101b957805190828454600181811c90808316928315610345575b60209384841081146103325783885290811561031657506001146102c1575b505050829003601f01601f191682019267ffffffffffffffff8411838510176102ae57508291826102aa925282610743565b0390f35b634e487b7160e01b815260418552602490fd5b8787529192508591837f8a35acfbc15ff81a39ae7d344fd709f28e8600b4aa8c65c6b64bfe7fe36bd19b5b8385106103025750505050830101388080610278565b8054888601830152930192849082016102ec565b60ff1916878501525050151560051b8401019050388080610278565b634e487b7160e01b895260228a52602489fd5b91607f1691610259565b5050346101b957816003193601126101b95760055490516001600160a01b039091168152602090f35b83346103d557806003193601126103d5576103916107bd565b600580546001600160a01b0319811690915581906001600160a01b03167f8be0079c531659141344cd1fd0a4f28419497f9722a3daafe3b4186f6b6457e08280a380f35b80fd5b5050346101b95760203660031901126101b95760209181906001600160a01b0361040061078c565b16815280845220549051908152f35b5082346103d557826003193601126103d55750602060649261042f61078c565b505162461bcd60e51b815291820152601f60248201527f4d696e74696e67206973207065726d616e656e746c792064697361626c6564006044820152fd5b5050346101b957816003193601126101b9576020905160128152f35b5082346103d55760603660031901126103d5576104a461078c565b6104ac6107a7565b916044359360018060a01b0383168083526001602052868320338452602052868320549160001983106104e8575b6020886102288989896107e9565b86831061055057811561053957331561052257508252600160209081528683203384528152918690209085900390558290610228876104da565b8751634a1406b160e11b8152908101849052602490fd5b875163e602df0560e01b8152908101849052602490fd5b8751637dc7a0d960e11b8152339181019182526020820193909352604081018790528291506060010390fd5b5050346101b957816003193601126101b9576020906002549051908152f35b503461016c578160031936011261016c576105b461078c565b60243590331561062d576001600160a01b031691821561061657508083602095338152600187528181208582528752205582519081527f8c5be1e5ebec7d5bd14f71427d1e84f3dd0314c0f7b2291e5b200ac8c7c3b925843392a35160018152f35b8351634a1406b160e11b8152908101859052602490fd5b835163e602df0560e01b8152808401869052602490fd5b509190346101b957816003193601126101b95780519082600354600181811c90808316928315610715575b60209384841081146103325783885290811561031657506001146106bf57505050829003601f01601f191682019267ffffffffffffffff8411838510176102ae57508291826102aa925282610743565b600387529192508591837fc2575a0e9e593c00f959f8c92f12db2869c3395a3b0502d05e2516446f71f85b5b8385106107015750505050830101388080610278565b8054888601830152930192849082016106eb565b91607f169161066f565b8490346101b957816003193601126101b95760209060ff60055460a01c1615158152f35b6020808252825181830181905290939260005b82811061077857505060409293506000838284010152601f8019910116010190565b818101860151848201604001528501610756565b600435906001600160a01b03821682036107a257565b600080fd5b602435906001600160a01b03821682036107a257565b6005546001600160a01b031633036107d157565b60405163118cdaa760e01b8152336004820152602490fd5b916001600160a01b038084169283156108ae57169283156108955760009083825281602052604082205490838210610863575091604082827fddf252ad1be2c89b69c2b068fc378daa952ba7f163c4a11628f55a4df523b3ef958760209652828652038282205586815220818154019055604051908152a3565b60405163391434e360e21b81526001600160a01b03919091166004820152602481019190915260448101839052606490fd5b60405163ec442f0560e01b815260006004820152602490fd5b604051634b637e8f60e11b815260006004820152602490fdfea2646970667358221220bffcadc17f5c7e9d49aeeb8e075ed5f8b3f9b611286fac14e1ac23be405ed9ff64736f6c63430008140033",
  "linkReferences": {},
  "deployedLinkReferences": {}
}