{
  "_format": "hh-sol-artifact-1",
  "contractName": "BitredictPoolCore",
  "sourceName": "contracts/BitredictPoolCore.sol",
  "abi": [
    {
      "inputs": [
        {
          "internalType": "address",
          "name": "_bitrToken",
          "type": "address"
        },
        {
          "internalType": "address",
          "name": "_feeCollector",
          "type": "address"
        },
        {
          "internalType": "address",
          "name": "_guidedOracle",
          "type": "address"
        },
        {
          "internalType": "address",
          "name": "_optimisticOracle",
          "type": "address"
        }
      ],
      "stateMutability": "nonpayable",
      "type": "constructor"
    },
    {
      "inputs": [
        {
          "internalType": "address",
          "name": "owner",
          "type": "address"
        }
      ],
      "name": "OwnableInvalidOwner",
      "type": "error"
    },
    {
      "inputs": [
        {
          "internalType": "address",
          "name": "account",
          "type": "address"
        }
      ],
      "name": "OwnableUnauthorizedAccount",
      "type": "error"
    },
    {
      "anonymous": false,
      "inputs": [
        {
          "indexed": true,
          "internalType": "uint256",
          "name": "poolId",
          "type": "uint256"
        },
        {
          "indexed": false,
          "internalType": "uint256",
          "name": "totalVolume",
          "type": "uint256"
        },
        {
          "indexed": false,
          "internalType": "uint256",
          "name": "participantCount",
          "type": "uint256"
        }
      ],
      "name": "AnalyticsUpdated",
      "type": "event"
    },
    {
      "anonymous": false,
      "inputs": [
        {
          "indexed": true,
          "internalType": "uint256",
          "name": "poolId",
          "type": "uint256"
        },
        {
          "indexed": true,
          "internalType": "address",
          "name": "bettor",
          "type": "address"
        },
        {
          "indexed": false,
          "internalType": "uint256",
          "name": "amount",
          "type": "uint256"
        },
        {
          "indexed": false,
          "internalType": "bool",
          "name": "isForOutcome",
          "type": "bool"
        }
      ],
      "name": "BetPlaced",
      "type": "event"
    },
    {
      "anonymous": false,
      "inputs": [
        {
          "indexed": true,
          "internalType": "uint256",
          "name": "poolId",
          "type": "uint256"
        },
        {
          "indexed": true,
          "internalType": "address",
          "name": "provider",
          "type": "address"
        },
        {
          "indexed": false,
          "internalType": "uint256",
          "name": "amount",
          "type": "uint256"
        }
      ],
      "name": "LiquidityAdded",
      "type": "event"
    },
    {
      "anonymous": false,
      "inputs": [
        {
          "indexed": true,
          "internalType": "address",
          "name": "previousOwner",
          "type": "address"
        },
        {
          "indexed": true,
          "internalType": "address",
          "name": "newOwner",
          "type": "address"
        }
      ],
      "name": "OwnershipTransferred",
      "type": "event"
    },
    {
      "anonymous": false,
      "inputs": [
        {
          "indexed": true,
          "internalType": "uint256",
          "name": "poolId",
          "type": "uint256"
        },
        {
          "indexed": true,
          "internalType": "address",
          "name": "creator",
          "type": "address"
        },
        {
          "indexed": false,
          "internalType": "uint256",
          "name": "eventStartTime",
          "type": "uint256"
        },
        {
          "indexed": false,
          "internalType": "uint256",
          "name": "eventEndTime",
          "type": "uint256"
        },
        {
          "indexed": false,
          "internalType": "enum OracleType",
          "name": "oracleType",
          "type": "uint8"
        },
        {
          "indexed": false,
          "internalType": "bytes32",
          "name": "marketId",
          "type": "bytes32"
        },
        {
          "indexed": false,
          "internalType": "enum MarketType",
          "name": "marketType",
          "type": "uint8"
        },
        {
          "indexed": false,
          "internalType": "string",
          "name": "league",
          "type": "string"
        },
        {
          "indexed": false,
          "internalType": "string",
          "name": "category",
          "type": "string"
        }
      ],
      "name": "PoolCreated",
      "type": "event"
    },
    {
      "anonymous": false,
      "inputs": [
        {
          "indexed": true,
          "internalType": "uint256",
          "name": "poolId",
          "type": "uint256"
        },
        {
          "indexed": false,
          "internalType": "string",
          "name": "reason",
          "type": "string"
        }
      ],
      "name": "PoolRefunded",
      "type": "event"
    },
    {
      "anonymous": false,
      "inputs": [
        {
          "indexed": true,
          "internalType": "uint256",
          "name": "poolId",
          "type": "uint256"
        },
        {
          "indexed": false,
          "internalType": "bytes32",
          "name": "result",
          "type": "bytes32"
        },
        {
          "indexed": false,
          "internalType": "bool",
          "name": "creatorSideWon",
          "type": "bool"
        },
        {
          "indexed": false,
          "internalType": "uint256",
          "name": "timestamp",
          "type": "uint256"
        }
      ],
      "name": "PoolSettled",
      "type": "event"
    },
    {
      "anonymous": false,
      "inputs": [
        {
          "indexed": true,
          "internalType": "address",
          "name": "user",
          "type": "address"
        },
        {
          "indexed": false,
          "internalType": "enum ReputationSystem.ReputationAction",
          "name": "action",
          "type": "uint8"
        },
        {
          "indexed": false,
          "internalType": "uint256",
          "name": "value",
          "type": "uint256"
        },
        {
          "indexed": true,
          "internalType": "bytes32",
          "name": "poolId",
          "type": "bytes32"
        },
        {
          "indexed": false,
          "internalType": "uint256",
          "name": "timestamp",
          "type": "uint256"
        }
      ],
      "name": "ReputationActionOccurred",
      "type": "event"
    },
    {
      "anonymous": false,
      "inputs": [
        {
          "indexed": true,
          "internalType": "uint256",
          "name": "poolId",
          "type": "uint256"
        },
        {
          "indexed": true,
          "internalType": "address",
          "name": "user",
          "type": "address"
        },
        {
          "indexed": false,
          "internalType": "uint256",
          "name": "amount",
          "type": "uint256"
        }
      ],
      "name": "RewardClaimed",
      "type": "event"
    },
    {
      "anonymous": false,
      "inputs": [
        {
          "indexed": true,
          "internalType": "uint256",
          "name": "poolId",
          "type": "uint256"
        },
        {
          "indexed": true,
          "internalType": "address",
          "name": "user",
          "type": "address"
        }
      ],
      "name": "UserWhitelisted",
      "type": "event"
    },
    {
      "inputs": [],
      "name": "HIGH_ODDS_THRESHOLD",
      "outputs": [
        {
          "internalType": "uint256",
          "name": "",
          "type": "uint256"
        }
      ],
      "stateMutability": "view",
      "type": "function"
    },
    {
      "inputs": [],
      "name": "MAX_LP_PROVIDERS",
      "outputs": [
        {
          "internalType": "uint256",
          "name": "",
          "type": "uint256"
        }
      ],
      "stateMutability": "view",
      "type": "function"
    },
    {
      "inputs": [],
      "name": "MAX_PARTICIPANTS",
      "outputs": [
        {
          "internalType": "uint256",
          "name": "",
          "type": "uint256"
        }
      ],
      "stateMutability": "view",
      "type": "function"
    },
    {
      "inputs": [
        {
          "internalType": "uint256",
          "name": "poolId",
          "type": "uint256"
        },
        {
          "internalType": "uint256",
          "name": "amount",
          "type": "uint256"
        }
      ],
      "name": "addLiquidity",
      "outputs": [],
      "stateMutability": "payable",
      "type": "function"
    },
    {
      "inputs": [
        {
          "internalType": "uint256",
          "name": "poolId",
          "type": "uint256"
        },
        {
          "internalType": "address",
          "name": "user",
          "type": "address"
        }
      ],
      "name": "addToWhitelist",
      "outputs": [],
      "stateMutability": "nonpayable",
      "type": "function"
    },
    {
      "inputs": [
        {
          "internalType": "address",
          "name": "user",
          "type": "address"
        }
      ],
      "name": "adjustedFeeRate",
      "outputs": [
        {
          "internalType": "uint256",
          "name": "",
          "type": "uint256"
        }
      ],
      "stateMutability": "view",
      "type": "function"
    },
    {
      "inputs": [],
      "name": "arbitrationTimeout",
      "outputs": [
        {
          "internalType": "uint256",
          "name": "",
          "type": "uint256"
        }
      ],
      "stateMutability": "view",
      "type": "function"
    },
    {
      "inputs": [],
      "name": "bettingGracePeriod",
      "outputs": [
        {
          "internalType": "uint256",
          "name": "",
          "type": "uint256"
        }
      ],
      "stateMutability": "view",
      "type": "function"
    },
    {
      "inputs": [
        {
          "internalType": "uint256",
          "name": "",
          "type": "uint256"
        },
        {
          "internalType": "address",
          "name": "",
          "type": "address"
        }
      ],
      "name": "bettorStakes",
      "outputs": [
        {
          "internalType": "uint256",
          "name": "",
          "type": "uint256"
        }
      ],
      "stateMutability": "view",
      "type": "function"
    },
    {
      "inputs": [],
      "name": "bitrToken",
      "outputs": [
        {
          "internalType": "contract IERC20",
          "name": "",
          "type": "address"
        }
      ],
      "stateMutability": "view",
      "type": "function"
    },
    {
      "inputs": [],
      "name": "boostSystem",
      "outputs": [
        {
          "internalType": "contract IBitredictBoostSystem",
          "name": "",
          "type": "address"
        }
      ],
      "stateMutability": "view",
      "type": "function"
    },
    {
      "inputs": [
        {
          "internalType": "bytes32",
          "name": "",
          "type": "bytes32"
        },
        {
          "internalType": "uint256",
          "name": "",
          "type": "uint256"
        }
      ],
      "name": "categoryPools",
      "outputs": [
        {
          "internalType": "uint256",
          "name": "",
          "type": "uint256"
        }
      ],
      "stateMutability": "view",
      "type": "function"
    },
    {
      "inputs": [
        {
          "internalType": "string",
          "name": "",
          "type": "string"
        }
      ],
      "name": "categoryStats",
      "outputs": [
        {
          "internalType": "uint256",
          "name": "totalPools",
          "type": "uint256"
        },
        {
          "internalType": "uint256",
          "name": "totalVolume",
          "type": "uint256"
        },
        {
          "internalType": "uint256",
          "name": "averageOdds",
          "type": "uint256"
        },
        {
          "internalType": "uint256",
          "name": "lastActivityTime",
          "type": "uint256"
        }
      ],
      "stateMutability": "view",
      "type": "function"
    },
    {
      "inputs": [
        {
          "internalType": "uint256",
          "name": "poolId",
          "type": "uint256"
        }
      ],
      "name": "claim",
      "outputs": [],
      "stateMutability": "nonpayable",
      "type": "function"
    },
    {
      "inputs": [
        {
          "internalType": "uint256",
          "name": "",
          "type": "uint256"
        },
        {
          "internalType": "address",
          "name": "",
          "type": "address"
        }
      ],
      "name": "claimed",
      "outputs": [
        {
          "internalType": "bool",
          "name": "",
          "type": "bool"
        }
      ],
      "stateMutability": "view",
      "type": "function"
    },
    {
      "inputs": [
        {
          "internalType": "bytes32",
          "name": "_predictedOutcome",
          "type": "bytes32"
        },
        {
          "internalType": "uint256",
          "name": "_odds",
          "type": "uint256"
        },
        {
          "internalType": "uint256",
          "name": "_creatorStake",
          "type": "uint256"
        },
        {
          "internalType": "uint256",
          "name": "_eventStartTime",
          "type": "uint256"
        },
        {
          "internalType": "uint256",
          "name": "_eventEndTime",
          "type": "uint256"
        },
        {
          "internalType": "string",
          "name": "_league",
          "type": "string"
        },
        {
          "internalType": "string",
          "name": "_category",
          "type": "string"
        },
        {
          "internalType": "string",
          "name": "_region",
          "type": "string"
        },
        {
          "internalType": "string",
          "name": "_homeTeam",
          "type": "string"
        },
        {
          "internalType": "string",
          "name": "_awayTeam",
          "type": "string"
        },
        {
          "internalType": "string",
          "name": "_title",
          "type": "string"
        },
        {
          "internalType": "bool",
          "name": "_isPrivate",
          "type": "bool"
        },
        {
          "internalType": "uint256",
          "name": "_maxBetPerUser",
          "type": "uint256"
        },
        {
          "internalType": "bool",
          "name": "_useBitr",
          "type": "bool"
        },
        {
          "internalType": "enum OracleType",
          "name": "_oracleType",
          "type": "uint8"
        },
        {
          "internalType": "bytes32",
          "name": "_marketId",
          "type": "bytes32"
        },
        {
          "internalType": "enum MarketType",
          "name": "_marketType",
          "type": "uint8"
        }
      ],
      "name": "createPool",
      "outputs": [
        {
          "internalType": "uint256",
          "name": "",
          "type": "uint256"
        }
      ],
      "stateMutability": "payable",
      "type": "function"
    },
    {
      "inputs": [],
      "name": "creationFeeBITR",
      "outputs": [
        {
          "internalType": "uint256",
          "name": "",
          "type": "uint256"
        }
      ],
      "stateMutability": "view",
      "type": "function"
    },
    {
      "inputs": [],
      "name": "creationFeeSTT",
      "outputs": [
        {
          "internalType": "uint256",
          "name": "",
          "type": "uint256"
        }
      ],
      "stateMutability": "view",
      "type": "function"
    },
    {
      "inputs": [
        {
          "internalType": "address",
          "name": "",
          "type": "address"
        },
        {
          "internalType": "uint256",
          "name": "",
          "type": "uint256"
        }
      ],
      "name": "creatorActivePools",
      "outputs": [
        {
          "internalType": "uint256",
          "name": "",
          "type": "uint256"
        }
      ],
      "stateMutability": "view",
      "type": "function"
    },
    {
      "inputs": [
        {
          "internalType": "address",
          "name": "",
          "type": "address"
        }
      ],
      "name": "creatorStats",
      "outputs": [
        {
          "internalType": "uint256",
          "name": "totalPoolsCreated",
          "type": "uint256"
        },
        {
          "internalType": "uint256",
          "name": "successfulPools",
          "type": "uint256"
        },
        {
          "internalType": "uint256",
          "name": "totalVolumeGenerated",
          "type": "uint256"
        },
        {
          "internalType": "uint256",
          "name": "averagePoolSize",
          "type": "uint256"
        },
        {
          "internalType": "uint256",
          "name": "reputationScore",
          "type": "uint256"
        },
        {
          "internalType": "uint256",
          "name": "winRate",
          "type": "uint256"
        },
        {
          "internalType": "uint256",
          "name": "totalEarnings",
          "type": "uint256"
        },
        {
          "internalType": "uint256",
          "name": "activePoolsCount",
          "type": "uint256"
        }
      ],
      "stateMutability": "view",
      "type": "function"
    },
    {
      "inputs": [
        {
          "internalType": "address",
          "name": "stakingContract",
          "type": "address"
        }
      ],
      "name": "distributeFees",
      "outputs": [],
      "stateMutability": "nonpayable",
      "type": "function"
    },
    {
      "inputs": [],
      "name": "feeCollector",
      "outputs": [
        {
          "internalType": "address",
          "name": "",
          "type": "address"
        }
      ],
      "stateMutability": "view",
      "type": "function"
    },
    {
      "inputs": [],
      "name": "getActivePools",
      "outputs": [
        {
          "internalType": "uint256[]",
          "name": "",
          "type": "uint256[]"
        }
      ],
      "stateMutability": "view",
      "type": "function"
    },
    {
      "inputs": [
        {
          "internalType": "string",
          "name": "category",
          "type": "string"
        }
      ],
      "name": "getCategoryStats",
      "outputs": [
        {
          "components": [
            {
              "internalType": "uint256",
              "name": "totalPools",
              "type": "uint256"
            },
            {
              "internalType": "uint256",
              "name": "totalVolume",
              "type": "uint256"
            },
            {
              "internalType": "uint256",
              "name": "averageOdds",
              "type": "uint256"
            },
            {
              "internalType": "uint256",
              "name": "lastActivityTime",
              "type": "uint256"
            }
          ],
          "internalType": "struct BitredictPoolCore.CategoryStats",
          "name": "",
          "type": "tuple"
        }
      ],
      "stateMutability": "view",
      "type": "function"
    },
    {
      "inputs": [
        {
          "internalType": "address",
          "name": "creator",
          "type": "address"
        }
      ],
      "name": "getCreatorStats",
      "outputs": [
        {
          "components": [
            {
              "internalType": "uint256",
              "name": "totalPoolsCreated",
              "type": "uint256"
            },
            {
              "internalType": "uint256",
              "name": "successfulPools",
              "type": "uint256"
            },
            {
              "internalType": "uint256",
              "name": "totalVolumeGenerated",
              "type": "uint256"
            },
            {
              "internalType": "uint256",
              "name": "averagePoolSize",
              "type": "uint256"
            },
            {
              "internalType": "uint256",
              "name": "reputationScore",
              "type": "uint256"
            },
            {
              "internalType": "uint256",
              "name": "winRate",
              "type": "uint256"
            },
            {
              "internalType": "uint256",
              "name": "totalEarnings",
              "type": "uint256"
            },
            {
              "internalType": "uint256",
              "name": "activePoolsCount",
              "type": "uint256"
            }
          ],
          "internalType": "struct BitredictPoolCore.CreatorStats",
          "name": "",
          "type": "tuple"
        }
      ],
      "stateMutability": "view",
      "type": "function"
    },
    {
      "inputs": [],
      "name": "getGlobalStats",
      "outputs": [
        {
          "components": [
            {
              "internalType": "uint256",
              "name": "totalPools",
              "type": "uint256"
            },
            {
              "internalType": "uint256",
              "name": "totalVolume",
              "type": "uint256"
            },
            {
              "internalType": "uint256",
              "name": "totalUsers",
              "type": "uint256"
            },
            {
              "internalType": "uint256",
              "name": "totalBets",
              "type": "uint256"
            },
            {
              "internalType": "uint256",
              "name": "averagePoolSize",
              "type": "uint256"
            },
            {
              "internalType": "uint256",
              "name": "lastUpdated",
              "type": "uint256"
            }
          ],
          "internalType": "struct BitredictPoolCore.GlobalStats",
          "name": "",
          "type": "tuple"
        }
      ],
      "stateMutability": "view",
      "type": "function"
    },
    {
      "inputs": [
        {
          "internalType": "uint256",
          "name": "poolId",
          "type": "uint256"
        }
      ],
      "name": "getPool",
      "outputs": [
        {
          "components": [
            {
              "internalType": "address",
              "name": "creator",
              "type": "address"
            },
            {
              "internalType": "uint16",
              "name": "odds",
              "type": "uint16"
            },
            {
              "internalType": "uint8",
              "name": "flags",
              "type": "uint8"
            },
            {
              "internalType": "enum OracleType",
              "name": "oracleType",
              "type": "uint8"
            },
            {
              "internalType": "uint256",
              "name": "creatorStake",
              "type": "uint256"
            },
            {
              "internalType": "uint256",
              "name": "totalCreatorSideStake",
              "type": "uint256"
            },
            {
              "internalType": "uint256",
              "name": "maxBettorStake",
              "type": "uint256"
            },
            {
              "internalType": "uint256",
              "name": "totalBettorStake",
              "type": "uint256"
            },
            {
              "internalType": "bytes32",
              "name": "predictedOutcome",
              "type": "bytes32"
            },
            {
              "internalType": "bytes32",
              "name": "result",
              "type": "bytes32"
            },
            {
              "internalType": "bytes32",
              "name": "marketId",
              "type": "bytes32"
            },
            {
              "internalType": "uint256",
              "name": "eventStartTime",
              "type": "uint256"
            },
            {
              "internalType": "uint256",
              "name": "eventEndTime",
              "type": "uint256"
            },
            {
              "internalType": "uint256",
              "name": "bettingEndTime",
              "type": "uint256"
            },
            {
              "internalType": "uint256",
              "name": "resultTimestamp",
              "type": "uint256"
            },
            {
              "internalType": "uint256",
              "name": "arbitrationDeadline",
              "type": "uint256"
            },
            {
              "internalType": "string",
              "name": "league",
              "type": "string"
            },
            {
              "internalType": "string",
              "name": "category",
              "type": "string"
            },
            {
              "internalType": "string",
              "name": "region",
              "type": "string"
            },
            {
              "internalType": "string",
              "name": "homeTeam",
              "type": "string"
            },
            {
              "internalType": "string",
              "name": "awayTeam",
              "type": "string"
            },
            {
              "internalType": "string",
              "name": "title",
              "type": "string"
            },
            {
              "internalType": "uint256",
              "name": "maxBetPerUser",
              "type": "uint256"
            }
          ],
          "internalType": "struct BitredictPoolCore.Pool",
          "name": "",
          "type": "tuple"
        }
      ],
      "stateMutability": "view",
      "type": "function"
    },
    {
      "inputs": [
        {
          "internalType": "uint256",
          "name": "poolId",
          "type": "uint256"
        }
      ],
      "name": "getPoolAnalytics",
      "outputs": [
        {
          "components": [
            {
              "internalType": "uint256",
              "name": "totalVolume",
              "type": "uint256"
            },
            {
              "internalType": "uint256",
              "name": "participantCount",
              "type": "uint256"
            },
            {
              "internalType": "uint256",
              "name": "averageBetSize",
              "type": "uint256"
            },
            {
              "internalType": "uint256",
              "name": "creatorReputation",
              "type": "uint256"
            },
            {
              "internalType": "uint256",
              "name": "liquidityRatio",
              "type": "uint256"
            },
            {
              "internalType": "uint256",
              "name": "timeToFill",
              "type": "uint256"
            },
            {
              "internalType": "bool",
              "name": "isHotPool",
              "type": "bool"
            },
            {
              "internalType": "uint256",
              "name": "fillPercentage",
              "type": "uint256"
            },
            {
              "internalType": "uint256",
              "name": "lastActivityTime",
              "type": "uint256"
            }
          ],
          "internalType": "struct BitredictPoolCore.PoolAnalytics",
          "name": "",
          "type": "tuple"
        }
      ],
      "stateMutability": "view",
      "type": "function"
    },
    {
      "inputs": [
        {
          "internalType": "bytes32",
          "name": "categoryHash",
          "type": "bytes32"
        }
      ],
      "name": "getPoolsByCategory",
      "outputs": [
        {
          "internalType": "uint256[]",
          "name": "",
          "type": "uint256[]"
        }
      ],
      "stateMutability": "view",
      "type": "function"
    },
    {
      "inputs": [
        {
          "internalType": "address",
          "name": "creator",
          "type": "address"
        }
      ],
      "name": "getPoolsByCreator",
      "outputs": [
        {
          "internalType": "uint256[]",
          "name": "",
          "type": "uint256[]"
        }
      ],
      "stateMutability": "view",
      "type": "function"
    },
    {
      "inputs": [
        {
          "internalType": "uint256",
          "name": "limit",
          "type": "uint256"
        }
      ],
      "name": "getTopCreators",
      "outputs": [
        {
          "internalType": "address[]",
          "name": "creators",
          "type": "address[]"
        },
        {
          "internalType": "uint256[]",
          "name": "volumes",
          "type": "uint256[]"
        }
      ],
      "stateMutability": "view",
      "type": "function"
    },
    {
      "inputs": [],
      "name": "globalStats",
      "outputs": [
        {
          "internalType": "uint256",
          "name": "totalPools",
          "type": "uint256"
        },
        {
          "internalType": "uint256",
          "name": "totalVolume",
          "type": "uint256"
        },
        {
          "internalType": "uint256",
          "name": "totalUsers",
          "type": "uint256"
        },
        {
          "internalType": "uint256",
          "name": "totalBets",
          "type": "uint256"
        },
        {
          "internalType": "uint256",
          "name": "averagePoolSize",
          "type": "uint256"
        },
        {
          "internalType": "uint256",
          "name": "lastUpdated",
          "type": "uint256"
        }
      ],
      "stateMutability": "view",
      "type": "function"
    },
    {
      "inputs": [],
      "name": "guidedOracle",
      "outputs": [
        {
          "internalType": "address",
          "name": "",
          "type": "address"
        }
      ],
      "stateMutability": "view",
      "type": "function"
    },
    {
      "inputs": [
        {
          "internalType": "address",
          "name": "",
          "type": "address"
        }
      ],
      "name": "longestStreak",
      "outputs": [
        {
          "internalType": "uint256",
          "name": "",
          "type": "uint256"
        }
      ],
      "stateMutability": "view",
      "type": "function"
    },
    {
      "inputs": [
        {
          "internalType": "uint256",
          "name": "",
          "type": "uint256"
        },
        {
          "internalType": "address",
          "name": "",
          "type": "address"
        }
      ],
      "name": "lpStakes",
      "outputs": [
        {
          "internalType": "uint256",
          "name": "",
          "type": "uint256"
        }
      ],
      "stateMutability": "view",
      "type": "function"
    },
    {
      "inputs": [],
      "name": "minBetAmount",
      "outputs": [
        {
          "internalType": "uint256",
          "name": "",
          "type": "uint256"
        }
      ],
      "stateMutability": "view",
      "type": "function"
    },
    {
      "inputs": [],
      "name": "minPoolStakeBITR",
      "outputs": [
        {
          "internalType": "uint256",
          "name": "",
          "type": "uint256"
        }
      ],
      "stateMutability": "view",
      "type": "function"
    },
    {
      "inputs": [],
      "name": "minPoolStakeSTT",
      "outputs": [
        {
          "internalType": "uint256",
          "name": "",
          "type": "uint256"
        }
      ],
      "stateMutability": "view",
      "type": "function"
    },
    {
      "inputs": [],
      "name": "optimisticOracle",
      "outputs": [
        {
          "internalType": "address",
          "name": "",
          "type": "address"
        }
      ],
      "stateMutability": "view",
      "type": "function"
    },
    {
      "inputs": [],
      "name": "owner",
      "outputs": [
        {
          "internalType": "address",
          "name": "",
          "type": "address"
        }
      ],
      "stateMutability": "view",
      "type": "function"
    },
    {
      "inputs": [
        {
          "internalType": "uint256",
          "name": "poolId",
          "type": "uint256"
        },
        {
          "internalType": "uint256",
          "name": "amount",
          "type": "uint256"
        }
      ],
      "name": "placeBet",
      "outputs": [],
      "stateMutability": "payable",
      "type": "function"
    },
    {
      "inputs": [],
      "name": "platformFee",
      "outputs": [
        {
          "internalType": "uint256",
          "name": "",
          "type": "uint256"
        }
      ],
      "stateMutability": "view",
      "type": "function"
    },
    {
      "inputs": [
        {
          "internalType": "uint256",
          "name": "",
          "type": "uint256"
        }
      ],
      "name": "poolAnalytics",
      "outputs": [
        {
          "internalType": "uint256",
          "name": "totalVolume",
          "type": "uint256"
        },
        {
          "internalType": "uint256",
          "name": "participantCount",
          "type": "uint256"
        },
        {
          "internalType": "uint256",
          "name": "averageBetSize",
          "type": "uint256"
        },
        {
          "internalType": "uint256",
          "name": "creatorReputation",
          "type": "uint256"
        },
        {
          "internalType": "uint256",
          "name": "liquidityRatio",
          "type": "uint256"
        },
        {
          "internalType": "uint256",
          "name": "timeToFill",
          "type": "uint256"
        },
        {
          "internalType": "bool",
          "name": "isHotPool",
          "type": "bool"
        },
        {
          "internalType": "uint256",
          "name": "fillPercentage",
          "type": "uint256"
        },
        {
          "internalType": "uint256",
          "name": "lastActivityTime",
          "type": "uint256"
        }
      ],
      "stateMutability": "view",
      "type": "function"
    },
    {
      "inputs": [
        {
          "internalType": "uint256",
          "name": "",
          "type": "uint256"
        },
        {
          "internalType": "uint256",
          "name": "",
          "type": "uint256"
        }
      ],
      "name": "poolBettors",
      "outputs": [
        {
          "internalType": "address",
          "name": "",
          "type": "address"
        }
      ],
      "stateMutability": "view",
      "type": "function"
    },
    {
      "inputs": [],
      "name": "poolCount",
      "outputs": [
        {
          "internalType": "uint256",
          "name": "",
          "type": "uint256"
        }
      ],
      "stateMutability": "view",
      "type": "function"
    },
    {
      "inputs": [
        {
          "internalType": "uint256",
          "name": "poolId",
          "type": "uint256"
        }
      ],
      "name": "poolExists",
      "outputs": [
        {
          "internalType": "bool",
          "name": "",
          "type": "bool"
        }
      ],
      "stateMutability": "view",
      "type": "function"
    },
    {
      "inputs": [
        {
          "internalType": "uint256",
          "name": "",
          "type": "uint256"
        }
      ],
      "name": "poolIdToCreatorIndex",
      "outputs": [
        {
          "internalType": "uint256",
          "name": "",
          "type": "uint256"
        }
      ],
      "stateMutability": "view",
      "type": "function"
    },
    {
      "inputs": [
        {
          "internalType": "uint256",
          "name": "",
          "type": "uint256"
        },
        {
          "internalType": "uint256",
          "name": "",
          "type": "uint256"
        }
      ],
      "name": "poolLPs",
      "outputs": [
        {
          "internalType": "address",
          "name": "",
          "type": "address"
        }
      ],
      "stateMutability": "view",
      "type": "function"
    },
    {
      "inputs": [
        {
          "internalType": "uint256",
          "name": "",
          "type": "uint256"
        },
        {
          "internalType": "address",
          "name": "",
          "type": "address"
        }
      ],
      "name": "poolWhitelist",
      "outputs": [
        {
          "internalType": "bool",
          "name": "",
          "type": "bool"
        }
      ],
      "stateMutability": "view",
      "type": "function"
    },
    {
      "inputs": [
        {
          "internalType": "uint256",
          "name": "",
          "type": "uint256"
        }
      ],
      "name": "pools",
      "outputs": [
        {
          "internalType": "address",
          "name": "creator",
          "type": "address"
        },
        {
          "internalType": "uint16",
          "name": "odds",
          "type": "uint16"
        },
        {
          "internalType": "uint8",
          "name": "flags",
          "type": "uint8"
        },
        {
          "internalType": "enum OracleType",
          "name": "oracleType",
          "type": "uint8"
        },
        {
          "internalType": "uint256",
          "name": "creatorStake",
          "type": "uint256"
        },
        {
          "internalType": "uint256",
          "name": "totalCreatorSideStake",
          "type": "uint256"
        },
        {
          "internalType": "uint256",
          "name": "maxBettorStake",
          "type": "uint256"
        },
        {
          "internalType": "uint256",
          "name": "totalBettorStake",
          "type": "uint256"
        },
        {
          "internalType": "bytes32",
          "name": "predictedOutcome",
          "type": "bytes32"
        },
        {
          "internalType": "bytes32",
          "name": "result",
          "type": "bytes32"
        },
        {
          "internalType": "bytes32",
          "name": "marketId",
          "type": "bytes32"
        },
        {
          "internalType": "uint256",
          "name": "eventStartTime",
          "type": "uint256"
        },
        {
          "internalType": "uint256",
          "name": "eventEndTime",
          "type": "uint256"
        },
        {
          "internalType": "uint256",
          "name": "bettingEndTime",
          "type": "uint256"
        },
        {
          "internalType": "uint256",
          "name": "resultTimestamp",
          "type": "uint256"
        },
        {
          "internalType": "uint256",
          "name": "arbitrationDeadline",
          "type": "uint256"
        },
        {
          "internalType": "string",
          "name": "league",
          "type": "string"
        },
        {
          "internalType": "string",
          "name": "category",
          "type": "string"
        },
        {
          "internalType": "string",
          "name": "region",
          "type": "string"
        },
        {
          "internalType": "string",
          "name": "homeTeam",
          "type": "string"
        },
        {
          "internalType": "string",
          "name": "awayTeam",
          "type": "string"
        },
        {
          "internalType": "string",
          "name": "title",
          "type": "string"
        },
        {
          "internalType": "uint256",
          "name": "maxBetPerUser",
          "type": "uint256"
        }
      ],
      "stateMutability": "view",
      "type": "function"
    },
    {
      "inputs": [
        {
          "internalType": "address",
          "name": "",
          "type": "address"
        }
      ],
      "name": "predictionStreaks",
      "outputs": [
        {
          "internalType": "uint256",
          "name": "",
          "type": "uint256"
        }
      ],
      "stateMutability": "view",
      "type": "function"
    },
    {
      "inputs": [
        {
          "internalType": "uint256",
          "name": "poolId",
          "type": "uint256"
        }
      ],
      "name": "refundPool",
      "outputs": [],
      "stateMutability": "nonpayable",
      "type": "function"
    },
    {
      "inputs": [
        {
          "internalType": "uint256",
          "name": "poolId",
          "type": "uint256"
        },
        {
          "internalType": "address",
          "name": "user",
          "type": "address"
        }
      ],
      "name": "removeFromWhitelist",
      "outputs": [],
      "stateMutability": "nonpayable",
      "type": "function"
    },
    {
      "inputs": [],
      "name": "renounceOwnership",
      "outputs": [],
      "stateMutability": "nonpayable",
      "type": "function"
    },
    {
      "inputs": [],
      "name": "reputationSystem",
      "outputs": [
        {
          "internalType": "contract IReputationSystem",
          "name": "",
          "type": "address"
        }
      ],
      "stateMutability": "view",
      "type": "function"
    },
    {
      "inputs": [
        {
          "internalType": "address",
          "name": "_boostSystem",
          "type": "address"
        }
      ],
      "name": "setBoostSystem",
      "outputs": [],
      "stateMutability": "nonpayable",
      "type": "function"
    },
    {
      "inputs": [
        {
          "internalType": "address",
          "name": "_reputationSystem",
          "type": "address"
        }
      ],
      "name": "setReputationSystem",
      "outputs": [],
      "stateMutability": "nonpayable",
      "type": "function"
    },
    {
      "inputs": [
        {
          "internalType": "uint256",
          "name": "poolId",
          "type": "uint256"
        },
        {
          "internalType": "bytes32",
          "name": "outcome",
          "type": "bytes32"
        }
      ],
      "name": "settlePool",
      "outputs": [],
      "stateMutability": "nonpayable",
      "type": "function"
    },
    {
      "inputs": [
        {
          "internalType": "uint256",
          "name": "poolId",
          "type": "uint256"
        }
      ],
      "name": "settlePoolAutomatically",
      "outputs": [],
      "stateMutability": "nonpayable",
      "type": "function"
    },
    {
      "inputs": [
        {
          "internalType": "address",
          "name": "",
          "type": "address"
        }
      ],
      "name": "streakMultiplier",
      "outputs": [
        {
          "internalType": "uint256",
          "name": "",
          "type": "uint256"
        }
      ],
      "stateMutability": "view",
      "type": "function"
    },
    {
      "inputs": [],
      "name": "totalCollectedBITR",
      "outputs": [
        {
          "internalType": "uint256",
          "name": "",
          "type": "uint256"
        }
      ],
      "stateMutability": "view",
      "type": "function"
    },
    {
      "inputs": [],
      "name": "totalCollectedSTT",
      "outputs": [
        {
          "internalType": "uint256",
          "name": "",
          "type": "uint256"
        }
      ],
      "stateMutability": "view",
      "type": "function"
    },
    {
      "inputs": [
        {
          "internalType": "address",
          "name": "newOwner",
          "type": "address"
        }
      ],
      "name": "transferOwnership",
      "outputs": [],
      "stateMutability": "nonpayable",
      "type": "function"
    },
    {
      "inputs": [
        {
          "internalType": "address",
          "name": "user",
          "type": "address"
        },
        {
          "internalType": "bool",
          "name": "won",
          "type": "bool"
        }
      ],
      "name": "updateStreak",
      "outputs": [],
      "stateMutability": "nonpayable",
      "type": "function"
    }
  ],
  "bytecode": "0x60e0346200014857601f620056a638819003918201601f19168301916001600160401b038311848410176200014d5780849260809460405283398101031262000148576200004d8162000163565b906200005c6020820162000163565b90620000796060620000716040840162000163565b920162000163565b9133156200012f57600080546001600160a01b03198082163390811784556040519791936001600160a01b03938416907f8be0079c531659141344cd1fd0a4f28419497f9722a3daafe3b4186f6b6457e09080a31690600154161760015560805260a05260c0524260165561552d9081620001798239608051818181610855015261129b015260a05181818161089a01528181613c310152613e74015260c051818181613d3b01528181613dbc0152613fc20152f35b604051631e4fbdf760e01b815260006004820152602490fd5b600080fd5b634e487b7160e01b600052604160045260246000fd5b51906001600160a01b0382168203620001485756fe61018080604052600436101561001457600080fd5b600090813560e01c90816301b708c21461481857508063068bcd8d146145c15780630e8a01bc146140d0578063120aa87714614087578063152cdda914613deb5780632230292214613da6578063237e23be14613bc257806326232a2e146103a257806326d8462914613aad5780632d78546114613a145780632e24c5871461398d57806331143cee146139485780633256435014613925578063379607f514613565578063394d9976146135475780633bdc087c146134e25780633e8670ff146134b057806340ef17b1146134305780634afe62b514612e225780634c2809f1146103565780634d7aae7814612dfe5780635556b67614612dc55780635e12f30014611a0a5780635e1871d2146119e75780635e4de6651461199c578063657c183f146119805780636587eda1146119575780636b4169c3146118ac578063715018a6146118645780637b201441146117a057806384499bb61461177c5780638b4ed235146117525780638da5cb5b1461172b5780638ec083541461165f5780638f63f748146116415780639413f25c146112755780639cd441da14610d865780639f82d47214610c865780639fd482be14610c3a578063a12a41cf14610bf2578063a695ee3814610bc6578063aac137d614610ba8578063ab78cc1514610b8c578063ac4afa3814610957578063aedc598114610910578063c26e797e146108c9578063c341261014610884578063c415b95c1461083f578063c6ae0c3b14610806578063c84728ef1461077b578063cd7f99df14610657578063d3d1993d146105cf578063d96d09aa146103a2578063de96303b14610596578063e4dc4efc1461054e578063e843f61c146104aa578063eb6bc08b14610465578063ed5175471461041d578063f2fde38b146103a7578063f3baf070146103a2578063f525cb6814610384578063f6915af51461035b578063fa968eea146103565763fea3e613146102e257600080fd5b34610353576040366003190112610353576004356102fe6148a8565b9061030c6002548210614d84565b808352600760205260408320546001600160a01b03919061033090831633146151f8565b8352600d602052604083209116600052602052604060002060ff19815416905580f35b80fd5b614a93565b50346103535780600319360112610353576004546040516001600160a01b039091168152602090f35b50346103535780600319360112610353576020600254604051908152f35b6148d9565b5034610353576020366003190112610353576103c16148c3565b6103c9614b96565b6001600160a01b03908116908115610404576000548260018060a01b0319821617600055166000805160206154d8833981519152600080a380f35b604051631e4fbdf760e01b815260048101849052602490fd5b503461035357604036600319011261035357602435906004358152601a602052604081209081548310156103535760206104578484614940565b90546040519160031b1c8152f35b50346103535760203660031901126103535761047f6148c3565b610487614b96565b600480546001600160a01b0319166001600160a01b039290921691909117905580f35b503461035357602090816003193601126103535790600435916104cc83615246565b916104da6040519384614a0e565b8383526104fa6104e985615246565b8483019590601f190136873761525d565b9160405193604085019060408652518091526060850195915b8181106105315785870384870152858061052d89886148f6565b0390f35b82516001600160a01b031687529583019591830191600101610513565b503461035357806003193601126103535760c06011546012546013546014546015549160165493604051958652602086015260408501526060840152608083015260a0820152f35b5034610353576020366003190112610353576020906040906001600160a01b036105be6148c3565b168152601883522054604051908152f35b503461035357602036600319011261035357604061012091600435815260106020522080549060018101549060028101546003820154600483015460058401549160ff600686015416936008600787015496015496604051988952602089015260408801526060870152608086015260a0850152151560c084015260e0830152610100820152f35b5034610353576020366003190112610353576101209060406004359181519261067f846149a0565b81845281602085015281838501528160608501528160808501528160a08501528160c08501528160e085015281610100809501526106c06002548210614d84565b8152601060205220906040516106d5816149a0565b8254928382526001810154602083019081526002820154604084019081526003830154606085019081526004840154906080860191825260058501549260a0870193845260ff6006870154169460c08801951515865288600860078901549860e08b01998a5201549801978852604051998a525160208a01525160408901525160608801525160808701525160a086015251151560c08501525160e08401525190820152f35b503461035357602080600319360112610802576001600160a01b0361079e6148c3565b168252601b81526040822091604051809384918482549182815201918452848420935b858282106107ec575050506107d892500383614a0e565b61052d6040519282849384528301906148f6565b85548452600195860195889550930192016107c1565b5080fd5b5034610353576020366003190112610353576020906040906001600160a01b0361082e6148c3565b168152601783522054604051908152f35b50346103535780600319360112610353576040517f00000000000000000000000000000000000000000000000000000000000000006001600160a01b03168152602090f35b50346103535780600319360112610353576040517f00000000000000000000000000000000000000000000000000000000000000006001600160a01b03168152602090f35b50346103535760403660031901126103535760406108e56148a8565b916004358152600b602052209060018060a01b03166000526020526020604060002054604051908152f35b503461035357604036600319011261035357604061092c6148a8565b9160043581526009602052209060018060a01b03166000526020526020604060002054604051908152f35b503461035357602036600319011261035357600435815260076020526040902080546001820154600283015460a05260038301546080526004830154610140526005830154600684015460078501546008860154600987015490600a88015492600b89015494600c8a015496600d8b016109d090614af0565b986109dd600e8d01614af0565b9a6109ea600f8e01614af0565b9c6109f760108201614af0565b60e052610a0660118201614af0565b60c052610a1560128201614af0565b6101005260130154610120526040518061016052600160a01b60019003821690528060a01c61ffff1661016051602001528060b01c60ff166101605160400152610160516060019060b81c60ff1690610a6d9161483d565b610160516080015260a0516101605160a001526080516101605160c00152610140516101605160e00152610160516101000152610160516101200152610160516101400152610160516101600152610160516101800152610160516101a00152610160516101c00152610160516101e001526102e0806101605161020001526101605101610afa91614883565b61016051808203906102200152610b1091614883565b61016051808203906102400152610b2691614883565b6101605180820390610260015260e05190610b4091614883565b6101605180820390610280015260c05190610b5a91614883565b61016051808203906102a001526101005190610b7591614883565b61012051610160516102c001526101605180910390f35b50346103535780600319360112610353576020604051603c8152f35b50346103535780600319360112610353576020600554604051908152f35b5034610353576020366003190112610353576020610bea610be56148c3565b615117565b604051908152f35b503461035357604036600319011261035357610c0c6148c3565b6001600160a01b03168152601b60205260408120805460243592908310156103535760206104578484614940565b5034610353576040366003190112610353576040610c566148a8565b916004358152600d602052209060018060a01b0316600052602052602060ff604060002054166040519015158152f35b503461035357602036600319011261035357604061010091610ca66148c3565b8160e08451610cb4816149f2565b82815282602082015282868201528260608201528260808201528260a08201528260c0820152015260018060a01b03168152600e60205220604051610cf8816149f2565b8154918282526001810154602083019081526002820154604084019081526003830154606085019081526004840154916080860192835260058501549360a0870194855260e0600760068801549760c08a01988952015497019687526040519788525160208801525160408701525160608601525160808501525160a08401525160c08301525160e0820152f35b50610d903661492a565b90610d9e6002548210614d84565b8083526020600781526040842090610dbe610db8846152bf565b15614efd565b670de0b6b3a76400008410611237576969e10de76676d080000084116111fd57610ded600a8301544210614f38565b6002820180548519106111bf57838652600b8252604086203360005282526040600020541561116f575b610e20846152d8565b611148575b838652600b8252604086203360005282526040600020541561112f575b838652600b8252604086203360005282526040600020610e63868254614bcf565b9055610e70858254614bcf565b80915560048301548015908115611121575b501561111557915b61ffff815460a01c16606319810190811161110157606493848102908082048614901517156110ed57600391610ebf91614ca4565b910155610ecb836152f1565b156110dd576001546040516323b872dd60e01b815290829082906001600160a01b0316818981610f008b303360048501614c1f565b03925af180156110d2578690611098575b610f1b9150614c41565b8260005260108152604060002091610f34858454614bcf565b808455600184018054914260088701558280611083575b50508560005260078452610f626040600020614dbf565b9060c082018051611057575b5060a08201918783511515600014611028575060e001518481029481860414901517156110125760008051602061547883398151915295600a60008051602061541883398151915294610fc68a976040965190614ca4565b6004840155101580610ff9575b610fe09060068301614ced565b549054825191825285820152a26040519384523393a380f35b50610fe0610e1061100a4242614c84565b109050610fd3565b634e487b7160e01b600052601160045260246000fd5b946040935060008051602061547883398151915297915060008051602061541883398151915294600a91610fc6565b60e08301518581029080820487149015171561101257611078915190614ca4565b600787015538610f6e565b61108c91614ca4565b60028601553882610f4b565b508181813d83116110cb575b6110ae8183614a0e565b810103126110c7576110c2610f1b91614bc2565b610f11565b8580fd5b503d6110a4565b6040513d88823e3d90fd5b6110e8843414614bdc565b610f1b565b634e487b7160e01b88526011600452602488fd5b634e487b7160e01b87526011600452602487fd5b50600182015491610e8a565b905060018401541038610e82565b838652600a82526111433360408820614cfe565b610e42565b838652600d82526040862033600052825261116a60ff60406000205416614f7b565b610e25565b838652600a82526064604087205410610e175760405162461bcd60e51b8152600481018390526015602482015274546f6f206d616e79204c502070726f76696465727360581b6044820152606490fd5b60405162461bcd60e51b815260048101839052601660248201527543726561746f72207374616b65206f766572666c6f7760501b6044820152606490fd5b6064906040519062461bcd60e51b8252600482015260136024820152724c697175696469747920746f6f206c6172676560681b6044820152fd5b6064906040519062461bcd60e51b8252600482015260176024820152764c69717569646974792062656c6f77206d696e696d756d60481b6044820152fd5b503461035357602080600319360112610802576112906148c3565b906001600160a01b037f0000000000000000000000000000000000000000000000000000000000000000818116929133849003611607576005549460065494861593849182159081611502575b50871596871592836113cd575b5050916113c5575b506112fb578680f35b1691601e8402938404601e1417156113b157601e8402938404601e14171561139d57908184923b156113995760649183604492846040519788968795633d6bcfaf60e11b87520460048601520460248401525af1801561138e57611363575b80808080808680f35b6001600160401b03811161137a576040523861135a565b634e487b7160e01b82526041600452602482fd5b6040513d84823e3d90fd5b8280fd5b634e487b7160e01b84526011600452602484fd5b634e487b7160e01b85526011600452602485fd5b9050386112f2565b909350601e8902898104601e148917156114ee5760648c910481600655818661141d8d6113ff858d6001541692614c84565b60405196878094819363a9059cbb60e01b9b8c8452600484016150fc565b03925af19283156114e15787936114a8575b5061144f9389600154169160405180968195829483528c600484016150fc565b03925af193841561149d578794156112ea5790809450813d8311611496575b6114788183614a0e565b810103126114925761148a8693614bc2565b5038806112ea565b8980fd5b503d61146e565b6040513d8d823e3d90fd5b9283813d83116114da575b6114bd8183614a0e565b810103126103535761144f936114d38894614bc2565b509361142f565b503d6114b3565b50604051903d90823e3d90fd5b634e487b7160e01b8c52601160045260248cfd5b90919250601e8902898104601e148717156115f3578a80808c9461152f6064839604809784600555614c84565b905af161153a6150cc565b50156115a45789808080938888165af16115526150cc565b501561156157908491386112dd565b60405162461bcd60e51b815260048101879052601b60248201527a14d515081cdd185ada5b99c81d1c985b9cd9995c8819985a5b1959602a1b6044820152606490fd5b60405162461bcd60e51b815260048101889052602160248201527f5354542066656520636f6c6c6563746f72207472616e73666572206661696c656044820152601960fa1b6064820152608490fd5b634e487b7160e01b8b52601160045260248bfd5b60405162461bcd60e51b815260048101849052601260248201527127b7363c903332b29031b7b63632b1ba37b960711b6044820152606490fd5b50346103535780600319360112610353576020600654604051908152f35b503461035357806003193601126103535760025461167c8161525d565b8291835b8181106116d55750506116928261525d565b925b8281106116b1576040516020808252819061052d908201876148f6565b806116bf6116d09284615232565b516116ca8287615232565b52614d75565b611694565b6116de816152bf565b1580611713575b6116f8575b6116f390614d75565b611680565b9261170b81856116ca6116f39487615232565b9390506116ea565b508085526007602052600a60408620015442106116e5565b5034610353578060031936011261035357546040516001600160a01b039091168152602090f35b50346103535760203660031901126103535760406020916004358152601c83522054604051908152f35b503461035357806003193601126103535760206040516802b5e3af16b18800008152f35b503461035357602080600319360112610802576004356001600160401b03811161139957816080936117d961180b933690600401614a4c565b9060606040516117e8816149d7565b828152828582015282604082015201528160405193828580945193849201614860565b8101600f81520301902060405190611822826149d7565b80549283835260018201548184019081526060600360028501549460408701958652015494019384526040519485525190840152516040830152516060820152f35b503461035357806003193601126103535761187d614b96565b80546001600160a01b03198116825581906001600160a01b03166000805160206154d88339815191528280a380f35b503461035357806003193601126103535760a06040516118cb816149bc565b828152826020820152826040820152826060820152826080820152015260c06040516118f6816149bc565b6011549081815260125460208201908152601354604083019081526014549060608401918252601554926080850193845260a060165495019485526040519586525160208601525160408501525160608401525160808301525160a0820152f35b50346103535780600319360112610353576003546040516001600160a01b039091168152602090f35b5034610353578060031936011261035357602060405160648152f35b5034610353576119ab3661492a565b91908152600a602052604081209081548310156103535760206119ce8484614940565b905460405160039290921b1c6001600160a01b03168152f35b503461035357602036600319011261035357602060025460043510604051908152f35b506102203660031901126103535760a4356001600160401b03811161080257611a37903690600401614a4c565b60c4356001600160401b03811161139957611a56903690600401614a4c565b9060e4356001600160401b03811161247757611a76903690600401614a4c565b610104356001600160401b03811161242157611a96903690600401614a4c565b610124356001600160401b0381116110c757611ab6903690600401614a4c565b610144356001600160401b038111612dc157611ad6903690600401614a4c565b916101643515156101643503612dc1576101a43515156101a43503612dc15760026101c4351015612dc1576008610204351015612dc15760646024351180612db3575b15612d58576003546001600160a01b031680612bb8575b506101a43515612b6757683635c9adc5dea0000060443510612b27575b69d3c21bcecceda100000060443511612af057426064351115612ab1576064356084351115612a6c57603c4201421161110157603c42016064351115612a36576101a43515612a2757866802b5e3af16b18800005b611bae60443582614bcf565b6101a43515612a07576001546040516323b872dd60e01b81529360209285926001600160a01b03169183918290611bea90303360048501614c1f565b03925af19182156129fc5789926129b8575b50611c09611c1192614c41565b600654614bcf565b6006555b602435606319810111611101576024356063190115612984576044356064604435020460641460443515171561110157611c5a60243560631901604435606402614ca4565b93606435603b198101116110ed576201518060843501608435116110ed5787946101643561297b575b6101a435612971575b60ff60405196611c9b8861496e565b33885261ffff602435166020890152166040870152611cc06101c43560608801614cc4565b604435608087015260443560a087015260c08601528760e0860152600435610100860152876101208601526101e435610140860152606435610160860152608435610180860152603b19606435016101a0860152876101c086015262015180608435016101e086015285610200860152866102208601526102408501526102608401526102808301526102a0820152610184356102c082015260025484526007602052604084209060018060a01b0381511682549061ffff60a01b602084015160a01b169160018060b01b03191617178255611da360ff60408301511683614cd0565b6060810151600281101561295d57825460ff60b81b191660b89190911b60ff60b81b161782556080810151600183015560a0810151600283015560c0810151600383015560e08101516004830155610100810151600583015561012081015160068301556101408101516007830155610160810151600883015561018081015160098301556101a0810151600a8301556101c0810151600b8301556101e0810151600c8301556102008101518051906001600160401b038211612557578190611e6f600d860154614ab6565b601f811161290d575b50602090601f831160011461289e578892612893575b50508160011b916000199060031b1c191617600d8301555b6102208101518051906001600160401b038211612557578190611ecc600e860154614ab6565b601f8111612843575b50602090601f83116001146127d45788926127c9575b50508160011b916000199060031b1c191617600e8301555b6102408101518051906001600160401b038211612557578190611f29600f860154614ab6565b601f8111612779575b50602090601f831160011461270a5788926126ff575b50508160011b916000199060031b1c191617600f8301555b6102608101518051906001600160401b038211612557578190611f866010860154614ab6565b601f81116126af575b50602090601f8311600114612640578892612635575b50508160011b916000199060031b1c19161760108301555b6102808101518051906001600160401b038211612557578190611fe36011860154614ab6565b601f81116125e5575b50602090601f831160011461257657889261256b575b50508160011b916000199060031b1c19161760118301555b6102a08101518051906001600160401b0382116125575761203e6012850154614ab6565b601f8111612513575b50602090601f83116001146124a0579180601394926102c0948a92612495575b50508160011b916000199060031b1c19161760128501555b01519101556003546001600160a01b0316801561248e5760206024916040519283809263baccbfdb60e01b82523360048301525afa90811561248357849161244d575b505b600884604051926120d4846149a0565b604435845261215a6020850191600183526040860190604435825260608701908152608087016064815260a088019186835260c089019387855260e08a019688885260406101008c0199428b5260025481526010602052209a518b555160018b01555160028a015551600389015551600488015551600587015551151560068601614ced565b516007840155519101556002548352600a60205261217b3360408520614cfe565b6002548352600b602052604083203384526020526044356040842055815160208301208352601a6020526121b56040842060025490614d39565b338352601b6020526121cd6040842060025490614d39565b338352601b60205260408320548060001981011161139d576002548452601c602052600019016040842055338352600e6020526040832061220e8154614d75565b8082556007820161221f8154614d75565b905560028201906122336044358354614bcf565b80925580612438575b50506003546001600160a01b0316806123ac575b505060209260008051602061549883398151915292612335926040518681845161227d8183858901614860565b8101600f8152030190206122918154614d75565b808255600182016122a56044358254614bcf565b80915542600384015581612395575b5050506122c2601154614d75565b806011556122d4604435601254614bcf565b90816012554260165580612382575b5050600254948594859261234460405192839260643584526084358c850152612312604085016101c43561483d565b6101e435606085015261020435608085015260e060a085015260e0840190614883565b82810360c08401523396614883565b0390a36040519081526044358482015242604082015260008051602061545883398151915260603392a361237781614d75565b600255604051908152f35b61238b91614ca4565b60155538806122e3565b6002916123a191614ca4565b9101553880806122b4565b9060206024926040519384809263baccbfdb60e01b82523360048301525afa91821561242d5785926123f3575b506004015582600080516020615498833981519152612250565b9091506020813d602011612425575b8161240f60209383614a0e565b810103126124215751906123356123d9565b8480fd5b3d9150612402565b6040513d87823e3d90fd5b61244191614ca4565b6003820155388061223c565b90506020813d60201161247b575b8161246860209383614a0e565b810103126124775751386120c2565b8380fd5b3d915061245b565b6040513d86823e3d90fd5b50826120c4565b015190503880612067565b906012850188526020882091885b601f19851681106124fb575092601394926001926102c09583601f198116106124e2575b505050811b01601285015561207f565b015160001960f88460031b161c191690553880806124d2565b919260206001819286850151815501940192016124ae565b60128501885260208820601f840160051c810160208510612550575b601f830160051c82018110612545575050612047565b89815560010161252f565b508061252f565b634e487b7160e01b87526041600452602487fd5b015190503880612002565b9250601185018852602088209088935b601f19841685106125ca576001945083601f198116106125b1575b505050811b01601183015561201a565b015160001960f88460031b161c191690553880806125a1565b81810151835560209485019460019093019290910190612586565b90915060118501885260208820601f840160051c81016020851061262e575b90849392915b601f830160051c82018110612620575050611fec565b8a815585945060010161260a565b5080612604565b015190503880611fa5565b9250601085018852602088209088935b601f1984168510612694576001945083601f1981161061267b575b505050811b016010830155611fbd565b015160001960f88460031b161c1916905538808061266b565b81810151835560209485019460019093019290910190612650565b90915060108501885260208820601f840160051c8101602085106126f8575b90849392915b601f830160051c820181106126ea575050611f8f565b8a81558594506001016126d4565b50806126ce565b015190503880611f48565b9250600f85018852602088209088935b601f198416851061275e576001945083601f19811610612745575b505050811b01600f830155611f60565b015160001960f88460031b161c19169055388080612735565b8181015183556020948501946001909301929091019061271a565b909150600f8501885260208820601f840160051c8101602085106127c2575b90849392915b601f830160051c820181106127b4575050611f32565b8a815585945060010161279e565b5080612798565b015190503880611eeb565b9250600e85018852602088209088935b601f1984168510612828576001945083601f1981161061280f575b505050811b01600e830155611f03565b015160001960f88460031b161c191690553880806127ff565b818101518355602094850194600190930192909101906127e4565b909150600e8501885260208820601f840160051c81016020851061288c575b90849392915b601f830160051c8201811061287e575050611ed5565b8a8155859450600101612868565b5080612862565b015190503880611e8e565b9250600d85018852602088209088935b601f19841685106128f2576001945083601f198116106128d9575b505050811b01600d830155611ea6565b015160001960f88460031b161c191690553880806128c9565b818101518355602094850194600190930192909101906128ae565b909150600d8501885260208820601f840160051c810160208510612956575b90849392915b601f830160051c82018110612948575050611e78565b8a8155859450600101612932565b508061292c565b634e487b7160e01b86526021600452602486fd5b9460081794611c8c565b60049550611c83565b60405162461bcd60e51b815260206004820152600c60248201526b496e76616c6964206f64647360a01b6044820152606490fd5b91506020823d82116129f4575b816129d260209383614a0e565b810103126129f057611c096129e9611c1193614bc2565b9250611bfc565b8880fd5b3d91506129c5565b6040513d8b823e3d90fd5b612a1f9250612a17903414614bdc565b600554614bcf565b600555611c15565b86670de0b6b3a7640000611ba2565b60405162461bcd60e51b815260206004820152600e60248201526d22bb32b73a103a37b79039b7b7b760911b6044820152606490fd5b60405162461bcd60e51b815260206004820152601d60248201527f4576656e7420656e64206d7573742062652061667465722073746172740000006044820152606490fd5b60405162461bcd60e51b81526020600482015260176024820152764576656e74206d75737420626520696e2066757475726560481b6044820152606490fd5b60405162461bcd60e51b815260206004820152600f60248201526e5374616b6520746f6f206c6172676560881b6044820152606490fd5b60405162461bcd60e51b815260206004820152601860248201527742495452207374616b652062656c6f77206d696e696d756d60401b6044820152606490fd5b674563918244f400006044351015611b4d5760405162461bcd60e51b8152602060048201526017602482015276535454207374616b652062656c6f77206d696e696d756d60481b6044820152606490fd5b602060249160016101c43514600014612c9c576040516313f31f3960e31b815233600482015292839182905afa908115612c91578891612c54575b5015612c00575b38611b30565b60405162461bcd60e51b815260206004820152602660248201527f496e73756666696369656e742072657075746174696f6e20666f72204f50454e60448201526520706f6f6c7360d01b6064820152608490fd5b90506020813d8211612c89575b81612c6e60209383614a0e565b81010312612c8557612c7f90614bc2565b38612bf3565b8780fd5b3d9150612c61565b6040513d8a823e3d90fd5b60405163fbad6cf560e01b815233600482015292839182905afa908115612c91578891612d1f575b50612bfa5760405162461bcd60e51b815260206004820152602860248201527f496e73756666696369656e742072657075746174696f6e20666f722047554944604482015267454420706f6f6c7360c01b6064820152608490fd5b90506020813d8211612d50575b81612d3960209383614a0e565b81010312612c8557612d4a90614bc2565b38612cc4565b3d9150612d2c565b60405162461bcd60e51b815260206004820152602d60248201527f496e76616c6964206f6464733a206d757374206265206265747765656e20312e60448201526c0303120616e64203130302e303609c1b6064820152608490fd5b506127106024351115611b19565b8680fd5b5034610353576020366003190112610353576020906040906001600160a01b03612ded6148c3565b168152601983522054604051908152f35b50346103535780600319360112610353576020604051683635c9adc5dea000008152f35b50612e2c3661492a565b90612e3a6002548210614d84565b80835260206007815260408420612e5081614dbf565b612e5c610db8856152bf565b670de0b6b3a764000085106133f75769152d02c7e14af680000085116133c257612e8c6101a08201514210614f38565b60e081019081518681159182156133ab575b5050156133a05760a0810151925b61ffff8583015116606494858102908082048714901517156132495760631982019182116132495790612ede91614ca4565b9283612eeb898351614bcf565b1161337057908787949392858b526009885260408b20338c52885260408b2054888c821580613308575b612f1e8a6152d8565b6132e3575b6102c088018051613278575b5092612f4a9286959492612f64979361325d575b5050614bcf565b878d5260098a526040808e20338f528b528d205551614bcf565b6004820193818555806003840155858b5260078852601060408c205460b01c16159182613217575b50506131c8575b505050612f9f906152f1565b156131b8576001546040516323b872dd60e01b815290839082906001600160a01b0316818981612fd48b303360048501614c1f565b03925af180156110d2578690613182575b612fef9150614c41565b8285526010825260408520613005858254614bcf565b80825560018201928354916001830180931161310a57828555426008850155828061316d575b50508588526007855261304060408920614dbf565b60c081018051613141575b5060a0810190878251151560001461311e575060e0015182810292818404149015171561310a57938693600a6000805160206154188339815191529461309860409560019a995190614ca4565b60048401551015806130f1575b6130b29060068301614ced565b549054825191825285820152a26040519384528301527fb1bd10cf5ea9540f12b9b182707734fd82deacc56830e2bd316133deb372bff460403393a380f35b506130b2610e106131024242614c84565b1090506130a5565b634e487b7160e01b89526011600452602489fd5b949050600196959150600a60008051602061541883398151915294604094613098565b60e082015190838202918083048514901517156115f3575161316291614ca4565b60078501553861304b565b61317691614ca4565b6002840155388261302b565b508281813d83116131b1575b6131988183614a0e565b810103126110c7576131ac612fef91614bc2565b612fe5565b503d61318e565b6131c3843414614bdc565b612fef565b600080516020615458833981519152916131ef82601060ff6060955460b01c161790614cd0565b60018060a01b039051169254604051906005825287820152426040820152a382388080612f93565b879193949596508092500290808204871490151715613249576132408895949392603c92614ca4565b10153880612f8c565b634e487b7160e01b8a52601160045260248afd5b6008613271928d8352526040339120614cfe565b8b8f612f43565b9395915093959697985061328d915084614bcf565b9051106132a457918991888c8b9897969538612f2f565b60405162461bcd60e51b815260048101899052601860248201527722bc31b2b2b2399036b0bc103132ba103832b9103ab9b2b960411b60448201528790fd5b898252600d835260408220338352835261330360ff604084205416614f7b565b612f23565b9395969798929450905052600888526101f460408c2054101561333457918991888c8b98979695612f15565b60405162461bcd60e51b8152600481018990526015602482015274546f6f206d616e79207061727469636970616e747360581b60448201528790fd5b60405162461bcd60e51b8152600481018790526009602482015268141bdbdb08199d5b1b60ba1b60448201528590fd5b608081015192612eac565b6133b59250614bcf565b6080820151108638612e9e565b60405162461bcd60e51b815260048101849052600d60248201526c42657420746f6f206c6172676560981b6044820152606490fd5b60405162461bcd60e51b81526004810184905260116024820152704265742062656c6f77206d696e696d756d60781b6044820152606490fd5b503461035357602036600319011261035357600435906001600160401b03821161035357608061347b60206134683660048701614a4c565b8160405193828580945193849201614860565b8101600f8152030190208054906001810154906003600282015491015491604051938452602084015260408301526060820152f35b5034610353576134bf3661492a565b919081526008602052604081209081548310156103535760206119ce8484614940565b503461035357602080600319360112610802576004358252601a81526040822091604051809384918482549182815201918452848420935b85828210613531575050506107d892500383614a0e565b855484526001958601958895509301920161351a565b50346103535780600319360112610353576020604051620151808152f35b503461035357602080600319360112610802576004356135886002548210614d84565b8083526007825261359b60408420614dbf565b916135a5826152bf565b156138f357818452600c815260408420338552815260ff6040852054166138bd57818452600c815260408085203386528252808520805460ff191660011790558285526007825284205484939060b01c600216156137bb57828552600b82526040852033865282526040852054908115908115613771575b5050505b8261362a578380f35b613633826152f1565b1561370e5760015460405163a9059cbb60e01b815290829082906001600160a01b03168188816136678a33600484016150fc565b03925af190811561242d5785916136d9575b50156136a0576000805160206154b8833981519152905b6040519384523393a33880808380f35b6064906040519062461bcd60e51b82526004820152601260248201527110925514881c185e5bdd5d0819985a5b195960721b6044820152fd5b90508181813d8311613707575b6136f08183614a0e565b810103126124215761370190614bc2565b38613679565b503d6136e6565b8380808086335af161371e6150cc565b5015613739576000805160206154b883398151915290613690565b6064906040519062461bcd60e51b82526004820152601160248201527014d515081c185e5bdd5d0819985a5b1959607a1b6044820152fd5b9091929450612710918284029084820484141715611101578160e06137a36137ab9360a06137b2989796015190614ca4565b910151614c91565b0490614bcf565b9138808061361d565b60098252604085203386528252604085205490816137db575b5050613621565b839194506137f261ffff8460649301511686614c91565b049361381e6127106138166138078489614c84565b61381033615117565b90614c91565b048096614c84565b9480613885575b5061382f826152f1565b1561387457686c6b935b8bbd4000008110155b156137d45760405190600382528382015242604082015260008051602061545883398151915260603392a381386137d4565b678ac7230489e80000811015613842565b61388e836152f1565b156138a95761389f90600654614bcf565b6006555b38613825565b6138b590600554614bcf565b6005556138a3565b6064906040519062461bcd60e51b82526004820152600f60248201526e105b1c9958591e4818db185a5b5959608a1b6044820152fd5b6064906040519062461bcd60e51b82526004820152600b60248201526a139bdd081cd95d1d1b195960aa1b6044820152fd5b50346103535780600319360112610353576020604051674563918244f400008152f35b5034610353576020366003190112610353576139626148c3565b61396a614b96565b600380546001600160a01b0319166001600160a01b039290921691909117905580f35b503461035357602036600319011261035357610100906040906001600160a01b036139b66148c3565b168152600e60205220805490600181015490600281015460038201546004830154906005840154926007600686015495015495604051978852602088015260408701526060860152608085015260a084015260c083015260e0820152f35b503461035357604036600319011261035357600435613a316148a8565b90613a3f6002548210614d84565b808352600760205260408320546001600160a01b0390613a6290821633146151f8565b818452600d6020526040842092169182845260205260408320600160ff198254161790557fef35c6815799b054cdc749d1f5bb07547c285ef9d7559c6e839da576f42b49098380a380f35b503461035357604036600319011261035357613ac76148c3565b6024358015158103611399573033148015613baf575b15613b7b5715613b575760018060a01b03168082526020906017825260408320613b078154614d75565b9055825260178152604082205460188252604083205410613b40575b601781526019613b36604084205461528f565b9152604082205580f35b601781526040822054601882526040832055613b23565b60018060a01b03168152601760205280604081205560196020526001604082205580f35b60405162461bcd60e51b815260206004820152600c60248201526b155b985d5d1a1bdc9a5e995960a21b6044820152606490fd5b5082546001600160a01b03163314613add565b503461035357604036600319011261035357600435602435613be76002548310614d84565b81835260076020526040832090613c06613c00846152bf565b15614fb9565b613c166009830154421015614ff7565b81549160ff8360b81c16600281101561295d5780613d1457507f00000000000000000000000000000000000000000000000000000000000000006001600160a01b03163303613cda57613c88600160ff600080516020615438833981519152955b85600686015560b01c161782614cd0565b60058101548214159081613cc1575b600b42910155613ca68461530a565b6040805192835290151560208301524290820152606090a280f35b613cd5600260ff835460b01c161782614cd0565b613c97565b60405162461bcd60e51b81526020600482015260126024820152714f6e6c7920677569646564206f7261636c6560701b6044820152606490fd5b600114613d38575b613c88600160ff60008051602061543883398151915295613c77565b337f00000000000000000000000000000000000000000000000000000000000000006001600160a01b031614613d1c5760405162461bcd60e51b81526020600482015260166024820152754f6e6c79206f7074696d6973746963206f7261636c6560501b6044820152606490fd5b50346103535780600319360112610353576040517f00000000000000000000000000000000000000000000000000000000000000006001600160a01b03168152602090f35b5034610353576020806003193601126108025760043590613e0f6002548310614d84565b8183526007815260408320613e26613c00846152bf565b613e366009820154421015614ff7565b8054848060b883901c60ff1660028110156140735780613f92575050506007820154604051632e8d1dc160e11b8152600481019190915285816024817f00000000000000000000000000000000000000000000000000000000000000006001600160a01b03165afa9081156110d25786908792613f6d575b5015613f2957613ebd906150a9565b9260015b15613ef1575090613c88600160ff859460008051602061543883398151915296600686015560b01c161782614cd0565b6064906040519062461bcd60e51b8252600482015260116024820152704f7574636f6d65206e6f7420726561647960781b6044820152fd5b60405162461bcd60e51b815260048101859052601c60248201527b477569646564206f7574636f6d65206e6f7420617661696c61626c6560201b6044820152606490fd5b9050613f8b91503d8088833e613f838183614a0e565b810190615039565b9038613eae565b91949160001901613ec157506007830154604051632e8d1dc160e11b8152600481019190915290935085816024817f00000000000000000000000000000000000000000000000000000000000000006001600160a01b03165afa9081156110d25786908792614056575b50156140135761400b906150a9565b926001613ec1565b6064846040519062461bcd60e51b825280600483015260248201527f4f7074696d6973746963206f7574636f6d65206e6f742066696e616c697a65646044820152fd5b905061406c91503d8088833e613f838183614a0e565b9038613ffc565b634e487b7160e01b88526021600452602488fd5b50346103535760403660031901126103535760ff60406020926140a86148a8565b6004358252600c85528282206001600160a01b03909116825284522054604051911615158152f35b50346103535760208060031936011261080257600435906140f46002548310614d84565b818352600781526040832061410b613c00846152bf565b600c81015442111561457c5761412d6001918260ff825460b01c161790614cd0565b828452600a825280604085206040519081858254918281520191885285882090885b87828210614560575050505081614167910382614a0e565b85825b6143d3575b5050508284526008825260408420604051808285829454938481520190885285882092885b86888383106143b557505050506141ad92500382614a0e565b84825b614211575b50505060607f5d017285e8f2eb1ffcbc2466eaedb487942e395d5f1e312f09e9384b1687bea5916141e58461530a565b60136040519180835282015272105c989a5d1c985d1a5bdb881d1a5b595bdd5d606a1b6040820152a280f35b81518110156143b05782919086856001600160a01b03806142328587615232565b51168984526009835260408420818552835260408420549182614265575b505050505061425e90614d75565b90916141b0565b90919293949596506142768a6152f1565b1561434d576142a19450875416908a60405180968195829463a9059cbb60e01b8452600484016150fc565b03925af190811561434257879161430d575b50156142cc579061425e83925b90508685388080614250565b60405162461bcd60e51b8152600481018590526019602482015278109255148818995d1d1bdc881c99599d5b990819985a5b1959603a1b6044820152606490fd5b90508481813d831161433b575b6143248183614a0e565b81010312612dc15761433590614bc2565b386142b3565b503d61431a565b6040513d89823e3d90fd5b50839250829182915af161435f6150cc565b5015614370579061425e83926142c0565b60405162461bcd60e51b815260048101859052601860248201527714d5150818995d1d1bdc881c99599d5b990819985a5b195960421b6044820152606490fd5b6141b5565b86546001600160a01b03168552958101958795509093019201614194565b815181101561455b5786856001600160a01b03806143f18587615232565b5116898452600b835260408420818552835260408420549182614423575b505050505061441d90614d75565b8261416a565b90919293949596506144348a6152f1565b156144fc5761445f9450875416908a60405180968195829463a9059cbb60e01b8452600484016150fc565b03925af19081156143425787916144c7575b501561448a579061441d83925b9050868538808061440f565b60405162461bcd60e51b815260048101859052601560248201527410925514881314081c99599d5b990819985a5b1959605a1b6044820152606490fd5b90508481813d83116144f5575b6144de8183614a0e565b81010312612dc1576144ef90614bc2565b38614471565b503d6144d4565b50839250829182915af161450e6150cc565b501561451f579061441d839261447e565b60405162461bcd60e51b815260048101859052601460248201527314d515081314081c99599d5b990819985a5b195960621b6044820152606490fd5b61416f565b83546001600160a01b031685528796940193928301920161414f565b60405162461bcd60e51b815260048101839052601e60248201527f4172626974726174696f6e20706572696f64206e6f74206578706972656400006044820152606490fd5b50346103535760203660031901126103535760408161469c926102c083516145e88161496e565b82815282602082015282858201528260608201528260808201528260a08201528260c08201528260e08201528261010082015282610120820152826101408201528261016082015282610180820152826101a0820152826101c0820152826101e08201526060610200820152606061022082015260606102408201526060610260820152606061028082015260606102a0820152015260025461468f600435918210614d84565b8152600760205220614dbf565b60405180916020825260018060a01b03815116602083015261ffff602082015116604083015260ff60408201511660608301526146e16060820151608084019061483d565b608081015160a083015260a081015160c083015260c081015160e083015260e08101516101008301526101008101516101208301526101208101516101408301526101408101516101608301526101608101516101808301526101808101516101a08301526101a08101516101c08301526101c08101516101e08301526101e08101516102008301526102008101516102c061480d61478f6102e09384610220880152610300870190614883565b6147f86147e26147cc6147b661022089015194601f1995868c8303016102408d0152614883565b610240890151858b8303016102608c0152614883565b610260880151848a8303016102808b0152614883565b61028087015183898303016102a08a0152614883565b906102a0860151908783030184880152614883565b920151908301520390f35b9050346108025781600319360112610802576001546001600160a01b03168152602090f35b90600282101561484a5752565b634e487b7160e01b600052602160045260246000fd5b60005b8381106148735750506000910152565b8181015183820152602001614863565b9060209161489c81518092818552858086019101614860565b601f01601f1916010190565b602435906001600160a01b03821682036148be57565b600080fd5b600435906001600160a01b03821682036148be57565b346148be5760003660031901126148be5760206040516101f48152f35b90815180825260208080930193019160005b828110614916575050505090565b835185529381019392810192600101614908565b60409060031901126148be576004359060243590565b80548210156149585760005260206000200190600090565b634e487b7160e01b600052603260045260246000fd5b6102e081019081106001600160401b0382111761498a57604052565b634e487b7160e01b600052604160045260246000fd5b61012081019081106001600160401b0382111761498a57604052565b60c081019081106001600160401b0382111761498a57604052565b608081019081106001600160401b0382111761498a57604052565b61010081019081106001600160401b0382111761498a57604052565b601f909101601f19168101906001600160401b0382119082101761498a57604052565b6001600160401b03811161498a57601f01601f191660200190565b81601f820112156148be57803590614a6382614a31565b92614a716040519485614a0e565b828452602083830101116148be57816000926020809301838601378301015290565b346148be5760003660031901126148be576020604051670de0b6b3a76400008152f35b90600182811c92168015614ae6575b6020831014614ad057565b634e487b7160e01b600052602260045260246000fd5b91607f1691614ac5565b9060405191826000825492614b0484614ab6565b908184526001948581169081600014614b735750600114614b30575b5050614b2e92500383614a0e565b565b9093915060005260209081600020936000915b818310614b5b575050614b2e93508201013880614b20565b85548884018501529485019487945091830191614b43565b915050614b2e94506020925060ff191682840152151560051b8201013880614b20565b6000546001600160a01b03163303614baa57565b60405163118cdaa760e01b8152336004820152602490fd5b519081151582036148be57565b9190820180921161101257565b15614be357565b60405162461bcd60e51b8152602060048201526014602482015273125b98dbdc9c9958dd0814d51508185b5bdd5b9d60621b6044820152606490fd5b6001600160a01b03918216815291166020820152604081019190915260600190565b15614c4857565b60405162461bcd60e51b815260206004820152601460248201527310925514881d1c985b9cd9995c8819985a5b195960621b6044820152606490fd5b9190820391821161101257565b8181029291811591840414171561101257565b8115614cae570490565b634e487b7160e01b600052601260045260246000fd5b600282101561484a5752565b805460ff60b01b191660b09290921b60ff60b01b16919091179055565b9060ff801983541691151516179055565b8054600160401b81101561498a57614d1b91600182018155614940565b819291549060031b9160018060a01b03809116831b921b1916179055565b80549190600160401b83101561498a5782614d5c916001614b2e95018155614940565b90919082549060031b91821b91600019901b1916179055565b60001981146110125760010190565b15614d8b57565b60405162461bcd60e51b815260206004820152600c60248201526b125b9d985b1a59081c1bdbdb60a21b6044820152606490fd5b90604051614dcc8161496e565b6102c060138294614e0a60ff825460018060a01b038116875261ffff8160a01c166020880152818160b01c16604088015260b81c1660608601614cc4565b60018101546080850152600281015460a0850152600381015460c0850152600481015460e085015260058101546101008501526006810154610120850152600781015461014085015260088101546101608501526009810154610180850152600a8101546101a0850152600b8101546101c0850152600c8101546101e0850152614e96600d8201614af0565b610200850152614ea8600e8201614af0565b610220850152614eba600f8201614af0565b610240850152614ecc60108201614af0565b610260850152614ede60118201614af0565b610280850152614ef060128201614af0565b6102a08501520154910152565b15614f0457565b60405162461bcd60e51b815260206004820152600c60248201526b141bdbdb081cd95d1d1b195960a21b6044820152606490fd5b15614f3f57565b60405162461bcd60e51b815260206004820152601460248201527310995d1d1a5b99c81c195c9a5bd908195b99195960621b6044820152606490fd5b15614f8257565b60405162461bcd60e51b815260206004820152600f60248201526e139bdd081dda1a5d195b1a5cdd1959608a1b6044820152606490fd5b15614fc057565b60405162461bcd60e51b815260206004820152600f60248201526e105b1c9958591e481cd95d1d1b1959608a1b6044820152606490fd5b15614ffe57565b60405162461bcd60e51b8152602060048201526013602482015272115d995b9d081b9bdd08195b991959081e595d606a1b6044820152606490fd5b91906040838203126148be5761504e83614bc2565b602084015190936001600160401b0382116148be570181601f820112156148be57805161507a81614a31565b926150886040519485614a0e565b818452602082840101116148be576150a69160208085019101614860565b90565b6020815191015190602081106150bd575090565b6000199060200360031b1b1690565b3d156150f7573d906150dd82614a31565b916150eb6040519384614a0e565b82523d6000602084013e565b606090565b6001600160a01b039091168152602081019190915260400190565b6001546040516370a0823160e01b81526001600160a01b0392831660048201529160209183916024918391165afa9081156151ec576000916151bb575b50690a968163f0a57b4000008110156151b55769043c33c19375648000008110156151ae5769010f0cf064dd592000008110156151a757686c6b935b8bbd40000011156151a1576101f490565b6101c290565b5061019090565b5061015e90565b5060fa90565b906020823d82116151e4575b816151d460209383614a0e565b8101031261035357505138615154565b3d91506151c7565b6040513d6000823e3d90fd5b156151ff57565b60405162461bcd60e51b815260206004820152600b60248201526a2737ba1031b932b0ba37b960a91b6044820152606490fd5b80518210156149585760209160051b010190565b6001600160401b03811161498a5760051b60200190565b9061526782615246565b6152746040519182614a0e565b8281528092615285601f1991615246565b0190602036910137565b60148110156152b957600a8110156152b357600511156152ae57600190565b600290565b50600390565b50600590565b6000526007602052600160406000205460b01c16151590565b6000526007602052600460406000205460b01c16151590565b6000526007602052600860406000205460b01c16151590565b600090808252600760205260018060a01b036040832054168252601b60205260408220818352601c602052604083205490805491828110806153fe575b615353575b5050505050565b600019928084019081116153ea578082036153b8575b5050805480156153a4578201916153808383614940565b909182549160031b1b19169055558152601c6020526040812055388080808061534c565b634e487b7160e01b85526031600452602485fd5b6153c29083614940565b90549060031b1c6153d781614d5c8486614940565b8552601c60205260408520553880615369565b634e487b7160e01b86526011600452602486fd5b508361540a8284614940565b90549060031b1c1461534756feae1dd3f2d7e1c58d3a89e27565ac6732a48cc3a0ee34874f1749e6fcca59730886acb9671870fda5e7ea8aa500f96625102d6f2e5a2ee12d3ca0fb612850fa29d43c77f044c1f8bc6adf6676b4ce17edda35ef8ee63f154568826c0ecb3c6bf3c733c2813826d31c105dbff518b08258e9e7aeb3eb1c7c7f642d77696faf501d0969c5071aabc67e302a63a5cbdf2d1fab657f3743f459fa914094ae7604c0ee24b5efa61dd1cfc659205a97fb8ed868f3cb8c81922bab2b96423e5de1de2cb78be0079c531659141344cd1fd0a4f28419497f9722a3daafe3b4186f6b6457e0a2646970667358221220f061c5c364781b603fc05ea64fa50b77cd991ccafa74697c13d9f49826e978f564736f6c63430008140033",
  "linkReferences": {},
  "deployedLinkReferences": {}
}