{
  "_format": "hh-sol-artifact-1",
  "contractName": "BitredictPool",
  "sourceName": "contracts/BitredictPool.sol",
  "abi": [
    {
      "inputs": [
        {
          "internalType": "address",
          "name": "_bitrToken",
          "type": "address"
        },
        {
          "internalType": "address",
          "name": "_feeCollector",
          "type": "address"
        },
        {
          "internalType": "address",
          "name": "_guidedOracle",
          "type": "address"
        },
        {
          "internalType": "address",
          "name": "_optimisticOracle",
          "type": "address"
        }
      ],
      "stateMutability": "nonpayable",
      "type": "constructor"
    },
    {
      "inputs": [
        {
          "internalType": "address",
          "name": "owner",
          "type": "address"
        }
      ],
      "name": "OwnableInvalidOwner",
      "type": "error"
    },
    {
      "inputs": [
        {
          "internalType": "address",
          "name": "account",
          "type": "address"
        }
      ],
      "name": "OwnableUnauthorizedAccount",
      "type": "error"
    },
    {
      "anonymous": false,
      "inputs": [
        {
          "indexed": true,
          "internalType": "uint256",
          "name": "poolId",
          "type": "uint256"
        },
        {
          "indexed": true,
          "internalType": "address",
          "name": "bettor",
          "type": "address"
        },
        {
          "indexed": false,
          "internalType": "uint256",
          "name": "amount",
          "type": "uint256"
        },
        {
          "indexed": false,
          "internalType": "bool",
          "name": "isForOutcome",
          "type": "bool"
        }
      ],
      "name": "BetPlaced",
      "type": "event"
    },
    {
      "anonymous": false,
      "inputs": [
        {
          "indexed": true,
          "internalType": "uint256",
          "name": "poolId",
          "type": "uint256"
        },
        {
          "indexed": false,
          "internalType": "enum BoostTier",
          "name": "tier",
          "type": "uint8"
        }
      ],
      "name": "BoostExpired",
      "type": "event"
    },
    {
      "anonymous": false,
      "inputs": [
        {
          "indexed": true,
          "internalType": "uint256",
          "name": "comboPoolId",
          "type": "uint256"
        },
        {
          "indexed": true,
          "internalType": "address",
          "name": "bettor",
          "type": "address"
        },
        {
          "indexed": false,
          "internalType": "uint256",
          "name": "amount",
          "type": "uint256"
        }
      ],
      "name": "ComboBetPlaced",
      "type": "event"
    },
    {
      "anonymous": false,
      "inputs": [
        {
          "indexed": true,
          "internalType": "uint256",
          "name": "comboPoolId",
          "type": "uint256"
        },
        {
          "indexed": true,
          "internalType": "address",
          "name": "creator",
          "type": "address"
        },
        {
          "indexed": false,
          "internalType": "uint256",
          "name": "conditionCount",
          "type": "uint256"
        },
        {
          "indexed": false,
          "internalType": "uint16",
          "name": "totalOdds",
          "type": "uint16"
        }
      ],
      "name": "ComboPoolCreated",
      "type": "event"
    },
    {
      "anonymous": false,
      "inputs": [
        {
          "indexed": true,
          "internalType": "uint256",
          "name": "comboPoolId",
          "type": "uint256"
        },
        {
          "indexed": false,
          "internalType": "bool",
          "name": "creatorSideWon",
          "type": "bool"
        },
        {
          "indexed": false,
          "internalType": "uint256",
          "name": "timestamp",
          "type": "uint256"
        }
      ],
      "name": "ComboPoolSettled",
      "type": "event"
    },
    {
      "anonymous": false,
      "inputs": [
        {
          "indexed": true,
          "internalType": "uint256",
          "name": "poolId",
          "type": "uint256"
        },
        {
          "indexed": true,
          "internalType": "address",
          "name": "provider",
          "type": "address"
        },
        {
          "indexed": false,
          "internalType": "uint256",
          "name": "amount",
          "type": "uint256"
        }
      ],
      "name": "LiquidityAdded",
      "type": "event"
    },
    {
      "anonymous": false,
      "inputs": [
        {
          "indexed": true,
          "internalType": "address",
          "name": "previousOwner",
          "type": "address"
        },
        {
          "indexed": true,
          "internalType": "address",
          "name": "newOwner",
          "type": "address"
        }
      ],
      "name": "OwnershipTransferred",
      "type": "event"
    },
    {
      "anonymous": false,
      "inputs": [
        {
          "indexed": true,
          "internalType": "uint256",
          "name": "poolId",
          "type": "uint256"
        },
        {
          "indexed": false,
          "internalType": "enum BoostTier",
          "name": "tier",
          "type": "uint8"
        },
        {
          "indexed": false,
          "internalType": "uint256",
          "name": "expiry",
          "type": "uint256"
        },
        {
          "indexed": false,
          "internalType": "uint256",
          "name": "fee",
          "type": "uint256"
        }
      ],
      "name": "PoolBoosted",
      "type": "event"
    },
    {
      "anonymous": false,
      "inputs": [
        {
          "indexed": true,
          "internalType": "uint256",
          "name": "poolId",
          "type": "uint256"
        },
        {
          "indexed": true,
          "internalType": "address",
          "name": "creator",
          "type": "address"
        },
        {
          "indexed": false,
          "internalType": "uint256",
          "name": "eventStartTime",
          "type": "uint256"
        },
        {
          "indexed": false,
          "internalType": "uint256",
          "name": "eventEndTime",
          "type": "uint256"
        },
        {
          "indexed": false,
          "internalType": "enum OracleType",
          "name": "oracleType",
          "type": "uint8"
        },
        {
          "indexed": false,
          "internalType": "bytes32",
          "name": "marketId",
          "type": "bytes32"
        }
      ],
      "name": "PoolCreated",
      "type": "event"
    },
    {
      "anonymous": false,
      "inputs": [
        {
          "indexed": true,
          "internalType": "uint256",
          "name": "poolId",
          "type": "uint256"
        },
        {
          "indexed": false,
          "internalType": "string",
          "name": "reason",
          "type": "string"
        }
      ],
      "name": "PoolRefunded",
      "type": "event"
    },
    {
      "anonymous": false,
      "inputs": [
        {
          "indexed": true,
          "internalType": "uint256",
          "name": "poolId",
          "type": "uint256"
        },
        {
          "indexed": false,
          "internalType": "bytes32",
          "name": "result",
          "type": "bytes32"
        },
        {
          "indexed": false,
          "internalType": "bool",
          "name": "creatorSideWon",
          "type": "bool"
        },
        {
          "indexed": false,
          "internalType": "uint256",
          "name": "timestamp",
          "type": "uint256"
        }
      ],
      "name": "PoolSettled",
      "type": "event"
    },
    {
      "anonymous": false,
      "inputs": [
        {
          "indexed": true,
          "internalType": "address",
          "name": "user",
          "type": "address"
        },
        {
          "indexed": false,
          "internalType": "enum ReputationAction",
          "name": "action",
          "type": "uint8"
        },
        {
          "indexed": false,
          "internalType": "uint256",
          "name": "value",
          "type": "uint256"
        },
        {
          "indexed": true,
          "internalType": "bytes32",
          "name": "poolId",
          "type": "bytes32"
        },
        {
          "indexed": false,
          "internalType": "uint256",
          "name": "timestamp",
          "type": "uint256"
        }
      ],
      "name": "ReputationActionOccurred",
      "type": "event"
    },
    {
      "anonymous": false,
      "inputs": [
        {
          "indexed": true,
          "internalType": "uint256",
          "name": "poolId",
          "type": "uint256"
        },
        {
          "indexed": true,
          "internalType": "address",
          "name": "user",
          "type": "address"
        },
        {
          "indexed": false,
          "internalType": "uint256",
          "name": "amount",
          "type": "uint256"
        }
      ],
      "name": "RewardClaimed",
      "type": "event"
    },
    {
      "anonymous": false,
      "inputs": [
        {
          "indexed": true,
          "internalType": "uint256",
          "name": "poolId",
          "type": "uint256"
        },
        {
          "indexed": true,
          "internalType": "address",
          "name": "user",
          "type": "address"
        }
      ],
      "name": "UserWhitelisted",
      "type": "event"
    },
    {
      "inputs": [],
      "name": "BOOST_DURATION",
      "outputs": [
        {
          "internalType": "uint256",
          "name": "",
          "type": "uint256"
        }
      ],
      "stateMutability": "view",
      "type": "function"
    },
    {
      "inputs": [],
      "name": "HIGH_ODDS_THRESHOLD",
      "outputs": [
        {
          "internalType": "uint256",
          "name": "",
          "type": "uint256"
        }
      ],
      "stateMutability": "view",
      "type": "function"
    },
    {
      "inputs": [],
      "name": "MAX_BRONZE_POOLS",
      "outputs": [
        {
          "internalType": "uint256",
          "name": "",
          "type": "uint256"
        }
      ],
      "stateMutability": "view",
      "type": "function"
    },
    {
      "inputs": [],
      "name": "MAX_GOLD_POOLS",
      "outputs": [
        {
          "internalType": "uint256",
          "name": "",
          "type": "uint256"
        }
      ],
      "stateMutability": "view",
      "type": "function"
    },
    {
      "inputs": [],
      "name": "MAX_LP_PROVIDERS",
      "outputs": [
        {
          "internalType": "uint256",
          "name": "",
          "type": "uint256"
        }
      ],
      "stateMutability": "view",
      "type": "function"
    },
    {
      "inputs": [],
      "name": "MAX_PARTICIPANTS",
      "outputs": [
        {
          "internalType": "uint256",
          "name": "",
          "type": "uint256"
        }
      ],
      "stateMutability": "view",
      "type": "function"
    },
    {
      "inputs": [],
      "name": "MAX_SILVER_POOLS",
      "outputs": [
        {
          "internalType": "uint256",
          "name": "",
          "type": "uint256"
        }
      ],
      "stateMutability": "view",
      "type": "function"
    },
    {
      "inputs": [
        {
          "internalType": "enum BoostTier",
          "name": "",
          "type": "uint8"
        }
      ],
      "name": "activeBoostCount",
      "outputs": [
        {
          "internalType": "uint256",
          "name": "",
          "type": "uint256"
        }
      ],
      "stateMutability": "view",
      "type": "function"
    },
    {
      "inputs": [
        {
          "internalType": "uint256",
          "name": "poolId",
          "type": "uint256"
        },
        {
          "internalType": "uint256",
          "name": "amount",
          "type": "uint256"
        }
      ],
      "name": "addLiquidity",
      "outputs": [],
      "stateMutability": "payable",
      "type": "function"
    },
    {
      "inputs": [
        {
          "internalType": "uint256",
          "name": "poolId",
          "type": "uint256"
        },
        {
          "internalType": "address",
          "name": "user",
          "type": "address"
        }
      ],
      "name": "addToWhitelist",
      "outputs": [],
      "stateMutability": "nonpayable",
      "type": "function"
    },
    {
      "inputs": [
        {
          "internalType": "address",
          "name": "user",
          "type": "address"
        }
      ],
      "name": "adjustedFeeRate",
      "outputs": [
        {
          "internalType": "uint256",
          "name": "",
          "type": "uint256"
        }
      ],
      "stateMutability": "view",
      "type": "function"
    },
    {
      "inputs": [],
      "name": "arbitrationTimeout",
      "outputs": [
        {
          "internalType": "uint256",
          "name": "",
          "type": "uint256"
        }
      ],
      "stateMutability": "view",
      "type": "function"
    },
    {
      "inputs": [],
      "name": "bettingGracePeriod",
      "outputs": [
        {
          "internalType": "uint256",
          "name": "",
          "type": "uint256"
        }
      ],
      "stateMutability": "view",
      "type": "function"
    },
    {
      "inputs": [
        {
          "internalType": "uint256",
          "name": "",
          "type": "uint256"
        },
        {
          "internalType": "address",
          "name": "",
          "type": "address"
        }
      ],
      "name": "bettorStakes",
      "outputs": [
        {
          "internalType": "uint256",
          "name": "",
          "type": "uint256"
        }
      ],
      "stateMutability": "view",
      "type": "function"
    },
    {
      "inputs": [],
      "name": "bitrToken",
      "outputs": [
        {
          "internalType": "contract IERC20",
          "name": "",
          "type": "address"
        }
      ],
      "stateMutability": "view",
      "type": "function"
    },
    {
      "inputs": [
        {
          "internalType": "uint256",
          "name": "",
          "type": "uint256"
        }
      ],
      "name": "boostFees",
      "outputs": [
        {
          "internalType": "uint256",
          "name": "",
          "type": "uint256"
        }
      ],
      "stateMutability": "view",
      "type": "function"
    },
    {
      "inputs": [
        {
          "internalType": "uint256",
          "name": "poolId",
          "type": "uint256"
        },
        {
          "internalType": "enum BoostTier",
          "name": "tier",
          "type": "uint8"
        }
      ],
      "name": "boostPool",
      "outputs": [],
      "stateMutability": "payable",
      "type": "function"
    },
    {
      "inputs": [
        {
          "internalType": "bytes32",
          "name": "",
          "type": "bytes32"
        },
        {
          "internalType": "uint256",
          "name": "",
          "type": "uint256"
        }
      ],
      "name": "categoryPools",
      "outputs": [
        {
          "internalType": "uint256",
          "name": "",
          "type": "uint256"
        }
      ],
      "stateMutability": "view",
      "type": "function"
    },
    {
      "inputs": [
        {
          "internalType": "uint256",
          "name": "poolId",
          "type": "uint256"
        }
      ],
      "name": "claim",
      "outputs": [],
      "stateMutability": "nonpayable",
      "type": "function"
    },
    {
      "inputs": [
        {
          "internalType": "uint256",
          "name": "comboPoolId",
          "type": "uint256"
        }
      ],
      "name": "claimCombo",
      "outputs": [],
      "stateMutability": "nonpayable",
      "type": "function"
    },
    {
      "inputs": [
        {
          "internalType": "uint256",
          "name": "",
          "type": "uint256"
        },
        {
          "internalType": "address",
          "name": "",
          "type": "address"
        }
      ],
      "name": "claimed",
      "outputs": [
        {
          "internalType": "bool",
          "name": "",
          "type": "bool"
        }
      ],
      "stateMutability": "view",
      "type": "function"
    },
    {
      "inputs": [
        {
          "internalType": "uint256[]",
          "name": "poolIds",
          "type": "uint256[]"
        }
      ],
      "name": "cleanupExpiredBoosts",
      "outputs": [],
      "stateMutability": "nonpayable",
      "type": "function"
    },
    {
      "inputs": [
        {
          "internalType": "uint256",
          "name": "",
          "type": "uint256"
        },
        {
          "internalType": "address",
          "name": "",
          "type": "address"
        }
      ],
      "name": "comboBettorStakes",
      "outputs": [
        {
          "internalType": "uint256",
          "name": "",
          "type": "uint256"
        }
      ],
      "stateMutability": "view",
      "type": "function"
    },
    {
      "inputs": [
        {
          "internalType": "uint256",
          "name": "",
          "type": "uint256"
        },
        {
          "internalType": "address",
          "name": "",
          "type": "address"
        }
      ],
      "name": "comboClaimed",
      "outputs": [
        {
          "internalType": "bool",
          "name": "",
          "type": "bool"
        }
      ],
      "stateMutability": "view",
      "type": "function"
    },
    {
      "inputs": [
        {
          "internalType": "uint256",
          "name": "",
          "type": "uint256"
        },
        {
          "internalType": "address",
          "name": "",
          "type": "address"
        }
      ],
      "name": "comboLPStakes",
      "outputs": [
        {
          "internalType": "uint256",
          "name": "",
          "type": "uint256"
        }
      ],
      "stateMutability": "view",
      "type": "function"
    },
    {
      "inputs": [
        {
          "internalType": "uint256",
          "name": "",
          "type": "uint256"
        },
        {
          "internalType": "uint256",
          "name": "",
          "type": "uint256"
        }
      ],
      "name": "comboPoolBettors",
      "outputs": [
        {
          "internalType": "address",
          "name": "",
          "type": "address"
        }
      ],
      "stateMutability": "view",
      "type": "function"
    },
    {
      "inputs": [],
      "name": "comboPoolCount",
      "outputs": [
        {
          "internalType": "uint256",
          "name": "",
          "type": "uint256"
        }
      ],
      "stateMutability": "view",
      "type": "function"
    },
    {
      "inputs": [
        {
          "internalType": "uint256",
          "name": "",
          "type": "uint256"
        },
        {
          "internalType": "uint256",
          "name": "",
          "type": "uint256"
        }
      ],
      "name": "comboPoolLPs",
      "outputs": [
        {
          "internalType": "address",
          "name": "",
          "type": "address"
        }
      ],
      "stateMutability": "view",
      "type": "function"
    },
    {
      "inputs": [
        {
          "internalType": "uint256",
          "name": "",
          "type": "uint256"
        }
      ],
      "name": "comboPools",
      "outputs": [
        {
          "internalType": "address",
          "name": "creator",
          "type": "address"
        },
        {
          "internalType": "uint256",
          "name": "creatorStake",
          "type": "uint256"
        },
        {
          "internalType": "uint256",
          "name": "totalCreatorSideStake",
          "type": "uint256"
        },
        {
          "internalType": "uint256",
          "name": "maxBettorStake",
          "type": "uint256"
        },
        {
          "internalType": "uint256",
          "name": "totalBettorStake",
          "type": "uint256"
        },
        {
          "internalType": "uint16",
          "name": "totalOdds",
          "type": "uint16"
        },
        {
          "internalType": "bool",
          "name": "settled",
          "type": "bool"
        },
        {
          "internalType": "bool",
          "name": "creatorSideWon",
          "type": "bool"
        },
        {
          "internalType": "bool",
          "name": "usesBitr",
          "type": "bool"
        },
        {
          "internalType": "uint256",
          "name": "eventStartTime",
          "type": "uint256"
        },
        {
          "internalType": "uint256",
          "name": "eventEndTime",
          "type": "uint256"
        },
        {
          "internalType": "uint256",
          "name": "bettingEndTime",
          "type": "uint256"
        },
        {
          "internalType": "uint256",
          "name": "resultTimestamp",
          "type": "uint256"
        },
        {
          "internalType": "string",
          "name": "category",
          "type": "string"
        },
        {
          "internalType": "uint256",
          "name": "maxBetPerUser",
          "type": "uint256"
        }
      ],
      "stateMutability": "view",
      "type": "function"
    },
    {
      "inputs": [
        {
          "components": [
            {
              "internalType": "bytes32",
              "name": "marketId",
              "type": "bytes32"
            },
            {
              "internalType": "bytes32",
              "name": "expectedOutcome",
              "type": "bytes32"
            },
            {
              "internalType": "bool",
              "name": "resolved",
              "type": "bool"
            },
            {
              "internalType": "bytes32",
              "name": "actualOutcome",
              "type": "bytes32"
            }
          ],
          "internalType": "struct BitredictPool.OutcomeCondition[]",
          "name": "conditions",
          "type": "tuple[]"
        },
        {
          "internalType": "uint16",
          "name": "combinedOdds",
          "type": "uint16"
        },
        {
          "internalType": "uint256",
          "name": "creatorStake",
          "type": "uint256"
        },
        {
          "internalType": "uint256",
          "name": "earliestEventStart",
          "type": "uint256"
        },
        {
          "internalType": "uint256",
          "name": "latestEventEnd",
          "type": "uint256"
        },
        {
          "internalType": "string",
          "name": "category",
          "type": "string"
        },
        {
          "internalType": "uint256",
          "name": "maxBetPerUser",
          "type": "uint256"
        },
        {
          "internalType": "bool",
          "name": "useBitr",
          "type": "bool"
        }
      ],
      "name": "createComboPool",
      "outputs": [],
      "stateMutability": "payable",
      "type": "function"
    },
    {
      "inputs": [
        {
          "internalType": "bytes32",
          "name": "_predictedOutcome",
          "type": "bytes32"
        },
        {
          "internalType": "uint256",
          "name": "_odds",
          "type": "uint256"
        },
        {
          "internalType": "uint256",
          "name": "_creatorStake",
          "type": "uint256"
        },
        {
          "internalType": "uint256",
          "name": "_eventStartTime",
          "type": "uint256"
        },
        {
          "internalType": "uint256",
          "name": "_eventEndTime",
          "type": "uint256"
        },
        {
          "internalType": "string",
          "name": "_league",
          "type": "string"
        },
        {
          "internalType": "string",
          "name": "_category",
          "type": "string"
        },
        {
          "internalType": "string",
          "name": "_region",
          "type": "string"
        },
        {
          "internalType": "bool",
          "name": "_isPrivate",
          "type": "bool"
        },
        {
          "internalType": "uint256",
          "name": "_maxBetPerUser",
          "type": "uint256"
        },
        {
          "internalType": "bool",
          "name": "_useBitr",
          "type": "bool"
        },
        {
          "internalType": "enum OracleType",
          "name": "_oracleType",
          "type": "uint8"
        },
        {
          "internalType": "bytes32",
          "name": "_marketId",
          "type": "bytes32"
        }
      ],
      "name": "createPool",
      "outputs": [],
      "stateMutability": "payable",
      "type": "function"
    },
    {
      "inputs": [],
      "name": "creationFeeBITR",
      "outputs": [
        {
          "internalType": "uint256",
          "name": "",
          "type": "uint256"
        }
      ],
      "stateMutability": "view",
      "type": "function"
    },
    {
      "inputs": [],
      "name": "creationFeeSTT",
      "outputs": [
        {
          "internalType": "uint256",
          "name": "",
          "type": "uint256"
        }
      ],
      "stateMutability": "view",
      "type": "function"
    },
    {
      "inputs": [
        {
          "internalType": "address",
          "name": "",
          "type": "address"
        },
        {
          "internalType": "uint256",
          "name": "",
          "type": "uint256"
        }
      ],
      "name": "creatorActivePools",
      "outputs": [
        {
          "internalType": "uint256",
          "name": "",
          "type": "uint256"
        }
      ],
      "stateMutability": "view",
      "type": "function"
    },
    {
      "inputs": [
        {
          "internalType": "address",
          "name": "stakingContract",
          "type": "address"
        }
      ],
      "name": "distributeFees",
      "outputs": [],
      "stateMutability": "nonpayable",
      "type": "function"
    },
    {
      "inputs": [],
      "name": "feeCollector",
      "outputs": [
        {
          "internalType": "address",
          "name": "",
          "type": "address"
        }
      ],
      "stateMutability": "view",
      "type": "function"
    },
    {
      "inputs": [
        {
          "internalType": "address",
          "name": "creator",
          "type": "address"
        },
        {
          "internalType": "uint256",
          "name": "limit",
          "type": "uint256"
        },
        {
          "internalType": "uint256",
          "name": "offset",
          "type": "uint256"
        }
      ],
      "name": "getActivePoolsByCreator",
      "outputs": [
        {
          "internalType": "uint256[]",
          "name": "poolIds",
          "type": "uint256[]"
        }
      ],
      "stateMutability": "view",
      "type": "function"
    },
    {
      "inputs": [
        {
          "internalType": "bytes32",
          "name": "categoryHash",
          "type": "bytes32"
        },
        {
          "internalType": "uint256",
          "name": "limit",
          "type": "uint256"
        },
        {
          "internalType": "uint256",
          "name": "offset",
          "type": "uint256"
        }
      ],
      "name": "getPoolsByCategory",
      "outputs": [
        {
          "internalType": "uint256[]",
          "name": "poolIds",
          "type": "uint256[]"
        }
      ],
      "stateMutability": "view",
      "type": "function"
    },
    {
      "inputs": [],
      "name": "guidedOracle",
      "outputs": [
        {
          "internalType": "address",
          "name": "",
          "type": "address"
        }
      ],
      "stateMutability": "view",
      "type": "function"
    },
    {
      "inputs": [
        {
          "internalType": "uint256",
          "name": "",
          "type": "uint256"
        },
        {
          "internalType": "address",
          "name": "",
          "type": "address"
        }
      ],
      "name": "lpStakes",
      "outputs": [
        {
          "internalType": "uint256",
          "name": "",
          "type": "uint256"
        }
      ],
      "stateMutability": "view",
      "type": "function"
    },
    {
      "inputs": [],
      "name": "minBetAmount",
      "outputs": [
        {
          "internalType": "uint256",
          "name": "",
          "type": "uint256"
        }
      ],
      "stateMutability": "view",
      "type": "function"
    },
    {
      "inputs": [],
      "name": "minPoolStakeBITR",
      "outputs": [
        {
          "internalType": "uint256",
          "name": "",
          "type": "uint256"
        }
      ],
      "stateMutability": "view",
      "type": "function"
    },
    {
      "inputs": [],
      "name": "minPoolStakeSTT",
      "outputs": [
        {
          "internalType": "uint256",
          "name": "",
          "type": "uint256"
        }
      ],
      "stateMutability": "view",
      "type": "function"
    },
    {
      "inputs": [],
      "name": "optimisticOracle",
      "outputs": [
        {
          "internalType": "address",
          "name": "",
          "type": "address"
        }
      ],
      "stateMutability": "view",
      "type": "function"
    },
    {
      "inputs": [],
      "name": "owner",
      "outputs": [
        {
          "internalType": "address",
          "name": "",
          "type": "address"
        }
      ],
      "stateMutability": "view",
      "type": "function"
    },
    {
      "inputs": [
        {
          "internalType": "uint256",
          "name": "poolId",
          "type": "uint256"
        },
        {
          "internalType": "uint256",
          "name": "amount",
          "type": "uint256"
        }
      ],
      "name": "placeBet",
      "outputs": [],
      "stateMutability": "payable",
      "type": "function"
    },
    {
      "inputs": [
        {
          "internalType": "uint256",
          "name": "comboPoolId",
          "type": "uint256"
        },
        {
          "internalType": "uint256",
          "name": "amount",
          "type": "uint256"
        }
      ],
      "name": "placeComboBet",
      "outputs": [],
      "stateMutability": "payable",
      "type": "function"
    },
    {
      "inputs": [],
      "name": "platformFee",
      "outputs": [
        {
          "internalType": "uint256",
          "name": "",
          "type": "uint256"
        }
      ],
      "stateMutability": "view",
      "type": "function"
    },
    {
      "inputs": [
        {
          "internalType": "uint256",
          "name": "",
          "type": "uint256"
        },
        {
          "internalType": "uint256",
          "name": "",
          "type": "uint256"
        }
      ],
      "name": "poolBettors",
      "outputs": [
        {
          "internalType": "address",
          "name": "",
          "type": "address"
        }
      ],
      "stateMutability": "view",
      "type": "function"
    },
    {
      "inputs": [
        {
          "internalType": "uint256",
          "name": "",
          "type": "uint256"
        }
      ],
      "name": "poolBoostExpiry",
      "outputs": [
        {
          "internalType": "uint256",
          "name": "",
          "type": "uint256"
        }
      ],
      "stateMutability": "view",
      "type": "function"
    },
    {
      "inputs": [
        {
          "internalType": "uint256",
          "name": "",
          "type": "uint256"
        }
      ],
      "name": "poolBoostTier",
      "outputs": [
        {
          "internalType": "enum BoostTier",
          "name": "",
          "type": "uint8"
        }
      ],
      "stateMutability": "view",
      "type": "function"
    },
    {
      "inputs": [],
      "name": "poolCount",
      "outputs": [
        {
          "internalType": "uint256",
          "name": "",
          "type": "uint256"
        }
      ],
      "stateMutability": "view",
      "type": "function"
    },
    {
      "inputs": [
        {
          "internalType": "uint256",
          "name": "",
          "type": "uint256"
        }
      ],
      "name": "poolIdToCreatorIndex",
      "outputs": [
        {
          "internalType": "uint256",
          "name": "",
          "type": "uint256"
        }
      ],
      "stateMutability": "view",
      "type": "function"
    },
    {
      "inputs": [
        {
          "internalType": "uint256",
          "name": "",
          "type": "uint256"
        },
        {
          "internalType": "uint256",
          "name": "",
          "type": "uint256"
        }
      ],
      "name": "poolLPs",
      "outputs": [
        {
          "internalType": "address",
          "name": "",
          "type": "address"
        }
      ],
      "stateMutability": "view",
      "type": "function"
    },
    {
      "inputs": [
        {
          "internalType": "uint256",
          "name": "",
          "type": "uint256"
        },
        {
          "internalType": "address",
          "name": "",
          "type": "address"
        }
      ],
      "name": "poolWhitelist",
      "outputs": [
        {
          "internalType": "bool",
          "name": "",
          "type": "bool"
        }
      ],
      "stateMutability": "view",
      "type": "function"
    },
    {
      "inputs": [
        {
          "internalType": "uint256",
          "name": "",
          "type": "uint256"
        }
      ],
      "name": "pools",
      "outputs": [
        {
          "internalType": "address",
          "name": "creator",
          "type": "address"
        },
        {
          "internalType": "uint16",
          "name": "odds",
          "type": "uint16"
        },
        {
          "internalType": "bool",
          "name": "settled",
          "type": "bool"
        },
        {
          "internalType": "bool",
          "name": "creatorSideWon",
          "type": "bool"
        },
        {
          "internalType": "bool",
          "name": "isPrivate",
          "type": "bool"
        },
        {
          "internalType": "bool",
          "name": "usesBitr",
          "type": "bool"
        },
        {
          "internalType": "bool",
          "name": "filledAbove60",
          "type": "bool"
        },
        {
          "internalType": "enum OracleType",
          "name": "oracleType",
          "type": "uint8"
        },
        {
          "internalType": "uint256",
          "name": "creatorStake",
          "type": "uint256"
        },
        {
          "internalType": "uint256",
          "name": "totalCreatorSideStake",
          "type": "uint256"
        },
        {
          "internalType": "uint256",
          "name": "maxBettorStake",
          "type": "uint256"
        },
        {
          "internalType": "uint256",
          "name": "totalBettorStake",
          "type": "uint256"
        },
        {
          "internalType": "bytes32",
          "name": "predictedOutcome",
          "type": "bytes32"
        },
        {
          "internalType": "bytes32",
          "name": "result",
          "type": "bytes32"
        },
        {
          "internalType": "bytes32",
          "name": "marketId",
          "type": "bytes32"
        },
        {
          "internalType": "uint256",
          "name": "eventStartTime",
          "type": "uint256"
        },
        {
          "internalType": "uint256",
          "name": "eventEndTime",
          "type": "uint256"
        },
        {
          "internalType": "uint256",
          "name": "bettingEndTime",
          "type": "uint256"
        },
        {
          "internalType": "uint256",
          "name": "resultTimestamp",
          "type": "uint256"
        },
        {
          "internalType": "uint256",
          "name": "arbitrationDeadline",
          "type": "uint256"
        },
        {
          "internalType": "string",
          "name": "league",
          "type": "string"
        },
        {
          "internalType": "string",
          "name": "category",
          "type": "string"
        },
        {
          "internalType": "string",
          "name": "region",
          "type": "string"
        },
        {
          "internalType": "uint256",
          "name": "maxBetPerUser",
          "type": "uint256"
        }
      ],
      "stateMutability": "view",
      "type": "function"
    },
    {
      "inputs": [
        {
          "internalType": "uint256",
          "name": "poolId",
          "type": "uint256"
        }
      ],
      "name": "refundPool",
      "outputs": [],
      "stateMutability": "nonpayable",
      "type": "function"
    },
    {
      "inputs": [
        {
          "internalType": "uint256",
          "name": "poolId",
          "type": "uint256"
        },
        {
          "internalType": "address",
          "name": "user",
          "type": "address"
        }
      ],
      "name": "removeFromWhitelist",
      "outputs": [],
      "stateMutability": "nonpayable",
      "type": "function"
    },
    {
      "inputs": [],
      "name": "renounceOwnership",
      "outputs": [],
      "stateMutability": "nonpayable",
      "type": "function"
    },
    {
      "inputs": [],
      "name": "reputationSystem",
      "outputs": [
        {
          "internalType": "contract IReputationSystem",
          "name": "",
          "type": "address"
        }
      ],
      "stateMutability": "view",
      "type": "function"
    },
    {
      "inputs": [
        {
          "internalType": "uint256",
          "name": "comboPoolId",
          "type": "uint256"
        },
        {
          "internalType": "uint256",
          "name": "conditionIndex",
          "type": "uint256"
        },
        {
          "internalType": "bytes32",
          "name": "actualOutcome",
          "type": "bytes32"
        }
      ],
      "name": "resolveComboCondition",
      "outputs": [],
      "stateMutability": "nonpayable",
      "type": "function"
    },
    {
      "inputs": [
        {
          "internalType": "address",
          "name": "_reputationSystem",
          "type": "address"
        }
      ],
      "name": "setReputationSystem",
      "outputs": [],
      "stateMutability": "nonpayable",
      "type": "function"
    },
    {
      "inputs": [
        {
          "internalType": "uint256",
          "name": "poolId",
          "type": "uint256"
        },
        {
          "internalType": "bytes32",
          "name": "outcome",
          "type": "bytes32"
        }
      ],
      "name": "settlePool",
      "outputs": [],
      "stateMutability": "nonpayable",
      "type": "function"
    },
    {
      "inputs": [
        {
          "internalType": "uint256",
          "name": "poolId",
          "type": "uint256"
        }
      ],
      "name": "settlePoolAutomatically",
      "outputs": [],
      "stateMutability": "nonpayable",
      "type": "function"
    },
    {
      "inputs": [],
      "name": "totalCollectedBITR",
      "outputs": [
        {
          "internalType": "uint256",
          "name": "",
          "type": "uint256"
        }
      ],
      "stateMutability": "view",
      "type": "function"
    },
    {
      "inputs": [],
      "name": "totalCollectedSTT",
      "outputs": [
        {
          "internalType": "uint256",
          "name": "",
          "type": "uint256"
        }
      ],
      "stateMutability": "view",
      "type": "function"
    },
    {
      "inputs": [
        {
          "internalType": "address",
          "name": "newOwner",
          "type": "address"
        }
      ],
      "name": "transferOwnership",
      "outputs": [],
      "stateMutability": "nonpayable",
      "type": "function"
    },
    {
      "inputs": [
        {
          "internalType": "uint256",
          "name": "poolId",
          "type": "uint256"
        }
      ],
      "name": "withdrawCreatorStake",
      "outputs": [],
      "stateMutability": "nonpayable",
      "type": "function"
    },
    {
      "inputs": [
        {
          "internalType": "uint256",
          "name": "poolId",
          "type": "uint256"
        }
      ],
      "name": "withdrawLiquidity",
      "outputs": [],
      "stateMutability": "nonpayable",
      "type": "function"
    }
  ],
  "bytecode": "0x60e034620001ce57601f6200615438819003918201601f19168301926001600160401b0392909183851183861017620001d3578160809284926040978852833981010312620001ce576200005381620001e9565b91602062000063818401620001e9565b916200007f606062000077888701620001e9565b9501620001e9565b943315620001b65760008054336001600160a01b031980831682178455956001600160a01b0395939290919086167f8be0079c531659141344cd1fd0a4f28419497f9722a3daafe3b4186f6b6457e08480a389516080810181811085821117620001a2578b52828152671bc16d674ec80000828201526729a2241af62c00008b820152674563918244f400006060820152915b600481106200018c57505050501690600154161760015560805260a05260c05251615f559081620001ff8239608051818181610e860152611f20015260a051818181610bda01528181610ecb01528181612f6901526141e9015260c051818181610e4801528181613092015281816131a9015261435b0152f35b8251841660078201559181019160010162000112565b634e487b7160e01b84526041600452602484fd5b8651631e4fbdf760e01b815260006004820152602490fd5b600080fd5b634e487b7160e01b600052604160045260246000fd5b51906001600160a01b0382168203620001ce5756fe61010080604052600436101561001457600080fd5b600090813560e01c90816301b708c214614e00575080630a861f2a146149c15780630e8a01bc1461455857806310d0325214614463578063120aa8771461441a578063152cdda9146141615780631787010f14613e9b5780631f117f9b146131d85780632230292214613193578063237e23be14612efd57806326232a2e146106f757806329402fea14612ed75780632d78546114612e3e57806331143cee14612dfe5780633256435014612ddb578063379607f514612b97578063394d997614610b6c57806339cb2c9114612b6a5780633df2afa614612b405780633e8670ff14612b0e578063480d154114612ada5780634afe62b5146126e05780634c2809f1146106cf5780634d7aae78146126bc578063598f2d84146124865780635e4de66514612454578063657c183f146124385780636587eda11461240f5780636b657612146123c6578063715018a61461236c57806384499bb6146123485780638b4ed2351461231e5780638da5cb5b146122f75780638f63f748146122d95780639413f25c14611efa5780639cd441da14611b785780639fd482be14611b2c578063a0b310df14611ae5578063a0f8b49114611aa8578063a12a41cf14611a60578063a695ee3814611a34578063a7a891bf14611a02578063a8245783146118b0578063aac137d614611892578063ab78cc1514611876578063ac4afa381461169b578063aedc598114611654578063bc19c6dd14610f41578063c26e797e14610efa578063c341261014610eb5578063c415b95c14610e70578063c4baad8114610bb8578063d0f808be14610b71578063d96d09aa146106f7578063d9c6176c14610b6c578063e0de55d01461086b578063e82ac07614610838578063ebbe74d7146106d4578063ed517547146107f0578063f05e2525146107d2578063f23b420f14610787578063f2fde38b146106fc578063f3baf070146106f7578063f525cb68146106d9578063f56926b2146106d4578063f8bf195f146106d4578063fa968eea146106cf578063fea3e6131461065d5763ffd230c91461031957600080fd5b604036600319011261065a57600435602480359060048210156106565761034360025484106153f6565b811561061d578284526018602090815260408520546001600160a01b031633036105e2578385526018815260086040862001544210156105a8576000600184036105555760055b61039385615157565b54101561052057848652600c825260ff604087205416600481101561050d57801515806104f9575b6104de575b506104cb57826007015491823403610488576103de83600554615269565b600555848652600c82526040862060ff1981541660ff8616179055620151804201908142116104765750917fefc14802c8cf8d64bd7c3cfffe96632ef815d3f9d4a6dcf5033b415a166b53b69391606093868852600d8252604088205561044483615157565b61044e81546153e7565b9055858752600d815260408720549061046a60405180956150ed565b8301526040820152a280f35b634e487b7160e01b8752601160045286fd5b90601a6064926040519262461bcd60e51b845260048401528201527f496e636f727265637420626f6f73742066656520616d6f756e740000000000006044820152fd5b50634e487b7160e01b8452602160045283fd5b6104e790615157565b6104f18154615e75565b9055386103c0565b50858752600d8352604087205442106103bb565b634e487b7160e01b875260216004528387fd5b50600f6064926040519262461bcd60e51b845260048401528201526e109bdbdcdd081d1a595c88199d5b1b608a1b6044820152fd5b6002840361056457600561038a565b5060006003840361057657600561038a565b50600c6064926040519262461bcd60e51b845260048401528201526b24b73b30b634b2103a34b2b960a11b6044820152fd5b60156064926040519262461bcd60e51b8452600484015282015274115d995b9d08185b1c9958591e481cdd185c9d1959605a1b6044820152fd5b60166064926040519262461bcd60e51b845260048401528201527513db9b1e4818dc99585d1bdc8818d85b88189bdbdcdd60521b6044820152fd5b60649060126040519162461bcd60e51b8352602060048401528201527124b73b30b634b2103137b7b9ba103a34b2b960711b6044820152fd5b8380fd5b80fd5b503461065a57604036600319011261065a5760043561067a614fa5565b9061068860025482106153f6565b808352601860205260408320546001600160a01b0391906106ac9083163314615d42565b8352600e602052604083209116600052602052604060002060ff19815416905580f35b615110565b615170565b503461065a578060031936011261065a576020600254604051908152f35b615033565b503461065a57602036600319011261065a57610716614fbb565b61071e61518c565b6001600160a01b0390811690811561076e57600054826001600160601b0360a01b821617600055167f8be0079c531659141344cd1fd0a4f28419497f9722a3daafe3b4186f6b6457e0600080a380f35b604051631e4fbdf760e01b815260048101849052602490fd5b503461065a57610796366150a9565b9190815260156020526040812090815483101561065a5760206107b984846150bf565b905460405160039290921b1c6001600160a01b03168152f35b503461065a578060031936011261065a576020600354604051908152f35b503461065a57604036600319011261065a57602435906004358152600f6020526040812090815483101561065a57602061082a84846150bf565b90546040519160031b1c8152f35b503461065a57602036600319011261065a5760043590600482101561065a57602061086283615157565b54604051908152f35b503461065a57602080600319360112610b685760043561088e6003548210615e9e565b808352601282526040832091600583016108ae60ff825460101c16615a11565b82855260178252604085203360005282526108d160ff6040600020541615615a4b565b82855260178252604085203360005282526040600020600160ff198254161790558493815460ff8160181c16600014610ac857508386526016835260408620336000528352604060002054908115908115610a6a575b5050505b83610934578480f35b54811c60ff1615610a2a5760015460405163a9059cbb60e01b8152336004820152602481018590529190819083906001600160a01b0316818881604481015b03925af1918215610a1f5785926109c1575b506109b07f24b5efa61dd1cfc659205a97fb8ed868f3cb8c81922bab2b96423e5de1de2cb792615ac9565b6040519384523393a3388080808480f35b91508082813d8311610a18575b6109d88183614e96565b81010312610a14576109b0610a0d7f24b5efa61dd1cfc659205a97fb8ed868f3cb8c81922bab2b96423e5de1de2cb7936151b8565b9250610985565b8480fd5b503d6109ce565b6040513d87823e3d90fd5b7f24b5efa61dd1cfc659205a97fb8ed868f3cb8c81922bab2b96423e5de1de2cb790610a658580808088335af1610a5f615833565b50615a89565b6109b0565b9091929550612710918284029084820484141715610ab457816004610a9c610aa4936002610aab98979601549061534f565b910154615791565b0490615269565b92388080610927565b634e487b7160e01b88526011600452602488fd5b9050838652601483526040862033600052835260406000205480610aee575b505061092b565b909450610b2c612710610b24610b156064610b0d61ffff8b1687615791565b04948561536f565b610b1e33615b0a565b90615791565b04809261536f565b948115610ae757831c60ff1615610b5457610b4990600654615269565b6006555b3880610ae7565b610b6090600554615269565b600555610b4d565b5080fd5b61508b565b503461065a57604036600319011261065a576040610b8d614fa5565b9160043581526014602052209060018060a01b03166000526020526020604060002054604051908152f35b503461065a57606036600319011261065a5760043560243560018060a01b03807f0000000000000000000000000000000000000000000000000000000000000000163314908115610e44575b5015610e1257600390610c1982548410615e9e565b82845260126020526040842091600583019160ff91610c3e83855460101c16156157a4565b600c8501918254811015610dcd57610c568184615e82565b50908460028093015416610d8857610c8882610c728387615e82565b5001916001928360ff1982541617905585615e82565b5083604435910155809389958a938254945b858110610d24575b5050505050505080610d16575b610cb7578480f35b7f229d1ce99036a89ca341013e342e45bf92c5f3802ab63e6c2e9c718e0ac39882928262010000604094549315159363ff0000008560181b169063ffff00001916171790556009429101558151908152426020820152a2388080808480f35b506007830154421015610caf565b8282610d308387615e82565b5001541615610d735786610d448286615e82565b50015485610d528387615e82565b50015403610d69575b610d64906153e7565b610c9a565b9397508793610d5b565b50505050505050508438808080808080610ca2565b60405162461bcd60e51b815260206004820152601a60248201527f436f6e646974696f6e20616c7265616479207265736f6c7665640000000000006044820152606490fd5b60405162461bcd60e51b815260206004820152601760248201527f496e76616c696420636f6e646974696f6e20696e6465780000000000000000006044820152606490fd5b60405162461bcd60e51b815260206004820152600a6024820152694e6f74206f7261636c6560b01b6044820152606490fd5b90507f000000000000000000000000000000000000000000000000000000000000000016331438610c04565b503461065a578060031936011261065a576040517f00000000000000000000000000000000000000000000000000000000000000006001600160a01b03168152602090f35b503461065a578060031936011261065a576040517f00000000000000000000000000000000000000000000000000000000000000006001600160a01b03168152602090f35b503461065a57604036600319011261065a576040610f16614fa5565b916004358152601c602052209060018060a01b03166000526020526020604060002054604051908152f35b5061010036600319011261065a576004356001600160401b038111610b685736602382011215610b6857806004013590610f7a82615140565b91610f886040519384614e96565b8083526024602084019160071b83010191368311610a1457602401905b8282106115d6575050506024359161ffff8316830361065a5760a4356001600160401b038111610b6857610fdd903690600401614fec565b9160e4359283151584036115d1578151600281101590816115c5575b501561158057606461ffff86161180611570575b156115335783156115185761102f683635c9adc5dea000006044351015615211565b603c420180421161144357611047906064351161528c565b60643560843511156114dd5783156114cf576802b5e3af16b18800005b8361107160443583615269565b86156114ae576001546040516323b872dd60e01b81523360048201523060248201526044810192909252909160209183916064918391906001600160a01b03165af1908115610a1f57859161146b575b50906110cf6110d79261530c565b600654615269565b6006555b61ffff606486821604811660001901116114575761110a61ffff600019816064818a160416011660443561534f565b93606435603b1981011161144357600354845260126020526040842094336001600160601b0360a01b875416178655604435600187015560443560028701556003860155836004860155600585019064ff00000000825491151560201b169061ffff88169064ffffffffff19161717905560643560068501556084356007850155603b196064350160088501558260098501558051906001600160401b03821161142f5781906111bd600a870154614e25565b601f81116113de575b50602090601f831160011461136c578592611361575b50508160011b916000199060031b1c191617600a8401559291925b60c435600b850155600c829401935b81518110156112a5576112198183615863565b518554600160401b811015611291578060016112389201885587615e82565b91909161127d57906003606083611278959451845560208101516001850155600284016040820151151560ff8019835416911617905501519101556153e7565b611206565b634e487b7160e01b85526004859052602485fd5b634e487b7160e01b85526041600452602485fd5b5061135b9192600354845260156020526112c23360408620615388565b60035484526016602052604084203360005260205260443560406000205561ffff600354925191604051928352166020820152817f9fd48ac66783aaba800ed3f46853bc3ada5277bd5db71378441d817c74bafa8c60403393a380604051600080516020615ee083398151915233918061135342604435836040909392919360608101946000825260208201520152565b0390a36153e7565b60035580f35b0151905038806111dc565b9250600a86018552602085209085935b601f19841685106113c3576001945083601f198116106113aa575b505050811b01600a8401559291926111f7565b015160001960f88460031b161c19169055388080611397565b8181015183556020948501946001909301929091019061137c565b909150600a8601855260208520601f840160051c810160208510611428575b90849392915b601f830160051c820181106114195750506111c6565b60008155859450600101611403565b50806113fd565b634e487b7160e01b84526041600452602484fd5b634e487b7160e01b84526011600452602484fd5b634e487b7160e01b83526011600452602483fd5b90506020813d6020116114a6575b8161148660209383614e96565b81010312610a1457906110cf61149e6110d7936151b8565b9192506110c1565b3d9150611479565b6114c79291506114bf9034146152c9565b600554615269565b6005556110db565b670de0b6b3a7640000611064565b60405162461bcd60e51b8152602060048201526013602482015272496e76616c6964206576656e742074696d657360681b6044820152606490fd5b61152e674563918244f4000060443510156151c5565b61102f565b60405162461bcd60e51b8152602060048201526015602482015274496e76616c696420636f6d62696e6564206f64647360581b6044820152606490fd5b5061c35061ffff8616111561100d565b60405162461bcd60e51b815260206004820152601760248201527f322d3420636f6e646974696f6e732072657175697265640000000000000000006044820152606490fd5b60049150111538610ff9565b600080fd5b6080908183360312611650576040519182018281106001600160401b0382111761163a57604052823582526020830135602083015260408301359081151582036115d157826020926040608095015260608086013590820152815201910190610fa5565b634e487b7160e01b600052604160045260246000fd5b8580fd5b503461065a57604036600319011261065a576040611670614fa5565b916004358152601a602052209060018060a01b03166000526020526020604060002054604051908152f35b503461065a57602036600319011261065a5760043581526018602052604090208080546001820154600283015460a052600383015460c0526004830154600584015460068501546007860154600887015490600988015492600a89015494600b8a015496600c8b015498600d8c0161171290614eb7565b9a61171f600e8e01614eb7565b9c600f0161172c90614eb7565b9d6010015460e05260405180608052600160a01b60019003821690528060a01c61ffff166080516020015260ff808260b01c16151560805160400152808260b81c16151560805160600152808260c01c16151560805160800152808260c81c16151560805160a00152808260d01c16151560805160c0015260805160e0019160d81c16906117b991615133565b608051610100015260a051608051610120015260c0516080516101400152608051610160015260805161018001526080516101a001526080516101c001526080516101e0015260805161020001526080516102200152608051610240015260805161026001526103008060805161028001526080510161183891614f80565b608051808203906102a0015261184d91614f80565b608051808203906102c0015261186291614f80565b60e0516080516102e0015260805180910390f35b503461065a578060031936011261065a576020604051603c8152f35b503461065a578060031936011261065a576020600554604051908152f35b503461065a57602080600319360112610b6857600435906001600160401b03908183116106565736602384011215610656578260040135918211610656576024926005368585831b8401011161165057855b84811061190d578680f35b8581831b840101356002548110156119f857808852600c80865260ff60408a20541690600d9081885260408b205460048410156119e557928b92899261196a97969583151590816119da575b5061196f575b5050505050506153e7565b611902565b857f3b39599a0e569d32e7c39669f521b7704a4abb9e4ec2a4d9826f205270f6c3029552835260408d2060ff198154169055848d5282528b60408120556119b581615157565b6119bf8154615e75565b90556119ce60405180926150ed565ba238888682808061195f565b905042101538611959565b634e487b7160e01b8c5260216004528a8cfd5b5061196a906153e7565b503461065a57611a11366150a9565b9190815260136020526040812090815483101561065a5760206107b984846150bf565b503461065a57602036600319011261065a576020611a58611a53614fbb565b615b0a565b604051908152f35b503461065a57604036600319011261065a57611a7a614fbb565b6001600160a01b031681526010602052604081208054602435929083101561065a57602061082a84846150bf565b503461065a57606036600319011261065a57611ae1611ad5611ac8614fbb565b6044359060243590615cc6565b60405191829182615050565b0390f35b503461065a57604036600319011261065a576040611b01614fa5565b9160043581526016602052209060018060a01b03166000526020526020604060002054604051908152f35b503461065a57604036600319011261065a576040611b48614fa5565b916004358152600e602052209060018060a01b0316600052602052602060ff604060002054166040519015158152f35b50611b82366150a9565b90611b9060025482106153f6565b80835260206018815260408420805490611bb060ff8360b01c1615615574565b670de0b6b3a76400008510611eb5576969e10de76676d08000008511611e7a57611bdf600a82015442106155ef565b60028101918254861910611e3c57848752601c84526040872033600052845260406000205415611dec575b60c01c60ff16611dc5575b838652601c83526040862033600052835260406000205415611dac575b838652601c8352604086203360005283526040600020611c53868254615269565b9055611c60858354615269565b8092556001810154916004820154838115918215611da2575b5050611d9a575b50805491606461ffff8460a01c16611c9a82821015615632565b04906000198201918211610ab457611cb860ff94939260039261534f565b91015560c81c1615611d7a576001546040516323b872dd60e01b815233600482015230602482015260448101859052919081908390606490829089906001600160a01b03165af1918215610a1f578592611d32575b50611d26600080516020615f008339815191529261530c565b6040519384523393a380f35b91508082813d8311611d73575b611d498183614e96565b81010312610a1457611d26611d6c600080516020615f00833981519152936151b8565b9250611d0d565b503d611d3f565b600080516020615f0083398151915290611d958434146152c9565b611d26565b915038611c80565b1190508338611c79565b838652601b8352611dc03360408820615388565b611c32565b838652600e835260408620336000528352611de760ff604060002054166156fa565b611c15565b848752601b84526064604088205410611c0a5760405162461bcd60e51b8152600481018590526015602482015274546f6f206d616e79204c502070726f76696465727360581b6044820152606490fd5b60405162461bcd60e51b815260048101859052601660248201527543726561746f72207374616b65206f766572666c6f7760501b6044820152606490fd5b60405162461bcd60e51b81526004810184905260136024820152724c697175696469747920746f6f206c6172676560681b6044820152606490fd5b60405162461bcd60e51b815260048101849052601760248201527f4c69717569646974792062656c6f77206d696e696d756d0000000000000000006044820152606490fd5b503461065a57602080600319360112610b6857611f15614fbb565b906001600160a01b037f000000000000000000000000000000000000000000000000000000000000000081811692913384900361229f576005549460065494861593849182159081612198575b508715968715928361203e575b505091612036575b50611f80578680f35b1691601e8402938404601e14171561202257601e8402938404601e14171561144357908184923b1561201e5760649183604492846040519788968795633d6bcfaf60e11b87520460048601520460248401525af1801561201357611fe8575b80808080808680f35b6001600160401b038111611fff5760405238611fdf565b634e487b7160e01b82526041600452602482fd5b6040513d84823e3d90fd5b8280fd5b634e487b7160e01b85526011600452602485fd5b905038611f77565b909350601e8902898104601e148917156121845760648c91048160065581866120a58d612070858d600154169261536f565b60405163a9059cbb60e01b8082526001600160a01b039099166004820152602481019190915295869283919082906044820190565b03925af192831561217757879361213e575b506001546040519485526001600160a01b038916600486015260248501929092528391891690829081604481015b03925af193841561213357879415611f6f5790809450813d831161212c575b61210e8183614e96565b810103126121285761212086936151b8565b503880611f6f565b8980fd5b503d612104565b6040513d8d823e3d90fd5b9283813d8311612170575b6121538183614e96565b8101031261065a576120e59361216988946151b8565b50936120b7565b503d612149565b50604051903d90823e3d90fd5b634e487b7160e01b8c52601160045260248cfd5b90919250601e8902898104601e1487171561228b578a80808c946121c5606483960480978460055561536f565b905af16121d0615833565b501561223c5789808080938888165af16121e8615833565b50156121f75790849138611f62565b60405162461bcd60e51b815260048101879052601b60248201527f535454207374616b696e67207472616e73666572206661696c656400000000006044820152606490fd5b60405162461bcd60e51b815260048101889052602160248201527f5354542066656520636f6c6c6563746f72207472616e73666572206661696c656044820152601960fa1b6064820152608490fd5b634e487b7160e01b8b52601160045260248bfd5b60405162461bcd60e51b815260048101849052601260248201527127b7363c903332b29031b7b63632b1ba37b960711b6044820152606490fd5b503461065a578060031936011261065a576020600654604051908152f35b503461065a578060031936011261065a57546040516001600160a01b039091168152602090f35b503461065a57602036600319011261065a5760406020916004358152601183522054604051908152f35b503461065a578060031936011261065a5760206040516802b5e3af16b18800008152f35b503461065a578060031936011261065a5761238561518c565b80546001600160a01b03198116825581906001600160a01b03167f8be0079c531659141344cd1fd0a4f28419497f9722a3daafe3b4186f6b6457e08280a380f35b503461065a57604036600319011261065a5760ff60406020926123e7614fa5565b6004358252601785528282206001600160a01b03909116825284522054604051911615158152f35b503461065a578060031936011261065a576004546040516001600160a01b039091168152602090f35b503461065a578060031936011261065a57602060405160648152f35b503461065a57612463366150a9565b91908152601b6020526040812090815483101561065a5760206107b984846150bf565b50612490366150a9565b9061249e6003548210615e9e565b80835260206012815260ff6040852060058101906124c283835460101c1615615574565b6124d6670de0b6b3a76400008710156155af565b6124e5600882015442106155ef565b600b60048201916125066124fa898554615269565b6003830154101561567e565b01548061268d575b508487526014845260408720338852845260408720541561265c575b8487526014845260408720338852845260408720612549878254615269565b9055612556868254615269565b905554821c161561262f576001546040516323b872dd60e01b815233600482015230602482015260448101859052919081908390606490829089906001600160a01b03165af1918215610a1f5785926125d5575b50611d267fa62ac007af53ff4400791f2f3468865d30bb8700e4624a47647a3d5e6cbcf2e99261530c565b91508082813d8311612628575b6125ec8183614e96565b81010312610a1457611d266126217fa62ac007af53ff4400791f2f3468865d30bb8700e4624a47647a3d5e6cbcf2e9936151b8565b92506125aa565b503d6125e2565b7fa62ac007af53ff4400791f2f3468865d30bb8700e4624a47647a3d5e6cbcf2e990611d958434146152c9565b848752601384526126746101f46040892054106156b6565b848752601384526126883360408920615388565b61252a565b6126b6908689526014865260408920338a5286526126af8860408b2054615269565b1115615745565b3861250e565b503461065a578060031936011261065a576020604051683635c9adc5dea000008152f35b506126ea366150a9565b906126f860025482106153f6565b8083526020601881526040842061270e81615431565b61271c604082015115615574565b612730670de0b6b3a76400008610156155af565b69152d02c7e14af68000008511612aa55761275161022082015142106155ef565b6101008101918251610160830193845190888215928315612a8f575b505050612a83575b606461ffff868501511661278b82821015615632565b04906000198201918211612a6f57906127a39161534f565b926127ba846127b3898451615269565b111561567e565b8051871910612a395790612829878793848b52601a885260408b20338c52885261280e8260408d20548d811580612a1c575b60808b01516129f7575b6102e08b0180516129da575b506129bf575b50615269565b858c52601a895260408c20338d52895260408c205551615269565b90816004820155846003820155805460ff8160d01c16159586612977575b5060a095612930575b5050505001511561291d576001546040516323b872dd60e01b815233600482015230602482015260448101859052919081908390606490829089906001600160a01b03165af1918215610a1f5785926128e2575b506128b060019261530c565b6040519384528301527fb1bd10cf5ea9540f12b9b182707734fd82deacc56830e2bd316133deb372bff460403393a380f35b91508082813d8311612916575b6128f98183614e96565b81010312610a14576128b061290f6001936151b8565b92506128a4565b503d6128ef565b60019061292b8434146152c9565b6128b0565b600160d01b9060ff60d01b1916179055600080516020615ee08339815191526060600180871b0385511692604051906001825288820152426040820152a383388080612850565b9193509193945060648402848104606414851517156129ab5791603c6129a389959360a098979561534f565b101595612847565b634e487b7160e01b8a52601160045260248afd5b80896129d4925260198d526040339120615388565b8d612808565b6129f1906129e88686615269565b90511015615745565b38612802565b898252600e8d52604082203383528d52612a1760ff6040842054166156fa565b6127f6565b89825260198d52612a346101f46040842054106156b6565b6127ec565b60405162461bcd60e51b815260048101869052600e60248201526d5374616b65206f766572666c6f7760901b6044820152606490fd5b634e487b7160e01b89526011600452602489fd5b50610120820151612775565b612a9a929350615269565b90511038888161276d565b60405162461bcd60e51b815260048101849052600d60248201526c42657420746f6f206c6172676560981b6044820152606490fd5b503461065a57602036600319011261065a5760ff60406020926004358152600c8452205416612b0c60405180926150ed565bf35b503461065a57612b1d366150a9565b9190815260196020526040812090815483101561065a5760206107b984846150bf565b503461065a57602036600319011261065a5760406020916004358152600d83522054604051908152f35b503461065a57602036600319011261065a576004356004811015610b685760209060070154604051908152f35b503461065a57602080600319360112610b6857600435612bba60025482106153f6565b80835260188252612bcd60408420615431565b91612bdd60408401511515615a11565b818452601d8152604084203385528152612bfe60ff60408620541615615a4b565b818452601d8152604080852033865282528420805460ff19166001179055606083015184939015612cea57828552601c8252604085203386528252604085205480158015612c94575b50505b83612c53578480f35b60a0015115610a2a5760015460405163a9059cbb60e01b8152336004820152602481018590529190819083906001600160a01b031681888160448101610973565b90919450612710908183029083820483141715612cd65790610aa4612cc3612cce94936101208901519061534f565b610160880151615791565b923880612c47565b634e487b7160e01b87526011600452602487fd5b828552601a8252604085203386528252604085205480612d0b575b50612c4a565b9350826064612d2161ffff858501511687615791565b0494612d3e612710612d36610b15848a61536f565b04809761536f565b9580612da7575b5060a083015115612d9657686c6b935b8bbd4000008110155b612d69575b50612d05565b604051906003825284820152426040820152600080516020615ee083398151915260603392a38238612d63565b678ac7230489e80000811015612d5e565b60a084015115612dc757612dbd90600654615269565b6006555b38612d45565b612dd390600554615269565b600555612dc1565b503461065a578060031936011261065a576020604051674563918244f400008152f35b503461065a57602036600319011261065a57612e18614fbb565b612e2061518c565b60018060a01b03166001600160601b0360a01b600454161760045580f35b503461065a57604036600319011261065a57600435612e5b614fa5565b90612e6960025482106153f6565b808352601860205260408320546001600160a01b0390612e8c9082163314615d42565b818452600e6020526040842092169182845260205260408320600160ff198254161790557fef35c6815799b054cdc749d1f5bb07547c285ef9d7559c6e839da576f42b49098380a380f35b503461065a57606036600319011261065a57611ae1611ad5604435602435600435615c1d565b503461065a57604036600319011261065a57600435602435612f2260025483106153f6565b818352601860205260408320908154612f4160ff8260b01c16156158fe565b612f51600984015442101561593c565b60ff8160d81c16600281101561317f578061308957507f00000000000000000000000000000000000000000000000000000000000000006001600160a01b03163303613031577f86acb9671870fda5e7ea8aa500f96625102d6f2e5a2ee12d3ca0fb612850fa299260ff915b60068201849055600582015460ff60b81b1960b085901b19909216600160b01b17919091169084141560b81b60ff60b81b161781555b42600b82015561300285615d7c565b5460b81c1661302b60405192839242918460409194939260608201958252151560208201520152565b0390a280f35b60405162461bcd60e51b815260206004820152602a60248201527f4f6e6c7920677569646564206f7261636c652063616e20736574746c652067756044820152696964656420706f6f6c7360b01b6064820152608490fd5b600103613144577f00000000000000000000000000000000000000000000000000000000000000006001600160a01b031633036130ea577f86acb9671870fda5e7ea8aa500f96625102d6f2e5a2ee12d3ca0fb612850fa299260ff91612fbd565b60405162461bcd60e51b815260206004820152602c60248201527f4f6e6c79206f7074696d6973746963206f7261636c652063616e20736574746c60448201526b65206f70656e20706f6f6c7360a01b6064820152608490fd5b60405162461bcd60e51b8152602060048201526013602482015272496e76616c6964206f7261636c65207479706560681b6044820152606490fd5b634e487b7160e01b86526021600452602486fd5b503461065a578060031936011261065a576040517f00000000000000000000000000000000000000000000000000000000000000006001600160a01b03168152602090f35b506101a036600319011261065a5760a4356001600160401b038111610b6857613205903690600401614fec565b60c4356001600160401b03811161201e57613224903690600401614fec565b9060e4356001600160401b03811161065657613244903690600401614fec565b61010435918215158303610a14576101443515156101443503610a14576002610164351015610a145760646024351180613e8d575b15613e32576004546001600160a01b031680613c7f575b506101443515613c64576132b1683635c9adc5dea000006044351015615211565b69d3c21bcecceda100000060443511613c2d57426064351115613be8576064356084351115613ba357603c42014211612022576132f4603c42016064351161528c565b6301e1338042014211612022576301e1338042016064351015613b6e576101443515613b5f57846802b5e3af16b18800005b61333260443582615269565b6101443515613b47576001546040516323b872dd60e01b81523360048201523060248201526044810192909252909260209184916064918391906001600160a01b03165af1918215613b3c578792613af8575b506110cf6133929261530c565b6006555b60646024350480600019810111613ae4576133b7906000190160443561534f565b606435603b19810111613ae457620151806084350160843511613ae457604051936133e185614e5f565b33855261ffff6024351660208601528660408601528660608601521515608085015261014435151560a08501528560c08501526134246101643560e0860161537c565b604435610100850181905261012085015261014084015261016083018590526004356101808401526101a08301859052610184356101c08401526064356101e084018190526084356102008501819052603b19909101610220850152610240840186905262015180016102608401526102808301526102a082018390526102c0820152610124356102e0820152600254835260186020908152604080852083518154938501519285015160608601516001600160c01b03199095166001600160a01b03929092169190911760a09390931b61ffff60a01b169290921791151560b01b60ff60b01b169190911791151560b81b60ff60b81b169190911781559060808101511515825460ff60c81b60a0840151151560c81b1660ff60d01b60c0850151151560d01b169160e08501516002811015613ad05760ff60d81b9060d81b169360ff60c01b9060c01b169063ffffffff60c01b1916171717178255610100810151600183015561012081015160028301556101408101516003830155610160810151600483015561018081015160058301556101a081015160068301556101c081015160078301556101e081015160088301556102008101516009830155610220810151600a830155610240810151600b830155610260810151600c8301556102808101518051906001600160401b03821161392857819061362b600d860154614e25565b601f8111613a80575b50602090601f8311600114613a11578792613a06575b50508160011b916000199060031b1c191617600d8301555b6102a08101518051906001600160401b038211613928578190613688600e860154614e25565b601f81116139b6575b50602090601f831160011461394757879261393c575b50508160011b916000199060031b1c191617600e8301555b6102c08101518051906001600160401b038211613928576136e3600f850154614e25565b601f81116138e4575b50602090601f8311600114613874579180601094926102e0948992613869575b50508160011b916000199060031b1c191617600f8501555b01519101556002548252601b6020526137403360408420615388565b6002548252601c602052604082203383526020526044356040832055602081519101208152600f60205261377a60408220600254906153ab565b338152601060205261379260408220600254906153ab565b3381526010602052604081205460001981019081116138555760025482526011602052604082205561384f60025480604051600080516020615ee08339815191523391806137f742604435836040909392919360608101946000825260208201520152565b0390a36040516064358152608435602082015261381a6040820161016435615133565b610184356060820152817f1f0b2ea2d1ad174a9b71a251bd90e47ad5395c0e34e6e0fd0f80c1495eddd42260803393a36153e7565b60025580f35b634e487b7160e01b82526011600452602482fd5b01519050388061370c565b600f85018752602087209190601f198416885b8181106138cc57509260019285926102e09660109896106138b3575b505050811b01600f850155613724565b015160001960f88460031b161c191690553880806138a3565b92936020600181928786015181550195019301613887565b600f8501875260208720601f840160051c810160208510613921575b601f830160051c820181106139165750506136ec565b888155600101613900565b5080613900565b634e487b7160e01b86526041600452602486fd5b0151905038806136a7565b9250600e85018752602087209087935b601f198416851061399b576001945083601f19811610613982575b505050811b01600e8301556136bf565b015160001960f88460031b161c19169055388080613972565b81810151835560209485019460019093019290910190613957565b909150600e8501875260208720601f840160051c8101602085106139ff575b90849392915b601f830160051c820181106139f1575050613691565b8981558594506001016139db565b50806139d5565b01519050388061364a565b9250600d85018752602087209087935b601f1984168510613a65576001945083601f19811610613a4c575b505050811b01600d830155613662565b015160001960f88460031b161c19169055388080613a3c565b81810151835560209485019460019093019290910190613a21565b909150600d8501875260208720601f840160051c810160208510613ac9575b90849392915b601f830160051c82018110613abb575050613634565b898155859450600101613aa5565b5080613a9f565b634e487b7160e01b89526021600452602489fd5b634e487b7160e01b86526011600452602486fd5b91506020823d8211613b34575b81613b1260209383614e96565b81010312613b30576110cf613b29613392936151b8565b9250613385565b8680fd5b3d9150613b05565b6040513d89823e3d90fd5b613b5792506114bf9034146152c9565b600555613396565b84670de0b6b3a7640000613326565b60405162461bcd60e51b815260206004820152600d60248201526c22bb32b73a103a37b7903330b960991b6044820152606490fd5b60405162461bcd60e51b815260206004820152601d60248201527f4576656e7420656e64206d7573742062652061667465722073746172740000006044820152606490fd5b60405162461bcd60e51b815260206004820152601760248201527f4576656e74206d75737420626520696e206675747572650000000000000000006044820152606490fd5b60405162461bcd60e51b815260206004820152600f60248201526e5374616b6520746f6f206c6172676560881b6044820152606490fd5b613c7a674563918244f4000060443510156151c5565b6132b1565b602060249160016101643514600014613d6b576040516313f31f3960e31b815233600482015292839182905afa908115613d60578691613d27575b5015613cc7575b38613290565b60405162461bcd60e51b815260206004820152603260248201527f496e73756666696369656e742072657075746174696f6e20666f72204f50454e60448201527120706f6f6c7320286e656564203130302b2960701b6064820152608490fd5b90506020813d8211613d58575b81613d4160209383614e96565b8101031261165057613d52906151b8565b38613cba565b3d9150613d34565b6040513d88823e3d90fd5b60405163fbad6cf560e01b815233600482015292839182905afa908115613d60578691613df9575b50613cc15760405162461bcd60e51b815260206004820152603360248201527f496e73756666696369656e742072657075746174696f6e20666f722047554944604482015272454420706f6f6c7320286e6565642034302b2960681b6064820152608490fd5b90506020813d8211613e2a575b81613e1360209383614e96565b8101031261165057613e24906151b8565b38613d93565b3d9150613e06565b60405162461bcd60e51b815260206004820152602d60248201527f496e76616c6964206f6464733a206d757374206265206265747765656e20312e60448201526c0303120616e64203130302e303609c1b6064820152608490fd5b506127106024351115613279565b503461065a576020908160031936011261065a5760043590613ec060025483106153f6565b81815260188352604081208054926001600160a01b03808516330361411c5760ff94613ef1868260b01c16156157a4565b613eff6004850154156157e7565b600a8401544211156140d75760ff60b01b1916600160b01b178355818452601b86526040808520905181548082529186528786209096918790818a0190885b8b8282106140bf57505050613f5592500387614e96565b845b86518110156140675782613f6b8289615863565b511690848752601c895260408720828852895288604088205480613f9b575b5050613f9691506153e7565b613f57565b8885895460c81c16600014614045575060015460405163a9059cbb60e01b81526001600160a01b039590951660048601526024850191909152919291829060449082908b9089165af1908115613b3c578791614007575b5090614000613f96926158ba565b8838613f8a565b90508881813d831161403e575b61401e8183614e96565b81010312613b305790614000614036613f96936151b8565b919250613ff2565b503d614014565b614062925080808093613f96975af161405c615833565b50615877565b614000565b85847f5d017285e8f2eb1ffcbc2466eaedb487942e395d5f1e312f09e9384b1687bea560608b61409684615d7c565b6010604051918083528201526f139bc818995d1cc81c9958d95a5d995960821b6040820152a280f35b8554881684526001958601958c955093019201613f3e565b60405162461bcd60e51b815260048101889052601860248201527f42657474696e6720706572696f64206e6f7420656e64656400000000000000006044820152606490fd5b60405162461bcd60e51b815260048101879052601960248201527f4f6e6c792063726561746f722063616e207769746864726177000000000000006044820152606490fd5b503461065a57602080600319360112610b68576004359061418560025483106153f6565b818352601881526040832080546141a260ff8260b01c16156158fe565b6141b2600983015442101561593c565b60ff8160d81c16600281101561317f578061433357506007820154604051632e8d1dc160e11b8152600481019190915285816024817f00000000000000000000000000000000000000000000000000000000000000006001600160a01b03165afa908115613d60578690879261430e575b50156142cb57614232906159ee565b9260015b15614293575060068201839055600582015461ffff60b01b199091169083141560b81b60ff60b81b1617600160b01b1781557f86acb9671870fda5e7ea8aa500f96625102d6f2e5a2ee12d3ca0fb612850fa29919060ff90612ff3565b6064906040519062461bcd60e51b8252600482015260116024820152704f7574636f6d65206e6f7420726561647960781b6044820152fd5b6064846040519062461bcd60e51b825280600483015260248201527f477569646564206f7574636f6d65206e6f7420617661696c61626c65207965746044820152fd5b905061432c91503d8088833e6143248183614e96565b81019061597e565b9038614223565b600103613144576007820154604051632e8d1dc160e11b8152600481019190915285816024817f00000000000000000000000000000000000000000000000000000000000000006001600160a01b03165afa908115613d6057869087926143fd575b50156143ac576143a4906159ee565b926001614236565b60405162461bcd60e51b8152600481018590526024808201527f4f7074696d6973746963206f7574636f6d65206e6f742066696e616c697a6564604482015263081e595d60e21b6064820152608490fd5b905061441391503d8088833e6143248183614e96565b9038614395565b503461065a57604036600319011261065a5760ff604060209261443b614fa5565b6004358252601d85528282206001600160a01b03909116825284522054604051911615158152f35b503461065a57602036600319011261065a5760406020916004358152601283522060018060a01b038154169061454d600182015491600281015460038201546004830154600584015460ff600686015491600787015493600888015495600989015497600b6144d4600a8c01614eb7565b9a01549b6040519e8f9e8f908152015260408d015260608c015260808b015261ffff811660a08b0152818160101c16151560c08b0152818160181c16151560e08b015260201c1615156101008901526101208801526101408701526101608601526101808501526101e0806101a0860152840190614f80565b906101c08301520390f35b503461065a576020908160031936011261065a576004359061457d60025483106153f6565b8181526018918284526040822090815460ff9061459f828260b01c16156158fe565b600c84015442111561497c5760ff60b01b1916600160b01b178355818452601b865260408085209051815480825291865287862090918290818a0190885b8b82821061495d575050506145f492500382614e96565b845b815181101561470b576001600160a01b039088826146148386615863565b5116868952601c825260408920818a52825260408920549081614644575b50505061463f91506153e7565b6145f6565b89878a5460c81c166000146146ed575060015460405163a9059cbb60e01b81526001600160a01b0392909216600483015260248201929092529293839160449183918c91165af1908115613b3c5787916146af575b50906146a761463f926158ba565b883880614632565b90508881813d83116146e6575b6146c68183614e96565b81010312613b3057906146a76146de61463f936151b8565b919250614699565b503d6146bc565b61463f9550614706935080809381935af161405c615833565b6146a7565b8288888689898282526019928386526040832096604051808989829b54938481520190875289872092875b8b82821061493e5750505061474d92500389614e96565b835b88518110156148e35784886001600160a01b038061476d858e615863565b5116868452601a83526040842081855283526040842054918261479e575b5050505050614799906153e7565b61474f565b885460c81c87161561487f5760015460405163a9059cbb60e01b81526001600160a01b039390931660048401526024830193909352909350839160449183918b91165af1908115613d6057869161484a575b501561480757614799905b905084888b808061478b565b606488876040519162461bcd60e51b8352600483015260248201527f4249545220626574746f7220726566756e64206661696c6564000000000000006044820152fd5b90508881813d8311614878575b6148618183614e96565b8101031261165057614872906151b8565b8a6147f0565b503d614857565b50839250829182915af1614891615833565b50156148a057614799906147fb565b606488886040519162461bcd60e51b8352600483015260248201527f53545420626574746f7220726566756e64206661696c656400000000000000006044820152fd5b84837f5d017285e8f2eb1ffcbc2466eaedb487942e395d5f1e312f09e9384b1687bea560608b61491284615d7c565b60136040519180835282015272105c989a5d1c985d1a5bdb881d1a5b595bdd5d606a1b6040820152a280f35b85546001600160a01b031684526001958601958e955093019201614736565b85546001600160a01b03168452600195860195879550930192016145dd565b60405162461bcd60e51b815260048101889052601e60248201527f4172626974726174696f6e20706572696f64206e6f74206578706972656400006044820152606490fd5b503461065a57602080600319360112610b68576004356149e460025482106153f6565b80835260188252604083208054614a0160ff8260b01c16156157a4565b6001600160a01b039081163314614dbd57828552601c8452604085203386528452604085205415614d805760088201544210614d435790849160048201614a498154156157e7565b848452601c8652604084203385528652604084205492858552601c87526040852033865287528460408120556002810191614a8585845461536f565b8093556001928383015480925411614d3b575b5061ffff825460a01c166064811015614d09575b5050918493918793878652601b8552604086208287905b614c13575b50505460c81c60ff1615614bb7575460405163a9059cbb60e01b81523360048201526024810193909352919492935084926044928492165af1908115614bac578491614b77575b5015614b32575b600080516020615f00833981519152604051928484523393a380f35b60405162461bcd60e51b815260048101839052601960248201527f42495452204c50207769746864726177616c206661696c6564000000000000006044820152606490fd5b90508281813d8311614ba5575b614b8e8183614e96565b8101031261065657614b9f906151b8565b38614b0f565b503d614b84565b6040513d86823e3d90fd5b50508291508190335af1614bc9615833565b50614b165760405162461bcd60e51b815260048101839052601860248201527f535454204c50207769746864726177616c206661696c656400000000000000006044820152606490fd5b91939550809294965054878a82841015614cfd575050614c3382846150bf565b905460039291831b1c87163314614c5e57505090614c5184926153e7565b9089959391889795614ac3565b9190939495969750600019918281019081116121845790614c9488614c86614cb394876150bf565b905490881b1c1691856150bf565b90919082549060031b9160018060a01b03809116831b921b1916179055565b81548015614ce9579386938a96938c99969860ff948b9a0192614cd684846150bf565b81939154921b1b19169055559038614ac8565b634e487b7160e01b8b52603160045260248bfd5b96949250969492614ac8565b60649192939495965004906000198201918211612a6f57889594939291614d2f9161534f565b60038201553880614aac565b905038614a98565b60405162461bcd60e51b8152600481018590526015602482015274115d995b9d081b9bdd081cdd185c9d1959081e595d605a1b6044820152606490fd5b60405162461bcd60e51b8152600481018590526015602482015274139bc81b1a5c5d5a591a5d1e481c1c9bdd9a591959605a1b6044820152606490fd5b6064846040519062461bcd60e51b825280600483015260248201527f43726561746f722063616e6e6f742075736520746869732066756e6374696f6e6044820152fd5b905034610b685781600319360112610b68576001546001600160a01b03168152602090f35b90600182811c92168015614e55575b6020831014614e3f57565b634e487b7160e01b600052602260045260246000fd5b91607f1691614e34565b61030081019081106001600160401b0382111761163a57604052565b602081019081106001600160401b0382111761163a57604052565b90601f801991011681019081106001600160401b0382111761163a57604052565b9060405191826000825492614ecb84614e25565b908184526001948581169081600014614f3a5750600114614ef7575b5050614ef592500383614e96565b565b9093915060005260209081600020936000915b818310614f22575050614ef593508201013880614ee7565b85548884018501529485019487945091830191614f0a565b915050614ef594506020925060ff191682840152151560051b8201013880614ee7565b60005b838110614f705750506000910152565b8181015183820152602001614f60565b90602091614f9981518092818552858086019101614f5d565b601f01601f1916010190565b602435906001600160a01b03821682036115d157565b600435906001600160a01b03821682036115d157565b6001600160401b03811161163a57601f01601f191660200190565b81601f820112156115d15780359061500382614fd1565b926150116040519485614e96565b828452602083830101116115d157816000926020809301838601378301015290565b346115d15760003660031901126115d15760206040516101f48152f35b6020908160408183019282815285518094520193019160005b828110615077575050505090565b835185529381019392810192600101615069565b346115d15760003660031901126115d1576020604051620151808152f35b60409060031901126115d1576004359060243590565b80548210156150d75760005260206000200190600090565b634e487b7160e01b600052603260045260246000fd5b9060048210156150fa5752565b634e487b7160e01b600052602160045260246000fd5b346115d15760003660031901126115d1576020604051670de0b6b3a76400008152f35b9060028210156150fa5752565b6001600160401b03811161163a5760051b60200190565b60048110156150fa57600052600b602052604060002090565b346115d15760003660031901126115d157602060405160058152f35b6000546001600160a01b031633036151a057565b60405163118cdaa760e01b8152336004820152602490fd5b519081151582036115d157565b156151cc57565b60405162461bcd60e51b815260206004820152601f60248201527f535454207374616b652062656c6f77206d696e696d756d2028352053545429006044820152606490fd5b1561521857565b60405162461bcd60e51b8152602060048201526024808201527f42495452207374616b652062656c6f77206d696e696d756d20283130303020426044820152634954522960e01b6064820152608490fd5b9190820180921161527657565b634e487b7160e01b600052601160045260246000fd5b1561529357565b60405162461bcd60e51b815260206004820152600e60248201526d22bb32b73a103a37b79039b7b7b760911b6044820152606490fd5b156152d057565b60405162461bcd60e51b8152602060048201526014602482015273125b98dbdc9c9958dd0814d51508185b5bdd5b9d60621b6044820152606490fd5b1561531357565b60405162461bcd60e51b815260206004820152601460248201527310925514881d1c985b9cd9995c8819985a5b195960621b6044820152606490fd5b8115615359570490565b634e487b7160e01b600052601260045260246000fd5b9190820391821161527657565b60028210156150fa5752565b90815491600160401b83101561163a5782614c94916001614ef5950181556150bf565b90815491600160401b83101561163a57826153ce916001614ef5950181556150bf565b90919082549060031b91821b91600019901b1916179055565b60001981146152765760010190565b156153fd57565b60405162461bcd60e51b815260206004820152600c60248201526b125b9d985b1a59081c1bdbdb60a21b6044820152606490fd5b9060405161543e81614e5f565b6102e0601082946154b3815460018060a01b038116865261ffff8160a01c16602087015260ff90818160b01c1615156040880152818160b81c1615156060880152818160c01c1615156080880152818160c81c16151560a0880152818160d01c16151560c088015260d81c1660e0860161537c565b6001810154610100850152600281015461012085015260038101546101408501526004810154610160850152600581015461018085015260068101546101a085015260078101546101c085015260088101546101e08501526009810154610200850152600a810154610220850152600b810154610240850152600c810154610260850152615543600d8201614eb7565b610280850152615555600e8201614eb7565b6102a0850152615567600f8201614eb7565b6102c08501520154910152565b1561557b57565b60405162461bcd60e51b815260206004820152600c60248201526b141bdbdb081cd95d1d1b195960a21b6044820152606490fd5b156155b657565b60405162461bcd60e51b81526020600482015260116024820152704265742062656c6f77206d696e696d756d60781b6044820152606490fd5b156155f657565b60405162461bcd60e51b815260206004820152601460248201527310995d1d1a5b99c81c195c9a5bd908195b99195960621b6044820152606490fd5b1561563957565b60405162461bcd60e51b815260206004820152601c60248201527f496e76616c6964206f64647320666f722063616c63756c6174696f6e000000006044820152606490fd5b1561568557565b60405162461bcd60e51b8152602060048201526009602482015268141bdbdb08199d5b1b60ba1b6044820152606490fd5b156156bd57565b60405162461bcd60e51b8152602060048201526015602482015274546f6f206d616e79207061727469636970616e747360581b6044820152606490fd5b1561570157565b606460405162461bcd60e51b815260206004820152602060248201527f4e6f742077686974656c697374656420666f72207072697661746520706f6f6c6044820152fd5b1561574c57565b60405162461bcd60e51b815260206004820152601860248201527f45786365656473206d61782062657420706572207573657200000000000000006044820152606490fd5b8181029291811591840414171561527657565b156157ab57565b60405162461bcd60e51b8152602060048201526014602482015273141bdbdb08185b1c9958591e481cd95d1d1b195960621b6044820152606490fd5b156157ee57565b60405162461bcd60e51b815260206004820152601e60248201527f506f6f6c2068617320626574732c2063616e6e6f7420776974686472617700006044820152606490fd5b3d1561585e573d9061584482614fd1565b916158526040519384614e96565b82523d6000602084013e565b606090565b80518210156150d75760209160051b010190565b1561587e57565b60405162461bcd60e51b815260206004820152601460248201527314d515081314081c99599d5b990819985a5b195960621b6044820152606490fd5b156158c157565b60405162461bcd60e51b815260206004820152601560248201527410925514881314081c99599d5b990819985a5b1959605a1b6044820152606490fd5b1561590557565b60405162461bcd60e51b815260206004820152600f60248201526e105b1c9958591e481cd95d1d1b1959608a1b6044820152606490fd5b1561594357565b60405162461bcd60e51b8152602060048201526013602482015272115d995b9d081b9bdd08195b991959081e595d606a1b6044820152606490fd5b91906040838203126115d157615993836151b8565b926020810151906001600160401b0382116115d1570181601f820112156115d15780516159bf81614fd1565b926159cd6040519485614e96565b818452602082840101116115d1576159eb9160208085019101614f5d565b90565b602081519101519060208110615a02575090565b6000199060200360031b1b1690565b15615a1857565b60405162461bcd60e51b815260206004820152600b60248201526a139bdd081cd95d1d1b195960aa1b6044820152606490fd5b15615a5257565b60405162461bcd60e51b815260206004820152600f60248201526e105b1c9958591e4818db185a5b5959608a1b6044820152606490fd5b15615a9057565b60405162461bcd60e51b815260206004820152601160248201527014d515081c185e5bdd5d0819985a5b1959607a1b6044820152606490fd5b15615ad057565b60405162461bcd60e51b815260206004820152601260248201527110925514881c185e5bdd5d0819985a5b195960721b6044820152606490fd5b6001546040516370a0823160e01b81526001600160a01b0392831660048201529160209183916024918391165afa908115615bdf57600091615bae575b50690a968163f0a57b400000811015615ba85769043c33c1937564800000811015615ba15769010f0cf064dd59200000811015615b9a57686c6b935b8bbd4000001115615b94576101f490565b6101c290565b5061019090565b5061015e90565b5060fa90565b906020823d8211615bd7575b81615bc760209383614e96565b8101031261065a57505138615b47565b3d9150615bba565b6040513d6000823e3d90fd5b90615bf582615140565b615c026040519182614e96565b8281528092615c13601f1991615140565b0190602036910137565b9291906000938452600f6020526040842090815480841015615cab578082615c4686809461536f565b1115615c9b575050915b615c5983615beb565b945b838110615c685750505050565b80615c7f615c79615c969385615269565b856150bf565b90549060031b1c615c908289615863565b526153e7565b615c5b565b615ca5925061536f565b91615c50565b505050509060405190615cbd82614e7b565b80825236813790565b6001600160a01b03166000908152601060205260408120805491949392909180841015615cab578082615cfa86809461536f565b1115615d32575050915b615d0d83615beb565b945b838110615d1c5750505050565b80615c7f615c79615d2d9385615269565b615d0f565b615d3c925061536f565b91615d04565b15615d4957565b60405162461bcd60e51b815260206004820152600b60248201526a2737ba1031b932b0ba37b960a91b6044820152606490fd5b600090808252601860205260018060a01b036040832054168252601060205260408220818352601160205260408320549080549182811080615e5c575b615dc5575b5050505050565b60001992808401908111613ae457808203615e2a575b505080548015615e1657820191615df283836150bf565b909182549160031b1b19169055558152601160205260408120553880808080615dbe565b634e487b7160e01b85526031600452602485fd5b615e3490836150bf565b90549060031b1c615e49816153ce84866150bf565b8552601160205260408520553880615ddb565b5083615e6882846150bf565b90549060031b1c14615db9565b8015615276576000190190565b80548210156150d75760005260206000209060021b0190600090565b15615ea557565b60405162461bcd60e51b8152602060048201526012602482015271125b9d985b1a590818dbdb589bc81c1bdbdb60721b6044820152606490fdfed43c77f044c1f8bc6adf6676b4ce17edda35ef8ee63f154568826c0ecb3c6bf3c733c2813826d31c105dbff518b08258e9e7aeb3eb1c7c7f642d77696faf501da2646970667358221220aa8ba547d5da02ea2912acf67e075e06aa7aa884197546d1f0ee387ceb72bbbf64736f6c63430008140033",
  "linkReferences": {},
  "deployedLinkReferences": {}
}