{
  "_format": "hh-sol-artifact-1",
  "contractName": "BitredictPoolCore",
  "sourceName": "contracts/BitredictPoolCore.sol",
  "abi": [
    {
      "inputs": [
        {
          "internalType": "address",
          "name": "_bitrToken",
          "type": "address"
        },
        {
          "internalType": "address",
          "name": "_feeCollector",
          "type": "address"
        },
        {
          "internalType": "address",
          "name": "_guidedOracle",
          "type": "address"
        },
        {
          "internalType": "address",
          "name": "_optimisticOracle",
          "type": "address"
        }
      ],
      "stateMutability": "nonpayable",
      "type": "constructor"
    },
    {
      "inputs": [
        {
          "internalType": "address",
          "name": "owner",
          "type": "address"
        }
      ],
      "name": "OwnableInvalidOwner",
      "type": "error"
    },
    {
      "inputs": [
        {
          "internalType": "address",
          "name": "account",
          "type": "address"
        }
      ],
      "name": "OwnableUnauthorizedAccount",
      "type": "error"
    },
    {
      "inputs": [],
      "name": "ReentrancyGuardReentrantCall",
      "type": "error"
    },
    {
      "anonymous": false,
      "inputs": [
        {
          "indexed": true,
          "internalType": "uint256",
          "name": "poolId",
          "type": "uint256"
        },
        {
          "indexed": false,
          "internalType": "uint256",
          "name": "totalVolume",
          "type": "uint256"
        },
        {
          "indexed": false,
          "internalType": "uint256",
          "name": "participantCount",
          "type": "uint256"
        }
      ],
      "name": "AnalyticsUpdated",
      "type": "event"
    },
    {
      "anonymous": false,
      "inputs": [
        {
          "indexed": true,
          "internalType": "uint256",
          "name": "poolId",
          "type": "uint256"
        },
        {
          "indexed": true,
          "internalType": "address",
          "name": "bettor",
          "type": "address"
        },
        {
          "indexed": false,
          "internalType": "uint256",
          "name": "amount",
          "type": "uint256"
        },
        {
          "indexed": false,
          "internalType": "bool",
          "name": "isForOutcome",
          "type": "bool"
        }
      ],
      "name": "BetPlaced",
      "type": "event"
    },
    {
      "anonymous": false,
      "inputs": [
        {
          "indexed": true,
          "internalType": "uint256",
          "name": "poolId",
          "type": "uint256"
        },
        {
          "indexed": true,
          "internalType": "address",
          "name": "provider",
          "type": "address"
        },
        {
          "indexed": false,
          "internalType": "uint256",
          "name": "amount",
          "type": "uint256"
        }
      ],
      "name": "LiquidityAdded",
      "type": "event"
    },
    {
      "anonymous": false,
      "inputs": [
        {
          "indexed": true,
          "internalType": "address",
          "name": "previousOwner",
          "type": "address"
        },
        {
          "indexed": true,
          "internalType": "address",
          "name": "newOwner",
          "type": "address"
        }
      ],
      "name": "OwnershipTransferred",
      "type": "event"
    },
    {
      "anonymous": false,
      "inputs": [
        {
          "indexed": true,
          "internalType": "uint256",
          "name": "poolId",
          "type": "uint256"
        },
        {
          "indexed": true,
          "internalType": "address",
          "name": "creator",
          "type": "address"
        },
        {
          "indexed": false,
          "internalType": "uint256",
          "name": "eventStartTime",
          "type": "uint256"
        },
        {
          "indexed": false,
          "internalType": "uint256",
          "name": "eventEndTime",
          "type": "uint256"
        },
        {
          "indexed": false,
          "internalType": "enum OracleType",
          "name": "oracleType",
          "type": "uint8"
        },
        {
          "indexed": false,
          "internalType": "enum MarketType",
          "name": "marketType",
          "type": "uint8"
        },
        {
          "indexed": false,
          "internalType": "string",
          "name": "marketId",
          "type": "string"
        },
        {
          "indexed": false,
          "internalType": "bytes32",
          "name": "league",
          "type": "bytes32"
        },
        {
          "indexed": false,
          "internalType": "bytes32",
          "name": "category",
          "type": "bytes32"
        }
      ],
      "name": "PoolCreated",
      "type": "event"
    },
    {
      "anonymous": false,
      "inputs": [
        {
          "indexed": true,
          "internalType": "uint256",
          "name": "poolId",
          "type": "uint256"
        },
        {
          "indexed": false,
          "internalType": "string",
          "name": "reason",
          "type": "string"
        }
      ],
      "name": "PoolRefunded",
      "type": "event"
    },
    {
      "anonymous": false,
      "inputs": [
        {
          "indexed": true,
          "internalType": "uint256",
          "name": "poolId",
          "type": "uint256"
        },
        {
          "indexed": false,
          "internalType": "bytes32",
          "name": "result",
          "type": "bytes32"
        },
        {
          "indexed": false,
          "internalType": "bool",
          "name": "creatorSideWon",
          "type": "bool"
        },
        {
          "indexed": false,
          "internalType": "uint256",
          "name": "timestamp",
          "type": "uint256"
        }
      ],
      "name": "PoolSettled",
      "type": "event"
    },
    {
      "anonymous": false,
      "inputs": [
        {
          "indexed": true,
          "internalType": "address",
          "name": "user",
          "type": "address"
        },
        {
          "indexed": false,
          "internalType": "enum ReputationSystem.ReputationAction",
          "name": "action",
          "type": "uint8"
        },
        {
          "indexed": false,
          "internalType": "uint256",
          "name": "value",
          "type": "uint256"
        },
        {
          "indexed": true,
          "internalType": "bytes32",
          "name": "poolId",
          "type": "bytes32"
        },
        {
          "indexed": false,
          "internalType": "uint256",
          "name": "timestamp",
          "type": "uint256"
        }
      ],
      "name": "ReputationActionOccurred",
      "type": "event"
    },
    {
      "anonymous": false,
      "inputs": [
        {
          "indexed": true,
          "internalType": "uint256",
          "name": "poolId",
          "type": "uint256"
        },
        {
          "indexed": true,
          "internalType": "address",
          "name": "user",
          "type": "address"
        },
        {
          "indexed": false,
          "internalType": "uint256",
          "name": "amount",
          "type": "uint256"
        }
      ],
      "name": "RewardClaimed",
      "type": "event"
    },
    {
      "anonymous": false,
      "inputs": [
        {
          "indexed": true,
          "internalType": "uint256",
          "name": "poolId",
          "type": "uint256"
        },
        {
          "indexed": true,
          "internalType": "address",
          "name": "user",
          "type": "address"
        }
      ],
      "name": "UserWhitelisted",
      "type": "event"
    },
    {
      "inputs": [],
      "name": "HIGH_ODDS_THRESHOLD",
      "outputs": [
        {
          "internalType": "uint256",
          "name": "",
          "type": "uint256"
        }
      ],
      "stateMutability": "view",
      "type": "function"
    },
    {
      "inputs": [],
      "name": "MAX_LP_PROVIDERS",
      "outputs": [
        {
          "internalType": "uint256",
          "name": "",
          "type": "uint256"
        }
      ],
      "stateMutability": "view",
      "type": "function"
    },
    {
      "inputs": [],
      "name": "MAX_PARTICIPANTS",
      "outputs": [
        {
          "internalType": "uint256",
          "name": "",
          "type": "uint256"
        }
      ],
      "stateMutability": "view",
      "type": "function"
    },
    {
      "inputs": [],
      "name": "REFUND_BATCH_SIZE",
      "outputs": [
        {
          "internalType": "uint256",
          "name": "",
          "type": "uint256"
        }
      ],
      "stateMutability": "view",
      "type": "function"
    },
    {
      "inputs": [
        {
          "internalType": "uint256",
          "name": "poolId",
          "type": "uint256"
        },
        {
          "internalType": "uint256",
          "name": "amount",
          "type": "uint256"
        }
      ],
      "name": "addLiquidity",
      "outputs": [],
      "stateMutability": "payable",
      "type": "function"
    },
    {
      "inputs": [
        {
          "internalType": "uint256",
          "name": "poolId",
          "type": "uint256"
        },
        {
          "internalType": "address",
          "name": "user",
          "type": "address"
        }
      ],
      "name": "addToWhitelist",
      "outputs": [],
      "stateMutability": "nonpayable",
      "type": "function"
    },
    {
      "inputs": [
        {
          "internalType": "address",
          "name": "user",
          "type": "address"
        }
      ],
      "name": "adjustedFeeRate",
      "outputs": [
        {
          "internalType": "uint256",
          "name": "",
          "type": "uint256"
        }
      ],
      "stateMutability": "view",
      "type": "function"
    },
    {
      "inputs": [],
      "name": "arbitrationTimeout",
      "outputs": [
        {
          "internalType": "uint256",
          "name": "",
          "type": "uint256"
        }
      ],
      "stateMutability": "view",
      "type": "function"
    },
    {
      "inputs": [
        {
          "internalType": "uint256",
          "name": "poolId",
          "type": "uint256"
        },
        {
          "internalType": "uint256",
          "name": "startIndex",
          "type": "uint256"
        },
        {
          "internalType": "uint256",
          "name": "batchSize",
          "type": "uint256"
        }
      ],
      "name": "batchRefund",
      "outputs": [],
      "stateMutability": "nonpayable",
      "type": "function"
    },
    {
      "inputs": [],
      "name": "bettingGracePeriod",
      "outputs": [
        {
          "internalType": "uint256",
          "name": "",
          "type": "uint256"
        }
      ],
      "stateMutability": "view",
      "type": "function"
    },
    {
      "inputs": [
        {
          "internalType": "uint256",
          "name": "",
          "type": "uint256"
        },
        {
          "internalType": "address",
          "name": "",
          "type": "address"
        }
      ],
      "name": "bettorStakes",
      "outputs": [
        {
          "internalType": "uint256",
          "name": "",
          "type": "uint256"
        }
      ],
      "stateMutability": "view",
      "type": "function"
    },
    {
      "inputs": [],
      "name": "bitrToken",
      "outputs": [
        {
          "internalType": "contract IERC20",
          "name": "",
          "type": "address"
        }
      ],
      "stateMutability": "view",
      "type": "function"
    },
    {
      "inputs": [],
      "name": "boostSystem",
      "outputs": [
        {
          "internalType": "contract IBitredictBoostSystem",
          "name": "",
          "type": "address"
        }
      ],
      "stateMutability": "view",
      "type": "function"
    },
    {
      "inputs": [
        {
          "internalType": "bytes32",
          "name": "",
          "type": "bytes32"
        },
        {
          "internalType": "uint256",
          "name": "",
          "type": "uint256"
        }
      ],
      "name": "categoryPools",
      "outputs": [
        {
          "internalType": "uint256",
          "name": "",
          "type": "uint256"
        }
      ],
      "stateMutability": "view",
      "type": "function"
    },
    {
      "inputs": [
        {
          "internalType": "uint256",
          "name": "poolId",
          "type": "uint256"
        }
      ],
      "name": "checkAndRefundEmptyPool",
      "outputs": [],
      "stateMutability": "nonpayable",
      "type": "function"
    },
    {
      "inputs": [
        {
          "internalType": "uint256",
          "name": "poolId",
          "type": "uint256"
        }
      ],
      "name": "claim",
      "outputs": [],
      "stateMutability": "nonpayable",
      "type": "function"
    },
    {
      "inputs": [
        {
          "internalType": "uint256",
          "name": "",
          "type": "uint256"
        },
        {
          "internalType": "address",
          "name": "",
          "type": "address"
        }
      ],
      "name": "claimed",
      "outputs": [
        {
          "internalType": "bool",
          "name": "",
          "type": "bool"
        }
      ],
      "stateMutability": "view",
      "type": "function"
    },
    {
      "inputs": [
        {
          "internalType": "bytes32",
          "name": "_predictedOutcome",
          "type": "bytes32"
        },
        {
          "internalType": "uint256",
          "name": "_odds",
          "type": "uint256"
        },
        {
          "internalType": "uint256",
          "name": "_creatorStake",
          "type": "uint256"
        },
        {
          "internalType": "uint256",
          "name": "_eventStartTime",
          "type": "uint256"
        },
        {
          "internalType": "uint256",
          "name": "_eventEndTime",
          "type": "uint256"
        },
        {
          "internalType": "bytes32",
          "name": "_league",
          "type": "bytes32"
        },
        {
          "internalType": "bytes32",
          "name": "_category",
          "type": "bytes32"
        },
        {
          "internalType": "bytes32",
          "name": "_homeTeam",
          "type": "bytes32"
        },
        {
          "internalType": "bytes32",
          "name": "_awayTeam",
          "type": "bytes32"
        },
        {
          "internalType": "bytes32",
          "name": "_title",
          "type": "bytes32"
        },
        {
          "internalType": "bool",
          "name": "_isPrivate",
          "type": "bool"
        },
        {
          "internalType": "uint256",
          "name": "_maxBetPerUser",
          "type": "uint256"
        },
        {
          "internalType": "bool",
          "name": "_useBitr",
          "type": "bool"
        },
        {
          "internalType": "enum OracleType",
          "name": "_oracleType",
          "type": "uint8"
        },
        {
          "internalType": "enum MarketType",
          "name": "_marketType",
          "type": "uint8"
        },
        {
          "internalType": "string",
          "name": "_marketId",
          "type": "string"
        }
      ],
      "name": "createPool",
      "outputs": [
        {
          "internalType": "uint256",
          "name": "",
          "type": "uint256"
        }
      ],
      "stateMutability": "payable",
      "type": "function"
    },
    {
      "inputs": [],
      "name": "creationFeeBITR",
      "outputs": [
        {
          "internalType": "uint256",
          "name": "",
          "type": "uint256"
        }
      ],
      "stateMutability": "view",
      "type": "function"
    },
    {
      "inputs": [],
      "name": "creationFeeSTT",
      "outputs": [
        {
          "internalType": "uint256",
          "name": "",
          "type": "uint256"
        }
      ],
      "stateMutability": "view",
      "type": "function"
    },
    {
      "inputs": [
        {
          "internalType": "address",
          "name": "",
          "type": "address"
        },
        {
          "internalType": "uint256",
          "name": "",
          "type": "uint256"
        }
      ],
      "name": "creatorActivePools",
      "outputs": [
        {
          "internalType": "uint256",
          "name": "",
          "type": "uint256"
        }
      ],
      "stateMutability": "view",
      "type": "function"
    },
    {
      "inputs": [
        {
          "internalType": "address",
          "name": "",
          "type": "address"
        }
      ],
      "name": "creatorStats",
      "outputs": [
        {
          "internalType": "uint256",
          "name": "totalPoolsCreated",
          "type": "uint256"
        },
        {
          "internalType": "uint256",
          "name": "successfulPools",
          "type": "uint256"
        },
        {
          "internalType": "uint256",
          "name": "totalVolumeGenerated",
          "type": "uint256"
        },
        {
          "internalType": "uint256",
          "name": "averagePoolSize",
          "type": "uint256"
        },
        {
          "internalType": "uint256",
          "name": "reputationScore",
          "type": "uint256"
        },
        {
          "internalType": "uint256",
          "name": "winRate",
          "type": "uint256"
        },
        {
          "internalType": "uint256",
          "name": "totalEarnings",
          "type": "uint256"
        },
        {
          "internalType": "uint256",
          "name": "activePoolsCount",
          "type": "uint256"
        }
      ],
      "stateMutability": "view",
      "type": "function"
    },
    {
      "inputs": [
        {
          "internalType": "address",
          "name": "stakingContract",
          "type": "address"
        }
      ],
      "name": "distributeFees",
      "outputs": [],
      "stateMutability": "nonpayable",
      "type": "function"
    },
    {
      "inputs": [],
      "name": "feeCollector",
      "outputs": [
        {
          "internalType": "address",
          "name": "",
          "type": "address"
        }
      ],
      "stateMutability": "view",
      "type": "function"
    },
    {
      "inputs": [
        {
          "internalType": "uint256",
          "name": "limit",
          "type": "uint256"
        }
      ],
      "name": "getActivePools",
      "outputs": [
        {
          "internalType": "uint256[]",
          "name": "poolIds",
          "type": "uint256[]"
        },
        {
          "internalType": "uint256",
          "name": "totalCount",
          "type": "uint256"
        }
      ],
      "stateMutability": "view",
      "type": "function"
    },
    {
      "inputs": [
        {
          "internalType": "uint256",
          "name": "offset",
          "type": "uint256"
        },
        {
          "internalType": "uint256",
          "name": "limit",
          "type": "uint256"
        }
      ],
      "name": "getActivePoolsPaginated",
      "outputs": [
        {
          "internalType": "uint256[]",
          "name": "poolIds",
          "type": "uint256[]"
        },
        {
          "internalType": "uint256",
          "name": "totalCount",
          "type": "uint256"
        }
      ],
      "stateMutability": "view",
      "type": "function"
    },
    {
      "inputs": [
        {
          "internalType": "uint256",
          "name": "poolId",
          "type": "uint256"
        }
      ],
      "name": "getBatchRefundInfo",
      "outputs": [
        {
          "internalType": "uint256",
          "name": "totalParticipants",
          "type": "uint256"
        },
        {
          "internalType": "bool",
          "name": "needsBatchRefund",
          "type": "bool"
        },
        {
          "internalType": "uint256",
          "name": "suggestedBatchSize",
          "type": "uint256"
        }
      ],
      "stateMutability": "view",
      "type": "function"
    },
    {
      "inputs": [
        {
          "internalType": "uint256",
          "name": "poolId",
          "type": "uint256"
        },
        {
          "internalType": "address",
          "name": "user",
          "type": "address"
        }
      ],
      "name": "getClaimInfo",
      "outputs": [
        {
          "internalType": "bool",
          "name": "canClaim",
          "type": "bool"
        },
        {
          "internalType": "uint256",
          "name": "claimableAmount",
          "type": "uint256"
        },
        {
          "internalType": "bool",
          "name": "isWinner",
          "type": "bool"
        },
        {
          "internalType": "uint256",
          "name": "userStake",
          "type": "uint256"
        },
        {
          "internalType": "bool",
          "name": "alreadyClaimed",
          "type": "bool"
        },
        {
          "internalType": "string",
          "name": "reason",
          "type": "string"
        }
      ],
      "stateMutability": "view",
      "type": "function"
    },
    {
      "inputs": [],
      "name": "getGlobalStats",
      "outputs": [
        {
          "internalType": "uint256",
          "name": "totalPools",
          "type": "uint256"
        },
        {
          "internalType": "uint256",
          "name": "totalVolume",
          "type": "uint256"
        },
        {
          "internalType": "uint256",
          "name": "averagePoolSize",
          "type": "uint256"
        },
        {
          "internalType": "uint256",
          "name": "lastUpdated",
          "type": "uint256"
        }
      ],
      "stateMutability": "view",
      "type": "function"
    },
    {
      "inputs": [
        {
          "internalType": "uint256",
          "name": "poolId",
          "type": "uint256"
        }
      ],
      "name": "getParticipantCounts",
      "outputs": [
        {
          "internalType": "uint256",
          "name": "bettorCount",
          "type": "uint256"
        },
        {
          "internalType": "uint256",
          "name": "lpCount",
          "type": "uint256"
        }
      ],
      "stateMutability": "view",
      "type": "function"
    },
    {
      "inputs": [
        {
          "internalType": "uint256",
          "name": "poolId",
          "type": "uint256"
        }
      ],
      "name": "getPool",
      "outputs": [
        {
          "components": [
            {
              "internalType": "address",
              "name": "creator",
              "type": "address"
            },
            {
              "internalType": "uint16",
              "name": "odds",
              "type": "uint16"
            },
            {
              "internalType": "uint8",
              "name": "flags",
              "type": "uint8"
            },
            {
              "internalType": "enum OracleType",
              "name": "oracleType",
              "type": "uint8"
            },
            {
              "internalType": "enum MarketType",
              "name": "marketType",
              "type": "uint8"
            },
            {
              "internalType": "uint8",
              "name": "reserved",
              "type": "uint8"
            },
            {
              "internalType": "uint256",
              "name": "creatorStake",
              "type": "uint256"
            },
            {
              "internalType": "uint256",
              "name": "totalCreatorSideStake",
              "type": "uint256"
            },
            {
              "internalType": "uint256",
              "name": "maxBettorStake",
              "type": "uint256"
            },
            {
              "internalType": "uint256",
              "name": "totalBettorStake",
              "type": "uint256"
            },
            {
              "internalType": "bytes32",
              "name": "predictedOutcome",
              "type": "bytes32"
            },
            {
              "internalType": "bytes32",
              "name": "result",
              "type": "bytes32"
            },
            {
              "internalType": "uint256",
              "name": "eventStartTime",
              "type": "uint256"
            },
            {
              "internalType": "uint256",
              "name": "eventEndTime",
              "type": "uint256"
            },
            {
              "internalType": "uint256",
              "name": "bettingEndTime",
              "type": "uint256"
            },
            {
              "internalType": "uint256",
              "name": "resultTimestamp",
              "type": "uint256"
            },
            {
              "internalType": "uint256",
              "name": "arbitrationDeadline",
              "type": "uint256"
            },
            {
              "internalType": "uint256",
              "name": "maxBetPerUser",
              "type": "uint256"
            },
            {
              "internalType": "bytes32",
              "name": "league",
              "type": "bytes32"
            },
            {
              "internalType": "bytes32",
              "name": "category",
              "type": "bytes32"
            },
            {
              "internalType": "bytes32",
              "name": "homeTeam",
              "type": "bytes32"
            },
            {
              "internalType": "bytes32",
              "name": "awayTeam",
              "type": "bytes32"
            },
            {
              "internalType": "bytes32",
              "name": "title",
              "type": "bytes32"
            },
            {
              "internalType": "string",
              "name": "marketId",
              "type": "string"
            }
          ],
          "internalType": "struct BitredictPoolCore.Pool",
          "name": "",
          "type": "tuple"
        }
      ],
      "stateMutability": "view",
      "type": "function"
    },
    {
      "inputs": [
        {
          "internalType": "uint256",
          "name": "poolId",
          "type": "uint256"
        },
        {
          "internalType": "uint256",
          "name": "offset",
          "type": "uint256"
        },
        {
          "internalType": "uint256",
          "name": "limit",
          "type": "uint256"
        }
      ],
      "name": "getPoolBettorsPaginated",
      "outputs": [
        {
          "internalType": "address[]",
          "name": "bettors",
          "type": "address[]"
        },
        {
          "internalType": "uint256[]",
          "name": "stakes",
          "type": "uint256[]"
        },
        {
          "internalType": "uint256",
          "name": "totalCount",
          "type": "uint256"
        }
      ],
      "stateMutability": "view",
      "type": "function"
    },
    {
      "inputs": [
        {
          "internalType": "uint256",
          "name": "poolId",
          "type": "uint256"
        },
        {
          "internalType": "uint256",
          "name": "offset",
          "type": "uint256"
        },
        {
          "internalType": "uint256",
          "name": "limit",
          "type": "uint256"
        }
      ],
      "name": "getPoolLPsPaginated",
      "outputs": [
        {
          "internalType": "address[]",
          "name": "lps",
          "type": "address[]"
        },
        {
          "internalType": "uint256[]",
          "name": "stakes",
          "type": "uint256[]"
        },
        {
          "internalType": "uint256",
          "name": "totalCount",
          "type": "uint256"
        }
      ],
      "stateMutability": "view",
      "type": "function"
    },
    {
      "inputs": [
        {
          "internalType": "uint256",
          "name": "poolId",
          "type": "uint256"
        }
      ],
      "name": "getPoolStats",
      "outputs": [
        {
          "internalType": "uint256",
          "name": "totalBettorStake",
          "type": "uint256"
        },
        {
          "internalType": "uint256",
          "name": "totalCreatorSideStake",
          "type": "uint256"
        },
        {
          "internalType": "uint256",
          "name": "bettorCount",
          "type": "uint256"
        },
        {
          "internalType": "uint256",
          "name": "lpCount",
          "type": "uint256"
        },
        {
          "internalType": "bool",
          "name": "isSettled",
          "type": "bool"
        },
        {
          "internalType": "bool",
          "name": "eligibleForRefund",
          "type": "bool"
        },
        {
          "internalType": "uint256",
          "name": "timeUntilEventStart",
          "type": "uint256"
        },
        {
          "internalType": "uint256",
          "name": "timeUntilBettingEnd",
          "type": "uint256"
        }
      ],
      "stateMutability": "view",
      "type": "function"
    },
    {
      "inputs": [
        {
          "internalType": "address",
          "name": "creator",
          "type": "address"
        },
        {
          "internalType": "uint256",
          "name": "limit",
          "type": "uint256"
        }
      ],
      "name": "getPoolsByCreator",
      "outputs": [
        {
          "internalType": "uint256[]",
          "name": "",
          "type": "uint256[]"
        }
      ],
      "stateMutability": "view",
      "type": "function"
    },
    {
      "inputs": [
        {
          "internalType": "uint256",
          "name": "poolId",
          "type": "uint256"
        },
        {
          "internalType": "address",
          "name": "user",
          "type": "address"
        }
      ],
      "name": "getUserPoolStake",
      "outputs": [
        {
          "internalType": "uint256",
          "name": "bettorStake",
          "type": "uint256"
        },
        {
          "internalType": "uint256",
          "name": "lpStake",
          "type": "uint256"
        },
        {
          "internalType": "bool",
          "name": "hasClaimed",
          "type": "bool"
        }
      ],
      "stateMutability": "view",
      "type": "function"
    },
    {
      "inputs": [],
      "name": "globalStats",
      "outputs": [
        {
          "internalType": "uint256",
          "name": "totalPools",
          "type": "uint256"
        },
        {
          "internalType": "uint256",
          "name": "totalVolume",
          "type": "uint256"
        },
        {
          "internalType": "uint256",
          "name": "totalUsers",
          "type": "uint256"
        },
        {
          "internalType": "uint256",
          "name": "totalBets",
          "type": "uint256"
        },
        {
          "internalType": "uint256",
          "name": "averagePoolSize",
          "type": "uint256"
        },
        {
          "internalType": "uint256",
          "name": "lastUpdated",
          "type": "uint256"
        }
      ],
      "stateMutability": "view",
      "type": "function"
    },
    {
      "inputs": [],
      "name": "guidedOracle",
      "outputs": [
        {
          "internalType": "address",
          "name": "",
          "type": "address"
        }
      ],
      "stateMutability": "view",
      "type": "function"
    },
    {
      "inputs": [
        {
          "internalType": "uint256",
          "name": "poolId",
          "type": "uint256"
        }
      ],
      "name": "isEligibleForRefund",
      "outputs": [
        {
          "internalType": "bool",
          "name": "",
          "type": "bool"
        }
      ],
      "stateMutability": "view",
      "type": "function"
    },
    {
      "inputs": [
        {
          "internalType": "uint256",
          "name": "poolId",
          "type": "uint256"
        },
        {
          "internalType": "address",
          "name": "user",
          "type": "address"
        }
      ],
      "name": "isParticipant",
      "outputs": [
        {
          "internalType": "bool",
          "name": "hasStake",
          "type": "bool"
        }
      ],
      "stateMutability": "view",
      "type": "function"
    },
    {
      "inputs": [
        {
          "internalType": "address",
          "name": "",
          "type": "address"
        }
      ],
      "name": "longestStreak",
      "outputs": [
        {
          "internalType": "uint256",
          "name": "",
          "type": "uint256"
        }
      ],
      "stateMutability": "view",
      "type": "function"
    },
    {
      "inputs": [
        {
          "internalType": "uint256",
          "name": "",
          "type": "uint256"
        },
        {
          "internalType": "address",
          "name": "",
          "type": "address"
        }
      ],
      "name": "lpStakes",
      "outputs": [
        {
          "internalType": "uint256",
          "name": "",
          "type": "uint256"
        }
      ],
      "stateMutability": "view",
      "type": "function"
    },
    {
      "inputs": [],
      "name": "minBetAmount",
      "outputs": [
        {
          "internalType": "uint256",
          "name": "",
          "type": "uint256"
        }
      ],
      "stateMutability": "view",
      "type": "function"
    },
    {
      "inputs": [],
      "name": "minPoolStakeBITR",
      "outputs": [
        {
          "internalType": "uint256",
          "name": "",
          "type": "uint256"
        }
      ],
      "stateMutability": "view",
      "type": "function"
    },
    {
      "inputs": [],
      "name": "minPoolStakeSTT",
      "outputs": [
        {
          "internalType": "uint256",
          "name": "",
          "type": "uint256"
        }
      ],
      "stateMutability": "view",
      "type": "function"
    },
    {
      "inputs": [],
      "name": "optimisticOracle",
      "outputs": [
        {
          "internalType": "address",
          "name": "",
          "type": "address"
        }
      ],
      "stateMutability": "view",
      "type": "function"
    },
    {
      "inputs": [],
      "name": "owner",
      "outputs": [
        {
          "internalType": "address",
          "name": "",
          "type": "address"
        }
      ],
      "stateMutability": "view",
      "type": "function"
    },
    {
      "inputs": [
        {
          "internalType": "uint256",
          "name": "poolId",
          "type": "uint256"
        },
        {
          "internalType": "uint256",
          "name": "amount",
          "type": "uint256"
        }
      ],
      "name": "placeBet",
      "outputs": [],
      "stateMutability": "payable",
      "type": "function"
    },
    {
      "inputs": [],
      "name": "platformFee",
      "outputs": [
        {
          "internalType": "uint256",
          "name": "",
          "type": "uint256"
        }
      ],
      "stateMutability": "view",
      "type": "function"
    },
    {
      "inputs": [
        {
          "internalType": "uint256",
          "name": "",
          "type": "uint256"
        }
      ],
      "name": "poolAnalytics",
      "outputs": [
        {
          "internalType": "uint256",
          "name": "totalVolume",
          "type": "uint256"
        },
        {
          "internalType": "uint256",
          "name": "participantCount",
          "type": "uint256"
        },
        {
          "internalType": "uint256",
          "name": "averageBetSize",
          "type": "uint256"
        },
        {
          "internalType": "uint256",
          "name": "creatorReputation",
          "type": "uint256"
        },
        {
          "internalType": "uint256",
          "name": "liquidityRatio",
          "type": "uint256"
        },
        {
          "internalType": "uint256",
          "name": "timeToFill",
          "type": "uint256"
        },
        {
          "internalType": "bool",
          "name": "isHotPool",
          "type": "bool"
        },
        {
          "internalType": "uint256",
          "name": "fillPercentage",
          "type": "uint256"
        },
        {
          "internalType": "uint256",
          "name": "lastActivityTime",
          "type": "uint256"
        }
      ],
      "stateMutability": "view",
      "type": "function"
    },
    {
      "inputs": [
        {
          "internalType": "uint256",
          "name": "",
          "type": "uint256"
        },
        {
          "internalType": "uint256",
          "name": "",
          "type": "uint256"
        }
      ],
      "name": "poolBettors",
      "outputs": [
        {
          "internalType": "address",
          "name": "",
          "type": "address"
        }
      ],
      "stateMutability": "view",
      "type": "function"
    },
    {
      "inputs": [],
      "name": "poolCount",
      "outputs": [
        {
          "internalType": "uint256",
          "name": "",
          "type": "uint256"
        }
      ],
      "stateMutability": "view",
      "type": "function"
    },
    {
      "inputs": [
        {
          "internalType": "uint256",
          "name": "",
          "type": "uint256"
        }
      ],
      "name": "poolDisplayData",
      "outputs": [
        {
          "internalType": "string",
          "name": "",
          "type": "string"
        }
      ],
      "stateMutability": "view",
      "type": "function"
    },
    {
      "inputs": [
        {
          "internalType": "uint256",
          "name": "poolId",
          "type": "uint256"
        }
      ],
      "name": "poolExists",
      "outputs": [
        {
          "internalType": "bool",
          "name": "",
          "type": "bool"
        }
      ],
      "stateMutability": "view",
      "type": "function"
    },
    {
      "inputs": [
        {
          "internalType": "uint256",
          "name": "",
          "type": "uint256"
        }
      ],
      "name": "poolIdToCreatorIndex",
      "outputs": [
        {
          "internalType": "uint256",
          "name": "",
          "type": "uint256"
        }
      ],
      "stateMutability": "view",
      "type": "function"
    },
    {
      "inputs": [
        {
          "internalType": "uint256",
          "name": "",
          "type": "uint256"
        },
        {
          "internalType": "uint256",
          "name": "",
          "type": "uint256"
        }
      ],
      "name": "poolLPs",
      "outputs": [
        {
          "internalType": "address",
          "name": "",
          "type": "address"
        }
      ],
      "stateMutability": "view",
      "type": "function"
    },
    {
      "inputs": [
        {
          "internalType": "uint256",
          "name": "",
          "type": "uint256"
        },
        {
          "internalType": "address",
          "name": "",
          "type": "address"
        }
      ],
      "name": "poolWhitelist",
      "outputs": [
        {
          "internalType": "bool",
          "name": "",
          "type": "bool"
        }
      ],
      "stateMutability": "view",
      "type": "function"
    },
    {
      "inputs": [
        {
          "internalType": "uint256",
          "name": "",
          "type": "uint256"
        }
      ],
      "name": "pools",
      "outputs": [
        {
          "internalType": "address",
          "name": "creator",
          "type": "address"
        },
        {
          "internalType": "uint16",
          "name": "odds",
          "type": "uint16"
        },
        {
          "internalType": "uint8",
          "name": "flags",
          "type": "uint8"
        },
        {
          "internalType": "enum OracleType",
          "name": "oracleType",
          "type": "uint8"
        },
        {
          "internalType": "enum MarketType",
          "name": "marketType",
          "type": "uint8"
        },
        {
          "internalType": "uint8",
          "name": "reserved",
          "type": "uint8"
        },
        {
          "internalType": "uint256",
          "name": "creatorStake",
          "type": "uint256"
        },
        {
          "internalType": "uint256",
          "name": "totalCreatorSideStake",
          "type": "uint256"
        },
        {
          "internalType": "uint256",
          "name": "maxBettorStake",
          "type": "uint256"
        },
        {
          "internalType": "uint256",
          "name": "totalBettorStake",
          "type": "uint256"
        },
        {
          "internalType": "bytes32",
          "name": "predictedOutcome",
          "type": "bytes32"
        },
        {
          "internalType": "bytes32",
          "name": "result",
          "type": "bytes32"
        },
        {
          "internalType": "uint256",
          "name": "eventStartTime",
          "type": "uint256"
        },
        {
          "internalType": "uint256",
          "name": "eventEndTime",
          "type": "uint256"
        },
        {
          "internalType": "uint256",
          "name": "bettingEndTime",
          "type": "uint256"
        },
        {
          "internalType": "uint256",
          "name": "resultTimestamp",
          "type": "uint256"
        },
        {
          "internalType": "uint256",
          "name": "arbitrationDeadline",
          "type": "uint256"
        },
        {
          "internalType": "uint256",
          "name": "maxBetPerUser",
          "type": "uint256"
        },
        {
          "internalType": "bytes32",
          "name": "league",
          "type": "bytes32"
        },
        {
          "internalType": "bytes32",
          "name": "category",
          "type": "bytes32"
        },
        {
          "internalType": "bytes32",
          "name": "homeTeam",
          "type": "bytes32"
        },
        {
          "internalType": "bytes32",
          "name": "awayTeam",
          "type": "bytes32"
        },
        {
          "internalType": "bytes32",
          "name": "title",
          "type": "bytes32"
        },
        {
          "internalType": "string",
          "name": "marketId",
          "type": "string"
        }
      ],
      "stateMutability": "view",
      "type": "function"
    },
    {
      "inputs": [
        {
          "internalType": "address",
          "name": "",
          "type": "address"
        }
      ],
      "name": "predictionStreaks",
      "outputs": [
        {
          "internalType": "uint256",
          "name": "",
          "type": "uint256"
        }
      ],
      "stateMutability": "view",
      "type": "function"
    },
    {
      "inputs": [
        {
          "internalType": "uint256",
          "name": "poolId",
          "type": "uint256"
        }
      ],
      "name": "refundPool",
      "outputs": [],
      "stateMutability": "nonpayable",
      "type": "function"
    },
    {
      "inputs": [
        {
          "internalType": "uint256",
          "name": "poolId",
          "type": "uint256"
        },
        {
          "internalType": "address",
          "name": "user",
          "type": "address"
        }
      ],
      "name": "removeFromWhitelist",
      "outputs": [],
      "stateMutability": "nonpayable",
      "type": "function"
    },
    {
      "inputs": [],
      "name": "renounceOwnership",
      "outputs": [],
      "stateMutability": "nonpayable",
      "type": "function"
    },
    {
      "inputs": [],
      "name": "reputationSystem",
      "outputs": [
        {
          "internalType": "contract IReputationSystem",
          "name": "",
          "type": "address"
        }
      ],
      "stateMutability": "view",
      "type": "function"
    },
    {
      "inputs": [
        {
          "internalType": "address",
          "name": "_boostSystem",
          "type": "address"
        }
      ],
      "name": "setBoostSystem",
      "outputs": [],
      "stateMutability": "nonpayable",
      "type": "function"
    },
    {
      "inputs": [
        {
          "internalType": "address",
          "name": "_reputationSystem",
          "type": "address"
        }
      ],
      "name": "setReputationSystem",
      "outputs": [],
      "stateMutability": "nonpayable",
      "type": "function"
    },
    {
      "inputs": [
        {
          "internalType": "uint256",
          "name": "poolId",
          "type": "uint256"
        },
        {
          "internalType": "bytes32",
          "name": "outcome",
          "type": "bytes32"
        }
      ],
      "name": "settlePool",
      "outputs": [],
      "stateMutability": "nonpayable",
      "type": "function"
    },
    {
      "inputs": [
        {
          "internalType": "uint256",
          "name": "poolId",
          "type": "uint256"
        }
      ],
      "name": "settlePoolAutomatically",
      "outputs": [],
      "stateMutability": "nonpayable",
      "type": "function"
    },
    {
      "inputs": [
        {
          "internalType": "address",
          "name": "",
          "type": "address"
        }
      ],
      "name": "streakMultiplier",
      "outputs": [
        {
          "internalType": "uint256",
          "name": "",
          "type": "uint256"
        }
      ],
      "stateMutability": "view",
      "type": "function"
    },
    {
      "inputs": [],
      "name": "totalCollectedBITR",
      "outputs": [
        {
          "internalType": "uint256",
          "name": "",
          "type": "uint256"
        }
      ],
      "stateMutability": "view",
      "type": "function"
    },
    {
      "inputs": [],
      "name": "totalCollectedSTT",
      "outputs": [
        {
          "internalType": "uint256",
          "name": "",
          "type": "uint256"
        }
      ],
      "stateMutability": "view",
      "type": "function"
    },
    {
      "inputs": [
        {
          "internalType": "address",
          "name": "newOwner",
          "type": "address"
        }
      ],
      "name": "transferOwnership",
      "outputs": [],
      "stateMutability": "nonpayable",
      "type": "function"
    },
    {
      "inputs": [
        {
          "internalType": "address",
          "name": "user",
          "type": "address"
        },
        {
          "internalType": "bool",
          "name": "won",
          "type": "bool"
        }
      ],
      "name": "updateStreak",
      "outputs": [],
      "stateMutability": "nonpayable",
      "type": "function"
    }
  ],
  "bytecode": "0x60e0346200014c57601f620060c438819003918201601f19168301916001600160401b0383118484101762000151578084926080946040528339810103126200014c576200004d8162000167565b906200005c6020820162000167565b90620000796060620000716040840162000167565b920162000167565b9133156200013357600080546001600160a01b03198082163390811784556040519791936001600160a01b03938416907f8be0079c531659141344cd1fd0a4f28419497f9722a3daafe3b4186f6b6457e09080a3600180551690600254161760025560805260a05260c05242601755615f4790816200017d82396080518181816112270152611d58015260a05181818161126c015281816134ec01526137b9015260c0518181816135ee0152818161368201526139120152f35b604051631e4fbdf760e01b815260006004820152602490fd5b600080fd5b634e487b7160e01b600052604160045260246000fd5b51906001600160a01b03821682036200014c5756fe61016080604052600436101561001457600080fd5b600090813560e01c90816301b708c214613d1757508063068bcd8d14613ad75780630e8a01bc14613a8c5780630edb0acd14613a37578063120aa877146139ee57806313695d06146139d0578063152cdda9146137015780631a3221ed146136b1578063223029221461366c578063237e23be1461345a5780632562e9031461335957806326232a2e1461041357806326d84629146132445780632d785461146131925780632e24c5871461310b57806331143cee146130c657806332564350146130a357806332e1a6cd1461300c578063379607f514612d56578063382fdba914612d19578063394d997614612cfb5780633e8670ff14612cc95780634accbc4214612c265780634afe62b51461258f5780634c2809f1146103c75780634d7aae781461256b5780635556b6761461253257806358a187ef146124a15780635e1871d21461247e5780635e4de66514612433578063657c183f146124175780636587eda1146123ee5780636791799d146122c25780636b4169c31461228b578063715018a614612243578063758d9b89146121a957806384499bb61461218557806388446412146121695780638b4ed2351461213f5780638da5cb5b146121185780638f63f748146120fa5780639413f25c14611d325780639481c2ae14611ca45780639654b0a114611c1b5780639cd441da146116f45780639fd482be146116a8578063a12a41cf14611660578063a695ee3814611634578063aac137d614611616578063ab78cc15146115fa578063ac4afa3814611406578063aedc5981146113bf578063b97355f214611386578063c26e797e1461133f578063c2be23691461129b578063c341261014611256578063c415b95c14611211578063c6ae0c3b146111d8578063d3d1993d14611150578063d3fa119014610601578063d791b42e1461059c578063d96d09aa14610413578063de96303b14610563578063e4dc4efc1461051b578063eb6bc08b146104d6578063ed5175471461048e578063f2fde38b14610418578063f3baf07014610413578063f525cb68146103f5578063f6915af5146103cc578063fa968eea146103c75763fea3e6131461033a57600080fd5b346103c45760403660031901126103c457600435610356613dce565b9061036460035482106141a5565b808352600860205260408320546001600160a01b03919061038890831615156141e0565b80845260086020526103a1826040862054163314614dee565b8352600f602052604083209116600052602052604060002060ff19815416905580f35b80fd5b614048565b50346103c457806003193601126103c4576005546040516001600160a01b039091168152602090f35b50346103c457806003193601126103c4576020600354604051908152f35b613fe7565b50346103c45760203660031901126103c457610432613de4565b61043a614086565b6001600160a01b03908116908115610475576000548260018060a01b031982161760005516600080516020615ef2833981519152600080a380f35b604051631e4fbdf760e01b815260048101849052602490fd5b50346103c45760403660031901126103c457602435906004358152601b602052604081209081548310156103c45760206104c8848461401a565b90546040519160031b1c8152f35b50346103c45760203660031901126103c4576104f0613de4565b6104f8614086565b600580546001600160a01b0319166001600160a01b039290921691909117905580f35b50346103c457806003193601126103c45760c06012546013546014546015546016549160175493604051958652602086015260408501526060840152608083015260a0820152f35b50346103c45760203660031901126103c4576020906040906001600160a01b0361058b613de4565b168152601983522054604051908152f35b50346103c45760203660031901126103c4576040906004356105c160035482106141a5565b8082526008602052828220546105e1906001600160a01b031615156141e0565b81526009602052818082205491600c602052205482519182526020820152f35b506102003660031901126103c457610144351515610144350361114b57610184351515610184350361114b5760026101a43510156103c45760086101c43510156103c4576001600160401b036101e435116103c4573660236101e4350112156103c4576106746101e4356004013561406b565b6106816040519182613fc4565b60046101e4359081013580835236910160240111611147576101e4356004013560246101e4350160208301378160206101e43560040135830101526106c4614182565b60646024351180611139575b156110de576101a4351561107f575b6004546001600160a01b031680610f32575b506101843515610ee157683635c9adc5dea0000060443510610ea1575b69d3c21bcecceda100000060443511610e6a57426064351115610e2b576064356084351115610de657603c4201804211610dd2576064351115610d9c576101843515610d8b5761076b6802b5e3af16b18800005b604435906140bf565b6101843515610d495734610d045760206107aa849260018060a01b0360025416906040519485809481936323b872dd60e01b83523033600485016140cc565b03925af18015610cf9578390610cba575b6107c591506140ee565b8161014435610cb1575b61018435610ca7575b606435603b19810111610c9357620151806084350160843511610c935760ff6040519361080485613f5c565b33855261ffff6024351660208601521660408401526108296101a4356060850161413e565b6108396101c4356080850161414a565b8060a084015260443560c084015260443560e08401528061010084015280610120840152600435610140840152806101608401526064356101808401526084356101a0840152603b19606435016101c0840152806101e084015262015180608435016102008401526101643561022084015260a43561024084015260c43561026084015260e435610280840152610104356102a0840152610124356102c0840152816102e084015260035481526008602052604081209260018060a01b0381511684549061ffff60a01b602084015160a01b169160018060b01b0319161717845561092b60ff60408301511685614156565b60608101516002811015610c7f5784546080830151906008821015610c6b5760a084015160c092831b60ff60c01b1662ffffff60b81b1990921660b89490941b60ff60b81b16939093171760c89290921b60ff60c81b16919091178555810151600185015560e08101516002850155610100810151600385015561012081015160048501556101408101516005850155610160810151600685015561018081015160078501556101a081015160088501556101c081015160098501556101e0810151600a850155610200810151600b850155610220810151600c850155610240810151600d850155610260810151600e850155610280810151600f8501556102a081015160108501556102c081015160118501556102e0015180519093906001600160401b038111610c5757610a646012830154613e8c565b94601f8611610c12575b602095508590601f8311600114610ba75760129291859183610b9c575b50508160011b916000199060031b1c1916179101555b60035491827f96f8a332da237902cb0bd09f9a168d33100f2084c52e4a07cf3b28b9977327fa610b0b60405193606435855260843588860152610aea604086016101a435613d3c565b610afa606086016101c435613d5f565b60e0608086015260e0850190613d8f565b9260a43560a082015260c43560c08201528033940390a3816040516000815260443585820152426040820152600080516020615e7283398151915260603392a3610b5482614173565b6003556064354210159081610b84575b50610b76575b60018055604051908152f35b610b7f816146eb565b610b6a565b60049150808360409252600885522001541538610b64565b015190503880610a8b565b9060128401855286852091855b601f1985168110610bfb5750918391600193601295601f19811610610be2575b505050811b01910155610aa1565b015160001960f88460031b161c19169055388080610bd4565b919288600181928685015181550194019201610bb4565b60128301845260208420601f830160051c810160208410610c50575b601f880160051c82018110610c44575050610a6e565b60008155600101610c2e565b5080610c2e565b634e487b7160e01b83526041600452602483fd5b634e487b7160e01b85526021600452602485fd5b634e487b7160e01b83526021600452602483fd5b634e487b7160e01b81526011600452602490fd5b91600817916107d8565b600492506107cf565b506020813d602011610cf1575b81610cd460209383613fc4565b81010312610ced57610ce86107c5916140b2565b6107bb565b8280fd5b3d9150610cc7565b6040513d85823e3d90fd5b60405162461bcd60e51b815260206004820152601d60248201527f4e6f20455448207061796d656e7420666f72204249545220706f6f6c730000006044820152606490fd5b34146107c55760405162461bcd60e51b815260206004820152601460248201527308aa89040e0c2f2dacadce840dad2e6dac2e8c6d60631b6044820152606490fd5b61076b670de0b6b3a7640000610762565b60405162461bcd60e51b815260206004820152600e60248201526d22bb32b73a103a37b79039b7b7b760911b6044820152606490fd5b634e487b7160e01b83526011600452602483fd5b60405162461bcd60e51b815260206004820152601d60248201527f4576656e7420656e64206d7573742062652061667465722073746172740000006044820152606490fd5b60405162461bcd60e51b81526020600482015260176024820152764576656e74206d75737420626520696e2066757475726560481b6044820152606490fd5b60405162461bcd60e51b815260206004820152600f60248201526e5374616b6520746f6f206c6172676560881b6044820152606490fd5b60405162461bcd60e51b815260206004820152601860248201527742495452207374616b652062656c6f77206d696e696d756d60401b6044820152606490fd5b674563918244f40000604435101561070e5760405162461bcd60e51b8152602060048201526017602482015276535454207374616b652062656c6f77206d696e696d756d60481b6044820152606490fd5b608060249160405192838092634a7a638f60e11b82523360048301525afa908115610cf95783908492611029575b506101a435600103610fcd575015610f79575b386106f1565b60405162461bcd60e51b815260206004820152602660248201527f496e73756666696369656e742072657075746174696f6e20666f72204f50454e60448201526520706f6f6c7360d01b6064820152608490fd5b9050610f735760405162461bcd60e51b815260206004820152602860248201527f496e73756666696369656e742072657075746174696f6e20666f722047554944604482015267454420706f6f6c7360c01b6064820152608490fd5b9150506080813d8211611077575b8161104460809383613fc4565b81010312610ced57611058602082016140b2565b6110706060611069604085016140b2565b93016140b2565b5038610f60565b3d9150611037565b60076101c435036106df5760405162461bcd60e51b815260206004820152602660248201527f47756964656420706f6f6c73206e656564207370656369666963206d61726b6560448201526574207479706560d01b6064820152608490fd5b60405162461bcd60e51b815260206004820152602d60248201527f496e76616c6964206f6464733a206d757374206265206265747765656e20312e60448201526c0303120616e64203130302e303609c1b6064820152608490fd5b5061271060243511156106d0565b5080fd5b600080fd5b50346103c45760203660031901126103c457604061012091600435815260116020522080549060018101549060028101546003820154600483015460058401549160ff600686015416936008600787015496015496604051988952602089015260408801526060870152608086015260a0850152151560c084015260e0830152610100820152f35b50346103c45760203660031901126103c4576020906040906001600160a01b03611200613de4565b168152601883522054604051908152f35b50346103c457806003193601126103c4576040517f00000000000000000000000000000000000000000000000000000000000000006001600160a01b03168152602090f35b50346103c457806003193601126103c4576040517f00000000000000000000000000000000000000000000000000000000000000006001600160a01b03168152602090f35b50346103c45760403660031901126103c4576112b5613de4565b6001600160a01b03168152601c602052604081206024359081158015611335575b61132c575b6112e482615915565b925b828110611307576040516020808252819061130390820187613dfa565b0390f35b806113146001928461401a565b90549060031b1c6113258287614e74565b52016112e6565b805491506112db565b50805482116112d6565b50346103c45760403660031901126103c457604061135b613dce565b916004358152600d602052209060018060a01b03166000526020526020604060002054604051908152f35b50346103c4576113b56113a161139b36614004565b90615947565b604051928392604084526040840190613dfa565b9060208301520390f35b50346103c45760403660031901126103c45760406113db613dce565b916004358152600a602052209060018060a01b03166000526020526020604060002054604051908152f35b50346103c45760203660031901126103c45760043581526008602052604090208060e0528080546001820154608052600282015460a05260038201546004830154600584015460068501546007860154600887015490600988015492600a89015494600b8a015496600c8b015498600d8c01549a600e8d01549c600f01549d60108101546101005260118101546101205260405180918160c052601201906114ad91613ec6565b0360c051906114bb91613fc4565b6040518061014052600160a01b60019003821690528060a01c61ffff1661014051602001528060b01c60ff166101405160400152610140516060018160b81c60ff169061150791613d3c565b610140516080018160c01c60ff169061151f91613d5f565b60c81c60ff166101405160a001526080516101405160c0015260a0516101405160e00152610140516101000152610140516101200152610140516101400152610140516101600152610140516101800152610140516101a00152610140516101c00152610140516101e0015261014051610200015261014051610220015261014051610240015261014051610260015261014051610280015261010051610140516102a0015261012051610140516102c0015261030080610140516102e001526101405190810160c051906115f391613d8f565b0361014051f35b50346103c457806003193601126103c4576020604051603c8152f35b50346103c457806003193601126103c4576020600654604051908152f35b50346103c45760203660031901126103c4576020611658611653613de4565b614d0d565b604051908152f35b50346103c45760403660031901126103c45761167a613de4565b6001600160a01b03168152601c60205260408120805460243592908310156103c45760206104c8848461401a565b50346103c45760403660031901126103c45760406116c4613dce565b916004358152600f602052209060018060a01b0316600052602052602060ff604060002054166040519015158152f35b506116fe36614004565b90611707614182565b61171460035482106141a5565b8083526008602090815260408420546001600160a01b03919061173a90831615156141e0565b82855260088152604085209161175861175285615ad7565b15614361565b670de0b6b3a76400008510611bdc576969e10de76676d08000008511611ba1576117876009840154421061439c565b600283018054861910611b6357848752600d83526040872033600052835260406000205415611b13575b6117ba85615b09565b611aec575b848752600d83526040872033600052835260406000205415611ad3575b848752600d83526040872033600052835260406000206117fd8782546140bf565b905561180a8682546140bf565b80915560048401548015908115611ac5575b5015611ab957925b61ffff815460a01c166063198101908111611aa55760649485810290808204871490151715611a9157600391611859916143f2565b91015561186584615b22565b15611a8057600254168160405180926323b872dd60e01b82528189816118908b3033600485016140cc565b03925af18015611a75578690611a3b575b6118ab91506140ee565b82600052601181526040600020916118c48584546140bf565b808455600184018054914260088701558280611a26575b505085600052600884526118f26040600020614222565b90610100820180516119f9575b5060e082019187835115156000146119ca575061012001518481029481860414901517156119b457600080516020615e9283398151915295600a600080516020615e32833981519152946119588a9760409651906143f2565b600484015510158061199b575b61197e90600683019060ff801983541691151516179055565b549054825191825285820152a26040519384523393a36001805580f35b5061197e610e106119ac4242614131565b109050611965565b634e487b7160e01b600052601160045260246000fd5b9460409350600080516020615e92833981519152979150600080516020615e3283398151915294600a91611958565b610120830151858102908082048714901517156119b457611a1b9151906143f2565b6007870155386118ff565b611a2f916143f2565b600286015538826118db565b508181813d8311611a6e575b611a518183613fc4565b81010312611a6a57611a656118ab916140b2565b6118a1565b8580fd5b503d611a47565b6040513d88823e3d90fd5b50611a8c84341461448b565b6118ab565b634e487b7160e01b89526011600452602489fd5b634e487b7160e01b88526011600452602488fd5b50600183015492611824565b90506001850154103861181c565b848752600c8352611ae73360408920614450565b6117dc565b848752600f835260408720336000528352611b0e60ff60406000205416614412565b6117bf565b848752600c835260646040882054106117b15760405162461bcd60e51b8152600481018490526015602482015274546f6f206d616e79204c502070726f76696465727360581b6044820152606490fd5b60405162461bcd60e51b815260048101849052601660248201527543726561746f72207374616b65206f766572666c6f7760501b6044820152606490fd5b60405162461bcd60e51b81526004810183905260136024820152724c697175696469747920746f6f206c6172676560681b6044820152606490fd5b60405162461bcd60e51b81526004810183905260176024820152764c69717569646974792062656c6f77206d696e696d756d60481b6044820152606490fd5b50346103c45760203660031901126103c457611ca1600435611c4060035482106141a5565b80835260086020526040832054611c61906001600160a01b031615156141e0565b8083526008602052611c9c600760408520611c84611c7e85615ad7565b156145e1565b611c92600482015415614624565b0154421015614660565b6146eb565b80f35b50346103c45760203660031901126103c457606090600435611cc960035482106141a5565b80825260086020526040822054611cea906001600160a01b031615156141e0565b8152600c602052611d09604082205460096020526040832054906140bf565b9050603281118015611d2b576032905b60405192835260208301526040820152f35b8190611d19565b50346103c45760208060031936011261114757611d4d613de4565b906001600160a01b037f00000000000000000000000000000000000000000000000000000000000000008181169291338490036120c0576006549460075494861593849182159081611fbb575b5087159687159283611e86575b505091611e7e575b50611db8578680f35b1691601e8402938404601e141715611e6a57601e8402938404601e141715611e5657908184923b15610ced5760649183604492846040519788968795633d6bcfaf60e11b87520460048601520460248401525af18015611e4b57611e20575b80808080808680f35b6001600160401b038111611e375760405238611e17565b634e487b7160e01b82526041600452602482fd5b6040513d84823e3d90fd5b634e487b7160e01b84526011600452602484fd5b634e487b7160e01b85526011600452602485fd5b905038611daf565b909350601e8902898104601e14891715611fa75760648c9104816007558186611ed68d611eb8858d6002541692614131565b60405196878094819363a9059cbb60e01b9b8c8452600484016146d0565b03925af1928315611f9a578793611f61575b50611f089389600254169160405180968195829483528c600484016146d0565b03925af1938415611f5657879415611da75790809450813d8311611f4f575b611f318183613fc4565b81010312611f4b57611f4386936140b2565b503880611da7565b8980fd5b503d611f27565b6040513d8d823e3d90fd5b9283813d8311611f93575b611f768183613fc4565b810103126103c457611f0893611f8c88946140b2565b5093611ee8565b503d611f6c565b50604051903d90823e3d90fd5b634e487b7160e01b8c52601160045260248cfd5b90919250601e8902898104601e148717156120ac578a80808c94611fe86064839604809784600655614131565b905af1611ff36146a0565b501561205d5789808080938888165af161200b6146a0565b501561201a5790849138611d9a565b60405162461bcd60e51b815260048101879052601b60248201527a14d515081cdd185ada5b99c81d1c985b9cd9995c8819985a5b1959602a1b6044820152606490fd5b60405162461bcd60e51b815260048101889052602160248201527f5354542066656520636f6c6c6563746f72207472616e73666572206661696c656044820152601960fa1b6064820152608490fd5b634e487b7160e01b8b52601160045260248bfd5b60405162461bcd60e51b815260048101849052601260248201527127b7363c903332b29031b7b63632b1ba37b960711b6044820152606490fd5b50346103c457806003193601126103c4576020600754604051908152f35b50346103c457806003193601126103c457546040516001600160a01b039091168152602090f35b50346103c45760203660031901126103c45760406020916004358152601d83522054604051908152f35b50346103c457806003193601126103c457602060405160328152f35b50346103c457806003193601126103c45760206040516802b5e3af16b18800008152f35b50346103c45760403660031901126103c4576004356121c6613dce565b916121d460035483106141a5565b8181526020926008845260018060a01b036121f68160408520541615156141e0565b838352600a855260408320911690818352845260408220541592831593612225575b5050506040519015158152f35b604093508252600d8452828220908252835220541515388080612218565b50346103c457806003193601126103c45761225c614086565b80546001600160a01b03198116825581906001600160a01b0316600080516020615ef28339815191528280a380f35b50346103c457806003193601126103c457608060125460135460165460175491604051938452602084015260408301526060820152f35b50346103c457602080600319360112611147579061010091600435916122eb60035484106141a5565b82815260088252604081205461230b906001600160a01b031615156141e0565b8281526008825261231e60408220614222565b90610120820180519460e084015181845260098652604084205490600c875261234b604086205493615ad7565b15948594856123e4575b50856123d4575b6101808701518042106000146123c95761237a6101c0914290614131565b975b01518042106000146123c25761239491504290614131565b965b60405198895288015260408701526060860152156080850152151560a084015260c083015260e0820152f35b5096612396565b506101c0819761237c565b610180870151421015955061235c565b5115955038612355565b50346103c457806003193601126103c4576004546040516001600160a01b039091168152602090f35b50346103c457806003193601126103c457602060405160648152f35b50346103c45761244236614004565b91908152600c602052604081209081548310156103c4576020612465848461401a565b905460405160039290921b1c6001600160a01b03168152f35b50346103c45760203660031901126103c457602060035460043510604051908152f35b50346103c45760403660031901126103c4576124f8611303916004356124f36124c8613dce565b926124d660035484106141a5565b828152600860205260409020546001600160a01b031615156141e0565b614914565b926040969496929192519687961515875260208701521515604086015260608501521515608084015260c060a084015260c0830190613d8f565b50346103c45760203660031901126103c4576020906040906001600160a01b0361255a613de4565b168152601a83522054604051908152f35b50346103c457806003193601126103c4576020604051683635c9adc5dea000008152f35b5061259936614004565b906125a2614182565b6125af60035482106141a5565b8083526008602090815260408420546001600160a01b03906125d490821615156141e0565b82855260088252604085206125e881614222565b916125f561175286615ad7565b670de0b6b3a76400008610612bed5769152d02c7e14af68000008611612bb8576126256101c0840151421061439c565b8515612b675761012092838101928351888115918215612b50575b505015612b455760e0820151935b61ffff878401511660649586810290808204881490151715611fa7576063198201918211611fa75790612680916143f2565b908161268d8b83516140bf565b11612b155791848b8a95938c8b96888452600a88526040842033855288526040842054801580612aa8575b6126c18b615b09565b612a83575b61022089018051612a15575b50926040926126f082612709948e8e6010996129fc575b50506140bf565b8c8852600a8c528488203389528c5284882055516140bf565b9360086004880199868b558560038a01558b835252205460b01c161591826129c9575b5050612981575b5050505061274090615b22565b1561297057600254168360405180926323b872dd60e01b8252818a8161276b8c3033600485016140cc565b03925af1801561296557879061292b575b61278691506140ee565b83865260118352604086209061279d8683546140bf565b90818355600183019384549260018401809411612917578386554260088601558380612902575b5050868952600886526127d960408a20614222565b90610100820180516128d7575b5060e082019188835115156000146128b357500151828102928184041490151715611a9157938693600a600080516020615e328339815191529461283160409560019a9951906143f2565b600484015510158061289a575b61285790600683019060ff801983541691151516179055565b549054825191825285820152a26040519384528301527fb1bd10cf5ea9540f12b9b182707734fd82deacc56830e2bd316133deb372bff460403393a36001805580f35b50612857610e106128ab4242614131565b10905061283e565b95915050600196959150600a600080516020615e3283398151915294604094612831565b818301519084820291808304861490151715611fa757516128f7916143f2565b6007860155386127e6565b61290b916143f2565b600285015538836127c4565b634e487b7160e01b8a52601160045260248afd5b508381813d831161295e575b6129418183613fc4565b8101031261295a57612955612786916140b2565b61277c565b8680fd5b503d612937565b6040513d89823e3d90fd5b5061297c85341461448b565b612786565b600080516020615e72833981519152926129a883601060ff6060965460b01c161790614156565b51169254604051906005825289820152426040820152a38438808084612733565b925092939495505086810290808204881490151715611fa757603c6129f38b9695949388936143f2565b1015388061272c565b6009918c5252612a0e33888c20614450565b8e8e6126e9565b94989a509450612a2b92919698508095506140bf565b905110612a44578a95938c8b96948f93948a95386126d2565b60405162461bcd60e51b8152600481018b9052601860248201527722bc31b2b2b2399036b0bc103132ba103832b9103ab9b2b960411b60448201528890fd5b8a8652600f8a52604086203387528a52612aa360ff604088205416614412565b6126c6565b9480929799506101f494989a919650604093505260098d5220541015612ad9578a95938c8b96948f93948a956126b8565b60405162461bcd60e51b8152600481018b90526015602482015274546f6f206d616e79207061727469636970616e747360581b60448201528890fd5b60405162461bcd60e51b8152600481018990526009602482015268141bdbdb08199d5b1b60ba1b60448201528690fd5b60c08201519361264e565b612b5a92506140bf565b60c0830151108838612640565b60405162461bcd60e51b8152600481018590526024808201527f42657420616d6f756e74206d7573742062652067726561746572207468616e206044820152637a65726f60e01b6064820152608490fd5b60405162461bcd60e51b815260048101859052600d60248201526c42657420746f6f206c6172676560981b6044820152606490fd5b60405162461bcd60e51b81526004810185905260116024820152704265742062656c6f77206d696e696d756d60781b6044820152606490fd5b50346103c45760403660031901126103c45760609060043590612c47613dce565b91612c5560035482106141a5565b80825260ff60406020936008855260018060a01b03612c7a81848420541615156141e0565b848252600a865282822096169586825285528181205495848252600d8652828220818352865282822054948252600e865282822090825285522054169160405193845283015215156040820152f35b50346103c457612cd836614004565b919081526009602052604081209081548310156103c4576020612465848461401a565b50346103c457806003193601126103c4576020604051620151808152f35b50346103c457612d47612d4261130392612d3236613db4565b9390926124d660035484106141a5565b615c56565b60409391935193849384613e2e565b50346103c45760208060031936011261114757600435612d7960035482106141a5565b8083526008825260408320546001600160a01b039290612d9c90841615156141e0565b612da4614182565b612dad82615ad7565b15612fda57818452600e815260408420338552815260ff604085205416612fa457612dd782615af0565b15612f9457612de63383614b60565b925b8315612f5957828552600e8252604080862033875283528520805460ff19166001179055612e1583615b22565b15612ef5576002541681604051809263a9059cbb60e01b8252818881612e3f8a33600484016146d0565b03925af1908115612eea578591612eb1575b5015612e7857600080516020615eb2833981519152905b6040519384523393a36001805580f35b6064906040519062461bcd60e51b82526004820152601260248201527110925514881c185e5bdd5d0819985a5b195960721b6044820152fd5b90508181813d8311612ee3575b612ec88183613fc4565b81010312612edf57612ed9906140b2565b38612e51565b8480fd5b503d612ebe565b6040513d87823e3d90fd5b508380808086335af1612f066146a0565b5015612f2157600080516020615eb283398151915290612e68565b6064906040519062461bcd60e51b82526004820152601160248201527014d515081c185e5bdd5d0819985a5b1959607a1b6044820152fd5b60405162461bcd60e51b81526004810183905260136024820152724e6f207061796f757420617661696c61626c6560681b6044820152606490fd5b612f9e3383614bee565b92612de8565b6064906040519062461bcd60e51b82526004820152600f60248201526e105b1c9958591e4818db185a5b5959608a1b6044820152fd5b6064906040519062461bcd60e51b82526004820152600b60248201526a139bdd081cd95d1d1b195960aa1b6044820152fd5b50346103c45760203660031901126103c45760209061306c61306660406004359361303a60035486106141a5565b8481526008865281812054613059906001600160a01b031615156141e0565b8481526008865220614222565b91615ad7565b159081613095575b81613085575b506040519015158152f35b610180915001514210153861307a565b610120810151159150613074565b50346103c457806003193601126103c4576020604051674563918244f400008152f35b50346103c45760203660031901126103c4576130e0613de4565b6130e8614086565b600480546001600160a01b0319166001600160a01b039290921691909117905580f35b50346103c45760203660031901126103c457610100906040906001600160a01b03613134613de4565b168152601060205220805490600181015490600281015460038201546004830154906005840154926007600686015495015495604051978852602088015260408701526060860152608085015260a084015260c083015260e0820152f35b50346103c45760403660031901126103c4576004356131af613dce565b906131bd60035482106141a5565b808352600860205260408320546001600160a01b03906131e090821615156141e0565b81845260086020526131f9816040862054163314614dee565b818452600f6020526040842092169182845260205260408320600160ff198254161790557fef35c6815799b054cdc749d1f5bb07547c285ef9d7559c6e839da576f42b49098380a380f35b50346103c45760403660031901126103c45761325e613de4565b6024358015158103610ced573033148015613346575b1561331257156132ee5760018060a01b0316808252602090601882526040832061329e8154614173565b90558252601881526040822054601982526040832054106132d7575b60188152601a6132cd6040842054615aa7565b9152604082205580f35b6018815260408220546019825260408320556132ba565b60018060a01b031681526018602052806040812055601a6020526001604082205580f35b60405162461bcd60e51b815260206004820152600c60248201526b155b985d5d1a1bdc9a5e995960a21b6044820152606490fd5b5082546001600160a01b03163314613274565b50346103c457602090816003193601126103c457600435918215613451575b61338183615915565b928283918490600354915b8281106133ea5750505061339f81615915565b935b8181106133cb5750506133c39350604051938493604085526040850190613dfa565b918301520390f35b806133d860019288614e74565b516133e38288614e74565b52016133a1565b6133f381615ad7565b158061343a575b613407575b60010161338c565b9361341190614173565b93818410156133ff5792613432818561342c6001948c614e74565b52614173565b9390506133ff565b5080875260088652600960408820015442106133fa565b60649250613378565b50346103c45760403660031901126103c45760043560243561347f60035483106141a5565b818352600860205260408320546001600160a01b0391906134a390831615156141e0565b8284526008602052604084206134c16134bb85615ad7565b156144ce565b6134d1600882015442101561450c565b80549260ff8460b81c16600281101561365857806135c757507f000000000000000000000000000000000000000000000000000000000000000016330361358d5761353b600160ff600080516020615e52833981519152955b85600686015560b01c161782614156565b60058101548214159081613574575b600a4291015561355984615b3b565b6040805192835290151560208301524290820152606090a280f35b613588600260ff835460b01c161782614156565b61354a565b60405162461bcd60e51b81526020600482015260126024820152714f6e6c7920677569646564206f7261636c6560701b6044820152606490fd5b6001146135ec575b5061353b600160ff600080516020615e528339815191529561352a565b7f000000000000000000000000000000000000000000000000000000000000000016330361361a57386135cf565b60405162461bcd60e51b81526020600482015260166024820152754f6e6c79206f7074696d6973746963206f7261636c6560501b6044820152606490fd5b634e487b7160e01b87526021600452602487fd5b50346103c457806003193601126103c4576040517f00000000000000000000000000000000000000000000000000000000000000006001600160a01b03168152602090f35b50346103c45760203660031901126103c4576136e66136ed6040611303936004358152600b6020522060405192838092613ec6565b0382613fc4565b604051918291602083526020830190613d8f565b50346103c457602080600319360112611147576004359061372560035483106141a5565b8183526008815260408320546001600160a01b039061374790821615156141e0565b82845260088252604084209061375f6134bb85615ad7565b61376f600883015442101561450c565b815490858060b884901c60ff1660028110156139bc57806138cf5750505085604051809263c6522d0160e01b825286600483015281806137b56024820160128a01613ec6565b03917f0000000000000000000000000000000000000000000000000000000000000000165afa908115611a7557869087926138aa575b5015613866576137fa906145be565b9260015b1561382e57509061353b600160ff8594600080516020615e5283398151915296600686015560b01c161782614156565b6064906040519062461bcd60e51b8252600482015260116024820152704f7574636f6d65206e6f7420726561647960781b6044820152fd5b60405162461bcd60e51b815260048101859052601c60248201527b477569646564206f7574636f6d65206e6f7420617661696c61626c6560201b6044820152606490fd5b90506138c891503d8088833e6138c08183613fc4565b81019061454e565b90386137eb565b91959290916001146138e2575b506137fe565b9194505085604051809263c6522d0160e01b8252866004830152818061390e6024820160128a01613ec6565b03917f0000000000000000000000000000000000000000000000000000000000000000165afa908115611a75578690879261399f575b501561395c57613953906145be565b926001386138dc565b6064846040519062461bcd60e51b825280600483015260248201527f4f7074696d6973746963206f7574636f6d65206e6f742066696e616c697a65646044820152fd5b90506139b591503d8088833e6138c08183613fc4565b9038613944565b634e487b7160e01b89526021600452602489fd5b50346103c457612d476139e961130392612d3236613db4565b615d5c565b50346103c45760403660031901126103c45760ff6040602092613a0f613dce565b6004358252600e85528282206001600160a01b03909116825284522054604051911615158152f35b50346103c457613a85613a4936613db4565b91613a52614182565b613a5f60035482106141a5565b80855260086020526040852054613a80906001600160a01b031615156141e0565b61537b565b6001805580f35b50346103c45760203660031901126103c457611ca1600435613ab160035482106141a5565b80835260086020526040832054613ad2906001600160a01b031615156141e0565b614f9e565b50346103c45760203660031901126103c457613bd460406102e0926060848351613b0081613f5c565b838152836020820152838582015283838201528360808201528360a08201528360c08201528360e08201528361010082015283610120820152836101408201528361016082015283610180820152836101a0820152836101c0820152836101e08201528361020082015283610220820152836102408201528361026082015283610280820152836102a0820152836102c08201520152600354613ba76004359182106141a5565b808252600860205282822054613bc7906001600160a01b031615156141e0565b8152600860205220614222565b6113036040519283926020845260018060a01b03815116602085015261ffff602082015116604085015260ff6040820151166060850152613c1d60608201516080860190613d3c565b613c2f608082015160a0860190613d5f565b60ff60a08201511660c085015260c081015160e085015260e08101516101008501526101008101516101208501526101208101516101408501526101408101516101608501526101608101516101808501526101808101516101a08501526101a08101516101c08501526101c08101516101e08501526101e08101516102008501526102008101516102208501526102208101516102408501526102408101516102608501526102608101516102808501526102808101516102a08501526102a08101516102c08501526102c081015182850152015161030080840152610320830190613d8f565b9050346111475781600319360112611147576002546001600160a01b03168152602090f35b906002821015613d495752565b634e487b7160e01b600052602160045260246000fd5b906008821015613d495752565b60005b838110613d7f5750506000910152565b8181015183820152602001613d6f565b90602091613da881518092818552858086019101613d6c565b601f01601f1916010190565b606090600319011261114b57600435906024359060443590565b602435906001600160a01b038216820361114b57565b600435906001600160a01b038216820361114b57565b90815180825260208080930193019160005b828110613e1a575050505090565b835185529381019392810192600101613e0c565b9392916060850191606086528051809352608086019260208092019060005b818110613e6f5750505085830390860152604091613e6a91613dfa565b930152565b82516001600160a01b031686529483019491830191600101613e4d565b90600182811c92168015613ebc575b6020831014613ea657565b634e487b7160e01b600052602260045260246000fd5b91607f1691613e9b565b9060009291805491613ed783613e8c565b918282526001938481169081600014613f395750600114613ef9575b50505050565b90919394506000526020928360002092846000945b838610613f25575050505001019038808080613ef3565b805485870183015294019385908201613f0e565b9294505050602093945060ff191683830152151560051b01019038808080613ef3565b61030081019081106001600160401b03821117613f7857604052565b634e487b7160e01b600052604160045260246000fd5b604081019081106001600160401b03821117613f7857604052565b602081019081106001600160401b03821117613f7857604052565b601f909101601f19168101906001600160401b03821190821017613f7857604052565b3461114b57600036600319011261114b5760206040516101f48152f35b604090600319011261114b576004359060243590565b80548210156140325760005260206000200190600090565b634e487b7160e01b600052603260045260246000fd5b3461114b57600036600319011261114b576020604051670de0b6b3a76400008152f35b6001600160401b038111613f7857601f01601f191660200190565b6000546001600160a01b0316330361409a57565b60405163118cdaa760e01b8152336004820152602490fd5b5190811515820361114b57565b919082018092116119b457565b6001600160a01b03918216815291166020820152604081019190915260600190565b156140f557565b60405162461bcd60e51b815260206004820152601460248201527310925514881d1c985b9cd9995c8819985a5b195960621b6044820152606490fd5b919082039182116119b457565b6002821015613d495752565b6008821015613d495752565b805460ff60b01b191660b09290921b60ff60b01b16919091179055565b60001981146119b45760010190565b600260015414614193576002600155565b604051633ee5aeb560e01b8152600490fd5b156141ac57565b60405162461bcd60e51b815260206004820152600c60248201526b125b9d985b1a59081c1bdbdb60a21b6044820152606490fd5b156141e757565b60405162461bcd60e51b8152602060048201526013602482015272141bdbdb08191bd95cc81b9bdd08195e1a5cdd606a1b6044820152606490fd5b9060126102e060405161423481613f5c565b61435d819560ff815460018060a01b038116855261ffff8160a01c166020860152818160b01c166040860152614272828260b81c166060870161413e565b614284828260c01c166080870161414a565b60c81c1660a0840152600181015460c0840152600281015460e08401526003810154610100840152600481015461012084015260058101546101408401526006810154610160840152600781015461018084015260088101546101a084015260098101546101c0840152600a8101546101e0840152600b810154610200840152600c810154610220840152600d810154610240840152600e810154610260840152600f81015461028084015260108101546102a084015260118101546102c08401526143566040518096819301613ec6565b0384613fc4565b0152565b1561436857565b60405162461bcd60e51b815260206004820152600c60248201526b141bdbdb081cd95d1d1b195960a21b6044820152606490fd5b156143a357565b60405162461bcd60e51b815260206004820152601460248201527310995d1d1a5b99c81c195c9a5bd908195b99195960621b6044820152606490fd5b818102929181159184041417156119b457565b81156143fc570490565b634e487b7160e01b600052601260045260246000fd5b1561441957565b60405162461bcd60e51b815260206004820152600f60248201526e139bdd081dda1a5d195b1a5cdd1959608a1b6044820152606490fd5b8054600160401b811015613f785761446d9160018201815561401a565b819291549060031b9160018060a01b03809116831b921b1916179055565b1561449257565b60405162461bcd60e51b8152602060048201526014602482015273125b98dbdc9c9958dd0814d51508185b5bdd5b9d60621b6044820152606490fd5b156144d557565b60405162461bcd60e51b815260206004820152600f60248201526e105b1c9958591e481cd95d1d1b1959608a1b6044820152606490fd5b1561451357565b60405162461bcd60e51b8152602060048201526013602482015272115d995b9d081b9bdd08195b991959081e595d606a1b6044820152606490fd5b919060408382031261114b57614563836140b2565b602084015190936001600160401b03821161114b570181601f8201121561114b57805161458f8161406b565b9261459d6040519485613fc4565b8184526020828401011161114b576145bb9160208085019101613d6c565b90565b6020815191015190602081106145d2575090565b6000199060200360031b1b1690565b156145e857565b60405162461bcd60e51b8152602060048201526014602482015273141bdbdb08185b1c9958591e481cd95d1d1b195960621b6044820152606490fd5b1561462b57565b60405162461bcd60e51b815260206004820152600d60248201526c506f6f6c20686173206265747360981b6044820152606490fd5b1561466757565b60405162461bcd60e51b8152602060048201526011602482015270115d995b9d081b9bdd081cdd185c9d1959607a1b6044820152606490fd5b3d156146cb573d906146b18261406b565b916146bf6040519384613fc4565b82523d6000602084013e565b606090565b6001600160a01b039091168152602081019190915260400190565b600090808252602060088152604080842093614709611c7e85615ad7565b614717600486015415614624565b6147276007860154421015614660565b61473b600160ff875460b01c161786614156565b80600686015561474a84615b22565b156148655760025485546001870154845163a9059cbb60e01b815292869284926001600160a01b039283169284928892849261478a9216600484016146d0565b03925af190811561485b578291614826575b50156147ed579083600080516020615e528339815191526060600080516020615eb283398151915295945b845190808252868201524285820152a26001808060a01b038654169501549051908152a3565b815162461bcd60e51b815260048101849052601260248201527110925514881c99599d5b990819985a5b195960721b6044820152606490fd5b90508381813d8311614854575b61483d8183613fc4565b810103126111475761484e906140b2565b3861479c565b503d614833565b83513d84823e3d90fd5b8080808060018060a01b0389541660018a0154905af16148836146a0565b50156148b2579083600080516020615e528339815191526060600080516020615eb283398151915295946147c7565b815162461bcd60e51b815260048101849052601160248201527014d515081c99599d5b990819985a5b1959607a1b6044820152606490fd5b604051906148f782613f8e565b600e82526d526561647920746f20636c61696d60901b6020830152565b91909160009281845260209160088352604091614932838720614222565b91808752600e85528387209160018060a01b03811692838952865260ff858920541661495d83615ad7565b15614b2957614af25761496f82615af0565b15614a6157508652600d8452828620908652835281852054928315614a315760e08201928351156149fc57505061271091828402908482048414851517156149e857916101206149c86149d0936149d7969551906143f2565b9101516143df565b04826140bf565b9260019392849291906145bb6148ea565b634e487b7160e01b87526011600452602487fd5b518695869594508593509171496e76616c696420706f6f6c20737461746560701b90614a2783613f8e565b6012835282015290565b925050928093819382936a4e6f204c50207374616b6560a81b84935191614a5783613f8e565b600b835282015290565b93949291908752600a8352848720908752825283862054938415614abf5750614ab86064614a9d61ffff6149d7969561271095015116876143df565b0492614ab2614aac8786614131565b91614d0d565b906143df565b0490614131565b51869586955085945084939092506c139bc818995d081c1b1858d959609a1b90614ae883613f8e565b600d835282015290565b5050505092908193829383926e105b1c9958591e4818db185a5b5959608a1b6001935191614b1f83613f8e565b600f835282015290565b94935050505084929383946f141bdbdb081b9bdd081cd95d1d1b195960821b8594935191614b5683613f8e565b6010835282015290565b91906000908382526008602052614b7960408320614222565b938252600d602052604082209060018060a01b031682526020526040812054908115808015614be2575b614bdc57612710918284029184830484141715610c935750846101206149c8614bd59360e06145bb98990151906143f2565b04906140bf565b50925050565b5060e085015115614ba3565b906000908282526008602052614c0660408320614222565b838352600a602090815260408085206001600160a01b03851680875292528420549194918015614d0457612710614c5c6064614c4d61ffff60206145bb9b015116856143df565b0495614ab2614aac8589614131565b049485614cce575b614c6d84615b22565b159050614cbd57686c6b935b8bbd4000008110155b614c8f575b505050614131565b6060600080516020615e728339815191529160405190600382526020820152426040820152a3388080614c87565b678ac7230489e80000811015614c82565b614cd784615b22565b15614cf057614ce8866007546140bf565b600755614c64565b614cfc866006546140bf565b600655614c64565b50505050905090565b6002546040516370a0823160e01b81526001600160a01b0392831660048201529160209183916024918391165afa908115614de257600091614db1575b50690a968163f0a57b400000811015614dab5769043c33c1937564800000811015614da45769010f0cf064dd59200000811015614d9d57686c6b935b8bbd4000001115614d97576101f490565b6101c290565b5061019090565b5061015e90565b5060fa90565b906020823d8211614dda575b81614dca60209383613fc4565b810103126103c457505138614d4a565b3d9150614dbd565b6040513d6000823e3d90fd5b15614df557565b60405162461bcd60e51b815260206004820152600b60248201526a2737ba1031b932b0ba37b960a91b6044820152606490fd5b15614e2f57565b60405162461bcd60e51b815260206004820152601e60248201527f4172626974726174696f6e20706572696f64206e6f74206578706972656400006044820152606490fd5b80518210156140325760209160051b010190565b15614e8f57565b60405162461bcd60e51b815260206004820152601460248201527314d515081314081c99599d5b990819985a5b195960621b6044820152606490fd5b15614ed257565b60405162461bcd60e51b815260206004820152601560248201527410925514881314081c99599d5b990819985a5b1959605a1b6044820152606490fd5b15614f1657565b60405162461bcd60e51b815260206004820152601860248201527714d5150818995d1d1bdc881c99599d5b990819985a5b195960421b6044820152606490fd5b15614f5d57565b60405162461bcd60e51b8152602060048201526019602482015278109255148818995d1d1bdc881c99599d5b990819985a5b1959603a1b6044820152606490fd5b60008181526020906008825260409081812090614fbd6134bb86615ad7565b614fcc600b8301544211614e28565b848152600c84526032614fea848320546009875285842054906140bf565b11615320576150056001928360ff825460b01c161790614156565b848152600c84528281208351808287829454938481520190855287852092855b878a838310615302575050505061503e92500382613fc4565b805161504987615b22565b9184845b838110615206575050505085825260098552838220918451808488829654938481520190845288842092845b888b8383106151e8575050505061509292500384613fc4565b825192815b8481106150e857505050505050600080516020615ed28339815191529172105c989a5d1c985d1a5bdb881d1a5b595bdd5d606a1b6060926150d786615b3b565b6013815193808552840152820152a2565b8590886001600160a01b03806150fe8487614e74565b51168c8752600a83528a872081885283528a8720549182615124575b5050505001615097565b8789156151c757506151539495506002541690878c5180968195829463a9059cbb60e01b8452600484016146d0565b03925af19081156151bd5790879291859161517c575b5061517390614f56565b8838808061511a565b809293508a8092503d83116151b6575b6151968183613fc4565b810103126151b257906151736151ac88936140b2565b90615169565b8380fd5b503d61518c565b88513d86823e3d90fd5b6151e39450809381938293505af16151dd6146a0565b50614f0f565b615173565b86546001600160a01b03168552958101958995509093019201615079565b886001600160a01b038061521a8487614e74565b51168c8952600d83528a8920818a5283528a8920549182615242575b5050505001859061504d565b8989156152e157506152719495506002541690898c5180968195829463a9059cbb60e01b8452600484016146d0565b03925af19081156152d75790879291879161529a575b5061529190614ecb565b88388080615236565b809293508a8092503d83116152d0575b6152b48183613fc4565b81010312611a6a57906152916152ca88936140b2565b90615287565b503d6152aa565b88513d88823e3d90fd5b6152fd9450809381938293505af16152f76146a0565b50614e88565b615291565b86546001600160a01b03168552958101958795509093019201615025565b50917f557365206261746368526566756e6420666f72206c6172676520706f6f6c730060609261536a85600160ff600080516020615ed2833981519152985460b01c161790614156565b601f815193808552840152820152a2565b9291909261538881615ad7565b156158bb576000918183526020906008825260406153ad600b82872001544211614e28565b60328211615881576153be84615b22565b918597858752600c8552828720908154918282106156905750906153e191614131565b968587526009855282872054808910156156565786885260098652838820928161540b828c6140bf565b11156156465781995b805b8b81108061563d575b156155d5578a89888c615432858b61401a565b929060018060a01b03938491549060031b1c1694828152600a85528181208682528552818120549485151593846155b5575b50505050615478575b505050600101615416565b8c8e52600e8c52898e20838f528c52898e20805460ff19166001179055929e928d908c908e8d15615583575060025416918b519283809263a9059cbb60e01b8252816154c8888a600484016146d0565b03925af190811561557757918c918f938f9491615517575b5061550e94926001969492615503600080516020615eb283398151915293614f56565b8d51908152a3614173565b9c90388061546d565b92809294508391503d8311615570575b6155318183613fc4565b8101031261556c57918c600080516020615eb28339815191528d6001969461550361555e61550e986140b2565b9350509294965092946154e0565b8d80fd5b503d615527565b8e8b51903d90823e3d90fd5b91600080516020615eb28339815191529150846155b08580808a9860019c9a61550e9c5af16151dd6146a0565b615503565b60ff94508252600e81528282209087835252205416158a8f8f8f90615464565b5093509396985094965097506155eb92506140bf565b10156155f657505050565b600080516020615ed2833981519152917510985d18da081c99599d5b990818dbdb5c1b195d195960521b60609261562c86615b3b565b6016815193808552840152820152a2565b50828d1061541f565b615650818b6140bf565b99615414565b835162461bcd60e51b8152600481018790526013602482015272092dcecc2d8d2c840e6e8c2e4e840d2dcc8caf606b1b6044820152606490fd5b929098918061569f838c6140bf565b111561587057985b89811080615867575b1561585a576156bf818561401a565b9054898b52600d8952868b2060039290921b1c6001600160a01b03908116808c52918952868b2054908115158061583d575b615701575b5050506001016156a7565b8a8c52600e8a52878c20838d528a52878c20805460ff19166001179055929c928a8a8d8b1561580b575050600254895163a9059cbb60e01b8152928c9250839116818f81615753888a600484016146d0565b03925af190811561580157918a918c938e916157a1575b506157989492600196949261578d600080516020615eb283398151915293614ecb565b8b51908152a3614173565b9a9038806156f6565b92809294508391503d83116157fa575b6157bb8183613fc4565b810103126157f657918a600080516020615eb28339815191528b6001969461578d6157e8615798986140b2565b93505092949650929461576a565b8b80fd5b503d6157b1565b88513d8e823e3d90fd5b8593509084615838838080600080516020615eb28339815191529660019c9a6157989c5af16152f76146a0565b61578d565b508a8c52600e8a52878c20838d528a5260ff888d205416156156f1565b5050975050505050505050565b50818b106156b0565b5061587b818a6140bf565b986156a7565b5162461bcd60e51b815260048101839052601460248201527342617463682073697a6520746f6f206c6172676560601b6044820152606490fd5b60405162461bcd60e51b815260206004820152601b60248201527a141bdbdb081b9bdd081cd95d1d1b195908199bdc881c99599d5b99602a1b6044820152606490fd5b6001600160401b038111613f785760051b60200190565b9061591f826158fe565b61592c6040519182613fc4565b828152809261593d601f19916158fe565b0190602036910137565b6000928392600354935b848110615a5c575084808410801590615a54575b615a355780849161597684846140bf565b11615a24575b505061598781615915565b906000928391845b87811080615a1b575b15615a0f576159a681615ad7565b15806159f5575b6159ba575b60010161598f565b94868110156159d7575b6159cf600191614173565b9590506159b2565b926159cf6159ec828861342c6001958a614e74565b949150506159c4565b5080600052600860205260096040600020015442106159ad565b50509450509150509190565b50818410615998565b615a2e9250614131565b823861597c565b945050915050604051615a4781613fa9565b6000815260003681379190565b508115615965565b615a6581615ad7565b1580615a8d575b615a79575b600101615951565b94615a85600191614173565b959050615a71565b508060005260086020526009604060002001544210615a6c565b6014811015615ad157600a811015615acb5760051115615ac657600190565b600290565b50600390565b50600590565b6000526008602052600160406000205460b01c16151590565b6000526008602052600260406000205460b01c16151590565b6000526008602052600460406000205460b01c16151590565b6000526008602052600860406000205460b01c16151590565b600090808252600860205260018060a01b036040832054168252601c60205260408220818352601d60205260408320549080549182811080615c3d575b615b84575b5050505050565b60001992808401908111615c2957808203615be9575b505080548015615bd557820191615bb1838361401a565b909182549160031b1b19169055558152601d60205260408120553880808080615b7d565b634e487b7160e01b85526031600452602485fd5b615bf3908361401a565b90549060031b1c615c04828461401a565b81549060031b908684831b921b19161790558552601d60205260408520553880615b9a565b634e487b7160e01b86526011600452602486fd5b5083615c49828461401a565b90549060031b1c14615b78565b929092600092818452602093600985526040908181205495868810801590615d54575b615d295786615c88858a6140bf565b11615d17575b615c9784615915565b94615ca185615915565b988184526009835284842090845b878110615cc3575050505050505050929190565b80615cd9615cd3600193856140bf565b8561401a565b838060a01b0391549060031b1c1680615cf2838d614e74565b52858852600a8752888820908852865287872054615d10828f614e74565b5201615caf565b9250615d238787614131565b92615c8e565b509550915050805190615d3b82613fa9565b8482525193615d4985613fa9565b808552368137929190565b508315615c79565b929092600092818452602093600c85526040908181205495868810801590615e29575b615d295786615d8e858a6140bf565b11615e17575b615d9d84615915565b94615da785615915565b98818452600c835284842090845b878110615dc9575050505050505050929190565b80615dd9615cd3600193856140bf565b838060a01b0391549060031b1c1680615df2838d614e74565b52858852600d8752888820908852865287872054615e10828f614e74565b5201615db5565b9250615e238787614131565b92615d94565b508315615d7f56feae1dd3f2d7e1c58d3a89e27565ac6732a48cc3a0ee34874f1749e6fcca59730886acb9671870fda5e7ea8aa500f96625102d6f2e5a2ee12d3ca0fb612850fa29d43c77f044c1f8bc6adf6676b4ce17edda35ef8ee63f154568826c0ecb3c6bf3c733c2813826d31c105dbff518b08258e9e7aeb3eb1c7c7f642d77696faf501d24b5efa61dd1cfc659205a97fb8ed868f3cb8c81922bab2b96423e5de1de2cb75d017285e8f2eb1ffcbc2466eaedb487942e395d5f1e312f09e9384b1687bea58be0079c531659141344cd1fd0a4f28419497f9722a3daafe3b4186f6b6457e0a2646970667358221220e7d8d78ed63d76918e09484d4043c70652eaf0c057e5317209d38da45c25807564736f6c63430008140033",
  "linkReferences": {},
  "deployedLinkReferences": {}
}