{
  "_format": "hh-sol-artifact-1",
  "contractName": "BitredictPool",
  "sourceName": "contracts/BitredictPool.sol",
  "abi": [
    {
      "inputs": [
        {
          "internalType": "address",
          "name": "_bitrToken",
          "type": "address"
        },
        {
          "internalType": "address",
          "name": "_feeCollector",
          "type": "address"
        },
        {
          "internalType": "address",
          "name": "_guidedOracle",
          "type": "address"
        },
        {
          "internalType": "address",
          "name": "_optimisticOracle",
          "type": "address"
        }
      ],
      "stateMutability": "nonpayable",
      "type": "constructor"
    },
    {
      "inputs": [
        {
          "internalType": "address",
          "name": "owner",
          "type": "address"
        }
      ],
      "name": "OwnableInvalidOwner",
      "type": "error"
    },
    {
      "inputs": [
        {
          "internalType": "address",
          "name": "account",
          "type": "address"
        }
      ],
      "name": "OwnableUnauthorizedAccount",
      "type": "error"
    },
    {
      "anonymous": false,
      "inputs": [
        {
          "indexed": true,
          "internalType": "uint256",
          "name": "poolId",
          "type": "uint256"
        },
        {
          "indexed": true,
          "internalType": "address",
          "name": "bettor",
          "type": "address"
        },
        {
          "indexed": false,
          "internalType": "uint256",
          "name": "amount",
          "type": "uint256"
        },
        {
          "indexed": false,
          "internalType": "bool",
          "name": "isForOutcome",
          "type": "bool"
        }
      ],
      "name": "BetPlaced",
      "type": "event"
    },
    {
      "anonymous": false,
      "inputs": [
        {
          "indexed": true,
          "internalType": "uint256",
          "name": "poolId",
          "type": "uint256"
        },
        {
          "indexed": false,
          "internalType": "enum BoostTier",
          "name": "tier",
          "type": "uint8"
        }
      ],
      "name": "BoostExpired",
      "type": "event"
    },
    {
      "anonymous": false,
      "inputs": [
        {
          "indexed": true,
          "internalType": "uint256",
          "name": "comboPoolId",
          "type": "uint256"
        },
        {
          "indexed": true,
          "internalType": "address",
          "name": "bettor",
          "type": "address"
        },
        {
          "indexed": false,
          "internalType": "uint256",
          "name": "amount",
          "type": "uint256"
        }
      ],
      "name": "ComboBetPlaced",
      "type": "event"
    },
    {
      "anonymous": false,
      "inputs": [
        {
          "indexed": true,
          "internalType": "uint256",
          "name": "comboPoolId",
          "type": "uint256"
        },
        {
          "indexed": true,
          "internalType": "address",
          "name": "creator",
          "type": "address"
        },
        {
          "indexed": false,
          "internalType": "uint256",
          "name": "conditionCount",
          "type": "uint256"
        },
        {
          "indexed": false,
          "internalType": "uint16",
          "name": "totalOdds",
          "type": "uint16"
        }
      ],
      "name": "ComboPoolCreated",
      "type": "event"
    },
    {
      "anonymous": false,
      "inputs": [
        {
          "indexed": true,
          "internalType": "uint256",
          "name": "comboPoolId",
          "type": "uint256"
        },
        {
          "indexed": false,
          "internalType": "bool",
          "name": "creatorSideWon",
          "type": "bool"
        },
        {
          "indexed": false,
          "internalType": "uint256",
          "name": "timestamp",
          "type": "uint256"
        }
      ],
      "name": "ComboPoolSettled",
      "type": "event"
    },
    {
      "anonymous": false,
      "inputs": [
        {
          "indexed": true,
          "internalType": "uint256",
          "name": "poolId",
          "type": "uint256"
        },
        {
          "indexed": true,
          "internalType": "address",
          "name": "provider",
          "type": "address"
        },
        {
          "indexed": false,
          "internalType": "uint256",
          "name": "amount",
          "type": "uint256"
        }
      ],
      "name": "LiquidityAdded",
      "type": "event"
    },
    {
      "anonymous": false,
      "inputs": [
        {
          "indexed": true,
          "internalType": "address",
          "name": "previousOwner",
          "type": "address"
        },
        {
          "indexed": true,
          "internalType": "address",
          "name": "newOwner",
          "type": "address"
        }
      ],
      "name": "OwnershipTransferred",
      "type": "event"
    },
    {
      "anonymous": false,
      "inputs": [
        {
          "indexed": true,
          "internalType": "uint256",
          "name": "poolId",
          "type": "uint256"
        },
        {
          "indexed": false,
          "internalType": "enum BoostTier",
          "name": "tier",
          "type": "uint8"
        },
        {
          "indexed": false,
          "internalType": "uint256",
          "name": "expiry",
          "type": "uint256"
        },
        {
          "indexed": false,
          "internalType": "uint256",
          "name": "fee",
          "type": "uint256"
        }
      ],
      "name": "PoolBoosted",
      "type": "event"
    },
    {
      "anonymous": false,
      "inputs": [
        {
          "indexed": true,
          "internalType": "uint256",
          "name": "poolId",
          "type": "uint256"
        },
        {
          "indexed": true,
          "internalType": "address",
          "name": "creator",
          "type": "address"
        },
        {
          "indexed": false,
          "internalType": "uint256",
          "name": "eventStartTime",
          "type": "uint256"
        },
        {
          "indexed": false,
          "internalType": "uint256",
          "name": "eventEndTime",
          "type": "uint256"
        },
        {
          "indexed": false,
          "internalType": "enum OracleType",
          "name": "oracleType",
          "type": "uint8"
        },
        {
          "indexed": false,
          "internalType": "bytes32",
          "name": "marketId",
          "type": "bytes32"
        }
      ],
      "name": "PoolCreated",
      "type": "event"
    },
    {
      "anonymous": false,
      "inputs": [
        {
          "indexed": true,
          "internalType": "uint256",
          "name": "poolId",
          "type": "uint256"
        },
        {
          "indexed": false,
          "internalType": "string",
          "name": "reason",
          "type": "string"
        }
      ],
      "name": "PoolRefunded",
      "type": "event"
    },
    {
      "anonymous": false,
      "inputs": [
        {
          "indexed": true,
          "internalType": "uint256",
          "name": "poolId",
          "type": "uint256"
        },
        {
          "indexed": false,
          "internalType": "bytes32",
          "name": "result",
          "type": "bytes32"
        },
        {
          "indexed": false,
          "internalType": "bool",
          "name": "creatorSideWon",
          "type": "bool"
        },
        {
          "indexed": false,
          "internalType": "uint256",
          "name": "timestamp",
          "type": "uint256"
        }
      ],
      "name": "PoolSettled",
      "type": "event"
    },
    {
      "anonymous": false,
      "inputs": [
        {
          "indexed": true,
          "internalType": "address",
          "name": "user",
          "type": "address"
        },
        {
          "indexed": false,
          "internalType": "enum ReputationAction",
          "name": "action",
          "type": "uint8"
        },
        {
          "indexed": false,
          "internalType": "uint256",
          "name": "value",
          "type": "uint256"
        },
        {
          "indexed": true,
          "internalType": "bytes32",
          "name": "poolId",
          "type": "bytes32"
        },
        {
          "indexed": false,
          "internalType": "uint256",
          "name": "timestamp",
          "type": "uint256"
        }
      ],
      "name": "ReputationActionOccurred",
      "type": "event"
    },
    {
      "anonymous": false,
      "inputs": [
        {
          "indexed": true,
          "internalType": "uint256",
          "name": "poolId",
          "type": "uint256"
        },
        {
          "indexed": true,
          "internalType": "address",
          "name": "user",
          "type": "address"
        },
        {
          "indexed": false,
          "internalType": "uint256",
          "name": "amount",
          "type": "uint256"
        }
      ],
      "name": "RewardClaimed",
      "type": "event"
    },
    {
      "anonymous": false,
      "inputs": [
        {
          "indexed": true,
          "internalType": "uint256",
          "name": "poolId",
          "type": "uint256"
        },
        {
          "indexed": true,
          "internalType": "address",
          "name": "user",
          "type": "address"
        }
      ],
      "name": "UserWhitelisted",
      "type": "event"
    },
    {
      "inputs": [],
      "name": "BOOST_DURATION",
      "outputs": [
        {
          "internalType": "uint256",
          "name": "",
          "type": "uint256"
        }
      ],
      "stateMutability": "view",
      "type": "function"
    },
    {
      "inputs": [],
      "name": "HIGH_ODDS_THRESHOLD",
      "outputs": [
        {
          "internalType": "uint256",
          "name": "",
          "type": "uint256"
        }
      ],
      "stateMutability": "view",
      "type": "function"
    },
    {
      "inputs": [],
      "name": "MAX_BRONZE_POOLS",
      "outputs": [
        {
          "internalType": "uint256",
          "name": "",
          "type": "uint256"
        }
      ],
      "stateMutability": "view",
      "type": "function"
    },
    {
      "inputs": [],
      "name": "MAX_GOLD_POOLS",
      "outputs": [
        {
          "internalType": "uint256",
          "name": "",
          "type": "uint256"
        }
      ],
      "stateMutability": "view",
      "type": "function"
    },
    {
      "inputs": [],
      "name": "MAX_LP_PROVIDERS",
      "outputs": [
        {
          "internalType": "uint256",
          "name": "",
          "type": "uint256"
        }
      ],
      "stateMutability": "view",
      "type": "function"
    },
    {
      "inputs": [],
      "name": "MAX_PARTICIPANTS",
      "outputs": [
        {
          "internalType": "uint256",
          "name": "",
          "type": "uint256"
        }
      ],
      "stateMutability": "view",
      "type": "function"
    },
    {
      "inputs": [],
      "name": "MAX_SILVER_POOLS",
      "outputs": [
        {
          "internalType": "uint256",
          "name": "",
          "type": "uint256"
        }
      ],
      "stateMutability": "view",
      "type": "function"
    },
    {
      "inputs": [
        {
          "internalType": "enum BoostTier",
          "name": "",
          "type": "uint8"
        }
      ],
      "name": "activeBoostCount",
      "outputs": [
        {
          "internalType": "uint256",
          "name": "",
          "type": "uint256"
        }
      ],
      "stateMutability": "view",
      "type": "function"
    },
    {
      "inputs": [
        {
          "internalType": "uint256",
          "name": "poolId",
          "type": "uint256"
        },
        {
          "internalType": "uint256",
          "name": "amount",
          "type": "uint256"
        }
      ],
      "name": "addLiquidity",
      "outputs": [],
      "stateMutability": "payable",
      "type": "function"
    },
    {
      "inputs": [
        {
          "internalType": "uint256",
          "name": "poolId",
          "type": "uint256"
        },
        {
          "internalType": "address",
          "name": "user",
          "type": "address"
        }
      ],
      "name": "addToWhitelist",
      "outputs": [],
      "stateMutability": "nonpayable",
      "type": "function"
    },
    {
      "inputs": [
        {
          "internalType": "address",
          "name": "user",
          "type": "address"
        }
      ],
      "name": "adjustedFeeRate",
      "outputs": [
        {
          "internalType": "uint256",
          "name": "",
          "type": "uint256"
        }
      ],
      "stateMutability": "view",
      "type": "function"
    },
    {
      "inputs": [],
      "name": "arbitrationTimeout",
      "outputs": [
        {
          "internalType": "uint256",
          "name": "",
          "type": "uint256"
        }
      ],
      "stateMutability": "view",
      "type": "function"
    },
    {
      "inputs": [],
      "name": "bettingGracePeriod",
      "outputs": [
        {
          "internalType": "uint256",
          "name": "",
          "type": "uint256"
        }
      ],
      "stateMutability": "view",
      "type": "function"
    },
    {
      "inputs": [
        {
          "internalType": "uint256",
          "name": "",
          "type": "uint256"
        },
        {
          "internalType": "address",
          "name": "",
          "type": "address"
        }
      ],
      "name": "bettorStakes",
      "outputs": [
        {
          "internalType": "uint256",
          "name": "",
          "type": "uint256"
        }
      ],
      "stateMutability": "view",
      "type": "function"
    },
    {
      "inputs": [],
      "name": "bitrToken",
      "outputs": [
        {
          "internalType": "contract IERC20",
          "name": "",
          "type": "address"
        }
      ],
      "stateMutability": "view",
      "type": "function"
    },
    {
      "inputs": [
        {
          "internalType": "uint256",
          "name": "",
          "type": "uint256"
        }
      ],
      "name": "boostFees",
      "outputs": [
        {
          "internalType": "uint256",
          "name": "",
          "type": "uint256"
        }
      ],
      "stateMutability": "view",
      "type": "function"
    },
    {
      "inputs": [
        {
          "internalType": "uint256",
          "name": "poolId",
          "type": "uint256"
        },
        {
          "internalType": "enum BoostTier",
          "name": "tier",
          "type": "uint8"
        }
      ],
      "name": "boostPool",
      "outputs": [],
      "stateMutability": "payable",
      "type": "function"
    },
    {
      "inputs": [
        {
          "internalType": "bytes32",
          "name": "",
          "type": "bytes32"
        },
        {
          "internalType": "uint256",
          "name": "",
          "type": "uint256"
        }
      ],
      "name": "categoryPools",
      "outputs": [
        {
          "internalType": "uint256",
          "name": "",
          "type": "uint256"
        }
      ],
      "stateMutability": "view",
      "type": "function"
    },
    {
      "inputs": [
        {
          "internalType": "uint256",
          "name": "poolId",
          "type": "uint256"
        }
      ],
      "name": "claim",
      "outputs": [],
      "stateMutability": "nonpayable",
      "type": "function"
    },
    {
      "inputs": [
        {
          "internalType": "uint256",
          "name": "comboPoolId",
          "type": "uint256"
        }
      ],
      "name": "claimCombo",
      "outputs": [],
      "stateMutability": "nonpayable",
      "type": "function"
    },
    {
      "inputs": [
        {
          "internalType": "uint256",
          "name": "",
          "type": "uint256"
        },
        {
          "internalType": "address",
          "name": "",
          "type": "address"
        }
      ],
      "name": "claimed",
      "outputs": [
        {
          "internalType": "bool",
          "name": "",
          "type": "bool"
        }
      ],
      "stateMutability": "view",
      "type": "function"
    },
    {
      "inputs": [
        {
          "internalType": "uint256[]",
          "name": "poolIds",
          "type": "uint256[]"
        }
      ],
      "name": "cleanupExpiredBoosts",
      "outputs": [],
      "stateMutability": "nonpayable",
      "type": "function"
    },
    {
      "inputs": [
        {
          "internalType": "uint256",
          "name": "",
          "type": "uint256"
        },
        {
          "internalType": "address",
          "name": "",
          "type": "address"
        }
      ],
      "name": "comboBettorStakes",
      "outputs": [
        {
          "internalType": "uint256",
          "name": "",
          "type": "uint256"
        }
      ],
      "stateMutability": "view",
      "type": "function"
    },
    {
      "inputs": [
        {
          "internalType": "uint256",
          "name": "",
          "type": "uint256"
        },
        {
          "internalType": "address",
          "name": "",
          "type": "address"
        }
      ],
      "name": "comboClaimed",
      "outputs": [
        {
          "internalType": "bool",
          "name": "",
          "type": "bool"
        }
      ],
      "stateMutability": "view",
      "type": "function"
    },
    {
      "inputs": [
        {
          "internalType": "uint256",
          "name": "",
          "type": "uint256"
        },
        {
          "internalType": "address",
          "name": "",
          "type": "address"
        }
      ],
      "name": "comboLPStakes",
      "outputs": [
        {
          "internalType": "uint256",
          "name": "",
          "type": "uint256"
        }
      ],
      "stateMutability": "view",
      "type": "function"
    },
    {
      "inputs": [
        {
          "internalType": "uint256",
          "name": "",
          "type": "uint256"
        },
        {
          "internalType": "uint256",
          "name": "",
          "type": "uint256"
        }
      ],
      "name": "comboPoolBettors",
      "outputs": [
        {
          "internalType": "address",
          "name": "",
          "type": "address"
        }
      ],
      "stateMutability": "view",
      "type": "function"
    },
    {
      "inputs": [],
      "name": "comboPoolCount",
      "outputs": [
        {
          "internalType": "uint256",
          "name": "",
          "type": "uint256"
        }
      ],
      "stateMutability": "view",
      "type": "function"
    },
    {
      "inputs": [
        {
          "internalType": "uint256",
          "name": "",
          "type": "uint256"
        },
        {
          "internalType": "uint256",
          "name": "",
          "type": "uint256"
        }
      ],
      "name": "comboPoolLPs",
      "outputs": [
        {
          "internalType": "address",
          "name": "",
          "type": "address"
        }
      ],
      "stateMutability": "view",
      "type": "function"
    },
    {
      "inputs": [
        {
          "internalType": "uint256",
          "name": "",
          "type": "uint256"
        }
      ],
      "name": "comboPools",
      "outputs": [
        {
          "internalType": "address",
          "name": "creator",
          "type": "address"
        },
        {
          "internalType": "uint256",
          "name": "creatorStake",
          "type": "uint256"
        },
        {
          "internalType": "uint256",
          "name": "totalCreatorSideStake",
          "type": "uint256"
        },
        {
          "internalType": "uint256",
          "name": "maxBettorStake",
          "type": "uint256"
        },
        {
          "internalType": "uint256",
          "name": "totalBettorStake",
          "type": "uint256"
        },
        {
          "internalType": "uint16",
          "name": "totalOdds",
          "type": "uint16"
        },
        {
          "internalType": "bool",
          "name": "settled",
          "type": "bool"
        },
        {
          "internalType": "bool",
          "name": "creatorSideWon",
          "type": "bool"
        },
        {
          "internalType": "bool",
          "name": "usesBitr",
          "type": "bool"
        },
        {
          "internalType": "uint256",
          "name": "eventStartTime",
          "type": "uint256"
        },
        {
          "internalType": "uint256",
          "name": "eventEndTime",
          "type": "uint256"
        },
        {
          "internalType": "uint256",
          "name": "bettingEndTime",
          "type": "uint256"
        },
        {
          "internalType": "uint256",
          "name": "resultTimestamp",
          "type": "uint256"
        },
        {
          "internalType": "string",
          "name": "category",
          "type": "string"
        },
        {
          "internalType": "uint256",
          "name": "maxBetPerUser",
          "type": "uint256"
        }
      ],
      "stateMutability": "view",
      "type": "function"
    },
    {
      "inputs": [
        {
          "components": [
            {
              "internalType": "bytes32",
              "name": "marketId",
              "type": "bytes32"
            },
            {
              "internalType": "bytes32",
              "name": "expectedOutcome",
              "type": "bytes32"
            },
            {
              "internalType": "bool",
              "name": "resolved",
              "type": "bool"
            },
            {
              "internalType": "bytes32",
              "name": "actualOutcome",
              "type": "bytes32"
            }
          ],
          "internalType": "struct BitredictPool.OutcomeCondition[]",
          "name": "conditions",
          "type": "tuple[]"
        },
        {
          "internalType": "uint16",
          "name": "combinedOdds",
          "type": "uint16"
        },
        {
          "internalType": "uint256",
          "name": "creatorStake",
          "type": "uint256"
        },
        {
          "internalType": "uint256",
          "name": "earliestEventStart",
          "type": "uint256"
        },
        {
          "internalType": "uint256",
          "name": "latestEventEnd",
          "type": "uint256"
        },
        {
          "internalType": "string",
          "name": "category",
          "type": "string"
        },
        {
          "internalType": "uint256",
          "name": "maxBetPerUser",
          "type": "uint256"
        },
        {
          "internalType": "bool",
          "name": "useBitr",
          "type": "bool"
        }
      ],
      "name": "createComboPool",
      "outputs": [],
      "stateMutability": "payable",
      "type": "function"
    },
    {
      "inputs": [
        {
          "internalType": "bytes32",
          "name": "_predictedOutcome",
          "type": "bytes32"
        },
        {
          "internalType": "uint256",
          "name": "_odds",
          "type": "uint256"
        },
        {
          "internalType": "uint256",
          "name": "_creatorStake",
          "type": "uint256"
        },
        {
          "internalType": "uint256",
          "name": "_eventStartTime",
          "type": "uint256"
        },
        {
          "internalType": "uint256",
          "name": "_eventEndTime",
          "type": "uint256"
        },
        {
          "internalType": "string",
          "name": "_league",
          "type": "string"
        },
        {
          "internalType": "string",
          "name": "_category",
          "type": "string"
        },
        {
          "internalType": "string",
          "name": "_region",
          "type": "string"
        },
        {
          "internalType": "bool",
          "name": "_isPrivate",
          "type": "bool"
        },
        {
          "internalType": "uint256",
          "name": "_maxBetPerUser",
          "type": "uint256"
        },
        {
          "internalType": "bool",
          "name": "_useBitr",
          "type": "bool"
        },
        {
          "internalType": "enum OracleType",
          "name": "_oracleType",
          "type": "uint8"
        },
        {
          "internalType": "bytes32",
          "name": "_marketId",
          "type": "bytes32"
        }
      ],
      "name": "createPool",
      "outputs": [],
      "stateMutability": "payable",
      "type": "function"
    },
    {
      "inputs": [],
      "name": "creationFee",
      "outputs": [
        {
          "internalType": "uint256",
          "name": "",
          "type": "uint256"
        }
      ],
      "stateMutability": "view",
      "type": "function"
    },
    {
      "inputs": [
        {
          "internalType": "address",
          "name": "",
          "type": "address"
        },
        {
          "internalType": "uint256",
          "name": "",
          "type": "uint256"
        }
      ],
      "name": "creatorActivePools",
      "outputs": [
        {
          "internalType": "uint256",
          "name": "",
          "type": "uint256"
        }
      ],
      "stateMutability": "view",
      "type": "function"
    },
    {
      "inputs": [
        {
          "internalType": "address",
          "name": "stakingContract",
          "type": "address"
        }
      ],
      "name": "distributeFees",
      "outputs": [],
      "stateMutability": "nonpayable",
      "type": "function"
    },
    {
      "inputs": [],
      "name": "feeCollector",
      "outputs": [
        {
          "internalType": "address",
          "name": "",
          "type": "address"
        }
      ],
      "stateMutability": "view",
      "type": "function"
    },
    {
      "inputs": [
        {
          "internalType": "address",
          "name": "creator",
          "type": "address"
        },
        {
          "internalType": "uint256",
          "name": "limit",
          "type": "uint256"
        },
        {
          "internalType": "uint256",
          "name": "offset",
          "type": "uint256"
        }
      ],
      "name": "getActivePoolsByCreator",
      "outputs": [
        {
          "internalType": "uint256[]",
          "name": "poolIds",
          "type": "uint256[]"
        }
      ],
      "stateMutability": "view",
      "type": "function"
    },
    {
      "inputs": [
        {
          "internalType": "bytes32",
          "name": "categoryHash",
          "type": "bytes32"
        },
        {
          "internalType": "uint256",
          "name": "limit",
          "type": "uint256"
        },
        {
          "internalType": "uint256",
          "name": "offset",
          "type": "uint256"
        }
      ],
      "name": "getPoolsByCategory",
      "outputs": [
        {
          "internalType": "uint256[]",
          "name": "poolIds",
          "type": "uint256[]"
        }
      ],
      "stateMutability": "view",
      "type": "function"
    },
    {
      "inputs": [],
      "name": "guidedOracle",
      "outputs": [
        {
          "internalType": "address",
          "name": "",
          "type": "address"
        }
      ],
      "stateMutability": "view",
      "type": "function"
    },
    {
      "inputs": [
        {
          "internalType": "uint256",
          "name": "",
          "type": "uint256"
        },
        {
          "internalType": "address",
          "name": "",
          "type": "address"
        }
      ],
      "name": "lpStakes",
      "outputs": [
        {
          "internalType": "uint256",
          "name": "",
          "type": "uint256"
        }
      ],
      "stateMutability": "view",
      "type": "function"
    },
    {
      "inputs": [],
      "name": "minBetAmount",
      "outputs": [
        {
          "internalType": "uint256",
          "name": "",
          "type": "uint256"
        }
      ],
      "stateMutability": "view",
      "type": "function"
    },
    {
      "inputs": [],
      "name": "minPoolStake",
      "outputs": [
        {
          "internalType": "uint256",
          "name": "",
          "type": "uint256"
        }
      ],
      "stateMutability": "view",
      "type": "function"
    },
    {
      "inputs": [],
      "name": "optimisticOracle",
      "outputs": [
        {
          "internalType": "address",
          "name": "",
          "type": "address"
        }
      ],
      "stateMutability": "view",
      "type": "function"
    },
    {
      "inputs": [],
      "name": "owner",
      "outputs": [
        {
          "internalType": "address",
          "name": "",
          "type": "address"
        }
      ],
      "stateMutability": "view",
      "type": "function"
    },
    {
      "inputs": [
        {
          "internalType": "uint256",
          "name": "poolId",
          "type": "uint256"
        },
        {
          "internalType": "uint256",
          "name": "amount",
          "type": "uint256"
        }
      ],
      "name": "placeBet",
      "outputs": [],
      "stateMutability": "payable",
      "type": "function"
    },
    {
      "inputs": [
        {
          "internalType": "uint256",
          "name": "comboPoolId",
          "type": "uint256"
        },
        {
          "internalType": "uint256",
          "name": "amount",
          "type": "uint256"
        }
      ],
      "name": "placeComboBet",
      "outputs": [],
      "stateMutability": "payable",
      "type": "function"
    },
    {
      "inputs": [],
      "name": "platformFee",
      "outputs": [
        {
          "internalType": "uint256",
          "name": "",
          "type": "uint256"
        }
      ],
      "stateMutability": "view",
      "type": "function"
    },
    {
      "inputs": [
        {
          "internalType": "uint256",
          "name": "",
          "type": "uint256"
        },
        {
          "internalType": "uint256",
          "name": "",
          "type": "uint256"
        }
      ],
      "name": "poolBettors",
      "outputs": [
        {
          "internalType": "address",
          "name": "",
          "type": "address"
        }
      ],
      "stateMutability": "view",
      "type": "function"
    },
    {
      "inputs": [
        {
          "internalType": "uint256",
          "name": "",
          "type": "uint256"
        }
      ],
      "name": "poolBoostExpiry",
      "outputs": [
        {
          "internalType": "uint256",
          "name": "",
          "type": "uint256"
        }
      ],
      "stateMutability": "view",
      "type": "function"
    },
    {
      "inputs": [
        {
          "internalType": "uint256",
          "name": "",
          "type": "uint256"
        }
      ],
      "name": "poolBoostTier",
      "outputs": [
        {
          "internalType": "enum BoostTier",
          "name": "",
          "type": "uint8"
        }
      ],
      "stateMutability": "view",
      "type": "function"
    },
    {
      "inputs": [],
      "name": "poolCount",
      "outputs": [
        {
          "internalType": "uint256",
          "name": "",
          "type": "uint256"
        }
      ],
      "stateMutability": "view",
      "type": "function"
    },
    {
      "inputs": [
        {
          "internalType": "uint256",
          "name": "",
          "type": "uint256"
        }
      ],
      "name": "poolIdToCreatorIndex",
      "outputs": [
        {
          "internalType": "uint256",
          "name": "",
          "type": "uint256"
        }
      ],
      "stateMutability": "view",
      "type": "function"
    },
    {
      "inputs": [
        {
          "internalType": "uint256",
          "name": "",
          "type": "uint256"
        },
        {
          "internalType": "uint256",
          "name": "",
          "type": "uint256"
        }
      ],
      "name": "poolLPs",
      "outputs": [
        {
          "internalType": "address",
          "name": "",
          "type": "address"
        }
      ],
      "stateMutability": "view",
      "type": "function"
    },
    {
      "inputs": [
        {
          "internalType": "uint256",
          "name": "",
          "type": "uint256"
        },
        {
          "internalType": "address",
          "name": "",
          "type": "address"
        }
      ],
      "name": "poolWhitelist",
      "outputs": [
        {
          "internalType": "bool",
          "name": "",
          "type": "bool"
        }
      ],
      "stateMutability": "view",
      "type": "function"
    },
    {
      "inputs": [
        {
          "internalType": "uint256",
          "name": "",
          "type": "uint256"
        }
      ],
      "name": "pools",
      "outputs": [
        {
          "internalType": "address",
          "name": "creator",
          "type": "address"
        },
        {
          "internalType": "uint16",
          "name": "odds",
          "type": "uint16"
        },
        {
          "internalType": "bool",
          "name": "settled",
          "type": "bool"
        },
        {
          "internalType": "bool",
          "name": "creatorSideWon",
          "type": "bool"
        },
        {
          "internalType": "bool",
          "name": "isPrivate",
          "type": "bool"
        },
        {
          "internalType": "bool",
          "name": "usesBitr",
          "type": "bool"
        },
        {
          "internalType": "bool",
          "name": "filledAbove60",
          "type": "bool"
        },
        {
          "internalType": "enum OracleType",
          "name": "oracleType",
          "type": "uint8"
        },
        {
          "internalType": "uint256",
          "name": "creatorStake",
          "type": "uint256"
        },
        {
          "internalType": "uint256",
          "name": "totalCreatorSideStake",
          "type": "uint256"
        },
        {
          "internalType": "uint256",
          "name": "maxBettorStake",
          "type": "uint256"
        },
        {
          "internalType": "uint256",
          "name": "totalBettorStake",
          "type": "uint256"
        },
        {
          "internalType": "bytes32",
          "name": "predictedOutcome",
          "type": "bytes32"
        },
        {
          "internalType": "bytes32",
          "name": "result",
          "type": "bytes32"
        },
        {
          "internalType": "bytes32",
          "name": "marketId",
          "type": "bytes32"
        },
        {
          "internalType": "uint256",
          "name": "eventStartTime",
          "type": "uint256"
        },
        {
          "internalType": "uint256",
          "name": "eventEndTime",
          "type": "uint256"
        },
        {
          "internalType": "uint256",
          "name": "bettingEndTime",
          "type": "uint256"
        },
        {
          "internalType": "uint256",
          "name": "resultTimestamp",
          "type": "uint256"
        },
        {
          "internalType": "uint256",
          "name": "arbitrationDeadline",
          "type": "uint256"
        },
        {
          "internalType": "string",
          "name": "league",
          "type": "string"
        },
        {
          "internalType": "string",
          "name": "category",
          "type": "string"
        },
        {
          "internalType": "string",
          "name": "region",
          "type": "string"
        },
        {
          "internalType": "uint256",
          "name": "maxBetPerUser",
          "type": "uint256"
        }
      ],
      "stateMutability": "view",
      "type": "function"
    },
    {
      "inputs": [
        {
          "internalType": "uint256",
          "name": "poolId",
          "type": "uint256"
        }
      ],
      "name": "refundPool",
      "outputs": [],
      "stateMutability": "nonpayable",
      "type": "function"
    },
    {
      "inputs": [
        {
          "internalType": "uint256",
          "name": "poolId",
          "type": "uint256"
        },
        {
          "internalType": "address",
          "name": "user",
          "type": "address"
        }
      ],
      "name": "removeFromWhitelist",
      "outputs": [],
      "stateMutability": "nonpayable",
      "type": "function"
    },
    {
      "inputs": [],
      "name": "renounceOwnership",
      "outputs": [],
      "stateMutability": "nonpayable",
      "type": "function"
    },
    {
      "inputs": [
        {
          "internalType": "uint256",
          "name": "comboPoolId",
          "type": "uint256"
        },
        {
          "internalType": "uint256",
          "name": "conditionIndex",
          "type": "uint256"
        },
        {
          "internalType": "bytes32",
          "name": "actualOutcome",
          "type": "bytes32"
        }
      ],
      "name": "resolveComboCondition",
      "outputs": [],
      "stateMutability": "nonpayable",
      "type": "function"
    },
    {
      "inputs": [
        {
          "internalType": "uint256",
          "name": "poolId",
          "type": "uint256"
        },
        {
          "internalType": "bytes32",
          "name": "outcome",
          "type": "bytes32"
        }
      ],
      "name": "settlePool",
      "outputs": [],
      "stateMutability": "nonpayable",
      "type": "function"
    },
    {
      "inputs": [
        {
          "internalType": "uint256",
          "name": "poolId",
          "type": "uint256"
        }
      ],
      "name": "settlePoolAutomatically",
      "outputs": [],
      "stateMutability": "nonpayable",
      "type": "function"
    },
    {
      "inputs": [],
      "name": "totalCollectedBITR",
      "outputs": [
        {
          "internalType": "uint256",
          "name": "",
          "type": "uint256"
        }
      ],
      "stateMutability": "view",
      "type": "function"
    },
    {
      "inputs": [],
      "name": "totalCollectedSTT",
      "outputs": [
        {
          "internalType": "uint256",
          "name": "",
          "type": "uint256"
        }
      ],
      "stateMutability": "view",
      "type": "function"
    },
    {
      "inputs": [
        {
          "internalType": "address",
          "name": "newOwner",
          "type": "address"
        }
      ],
      "name": "transferOwnership",
      "outputs": [],
      "stateMutability": "nonpayable",
      "type": "function"
    },
    {
      "inputs": [
        {
          "internalType": "uint256",
          "name": "poolId",
          "type": "uint256"
        }
      ],
      "name": "withdrawCreatorStake",
      "outputs": [],
      "stateMutability": "nonpayable",
      "type": "function"
    },
    {
      "inputs": [
        {
          "internalType": "uint256",
          "name": "poolId",
          "type": "uint256"
        }
      ],
      "name": "withdrawLiquidity",
      "outputs": [],
      "stateMutability": "nonpayable",
      "type": "function"
    }
  ],
  "bytecode": "0x60e034620001ce57601f62005e7f38819003918201601f19168301926001600160401b0392909183851183861017620001d3578160809284926040978852833981010312620001ce576200005381620001e9565b91602062000063818401620001e9565b916200007f606062000077888701620001e9565b9501620001e9565b943315620001b65760008054336001600160a01b031980831682178455956001600160a01b0395939290919086167f8be0079c531659141344cd1fd0a4f28419497f9722a3daafe3b4186f6b6457e08480a389516080810181811085821117620001a2578b52828152671bc16d674ec80000828201526729a2241af62c00008b820152674563918244f400006060820152915b600481106200018c57505050501690600154161760015560805260a05260c05251615c809081620001ff8239608051818181610e5f0152611f20015260a051818181610bb301528181610ea401528181612ea40152613f65015260c051818181610e2101528181612fcd015281816130e401526140e20152f35b8251841660068201559181019160010162000112565b634e487b7160e01b84526041600452602484fd5b8651631e4fbdf760e01b815260006004820152602490fd5b600080fd5b634e487b7160e01b600052604160045260246000fd5b51906001600160a01b0382168203620001ce5756fe61010080604052600436101561001457600080fd5b600090813560e01c90816301b708c214614b8d575080630a861f2a1461474f5780630e8a01bc146142df57806310d03252146141ea578063120aa877146141a1578063152cdda914613edd5780631787010f14613c175780631f117f9b1461311357806322302922146130ce578063237e23be14612e3857806326232a2e146106cb57806329402fea14612e125780632d78546114612d79578063379607f514612b35578063394d997614610b4557806339cb2c9114612b085780633df2afa614612ade5780633e8670ff14612aac578063480d154114612a785780634afe62b51461267f578063598f2d84146124495780635e4de66514612417578063657c183f146123fb5780636b657612146123b2578063715018a6146123585780638b4ed2351461232e5780638da5cb5b146123075780638f63f748146122e95780639413f25c14611efa57806396077d6814611ed65780639cd441da14611b555780639fd482be14611b09578063a0b310df14611ac2578063a0f8b49114611a85578063a12a41cf14611a3d578063a695ee3814611a11578063a7a891bf146119df578063a82457831461188d578063aac137d61461186f578063ab78cc1514611853578063ac4afa3814611678578063aedc598114611631578063bc19c6dd14610f1a578063c26e797e14610ed3578063c341261014610e8e578063c415b95c14610e49578063c4baad8114610b91578063d0f808be14610b4a578063d96d09aa146106cb578063d9c6176c14610b45578063dce0b4e4146106a3578063e0de55d014610844578063e82ac07614610811578063ebbe74d7146106a8578063ed517547146107c9578063f05e2525146107ab578063f23b420f14610760578063f2fde38b146106d0578063f3baf070146106cb578063f525cb68146106ad578063f56926b2146106a8578063f8bf195f146106a8578063fa968eea146106a3578063fea3e613146106315763ffd230c9146102ed57600080fd5b604036600319011261062e576004356024803590600482101561062a576103176002548410615121565b81156105f1578284526017602090815260408520546001600160a01b031633036105b65783855260178152600860408620015442101561057c576000600184036105295760055b61036785614ee4565b5410156104f457848652600b825260ff60408720541660048110156104e157801515806104cd575b6104b2575b5061049f5782600601549182340361045c576103b283600454614f87565b600455848652600b82526040862060ff1981541660ff86161790556201518042019081421161044a5750917fefc14802c8cf8d64bd7c3cfffe96632ef815d3f9d4a6dcf5033b415a166b53b69391606093868852600c8252604088205561041883614ee4565b6104228154615112565b9055858752600c815260408720549061043e6040518095614e7a565b8301526040820152a280f35b634e487b7160e01b8752601160045286fd5b90601a6064926040519262461bcd60e51b845260048401528201527f496e636f727265637420626f6f73742066656520616d6f756e740000000000006044820152fd5b50634e487b7160e01b8452602160045283fd5b6104bb90614ee4565b6104c58154615ba0565b905538610394565b50858752600c83526040872054421061038f565b634e487b7160e01b875260216004528387fd5b50600f6064926040519262461bcd60e51b845260048401528201526e109bdbdcdd081d1a595c88199d5b1b608a1b6044820152fd5b6002840361053857600561035e565b5060006003840361054a57600561035e565b50600c6064926040519262461bcd60e51b845260048401528201526b24b73b30b634b2103a34b2b960a11b6044820152fd5b60156064926040519262461bcd60e51b8452600484015282015274115d995b9d08185b1c9958591e481cdd185c9d1959605a1b6044820152fd5b60166064926040519262461bcd60e51b845260048401528201527513db9b1e4818dc99585d1bdc8818d85b88189bdbdcdd60521b6044820152fd5b60649060126040519162461bcd60e51b8352602060048401528201527124b73b30b634b2103137b7b9ba103a34b2b960711b6044820152fd5b8380fd5b80fd5b503461062e57604036600319011261062e5760043561064e614d32565b9061065c6002548210615121565b808352601760205260408320546001600160a01b0391906106809083163314615a6d565b8352600d602052604083209116600052602052604060002060ff19815416905580f35b614ec1565b614efd565b503461062e578060031936011261062e576020600254604051908152f35b614dc0565b503461062e57602036600319011261062e576106ea614d48565b6106f2614f19565b6001600160a01b0390811690811561074757600054826bffffffffffffffffffffffff60a01b821617600055167f8be0079c531659141344cd1fd0a4f28419497f9722a3daafe3b4186f6b6457e0600080a380f35b604051631e4fbdf760e01b815260048101849052602490fd5b503461062e5761076f36614e36565b9190815260146020526040812090815483101561062e5760206107928484614e4c565b905460405160039290921b1c6001600160a01b03168152f35b503461062e578060031936011261062e576020600354604051908152f35b503461062e57604036600319011261062e57602435906004358152600e6020526040812090815483101561062e5760206108038484614e4c565b90546040519160031b1c8152f35b503461062e57602036600319011261062e5760043590600482101561062e57602061083b83614ee4565b54604051908152f35b503461062e57602080600319360112610b41576004356108676003548210615bc9565b8083526011825260408320916005830161088760ff825460101c1661573c565b82855260168252604085203360005282526108aa60ff6040600020541615615776565b82855260168252604085203360005282526040600020600160ff198254161790558493815460ff8160181c16600014610aa157508386526015835260408620336000528352604060002054908115908115610a43575b5050505b8361090d578480f35b54811c60ff1615610a035760015460405163a9059cbb60e01b8152336004820152602481018590529190819083906001600160a01b0316818881604481015b03925af19182156109f857859261099a575b506109897f24b5efa61dd1cfc659205a97fb8ed868f3cb8c81922bab2b96423e5de1de2cb7926157f4565b6040519384523393a3388080808480f35b91508082813d83116109f1575b6109b18183614c23565b810103126109ed576109896109e67f24b5efa61dd1cfc659205a97fb8ed868f3cb8c81922bab2b96423e5de1de2cb79361502a565b925061095e565b8480fd5b503d6109a7565b6040513d87823e3d90fd5b7f24b5efa61dd1cfc659205a97fb8ed868f3cb8c81922bab2b96423e5de1de2cb790610a3e8580808088335af1610a3861555e565b506157b4565b610989565b9091929550612710918284029084820484141715610a8d57816004610a75610a7d936002610a8498979601549061507a565b9101546154bc565b0490614f87565b92388080610900565b634e487b7160e01b88526011600452602488fd5b9050838652601383526040862033600052835260406000205480610ac7575b5050610904565b909450610b05612710610afd610aee6064610ae661ffff8b16876154bc565b04948561509a565b610af733615835565b906154bc565b04809261509a565b948115610ac057831c60ff1615610b2d57610b2290600554614f87565b6005555b3880610ac0565b610b3990600454614f87565b600455610b26565b5080fd5b614e18565b503461062e57604036600319011261062e576040610b66614d32565b9160043581526013602052209060018060a01b03166000526020526020604060002054604051908152f35b503461062e57606036600319011261062e5760043560243560018060a01b03807f0000000000000000000000000000000000000000000000000000000000000000163314908115610e1d575b5015610deb57600390610bf282548410615bc9565b82845260116020526040842091600583019160ff91610c1783855460101c16156154cf565b600c8501918254811015610da657610c2f8184615bad565b50908460028093015416610d6157610c6182610c4b8387615bad565b5001916001928360ff1982541617905585615bad565b5083604435910155809389958a938254945b858110610cfd575b5050505050505080610cef575b610c90578480f35b7f229d1ce99036a89ca341013e342e45bf92c5f3802ab63e6c2e9c718e0ac39882928262010000604094549315159363ff0000008560181b169063ffff00001916171790556009429101558151908152426020820152a2388080808480f35b506007830154421015610c88565b8282610d098387615bad565b5001541615610d4c5786610d1d8286615bad565b50015485610d2b8387615bad565b50015403610d42575b610d3d90615112565b610c73565b9397508793610d34565b50505050505050508438808080808080610c7b565b60405162461bcd60e51b815260206004820152601a60248201527f436f6e646974696f6e20616c7265616479207265736f6c7665640000000000006044820152606490fd5b60405162461bcd60e51b815260206004820152601760248201527f496e76616c696420636f6e646974696f6e20696e6465780000000000000000006044820152606490fd5b60405162461bcd60e51b815260206004820152600a6024820152694e6f74206f7261636c6560b01b6044820152606490fd5b90507f000000000000000000000000000000000000000000000000000000000000000016331438610bdd565b503461062e578060031936011261062e576040517f00000000000000000000000000000000000000000000000000000000000000006001600160a01b03168152602090f35b503461062e578060031936011261062e576040517f00000000000000000000000000000000000000000000000000000000000000006001600160a01b03168152602090f35b503461062e57604036600319011261062e576040610eef614d32565b916004358152601b602052209060018060a01b03166000526020526020604060002054604051908152f35b5061010036600319011261062e576004356001600160401b038111610b415736602382011215610b4157806004013590610f5382614eaa565b91610f616040519384614c23565b8083526024602084019160071b830101913683116109ed57602401905b8282106115b3575050506024359161ffff8316830361062e5760a4356001600160401b038111610b4157610fb6903690600401614d79565b9160e435151560e435036115ae578051600281101590816115a2575b501561155d57606461ffff8516118061154d575b15611510576110026801158e460913d000006044351015614f45565b603c420180421161142f5761101a9060643511614faa565b60643560843511156114d557604435670de0b6b3a764000001670de0b6b3a7640000116114435760e435156114a1576001546040516323b872dd60e01b815233600482015230602482015260448035670de0b6b3a764000001908201529060209082906001600160a01b03168186816064810103925af18015611496578390611457575b6110a89150615037565b600554670de0b6b3a7640000810180911161142f576005555b61ffff60648582160481166000190111611443576110f061ffff6000198160648189160416011660443561507a565b92606435603b1981011161142f57600354835260116020526040832093336bffffffffffffffffffffffff60a01b86541617855560443560018601556044356002860155600385015582600485015560058401805464ff0000000060e435151560201b169061ffff88169064ffffffffff19161717905560643560068501556084356007850155603b196064350160088501558260098501558051906001600160401b03821161141b5781906111a9600a870154614bb2565b601f81116113ca575b50602090601f831160011461135857859261134d575b50508160011b916000199060031b1c191617600a8401559291925b60c435600b850155600c829401935b815181101561129157611205818361558e565b518554600160401b81101561127d578060016112249201885587615bad565b91909161126957906003606083611264959451845560208101516001850155600284016040820151151560ff801983541691161790550151910155615112565b6111f2565b634e487b7160e01b85526004859052602485fd5b634e487b7160e01b85526041600452602485fd5b506113479192600354845260146020526112ae33604086206150b3565b60035484526015602052604084203360005260205260443560406000205561ffff600354925191604051928352166020820152817f9fd48ac66783aaba800ed3f46853bc3ada5277bd5db71378441d817c74bafa8c60403393a380604051600080516020615c0b83398151915233918061133f42604435836040909392919360608101946000825260208201520152565b0390a3615112565b60035580f35b0151905038806111c8565b9250600a86018552602085209085935b601f19841685106113af576001945083601f19811610611396575b505050811b01600a8401559291926111e3565b015160001960f88460031b161c19169055388080611383565b81810151835560209485019460019093019290910190611368565b909150600a8601855260208520601f840160051c810160208510611414575b90849392915b601f830160051c820181106114055750506111b2565b600081558594506001016113ef565b50806113e9565b634e487b7160e01b84526041600452602484fd5b634e487b7160e01b83526011600452602483fd5b634e487b7160e01b82526011600452602482fd5b506020813d60201161148e575b8161147160209383614c23565b8101031261148a576114856110a89161502a565b61109e565b8280fd5b3d9150611464565b6040513d85823e3d90fd5b6114b8604435670de0b6b3a7640000013414614fe7565b600454670de0b6b3a7640000810180911161142f576004556110c1565b60405162461bcd60e51b8152602060048201526013602482015272496e76616c6964206576656e742074696d657360681b6044820152606490fd5b60405162461bcd60e51b8152602060048201526015602482015274496e76616c696420636f6d62696e6564206f64647360581b6044820152606490fd5b5061c35061ffff85161115610fe6565b60405162461bcd60e51b815260206004820152601760248201527f322d3420636f6e646974696f6e732072657175697265640000000000000000006044820152606490fd5b60049150111538610fd2565b600080fd5b608090818336031261162d576040519182018281106001600160401b0382111761161757604052823582526020830135602083015260408301359081151582036115ae57826020926040608095015260608086013590820152815201910190610f7e565b634e487b7160e01b600052604160045260246000fd5b8580fd5b503461062e57604036600319011261062e57604061164d614d32565b9160043581526019602052209060018060a01b03166000526020526020604060002054604051908152f35b503461062e57602036600319011261062e57600435815260176020526040902080805460018201546002830154608052600383015460e0526004830154600584015460068501546007860154600887015490600988015492600a89015494600b8a015496600c8b015498600d8c016116ef90614c44565b9a6116fc600e8e01614c44565b9c600f0161170990614c44565b9d6010015460a0526040518060c052600160a01b60019003821690528060a01c61ffff1660c0516020015260ff808260b01c16151560c05160400152808260b81c16151560c05160600152808260c01c16151560c05160800152808260c81c16151560c05160a00152808260d01c16151560c05160c0015260c05160e0019160d81c169061179691614e9d565b60c051610100015260805160c051610120015260e05160c051610140015260c051610160015260c051610180015260c0516101a0015260c0516101c0015260c0516101e0015260c051610200015260c051610220015260c051610240015260c05161026001526103008060c051610280015260c0510161181591614d0d565b60c051808203906102a0015261182a91614d0d565b60c051808203906102c0015261183f91614d0d565b60a05160c0516102e0015260c05180910390f35b503461062e578060031936011261062e576020604051603c8152f35b503461062e578060031936011261062e576020600454604051908152f35b503461062e57602080600319360112610b4157600435906001600160401b039081831161062a573660238401121561062a57826004013591821161062a576024926005368585831b8401011161162d57855b8481106118ea578680f35b8581831b840101356002548110156119d557808852600b80865260ff60408a20541690600c9081885260408b205460048410156119c257928b92899261194797969583151590816119b7575b5061194c575b505050505050615112565b6118df565b857f3b39599a0e569d32e7c39669f521b7704a4abb9e4ec2a4d9826f205270f6c3029552835260408d2060ff198154169055848d5282528b604081205561199281614ee4565b61199c8154615ba0565b90556119ab6040518092614e7a565ba238888682808061193c565b905042101538611936565b634e487b7160e01b8c5260216004528a8cfd5b5061194790615112565b503461062e576119ee36614e36565b9190815260126020526040812090815483101561062e5760206107928484614e4c565b503461062e57602036600319011261062e576020611a35611a30614d48565b615835565b604051908152f35b503461062e57604036600319011261062e57611a57614d48565b6001600160a01b03168152600f602052604081208054602435929083101561062e5760206108038484614e4c565b503461062e57606036600319011261062e57611abe611ab2611aa5614d48565b60443590602435906159f1565b60405191829182614ddd565b0390f35b503461062e57604036600319011261062e576040611ade614d32565b9160043581526015602052209060018060a01b03166000526020526020604060002054604051908152f35b503461062e57604036600319011261062e576040611b25614d32565b916004358152600d602052209060018060a01b0316600052602052602060ff604060002054166040519015158152f35b50611b5f36614e36565b90611b6d6002548210615121565b80835260206017815260408420805490611b8d60ff8360b01c161561529f565b670de0b6b3a76400008510611e91576969e10de76676d08000008511611e5657611bbc600a820154421061531a565b60028101918254861910611e1857848752601b84526040872033600052845260406000205415611dc8575b60c01c60ff16611da1575b838652601b83526040862033600052835260406000205415611d88575b838652601b8352604086203360005283526040600020611c30868254614f87565b9055611c3d858354614f87565b8092556001810154916004820154838115918215611d7e575b5050611d76575b50805491606461ffff8460a01c16611c7682821161535d565b04906000198201918211610a8d57611c9460ff94939260039261507a565b91015560c81c1615611d56576001546040516323b872dd60e01b815233600482015230602482015260448101859052919081908390606490829089906001600160a01b03165af19182156109f8578592611d0e575b50611d02600080516020615c2b83398151915292615037565b6040519384523393a380f35b91508082813d8311611d4f575b611d258183614c23565b810103126109ed57611d02611d48600080516020615c2b8339815191529361502a565b9250611ce9565b503d611d1b565b600080516020615c2b83398151915290611d71843414614fe7565b611d02565b915038611c5d565b1190508338611c56565b838652601a8352611d9c33604088206150b3565b611c0f565b838652600d835260408620336000528352611dc360ff60406000205416615425565b611bf2565b848752601a84526064604088205410611be75760405162461bcd60e51b8152600481018590526015602482015274546f6f206d616e79204c502070726f76696465727360581b6044820152606490fd5b60405162461bcd60e51b815260048101859052601660248201527543726561746f72207374616b65206f766572666c6f7760501b6044820152606490fd5b60405162461bcd60e51b81526004810184905260136024820152724c697175696469747920746f6f206c6172676560681b6044820152606490fd5b60405162461bcd60e51b815260048101849052601760248201527f4c69717569646974792062656c6f77206d696e696d756d0000000000000000006044820152606490fd5b503461062e578060031936011261062e5760206040516801158e460913d000008152f35b503461062e57602080600319360112610b4157611f15614d48565b906001600160a01b037f00000000000000000000000000000000000000000000000000000000000000008181169291338490036122af5760045494600554948615938491821590816121a8575b508715968715928361204e575b505091612046575b50611f80578680f35b1691601e8402938404601e14171561203257601e8402938404601e14171561201e57908184923b1561148a5760649183604492846040519788968795633d6bcfaf60e11b87520460048601520460248401525af1801561201357611fe8575b80808080808680f35b6001600160401b038111611fff5760405238611fdf565b634e487b7160e01b82526041600452602482fd5b6040513d84823e3d90fd5b634e487b7160e01b84526011600452602484fd5b634e487b7160e01b85526011600452602485fd5b905038611f77565b909350601e8902898104601e148917156121945760648c91048160055581866120b58d612080858d600154169261509a565b60405163a9059cbb60e01b8082526001600160a01b039099166004820152602481019190915295869283919082906044820190565b03925af192831561218757879361214e575b506001546040519485526001600160a01b038916600486015260248501929092528391891690829081604481015b03925af193841561214357879415611f6f5790809450813d831161213c575b61211e8183614c23565b8101031261213857612130869361502a565b503880611f6f565b8980fd5b503d612114565b6040513d8d823e3d90fd5b9283813d8311612180575b6121638183614c23565b8101031261062e576120f593612179889461502a565b50936120c7565b503d612159565b50604051903d90823e3d90fd5b634e487b7160e01b8c52601160045260248cfd5b90919250601e8902898104601e1487171561229b578a80808c946121d5606483960480978460045561509a565b905af16121e061555e565b501561224c5789808080938888165af16121f861555e565b50156122075790849138611f62565b60405162461bcd60e51b815260048101879052601b60248201527f535454207374616b696e67207472616e73666572206661696c656400000000006044820152606490fd5b60405162461bcd60e51b815260048101889052602160248201527f5354542066656520636f6c6c6563746f72207472616e73666572206661696c656044820152601960fa1b6064820152608490fd5b634e487b7160e01b8b52601160045260248bfd5b60405162461bcd60e51b815260048101849052601260248201527127b7363c903332b29031b7b63632b1ba37b960711b6044820152606490fd5b503461062e578060031936011261062e576020600554604051908152f35b503461062e578060031936011261062e57546040516001600160a01b039091168152602090f35b503461062e57602036600319011261062e5760406020916004358152601083522054604051908152f35b503461062e578060031936011261062e57612371614f19565b80546001600160a01b03198116825581906001600160a01b03167f8be0079c531659141344cd1fd0a4f28419497f9722a3daafe3b4186f6b6457e08280a380f35b503461062e57604036600319011261062e5760ff60406020926123d3614d32565b6004358252601685528282206001600160a01b03909116825284522054604051911615158152f35b503461062e578060031936011261062e57602060405160648152f35b503461062e5761242636614e36565b91908152601a6020526040812090815483101561062e5760206107928484614e4c565b5061245336614e36565b906124616003548210615bc9565b80835260206011815260ff60408520600581019061248583835460101c161561529f565b612499670de0b6b3a76400008710156152da565b6124a86008820154421061531a565b600b60048201916124c96124bd898554614f87565b600383015410156153a9565b015480612650575b508487526013845260408720338852845260408720541561261f575b848752601384526040872033885284526040872061250c878254614f87565b9055612519868254614f87565b905554821c16156125f2576001546040516323b872dd60e01b815233600482015230602482015260448101859052919081908390606490829089906001600160a01b03165af19182156109f8578592612598575b50611d027fa62ac007af53ff4400791f2f3468865d30bb8700e4624a47647a3d5e6cbcf2e992615037565b91508082813d83116125eb575b6125af8183614c23565b810103126109ed57611d026125e47fa62ac007af53ff4400791f2f3468865d30bb8700e4624a47647a3d5e6cbcf2e99361502a565b925061256d565b503d6125a5565b7fa62ac007af53ff4400791f2f3468865d30bb8700e4624a47647a3d5e6cbcf2e990611d71843414614fe7565b848752601284526126376101f46040892054106153e1565b8487526012845261264b33604089206150b3565b6124ed565b612679908689526013865260408920338a5286526126728860408b2054614f87565b1115615470565b386124d1565b5061268936614e36565b906126976002548210615121565b808352602060178152604084206126ad8161515c565b6126bb60408201511561529f565b6126cf670de0b6b3a76400008610156152da565b69152d02c7e14af68000008511612a43576126f0610220820151421061531a565b6101008101918251610160830193845190888215928315612a2d575b505050612a21575b606461ffff868501511661272982821161535d565b04906000198201918211612a0d57906127419161507a565b9261275884612751898451614f87565b11156153a9565b80518719106129d757906127c7878793848b526019885260408b20338c5288526127ac8260408d20548d8115806129ba575b60808b0151612995575b6102e08b018051612978575b5061295d575b50614f87565b858c526019895260408c20338d52895260408c205551614f87565b90816004820155846003820155805460ff8160d01c16159586612915575b5060a0956128ce575b505050500151156128bb576001546040516323b872dd60e01b815233600482015230602482015260448101859052919081908390606490829089906001600160a01b03165af19182156109f8578592612880575b5061284e600192615037565b6040519384528301527fb1bd10cf5ea9540f12b9b182707734fd82deacc56830e2bd316133deb372bff460403393a380f35b91508082813d83116128b4575b6128978183614c23565b810103126109ed5761284e6128ad60019361502a565b9250612842565b503d61288d565b6001906128c9843414614fe7565b61284e565b600160d01b9060ff60d01b1916179055600080516020615c0b8339815191526060600180871b0385511692604051906001825288820152426040820152a3833880806127ee565b9193509193945060648402848104606414851517156129495791603c61294189959360a098979561507a565b1015956127e5565b634e487b7160e01b8a52601160045260248afd5b8089612972925260188d5260403391206150b3565b8d6127a6565b61298f906129868686614f87565b90511015615470565b386127a0565b898252600d8d52604082203383528d526129b560ff604084205416615425565b612794565b89825260188d526129d26101f46040842054106153e1565b61278a565b60405162461bcd60e51b815260048101869052600e60248201526d5374616b65206f766572666c6f7760901b6044820152606490fd5b634e487b7160e01b89526011600452602489fd5b50610120820151612714565b612a38929350614f87565b90511038888161270c565b60405162461bcd60e51b815260048101849052600d60248201526c42657420746f6f206c6172676560981b6044820152606490fd5b503461062e57602036600319011261062e5760ff60406020926004358152600b8452205416612aaa6040518092614e7a565bf35b503461062e57612abb36614e36565b9190815260186020526040812090815483101561062e5760206107928484614e4c565b503461062e57602036600319011261062e5760406020916004358152600c83522054604051908152f35b503461062e57602036600319011261062e576004356004811015610b415760209060060154604051908152f35b503461062e57602080600319360112610b4157600435612b586002548210615121565b80835260178252612b6b6040842061515c565b91612b7b6040840151151561573c565b818452601c8152604084203385528152612b9c60ff60408620541615615776565b818452601c8152604080852033865282528420805460ff19166001179055606083015184939015612c8857828552601b8252604085203386528252604085205480158015612c32575b50505b83612bf1578480f35b60a0015115610a035760015460405163a9059cbb60e01b8152336004820152602481018590529190819083906001600160a01b03168188816044810161094c565b90919450612710908183029083820483141715612c745790610a7d612c61612c6c94936101208901519061507a565b6101608801516154bc565b923880612be5565b634e487b7160e01b87526011600452602487fd5b82855260198252604085203386528252604085205480612ca9575b50612be8565b9350826064612cbf61ffff8585015116876154bc565b0494612cdc612710612cd4610aee848a61509a565b04809761509a565b9580612d45575b5060a083015115612d3457686c6b935b8bbd4000008110155b612d07575b50612ca3565b604051906003825284820152426040820152600080516020615c0b83398151915260603392a38238612d01565b678ac7230489e80000811015612cfc565b60a084015115612d6557612d5b90600554614f87565b6005555b38612ce3565b612d7190600454614f87565b600455612d5f565b503461062e57604036600319011261062e57600435612d96614d32565b90612da46002548210615121565b808352601760205260408320546001600160a01b0390612dc79082163314615a6d565b818452600d6020526040842092169182845260205260408320600160ff198254161790557fef35c6815799b054cdc749d1f5bb07547c285ef9d7559c6e839da576f42b49098380a380f35b503461062e57606036600319011261062e57611abe611ab2604435602435600435615948565b503461062e57604036600319011261062e57600435602435612e5d6002548310615121565b818352601760205260408320908154612e7c60ff8260b01c1615615629565b612e8c6009840154421015615667565b60ff8160d81c1660028110156130ba5780612fc457507f00000000000000000000000000000000000000000000000000000000000000006001600160a01b03163303612f6c577f86acb9671870fda5e7ea8aa500f96625102d6f2e5a2ee12d3ca0fb612850fa299260ff915b60068201849055600582015460ff60b81b1960b085901b19909216600160b01b17919091169084141560b81b60ff60b81b161781555b42600b820155612f3d85615aa7565b5460b81c16612f6660405192839242918460409194939260608201958252151560208201520152565b0390a280f35b60405162461bcd60e51b815260206004820152602a60248201527f4f6e6c7920677569646564206f7261636c652063616e20736574746c652067756044820152696964656420706f6f6c7360b01b6064820152608490fd5b60010361307f577f00000000000000000000000000000000000000000000000000000000000000006001600160a01b03163303613025577f86acb9671870fda5e7ea8aa500f96625102d6f2e5a2ee12d3ca0fb612850fa299260ff91612ef8565b60405162461bcd60e51b815260206004820152602c60248201527f4f6e6c79206f7074696d6973746963206f7261636c652063616e20736574746c60448201526b65206f70656e20706f6f6c7360a01b6064820152608490fd5b60405162461bcd60e51b8152602060048201526013602482015272496e76616c6964206f7261636c65207479706560681b6044820152606490fd5b634e487b7160e01b86526021600452602486fd5b503461062e578060031936011261062e576040517f00000000000000000000000000000000000000000000000000000000000000006001600160a01b03168152602090f35b506101a036600319011261062e5760a4356001600160401b038111610b4157613140903690600401614d79565b60c4356001600160401b03811161148a5761315f903690600401614d79565b9060e4356001600160401b03811161062a5761317f903690600401614d79565b610104359182151583036109ed5761014435151561014435036109ed5760026101643510156109ed576064602435118080613c09575b15613bd5576131d16801158e460913d000006044351015614f45565b69d3c21bcecceda100000060443511613b9e57426064351115613b59576064356084351115613b1457603c42014211613a0957613214603c420160643511614faa565b6301e1338042014211613a09576301e1338042016064351015613adf57604435670de0b6b3a764000001670de0b6b3a764000011613a09576101443515613aab576001546040516323b872dd60e01b815233600482015230602482015260448035670de0b6b3a764000001908201529060209082906001600160a01b0316818a816064810103925af18015613aa0578790613a62575b6132b49150615037565b600554670de0b6b3a76400008101809111612c74576005555b15613a1d576064602435046000198101908111613a09576132f09060443561507a565b606435603b19810111613a0957620151806084350160843511613a09576040519361331a85614bec565b33855261ffff6024351660208601528660408601528660608601521515608085015261014435151560a08501528560c085015261335d6101643560e086016150a7565b604435610100850181905261012085015261014084015261016083018590526004356101808401526101a08301859052610184356101c08401526064356101e084018190526084356102008501819052603b19909101610220850152610240840186905262015180016102608401526102808301526102a082018390526102c0820152610124356102e0820152600254835260176020908152604080852083518154938501519285015160608601516001600160c01b03199095166001600160a01b03929092169190911760a09390931b61ffff60a01b169290921791151560b01b60ff60b01b169190911791151560b81b60ff60b81b169190911781559060808101511515825460ff60c81b60a0840151151560c81b1660ff60d01b60c0850151151560d01b169160e085015160028110156139f55760ff60d81b9060d81b169360ff60c01b9060c01b169063ffffffff60c01b1916171717178255610100810151600183015561012081015160028301556101408101516003830155610160810151600483015561018081015160058301556101a081015160068301556101c081015160078301556101e081015160088301556102008101516009830155610220810151600a830155610240810151600b830155610260810151600c8301556102808101518051906001600160401b03821161384d578190613564600d860154614bb2565b601f81116139a5575b50602090601f831160011461393657879261392b575b50508160011b916000199060031b1c191617600d8301555b6102a08101518051906001600160401b03821161384d5781906135c1600e860154614bb2565b601f81116138db575b50602090601f831160011461386c578792613861575b50508160011b916000199060031b1c191617600e8301555b6102c08101518051906001600160401b03821161384d5761361c600f850154614bb2565b601f8111613809575b50602090601f8311600114613799579180601094926102e094899261378e575b50508160011b916000199060031b1c191617600f8501555b01519101556002548252601a60205261367933604084206150b3565b6002548252601b602052604082203383526020526044356040832055602081519101208152600e6020526136b360408220600254906150d6565b338152600f6020526136cb60408220600254906150d6565b338152600f602052604081205460001981019081116114435760025482526010602052604082205561378860025480604051600080516020615c0b83398151915233918061373042604435836040909392919360608101946000825260208201520152565b0390a3604051606435815260843560208201526137536040820161016435614e9d565b610184356060820152817f1f0b2ea2d1ad174a9b71a251bd90e47ad5395c0e34e6e0fd0f80c1495eddd42260803393a3615112565b60025580f35b015190503880613645565b600f85018752602087209190601f198416885b8181106137f157509260019285926102e09660109896106137d8575b505050811b01600f85015561365d565b015160001960f88460031b161c191690553880806137c8565b929360206001819287860151815501950193016137ac565b600f8501875260208720601f840160051c810160208510613846575b601f830160051c8201811061383b575050613625565b888155600101613825565b5080613825565b634e487b7160e01b86526041600452602486fd5b0151905038806135e0565b9250600e85018752602087209087935b601f19841685106138c0576001945083601f198116106138a7575b505050811b01600e8301556135f8565b015160001960f88460031b161c19169055388080613897565b8181015183556020948501946001909301929091019061387c565b909150600e8501875260208720601f840160051c810160208510613924575b90849392915b601f830160051c820181106139165750506135ca565b898155859450600101613900565b50806138fa565b015190503880613583565b9250600d85018752602087209087935b601f198416851061398a576001945083601f19811610613971575b505050811b01600d83015561359b565b015160001960f88460031b161c19169055388080613961565b81810151835560209485019460019093019290910190613946565b909150600d8501875260208720601f840160051c8101602085106139ee575b90849392915b601f830160051c820181106139e057505061356d565b8981558594506001016139ca565b50806139c4565b634e487b7160e01b89526021600452602489fd5b634e487b7160e01b86526011600452602486fd5b60405162461bcd60e51b815260206004820152601d60248201527f4f646473206d7573742062652067726561746572207468616e203130300000006044820152606490fd5b506020813d8211613a98575b81613a7b60209383614c23565b81010312613a9457613a8f6132b49161502a565b6132aa565b8680fd5b3d9150613a6e565b6040513d89823e3d90fd5b613ac2604435670de0b6b3a7640000013414614fe7565b600454670de0b6b3a76400008101809111612c74576004556132cd565b60405162461bcd60e51b815260206004820152600d60248201526c22bb32b73a103a37b7903330b960991b6044820152606490fd5b60405162461bcd60e51b815260206004820152601d60248201527f4576656e7420656e64206d7573742062652061667465722073746172740000006044820152606490fd5b60405162461bcd60e51b815260206004820152601760248201527f4576656e74206d75737420626520696e206675747572650000000000000000006044820152606490fd5b60405162461bcd60e51b815260206004820152600f60248201526e5374616b6520746f6f206c6172676560881b6044820152606490fd5b60405162461bcd60e51b815260206004820152600c60248201526b496e76616c6964206f64647360a01b6044820152606490fd5b5061271060243511156131b5565b503461062e576020908160031936011261062e5760043590613c3c6002548310615121565b81815260178352604081208054926001600160a01b038085163303613e985760ff94613c6d868260b01c16156154cf565b613c7b600485015415615512565b600a840154421115613e535760ff60b01b1916600160b01b178355818452601a86526040808520905181548082529186528786209096918790818a0190885b8b828210613e3b57505050613cd192500387614c23565b845b8651811015613de35782613ce7828961558e565b511690848752601b895260408720828852895288604088205480613d17575b5050613d129150615112565b613cd3565b8885895460c81c16600014613dc1575060015460405163a9059cbb60e01b81526001600160a01b039590951660048601526024850191909152919291829060449082908b9089165af1908115613aa0578791613d83575b5090613d7c613d12926155e5565b8838613d06565b90508881813d8311613dba575b613d9a8183614c23565b81010312613a945790613d7c613db2613d129361502a565b919250613d6e565b503d613d90565b613dde925080808093613d12975af1613dd861555e565b506155a2565b613d7c565b85847f5d017285e8f2eb1ffcbc2466eaedb487942e395d5f1e312f09e9384b1687bea560608b613e1284615aa7565b6010604051918083528201526f139bc818995d1cc81c9958d95a5d995960821b6040820152a280f35b8554881684526001958601958c955093019201613cba565b60405162461bcd60e51b815260048101889052601860248201527f42657474696e6720706572696f64206e6f7420656e64656400000000000000006044820152606490fd5b60405162461bcd60e51b815260048101879052601960248201527f4f6e6c792063726561746f722063616e207769746864726177000000000000006044820152606490fd5b503461062e57602080600319360112610b415760043590613f016002548310615121565b81835260178152604083208054613f1e60ff8260b01c1615615629565b613f2e6009830154421015615667565b60ff8160d81c1660028110156130ba57806140ba57506007820154604051632e8d1dc160e11b8152600481019190915285816024817f00000000000000000000000000000000000000000000000000000000000000006001600160a01b03165afa9081156140af578690879261408a575b501561404757613fae90615719565b9260015b1561400f575060068201839055600582015461ffff60b01b199091169083141560b81b60ff60b81b1617600160b01b1781557f86acb9671870fda5e7ea8aa500f96625102d6f2e5a2ee12d3ca0fb612850fa29919060ff90612f2e565b6064906040519062461bcd60e51b8252600482015260116024820152704f7574636f6d65206e6f7420726561647960781b6044820152fd5b6064846040519062461bcd60e51b825280600483015260248201527f477569646564206f7574636f6d65206e6f7420617661696c61626c65207965746044820152fd5b90506140a891503d8088833e6140a08183614c23565b8101906156a9565b9038613f9f565b6040513d88823e3d90fd5b60010361307f576007820154604051632e8d1dc160e11b8152600481019190915285816024817f00000000000000000000000000000000000000000000000000000000000000006001600160a01b03165afa9081156140af5786908792614184575b50156141335761412b90615719565b926001613fb2565b60405162461bcd60e51b8152600481018590526024808201527f4f7074696d6973746963206f7574636f6d65206e6f742066696e616c697a6564604482015263081e595d60e21b6064820152608490fd5b905061419a91503d8088833e6140a08183614c23565b903861411c565b503461062e57604036600319011261062e5760ff60406020926141c2614d32565b6004358252601c85528282206001600160a01b03909116825284522054604051911615158152f35b503461062e57602036600319011261062e5760406020916004358152601183522060018060a01b03815416906142d4600182015491600281015460038201546004830154600584015460ff600686015491600787015493600888015495600989015497600b61425b600a8c01614c44565b9a01549b6040519e8f9e8f908152015260408d015260608c015260808b015261ffff811660a08b0152818160101c16151560c08b0152818160181c16151560e08b015260201c1615156101008901526101208801526101408701526101608601526101808501526101e0806101a0860152840190614d0d565b906101c08301520390f35b503461062e576020908160031936011261062e57600435906143046002548310615121565b818152601783526040812080549260ff93614324858260b01c1615615629565b600c83015442111561470a5760ff60b01b1916600160b01b178255808352601a8552604080842090518154808252918552868520909591869081890190875b8a8282106146eb5750505061437a92500386614c23565b835b8551811015614491576001600160a01b0390878261439a838a61558e565b5116858852601b8252604088208189528252604088205490816143ca575b5050506143c59150615112565b61437c565b8886895460c81c16600014614473575060015460405163a9059cbb60e01b81526001600160a01b0392909216600483015260248201929092529293839160449183918b91165af19081156140af578691614435575b509061442d6143c5926155e5565b8738806143b8565b90508781813d831161446c575b61444c8183614c23565b8101031261162d579061442d6144646143c59361502a565b91925061441f565b503d614442565b6143c5955061448c935080809381935af1613dd861555e565b61442d565b50859291938481526018928385526040822095604051808888829a54938481520190865288862092865b8a8282106146cc575050506144d292500388614c23565b825b875181101561467157836001600160a01b0388816144f2858d61558e565b51169185845260199283835260408520818652835260408520549182614527575b50505050505061452290615112565b6144d4565b885460c81c8b161561460b5760015460405163a9059cbb60e01b81526001600160a01b03939093166004840152602483019390935293945092839160449183918b91165af19081156140af5786916145d6575b50156145935750614522905b9050838988818080614513565b876064916040519162461bcd60e51b8352600483015260248201527f4249545220626574746f7220726566756e64206661696c6564000000000000006044820152fd5b90508881813d8311614604575b6145ed8183614c23565b8101031261162d576145fe9061502a565b8a61457a565b503d6145e3565b508493508392509082915af161461f61555e565b501561462e5761452290614586565b606487876040519162461bcd60e51b8352600483015260248201527f53545420626574746f7220726566756e64206661696c656400000000000000006044820152fd5b83827f5d017285e8f2eb1ffcbc2466eaedb487942e395d5f1e312f09e9384b1687bea560608a6146a084615aa7565b60136040519180835282015272105c989a5d1c985d1a5bdb881d1a5b595bdd5d606a1b6040820152a280f35b85546001600160a01b031684526001958601958d9550930192016144bb565b85546001600160a01b031684526001958601958b955093019201614363565b60405162461bcd60e51b815260048101879052601e60248201527f4172626974726174696f6e20706572696f64206e6f74206578706972656400006044820152606490fd5b503461062e57602080600319360112610b41576004356147726002548210615121565b8083526017825260408320805461478f60ff8260b01c16156154cf565b6001600160a01b039081163314614b4a57828552601b8452604085203386528452604085205415614b0d5760088201544210614ad057908491600482016147d7815415615512565b848452601b8652604084203385528652604084205492858552601b8752604085203386528752846040812055600281019161481385845461509a565b8093556001928383015480925411614ac8575b5061ffff825460a01c1660648111614a96575b5050918493918793878652601a8552604086208287905b6149a0575b50505460c81c60ff1615614944575460405163a9059cbb60e01b81523360048201526024810193909352919492935084926044928492165af1908115614939578491614904575b50156148bf575b600080516020615c2b833981519152604051928484523393a380f35b60405162461bcd60e51b815260048101839052601960248201527f42495452204c50207769746864726177616c206661696c6564000000000000006044820152606490fd5b90508281813d8311614932575b61491b8183614c23565b8101031261062a5761492c9061502a565b3861489c565b503d614911565b6040513d86823e3d90fd5b50508291508190335af161495661555e565b506148a35760405162461bcd60e51b815260048101839052601860248201527f535454204c50207769746864726177616c206661696c656400000000000000006044820152606490fd5b91939550809294965054878a82841015614a8a5750506149c08284614e4c565b905460039291831b1c871633146149eb575050906149de8492615112565b9089959391889795614850565b9190939495969750600019918281019081116121945790614a2188614a13614a409487614e4c565b905490881b1c169185614e4c565b90919082549060031b9160018060a01b03809116831b921b1916179055565b81548015614a76579386938a96938c99969860ff948b9a0192614a638484614e4c565b81939154921b1b19169055559038614855565b634e487b7160e01b8b52603160045260248bfd5b96949250969492614855565b60649192939495965004906000198201918211612a0d57889594939291614abc9161507a565b60038201553880614839565b905038614826565b60405162461bcd60e51b8152600481018590526015602482015274115d995b9d081b9bdd081cdd185c9d1959081e595d605a1b6044820152606490fd5b60405162461bcd60e51b8152600481018590526015602482015274139bc81b1a5c5d5a591a5d1e481c1c9bdd9a591959605a1b6044820152606490fd5b6064846040519062461bcd60e51b825280600483015260248201527f43726561746f722063616e6e6f742075736520746869732066756e6374696f6e6044820152fd5b905034610b415781600319360112610b41576001546001600160a01b03168152602090f35b90600182811c92168015614be2575b6020831014614bcc57565b634e487b7160e01b600052602260045260246000fd5b91607f1691614bc1565b61030081019081106001600160401b0382111761161757604052565b602081019081106001600160401b0382111761161757604052565b90601f801991011681019081106001600160401b0382111761161757604052565b9060405191826000825492614c5884614bb2565b908184526001948581169081600014614cc75750600114614c84575b5050614c8292500383614c23565b565b9093915060005260209081600020936000915b818310614caf575050614c8293508201013880614c74565b85548884018501529485019487945091830191614c97565b915050614c8294506020925060ff191682840152151560051b8201013880614c74565b60005b838110614cfd5750506000910152565b8181015183820152602001614ced565b90602091614d2681518092818552858086019101614cea565b601f01601f1916010190565b602435906001600160a01b03821682036115ae57565b600435906001600160a01b03821682036115ae57565b6001600160401b03811161161757601f01601f191660200190565b81601f820112156115ae57803590614d9082614d5e565b92614d9e6040519485614c23565b828452602083830101116115ae57816000926020809301838601378301015290565b346115ae5760003660031901126115ae5760206040516101f48152f35b6020908160408183019282815285518094520193019160005b828110614e04575050505090565b835185529381019392810192600101614df6565b346115ae5760003660031901126115ae576020604051620151808152f35b60409060031901126115ae576004359060243590565b8054821015614e645760005260206000200190600090565b634e487b7160e01b600052603260045260246000fd5b906004821015614e875752565b634e487b7160e01b600052602160045260246000fd5b906002821015614e875752565b6001600160401b0381116116175760051b60200190565b346115ae5760003660031901126115ae576020604051670de0b6b3a76400008152f35b6004811015614e8757600052600a602052604060002090565b346115ae5760003660031901126115ae57602060405160058152f35b6000546001600160a01b03163303614f2d57565b60405163118cdaa760e01b8152336004820152602490fd5b15614f4c57565b60405162461bcd60e51b81526020600482015260136024820152725374616b652062656c6f77206d696e696d756d60681b6044820152606490fd5b91908201809211614f9457565b634e487b7160e01b600052601160045260246000fd5b15614fb157565b60405162461bcd60e51b815260206004820152600e60248201526d22bb32b73a103a37b79039b7b7b760911b6044820152606490fd5b15614fee57565b60405162461bcd60e51b8152602060048201526014602482015273125b98dbdc9c9958dd0814d51508185b5bdd5b9d60621b6044820152606490fd5b519081151582036115ae57565b1561503e57565b60405162461bcd60e51b815260206004820152601460248201527310925514881d1c985b9cd9995c8819985a5b195960621b6044820152606490fd5b8115615084570490565b634e487b7160e01b600052601260045260246000fd5b91908203918211614f9457565b6002821015614e875752565b90815491600160401b8310156116175782614a21916001614c8295018155614e4c565b90815491600160401b83101561161757826150f9916001614c8295018155614e4c565b90919082549060031b91821b91600019901b1916179055565b6000198114614f945760010190565b1561512857565b60405162461bcd60e51b815260206004820152600c60248201526b125b9d985b1a59081c1bdbdb60a21b6044820152606490fd5b9060405161516981614bec565b6102e0601082946151de815460018060a01b038116865261ffff8160a01c16602087015260ff90818160b01c1615156040880152818160b81c1615156060880152818160c01c1615156080880152818160c81c16151560a0880152818160d01c16151560c088015260d81c1660e086016150a7565b6001810154610100850152600281015461012085015260038101546101408501526004810154610160850152600581015461018085015260068101546101a085015260078101546101c085015260088101546101e08501526009810154610200850152600a810154610220850152600b810154610240850152600c81015461026085015261526e600d8201614c44565b610280850152615280600e8201614c44565b6102a0850152615292600f8201614c44565b6102c08501520154910152565b156152a657565b60405162461bcd60e51b815260206004820152600c60248201526b141bdbdb081cd95d1d1b195960a21b6044820152606490fd5b156152e157565b60405162461bcd60e51b81526020600482015260116024820152704265742062656c6f77206d696e696d756d60781b6044820152606490fd5b1561532157565b60405162461bcd60e51b815260206004820152601460248201527310995d1d1a5b99c81c195c9a5bd908195b99195960621b6044820152606490fd5b1561536457565b60405162461bcd60e51b815260206004820152601c60248201527f496e76616c6964206f64647320666f722063616c63756c6174696f6e000000006044820152606490fd5b156153b057565b60405162461bcd60e51b8152602060048201526009602482015268141bdbdb08199d5b1b60ba1b6044820152606490fd5b156153e857565b60405162461bcd60e51b8152602060048201526015602482015274546f6f206d616e79207061727469636970616e747360581b6044820152606490fd5b1561542c57565b606460405162461bcd60e51b815260206004820152602060248201527f4e6f742077686974656c697374656420666f72207072697661746520706f6f6c6044820152fd5b1561547757565b60405162461bcd60e51b815260206004820152601860248201527f45786365656473206d61782062657420706572207573657200000000000000006044820152606490fd5b81810292918115918404141715614f9457565b156154d657565b60405162461bcd60e51b8152602060048201526014602482015273141bdbdb08185b1c9958591e481cd95d1d1b195960621b6044820152606490fd5b1561551957565b60405162461bcd60e51b815260206004820152601e60248201527f506f6f6c2068617320626574732c2063616e6e6f7420776974686472617700006044820152606490fd5b3d15615589573d9061556f82614d5e565b9161557d6040519384614c23565b82523d6000602084013e565b606090565b8051821015614e645760209160051b010190565b156155a957565b60405162461bcd60e51b815260206004820152601460248201527314d515081314081c99599d5b990819985a5b195960621b6044820152606490fd5b156155ec57565b60405162461bcd60e51b815260206004820152601560248201527410925514881314081c99599d5b990819985a5b1959605a1b6044820152606490fd5b1561563057565b60405162461bcd60e51b815260206004820152600f60248201526e105b1c9958591e481cd95d1d1b1959608a1b6044820152606490fd5b1561566e57565b60405162461bcd60e51b8152602060048201526013602482015272115d995b9d081b9bdd08195b991959081e595d606a1b6044820152606490fd5b91906040838203126115ae576156be8361502a565b926020810151906001600160401b0382116115ae570181601f820112156115ae5780516156ea81614d5e565b926156f86040519485614c23565b818452602082840101116115ae576157169160208085019101614cea565b90565b60208151910151906020811061572d575090565b6000199060200360031b1b1690565b1561574357565b60405162461bcd60e51b815260206004820152600b60248201526a139bdd081cd95d1d1b195960aa1b6044820152606490fd5b1561577d57565b60405162461bcd60e51b815260206004820152600f60248201526e105b1c9958591e4818db185a5b5959608a1b6044820152606490fd5b156157bb57565b60405162461bcd60e51b815260206004820152601160248201527014d515081c185e5bdd5d0819985a5b1959607a1b6044820152606490fd5b156157fb57565b60405162461bcd60e51b815260206004820152601260248201527110925514881c185e5bdd5d0819985a5b195960721b6044820152606490fd5b6001546040516370a0823160e01b81526001600160a01b0392831660048201529160209183916024918391165afa90811561590a576000916158d9575b50690a968163f0a57b4000008110156158d35769043c33c19375648000008110156158cc5769010f0cf064dd592000008110156158c557686c6b935b8bbd40000011156158bf576101f490565b6101c290565b5061019090565b5061015e90565b5060fa90565b906020823d8211615902575b816158f260209383614c23565b8101031261062e57505138615872565b3d91506158e5565b6040513d6000823e3d90fd5b9061592082614eaa565b61592d6040519182614c23565b828152809261593e601f1991614eaa565b0190602036910137565b9291906000938452600e60205260408420908154808410156159d657808261597186809461509a565b11156159c6575050915b61598483615916565b945b8381106159935750505050565b806159aa6159a46159c19385614f87565b85614e4c565b90549060031b1c6159bb828961558e565b52615112565b615986565b6159d0925061509a565b9161597b565b5050505090604051906159e882614c08565b80825236813790565b6001600160a01b03166000908152600f602052604081208054919493929091808410156159d6578082615a2586809461509a565b1115615a5d575050915b615a3883615916565b945b838110615a475750505050565b806159aa6159a4615a589385614f87565b615a3a565b615a67925061509a565b91615a2f565b15615a7457565b60405162461bcd60e51b815260206004820152600b60248201526a2737ba1031b932b0ba37b960a91b6044820152606490fd5b600090808252601760205260018060a01b036040832054168252600f60205260408220818352601060205260408320549080549182811080615b87575b615af0575b5050505050565b60001992808401908111613a0957808203615b55575b505080548015615b4157820191615b1d8383614e4c565b909182549160031b1b19169055558152601060205260408120553880808080615ae9565b634e487b7160e01b85526031600452602485fd5b615b5f9083614e4c565b90549060031b1c615b74816150f98486614e4c565b8552601060205260408520553880615b06565b5083615b938284614e4c565b90549060031b1c14615ae4565b8015614f94576000190190565b8054821015614e645760005260206000209060021b0190600090565b15615bd057565b60405162461bcd60e51b8152602060048201526012602482015271125b9d985b1a590818dbdb589bc81c1bdbdb60721b6044820152606490fdfed43c77f044c1f8bc6adf6676b4ce17edda35ef8ee63f154568826c0ecb3c6bf3c733c2813826d31c105dbff518b08258e9e7aeb3eb1c7c7f642d77696faf501da26469706673582212206c2d63205d2a17f0f5e3e86b4bd94265281f5a5ee0dc54502851d9ca14909ac464736f6c63430008140033",
  "linkReferences": {},
  "deployedLinkReferences": {}
}