{
  "_format": "hh-sol-artifact-1",
  "contractName": "BitredictComboPools",
  "sourceName": "contracts/BitredictComboPools.sol",
  "abi": [
    {
      "inputs": [
        {
          "internalType": "address",
          "name": "_bitrToken",
          "type": "address"
        },
        {
          "internalType": "address",
          "name": "_feeCollector",
          "type": "address"
        },
        {
          "internalType": "address",
          "name": "_poolCore",
          "type": "address"
        }
      ],
      "stateMutability": "nonpayable",
      "type": "constructor"
    },
    {
      "inputs": [
        {
          "internalType": "address",
          "name": "owner",
          "type": "address"
        }
      ],
      "name": "OwnableInvalidOwner",
      "type": "error"
    },
    {
      "inputs": [
        {
          "internalType": "address",
          "name": "account",
          "type": "address"
        }
      ],
      "name": "OwnableUnauthorizedAccount",
      "type": "error"
    },
    {
      "inputs": [],
      "name": "ReentrancyGuardReentrantCall",
      "type": "error"
    },
    {
      "anonymous": false,
      "inputs": [
        {
          "indexed": true,
          "internalType": "uint256",
          "name": "comboPoolId",
          "type": "uint256"
        },
        {
          "indexed": false,
          "internalType": "uint256",
          "name": "totalVolume",
          "type": "uint256"
        },
        {
          "indexed": false,
          "internalType": "uint256",
          "name": "participantCount",
          "type": "uint256"
        }
      ],
      "name": "ComboAnalyticsUpdated",
      "type": "event"
    },
    {
      "anonymous": false,
      "inputs": [
        {
          "indexed": true,
          "internalType": "uint256",
          "name": "comboPoolId",
          "type": "uint256"
        },
        {
          "indexed": true,
          "internalType": "address",
          "name": "bettor",
          "type": "address"
        },
        {
          "indexed": false,
          "internalType": "uint256",
          "name": "amount",
          "type": "uint256"
        }
      ],
      "name": "ComboBetPlaced",
      "type": "event"
    },
    {
      "anonymous": false,
      "inputs": [
        {
          "indexed": true,
          "internalType": "uint256",
          "name": "comboPoolId",
          "type": "uint256"
        },
        {
          "indexed": false,
          "internalType": "uint256",
          "name": "conditionIndex",
          "type": "uint256"
        },
        {
          "indexed": false,
          "internalType": "bytes32",
          "name": "actualOutcome",
          "type": "bytes32"
        },
        {
          "indexed": false,
          "internalType": "bool",
          "name": "successful",
          "type": "bool"
        }
      ],
      "name": "ComboConditionResolved",
      "type": "event"
    },
    {
      "anonymous": false,
      "inputs": [
        {
          "indexed": true,
          "internalType": "uint256",
          "name": "comboPoolId",
          "type": "uint256"
        },
        {
          "indexed": true,
          "internalType": "address",
          "name": "provider",
          "type": "address"
        },
        {
          "indexed": false,
          "internalType": "uint256",
          "name": "amount",
          "type": "uint256"
        }
      ],
      "name": "ComboLiquidityAdded",
      "type": "event"
    },
    {
      "anonymous": false,
      "inputs": [
        {
          "indexed": true,
          "internalType": "uint256",
          "name": "comboPoolId",
          "type": "uint256"
        },
        {
          "indexed": true,
          "internalType": "address",
          "name": "creator",
          "type": "address"
        },
        {
          "indexed": false,
          "internalType": "uint256",
          "name": "conditionCount",
          "type": "uint256"
        },
        {
          "indexed": false,
          "internalType": "uint16",
          "name": "totalOdds",
          "type": "uint16"
        },
        {
          "indexed": false,
          "internalType": "bytes32",
          "name": "category",
          "type": "bytes32"
        }
      ],
      "name": "ComboPoolCreated",
      "type": "event"
    },
    {
      "anonymous": false,
      "inputs": [
        {
          "indexed": true,
          "internalType": "uint256",
          "name": "comboPoolId",
          "type": "uint256"
        },
        {
          "indexed": false,
          "internalType": "uint256",
          "name": "score",
          "type": "uint256"
        }
      ],
      "name": "ComboPoolPerformanceUpdated",
      "type": "event"
    },
    {
      "anonymous": false,
      "inputs": [
        {
          "indexed": true,
          "internalType": "uint256",
          "name": "comboPoolId",
          "type": "uint256"
        },
        {
          "indexed": false,
          "internalType": "string",
          "name": "reason",
          "type": "string"
        }
      ],
      "name": "ComboPoolRefunded",
      "type": "event"
    },
    {
      "anonymous": false,
      "inputs": [
        {
          "indexed": true,
          "internalType": "uint256",
          "name": "comboPoolId",
          "type": "uint256"
        },
        {
          "indexed": false,
          "internalType": "bool",
          "name": "creatorSideWon",
          "type": "bool"
        },
        {
          "indexed": false,
          "internalType": "uint256",
          "name": "successfulConditions",
          "type": "uint256"
        },
        {
          "indexed": false,
          "internalType": "uint256",
          "name": "timestamp",
          "type": "uint256"
        }
      ],
      "name": "ComboPoolSettled",
      "type": "event"
    },
    {
      "anonymous": false,
      "inputs": [
        {
          "indexed": true,
          "internalType": "uint256",
          "name": "comboPoolId",
          "type": "uint256"
        },
        {
          "indexed": true,
          "internalType": "address",
          "name": "user",
          "type": "address"
        },
        {
          "indexed": false,
          "internalType": "uint256",
          "name": "amount",
          "type": "uint256"
        }
      ],
      "name": "ComboRewardClaimed",
      "type": "event"
    },
    {
      "anonymous": false,
      "inputs": [
        {
          "indexed": true,
          "internalType": "address",
          "name": "follower",
          "type": "address"
        },
        {
          "indexed": true,
          "internalType": "address",
          "name": "creator",
          "type": "address"
        }
      ],
      "name": "ComboUserFollowed",
      "type": "event"
    },
    {
      "anonymous": false,
      "inputs": [
        {
          "indexed": true,
          "internalType": "address",
          "name": "user",
          "type": "address"
        },
        {
          "indexed": false,
          "internalType": "uint256",
          "name": "winRate",
          "type": "uint256"
        },
        {
          "indexed": false,
          "internalType": "uint256",
          "name": "totalVolume",
          "type": "uint256"
        }
      ],
      "name": "ComboUserPerformanceUpdated",
      "type": "event"
    },
    {
      "anonymous": false,
      "inputs": [
        {
          "indexed": true,
          "internalType": "address",
          "name": "follower",
          "type": "address"
        },
        {
          "indexed": true,
          "internalType": "address",
          "name": "creator",
          "type": "address"
        }
      ],
      "name": "ComboUserUnfollowed",
      "type": "event"
    },
    {
      "anonymous": false,
      "inputs": [
        {
          "indexed": true,
          "internalType": "address",
          "name": "previousOwner",
          "type": "address"
        },
        {
          "indexed": true,
          "internalType": "address",
          "name": "newOwner",
          "type": "address"
        }
      ],
      "name": "OwnershipTransferred",
      "type": "event"
    },
    {
      "anonymous": false,
      "inputs": [
        {
          "indexed": true,
          "internalType": "address",
          "name": "user",
          "type": "address"
        },
        {
          "indexed": false,
          "internalType": "enum ReputationSystem.ReputationAction",
          "name": "action",
          "type": "uint8"
        },
        {
          "indexed": false,
          "internalType": "uint256",
          "name": "value",
          "type": "uint256"
        },
        {
          "indexed": true,
          "internalType": "bytes32",
          "name": "poolId",
          "type": "bytes32"
        },
        {
          "indexed": false,
          "internalType": "uint256",
          "name": "timestamp",
          "type": "uint256"
        }
      ],
      "name": "ReputationActionOccurred",
      "type": "event"
    },
    {
      "inputs": [],
      "name": "MAX_CONDITIONS",
      "outputs": [
        {
          "internalType": "uint256",
          "name": "",
          "type": "uint256"
        }
      ],
      "stateMutability": "view",
      "type": "function"
    },
    {
      "inputs": [],
      "name": "MAX_LP_PROVIDERS",
      "outputs": [
        {
          "internalType": "uint256",
          "name": "",
          "type": "uint256"
        }
      ],
      "stateMutability": "view",
      "type": "function"
    },
    {
      "inputs": [],
      "name": "MAX_PARTICIPANTS",
      "outputs": [
        {
          "internalType": "uint256",
          "name": "",
          "type": "uint256"
        }
      ],
      "stateMutability": "view",
      "type": "function"
    },
    {
      "inputs": [],
      "name": "MIN_CONDITIONS",
      "outputs": [
        {
          "internalType": "uint256",
          "name": "",
          "type": "uint256"
        }
      ],
      "stateMutability": "view",
      "type": "function"
    },
    {
      "inputs": [
        {
          "internalType": "uint256",
          "name": "comboPoolId",
          "type": "uint256"
        },
        {
          "internalType": "uint256",
          "name": "amount",
          "type": "uint256"
        }
      ],
      "name": "addComboLiquidity",
      "outputs": [],
      "stateMutability": "payable",
      "type": "function"
    },
    {
      "inputs": [],
      "name": "bettingGracePeriod",
      "outputs": [
        {
          "internalType": "uint256",
          "name": "",
          "type": "uint256"
        }
      ],
      "stateMutability": "view",
      "type": "function"
    },
    {
      "inputs": [],
      "name": "bitrToken",
      "outputs": [
        {
          "internalType": "contract IERC20",
          "name": "",
          "type": "address"
        }
      ],
      "stateMutability": "view",
      "type": "function"
    },
    {
      "inputs": [
        {
          "internalType": "uint256",
          "name": "comboPoolId",
          "type": "uint256"
        }
      ],
      "name": "claimCombo",
      "outputs": [],
      "stateMutability": "nonpayable",
      "type": "function"
    },
    {
      "inputs": [
        {
          "internalType": "uint256",
          "name": "",
          "type": "uint256"
        }
      ],
      "name": "comboAnalytics",
      "outputs": [
        {
          "internalType": "uint256",
          "name": "totalVolume",
          "type": "uint256"
        },
        {
          "internalType": "uint256",
          "name": "participantCount",
          "type": "uint256"
        },
        {
          "internalType": "uint256",
          "name": "averageBetSize",
          "type": "uint256"
        },
        {
          "internalType": "uint256",
          "name": "successRate",
          "type": "uint256"
        },
        {
          "internalType": "uint256",
          "name": "averageOdds",
          "type": "uint256"
        },
        {
          "internalType": "uint256",
          "name": "conditionSuccessRates",
          "type": "uint256"
        },
        {
          "internalType": "uint256",
          "name": "lastActivityTime",
          "type": "uint256"
        }
      ],
      "stateMutability": "view",
      "type": "function"
    },
    {
      "inputs": [
        {
          "internalType": "uint256",
          "name": "",
          "type": "uint256"
        },
        {
          "internalType": "address",
          "name": "",
          "type": "address"
        }
      ],
      "name": "comboBettorStakes",
      "outputs": [
        {
          "internalType": "uint256",
          "name": "",
          "type": "uint256"
        }
      ],
      "stateMutability": "view",
      "type": "function"
    },
    {
      "inputs": [
        {
          "internalType": "bytes32",
          "name": "",
          "type": "bytes32"
        }
      ],
      "name": "comboCategoryTrendScore",
      "outputs": [
        {
          "internalType": "uint256",
          "name": "",
          "type": "uint256"
        }
      ],
      "stateMutability": "view",
      "type": "function"
    },
    {
      "inputs": [
        {
          "internalType": "uint256",
          "name": "",
          "type": "uint256"
        },
        {
          "internalType": "address",
          "name": "",
          "type": "address"
        }
      ],
      "name": "comboClaimed",
      "outputs": [
        {
          "internalType": "bool",
          "name": "",
          "type": "bool"
        }
      ],
      "stateMutability": "view",
      "type": "function"
    },
    {
      "inputs": [
        {
          "internalType": "address",
          "name": "",
          "type": "address"
        }
      ],
      "name": "comboCreatorPerformanceScore",
      "outputs": [
        {
          "internalType": "uint256",
          "name": "",
          "type": "uint256"
        }
      ],
      "stateMutability": "view",
      "type": "function"
    },
    {
      "inputs": [
        {
          "internalType": "uint256",
          "name": "",
          "type": "uint256"
        },
        {
          "internalType": "address",
          "name": "",
          "type": "address"
        }
      ],
      "name": "comboLPStakes",
      "outputs": [
        {
          "internalType": "uint256",
          "name": "",
          "type": "uint256"
        }
      ],
      "stateMutability": "view",
      "type": "function"
    },
    {
      "inputs": [
        {
          "internalType": "uint256",
          "name": "",
          "type": "uint256"
        },
        {
          "internalType": "uint256",
          "name": "",
          "type": "uint256"
        }
      ],
      "name": "comboPoolBettors",
      "outputs": [
        {
          "internalType": "address",
          "name": "",
          "type": "address"
        }
      ],
      "stateMutability": "view",
      "type": "function"
    },
    {
      "inputs": [],
      "name": "comboPoolCount",
      "outputs": [
        {
          "internalType": "uint256",
          "name": "",
          "type": "uint256"
        }
      ],
      "stateMutability": "view",
      "type": "function"
    },
    {
      "inputs": [
        {
          "internalType": "uint256",
          "name": "comboPoolId",
          "type": "uint256"
        }
      ],
      "name": "comboPoolExists",
      "outputs": [
        {
          "internalType": "bool",
          "name": "",
          "type": "bool"
        }
      ],
      "stateMutability": "view",
      "type": "function"
    },
    {
      "inputs": [
        {
          "internalType": "uint256",
          "name": "",
          "type": "uint256"
        },
        {
          "internalType": "uint256",
          "name": "",
          "type": "uint256"
        }
      ],
      "name": "comboPoolLPs",
      "outputs": [
        {
          "internalType": "address",
          "name": "",
          "type": "address"
        }
      ],
      "stateMutability": "view",
      "type": "function"
    },
    {
      "inputs": [
        {
          "internalType": "uint256",
          "name": "",
          "type": "uint256"
        }
      ],
      "name": "comboPoolPerformanceScore",
      "outputs": [
        {
          "internalType": "uint256",
          "name": "",
          "type": "uint256"
        }
      ],
      "stateMutability": "view",
      "type": "function"
    },
    {
      "inputs": [
        {
          "internalType": "uint256",
          "name": "",
          "type": "uint256"
        }
      ],
      "name": "comboPools",
      "outputs": [
        {
          "internalType": "address",
          "name": "creator",
          "type": "address"
        },
        {
          "internalType": "uint256",
          "name": "creatorStake",
          "type": "uint256"
        },
        {
          "internalType": "uint256",
          "name": "totalCreatorSideStake",
          "type": "uint256"
        },
        {
          "internalType": "uint256",
          "name": "maxBettorStake",
          "type": "uint256"
        },
        {
          "internalType": "uint256",
          "name": "totalBettorStake",
          "type": "uint256"
        },
        {
          "internalType": "uint16",
          "name": "totalOdds",
          "type": "uint16"
        },
        {
          "internalType": "uint8",
          "name": "flags",
          "type": "uint8"
        },
        {
          "internalType": "uint8",
          "name": "conditionCount",
          "type": "uint8"
        },
        {
          "internalType": "uint256",
          "name": "eventStartTime",
          "type": "uint256"
        },
        {
          "internalType": "uint256",
          "name": "eventEndTime",
          "type": "uint256"
        },
        {
          "internalType": "uint256",
          "name": "bettingEndTime",
          "type": "uint256"
        },
        {
          "internalType": "uint256",
          "name": "resultTimestamp",
          "type": "uint256"
        },
        {
          "internalType": "bytes32",
          "name": "category",
          "type": "bytes32"
        },
        {
          "internalType": "uint256",
          "name": "maxBetPerUser",
          "type": "uint256"
        }
      ],
      "stateMutability": "view",
      "type": "function"
    },
    {
      "inputs": [],
      "name": "comboStats",
      "outputs": [
        {
          "internalType": "uint256",
          "name": "totalComboPools",
          "type": "uint256"
        },
        {
          "internalType": "uint256",
          "name": "totalComboVolume",
          "type": "uint256"
        },
        {
          "internalType": "uint256",
          "name": "averageConditions",
          "type": "uint256"
        },
        {
          "internalType": "uint256",
          "name": "mostPopularConditionCount",
          "type": "uint256"
        },
        {
          "internalType": "uint256",
          "name": "totalSuccessfulCombos",
          "type": "uint256"
        }
      ],
      "stateMutability": "view",
      "type": "function"
    },
    {
      "inputs": [
        {
          "components": [
            {
              "internalType": "bytes32",
              "name": "marketId",
              "type": "bytes32"
            },
            {
              "internalType": "bytes32",
              "name": "expectedOutcome",
              "type": "bytes32"
            },
            {
              "internalType": "bool",
              "name": "resolved",
              "type": "bool"
            },
            {
              "internalType": "bytes32",
              "name": "actualOutcome",
              "type": "bytes32"
            },
            {
              "internalType": "string",
              "name": "description",
              "type": "string"
            },
            {
              "internalType": "uint16",
              "name": "odds",
              "type": "uint16"
            }
          ],
          "internalType": "struct BitredictComboPools.OutcomeCondition[]",
          "name": "conditions",
          "type": "tuple[]"
        },
        {
          "internalType": "uint16",
          "name": "combinedOdds",
          "type": "uint16"
        },
        {
          "internalType": "uint256",
          "name": "creatorStake",
          "type": "uint256"
        },
        {
          "internalType": "uint256",
          "name": "earliestEventStart",
          "type": "uint256"
        },
        {
          "internalType": "uint256",
          "name": "latestEventEnd",
          "type": "uint256"
        },
        {
          "internalType": "bytes32",
          "name": "categoryHash",
          "type": "bytes32"
        },
        {
          "internalType": "uint256",
          "name": "maxBetPerUser",
          "type": "uint256"
        },
        {
          "internalType": "bool",
          "name": "useBitr",
          "type": "bool"
        }
      ],
      "name": "createComboPool",
      "outputs": [
        {
          "internalType": "uint256",
          "name": "",
          "type": "uint256"
        }
      ],
      "stateMutability": "payable",
      "type": "function"
    },
    {
      "inputs": [],
      "name": "creationFeeBITR",
      "outputs": [
        {
          "internalType": "uint256",
          "name": "",
          "type": "uint256"
        }
      ],
      "stateMutability": "view",
      "type": "function"
    },
    {
      "inputs": [],
      "name": "creationFeeSTT",
      "outputs": [
        {
          "internalType": "uint256",
          "name": "",
          "type": "uint256"
        }
      ],
      "stateMutability": "view",
      "type": "function"
    },
    {
      "inputs": [
        {
          "internalType": "address",
          "name": "stakingContract",
          "type": "address"
        }
      ],
      "name": "distributeFees",
      "outputs": [],
      "stateMutability": "nonpayable",
      "type": "function"
    },
    {
      "inputs": [],
      "name": "feeCollector",
      "outputs": [
        {
          "internalType": "address",
          "name": "",
          "type": "address"
        }
      ],
      "stateMutability": "view",
      "type": "function"
    },
    {
      "inputs": [
        {
          "internalType": "address",
          "name": "creator",
          "type": "address"
        }
      ],
      "name": "followComboCreator",
      "outputs": [],
      "stateMutability": "nonpayable",
      "type": "function"
    },
    {
      "inputs": [],
      "name": "getActiveCombopools",
      "outputs": [
        {
          "internalType": "uint256[]",
          "name": "",
          "type": "uint256[]"
        }
      ],
      "stateMutability": "view",
      "type": "function"
    },
    {
      "inputs": [
        {
          "internalType": "bytes32",
          "name": "categoryHash",
          "type": "bytes32"
        }
      ],
      "name": "getComboCategoryTrendScore",
      "outputs": [
        {
          "internalType": "uint256",
          "name": "",
          "type": "uint256"
        }
      ],
      "stateMutability": "view",
      "type": "function"
    },
    {
      "inputs": [
        {
          "internalType": "address",
          "name": "creator",
          "type": "address"
        }
      ],
      "name": "getComboCreatorPerformanceScore",
      "outputs": [
        {
          "internalType": "uint256",
          "name": "",
          "type": "uint256"
        }
      ],
      "stateMutability": "view",
      "type": "function"
    },
    {
      "inputs": [
        {
          "internalType": "address",
          "name": "user",
          "type": "address"
        }
      ],
      "name": "getComboFollowersList",
      "outputs": [
        {
          "internalType": "address[]",
          "name": "",
          "type": "address[]"
        }
      ],
      "stateMutability": "view",
      "type": "function"
    },
    {
      "inputs": [
        {
          "internalType": "address",
          "name": "user",
          "type": "address"
        }
      ],
      "name": "getComboFollowingList",
      "outputs": [
        {
          "internalType": "address[]",
          "name": "",
          "type": "address[]"
        }
      ],
      "stateMutability": "view",
      "type": "function"
    },
    {
      "inputs": [
        {
          "internalType": "uint256",
          "name": "comboPoolId",
          "type": "uint256"
        }
      ],
      "name": "getComboPool",
      "outputs": [
        {
          "components": [
            {
              "internalType": "address",
              "name": "creator",
              "type": "address"
            },
            {
              "internalType": "uint256",
              "name": "creatorStake",
              "type": "uint256"
            },
            {
              "internalType": "uint256",
              "name": "totalCreatorSideStake",
              "type": "uint256"
            },
            {
              "internalType": "uint256",
              "name": "maxBettorStake",
              "type": "uint256"
            },
            {
              "internalType": "uint256",
              "name": "totalBettorStake",
              "type": "uint256"
            },
            {
              "internalType": "uint16",
              "name": "totalOdds",
              "type": "uint16"
            },
            {
              "internalType": "uint8",
              "name": "flags",
              "type": "uint8"
            },
            {
              "internalType": "uint8",
              "name": "conditionCount",
              "type": "uint8"
            },
            {
              "internalType": "uint256",
              "name": "eventStartTime",
              "type": "uint256"
            },
            {
              "internalType": "uint256",
              "name": "eventEndTime",
              "type": "uint256"
            },
            {
              "internalType": "uint256",
              "name": "bettingEndTime",
              "type": "uint256"
            },
            {
              "internalType": "uint256",
              "name": "resultTimestamp",
              "type": "uint256"
            },
            {
              "internalType": "bytes32",
              "name": "category",
              "type": "bytes32"
            },
            {
              "internalType": "uint256",
              "name": "maxBetPerUser",
              "type": "uint256"
            },
            {
              "components": [
                {
                  "internalType": "bytes32",
                  "name": "marketId",
                  "type": "bytes32"
                },
                {
                  "internalType": "bytes32",
                  "name": "expectedOutcome",
                  "type": "bytes32"
                },
                {
                  "internalType": "bool",
                  "name": "resolved",
                  "type": "bool"
                },
                {
                  "internalType": "bytes32",
                  "name": "actualOutcome",
                  "type": "bytes32"
                },
                {
                  "internalType": "string",
                  "name": "description",
                  "type": "string"
                },
                {
                  "internalType": "uint16",
                  "name": "odds",
                  "type": "uint16"
                }
              ],
              "internalType": "struct BitredictComboPools.OutcomeCondition[]",
              "name": "conditions",
              "type": "tuple[]"
            }
          ],
          "internalType": "struct BitredictComboPools.ComboPool",
          "name": "",
          "type": "tuple"
        }
      ],
      "stateMutability": "view",
      "type": "function"
    },
    {
      "inputs": [
        {
          "internalType": "uint256",
          "name": "comboPoolId",
          "type": "uint256"
        }
      ],
      "name": "getComboPoolAnalytics",
      "outputs": [
        {
          "components": [
            {
              "internalType": "uint256",
              "name": "totalVolume",
              "type": "uint256"
            },
            {
              "internalType": "uint256",
              "name": "participantCount",
              "type": "uint256"
            },
            {
              "internalType": "uint256",
              "name": "averageBetSize",
              "type": "uint256"
            },
            {
              "internalType": "uint256",
              "name": "successRate",
              "type": "uint256"
            },
            {
              "internalType": "uint256",
              "name": "averageOdds",
              "type": "uint256"
            },
            {
              "internalType": "uint256",
              "name": "conditionSuccessRates",
              "type": "uint256"
            },
            {
              "internalType": "uint256",
              "name": "lastActivityTime",
              "type": "uint256"
            }
          ],
          "internalType": "struct BitredictComboPools.ComboAnalytics",
          "name": "",
          "type": "tuple"
        }
      ],
      "stateMutability": "view",
      "type": "function"
    },
    {
      "inputs": [
        {
          "internalType": "uint256",
          "name": "comboPoolId",
          "type": "uint256"
        }
      ],
      "name": "getComboPoolConditions",
      "outputs": [
        {
          "components": [
            {
              "internalType": "bytes32",
              "name": "marketId",
              "type": "bytes32"
            },
            {
              "internalType": "bytes32",
              "name": "expectedOutcome",
              "type": "bytes32"
            },
            {
              "internalType": "bool",
              "name": "resolved",
              "type": "bool"
            },
            {
              "internalType": "bytes32",
              "name": "actualOutcome",
              "type": "bytes32"
            },
            {
              "internalType": "string",
              "name": "description",
              "type": "string"
            },
            {
              "internalType": "uint16",
              "name": "odds",
              "type": "uint16"
            }
          ],
          "internalType": "struct BitredictComboPools.OutcomeCondition[]",
          "name": "",
          "type": "tuple[]"
        }
      ],
      "stateMutability": "view",
      "type": "function"
    },
    {
      "inputs": [
        {
          "internalType": "uint256",
          "name": "comboPoolId",
          "type": "uint256"
        }
      ],
      "name": "getComboPoolPerformanceScore",
      "outputs": [
        {
          "internalType": "uint256",
          "name": "",
          "type": "uint256"
        }
      ],
      "stateMutability": "view",
      "type": "function"
    },
    {
      "inputs": [
        {
          "internalType": "uint256",
          "name": "comboPoolId",
          "type": "uint256"
        }
      ],
      "name": "getComboPoolWithType",
      "outputs": [
        {
          "components": [
            {
              "internalType": "address",
              "name": "creator",
              "type": "address"
            },
            {
              "internalType": "uint256",
              "name": "creatorStake",
              "type": "uint256"
            },
            {
              "internalType": "uint256",
              "name": "totalCreatorSideStake",
              "type": "uint256"
            },
            {
              "internalType": "uint256",
              "name": "maxBettorStake",
              "type": "uint256"
            },
            {
              "internalType": "uint256",
              "name": "totalBettorStake",
              "type": "uint256"
            },
            {
              "internalType": "uint16",
              "name": "totalOdds",
              "type": "uint16"
            },
            {
              "internalType": "uint8",
              "name": "flags",
              "type": "uint8"
            },
            {
              "internalType": "uint8",
              "name": "conditionCount",
              "type": "uint8"
            },
            {
              "internalType": "uint256",
              "name": "eventStartTime",
              "type": "uint256"
            },
            {
              "internalType": "uint256",
              "name": "eventEndTime",
              "type": "uint256"
            },
            {
              "internalType": "uint256",
              "name": "bettingEndTime",
              "type": "uint256"
            },
            {
              "internalType": "uint256",
              "name": "resultTimestamp",
              "type": "uint256"
            },
            {
              "internalType": "bytes32",
              "name": "category",
              "type": "bytes32"
            },
            {
              "internalType": "uint256",
              "name": "maxBetPerUser",
              "type": "uint256"
            },
            {
              "components": [
                {
                  "internalType": "bytes32",
                  "name": "marketId",
                  "type": "bytes32"
                },
                {
                  "internalType": "bytes32",
                  "name": "expectedOutcome",
                  "type": "bytes32"
                },
                {
                  "internalType": "bool",
                  "name": "resolved",
                  "type": "bool"
                },
                {
                  "internalType": "bytes32",
                  "name": "actualOutcome",
                  "type": "bytes32"
                },
                {
                  "internalType": "string",
                  "name": "description",
                  "type": "string"
                },
                {
                  "internalType": "uint16",
                  "name": "odds",
                  "type": "uint16"
                }
              ],
              "internalType": "struct BitredictComboPools.OutcomeCondition[]",
              "name": "conditions",
              "type": "tuple[]"
            }
          ],
          "internalType": "struct BitredictComboPools.ComboPool",
          "name": "pool",
          "type": "tuple"
        },
        {
          "internalType": "string",
          "name": "poolType",
          "type": "string"
        }
      ],
      "stateMutability": "view",
      "type": "function"
    },
    {
      "inputs": [
        {
          "internalType": "address",
          "name": "creator",
          "type": "address"
        }
      ],
      "name": "getComboPoolsByCreator",
      "outputs": [
        {
          "internalType": "uint256[]",
          "name": "",
          "type": "uint256[]"
        }
      ],
      "stateMutability": "view",
      "type": "function"
    },
    {
      "inputs": [],
      "name": "getComboStats",
      "outputs": [
        {
          "internalType": "uint256",
          "name": "totalPools",
          "type": "uint256"
        },
        {
          "internalType": "uint256",
          "name": "totalVolume",
          "type": "uint256"
        },
        {
          "internalType": "uint256",
          "name": "averageConditions",
          "type": "uint256"
        },
        {
          "internalType": "uint256",
          "name": "mostPopularConditionCount",
          "type": "uint256"
        },
        {
          "internalType": "uint256",
          "name": "totalSuccessful",
          "type": "uint256"
        }
      ],
      "stateMutability": "view",
      "type": "function"
    },
    {
      "inputs": [
        {
          "internalType": "address",
          "name": "user",
          "type": "address"
        }
      ],
      "name": "getUserComboBettingHistory",
      "outputs": [
        {
          "internalType": "uint256[]",
          "name": "",
          "type": "uint256[]"
        }
      ],
      "stateMutability": "view",
      "type": "function"
    },
    {
      "inputs": [
        {
          "internalType": "address",
          "name": "user",
          "type": "address"
        }
      ],
      "name": "getUserComboStats",
      "outputs": [
        {
          "internalType": "uint256",
          "name": "totalBets",
          "type": "uint256"
        },
        {
          "internalType": "uint256",
          "name": "totalWins",
          "type": "uint256"
        },
        {
          "internalType": "uint256",
          "name": "totalVolume",
          "type": "uint256"
        },
        {
          "internalType": "uint256",
          "name": "winRate",
          "type": "uint256"
        }
      ],
      "stateMutability": "view",
      "type": "function"
    },
    {
      "inputs": [
        {
          "internalType": "bytes32",
          "name": "",
          "type": "bytes32"
        }
      ],
      "name": "isComboFollowing",
      "outputs": [
        {
          "internalType": "bool",
          "name": "",
          "type": "bool"
        }
      ],
      "stateMutability": "view",
      "type": "function"
    },
    {
      "inputs": [],
      "name": "minBetAmount",
      "outputs": [
        {
          "internalType": "uint256",
          "name": "",
          "type": "uint256"
        }
      ],
      "stateMutability": "view",
      "type": "function"
    },
    {
      "inputs": [],
      "name": "minPoolStakeBITR",
      "outputs": [
        {
          "internalType": "uint256",
          "name": "",
          "type": "uint256"
        }
      ],
      "stateMutability": "view",
      "type": "function"
    },
    {
      "inputs": [],
      "name": "minPoolStakeSTT",
      "outputs": [
        {
          "internalType": "uint256",
          "name": "",
          "type": "uint256"
        }
      ],
      "stateMutability": "view",
      "type": "function"
    },
    {
      "inputs": [],
      "name": "owner",
      "outputs": [
        {
          "internalType": "address",
          "name": "",
          "type": "address"
        }
      ],
      "stateMutability": "view",
      "type": "function"
    },
    {
      "inputs": [
        {
          "internalType": "uint256",
          "name": "comboPoolId",
          "type": "uint256"
        },
        {
          "internalType": "uint256",
          "name": "amount",
          "type": "uint256"
        }
      ],
      "name": "placeComboBet",
      "outputs": [],
      "stateMutability": "payable",
      "type": "function"
    },
    {
      "inputs": [],
      "name": "poolCore",
      "outputs": [
        {
          "internalType": "contract BitredictPoolCore",
          "name": "",
          "type": "address"
        }
      ],
      "stateMutability": "view",
      "type": "function"
    },
    {
      "inputs": [
        {
          "internalType": "uint256",
          "name": "comboPoolId",
          "type": "uint256"
        }
      ],
      "name": "refundComboPool",
      "outputs": [],
      "stateMutability": "nonpayable",
      "type": "function"
    },
    {
      "inputs": [],
      "name": "renounceOwnership",
      "outputs": [],
      "stateMutability": "nonpayable",
      "type": "function"
    },
    {
      "inputs": [
        {
          "internalType": "uint256",
          "name": "comboPoolId",
          "type": "uint256"
        },
        {
          "internalType": "uint256",
          "name": "conditionIndex",
          "type": "uint256"
        },
        {
          "internalType": "bytes32",
          "name": "actualOutcome",
          "type": "bytes32"
        }
      ],
      "name": "resolveComboCondition",
      "outputs": [],
      "stateMutability": "nonpayable",
      "type": "function"
    },
    {
      "inputs": [],
      "name": "totalCollectedBITR",
      "outputs": [
        {
          "internalType": "uint256",
          "name": "",
          "type": "uint256"
        }
      ],
      "stateMutability": "view",
      "type": "function"
    },
    {
      "inputs": [],
      "name": "totalCollectedSTT",
      "outputs": [
        {
          "internalType": "uint256",
          "name": "",
          "type": "uint256"
        }
      ],
      "stateMutability": "view",
      "type": "function"
    },
    {
      "inputs": [
        {
          "internalType": "address",
          "name": "newOwner",
          "type": "address"
        }
      ],
      "name": "transferOwnership",
      "outputs": [],
      "stateMutability": "nonpayable",
      "type": "function"
    },
    {
      "inputs": [
        {
          "internalType": "address",
          "name": "creator",
          "type": "address"
        }
      ],
      "name": "unfollowComboCreator",
      "outputs": [],
      "stateMutability": "nonpayable",
      "type": "function"
    },
    {
      "inputs": [
        {
          "internalType": "address",
          "name": "",
          "type": "address"
        },
        {
          "internalType": "uint256",
          "name": "",
          "type": "uint256"
        }
      ],
      "name": "userComboBettingHistory",
      "outputs": [
        {
          "internalType": "uint256",
          "name": "",
          "type": "uint256"
        }
      ],
      "stateMutability": "view",
      "type": "function"
    },
    {
      "inputs": [
        {
          "internalType": "address",
          "name": "",
          "type": "address"
        },
        {
          "internalType": "uint256",
          "name": "",
          "type": "uint256"
        }
      ],
      "name": "userComboFollowers",
      "outputs": [
        {
          "internalType": "address",
          "name": "",
          "type": "address"
        }
      ],
      "stateMutability": "view",
      "type": "function"
    },
    {
      "inputs": [
        {
          "internalType": "address",
          "name": "",
          "type": "address"
        },
        {
          "internalType": "uint256",
          "name": "",
          "type": "uint256"
        }
      ],
      "name": "userComboFollowing",
      "outputs": [
        {
          "internalType": "address",
          "name": "",
          "type": "address"
        }
      ],
      "stateMutability": "view",
      "type": "function"
    },
    {
      "inputs": [
        {
          "internalType": "address",
          "name": "",
          "type": "address"
        },
        {
          "internalType": "uint256",
          "name": "",
          "type": "uint256"
        }
      ],
      "name": "userComboPoolHistory",
      "outputs": [
        {
          "internalType": "uint256",
          "name": "",
          "type": "uint256"
        }
      ],
      "stateMutability": "view",
      "type": "function"
    },
    {
      "inputs": [
        {
          "internalType": "address",
          "name": "",
          "type": "address"
        }
      ],
      "name": "userComboTotalBets",
      "outputs": [
        {
          "internalType": "uint256",
          "name": "",
          "type": "uint256"
        }
      ],
      "stateMutability": "view",
      "type": "function"
    },
    {
      "inputs": [
        {
          "internalType": "address",
          "name": "",
          "type": "address"
        }
      ],
      "name": "userComboTotalVolume",
      "outputs": [
        {
          "internalType": "uint256",
          "name": "",
          "type": "uint256"
        }
      ],
      "stateMutability": "view",
      "type": "function"
    },
    {
      "inputs": [
        {
          "internalType": "address",
          "name": "",
          "type": "address"
        }
      ],
      "name": "userComboTotalWins",
      "outputs": [
        {
          "internalType": "uint256",
          "name": "",
          "type": "uint256"
        }
      ],
      "stateMutability": "view",
      "type": "function"
    },
    {
      "inputs": [
        {
          "internalType": "address",
          "name": "",
          "type": "address"
        }
      ],
      "name": "userComboWinRate",
      "outputs": [
        {
          "internalType": "uint256",
          "name": "",
          "type": "uint256"
        }
      ],
      "stateMutability": "view",
      "type": "function"
    }
  ],
  "bytecode": "0x60a034620001f357601f6200438b38819003918201601f191683019291906001600160401b03841183851017620001f8578160609284926040968752833981010312620001f35762000051816200020e565b6200006c8362000064602085016200020e565b93016200020e565b3315620001db5760008054336001600160a01b03198083168217845587519396939590946001600160a01b0393909284929183167f8be0079c531659141344cd1fd0a4f28419497f9722a3daafe3b4186f6b6457e08a80a36001805516948515620001995750818316156200015557169283156200011d57826002541617600255608052600354161760035580601a55601b55516141679081620002248239608051818181611a3101526122580152f35b855162461bcd60e51b8152602060048201526011602482015270496e76616c696420706f6f6c20636f726560781b6044820152606490fd5b865162461bcd60e51b815260206004820152601560248201527f496e76616c69642066656520636f6c6c6563746f7200000000000000000000006044820152606490fd5b62461bcd60e51b815260206004820152601460248201527f496e76616c6964204249545220616464726573730000000000000000000000006044820152606490fd5b8351631e4fbdf760e01b815260006004820152602490fd5b600080fd5b634e487b7160e01b600052604160045260246000fd5b51906001600160a01b0382168203620001f35756fe608080604052600436101561001357600080fd5b60e0600035811c91826301b708c21461356d5750816301e59b14146134c057816310d03252146133ee57816311f7dad6146133055781631afdd5a2146132bc5781631c6b3f76146132a05781632047ece0146115915781632146b694146132665781632c426ab9146131ac578163325643501461318957816338a2a398146124d457816338cac0c2146131605781634a2c11f5146130865781634b79d8ba14610f865781634c2809f114610d535781634d7aae7814613062578163598f2d8414612cfd5781635d6043bf14612c92578163620503e214612977578163657c183f1461295b578163688a1cf9146127e057816369b64a9e146127be5781636b65761214612771578163715018a61461272a5781637d31aafe14611bab5781637d3bfe93146126e05781637ed83b9c146126a65781638175c0d61461259f5750806384499bb61461257b57806389bf10ec146125005780638a458bf4146124d45780638da5cb5b146124ab5780638f63f7481461248d5780639413f25c146122335780639a81b35c14612202578063a0b310df146121ba578063a3e6fb9f14611cc9578063a7a891bf14611c98578063aac137d614611c7a578063ab78cc1514611c5e578063ab91a5c114611bd7578063b474877514611bab578063c105a19514611ae4578063c2bc8ecb14611a60578063c415b95c14611a1b578063c4baad8114611711578063ccd4626714611613578063d0f808be146115cb578063d3f7d7fc14611591578063d9b7f3ee14611575578063dd961d441461151c578063e0de55d014610fcf578063eb3af72814610f86578063f05e252514610f68578063f0f0077514610eff578063f23b420f14610eb5578063f2fde38b14610e41578063f3baf07014610e24578063f3c7e44914610dea578063f52980fe14610db0578063f931d45814610d58578063fa968eea14610d535763fe409c9f146102d657600080fd5b610100366003190112610c68576004356001600160401b038111610c685736602382011215610c6857806004013561030d816138bb565b9161031b6040519384613898565b8183526024602084019260051b82010190368211610c685760248101925b828410610c6d578461ffff6024351660243503610c685760e435151560e43503610c6857610365613b0f565b805160028110159081610c5c575b5015610c1d57606461ffff602435161180610c0b575b15610bce5760e43515610b7d57683635c9adc5dea0000060443510610b3d575b603c4201804211610a47576064351115610b07576064356084351115610acc5760005b81518110156104da576103df8183613935565b5151156104a15760206103f28284613935565b5101511561046157606461ffff60a061040b8486613935565b5101511611156104235761041e90613926565b6103cc565b60405162461bcd60e51b8152602060048201526016602482015275496e76616c696420636f6e646974696f6e206f64647360501b6044820152606490fd5b60405162461bcd60e51b8152602060048201526018602482015277496e76616c6964206578706563746564206f7574636f6d6560401b6044820152606490fd5b60405162461bcd60e51b8152602060048201526011602482015270125b9d985b1a59081b585c9ad95d081251607a1b6044820152606490fd5b5060e43515610abe576802b5e3af16b18800005b6104fa60443582613919565b9060e43515610aa057602061053560009360018060a01b0360025416906040519586809481936323b872dd60e01b83523033600485016139a4565b03925af1918215610a945761055e9261055691600091610a65575b506139c6565b600654613919565b6006555b6064604435026044358104606414604435151715610a47576105939061ffff61058c602435613a1c565b1690613a30565b90606435603b19810111610a4757600060e435610a5d575b60048054600090815260076020526040812080546001600160a01b0319163317815560443560018201819055600282015560038101959095559084015560058301805461ffff191660243561ffff161781559192919061060b9082613a5d565b825163ff00000082549160181b169063ff000000191617905560643560068201556084356007820155603b196064350160088201556000600982015560a435600a82015560c435600b8201556000915b805183101561084c5761066e8382613935565b5192600c830154600160401b811015610820578060016106979201600c860155600c8501613a75565b949094610836578051855560208101516001860155600285016040820151151560ff8019835416911617905560608101516003860155608081015194855160018060401b038111610820576106ef6004830154613a91565b601f81116107d9575b506020601f821160011461075d5761ffff928260a09360059361074b999a9b600092610752575b50508160011b916000199060031b1c19161760048201555b019201511661ffff19825416179055613926565b919061065b565b015190508b8061071f565b6004830160005260206000209760005b601f19841681106107c157509260018361074b98999a60059461ffff9760a097601f198116106107a8575b505050811b016004820155610737565b015160001960f88460031b161c191690558b8080610798565b828201518a556001909901986020928301920161076d565b600483016000526020600020601f830160051c810160208410610819575b601f830160051c8201811061080d5750506106f8565b600081556001016107f7565b50806107f7565b634e487b7160e01b600052604160045260246000fd5b634e487b7160e01b600052600060045260246000fd5b60405161085881613862565b6044358152600660208201600181526040830160443581526060840160008152608085019061ffff60243516825260a08601926000845260c0870194428652600454600052600d60205260406000209751885551600188015551600287015551600386015551600485015551600584015551910155600454600052600a6020526108e6336040600020613acb565b600454600052600b60205260406000203360005260205260443560406000205560ff81511690610917601a54613926565b601a55610928604435601b54613919565b601b5581600052601f60205260406000206109438154613926565b905560a43560005260208052604060002061095e8154613926565b9055601c5491601a54600019810190808211610a475761098c8361098761099194602098613a09565b613919565b613a30565b601c5580600052601f835260406000205460ff601d541660005260406000205410610a3e575b50600454905160405190815261ffff602435168382015260a4356040820152817f8aaa57ddda1c9d3a6b942344d9f1cd31002ce9a2db4dec13877c4917dd1bbdc660603393a380604051600081526044358482015242604082015260008051602061407283398151915260603392a3610a2f81613926565b60045560018055604051908152f35b601d55826109b7565b634e487b7160e01b600052601160045260246000fd5b5060046105ab565b610a87915060203d602011610a8d575b610a7f8183613898565b81019061398c565b85610550565b503d610a75565b6040513d6000823e3d90fd5b610aae610ab6923414613949565b600554613919565b600555610562565b670de0b6b3a76400006104ee565b60405162461bcd60e51b8152602060048201526013602482015272496e76616c6964206576656e742074696d657360681b6044820152606490fd5b60405162461bcd60e51b815260206004820152600e60248201526d22bb32b73a103a37b79039b7b7b760911b6044820152606490fd5b60405162461bcd60e51b815260206004820152601860248201527742495452207374616b652062656c6f77206d696e696d756d60401b6044820152606490fd5b674563918244f4000060443510156103a95760405162461bcd60e51b8152602060048201526017602482015276535454207374616b652062656c6f77206d696e696d756d60481b6044820152606490fd5b60405162461bcd60e51b8152602060048201526015602482015274496e76616c696420636f6d62696e6564206f64647360581b6044820152606490fd5b5061c35061ffff602435161115610389565b60405162461bcd60e51b8152602060048201526017602482015276125b9d985b1a590818dbdb991a5d1a5bdb8818dbdd5b9d604a1b6044820152606490fd5b60059150111582610373565b600080fd5b83356001600160401b038111610c685782019060c06023198336030112610c685760405191610c9b8361387d565b6024810135835260449081810135602085015260648101358015158103610c685760408501526084810135606085015260a48101356001600160401b038111610c685781019136604384011215610c6857602483013592610cfb846138d2565b91610d096040519384613898565b84835236818684010111610c68578460c495602092600094018386013783010152608085015201359061ffff82168203610c6857826020939260a085940152815201930192610339565b6137c9565b34610c68576040366003190112610c6857610d71613734565b6001600160a01b03166000908152600f6020526040902080546024359190821015610c6857602091610da291613760565b90546040519160031b1c8152f35b34610c68576020366003190112610c68576001600160a01b03610dd1613734565b1660005260116020526020604060002054604051908152f35b34610c68576020366003190112610c68576001600160a01b03610e0b613734565b1660005260136020526020604060002054604051908152f35b34610c68576000366003190112610c685760206040516101f48152f35b34610c68576020366003190112610c6857610e5a613734565b610e626138ed565b6001600160a01b03908116908115610e9c576000548260018060a01b0319821617600055166000805160206140f2833981519152600080a3005b604051631e4fbdf760e01b815260006004820152602490fd5b34610c6857610ec3366137ec565b90600052600a60205260406000208054821015610c6857602091610ee691613760565b905460405160039290921b1c6001600160a01b03168152f35b34610c6857602080600319360112610c68576080906001600160a01b03610f24613734565b166000526010815260406000205490601181526040600020546012825260406000205490601383526040600020549260405194855284015260408301526060820152f35b34610c68576000366003190112610c68576020600454604051908152f35b34610c68576000366003190112610c6857601a54601b54601c54601d54601e54604080519586526020860194909452928401919091526060830152608082015260a090f35b0390f35b34610c6857602080600319360112610c6857600435610ff16004548210613b32565b610ff9613b0f565b8060005260078252604060002061100f82613e35565b156114e95781600052600c8352604060002033600052835260ff604060002054166114b2576000828152600c8452604080822033835285528120805460ff1916600117905561105d83613e51565b156113435782600052600b8452604060002033600052845260406000205491821580156112ff575b50505b80611094575b60018055005b61109d83613e6d565b156112b05760025460405163a9059cbb60e01b815290859082906001600160a01b0316816000816110d2883360048401613c21565b03925af1908115610a9457600091611293575b5015611259575b604051908152827f896747df6f85f68aa379fda7483f2ff76dfa9d71e793ab17d4e7fa56f7613b96853393a361112182613e51565b159133600052600e8452604060002090815491600160401b831015610820578261115391600161116c95018155613760565b90919082549060031b91821b91600019901b1916179055565b336000526010835260406000206111838154613926565b9055336000526012835261119d6040600020918254613919565b905561123b575b33600052601081526040600020546111f3575b6013815260406000205490601281526040600020549060405192835282015260008051602061409283398151915260403392a28080808061108e565b60118152604060002054606481029080820460641490151715610a475761122890336000526010835260406000205490613a30565b33600052601382526040600020556111b7565b336000526011815260406000206112528154613926565b90556111a4565b60405162461bcd60e51b815260048101859052601260248201527110925514881c185e5bdd5d0819985a5b195960721b6044820152606490fd5b6112aa9150853d8711610a8d57610a7f8183613898565b856110e5565b600080808084335af16112c1613bf1565b506110ec5760405162461bcd60e51b815260048101859052601160248201527014d515081c185e5bdd5d0819985a5b1959607a1b6044820152606490fd5b909150612710908184029084820483141715610a475782600461132d61133593600261133c97015490613a30565b910154613a09565b0482613919565b8480611085565b826000526009845260406000203360005284526040600020549182611369575b50611088565b6064915061ffff600561137f9201541683613a09565b04602461138c8383613a50565b6003546040516314d2bdc760e31b815233600482015292879184919082906001600160a01b03165afa918215610a9457600092611481575b506113d56113dd9261271092613a09565b048092613a50565b9080611449575b506113ee83613e6d565b1561143857686c6b935b8bbd4000008210155b61140c575b84611363565b8260405160038152838682015242604082015260008051602061407283398151915260603392a3611406565b678ac7230489e80000821015611401565b61145284613e6d565b1561146d5761146390600654613919565b6006555b846113e4565b61147990600554613919565b600555611467565b91508582813d83116114ab575b6114988183613898565b81010312610c68579051906113d56113c4565b503d61148e565b60405162461bcd60e51b815260048101849052600f60248201526e105b1c9958591e4818db185a5b5959608a1b6044820152606490fd5b60405162461bcd60e51b815260048101849052600b60248201526a139bdd081cd95d1d1b195960aa1b6044820152606490fd5b34610c68576040366003190112610c6857611535613734565b6024359060018060a01b03809116600052601560205260406000208054831015610c685760209261156591613760565b9190546040519260031b1c168152f35b34610c68576000366003190112610c6857602060405160058152f35b34610c68576020366003190112610c68576001600160a01b036115b2613734565b1660005260196020526020604060002054604051908152f35b34610c68576040366003190112610c68576115e461374a565b600435600052600960205260406000209060018060a01b03166000526020526020604060002054604051908152f35b34610c6857602080600319360112610c685761162d613734565b6040518281019061165181611643853386613e11565b03601f198101835282613898565b519020806000526016835260ff60406000205416156116dc579060159160005260168352604060002060ff1981541690553360005260148352611698816040600020613e89565b60018060a01b03169182600052526116b4336040600020613e89565b337f180b6c6ae7441238ebe20ba9b93bb876fd46b5916b668a6ca544c72f287f9aec600080a3005b60405162461bcd60e51b815260048101849052600d60248201526c4e6f7420666f6c6c6f77696e6760981b6044820152606490fd5b34610c68576060366003190112610c6857600435602435604435906117396004548410613b32565b826000526020906007825260406000209161175385613e35565b6119e057600c830180548310156119a15761176e8382613a75565b509360ff806002809701541661195f57877f9b9c7dfe7b31d72aad3040b71d4340892a60d2b251551c28ed1d9387994cc09e6060886117ad8988613a75565b5001976001988960ff198254161790556117c78188613a75565b509a806003809d0155896117db838a613a75565b500154811490604051928352898301526040820152a282546000959081875b8281106118fb575b50806118ed575b61180f57005b86109687611829600586019385855460101c161784613a5d565b6118d4575b5050506009429101555485600052600d8252604060002090808414600014611896575090606093929160056000805160206140b283398151915296611874601e54613926565b601e556064818401555b820154910155604051928352820152426040820152a2005b93929190606483029483860460641484151715610a47576000805160206140b2833981519152966118cb600592606098613a30565b8184015561187e565b6118e592825460101c161790613a5d565b87808061182e565b506007840154421015611809565b848a611907838a613a75565b5001541615611955578a61191b8289613a75565b50015484611929838a613a75565b50015414611940575b61193b90613926565b6117fa565b9761194d61193b91613926565b989050611932565b505060008b611802565b60405162461bcd60e51b815260048101859052601a60248201527910dbdb991a5d1a5bdb88185b1c9958591e481c995cdbdb1d995960321b6044820152606490fd5b60405162461bcd60e51b8152600481018390526017602482015276092dcecc2d8d2c840c6dedcc8d2e8d2dedc40d2dcc8caf604b1b6044820152606490fd5b6064906040519062461bcd60e51b825260048201526014602482015273141bdbdb08185b1c9958591e481cd95d1d1b195960621b6044820152fd5b34610c68576000366003190112610c68576040517f00000000000000000000000000000000000000000000000000000000000000006001600160a01b03168152602090f35b34610c6857602080600319360112610c68576001600160a01b03611a82613734565b16600052600e8152604060002090604051908181845491828152019360005281600020916000905b828210611acd57610fcb85611ac181890382613898565b6040519182918261378e565b835486529485019460019384019390910190611aaa565b34610c6857602080600319360112610c6857611afe613734565b600454611b0a81613ddf565b926000926001600160a01b0390811691845b848110611b6b578686611b2e81613ddf565b9160005b828110611b475760405180610fcb868261378e565b80611b55611b669284613935565b51611b608287613935565b52613926565b611b32565b806000526007825283836040600020541614611b90575b611b8b90613926565b611b1c565b94611ba38187611b60611b8b948b613935565b959050611b82565b34610c68576020366003190112610c685760043560005260186020526020604060002054604051908152f35b34610c6857602080600319360112610c68576001600160a01b0380611bfa613734565b1660005260158252604060002091604051809282855492838152019460005282600020926000915b838310611c4557610fcb86611c39818a0382613898565b60405191829182613802565b8454811687529581019560019485019490920191611c22565b34610c68576000366003190112610c68576020604051603c8152f35b34610c68576000366003190112610c68576020600554604051908152f35b34610c6857611ca6366137ec565b90600052600860205260406000208054821015610c6857602091610ee691613760565b34610c6857602080600319360112610c685760043590611cec6004548310613b32565b81600052600781526040600020611d0283613e35565b61218357600781015462093a808101809111610a475742111561214257600501611d386001918260ff825460101c161790613a5d565b82600052600a82528060406000206040519081858254918281520191600052856000209060005b87828210612126575050505081611d77910382613898565b6000825b611fae575b50505082600052600882526040600020604051808285829454938481520190600052856000209260005b8688838310611f905750505050611dc392500382613898565b6000825b611e1b575b847fce9b0ae858e2bcf13d6c2af0f97f73bccb20257d69e4c8f7ea9fe44841da86e86060866012604051918083528201527114995cdbdb1d5d1a5bdb881d1a5b595bdd5d60721b6040820152a2005b8151811015611f8b576001600160a01b038481611e388486613935565b5116876000526009825260406000208160005282526040600020549081611e6d575b50505050611e6790613926565b82611dc7565b611e7689613e6d565b15611f2757611ea2936002541690600060405180968195829463a9059cbb60e01b845260048401613c21565b03925af1908115610a9457600091611f0a575b5015611ec957611e67905b90848780611e5a565b60405162461bcd60e51b8152600481018590526019602482015278109255148818995d1d1bdc881c99599d5b990819985a5b1959603a1b6044820152606490fd5b611f219150853d8711610a8d57610a7f8183613898565b86611eb5565b60009350839250829182915af1611f3c613bf1565b5015611f4b57611e6790611ec0565b60405162461bcd60e51b815260048101859052601860248201527714d5150818995d1d1bdc881c99599d5b990819985a5b195960421b6044820152606490fd5b611dcc565b86546001600160a01b03168552958101958795509093019201611daa565b8151811015612121576001600160a01b038581611fcb8486613935565b511688600052600b825260406000208160005282526040600020549081612000575b50505050611ffa90613926565b82611d7b565b9091929394955061201089613e6d565b156120bf5761203c936002541690600060405180968195829463a9059cbb60e01b845260048401613c21565b03925af1908115610a94576000916120a2575b50156120655790611ffa83925b90858880611fed565b60405162461bcd60e51b815260048101859052601560248201527410925514881314081c99599d5b990819985a5b1959605a1b6044820152606490fd5b6120b99150853d8711610a8d57610a7f8183613898565b8661204f565b60009350839250829182915af16120d4613bf1565b50156120e55790611ffa839261205c565b60405162461bcd60e51b815260048101859052601460248201527314d515081314081c99599d5b990819985a5b195960621b6044820152606490fd5b611d80565b83546001600160a01b0316855287969401939283019201611d5f565b60405162461bcd60e51b81526004810183905260196024820152781499599d5b99081c195c9a5bd9081b9bdd081c995858da1959603a1b6044820152606490fd5b60405162461bcd60e51b815260048101839052600f60248201526e105b1c9958591e481cd95d1d1b1959608a1b6044820152606490fd5b34610c68576040366003190112610c68576121d361374a565b600435600052600b60205260406000209060018060a01b03166000526020526020604060002054604051908152f35b34610c68576020366003190112610c68576004356000526016602052602060ff604060002054166040519015158152f35b34610c6857602080600319360112610c685761224d613734565b6001600160a01b03907f00000000000000000000000000000000000000000000000000000000000000008281169033829003612453576005546006549281158015612366575b50505081159283156122a157005b601e830293838504601e141715610a4757856122ee60646000960494866006556122d086896002541692613a50565b60405197888094819363a9059cbb60e01b998a845260048401613c21565b03925af18015610a9457612321958795600092612349575b50600254169260405196879586948593845260048401613c21565b03925af18015610a945761233157005b8161234792903d10610a8d57610a7f8183613898565b005b61235f90873d8911610a8d57610a7f8183613898565b5088612306565b601e830290838204601e141715610a4757600080809361238f6064839504809784600555613a50565b905af161239a613bf1565b5015612404576000808080938888165af16123b3613bf1565b50156123c157858080612293565b60405162461bcd60e51b815260048101869052601b60248201527a14d515081cdd185ada5b99c81d1c985b9cd9995c8819985a5b1959602a1b6044820152606490fd5b60405162461bcd60e51b815260048101879052602160248201527f5354542066656520636f6c6c6563746f72207472616e73666572206661696c656044820152601960fa1b6064820152608490fd5b60405162461bcd60e51b815260048101869052601260248201527127b7363c903332b29031b7b63632b1ba37b960711b6044820152606490fd5b34610c68576000366003190112610c68576020600654604051908152f35b34610c68576000366003190112610c68576000546040516001600160a01b039091168152602090f35b34610c68576020366003190112610c685760043560005260176020526020604060002054604051908152f35b34610c6857602080600319360112610c68576001600160a01b0380612523613734565b1660005260148252604060002091604051809282855492838152019460005282600020926000915b83831061256257610fcb86611c39818a0382613898565b845481168752958101956001948501949092019161254b565b34610c68576000366003190112610c685760206040516802b5e3af16b18800008152f35b34610c68576020366003190112610c6857610fcb906004356125bf613c3c565b506125cd6004548210613b32565b600052600760205261268c600c6040600020604051936125ec85613846565b60018060a01b0382541685526001820154602086015260028201546040860152600382015460608601526004820154608086015260ff600583015461ffff811660a0880152818160101c1660c088015260181c16908501526006810154610100850152600781015461012085015260088101546101408501526009810154610160850152600a810154610180850152600b8101546101a085015201613caa565b6101c08201526040519182916020835260208301906135d1565b34610c68576020366003190112610c68576001600160a01b036126c7613734565b1660005260126020526020604060002054604051908152f35b34610c68576040366003190112610c68576126f9613734565b6001600160a01b03166000908152600e6020526040902080546024359190821015610c6857602091610da291613760565b34610c68576000366003190112610c68576127436138ed565b600080546001600160a01b0319811682556001600160a01b03166000805160206140f28339815191528280a3005b34610c68576040366003190112610c685761278a61374a565b600435600052600c60205260406000209060018060a01b0316600052602052602060ff604060002054166040519015158152f35b34610c68576020366003190112610c6857602060045460043510604051908152f35b34610c6857602080600319360112610c68576127fa613734565b6001600160a01b038116919033831461291d5782156128e6576040518281019061282981611643853386613e11565b519020806000526016835260ff604060002054166128ad576015929161287291600052601683526040600020600160ff1982541617905533600052601483526040600020613acb565b8260005252612885336040600020613acb565b337f7ac10fa72de811a96d46fdfb872dbd08e7fc6bd9cca7b18ee91c34f1cccac4d2600080a3005b60405162461bcd60e51b8152600481018490526011602482015270416c726561647920666f6c6c6f77696e6760781b6044820152606490fd5b60405162461bcd60e51b815260048101839052600f60248201526e24b73b30b634b21031b932b0ba37b960891b6044820152606490fd5b60405162461bcd60e51b815260048101839052601660248201527521b0b73737ba103337b63637bb903cb7bab939b2b63360511b6044820152606490fd5b34610c68576000366003190112610c6857602060405160648152f35b612980366137ec565b9061298e6004548210613b32565b612996613b0f565b8060005260206007815260406000206129b76129b184613e35565b15613b73565b670de0b6b3a76400008410612c53576969e10de76676d08000008411612c18576129e660088201544210613bae565b82600052600b8252604060002033600052825260406000205415612bc6575b82600052600b8252604060002033600052825260406000205415612bab575b82600052600b825260406000203360005282526040600020612a47858254613919565b905560028101612a58858254613919565b809155606481029080820460641490151715610a4757612a8660039161ffff61058c81600587015416613a1c565b910155612a9282613e6d565b15612b8b576002546040516323b872dd60e01b81529190819083906001600160a01b031681600081612ac98a3033600485016139a4565b03925af1918215610a945760008051602061411283398151915292612af591600091612b6e57506139c6565b82600052600d8152826000805160206140d2833981519152604080600020612b1e888254613919565b9081815560018101549042600682015581612b59575b50825191825285820152a2612b4a848433613f43565b6040519384523393a360018055005b6002612b658385613a30565b91015589612b34565b612b859150833d8511610a8d57610a7f8183613898565b86610550565b60008051602061411283398151915290612ba6843414613949565b612af5565b82600052600a8252612bc1336040600020613acb565b612a24565b82600052600a8252606460406000205410612a055760405162461bcd60e51b8152600481018390526015602482015274546f6f206d616e79204c502070726f76696465727360581b6044820152606490fd5b60405162461bcd60e51b81526004810183905260136024820152724c697175696469747920746f6f206c6172676560681b6044820152606490fd5b60405162461bcd60e51b81526004810183905260176024820152764c69717569646974792062656c6f77206d696e696d756d60481b6044820152606490fd5b34610c68576020366003190112610c6857600435600052600d6020526040600020805490600181015490600281015460038201546004830154916006600585015494015494604051968752602087015260408601526060850152608084015260a083015260c0820152f35b612d06366137ec565b90612d146004548210613b32565b612d1c613b0f565b806000526020600781526040600020612d376129b184613e35565b670de0b6b3a764000084106130295769152d02c7e14af68000008411612ff457612d6660088201544210613bae565b6004810190612d76858354613919565b600382015410612fc357600b015480612f56575b508260005260098252604060002033600052825260406000205415612ee7575b826000526009825260406000203360005282526040600020612dcd858254613919565b9055612dda848254613919565b9055612de582613e6d565b15612ed7576002546040516323b872dd60e01b815290829082906001600160a01b031681600081612e1b8a3033600485016139a4565b03925af18015610a9457612e3691600091612ec057506139c6565b81600052600d8152604060002090612e4f848354613919565b91828155600181019081549160018301809311610a47577fa62ac007af53ff4400791f2f3468865d30bb8700e4624a47647a3d5e6cbcf2e994836000805160206140d28339815191529388956040945542600682015581612b595750825191825285820152a2612b4a848433613f43565b610a879150833d8511610a8d57610a7f8183613898565b612ee2833414613949565b612e36565b82600052600882526101f46040600020541015612f19578260005260088252612f14336040600020613acb565b612daa565b60405162461bcd60e51b8152600481018390526015602482015274546f6f206d616e79207061727469636970616e747360581b6044820152606490fd5b83600052600983526040600020336000528352612f7885604060002054613919565b11612f835784612d8a565b60405162461bcd60e51b815260048101839052601860248201527722bc31b2b2b2399036b0bc103132ba103832b9103ab9b2b960411b6044820152606490fd5b60405162461bcd60e51b8152600481018490526009602482015268141bdbdb08199d5b1b60ba1b6044820152606490fd5b60405162461bcd60e51b815260048101839052600d60248201526c42657420746f6f206c6172676560981b6044820152606490fd5b60405162461bcd60e51b81526004810183905260116024820152704265742062656c6f77206d696e696d756d60781b6044820152606490fd5b34610c68576000366003190112610c68576020604051683635c9adc5dea000008152f35b34610c6857602080600319360112610c68576004356130a86004548210613b32565b600052600781526130bf600c604060002001613caa565b6040519082820192808352815180945260408301938160408260051b8601019301916000955b8287106130f25785850386f35b909192938280600192603f19898203018552875190815181528282015183820152604082015115156040820152606080830151908201526131426080808401519060c08091850152830190613591565b9161ffff60a0809201511691015296019201960195929190926130e5565b34610c68576000366003190112610c68576003546040516001600160a01b039091168152602090f35b34610c68576000366003190112610c68576020604051674563918244f400008152f35b34610c68576000366003190112610c68576004546131c981613ddf565b9060009060005b81811061320e5750506131e281613ddf565b9160005b8281106131fb5760405180610fcb868261378e565b80611b556132099284613935565b6131e6565b61321781613e35565b158061324c575b613231575b61322c90613926565b6131d0565b916132448184611b6061322c9488613935565b929050613223565b50806000526007602052600860406000200154421061321e565b34610c68576020366003190112610c68576001600160a01b03613287613734565b1660005260106020526020604060002054604051908152f35b34610c68576000366003190112610c6857602060405160028152f35b34610c68576040366003190112610c68576132d5613734565b6024359060018060a01b03809116600052601460205260406000208054831015610c685760209261156591613760565b34610c68576020366003190112610c6857600435600060c060405161332981613862565b8281528260208201528260408201528260608201528260808201528260a082015201526133596004548210613b32565b600052600d602052604060002060405161337281613862565b815491828252600181015460208301908152600282015460408401908152600383015490606085019182526004840154926080860193845260c0600660058701549660a08901978852015496019586526040519687525160208701525160408601525160608501525160808401525160a08301525160c0820152f35b34610c68576020366003190112610c68576101c090600435600052600760205260406000209060018060a01b038254169160018101549160028201549060038301549060048401549060058501549060ff60068701549260078801549460088901549660098a015498600b600a8c01549b01549b60206040519e8f908152015260408d015260608c015260808b015261ffff811660a08b0152818160101c1660c08b015260181c16908801526101008701526101208601526101408501526101608401526101808301526101a0820152f35b34610c68576020366003190112610c68576004356134dc613c3c565b506134ea6004548210613b32565b6000526007602052613509600c6040600020604051936125ec85613846565b6101c082015260408051919082016001600160401b038111838210176108205761355f92610fcb91604052600a81526910d3d35093d7d413d3d360b21b60208201526040519384936040855260408501906135d1565b908382036020850152613591565b34610c68576000366003190112610c68576002546001600160a01b03168152602090f35b919082519283825260005b8481106135bd575050826000602080949584010152601f8019910116010190565b60208183018101518483018201520161359c565b906101e080820160018060a01b0384511683526020808501518185015260409384860151858201526060938487015185830152608095868801518784015261ffff60a09080828b0151168286015260c09360ff858c0151168587015260ff60e08c01511660e0870152610100808c015190870152610120808c015190870152610140808c015190870152610160808c015190870152610180808c0151908701526101a0808c0151908701526101c0809b01519a86015289518097526102009386858701958960051b8801019b01986000965b8988106136b95750505050505050505050505090565b909192939495969798999a9c9b89808f6001938f898b6137158f958f969483956101ff198d89030190525196875187528888015189880152808801511515908701528b8701518c8701528c81880151918701528c860190613591565b940151169101529e9f9d019b9a999190910197019594939291906136a3565b600435906001600160a01b0382168203610c6857565b602435906001600160a01b0382168203610c6857565b80548210156137785760005260206000200190600090565b634e487b7160e01b600052603260045260246000fd5b6020908160408183019282815285518094520193019160005b8281106137b5575050505090565b8351855293810193928101926001016137a7565b34610c68576000366003190112610c68576020604051670de0b6b3a76400008152f35b6040906003190112610c68576004359060243590565b6020908160408183019282815285518094520193019160005b828110613829575050505090565b83516001600160a01b03168552938101939281019260010161381b565b6101e081019081106001600160401b0382111761082057604052565b60e081019081106001600160401b0382111761082057604052565b60c081019081106001600160401b0382111761082057604052565b601f909101601f19168101906001600160401b0382119082101761082057604052565b6001600160401b0381116108205760051b60200190565b6001600160401b03811161082057601f01601f191660200190565b6000546001600160a01b0316330361390157565b60405163118cdaa760e01b8152336004820152602490fd5b91908201809211610a4757565b6000198114610a475760010190565b80518210156137785760209160051b010190565b1561395057565b60405162461bcd60e51b8152602060048201526014602482015273125b98dbdc9c9958dd0814d51508185b5bdd5b9d60621b6044820152606490fd5b90816020910312610c6857518015158103610c685790565b6001600160a01b03918216815291166020820152604081019190915260600190565b156139cd57565b60405162461bcd60e51b815260206004820152601460248201527310925514881d1c985b9cd9995c8819985a5b195960621b6044820152606490fd5b81810292918115918404141715610a4757565b61ffff9081166063190191908211610a4757565b8115613a3a570490565b634e487b7160e01b600052601260045260246000fd5b91908203918211610a4757565b9062ff000082549160101b169062ff00001916179055565b8054821015613778576000526006602060002091020190600090565b90600182811c92168015613ac1575b6020831014613aab57565b634e487b7160e01b600052602260045260246000fd5b91607f1691613aa0565b80549190600160401b8310156108205782613aee916001613b0d95018155613760565b90919082549060031b9160018060a01b03809116831b921b1916179055565b565b600260015414613b20576002600155565b604051633ee5aeb560e01b8152600490fd5b15613b3957565b60405162461bcd60e51b8152602060048201526012602482015271125b9d985b1a590818dbdb589bc81c1bdbdb60721b6044820152606490fd5b15613b7a57565b60405162461bcd60e51b815260206004820152600c60248201526b141bdbdb081cd95d1d1b195960a21b6044820152606490fd5b15613bb557565b60405162461bcd60e51b815260206004820152601460248201527310995d1d1a5b99c81c195c9a5bd908195b99195960621b6044820152606490fd5b3d15613c1c573d90613c02826138d2565b91613c106040519384613898565b82523d6000602084013e565b606090565b6001600160a01b039091168152602081019190915260400190565b60405190613c4982613846565b60606101c083600080825280602083015280604083015280848301528060808301528060a08301528060c08301528060e083015280610100830152806101208301528061014083015280610160830152806101808301526101a08201520152565b908154613cb6816138bb565b90604093613cc685519384613898565b818352829460208094019160009081528481209181935b858510613ced5750505050505050565b868251613cf98161387d565b855481526001808701548383015260ff60028801541615158583015260038701546060830152600487018551918791805490613d3482613a91565b80865291838116908115613dbd5750600114613d83575b5050509181613d6260019693600696950382613898565b608082015261ffff60058901541660a0820152815201940194019392613cdd565b89528589208993509091905b828410613da8575050508101830181613d626001613d4b565b80548585018801528d96909301928101613d8f565b60ff1916868901525050151560051b830185019150829050613d626001613d4b565b90613de9826138bb565b613df66040519182613898565b8281528092613e07601f19916138bb565b0190602036910137565b6001600160601b0319606092831b811682529290911b909116601482015260280190565b6000526007602052600160056040600020015460101c16151590565b6000526007602052600260056040600020015460101c16151590565b6000526007602052600460056040600020015460101c16151590565b6000915b81549283811015613f3d57613ea28184613760565b90546003956001600160a01b0392909190871b1c821684831614613ed5575050613ece91929350613926565b9190613e8d565b90925060001991828201918211610a4757613aee84613ef7613f059488613760565b905490891b1c169186613760565b82548015613f27570192613f198484613760565b81939154921b1b1916905555565b634e487b7160e01b600052603160045260246000fd5b50505050565b6001600160a01b03166000818152600e602090815260408083208054929796949591949290600160401b82101561405d5781611153916001613f889594018155613760565b83825260108652828220613f9c8154613926565b905583825260128652613fb3838320918254613919565b90558281526010855281812054613ff3575b84601360008051602061409283398151915294959652828083205492601283522054908351928352820152a2565b60118552818120549460648602958087046064149015171561404957614035849596600080516020614092833981519152958452601083528484205490613a30565b858352601382528383205594939250613fc5565b634e487b7160e01b82526011600452602482fd5b634e487b7160e01b85526041600452602485fdfed43c77f044c1f8bc6adf6676b4ce17edda35ef8ee63f154568826c0ecb3c6bf34e7c7fc7de54ec4be7f30b13e5fd14c328fa4d7eedc626705c3761f40b044337fe20975ac1b4744ea5a378b4084bae1feecbc48fd64d3b83d54439ff477c14b477e6cb7a03a858796fb865c51dd9a96a5f1f38781c9b0ef88bf64bd5157d82a68be0079c531659141344cd1fd0a4f28419497f9722a3daafe3b4186f6b6457e0b33e2c357529261604bd85a492b3aec6a2c2b3296ebecbf0f6c0d901ecd3a346a26469706673582212205e54e34d99acd7549bf2b48be3a4ead2d111fb1b621ac1dd5a9612907f4e076464736f6c63430008140033",
  "linkReferences": {},
  "deployedLinkReferences": {}
}