{
  "_format": "hh-sol-artifact-1",
  "contractName": "BitredictPoolFactory",
  "sourceName": "contracts/BitredictPoolFactory.sol",
  "abi": [
    {
      "inputs": [
        {
          "internalType": "address",
          "name": "_poolCore",
          "type": "address"
        },
        {
          "internalType": "address",
          "name": "_comboPools",
          "type": "address"
        },
        {
          "internalType": "address payable",
          "name": "_boostSystem",
          "type": "address"
        },
        {
          "internalType": "address",
          "name": "_bitrToken",
          "type": "address"
        }
      ],
      "stateMutability": "nonpayable",
      "type": "constructor"
    },
    {
      "inputs": [
        {
          "internalType": "address",
          "name": "owner",
          "type": "address"
        }
      ],
      "name": "OwnableInvalidOwner",
      "type": "error"
    },
    {
      "inputs": [
        {
          "internalType": "address",
          "name": "account",
          "type": "address"
        }
      ],
      "name": "OwnableUnauthorizedAccount",
      "type": "error"
    },
    {
      "inputs": [],
      "name": "ReentrancyGuardReentrantCall",
      "type": "error"
    },
    {
      "anonymous": false,
      "inputs": [
        {
          "indexed": true,
          "internalType": "uint256",
          "name": "comboPoolId",
          "type": "uint256"
        },
        {
          "indexed": true,
          "internalType": "address",
          "name": "creator",
          "type": "address"
        },
        {
          "indexed": false,
          "internalType": "enum BoostTier",
          "name": "boostTier",
          "type": "uint8"
        },
        {
          "indexed": false,
          "internalType": "uint256",
          "name": "totalCost",
          "type": "uint256"
        }
      ],
      "name": "ComboPoolCreatedWithBoost",
      "type": "event"
    },
    {
      "anonymous": false,
      "inputs": [
        {
          "indexed": false,
          "internalType": "string",
          "name": "contractName",
          "type": "string"
        },
        {
          "indexed": false,
          "internalType": "address",
          "name": "oldAddress",
          "type": "address"
        },
        {
          "indexed": false,
          "internalType": "address",
          "name": "newAddress",
          "type": "address"
        }
      ],
      "name": "ContractUpgraded",
      "type": "event"
    },
    {
      "anonymous": false,
      "inputs": [
        {
          "indexed": false,
          "internalType": "uint256",
          "name": "totalPools",
          "type": "uint256"
        },
        {
          "indexed": false,
          "internalType": "uint256",
          "name": "totalVolume",
          "type": "uint256"
        },
        {
          "indexed": false,
          "internalType": "uint256",
          "name": "totalBoosted",
          "type": "uint256"
        }
      ],
      "name": "FactoryAnalyticsUpdated",
      "type": "event"
    },
    {
      "anonymous": false,
      "inputs": [
        {
          "indexed": true,
          "internalType": "address",
          "name": "previousOwner",
          "type": "address"
        },
        {
          "indexed": true,
          "internalType": "address",
          "name": "newOwner",
          "type": "address"
        }
      ],
      "name": "OwnershipTransferred",
      "type": "event"
    },
    {
      "anonymous": false,
      "inputs": [
        {
          "indexed": true,
          "internalType": "uint256",
          "name": "poolId",
          "type": "uint256"
        },
        {
          "indexed": true,
          "internalType": "address",
          "name": "creator",
          "type": "address"
        },
        {
          "indexed": false,
          "internalType": "enum BoostTier",
          "name": "boostTier",
          "type": "uint8"
        },
        {
          "indexed": false,
          "internalType": "uint256",
          "name": "totalCost",
          "type": "uint256"
        }
      ],
      "name": "PoolCreatedWithBoost",
      "type": "event"
    },
    {
      "inputs": [
        {
          "internalType": "bytes32[]",
          "name": "_predictedOutcomes",
          "type": "bytes32[]"
        },
        {
          "internalType": "uint256[]",
          "name": "_odds",
          "type": "uint256[]"
        },
        {
          "internalType": "uint256[]",
          "name": "_creatorStakes",
          "type": "uint256[]"
        },
        {
          "internalType": "uint256[]",
          "name": "_eventStartTimes",
          "type": "uint256[]"
        },
        {
          "internalType": "uint256[]",
          "name": "_eventEndTimes",
          "type": "uint256[]"
        },
        {
          "internalType": "string[]",
          "name": "_leagues",
          "type": "string[]"
        },
        {
          "internalType": "string[]",
          "name": "_categories",
          "type": "string[]"
        },
        {
          "internalType": "bool",
          "name": "_useBitr",
          "type": "bool"
        }
      ],
      "name": "batchCreatePools",
      "outputs": [
        {
          "internalType": "uint256[]",
          "name": "poolIds",
          "type": "uint256[]"
        }
      ],
      "stateMutability": "payable",
      "type": "function"
    },
    {
      "inputs": [],
      "name": "bitrToken",
      "outputs": [
        {
          "internalType": "contract IERC20",
          "name": "",
          "type": "address"
        }
      ],
      "stateMutability": "view",
      "type": "function"
    },
    {
      "inputs": [],
      "name": "boostSystem",
      "outputs": [
        {
          "internalType": "contract BitredictBoostSystem",
          "name": "",
          "type": "address"
        }
      ],
      "stateMutability": "view",
      "type": "function"
    },
    {
      "inputs": [
        {
          "internalType": "address",
          "name": "creator",
          "type": "address"
        },
        {
          "internalType": "uint256",
          "name": "poolId",
          "type": "uint256"
        },
        {
          "internalType": "enum BoostTier",
          "name": "boostTier",
          "type": "uint8"
        },
        {
          "internalType": "bool",
          "name": "useBitr",
          "type": "bool"
        }
      ],
      "name": "canCreatePoolWithBoost",
      "outputs": [
        {
          "internalType": "bool",
          "name": "canCreate",
          "type": "bool"
        },
        {
          "internalType": "string",
          "name": "reason",
          "type": "string"
        }
      ],
      "stateMutability": "view",
      "type": "function"
    },
    {
      "inputs": [],
      "name": "comboPools",
      "outputs": [
        {
          "internalType": "contract BitredictComboPools",
          "name": "",
          "type": "address"
        }
      ],
      "stateMutability": "view",
      "type": "function"
    },
    {
      "inputs": [
        {
          "components": [
            {
              "internalType": "bytes32",
              "name": "marketId",
              "type": "bytes32"
            },
            {
              "internalType": "bytes32",
              "name": "expectedOutcome",
              "type": "bytes32"
            },
            {
              "internalType": "bool",
              "name": "resolved",
              "type": "bool"
            },
            {
              "internalType": "bytes32",
              "name": "actualOutcome",
              "type": "bytes32"
            },
            {
              "internalType": "string",
              "name": "description",
              "type": "string"
            },
            {
              "internalType": "uint16",
              "name": "odds",
              "type": "uint16"
            }
          ],
          "internalType": "struct BitredictComboPools.OutcomeCondition[]",
          "name": "conditions",
          "type": "tuple[]"
        },
        {
          "internalType": "uint16",
          "name": "combinedOdds",
          "type": "uint16"
        },
        {
          "internalType": "uint256",
          "name": "creatorStake",
          "type": "uint256"
        },
        {
          "internalType": "uint256",
          "name": "earliestEventStart",
          "type": "uint256"
        },
        {
          "internalType": "uint256",
          "name": "latestEventEnd",
          "type": "uint256"
        },
        {
          "internalType": "string",
          "name": "category",
          "type": "string"
        },
        {
          "internalType": "uint256",
          "name": "maxBetPerUser",
          "type": "uint256"
        },
        {
          "internalType": "bool",
          "name": "useBitr",
          "type": "bool"
        },
        {
          "internalType": "enum BoostTier",
          "name": "_boostTier",
          "type": "uint8"
        }
      ],
      "name": "createComboPoolWithBoost",
      "outputs": [
        {
          "internalType": "uint256",
          "name": "comboPoolId",
          "type": "uint256"
        }
      ],
      "stateMutability": "payable",
      "type": "function"
    },
    {
      "inputs": [
        {
          "internalType": "bytes32",
          "name": "_predictedOutcome",
          "type": "bytes32"
        },
        {
          "internalType": "uint256",
          "name": "_odds",
          "type": "uint256"
        },
        {
          "internalType": "uint256",
          "name": "_creatorStake",
          "type": "uint256"
        },
        {
          "internalType": "uint256",
          "name": "_eventStartTime",
          "type": "uint256"
        },
        {
          "internalType": "uint256",
          "name": "_eventEndTime",
          "type": "uint256"
        },
        {
          "internalType": "string",
          "name": "_league",
          "type": "string"
        },
        {
          "internalType": "string",
          "name": "_category",
          "type": "string"
        },
        {
          "internalType": "string",
          "name": "_region",
          "type": "string"
        },
        {
          "internalType": "bool",
          "name": "_isPrivate",
          "type": "bool"
        },
        {
          "internalType": "uint256",
          "name": "_maxBetPerUser",
          "type": "uint256"
        },
        {
          "internalType": "bool",
          "name": "_useBitr",
          "type": "bool"
        },
        {
          "internalType": "enum OracleType",
          "name": "_oracleType",
          "type": "uint8"
        },
        {
          "internalType": "bytes32",
          "name": "_marketId",
          "type": "bytes32"
        },
        {
          "internalType": "enum MarketType",
          "name": "_marketType",
          "type": "uint8"
        },
        {
          "internalType": "enum BoostTier",
          "name": "_boostTier",
          "type": "uint8"
        }
      ],
      "name": "createPoolWithBoost",
      "outputs": [
        {
          "internalType": "uint256",
          "name": "poolId",
          "type": "uint256"
        }
      ],
      "stateMutability": "payable",
      "type": "function"
    },
    {
      "inputs": [],
      "name": "emergencyPause",
      "outputs": [],
      "stateMutability": "nonpayable",
      "type": "function"
    },
    {
      "inputs": [],
      "name": "emergencyWithdraw",
      "outputs": [],
      "stateMutability": "nonpayable",
      "type": "function"
    },
    {
      "inputs": [],
      "name": "factoryAnalytics",
      "outputs": [
        {
          "internalType": "uint256",
          "name": "totalPoolsCreated",
          "type": "uint256"
        },
        {
          "internalType": "uint256",
          "name": "totalComboPoolsCreated",
          "type": "uint256"
        },
        {
          "internalType": "uint256",
          "name": "totalVolumeProcessed",
          "type": "uint256"
        },
        {
          "internalType": "uint256",
          "name": "totalBoostedPools",
          "type": "uint256"
        },
        {
          "internalType": "uint256",
          "name": "averagePoolSize",
          "type": "uint256"
        },
        {
          "internalType": "uint256",
          "name": "factoryFees",
          "type": "uint256"
        },
        {
          "internalType": "uint256",
          "name": "lastUpdated",
          "type": "uint256"
        }
      ],
      "stateMutability": "view",
      "type": "function"
    },
    {
      "inputs": [],
      "name": "getActivePoolsWithBoosts",
      "outputs": [
        {
          "internalType": "uint256[]",
          "name": "poolIds",
          "type": "uint256[]"
        },
        {
          "internalType": "enum BoostTier[]",
          "name": "boostTiers",
          "type": "uint8[]"
        }
      ],
      "stateMutability": "view",
      "type": "function"
    },
    {
      "inputs": [
        {
          "internalType": "uint256",
          "name": "comboPoolId",
          "type": "uint256"
        }
      ],
      "name": "getAllComboPoolData",
      "outputs": [
        {
          "components": [
            {
              "internalType": "address",
              "name": "creator",
              "type": "address"
            },
            {
              "internalType": "uint256",
              "name": "creatorStake",
              "type": "uint256"
            },
            {
              "internalType": "uint256",
              "name": "totalCreatorSideStake",
              "type": "uint256"
            },
            {
              "internalType": "uint256",
              "name": "maxBettorStake",
              "type": "uint256"
            },
            {
              "internalType": "uint256",
              "name": "totalBettorStake",
              "type": "uint256"
            },
            {
              "internalType": "uint16",
              "name": "totalOdds",
              "type": "uint16"
            },
            {
              "internalType": "uint8",
              "name": "flags",
              "type": "uint8"
            },
            {
              "internalType": "uint8",
              "name": "conditionCount",
              "type": "uint8"
            },
            {
              "internalType": "uint256",
              "name": "eventStartTime",
              "type": "uint256"
            },
            {
              "internalType": "uint256",
              "name": "eventEndTime",
              "type": "uint256"
            },
            {
              "internalType": "uint256",
              "name": "bettingEndTime",
              "type": "uint256"
            },
            {
              "internalType": "uint256",
              "name": "resultTimestamp",
              "type": "uint256"
            },
            {
              "internalType": "string",
              "name": "category",
              "type": "string"
            },
            {
              "internalType": "uint256",
              "name": "maxBetPerUser",
              "type": "uint256"
            },
            {
              "components": [
                {
                  "internalType": "bytes32",
                  "name": "marketId",
                  "type": "bytes32"
                },
                {
                  "internalType": "bytes32",
                  "name": "expectedOutcome",
                  "type": "bytes32"
                },
                {
                  "internalType": "bool",
                  "name": "resolved",
                  "type": "bool"
                },
                {
                  "internalType": "bytes32",
                  "name": "actualOutcome",
                  "type": "bytes32"
                },
                {
                  "internalType": "string",
                  "name": "description",
                  "type": "string"
                },
                {
                  "internalType": "uint16",
                  "name": "odds",
                  "type": "uint16"
                }
              ],
              "internalType": "struct BitredictComboPools.OutcomeCondition[]",
              "name": "conditions",
              "type": "tuple[]"
            }
          ],
          "internalType": "struct BitredictComboPools.ComboPool",
          "name": "comboPool",
          "type": "tuple"
        },
        {
          "internalType": "bool",
          "name": "isBoosted",
          "type": "bool"
        },
        {
          "internalType": "enum BoostTier",
          "name": "boostTier",
          "type": "uint8"
        },
        {
          "internalType": "uint256",
          "name": "boostExpiry",
          "type": "uint256"
        }
      ],
      "stateMutability": "view",
      "type": "function"
    },
    {
      "inputs": [
        {
          "internalType": "uint256",
          "name": "poolId",
          "type": "uint256"
        }
      ],
      "name": "getAllPoolData",
      "outputs": [
        {
          "components": [
            {
              "internalType": "address",
              "name": "creator",
              "type": "address"
            },
            {
              "internalType": "uint16",
              "name": "odds",
              "type": "uint16"
            },
            {
              "internalType": "uint8",
              "name": "flags",
              "type": "uint8"
            },
            {
              "internalType": "enum OracleType",
              "name": "oracleType",
              "type": "uint8"
            },
            {
              "internalType": "uint256",
              "name": "creatorStake",
              "type": "uint256"
            },
            {
              "internalType": "uint256",
              "name": "totalCreatorSideStake",
              "type": "uint256"
            },
            {
              "internalType": "uint256",
              "name": "maxBettorStake",
              "type": "uint256"
            },
            {
              "internalType": "uint256",
              "name": "totalBettorStake",
              "type": "uint256"
            },
            {
              "internalType": "bytes32",
              "name": "predictedOutcome",
              "type": "bytes32"
            },
            {
              "internalType": "bytes32",
              "name": "result",
              "type": "bytes32"
            },
            {
              "internalType": "bytes32",
              "name": "marketId",
              "type": "bytes32"
            },
            {
              "internalType": "uint256",
              "name": "eventStartTime",
              "type": "uint256"
            },
            {
              "internalType": "uint256",
              "name": "eventEndTime",
              "type": "uint256"
            },
            {
              "internalType": "uint256",
              "name": "bettingEndTime",
              "type": "uint256"
            },
            {
              "internalType": "uint256",
              "name": "resultTimestamp",
              "type": "uint256"
            },
            {
              "internalType": "uint256",
              "name": "arbitrationDeadline",
              "type": "uint256"
            },
            {
              "internalType": "string",
              "name": "league",
              "type": "string"
            },
            {
              "internalType": "string",
              "name": "category",
              "type": "string"
            },
            {
              "internalType": "string",
              "name": "region",
              "type": "string"
            },
            {
              "internalType": "string",
              "name": "homeTeam",
              "type": "string"
            },
            {
              "internalType": "string",
              "name": "awayTeam",
              "type": "string"
            },
            {
              "internalType": "string",
              "name": "title",
              "type": "string"
            },
            {
              "internalType": "uint256",
              "name": "maxBetPerUser",
              "type": "uint256"
            }
          ],
          "internalType": "struct BitredictPoolCore.Pool",
          "name": "pool",
          "type": "tuple"
        },
        {
          "internalType": "bool",
          "name": "isBoosted",
          "type": "bool"
        },
        {
          "internalType": "enum BoostTier",
          "name": "boostTier",
          "type": "uint8"
        },
        {
          "internalType": "uint256",
          "name": "boostExpiry",
          "type": "uint256"
        }
      ],
      "stateMutability": "view",
      "type": "function"
    },
    {
      "inputs": [],
      "name": "getContractAddresses",
      "outputs": [
        {
          "internalType": "address",
          "name": "poolCoreAddress",
          "type": "address"
        },
        {
          "internalType": "address",
          "name": "comboPoolsAddress",
          "type": "address"
        },
        {
          "internalType": "address",
          "name": "boostSystemAddress",
          "type": "address"
        },
        {
          "internalType": "address",
          "name": "bitrTokenAddress",
          "type": "address"
        }
      ],
      "stateMutability": "view",
      "type": "function"
    },
    {
      "inputs": [
        {
          "internalType": "address",
          "name": "creator",
          "type": "address"
        }
      ],
      "name": "getCreatorAnalytics",
      "outputs": [
        {
          "components": [
            {
              "internalType": "uint256",
              "name": "totalPoolsCreated",
              "type": "uint256"
            },
            {
              "internalType": "uint256",
              "name": "successfulPools",
              "type": "uint256"
            },
            {
              "internalType": "uint256",
              "name": "totalVolumeGenerated",
              "type": "uint256"
            },
            {
              "internalType": "uint256",
              "name": "averagePoolSize",
              "type": "uint256"
            },
            {
              "internalType": "uint256",
              "name": "reputationScore",
              "type": "uint256"
            },
            {
              "internalType": "uint256",
              "name": "winRate",
              "type": "uint256"
            },
            {
              "internalType": "uint256",
              "name": "totalEarnings",
              "type": "uint256"
            },
            {
              "internalType": "uint256",
              "name": "activePoolsCount",
              "type": "uint256"
            },
            {
              "internalType": "uint256",
              "name": "influenceScore",
              "type": "uint256"
            },
            {
              "internalType": "uint256",
              "name": "followerCount",
              "type": "uint256"
            },
            {
              "internalType": "uint256",
              "name": "predictionAccuracy",
              "type": "uint256"
            },
            {
              "internalType": "uint256",
              "name": "socialEngagement",
              "type": "uint256"
            },
            {
              "internalType": "uint256",
              "name": "viralPoolsCreated",
              "type": "uint256"
            },
            {
              "internalType": "uint256",
              "name": "streakMultiplier",
              "type": "uint256"
            },
            {
              "internalType": "uint256",
              "name": "longestStreak",
              "type": "uint256"
            },
            {
              "internalType": "uint256",
              "name": "mentorshipPoints",
              "type": "uint256"
            },
            {
              "internalType": "uint256",
              "name": "leadershipRank",
              "type": "uint256"
            }
          ],
          "internalType": "struct BitredictPoolCore.CreatorStats",
          "name": "coreStats",
          "type": "tuple"
        },
        {
          "internalType": "uint256[]",
          "name": "creatorPools",
          "type": "uint256[]"
        },
        {
          "internalType": "uint256[]",
          "name": "creatorComboPools",
          "type": "uint256[]"
        },
        {
          "internalType": "uint256",
          "name": "totalBoostedPools",
          "type": "uint256"
        }
      ],
      "stateMutability": "view",
      "type": "function"
    },
    {
      "inputs": [],
      "name": "getFactoryAnalytics",
      "outputs": [
        {
          "components": [
            {
              "internalType": "uint256",
              "name": "totalPoolsCreated",
              "type": "uint256"
            },
            {
              "internalType": "uint256",
              "name": "totalComboPoolsCreated",
              "type": "uint256"
            },
            {
              "internalType": "uint256",
              "name": "totalVolumeProcessed",
              "type": "uint256"
            },
            {
              "internalType": "uint256",
              "name": "totalBoostedPools",
              "type": "uint256"
            },
            {
              "internalType": "uint256",
              "name": "averagePoolSize",
              "type": "uint256"
            },
            {
              "internalType": "uint256",
              "name": "factoryFees",
              "type": "uint256"
            },
            {
              "internalType": "uint256",
              "name": "lastUpdated",
              "type": "uint256"
            }
          ],
          "internalType": "struct BitredictPoolFactory.FactoryAnalytics",
          "name": "",
          "type": "tuple"
        }
      ],
      "stateMutability": "view",
      "type": "function"
    },
    {
      "inputs": [],
      "name": "getGlobalAnalytics",
      "outputs": [
        {
          "components": [
            {
              "internalType": "uint256",
              "name": "totalPools",
              "type": "uint256"
            },
            {
              "internalType": "uint256",
              "name": "totalVolume",
              "type": "uint256"
            },
            {
              "internalType": "uint256",
              "name": "totalUsers",
              "type": "uint256"
            },
            {
              "internalType": "uint256",
              "name": "totalBets",
              "type": "uint256"
            },
            {
              "internalType": "uint256",
              "name": "averagePoolSize",
              "type": "uint256"
            },
            {
              "internalType": "uint256",
              "name": "platformFees",
              "type": "uint256"
            },
            {
              "internalType": "uint256",
              "name": "lastUpdated",
              "type": "uint256"
            }
          ],
          "internalType": "struct BitredictPoolCore.GlobalStats",
          "name": "poolStats",
          "type": "tuple"
        },
        {
          "components": [
            {
              "internalType": "uint256",
              "name": "totalPoolsCreated",
              "type": "uint256"
            },
            {
              "internalType": "uint256",
              "name": "totalComboPoolsCreated",
              "type": "uint256"
            },
            {
              "internalType": "uint256",
              "name": "totalVolumeProcessed",
              "type": "uint256"
            },
            {
              "internalType": "uint256",
              "name": "totalBoostedPools",
              "type": "uint256"
            },
            {
              "internalType": "uint256",
              "name": "averagePoolSize",
              "type": "uint256"
            },
            {
              "internalType": "uint256",
              "name": "factoryFees",
              "type": "uint256"
            },
            {
              "internalType": "uint256",
              "name": "lastUpdated",
              "type": "uint256"
            }
          ],
          "internalType": "struct BitredictPoolFactory.FactoryAnalytics",
          "name": "factoryStats",
          "type": "tuple"
        },
        {
          "internalType": "uint256",
          "name": "totalBoosted",
          "type": "uint256"
        },
        {
          "internalType": "uint256",
          "name": "totalComboVolume",
          "type": "uint256"
        }
      ],
      "stateMutability": "view",
      "type": "function"
    },
    {
      "inputs": [
        {
          "internalType": "uint256",
          "name": "_creatorStake",
          "type": "uint256"
        },
        {
          "internalType": "bool",
          "name": "_useBitr",
          "type": "bool"
        },
        {
          "internalType": "enum BoostTier",
          "name": "_boostTier",
          "type": "uint8"
        }
      ],
      "name": "getPoolCreationCost",
      "outputs": [
        {
          "internalType": "uint256",
          "name": "totalCost",
          "type": "uint256"
        },
        {
          "internalType": "uint256",
          "name": "creationFee",
          "type": "uint256"
        },
        {
          "internalType": "uint256",
          "name": "boostCost",
          "type": "uint256"
        }
      ],
      "stateMutability": "view",
      "type": "function"
    },
    {
      "inputs": [],
      "name": "owner",
      "outputs": [
        {
          "internalType": "address",
          "name": "",
          "type": "address"
        }
      ],
      "stateMutability": "view",
      "type": "function"
    },
    {
      "inputs": [],
      "name": "poolCore",
      "outputs": [
        {
          "internalType": "contract BitredictPoolCore",
          "name": "",
          "type": "address"
        }
      ],
      "stateMutability": "view",
      "type": "function"
    },
    {
      "inputs": [],
      "name": "renounceOwnership",
      "outputs": [],
      "stateMutability": "nonpayable",
      "type": "function"
    },
    {
      "inputs": [
        {
          "internalType": "address",
          "name": "newOwner",
          "type": "address"
        }
      ],
      "name": "transferOwnership",
      "outputs": [],
      "stateMutability": "nonpayable",
      "type": "function"
    },
    {
      "inputs": [
        {
          "internalType": "address",
          "name": "_newPoolCore",
          "type": "address"
        },
        {
          "internalType": "address",
          "name": "_newComboPools",
          "type": "address"
        },
        {
          "internalType": "address payable",
          "name": "_newBoostSystem",
          "type": "address"
        }
      ],
      "name": "upgradeContracts",
      "outputs": [],
      "stateMutability": "nonpayable",
      "type": "function"
    },
    {
      "stateMutability": "payable",
      "type": "receive"
    }
  ],
  "bytecode": "0x6080346200025757601f6200367338819003918201601f191683019291906001600160401b038411838510176200025c5781608092849260409687528339810103126200025757620000518162000272565b6200005f6020830162000272565b8383015190926001600160a01b0380831692909190839003620002575760606200008a910162000272565b9033156200023f57600054948160018060a01b0319953387891617600055885197823391167f8be0079c531659141344cd1fd0a4f28419497f9722a3daafe3b4186f6b6457e0600080a36001805516958615620001fd57508116918215620001b95783156200017557169384156200013157836002541617600255826003541617600355816004541617600455600554161760055542600c55516133eb9081620002888239f35b855162461bcd60e51b815260206004820152601a60248201527f496e76616c6964204249545220746f6b656e20616464726573730000000000006044820152606490fd5b865162461bcd60e51b815260206004820152601c60248201527f496e76616c696420626f6f73742073797374656d2061646472657373000000006044820152606490fd5b865162461bcd60e51b815260206004820152601b60248201527f496e76616c696420636f6d626f20706f6f6c73206164647265737300000000006044820152606490fd5b62461bcd60e51b815260206004820152601960248201527f496e76616c696420706f6f6c20636f72652061646472657373000000000000006044820152606490fd5b8551631e4fbdf760e01b815260006004820152602490fd5b600080fd5b634e487b7160e01b600052604160045260246000fd5b51906001600160a01b0382168203620002575756fe608080604052600436101561001d575b50361561001b57600080fd5b005b600090813560e01c90816301b708c2146129f55750806335ca68761461295257806338cac0c214612929578063468a2f2c146122d857806351858e27146122bc5780635eec742b14612289578063715018a61461222f57806375ff84b614611e0057806382b8039314611daf57806387ce953e14611d865780638da5cb5b14611d5f5780638db8a2101461185a578063953874d214611812578063bc9c4318146115e2578063c407be0414610f30578063db2e21bc14610d8c578063e8a0323a14610ba1578063e8e791cd14610b3d578063f2d366fc1461098d578063f2fde38b14610907578063f3c1c3be1461072b578063f6915af5146107025763f6e339c30361000f573461045757602036600319011261045757806024916102c060405161014781612ac5565b8281528260208201528260408201528260608201528260808201528260a08201528260c08201528260e08201528261010082015282610120820152826101408201528261016082015282610180820152826101a0820152826101c0820152826101e08201526060610200820152606061022082015260606102408201526060610260820152606061028082015260606102a082015201528060018060a01b03600254166040519384809263068bcd8d60e01b825260043560048301525afa9182156106f55781926104b5575b5060018060a01b0360045416916040519263fd12153960e01b84526004356004850152604084602481845afa9081156104aa578394849261046e575b50602060249160405192838092634f02360760e01b825260043560048301525afa938415610462578094610420575b50506104176040519485946080865260018060a01b03855116608087015261ffff60208601511660a087015260ff60408601511660c08701526102c9606086015160e0880190612ded565b608085015161010087015260a085015161012087015260c085015161014087015260e08501516101608701526101008501516101808701526101208501516101a08701526101408501516101c08701526101608501516101e08701526101808501516102008701526101a08501516102208701526101c08501516102408701526101e08501516102608701526102c06103fd6102806103e66103d06103816102008b01518c6102e095869101526103608d0190612c12565b926103ba8b8d6102406103a861022084015198607f19998a858303016102a0860152612c12565b92015190898882850301910152612c12565b908c6102608d0151918682850301910152612c12565b6102808a0151838c8303016103008d0152612c12565b906102a0890151908a8303016103208b0152612c12565b950151610340870152151560208601526040850190612cd5565b60608301520390f35b909193506020823d60201161045a575b8161043d60209383612ae1565b81010312610457575061044f90612e8c565b91388061027e565b80fd5b3d9150610430565b604051903d90823e3d90fd5b6020955060249192506104989060403d6040116104a3575b6104908183612ae1565b810190613014565b95909592915061024f565b503d610486565b6040513d85823e3d90fd5b9091503d8083833e6104c78183612ae1565b60208282810103126106f15781516001600160401b0381116106ed576102e081840183850103126106ed57604051926104ff84612ac5565b61050a828201612f9e565b845261051a602083830101612fb2565b602085015261052d604083830101612fc1565b60408501526060828201015160028110156106e95760608501528082016080818101519086015260a0808201519086015260c0808201519086015260e08082015190860152610100808201519086015261012080820151908601526101408082015190860152610160808201519086015261018080820151908601526101a080820151908601526101c080820151908601526101e0808201519086015261020001516001600160401b0381116106e9576105ee908483019084840101612fcf565b61020085015261022082820101516001600160401b0381116106e95761061b908483019084840101612fcf565b61022085015261024082820101516001600160401b0381116106e957610648908483019084840101612fcf565b61024085015261026082820101516001600160401b0381116106e957610675908483019084840101612fcf565b61026085015261028082820101516001600160401b0381116106e9576106a2908483019084840101612fcf565b6102808501526102a08282010151926001600160401b0384116106e9576102c0936106d39183019084840101612fcf565b6102a08501520101516102c08201529038610213565b8580fd5b8380fd5b8280fd5b50604051903d90823e3d90fd5b50346104575780600319360112610457576004546040516001600160a01b039091168152602090f35b50346104575780600319360112610457576107446130d7565b5061074d6130d7565b50600254604051636b4169c360e01b81526001600160a01b0392909160e0908390600490829087165afa9182156106f5578192610884575b50600461079061310f565b9360e08183541660405193848092639f010deb851b82525afa9182156104aa57839261084f575b5060a060049160035416604051928380926325bcec5d60e11b82525afa928315610462578093610810575b5050610802610200946107f86040518096612b64565b60e0850190612b64565b6101c08301526101e0820152f35b9094925060a0853d8211610847575b8161082c60a09383612ae1565b810103126104575750610802602061020095015192946107e2565b3d915061081f565b90915060e0813d60e01161087c575b8161086b60e09383612ae1565b810103126106f157519060a06107b7565b3d915061085e565b90915060e0813d60e0116108ff575b816108a060e09383612ae1565b810103126108fb5760c0604051916108b783612aaa565b805183526020810151602084015260408101516040840152606081015160608401526080810151608084015260a081015160a0840152015160c08201529038610785565b5080fd5b3d9150610893565b503461045757602036600319011261045757610921612ba5565b610929612dfa565b6001600160a01b039081169081156109745782546001600160a01b0319811683178455167f8be0079c531659141344cd1fd0a4f28419497f9722a3daafe3b4186f6b6457e08380a380f35b604051631e4fbdf760e01b815260048101849052602490fd5b50346104575780600319360112610457576002546040516323b020d560e21b8152916001600160a01b039181908490600490829086165afa9283156106f5578193610b19575b5082919251906109fb6109e583612cf8565b926109f36040519485612ae1565b808452612cf8565b6020939083850190601f1901368237829560045416955b8251811015610ab557610a2581846130ad565b516040519063fd12153960e01b82526004820152602460408282818c5afa918215610aaa578692610a88575b50610a5c83886130ad565b906004831015610a76575052610a7190612f8f565b610a12565b634e487b7160e01b8752602160045286fd5b610aa291925060403d6040116104a3576104908183612ae1565b509038610a51565b6040513d88823e3d90fd5b5090610ad39183858780604051968796604088526040880190612bbb565b928684038288015251928381520193925b828110610af357505050500390f35b9193839550908082610b09600194839751612cd5565b0195019101918594939192610ae4565b610b369193503d8085833e610b2e8183612ae1565b810190613034565b91386109d3565b503461045757608036600319011261045757610b57612ba5565b60443560048110156106f1576064359182151583036106ed57610b7e935060243590613153565b90610b9d60405192839215158352604060208401526040830190612c12565b0390f35b5034610457576060806003193601126108fb57610bbc612ba5565b906001600160a01b039060243582811690819003610d8857604435938385168095036106e9578390610bec612dfa565b1680151580610d7a575b610d10575b5080151580610d02575b610c96575b5082151580610c88575b610c1c578380f35b7f0441abf574021357ac657a1ea4fbfa96c4c3f39a68bc29c9d793d337c0e86fad9260a092600454826001600160601b03861b821617600455600b604051948086528501526a426f6f737453797374656d60a81b60808501521660208301526040820152a13880808380f35b508160045416831415610c14565b60a07f0441abf574021357ac657a1ea4fbfa96c4c3f39a68bc29c9d793d337c0e86fad9160035490806001600160601b03841b8316176003558560405192868452600a8785015269436f6d626f506f6f6c7360b01b60808501521660208301526040820152a138610c0a565b508260035416811415610c05565b60a07f0441abf574021357ac657a1ea4fbfa96c4c3f39a68bc29c9d793d337c0e86fad9160025490806001600160601b03841b831617600255866040519287845260088885015267506f6f6c436f726560c01b60808501521660208301526040820152a138610bfb565b508360025416811415610bf6565b8480fd5b5034610457578060031936011261045757610da5612dfa565b6005546040516370a0823160e01b8152306004820152906020906001600160a01b03908490479084908690602490829087165afa948515610f25578295610ef6575b5080610e77575b505082610df9578380f35b600554845460405163a9059cbb60e01b81529083166001600160a01b03166004820152602481019490945282918491168186816044810103925af180156104aa57610e4357808380f35b81813d8311610e70575b610e578183612ae1565b810103126108fb57610e6890612e8c565b503880808380f35b503d610e4d565b81808092858254165af13d15610ef1573d610e9181612b02565b90610e9f6040519283612ae1565b815285843d92013e5b15610eb4578338610dee565b60405162461bcd60e51b815260048101839052601560248201527414d515081dda5d1a191c985dd85b0819985a5b1959605a1b6044820152606490fd5b610ea8565b9094508381813d8311610f1e575b610f0e8183612ae1565b810103126108fb57519338610de7565b503d610f04565b6040513d84823e3d90fd5b50610120366003190112610457576001600160401b036004358181116106f157366023820112156106f157806004013590610f6a82612cf8565b91610f786040519384612ae1565b8083526024602084019160051b830101913683116106e95760248101915b8383106115395750505050826024359261ffff841684036108fb5760a4359081116108fb57610fc9903690600401612b1d565b92610fd2612a1a565b9360046101043510156106f157610fe7612f28565b841561152b576802b5e3af16b18800005b61010435156115245761100d6101043561334a565b925b8461102e856110296044356001600160481b038716612e26565b612e26565b96881561150b576005546040516323b872dd60e01b8152336004820152306024820152604481018a90529260209184916064918391906001600160a01b03165af19182156114bf5787926114ca575b5061108a6110e992612e99565b6005546003546020916001600160a01b0391821691166110b56044356001600160481b038916612e26565b60405163095ea7b360e01b81526001600160a01b0390931660048401526024830152909384919082908b9082906044820190565b03925af19182156114bf578792611473575b50916020939161ffff935b8a156113c55761114892935061117860018060a01b036003541694604051988997889687956303c118b960e41b87526101006004880152610104870190612c37565b921660248501526044356044850152606435606485015260843560848501526003198483030160a4850152612c12565b60c43560c48301528b151560e483015203925af19081156104aa578391611393575b50935b610104356112a9575b5050506111b4600754612f8f565b928360075561010435611296575b6111e46111d3604435600854612e26565b948560085542600c55600654612e26565b9081158015611262575b50506009546040805192835260208084019690965282015260008051602061339683398151915290606090a16040519061122b8261010435612cd5565b83820152817f488e780d64cfe3a3d2b29010be751f8a452e1be3ecfa703e91926e51b6ab751f60403393a360018055604051908152f35b6112825750808404600a55836000805160206133968339815191526111ee565b634e487b7160e01b81526012600452602490fd5b6112a1600954612f8f565b6009556111c2565b15611323576112b9813414612edc565b6004546001600160a01b0316803b156106f157829060446040518094819363ffd230c960e01b83528960048401526112f76024840161010435612cd5565b5af18015610f255761130f575b50505b8238806111a6565b61131890612a2e565b6106f1578238611304565b6004549091906001600160a01b0316803b156108fb5760446040518094819363ffd230c960e01b83528860048401526113626024840161010435612cd5565b5af1801561138857611375575b50611307565b61138190939193612a2e565b913861136f565b6040513d86823e3d90fd5b90506020813d6020116113bd575b816113ae60209383612ae1565b810103126106f157513861119a565b3d91506113a1565b6003546001600160a01b03169361114893925061141a906113f290604435906001600160481b0316612e26565b92604051988997889687956303c118b960e41b87526101006004880152610104870190612c37565b60c43560c48301528960e483015203925af19081156104aa578391611441575b509361119d565b90506020813d60201161146b575b8161145c60209383612ae1565b810103126106f157513861143a565b3d915061144f565b939150916020843d6020116114b7575b8161149060209383612ae1565b810103126114b3578661ffff936114a8602096612e8c565b5091935091936110fb565b8680fd5b3d9150611483565b6040513d89823e3d90fd5b91506020823d602011611503575b816114e560209383612ae1565b810103126114b35761108a6114fc6110e993612e8c565b925061107d565b3d91506114d8565b916020939161ffff9361151f8a3414612e49565b611106565b839261100f565b670de0b6b3a7640000610ff8565b82358681116115de5782019060c060231983360301126115de576040519161156083612a8f565b6024810135835260448101356020840152606481013580151581036115da5760408401526084810135606084015260a4810135908882116115da576115ad60c49260243691840101612b1d565b608085015201359061ffff821682036115d657826020939260a085940152815201920191610f96565b8880fd5b8980fd5b8780fd5b50610100366003190112610457576004356001600160401b03918282116104575760233681840112156108fb5782600401359061161e82612cf8565b9161162c6040519384612ae1565b8083526020948584016024809360051b830101913683116114b35783889101915b83831061180257505050508035868111610d885761166f903690600401612d0f565b9360449384358881116106f15761168a903690600401612d0f565b60649687358a8111610d88576116a4903690600401612d0f565b506084998a358181116106e9576116bf903690600401612d0f565b5060a4358181116106e9576116d8903690600401612d6d565b5060c435908111610d8857600a92916116f8611720923690600401612d6d565b50611701612a1a565b5061170a612f28565b6117178551825114612f4b565b51825114612f4b565b51116117c05780519161173283612cf8565b926117406040519485612ae1565b80845261174f601f1991612cf8565b013689850137905111156117a7575060405162461bcd60e51b815260048101959095528401527f4261746368206372656174696f6e2074656d706f726172696c7920646973616290830152621b195960ea1b90820152fd5b8560018055610b9d604051928284938452830190612bbb565b60405162461bcd60e51b8152600481018890526017818501527f546f6f206d616e7920706f6f6c7320696e206261746368000000000000000000818701528690fd5b823581529181019188910161164d565b5034610457578060031936011261045757608060018060a01b038060025416908060035416908060045416906005541691604051938452602084015260408301526060820152f35b50346104575760203660031901126104575760606101c060405161187d81612a73565b83815283602082015283604082015283838201528360808201528360a08201528360c08201528360e08201528361010082015283610120820152836101408201528361016082015282610180820152836101a0820152015260248160018060a01b0360035416604051928380926340bae06b60e11b825260043560048301525afa908115610f25578291611ae0575b5060018060a01b0360045416916040519263fd12153960e01b84526004356004850152604084602481845afa908115610f255782948392611ab4575b50602060249160405192838092634f02360760e01b825260043560048301525afa928315610462578093611a70575b5050610417611a5e946040519586956080875260018060a01b038151166080880152602081015160a0880152604081015160c0880152606081015160e0880152608081015161010088015261ffff60a08201511661012088015260ff60c08201511661014088015260ff60e0820151166101608801526101008101516101808801526101208101516101a08801526101408101516101c08801526101c0611a3d6101608301516101e090818b0152610180840151906102008b01526102608a0190612c12565b6101a08301516102208a0152910151878203607f1901610240890152612c37565b93151560208601526040850190612cd5565b909492506020853d602011611aac575b81611a8d60209383612ae1565b810103126104575750610417611aa5611a5e95612e8c565b9294611977565b3d9150611a80565b602095506024919250611ad59060403d6040116104a3576104908183612ae1565b959095929150611948565b3d91508183823e611af18282612ae1565b60208183810103126106f1578051906001600160401b0382116106ed576101e082820184830103126106ed5760405192611b2a84612a73565b611b35838301612f9e565b845281830160208181015190860152604080820151908601526060808201519086015260808082015190860152611b6e9060a001612fb2565b60a0850152611b8160c084840101612fc1565b60c0850152611b9460e084840101612fc1565b60e0850152818301610100818101519086015261012080820151908601526101408082015190860152610160808201519086015261018001516001600160401b0381116106e957611bec908284019085850101612fcf565b6101808501528183016101a081810151908601526101c00151906001600160401b0382116106e957808301601f83868601010112156106e95781848401015191611c3583612cf8565b94611c436040519687612ae1565b838652602086019483810160208660051b85858501010101116115d6576020838383010101955b60208660051b858585010101018710611c9057505050505050506101c08201523861190c565b86516001600160401b038111611d5b5760c08385018601820187850103601f190112611d5b5760405191611cc383612a8f565b838501860182016020818101518552604082015190850152611ce790606001612e8c565b6040840152838501860182016080810151606085015260a00151906001600160401b038211611d5757602093611d4560c085611d3489898099988f998f8f849c8601950101010101612fcf565b60808501528a8a8a01010101612fb2565b60a08201528152019701969050611c6a565b8c80fd5b8a80fd5b5034610457578060031936011261045757546040516001600160a01b039091168152602090f35b50346104575780600319360112610457576003546040516001600160a01b039091168152602090f35b503461045757806003193601126104575760e0600654600754600854600954600a5490600b5492600c5494604051968752602087015260408601526060850152608084015260a083015260c0820152f35b503461045757602036600319011261045757611e1a612ba5565b9080610200604051611e2b81612a57565b8281528260208201528260408201528260608201528260808201528260a08201528260c08201528260e08201528261010082015282610120820152826101408201528261016082015282610180820152826101a0820152826101c0820152826101e0820152015260018060a01b03600254169060405191634fc16a3960e11b835260018060a01b038416600484015261022083602481845afa928315610f25578293612130575b5060405163c84728ef60e01b81526001600160a01b038516600482015291908190839060249082905afa9182156106f5578192612114575b5060035460405163c105a19560e01b81526001600160a01b03958616600482015294829186916024918391165afa9384156106f55781946120f8575b506004546001600160a01b0316939290918291825b825181101561200757611f6e81846130ad565b5160405190634f02360760e01b825260048201526020816024818b5afa908115611ffc578591611fc2575b50611fad575b611fa890612f8f565b611f5b565b93611fba611fa891612f8f565b949050611f9f565b90506020813d602011611ff4575b81611fdd60209383612ae1565b81010312610d8857611fee90612e8c565b38611f99565b3d9150611fd0565b6040513d87823e3d90fd5b50836120ed866120de61020095604051968688975188526020810151602089015260408101516040890152606081015160608901526080810151608089015260a081015160a089015260c081015160c089015260e081015160e08901526101008101516101008901526101208101516101208901526101408101516101408901526101608101516101608901526101808101516101808901526101a08101516101a08901526101c08101516101c08901526101e08101516101e0890152015161020087015261028080610220880152860190612bbb565b90848203610240860152612bbb565b906102608301520390f35b61210d9194503d8086833e610b2e8183612ae1565b9238611f46565b6121299192503d8084833e610b2e8183612ae1565b9038611f0a565b909250610220813d61022011612227575b8161214f6102209383612ae1565b810103126108fb5790806024926102006040519161216c83612a57565b805183526020810151602084015260408101516040840152606081015160608401526080810151608084015260a081015160a084015260c081015160c084015260e081015160e08401526101008101516101008401526101208101516101208401526101408101516101408401526101608101516101608401526101808101516101808401526101a08101516101a08401526101c08101516101c08401526101e08101516101e0840152015161020082015293919250611ed2565b3d9150612141565b5034610457578060031936011261045757612248612dfa565b80546001600160a01b03198116825581906001600160a01b03167f8be0079c531659141344cd1fd0a4f28419497f9722a3daafe3b4186f6b6457e08280a380f35b50346104575780600319360112610457576122a26130d7565b5060e06122ad61310f565b6122ba6040518092612b64565bf35b50346104575780600319360112610457576122d5612dfa565b80f35b506101e0366003190112610457576001600160401b0360a4358181116106f157612306903690600401612b1d565b60c4358281116106ed5761231e903690600401612b1d565b9160e4359081116106ed57612337903690600401612b1d565b9061010435928315158403610d88576101443515156101443503610d88576002610164351015610d885760086101a4351015610d885760046101c4351015610d8857612381612f28565b610144351561291a576802b5e3af16b1880000925b6101c4351561291257856123ac6101c43561334a565b955b6123c7876110296044356001600160481b038a16612e26565b956101443515612902576005546040516323b872dd60e01b815233600482015230602482015260448101899052906020908290606490829088906001600160a01b03165af180156113885784906128c7575b6124239150612e99565b600554600254612486916020916001600160a01b0390811691166124526044356001600160481b038716612e26565b60405163095ea7b360e01b81526001600160a01b039093166004840152602483015290928391908290889082906044820190565b03925af180156113885761288e575b505b61014435156127855750602093929161251e9561250c9261253060018060a01b036002541695604051998a988997889663054f52d560e21b8852600435600489015260243560248901526044356044890152606435606489015260843560848901526101c060a48901526101c4880190612c12565b8681036003190160c488015290612c12565b8481036003190160e486015290612c12565b90151561010483015261012480359083015261014435151561014483015261255f610164830161016435612ded565b6101848035908301526101a4356101a483015203925af1908115611388578491612754575b50915b6101c43561267e575b5061259c600654612f8f565b92836006556101c43561266b575b6125cd6125bb604435600854612e26565b948560085542600c5560075490612e26565b908115801561264b575b50506009546040805192835260208084019690965282015260008051602061339683398151915290606090a160405190612614826101c435612cd5565b83820152817f11576008800a693051467e4ee714d9ec8fe4cb716c9040e940390eb77346c04160403393a360018055604051908152f35b6112825750808404600a55836000805160206133968339815191526125d7565b612676600954612f8f565b6009556125aa565b61014435156126f457612692813414612edc565b60045484906001600160a01b0316803b156108fb5760446040518094819363ffd230c960e01b83528860048401526126d0602484016101c435612cd5565b5af18015611388576126e5575b505b38612590565b6126ee90612a2e565b386126dd565b60045484906001600160a01b0316803b156108fb5760446040518094819363ffd230c960e01b8352886004840152612732602484016101c435612cd5565b5af1801561138857612745575b506126df565b61274e90612a2e565b3861273f565b90506020813d821161277d575b8161276e60209383612ae1565b810103126106ed575138612584565b3d9150612761565b91506020939261251e9561250c926128076127b760018060a01b0360025416966001600160481b036044359116612e26565b93604051998a988997889663054f52d560e21b8852600435600489015260243560248901526044356044890152606435606489015260843560848901526101c060a48901526101c4880190612c12565b9015156101048301526101248035908301528a610144830152612831610164830161016435612ded565b6101848035908301526101a4356101a483015203925af190811561138857849161285d575b5091612587565b90506020813d8211612886575b8161287760209383612ae1565b810103126106ed575138612856565b3d915061286a565b6020813d6020116128bf575b816128a760209383612ae1565b810103126106ed576128b890612e8c565b5038612495565b3d915061289a565b506020813d6020116128fa575b816128e160209383612ae1565b810103126106ed576128f561242391612e8c565b612419565b3d91506128d4565b61290d873414612e49565b612497565b8580956123ae565b670de0b6b3a764000092612396565b50346104575780600319360112610457576002546040516001600160a01b039091168152602090f35b503461045757606036600319011261045757602435908115158203610457576044359160048310156108fb57156129df576001600160481b036802b5e3af16b18800005b169180156129d9576129a8915061334a565b610b9d6129bb8261102960043586612e26565b91604051938493846040919493926060820195825260208201520152565b506129a8565b6001600160481b03670de0b6b3a7640000612996565b9050346108fb57816003193601126108fb576005546001600160a01b03168152602090f35b60e435908115158203612a2957565b600080fd5b6001600160401b038111612a4157604052565b634e487b7160e01b600052604160045260246000fd5b61022081019081106001600160401b03821117612a4157604052565b6101e081019081106001600160401b03821117612a4157604052565b60c081019081106001600160401b03821117612a4157604052565b60e081019081106001600160401b03821117612a4157604052565b6102e081019081106001600160401b03821117612a4157604052565b90601f801991011681019081106001600160401b03821117612a4157604052565b6001600160401b038111612a4157601f01601f191660200190565b81601f82011215612a2957803590612b3482612b02565b92612b426040519485612ae1565b82845260208383010111612a2957816000926020809301838601378301015290565b60c08091805184526020810151602085015260408101516040850152606081015160608501526080810151608085015260a081015160a08501520151910152565b600435906001600160a01b0382168203612a2957565b90815180825260208080930193019160005b828110612bdb575050505090565b835185529381019392810192600101612bcd565b60005b838110612c025750506000910152565b8181015183820152602001612bf2565b90602091612c2b81518092818552858086019101612bef565b601f01601f1916010190565b908082519081815260208091019281808460051b8301019501936000915b848310612c655750505050505090565b9091929394958480600192601f1985820301865289519081518152828201518382015260408083015115159082015260608083015190820152612cb76080808401519060c08091850152830190612c12565b9161ffff60a080920151169101529801930193019194939290612c55565b906004821015612ce25752565b634e487b7160e01b600052602160045260246000fd5b6001600160401b038111612a415760051b60200190565b81601f82011215612a2957803591612d2683612cf8565b92612d346040519485612ae1565b808452602092838086019260051b820101928311612a29578301905b828210612d5e575050505090565b81358152908301908301612d50565b9080601f83011215612a2957813590612d8582612cf8565b92612d936040519485612ae1565b828452602092838086019160051b83010192808411612a2957848301915b848310612dc15750505050505090565b82356001600160401b038111612a29578691612de284848094890101612b1d565b815201920191612db1565b906002821015612ce25752565b6000546001600160a01b03163303612e0e57565b60405163118cdaa760e01b8152336004820152602490fd5b91908201809211612e3357565b634e487b7160e01b600052601160045260246000fd5b15612e5057565b60405162461bcd60e51b8152602060048201526014602482015273125b98dbdc9c9958dd0814d51508185b5bdd5b9d60621b6044820152606490fd5b51908115158203612a2957565b15612ea057565b60405162461bcd60e51b815260206004820152601460248201527310925514881d1c985b9cd9995c8819985a5b195960621b6044820152606490fd5b15612ee357565b60405162461bcd60e51b815260206004820152601760248201527f496e636f727265637420626f6f7374207061796d656e740000000000000000006044820152606490fd5b600260015414612f39576002600155565b604051633ee5aeb560e01b8152600490fd5b15612f5257565b60405162461bcd60e51b8152602060048201526015602482015274082e4e4c2f240d8cadccee8d040dad2e6dac2e8c6d605b1b6044820152606490fd5b6000198114612e335760010190565b51906001600160a01b0382168203612a2957565b519061ffff82168203612a2957565b519060ff82168203612a2957565b81601f82011215612a29578051612fe581612b02565b92612ff36040519485612ae1565b81845260208284010111612a29576130119160208085019101612bef565b90565b9190826040910312612a295781516004811015612a295760209092015190565b6020908181840312612a29578051906001600160401b038211612a2957019180601f84011215612a2957825161306981612cf8565b936130776040519586612ae1565b818552838086019260051b820101928311612a29578301905b82821061309e575050505090565b81518152908301908301613090565b80518210156130c15760209160051b010190565b634e487b7160e01b600052603260045260246000fd5b604051906130e482612aaa565b8160c06000918281528260208201528260408201528260608201528260808201528260a08201520152565b6040519061311c82612aaa565b6006548252600754602083015260085460408301526009546060830152600a546080830152600b5460a0830152600c5460c0830152565b9193929093600494858210156133355781613295575b50506131ae575b5060405160019260208201906001600160401b0382118383101761319957506040526000815290565b604190634e487b7160e01b6000525260246000fd5b6005546040516370a0823160e01b81526001600160a01b03928316858201529160209183916024918391165afa80156132895760009061324f575b6802b5e3af16b18800009150106132005738613170565b6000916040519060408201908282106001600160401b038311176131995750604052601981527f496e73756666696369656e7420424954522062616c616e636500000000000000602082015290565b6020823d8211613281575b8161326760209383612ae1565b8101031261045757506802b5e3af16b188000090516131e9565b3d915061325a565b6040513d6000823e3d90fd5b60018060a01b038654166132c06040519384936385ea867560e01b8552898501526024840190612cd5565b81604460009384935afa9182156106f557819082936132e7575b5061316957945092915050565b9250503d8082843e6132f98184612ae1565b82016040838203126108fb5761330e83612e8c565b926020810151906001600160401b0382116106ed5761332e929101612fcf565b91386132da565b602186634e487b7160e01b6000525260246000fd5b6004811015612ce25760018114613388576002811461337b5760031461336f57600090565b674563918244f4000090565b506729a2241af62c000090565b50671bc16d674ec800009056fe44e2ea4ac9ae6e4f62191e63ce0e544f2d0cb79abc8347d7e58920f5c3f3c007a26469706673582212201cae9c8527c2a93c3ef72f02e5354eee4e019b086b89eb9a6b836ef74633fd2364736f6c63430008140033",
  "linkReferences": {},
  "deployedLinkReferences": {}
}