{
  "_format": "hh-sol-artifact-1",
  "contractName": "BitredictPoolFactory",
  "sourceName": "contracts/BitredictPoolFactory.sol",
  "abi": [
    {
      "inputs": [
        {
          "internalType": "address",
          "name": "_poolCore",
          "type": "address"
        },
        {
          "internalType": "address",
          "name": "_comboPools",
          "type": "address"
        },
        {
          "internalType": "address payable",
          "name": "_boostSystem",
          "type": "address"
        },
        {
          "internalType": "address",
          "name": "_bitrToken",
          "type": "address"
        }
      ],
      "stateMutability": "nonpayable",
      "type": "constructor"
    },
    {
      "inputs": [
        {
          "internalType": "address",
          "name": "owner",
          "type": "address"
        }
      ],
      "name": "OwnableInvalidOwner",
      "type": "error"
    },
    {
      "inputs": [
        {
          "internalType": "address",
          "name": "account",
          "type": "address"
        }
      ],
      "name": "OwnableUnauthorizedAccount",
      "type": "error"
    },
    {
      "inputs": [],
      "name": "ReentrancyGuardReentrantCall",
      "type": "error"
    },
    {
      "anonymous": false,
      "inputs": [
        {
          "indexed": true,
          "internalType": "uint256",
          "name": "comboPoolId",
          "type": "uint256"
        },
        {
          "indexed": true,
          "internalType": "address",
          "name": "creator",
          "type": "address"
        },
        {
          "indexed": false,
          "internalType": "enum BoostTier",
          "name": "boostTier",
          "type": "uint8"
        },
        {
          "indexed": false,
          "internalType": "uint256",
          "name": "totalCost",
          "type": "uint256"
        }
      ],
      "name": "ComboPoolCreatedWithBoost",
      "type": "event"
    },
    {
      "anonymous": false,
      "inputs": [
        {
          "indexed": false,
          "internalType": "string",
          "name": "contractName",
          "type": "string"
        },
        {
          "indexed": false,
          "internalType": "address",
          "name": "oldAddress",
          "type": "address"
        },
        {
          "indexed": false,
          "internalType": "address",
          "name": "newAddress",
          "type": "address"
        }
      ],
      "name": "ContractUpgraded",
      "type": "event"
    },
    {
      "anonymous": false,
      "inputs": [
        {
          "indexed": false,
          "internalType": "uint256",
          "name": "totalPools",
          "type": "uint256"
        },
        {
          "indexed": false,
          "internalType": "uint256",
          "name": "totalVolume",
          "type": "uint256"
        },
        {
          "indexed": false,
          "internalType": "uint256",
          "name": "totalBoosted",
          "type": "uint256"
        }
      ],
      "name": "FactoryAnalyticsUpdated",
      "type": "event"
    },
    {
      "anonymous": false,
      "inputs": [
        {
          "indexed": true,
          "internalType": "address",
          "name": "previousOwner",
          "type": "address"
        },
        {
          "indexed": true,
          "internalType": "address",
          "name": "newOwner",
          "type": "address"
        }
      ],
      "name": "OwnershipTransferred",
      "type": "event"
    },
    {
      "anonymous": false,
      "inputs": [
        {
          "indexed": true,
          "internalType": "uint256",
          "name": "poolId",
          "type": "uint256"
        },
        {
          "indexed": true,
          "internalType": "address",
          "name": "creator",
          "type": "address"
        },
        {
          "indexed": false,
          "internalType": "enum BoostTier",
          "name": "boostTier",
          "type": "uint8"
        },
        {
          "indexed": false,
          "internalType": "uint256",
          "name": "totalCost",
          "type": "uint256"
        }
      ],
      "name": "PoolCreatedWithBoost",
      "type": "event"
    },
    {
      "inputs": [
        {
          "internalType": "bytes32[]",
          "name": "_predictedOutcomes",
          "type": "bytes32[]"
        },
        {
          "internalType": "uint256[]",
          "name": "_odds",
          "type": "uint256[]"
        },
        {
          "internalType": "uint256[]",
          "name": "_creatorStakes",
          "type": "uint256[]"
        },
        {
          "internalType": "uint256[]",
          "name": "_eventStartTimes",
          "type": "uint256[]"
        },
        {
          "internalType": "uint256[]",
          "name": "_eventEndTimes",
          "type": "uint256[]"
        },
        {
          "internalType": "string[]",
          "name": "_leagues",
          "type": "string[]"
        },
        {
          "internalType": "string[]",
          "name": "_categories",
          "type": "string[]"
        },
        {
          "internalType": "bool",
          "name": "_useBitr",
          "type": "bool"
        }
      ],
      "name": "batchCreatePools",
      "outputs": [
        {
          "internalType": "uint256[]",
          "name": "poolIds",
          "type": "uint256[]"
        }
      ],
      "stateMutability": "payable",
      "type": "function"
    },
    {
      "inputs": [],
      "name": "bitrToken",
      "outputs": [
        {
          "internalType": "contract IERC20",
          "name": "",
          "type": "address"
        }
      ],
      "stateMutability": "view",
      "type": "function"
    },
    {
      "inputs": [],
      "name": "boostSystem",
      "outputs": [
        {
          "internalType": "contract BitredictBoostSystem",
          "name": "",
          "type": "address"
        }
      ],
      "stateMutability": "view",
      "type": "function"
    },
    {
      "inputs": [
        {
          "internalType": "address",
          "name": "creator",
          "type": "address"
        },
        {
          "internalType": "uint256",
          "name": "poolId",
          "type": "uint256"
        },
        {
          "internalType": "enum BoostTier",
          "name": "boostTier",
          "type": "uint8"
        },
        {
          "internalType": "bool",
          "name": "useBitr",
          "type": "bool"
        }
      ],
      "name": "canCreatePoolWithBoost",
      "outputs": [
        {
          "internalType": "bool",
          "name": "canCreate",
          "type": "bool"
        },
        {
          "internalType": "string",
          "name": "reason",
          "type": "string"
        }
      ],
      "stateMutability": "view",
      "type": "function"
    },
    {
      "inputs": [],
      "name": "comboPools",
      "outputs": [
        {
          "internalType": "contract BitredictComboPools",
          "name": "",
          "type": "address"
        }
      ],
      "stateMutability": "view",
      "type": "function"
    },
    {
      "inputs": [
        {
          "components": [
            {
              "internalType": "bytes32",
              "name": "marketId",
              "type": "bytes32"
            },
            {
              "internalType": "bytes32",
              "name": "expectedOutcome",
              "type": "bytes32"
            },
            {
              "internalType": "bool",
              "name": "resolved",
              "type": "bool"
            },
            {
              "internalType": "bytes32",
              "name": "actualOutcome",
              "type": "bytes32"
            },
            {
              "internalType": "string",
              "name": "description",
              "type": "string"
            },
            {
              "internalType": "uint16",
              "name": "odds",
              "type": "uint16"
            }
          ],
          "internalType": "struct BitredictComboPools.OutcomeCondition[]",
          "name": "conditions",
          "type": "tuple[]"
        },
        {
          "internalType": "uint16",
          "name": "combinedOdds",
          "type": "uint16"
        },
        {
          "internalType": "uint256",
          "name": "creatorStake",
          "type": "uint256"
        },
        {
          "internalType": "uint256",
          "name": "earliestEventStart",
          "type": "uint256"
        },
        {
          "internalType": "uint256",
          "name": "latestEventEnd",
          "type": "uint256"
        },
        {
          "internalType": "string",
          "name": "category",
          "type": "string"
        },
        {
          "internalType": "uint256",
          "name": "maxBetPerUser",
          "type": "uint256"
        },
        {
          "internalType": "bool",
          "name": "useBitr",
          "type": "bool"
        },
        {
          "internalType": "enum BoostTier",
          "name": "_boostTier",
          "type": "uint8"
        }
      ],
      "name": "createComboPoolWithBoost",
      "outputs": [
        {
          "internalType": "uint256",
          "name": "comboPoolId",
          "type": "uint256"
        }
      ],
      "stateMutability": "payable",
      "type": "function"
    },
    {
      "inputs": [
        {
          "internalType": "bytes32",
          "name": "_predictedOutcome",
          "type": "bytes32"
        },
        {
          "internalType": "uint256",
          "name": "_odds",
          "type": "uint256"
        },
        {
          "internalType": "uint256",
          "name": "_creatorStake",
          "type": "uint256"
        },
        {
          "internalType": "uint256",
          "name": "_eventStartTime",
          "type": "uint256"
        },
        {
          "internalType": "uint256",
          "name": "_eventEndTime",
          "type": "uint256"
        },
        {
          "internalType": "string",
          "name": "_league",
          "type": "string"
        },
        {
          "internalType": "string",
          "name": "_category",
          "type": "string"
        },
        {
          "internalType": "string",
          "name": "_region",
          "type": "string"
        },
        {
          "internalType": "string",
          "name": "_homeTeam",
          "type": "string"
        },
        {
          "internalType": "string",
          "name": "_awayTeam",
          "type": "string"
        },
        {
          "internalType": "string",
          "name": "_title",
          "type": "string"
        },
        {
          "internalType": "bool",
          "name": "_isPrivate",
          "type": "bool"
        },
        {
          "internalType": "uint256",
          "name": "_maxBetPerUser",
          "type": "uint256"
        },
        {
          "internalType": "bool",
          "name": "_useBitr",
          "type": "bool"
        },
        {
          "internalType": "enum OracleType",
          "name": "_oracleType",
          "type": "uint8"
        },
        {
          "internalType": "bytes32",
          "name": "_marketId",
          "type": "bytes32"
        },
        {
          "internalType": "enum MarketType",
          "name": "_marketType",
          "type": "uint8"
        },
        {
          "internalType": "enum BoostTier",
          "name": "_boostTier",
          "type": "uint8"
        }
      ],
      "name": "createPoolWithBoost",
      "outputs": [
        {
          "internalType": "uint256",
          "name": "poolId",
          "type": "uint256"
        }
      ],
      "stateMutability": "payable",
      "type": "function"
    },
    {
      "inputs": [],
      "name": "emergencyPause",
      "outputs": [],
      "stateMutability": "nonpayable",
      "type": "function"
    },
    {
      "inputs": [],
      "name": "emergencyWithdraw",
      "outputs": [],
      "stateMutability": "nonpayable",
      "type": "function"
    },
    {
      "inputs": [],
      "name": "factoryAnalytics",
      "outputs": [
        {
          "internalType": "uint256",
          "name": "totalPoolsCreated",
          "type": "uint256"
        },
        {
          "internalType": "uint256",
          "name": "totalComboPoolsCreated",
          "type": "uint256"
        },
        {
          "internalType": "uint256",
          "name": "totalVolumeProcessed",
          "type": "uint256"
        },
        {
          "internalType": "uint256",
          "name": "totalBoostedPools",
          "type": "uint256"
        },
        {
          "internalType": "uint256",
          "name": "averagePoolSize",
          "type": "uint256"
        },
        {
          "internalType": "uint256",
          "name": "factoryFees",
          "type": "uint256"
        },
        {
          "internalType": "uint256",
          "name": "lastUpdated",
          "type": "uint256"
        }
      ],
      "stateMutability": "view",
      "type": "function"
    },
    {
      "inputs": [],
      "name": "getActivePoolsWithBoosts",
      "outputs": [
        {
          "internalType": "uint256[]",
          "name": "poolIds",
          "type": "uint256[]"
        },
        {
          "internalType": "enum BoostTier[]",
          "name": "boostTiers",
          "type": "uint8[]"
        }
      ],
      "stateMutability": "view",
      "type": "function"
    },
    {
      "inputs": [
        {
          "internalType": "uint256",
          "name": "comboPoolId",
          "type": "uint256"
        }
      ],
      "name": "getAllComboPoolData",
      "outputs": [
        {
          "components": [
            {
              "internalType": "address",
              "name": "creator",
              "type": "address"
            },
            {
              "internalType": "uint256",
              "name": "creatorStake",
              "type": "uint256"
            },
            {
              "internalType": "uint256",
              "name": "totalCreatorSideStake",
              "type": "uint256"
            },
            {
              "internalType": "uint256",
              "name": "maxBettorStake",
              "type": "uint256"
            },
            {
              "internalType": "uint256",
              "name": "totalBettorStake",
              "type": "uint256"
            },
            {
              "internalType": "uint16",
              "name": "totalOdds",
              "type": "uint16"
            },
            {
              "internalType": "uint8",
              "name": "flags",
              "type": "uint8"
            },
            {
              "internalType": "uint8",
              "name": "conditionCount",
              "type": "uint8"
            },
            {
              "internalType": "uint256",
              "name": "eventStartTime",
              "type": "uint256"
            },
            {
              "internalType": "uint256",
              "name": "eventEndTime",
              "type": "uint256"
            },
            {
              "internalType": "uint256",
              "name": "bettingEndTime",
              "type": "uint256"
            },
            {
              "internalType": "uint256",
              "name": "resultTimestamp",
              "type": "uint256"
            },
            {
              "internalType": "string",
              "name": "category",
              "type": "string"
            },
            {
              "internalType": "uint256",
              "name": "maxBetPerUser",
              "type": "uint256"
            },
            {
              "components": [
                {
                  "internalType": "bytes32",
                  "name": "marketId",
                  "type": "bytes32"
                },
                {
                  "internalType": "bytes32",
                  "name": "expectedOutcome",
                  "type": "bytes32"
                },
                {
                  "internalType": "bool",
                  "name": "resolved",
                  "type": "bool"
                },
                {
                  "internalType": "bytes32",
                  "name": "actualOutcome",
                  "type": "bytes32"
                },
                {
                  "internalType": "string",
                  "name": "description",
                  "type": "string"
                },
                {
                  "internalType": "uint16",
                  "name": "odds",
                  "type": "uint16"
                }
              ],
              "internalType": "struct BitredictComboPools.OutcomeCondition[]",
              "name": "conditions",
              "type": "tuple[]"
            }
          ],
          "internalType": "struct BitredictComboPools.ComboPool",
          "name": "comboPool",
          "type": "tuple"
        },
        {
          "internalType": "bool",
          "name": "isBoosted",
          "type": "bool"
        },
        {
          "internalType": "enum BoostTier",
          "name": "boostTier",
          "type": "uint8"
        },
        {
          "internalType": "uint256",
          "name": "boostExpiry",
          "type": "uint256"
        }
      ],
      "stateMutability": "view",
      "type": "function"
    },
    {
      "inputs": [
        {
          "internalType": "uint256",
          "name": "poolId",
          "type": "uint256"
        }
      ],
      "name": "getAllPoolData",
      "outputs": [
        {
          "components": [
            {
              "internalType": "address",
              "name": "creator",
              "type": "address"
            },
            {
              "internalType": "uint16",
              "name": "odds",
              "type": "uint16"
            },
            {
              "internalType": "uint8",
              "name": "flags",
              "type": "uint8"
            },
            {
              "internalType": "enum OracleType",
              "name": "oracleType",
              "type": "uint8"
            },
            {
              "internalType": "uint256",
              "name": "creatorStake",
              "type": "uint256"
            },
            {
              "internalType": "uint256",
              "name": "totalCreatorSideStake",
              "type": "uint256"
            },
            {
              "internalType": "uint256",
              "name": "maxBettorStake",
              "type": "uint256"
            },
            {
              "internalType": "uint256",
              "name": "totalBettorStake",
              "type": "uint256"
            },
            {
              "internalType": "bytes32",
              "name": "predictedOutcome",
              "type": "bytes32"
            },
            {
              "internalType": "bytes32",
              "name": "result",
              "type": "bytes32"
            },
            {
              "internalType": "bytes32",
              "name": "marketId",
              "type": "bytes32"
            },
            {
              "internalType": "uint256",
              "name": "eventStartTime",
              "type": "uint256"
            },
            {
              "internalType": "uint256",
              "name": "eventEndTime",
              "type": "uint256"
            },
            {
              "internalType": "uint256",
              "name": "bettingEndTime",
              "type": "uint256"
            },
            {
              "internalType": "uint256",
              "name": "resultTimestamp",
              "type": "uint256"
            },
            {
              "internalType": "uint256",
              "name": "arbitrationDeadline",
              "type": "uint256"
            },
            {
              "internalType": "string",
              "name": "league",
              "type": "string"
            },
            {
              "internalType": "string",
              "name": "category",
              "type": "string"
            },
            {
              "internalType": "string",
              "name": "region",
              "type": "string"
            },
            {
              "internalType": "string",
              "name": "homeTeam",
              "type": "string"
            },
            {
              "internalType": "string",
              "name": "awayTeam",
              "type": "string"
            },
            {
              "internalType": "string",
              "name": "title",
              "type": "string"
            },
            {
              "internalType": "uint256",
              "name": "maxBetPerUser",
              "type": "uint256"
            }
          ],
          "internalType": "struct BitredictPoolCore.Pool",
          "name": "pool",
          "type": "tuple"
        },
        {
          "internalType": "bool",
          "name": "isBoosted",
          "type": "bool"
        },
        {
          "internalType": "enum BoostTier",
          "name": "boostTier",
          "type": "uint8"
        },
        {
          "internalType": "uint256",
          "name": "boostExpiry",
          "type": "uint256"
        }
      ],
      "stateMutability": "view",
      "type": "function"
    },
    {
      "inputs": [],
      "name": "getContractAddresses",
      "outputs": [
        {
          "internalType": "address",
          "name": "poolCoreAddress",
          "type": "address"
        },
        {
          "internalType": "address",
          "name": "comboPoolsAddress",
          "type": "address"
        },
        {
          "internalType": "address",
          "name": "boostSystemAddress",
          "type": "address"
        },
        {
          "internalType": "address",
          "name": "bitrTokenAddress",
          "type": "address"
        }
      ],
      "stateMutability": "view",
      "type": "function"
    },
    {
      "inputs": [
        {
          "internalType": "address",
          "name": "creator",
          "type": "address"
        }
      ],
      "name": "getCreatorAnalytics",
      "outputs": [
        {
          "components": [
            {
              "internalType": "uint256",
              "name": "totalPoolsCreated",
              "type": "uint256"
            },
            {
              "internalType": "uint256",
              "name": "successfulPools",
              "type": "uint256"
            },
            {
              "internalType": "uint256",
              "name": "totalVolumeGenerated",
              "type": "uint256"
            },
            {
              "internalType": "uint256",
              "name": "averagePoolSize",
              "type": "uint256"
            },
            {
              "internalType": "uint256",
              "name": "reputationScore",
              "type": "uint256"
            },
            {
              "internalType": "uint256",
              "name": "winRate",
              "type": "uint256"
            },
            {
              "internalType": "uint256",
              "name": "totalEarnings",
              "type": "uint256"
            },
            {
              "internalType": "uint256",
              "name": "activePoolsCount",
              "type": "uint256"
            }
          ],
          "internalType": "struct BitredictPoolCore.CreatorStats",
          "name": "coreStats",
          "type": "tuple"
        },
        {
          "internalType": "uint256[]",
          "name": "creatorPools",
          "type": "uint256[]"
        },
        {
          "internalType": "uint256[]",
          "name": "creatorComboPools",
          "type": "uint256[]"
        },
        {
          "internalType": "uint256",
          "name": "totalBoostedPools",
          "type": "uint256"
        }
      ],
      "stateMutability": "view",
      "type": "function"
    },
    {
      "inputs": [],
      "name": "getFactoryAnalytics",
      "outputs": [
        {
          "components": [
            {
              "internalType": "uint256",
              "name": "totalPoolsCreated",
              "type": "uint256"
            },
            {
              "internalType": "uint256",
              "name": "totalComboPoolsCreated",
              "type": "uint256"
            },
            {
              "internalType": "uint256",
              "name": "totalVolumeProcessed",
              "type": "uint256"
            },
            {
              "internalType": "uint256",
              "name": "totalBoostedPools",
              "type": "uint256"
            },
            {
              "internalType": "uint256",
              "name": "averagePoolSize",
              "type": "uint256"
            },
            {
              "internalType": "uint256",
              "name": "factoryFees",
              "type": "uint256"
            },
            {
              "internalType": "uint256",
              "name": "lastUpdated",
              "type": "uint256"
            }
          ],
          "internalType": "struct BitredictPoolFactory.FactoryAnalytics",
          "name": "",
          "type": "tuple"
        }
      ],
      "stateMutability": "view",
      "type": "function"
    },
    {
      "inputs": [],
      "name": "getGlobalAnalytics",
      "outputs": [
        {
          "components": [
            {
              "internalType": "uint256",
              "name": "totalPools",
              "type": "uint256"
            },
            {
              "internalType": "uint256",
              "name": "totalVolume",
              "type": "uint256"
            },
            {
              "internalType": "uint256",
              "name": "totalUsers",
              "type": "uint256"
            },
            {
              "internalType": "uint256",
              "name": "totalBets",
              "type": "uint256"
            },
            {
              "internalType": "uint256",
              "name": "averagePoolSize",
              "type": "uint256"
            },
            {
              "internalType": "uint256",
              "name": "lastUpdated",
              "type": "uint256"
            }
          ],
          "internalType": "struct BitredictPoolCore.GlobalStats",
          "name": "poolStats",
          "type": "tuple"
        },
        {
          "components": [
            {
              "internalType": "uint256",
              "name": "totalPoolsCreated",
              "type": "uint256"
            },
            {
              "internalType": "uint256",
              "name": "totalComboPoolsCreated",
              "type": "uint256"
            },
            {
              "internalType": "uint256",
              "name": "totalVolumeProcessed",
              "type": "uint256"
            },
            {
              "internalType": "uint256",
              "name": "totalBoostedPools",
              "type": "uint256"
            },
            {
              "internalType": "uint256",
              "name": "averagePoolSize",
              "type": "uint256"
            },
            {
              "internalType": "uint256",
              "name": "factoryFees",
              "type": "uint256"
            },
            {
              "internalType": "uint256",
              "name": "lastUpdated",
              "type": "uint256"
            }
          ],
          "internalType": "struct BitredictPoolFactory.FactoryAnalytics",
          "name": "factoryStats",
          "type": "tuple"
        },
        {
          "internalType": "uint256",
          "name": "totalBoosted",
          "type": "uint256"
        },
        {
          "internalType": "uint256",
          "name": "totalComboVolume",
          "type": "uint256"
        }
      ],
      "stateMutability": "view",
      "type": "function"
    },
    {
      "inputs": [
        {
          "internalType": "uint256",
          "name": "_creatorStake",
          "type": "uint256"
        },
        {
          "internalType": "bool",
          "name": "_useBitr",
          "type": "bool"
        },
        {
          "internalType": "enum BoostTier",
          "name": "_boostTier",
          "type": "uint8"
        }
      ],
      "name": "getPoolCreationCost",
      "outputs": [
        {
          "internalType": "uint256",
          "name": "totalCost",
          "type": "uint256"
        },
        {
          "internalType": "uint256",
          "name": "creationFee",
          "type": "uint256"
        },
        {
          "internalType": "uint256",
          "name": "boostCost",
          "type": "uint256"
        }
      ],
      "stateMutability": "view",
      "type": "function"
    },
    {
      "inputs": [],
      "name": "owner",
      "outputs": [
        {
          "internalType": "address",
          "name": "",
          "type": "address"
        }
      ],
      "stateMutability": "view",
      "type": "function"
    },
    {
      "inputs": [],
      "name": "poolCore",
      "outputs": [
        {
          "internalType": "contract BitredictPoolCore",
          "name": "",
          "type": "address"
        }
      ],
      "stateMutability": "view",
      "type": "function"
    },
    {
      "inputs": [],
      "name": "renounceOwnership",
      "outputs": [],
      "stateMutability": "nonpayable",
      "type": "function"
    },
    {
      "inputs": [
        {
          "internalType": "address",
          "name": "newOwner",
          "type": "address"
        }
      ],
      "name": "transferOwnership",
      "outputs": [],
      "stateMutability": "nonpayable",
      "type": "function"
    },
    {
      "inputs": [
        {
          "internalType": "address",
          "name": "_newPoolCore",
          "type": "address"
        },
        {
          "internalType": "address",
          "name": "_newComboPools",
          "type": "address"
        },
        {
          "internalType": "address payable",
          "name": "_newBoostSystem",
          "type": "address"
        }
      ],
      "name": "upgradeContracts",
      "outputs": [],
      "stateMutability": "nonpayable",
      "type": "function"
    },
    {
      "stateMutability": "payable",
      "type": "receive"
    }
  ],
  "bytecode": "0x6080346200025757601f6200363838819003918201601f191683019291906001600160401b038411838510176200025c5781608092849260409687528339810103126200025757620000518162000272565b6200005f6020830162000272565b8383015190926001600160a01b0380831692909190839003620002575760606200008a910162000272565b9033156200023f57600054948160018060a01b0319953387891617600055885197823391167f8be0079c531659141344cd1fd0a4f28419497f9722a3daafe3b4186f6b6457e0600080a36001805516958615620001fd57508116918215620001b95783156200017557169384156200013157836002541617600255826003541617600355816004541617600455600554161760055542600c55516133b09081620002888239f35b855162461bcd60e51b815260206004820152601a60248201527f496e76616c6964204249545220746f6b656e20616464726573730000000000006044820152606490fd5b865162461bcd60e51b815260206004820152601c60248201527f496e76616c696420626f6f73742073797374656d2061646472657373000000006044820152606490fd5b865162461bcd60e51b815260206004820152601b60248201527f496e76616c696420636f6d626f20706f6f6c73206164647265737300000000006044820152606490fd5b62461bcd60e51b815260206004820152601960248201527f496e76616c696420706f6f6c20636f72652061646472657373000000000000006044820152606490fd5b8551631e4fbdf760e01b815260006004820152602490fd5b600080fd5b634e487b7160e01b600052604160045260246000fd5b51906001600160a01b0382168203620002575756fe608080604052600436101561001d575b50361561001b57600080fd5b005b600090813560e01c90816301b708c21461292f5750806335ca6876146128a557806338cac0c21461287c57806351858e27146128605780635eec742b1461282d578063715018a6146127e557806375ff84b61461250957806382b80393146124b857806387ce953e1461248f5780638da5cb5b146124685780638db8a21014611f63578063953874d214611f1b578063aa0272da146117db578063bc9c4318146115b0578063c407be0414610f18578063db2e21bc14610d7f578063e8a0323a14610bd3578063e8e791cd14610b6f578063f2d366fc146109bf578063f2fde38b1461094b578063f3c1c3be1461072b578063f6915af5146107025763f6e339c30361000f573461045757602036600319011261045757806024916102c060405161014781612b8e565b8281528260208201528260408201528260608201528260808201528260a08201528260c08201528260e08201528261010082015282610120820152826101408201528261016082015282610180820152826101a0820152826101c0820152826101e08201526060610200820152606061022082015260606102408201526060610260820152606061028082015260606102a082015201528060018060a01b03600254166040519384809263068bcd8d60e01b825260043560048301525afa9182156106f55781926104b5575b5060018060a01b0360045416916040519263fd12153960e01b84526004356004850152604084602481845afa9081156104aa578394849261046e575b50602060249160405192838092634f02360760e01b825260043560048301525afa938415610462578094610420575b50506104176040519485946080865260018060a01b03855116608087015261ffff60208601511660a087015260ff60408601511660c08701526102c9606086015160e0880190612d3f565b608085015161010087015260a085015161012087015260c085015161014087015260e08501516101608701526101008501516101808701526101208501516101a08701526101408501516101c08701526101608501516101e08701526101808501516102008701526101a08501516102208701526101c08501516102408701526101e08501516102608701526102c06103fd6102806103e66103d06103816102008b01518c6102e095869101526103608d0190612a2c565b926103ba8b8d6102406103a861022084015198607f19998a858303016102a0860152612a2c565b92015190898882850301910152612a2c565b908c6102608d0151918682850301910152612a2c565b6102808a0151838c8303016103008d0152612a2c565b906102a0890151908a8303016103208b0152612a2c565b950151610340870152151560208601526040850190612aef565b60608301520390f35b909193506020823d60201161045a575b8161043d60209383612bc5565b81010312610457575061044f90612dde565b91388061027e565b80fd5b3d9150610430565b604051903d90823e3d90fd5b6020955060249192506104989060403d6040116104a3575b6104908183612bc5565b810190612f9d565b95909592915061024f565b503d610486565b6040513d85823e3d90fd5b9091503d8083833e6104c78183612bc5565b60208282810103126106f15781516001600160401b0381116106ed576102e081840183850103126106ed57604051926104ff84612b8e565b61050a828201612f27565b845261051a602083830101612f3b565b602085015261052d604083830101612f4a565b60408501526060828201015160028110156106e95760608501528082016080818101519086015260a0808201519086015260c0808201519086015260e08082015190860152610100808201519086015261012080820151908601526101408082015190860152610160808201519086015261018080820151908601526101a080820151908601526101c080820151908601526101e0808201519086015261020001516001600160401b0381116106e9576105ee908483019084840101612f58565b61020085015280820161022001516001600160401b0381116106e95761061b908483019084840101612f58565b61022085015280820161024001516001600160401b0381116106e957610648908483019084840101612f58565b61024085015280820161026001516001600160401b0381116106e957610675908483019084840101612f58565b61026085015280820161028001516001600160401b0381116106e9576106a2908483019084840101612f58565b6102808501528082016102a00151926001600160401b0384116106e9576102c0936106d39183019084840101612f58565b6102a08501520101516102c08201529038610213565b8580fd5b8380fd5b8280fd5b50604051903d90823e3d90fd5b50346104575780600319360112610457576004546040516001600160a01b039091168152602090f35b50346104575780600319360112610457576040519061074982612b60565b80825260209080828401528060408401528060608401528060808401528060a080940152610775613060565b50600254604051636b4169c360e01b81526001600160a01b0394909160c0908390600490829089165afa80156104aa5783906108da575b600492506107b8613098565b9560e08185541660405195868092639f010deb851b82525afa9384156108cf578594610897575b508260049160035416604051928380926325bcec5d60e11b82525afa948515610462578095610861575b50509481610853926101e0976040519781518952808201519089015260408101516040890152606081015160608901526080810151608089015201519086015260c085019061297e565b6101a08301526101c0820152f35b909194508282813d8311610890575b61087a8183612bc5565b8101031261045757508401519281610853610809565b503d610870565b90935060e0813d60e0116108c7575b816108b360e09383612bc5565b810103126108c3575192826107df565b8480fd5b3d91506108a6565b6040513d87823e3d90fd5b509060c0813d8211610943575b816108f460c09383612bc5565b810103126106f15790600491816040519161090e83612b60565b8051835286810151878401526040810151604084015260608101516060840152608081015160808401520151828201526107ac565b3d91506108e7565b5034610457576020366003190112610457576109656129bf565b61096d612d4c565b6001600160a01b039081169081156109a65782546001600160a01b03198116831784551660008051602061333b8339815191528380a380f35b604051631e4fbdf760e01b815260048101849052602490fd5b50346104575780600319360112610457576002546040516323b020d560e21b8152916001600160a01b039181908490600490829086165afa9283156106f5578193610b4b575b508291925190610a2d610a1783612c4a565b92610a256040519485612bc5565b808452612c4a565b6020939083850190601f1901368237829560045416955b8251811015610ae757610a578184613036565b516040519063fd12153960e01b82526004820152602460408282818c5afa918215610adc578692610aba575b50610a8e8388613036565b906004831015610aa8575052610aa390612f18565b610a44565b634e487b7160e01b8752602160045286fd5b610ad491925060403d6040116104a3576104908183612bc5565b509038610a83565b6040513d88823e3d90fd5b5090610b0591838587806040519687966040885260408801906129d5565b928684038288015251928381520193925b828110610b2557505050500390f35b9193839550908082610b3b600194839751612aef565b0195019101918594939192610b16565b610b689193503d8085833e610b608183612bc5565b810190612fbd565b9138610a05565b503461045757608036600319011261045757610b896129bf565b60443560048110156106f1576064359182151583036106ed57610bb09350602435906130dc565b90610bcf60405192839215158352604060208401526040830190612a2c565b0390f35b503461045757606080600319360112610d7b57610bee6129bf565b906001600160a01b0390602435828116908190036108c357604435938385168095036106e9578390610c1e612d4c565b1680151580610d6d575b610d18575b5080151580610d0a575b610cb3575b5082151580610ca5575b610c4e578380f35b60008051602061335b8339815191529260a09260045482600180871b0319821617600455600b604051948086528501526a426f6f737453797374656d60a81b60808501521660208301526040820152a13880808380f35b508160045416831415610c46565b60a060008051602061335b833981519152916003549080600180851b03198316176003558560405192868452600a8785015269436f6d626f506f6f6c7360b01b60808501521660208301526040820152a138610c3c565b508260035416811415610c37565b60a060008051602061335b833981519152916002549080600180851b0319831617600255866040519287845260088885015267506f6f6c436f726560c01b60808501521660208301526040820152a138610c2d565b508360025416811415610c28565b5080fd5b5034610457578060031936011261045757610d98612d4c565b6005546040516370a0823160e01b8152306004820152906020906001600160a01b03908490479084908690602490829087165afa948515610f0d578295610ede575b5080610e5f575b505082610dec578380f35b610e189281839260055416908654168660405180978195829463a9059cbb60e01b845260048401612e50565b03925af180156104aa57610e2b57808380f35b81813d8311610e58575b610e3f8183612bc5565b81010312610d7b57610e5090612dde565b503880808380f35b503d610e35565b81808092858254165af13d15610ed9573d610e7981612be8565b90610e876040519283612bc5565b815285843d92013e5b15610e9c578338610de1565b60405162461bcd60e51b815260048101839052601560248201527414d515081dda5d1a191c985dd85b0819985a5b1959605a1b6044820152606490fd5b610e90565b9094508381813d8311610f06575b610ef68183612bc5565b81010312610d7b57519338610dda565b503d610eec565b6040513d84823e3d90fd5b50610120366003190112610457576001600160401b036004358181116106f157366023820112156106f157806004013590610f5282612c4a565b91610f606040519384612bc5565b8083526024602084019160051b830101913683116106e95760248101915b8383106115075750505050826024359261ffff84168403610d7b5760a435908111610d7b57610fb1903690600401612c03565b92610fba612954565b9360046101043510156106f157610fcf612eb1565b84156114f9576802b5e3af16b18800005b61010435156114f257610ff5610104356132cf565b925b84611016856110116044356001600160481b038716612d78565b612d78565b9688156114d9576005546040516323b872dd60e01b81529260209184916001600160a01b03909116908290816110518e303360048501612deb565b03925af191821561148d578792611498575b506110706110b992612e0d565b6005546003546020916001600160a01b03918216911661109b6044356001600160481b038916612d78565b918a60405180978195829463095ea7b360e01b845260048401612e50565b03925af191821561148d578792611441575b50916020939161ffff935b8a156113935761111892935061114860018060a01b036003541694604051988997889687956303c118b960e41b87526101006004880152610104870190612a51565b921660248501526044356044850152606435606485015260843560848501526003198483030160a4850152612a2c565b60c43560c48301528b151560e483015203925af19081156104aa578391611361575b50935b61010435611277575b505050611184600754612f18565b928360075561010435611264575b6111b46111a3604435600854612d78565b948560085542600c55600654612d78565b9081158015611230575b505060209360008051602061331b833981519152916111e560095460405193849384612968565b0390a1604051906111f98261010435612aef565b83820152817f488e780d64cfe3a3d2b29010be751f8a452e1be3ecfa703e91926e51b6ab751f60403393a360018055604051908152f35b6112505750808404600a558360008051602061331b8339815191526111be565b634e487b7160e01b81526012600452602490fd5b61126f600954612f18565b600955611192565b156112f157611287813414612e6b565b6004546001600160a01b0316803b156106f157829060446040518094819363ffd230c960e01b83528960048401526112c56024840161010435612aef565b5af18015610f0d576112dd575b50505b823880611176565b6112e690612b7b565b6106f15782386112d2565b6004549091906001600160a01b0316803b15610d7b5760446040518094819363ffd230c960e01b83528860048401526113306024840161010435612aef565b5af1801561135657611343575b506112d5565b61134f90939193612b7b565b913861133d565b6040513d86823e3d90fd5b90506020813d60201161138b575b8161137c60209383612bc5565b810103126106f157513861116a565b3d915061136f565b6003546001600160a01b0316936111189392506113e8906113c090604435906001600160481b0316612d78565b92604051988997889687956303c118b960e41b87526101006004880152610104870190612a51565b60c43560c48301528960e483015203925af19081156104aa57839161140f575b509361116d565b90506020813d602011611439575b8161142a60209383612bc5565b810103126106f1575138611408565b3d915061141d565b939150916020843d602011611485575b8161145e60209383612bc5565b81010312611481578661ffff93611476602096612dde565b5091935091936110cb565b8680fd5b3d9150611451565b6040513d89823e3d90fd5b91506020823d6020116114d1575b816114b360209383612bc5565b81010312611481576110706114ca6110b993612dde565b9250611063565b3d91506114a6565b916020939161ffff936114ed8a3414612d9b565b6110d6565b8392610ff7565b670de0b6b3a7640000610fe0565b82358681116115ac5782019060c060231983360301126115ac576040519161152e83612b60565b6024810135835260448101356020840152606481013580151581036115a85760408401526084810135606084015260a4810135908882116115a85761157b60c49260243691840101612c03565b608085015201359061ffff821682036115a457826020939260a085940152815201920191610f7e565b8880fd5b8980fd5b8780fd5b50610100366003190112610457576001600160401b039060043590828211610457576023368184011215610d7b578260040135906115ed82612c4a565b916115fb6040519384612bc5565b8083526020948584016024809360051b830101913683116114815783889101915b8383106117cb575050505080358681116108c35761163e903690600401612c61565b9360449384358881116106f157611659903690600401612c61565b60649687358a81116108c357611673903690600401612c61565b506084998a358181116106e95761168e903690600401612c61565b5060a4358181116106e9576116a7903690600401612cbf565b5060c4359081116108c357600a92916116c76116ef923690600401612cbf565b506116d0612954565b506116d9612eb1565b6116e68551825114612ed4565b51825114612ed4565b511161178f5780519161170183612c4a565b9261170f6040519485612bc5565b80845261171e601f1991612c4a565b01368985013790511115611776575060405162461bcd60e51b815260048101959095528401527f4261746368206372656174696f6e2074656d706f726172696c7920646973616290830152621b195960ea1b90820152fd5b8560018055610bcf6040519282849384528301906129d5565b60405162461bcd60e51b815260048101889052601781850152760a8dede40dac2dcf240e0deded8e640d2dc40c4c2e8c6d604b1b818701528690fd5b823581529181019188910161161c565b50610240366003190112610457576001600160401b0360a4358181116106f157611809903690600401612c03565b60c4358281116106ed57611821903690600401612c03565b60e4358381116108c357611839903690600401612c03565b90610104358481116106e957611853903690600401612c03565b90610124358581116114815761186d903690600401612c03565b946101443590811161148157611887903690600401612c03565b936101643580151581036115ac576101a43515156101a435036115ac5760026101c43510156115ac5760086102043510156115ac5760046102243510156115ac576118d0612eb1565b6101a43515611f0c576802b5e3af16b1880000955b6102243515611f05576118fa610224356132cf565b975b611915896110116044356001600160481b038c16612d78565b976101a43515611ef5578a602061194f60018060a01b03600554168c6040519485809481936323b872dd60e01b8352303360048501612deb565b03925af18015611eaf578c90611eba575b61196a9150612e0d565b6005546002546119b8916020918e916001600160a01b03908116911661199b6044356001600160481b038816612d78565b9260405180968195829463095ea7b360e01b845260048401612e50565b03925af18015611eaf57611e72575b505b6101a43515611cf75750600160a01b6001900360025416956040519788968796625e12f360e81b88526004356004890152602435602489015260443560448901526064356064890152608435608489015260a4880161022090526102248801611a3191612a2c565b8781036003190160c4890152611a4691612a2c565b8681036003190160e4880152611a5b91612a2c565b85810360031901610104870152611a7191612a2c565b84810360031901610124860152611a8791612a2c565b83810360031901610144850152611a9d91612a2c565b9015156101648301526101848035908301526101a43515156101a48301526101c482016101c43590611ace91612d3f565b6101e4803590830152610204356102048301520381875a94602095f1908115611356578491611cc6575b50915b61022435611bf0575b50611b10600654612f18565b928360065561022435611bdd575b611b41611b2f604435600854612d78565b948560085542600c5560075490612d78565b9081158015611bbd575b505060209360008051602061331b83398151915291611b7260095460405193849384612968565b0390a160405190611b868261022435612aef565b83820152817f11576008800a693051467e4ee714d9ec8fe4cb716c9040e940390eb77346c04160403393a360018055604051908152f35b6112505750808404600a558360008051602061331b833981519152611b4b565b611be8600954612f18565b600955611b1e565b6101a43515611c6657611c04813414612e6b565b60045484906001600160a01b0316803b15610d7b5760446040518094819363ffd230c960e01b8352886004840152611c426024840161022435612aef565b5af1801561135657611c57575b505b38611b04565b611c6090612b7b565b38611c4f565b60045484906001600160a01b0316803b15610d7b5760446040518094819363ffd230c960e01b8352886004840152611ca46024840161022435612aef565b5af1801561135657611cb7575b50611c51565b611cc090612b7b565b38611cb1565b90506020813d8211611cef575b81611ce060209383612bc5565b810103126106ed575138611af8565b3d9150611cd3565b60025496976001600160a01b03909716969591949193919290611d2690604435906001600160481b0316612d78565b9460405198899788968796625e12f360e81b88526004356004890152602435602489015260443560448901526064356064890152608435608489015260a4880161022090526102248801611d7991612a2c565b8781036003190160c4890152611d8e91612a2c565b8681036003190160e4880152611da391612a2c565b85810360031901610104870152611db991612a2c565b84810360031901610124860152611dcf91612a2c565b83810360031901610144850152611de591612a2c565b901515610164830152610184803590830152896101a48301526101c482016101c43590611e1191612d3f565b6101e48035908301526102043561020483015203915a94602095f1908115611356578491611e41575b5091611afb565b90506020813d8211611e6a575b81611e5b60209383612bc5565b810103126106ed575138611e3a565b3d9150611e4e565b6020813d602011611ea7575b81611e8b60209383612bc5565b81010312611ea357611e9c90612dde565b50386119c7565b8b80fd5b3d9150611e7e565b6040513d8e823e3d90fd5b506020813d602011611eed575b81611ed460209383612bc5565b81010312611ea357611ee861196a91612dde565b611960565b3d9150611ec7565b611f00893414612d9b565b6119c9565b88976118fc565b670de0b6b3a7640000956118e5565b5034610457578060031936011261045757608060018060a01b038060025416908060035416908060045416906005541691604051938452602084015260408301526060820152f35b50346104575760203660031901126104575760606101c0604051611f8681612b44565b83815283602082015283604082015283838201528360808201528360a08201528360c08201528360e08201528361010082015283610120820152836101408201528361016082015282610180820152836101a0820152015260248160018060a01b0360035416604051928380926340bae06b60e11b825260043560048301525afa908115610f0d5782916121e9575b5060018060a01b0360045416916040519263fd12153960e01b84526004356004850152604084602481845afa908115610f0d57829483926121bd575b50602060249160405192838092634f02360760e01b825260043560048301525afa928315610462578093612179575b5050610417612167946040519586956080875260018060a01b038151166080880152602081015160a0880152604081015160c0880152606081015160e0880152608081015161010088015261ffff60a08201511661012088015260ff60c08201511661014088015260ff60e0820151166101608801526101008101516101808801526101208101516101a08801526101408101516101c08801526101c06121466101608301516101e090818b0152610180840151906102008b01526102608a0190612a2c565b6101a08301516102208a0152910151878203607f1901610240890152612a51565b93151560208601526040850190612aef565b909492506020853d6020116121b5575b8161219660209383612bc5565b8101031261045757506104176121ae61216795612dde565b9294612080565b3d9150612189565b6020955060249192506121de9060403d6040116104a3576104908183612bc5565b959095929150612051565b3d91508183823e6121fa8282612bc5565b60208183810103126106f1578051906001600160401b0382116106ed576101e082820184830103126106ed576040519261223384612b44565b61223e838301612f27565b8452818301602081810151908601526040808201519086015260608082015190860152608080820151908601526122779060a001612f3b565b60a085015261228a60c084840101612f4a565b60c085015261229d60e084840101612f4a565b60e0850152818301610100818101519086015261012080820151908601526101408082015190860152610160808201519086015261018001516001600160401b0381116106e9576122f5908284019085850101612f58565b6101808501528183016101a081810151908601526101c00151906001600160401b0382116106e957808301601f83868601010112156106e9578184840101519161233e83612c4a565b9461234c6040519687612bc5565b838652602086019483810160208660051b85858501010101116115a4576020838383010101955b60208660051b85858501010101871061239957505050505050506101c082015238612015565b86516001600160401b0381116124645760c08385018601820187850103601f19011261246457604051916123cc83612b60565b8385018601820160208181015185526040820151908501526123f090606001612dde565b6040840152838501860182016080810151606085015260a00151906001600160401b0382116124605760209361244e60c08561243d89898099988f998f8f849c8601950101010101612f58565b60808501528a8a8a01010101612f3b565b60a08201528152019701969050612373565b8c80fd5b8a80fd5b5034610457578060031936011261045757546040516001600160a01b039091168152602090f35b50346104575780600319360112610457576003546040516001600160a01b039091168152602090f35b503461045757806003193601126104575760e0600654600754600854600954600a5490600b5492600c5494604051968752602087015260408601526060850152608084015260a083015260c0820152f35b503461045757602080600319360112610d7b576125246129bf565b918060e060405161253481612b12565b82815282858201528260408201528260608201528260808201528260a08201528260c0820152015260018060a01b03918260025416918360405195634fc16a3960e11b875216928360048701526101009560249187828481845afa918215611356578392918591829361275d575b506040519384809263c84728ef60e01b82528a60048301525afa918215611356578492612741575b5083876003541696846040518099819363c105a19560e01b835260048301525afa958615611356578496612725575b508397969795849860045416985b83518110156126a257898761261c8387613036565b518760405180948193634f02360760e01b835260048301525afa90811561148d57879161266d575b50612658575b61265390612f18565b612607565b9661266561265391612f18565b97905061264a565b90508781813d831161269b575b6126848183612bc5565b810103126114815761269590612dde565b38612644565b503d61267a565b508661271a879261270b868c60e060405198899881518a5280820151908a0152604081015160408a0152606081015160608a0152608081015160808a015260a081015160a08a015260c081015160c08a0152015160e088015261016080918801528601906129d5565b908482036101208601526129d5565b906101408301520390f35b61273a9196503d8086833e610b608183612bc5565b94386125f9565b6127569192503d8086833e610b608183612bc5565b90386125ca565b92509250508781813d83116127de575b6127778183612bc5565b810103126106ed579083839260e06040519161279283612b12565b80518352888101518984015260408101516040840152606081015160608401526080810151608084015260a081015160a084015260c081015160c0840152015160e082015291386125a2565b503d61276d565b50346104575780600319360112610457576127fe612d4c565b80546001600160a01b03198116825581906001600160a01b031660008051602061333b8339815191528280a380f35b5034610457578060031936011261045757612846613060565b5060e0612851613098565b61285e604051809261297e565bf35b5034610457578060031936011261045757612879612d4c565b80f35b50346104575780600319360112610457576002546040516001600160a01b039091168152602090f35b50346104575760603660031901126104575760243590811515820361045757604435916004831015610d7b5715612921576802b5e3af16b18800005b6001600160481b031691801561291b576128fb91506132cf565b610bcf61290e8261101160043586612d78565b9160405193849384612968565b506128fb565b670de0b6b3a76400006128e1565b905034610d7b5781600319360112610d7b576005546001600160a01b03168152602090f35b60e43590811515820361296357565b600080fd5b6040919493926060820195825260208201520152565b60c08091805184526020810151602085015260408101516040850152606081015160608501526080810151608085015260a081015160a08501520151910152565b600435906001600160a01b038216820361296357565b90815180825260208080930193019160005b8281106129f5575050505090565b8351855293810193928101926001016129e7565b60005b838110612a1c5750506000910152565b8181015183820152602001612a0c565b90602091612a4581518092818552858086019101612a09565b601f01601f1916010190565b908082519081815260208091019281808460051b8301019501936000915b848310612a7f5750505050505090565b9091929394958480600192601f1985820301865289519081518152828201518382015260408083015115159082015260608083015190820152612ad16080808401519060c08091850152830190612a2c565b9161ffff60a080920151169101529801930193019194939290612a6f565b906004821015612afc5752565b634e487b7160e01b600052602160045260246000fd5b61010081019081106001600160401b03821117612b2e57604052565b634e487b7160e01b600052604160045260246000fd5b6101e081019081106001600160401b03821117612b2e57604052565b60c081019081106001600160401b03821117612b2e57604052565b6001600160401b038111612b2e57604052565b6102e081019081106001600160401b03821117612b2e57604052565b60e081019081106001600160401b03821117612b2e57604052565b601f909101601f19168101906001600160401b03821190821017612b2e57604052565b6001600160401b038111612b2e57601f01601f191660200190565b81601f8201121561296357803590612c1a82612be8565b92612c286040519485612bc5565b8284526020838301011161296357816000926020809301838601378301015290565b6001600160401b038111612b2e5760051b60200190565b81601f8201121561296357803591612c7883612c4a565b92612c866040519485612bc5565b808452602092838086019260051b820101928311612963578301905b828210612cb0575050505090565b81358152908301908301612ca2565b9080601f8301121561296357813590612cd782612c4a565b92612ce56040519485612bc5565b828452602092838086019160051b8301019280841161296357848301915b848310612d135750505050505090565b82356001600160401b038111612963578691612d3484848094890101612c03565b815201920191612d03565b906002821015612afc5752565b6000546001600160a01b03163303612d6057565b60405163118cdaa760e01b8152336004820152602490fd5b91908201809211612d8557565b634e487b7160e01b600052601160045260246000fd5b15612da257565b60405162461bcd60e51b8152602060048201526014602482015273125b98dbdc9c9958dd0814d51508185b5bdd5b9d60621b6044820152606490fd5b5190811515820361296357565b6001600160a01b03918216815291166020820152604081019190915260600190565b15612e1457565b60405162461bcd60e51b815260206004820152601460248201527310925514881d1c985b9cd9995c8819985a5b195960621b6044820152606490fd5b6001600160a01b039091168152602081019190915260400190565b15612e7257565b60405162461bcd60e51b8152602060048201526017602482015276125b98dbdc9c9958dd08189bdbdcdd081c185e5b595b9d604a1b6044820152606490fd5b600260015414612ec2576002600155565b604051633ee5aeb560e01b8152600490fd5b15612edb57565b60405162461bcd60e51b8152602060048201526015602482015274082e4e4c2f240d8cadccee8d040dad2e6dac2e8c6d605b1b6044820152606490fd5b6000198114612d855760010190565b51906001600160a01b038216820361296357565b519061ffff8216820361296357565b519060ff8216820361296357565b81601f82011215612963578051612f6e81612be8565b92612f7c6040519485612bc5565b8184526020828401011161296357612f9a9160208085019101612a09565b90565b919082604091031261296357815160048110156129635760209092015190565b6020908181840312612963578051906001600160401b03821161296357019180601f84011215612963578251612ff281612c4a565b936130006040519586612bc5565b818552838086019260051b820101928311612963578301905b828210613027575050505090565b81518152908301908301613019565b805182101561304a5760209160051b010190565b634e487b7160e01b600052603260045260246000fd5b6040519061306d82612baa565b8160c06000918281528260208201528260408201528260608201528260808201528260a08201520152565b604051906130a582612baa565b6006548252600754602083015260085460408301526009546060830152600a546080830152600b5460a0830152600c5460c0830152565b9193929093600494858210156132ba578161321a575b5050613137575b5060405160019260208201906001600160401b0382118383101761312257506040526000815290565b604190634e487b7160e01b6000525260246000fd5b6005546040516370a0823160e01b81526001600160a01b03928316858201529160209183916024918391165afa801561320e576000906131d4575b6802b5e3af16b188000091501061318957386130f9565b6040805160009390918201906001600160401b0382118383101761312257506040526019815278496e73756666696369656e7420424954522062616c616e636560381b602082015290565b6020823d8211613206575b816131ec60209383612bc5565b8101031261045757506802b5e3af16b18800009051613172565b3d91506131df565b6040513d6000823e3d90fd5b60018060a01b038654166132456040519384936385ea867560e01b8552898501526024840190612aef565b81604460009384935afa9182156106f5578190829361326c575b506130f257945092915050565b9250503d8082843e61327e8184612bc5565b8201604083820312610d7b5761329383612dde565b602084015190936001600160401b0382116106ed576132b3929101612f58565b913861325f565b602186634e487b7160e01b6000525260246000fd5b6004811015612afc576001811461330d5760028114613300576003146132f457600090565b674563918244f4000090565b506729a2241af62c000090565b50671bc16d674ec800009056fe44e2ea4ac9ae6e4f62191e63ce0e544f2d0cb79abc8347d7e58920f5c3f3c0078be0079c531659141344cd1fd0a4f28419497f9722a3daafe3b4186f6b6457e00441abf574021357ac657a1ea4fbfa96c4c3f39a68bc29c9d793d337c0e86fada26469706673582212209cb426f1d65e56c9c0238ffea2abe6eeded7e2d183828c65495f1216ef42c67464736f6c63430008140033",
  "linkReferences": {},
  "deployedLinkReferences": {}
}