{
  "_format": "hh-sol-artifact-1",
  "contractName": "BitredictPoolFactory",
  "sourceName": "contracts/BitredictPoolFactory.sol",
  "abi": [
    {
      "inputs": [
        {
          "internalType": "address",
          "name": "_poolCore",
          "type": "address"
        },
        {
          "internalType": "address",
          "name": "_comboPools",
          "type": "address"
        },
        {
          "internalType": "address payable",
          "name": "_boostSystem",
          "type": "address"
        },
        {
          "internalType": "address",
          "name": "_bitrToken",
          "type": "address"
        }
      ],
      "stateMutability": "nonpayable",
      "type": "constructor"
    },
    {
      "inputs": [
        {
          "internalType": "address",
          "name": "owner",
          "type": "address"
        }
      ],
      "name": "OwnableInvalidOwner",
      "type": "error"
    },
    {
      "inputs": [
        {
          "internalType": "address",
          "name": "account",
          "type": "address"
        }
      ],
      "name": "OwnableUnauthorizedAccount",
      "type": "error"
    },
    {
      "inputs": [],
      "name": "ReentrancyGuardReentrantCall",
      "type": "error"
    },
    {
      "anonymous": false,
      "inputs": [
        {
          "indexed": true,
          "internalType": "uint256",
          "name": "comboPoolId",
          "type": "uint256"
        },
        {
          "indexed": true,
          "internalType": "address",
          "name": "creator",
          "type": "address"
        },
        {
          "indexed": false,
          "internalType": "enum BoostTier",
          "name": "boostTier",
          "type": "uint8"
        },
        {
          "indexed": false,
          "internalType": "uint256",
          "name": "totalCost",
          "type": "uint256"
        }
      ],
      "name": "ComboPoolCreatedWithBoost",
      "type": "event"
    },
    {
      "anonymous": false,
      "inputs": [
        {
          "indexed": false,
          "internalType": "string",
          "name": "contractName",
          "type": "string"
        },
        {
          "indexed": false,
          "internalType": "address",
          "name": "oldAddress",
          "type": "address"
        },
        {
          "indexed": false,
          "internalType": "address",
          "name": "newAddress",
          "type": "address"
        }
      ],
      "name": "ContractUpgraded",
      "type": "event"
    },
    {
      "anonymous": false,
      "inputs": [
        {
          "indexed": false,
          "internalType": "uint256",
          "name": "totalPools",
          "type": "uint256"
        },
        {
          "indexed": false,
          "internalType": "uint256",
          "name": "totalVolume",
          "type": "uint256"
        },
        {
          "indexed": false,
          "internalType": "uint256",
          "name": "totalBoosted",
          "type": "uint256"
        }
      ],
      "name": "FactoryAnalyticsUpdated",
      "type": "event"
    },
    {
      "anonymous": false,
      "inputs": [
        {
          "indexed": true,
          "internalType": "address",
          "name": "previousOwner",
          "type": "address"
        },
        {
          "indexed": true,
          "internalType": "address",
          "name": "newOwner",
          "type": "address"
        }
      ],
      "name": "OwnershipTransferred",
      "type": "event"
    },
    {
      "anonymous": false,
      "inputs": [
        {
          "indexed": true,
          "internalType": "uint256",
          "name": "poolId",
          "type": "uint256"
        },
        {
          "indexed": true,
          "internalType": "address",
          "name": "creator",
          "type": "address"
        },
        {
          "indexed": false,
          "internalType": "enum BoostTier",
          "name": "boostTier",
          "type": "uint8"
        },
        {
          "indexed": false,
          "internalType": "uint256",
          "name": "totalCost",
          "type": "uint256"
        }
      ],
      "name": "PoolCreatedWithBoost",
      "type": "event"
    },
    {
      "inputs": [
        {
          "internalType": "bytes32[]",
          "name": "_predictedOutcomes",
          "type": "bytes32[]"
        },
        {
          "internalType": "uint256[]",
          "name": "_odds",
          "type": "uint256[]"
        },
        {
          "internalType": "uint256[]",
          "name": "_creatorStakes",
          "type": "uint256[]"
        },
        {
          "internalType": "uint256[]",
          "name": "",
          "type": "uint256[]"
        },
        {
          "internalType": "uint256[]",
          "name": "",
          "type": "uint256[]"
        },
        {
          "internalType": "string[]",
          "name": "",
          "type": "string[]"
        },
        {
          "internalType": "string[]",
          "name": "",
          "type": "string[]"
        },
        {
          "internalType": "bool",
          "name": "",
          "type": "bool"
        }
      ],
      "name": "batchCreatePools",
      "outputs": [
        {
          "internalType": "uint256[]",
          "name": "",
          "type": "uint256[]"
        }
      ],
      "stateMutability": "payable",
      "type": "function"
    },
    {
      "inputs": [],
      "name": "bitrToken",
      "outputs": [
        {
          "internalType": "contract IERC20",
          "name": "",
          "type": "address"
        }
      ],
      "stateMutability": "view",
      "type": "function"
    },
    {
      "inputs": [],
      "name": "boostSystem",
      "outputs": [
        {
          "internalType": "contract BitredictBoostSystem",
          "name": "",
          "type": "address"
        }
      ],
      "stateMutability": "view",
      "type": "function"
    },
    {
      "inputs": [
        {
          "internalType": "address",
          "name": "creator",
          "type": "address"
        },
        {
          "internalType": "uint256",
          "name": "poolId",
          "type": "uint256"
        },
        {
          "internalType": "enum BoostTier",
          "name": "boostTier",
          "type": "uint8"
        },
        {
          "internalType": "bool",
          "name": "useBitr",
          "type": "bool"
        }
      ],
      "name": "canCreatePoolWithBoost",
      "outputs": [
        {
          "internalType": "bool",
          "name": "canCreate",
          "type": "bool"
        },
        {
          "internalType": "string",
          "name": "reason",
          "type": "string"
        }
      ],
      "stateMutability": "view",
      "type": "function"
    },
    {
      "inputs": [],
      "name": "comboPools",
      "outputs": [
        {
          "internalType": "contract BitredictComboPools",
          "name": "",
          "type": "address"
        }
      ],
      "stateMutability": "view",
      "type": "function"
    },
    {
      "inputs": [
        {
          "components": [
            {
              "internalType": "bytes32",
              "name": "marketId",
              "type": "bytes32"
            },
            {
              "internalType": "bytes32",
              "name": "expectedOutcome",
              "type": "bytes32"
            },
            {
              "internalType": "bool",
              "name": "resolved",
              "type": "bool"
            },
            {
              "internalType": "bytes32",
              "name": "actualOutcome",
              "type": "bytes32"
            },
            {
              "internalType": "string",
              "name": "description",
              "type": "string"
            },
            {
              "internalType": "uint16",
              "name": "odds",
              "type": "uint16"
            }
          ],
          "internalType": "struct BitredictComboPools.OutcomeCondition[]",
          "name": "conditions",
          "type": "tuple[]"
        },
        {
          "internalType": "uint16",
          "name": "combinedOdds",
          "type": "uint16"
        },
        {
          "internalType": "uint256",
          "name": "creatorStake",
          "type": "uint256"
        },
        {
          "internalType": "uint256",
          "name": "earliestEventStart",
          "type": "uint256"
        },
        {
          "internalType": "uint256",
          "name": "latestEventEnd",
          "type": "uint256"
        },
        {
          "internalType": "string",
          "name": "category",
          "type": "string"
        },
        {
          "internalType": "uint256",
          "name": "maxBetPerUser",
          "type": "uint256"
        },
        {
          "internalType": "bool",
          "name": "useBitr",
          "type": "bool"
        },
        {
          "internalType": "enum BoostTier",
          "name": "_boostTier",
          "type": "uint8"
        }
      ],
      "name": "createComboPoolWithBoost",
      "outputs": [
        {
          "internalType": "uint256",
          "name": "comboPoolId",
          "type": "uint256"
        }
      ],
      "stateMutability": "payable",
      "type": "function"
    },
    {
      "inputs": [
        {
          "internalType": "bytes32",
          "name": "_predictedOutcome",
          "type": "bytes32"
        },
        {
          "internalType": "uint256",
          "name": "_odds",
          "type": "uint256"
        },
        {
          "internalType": "uint256",
          "name": "_creatorStake",
          "type": "uint256"
        },
        {
          "internalType": "uint256",
          "name": "_eventStartTime",
          "type": "uint256"
        },
        {
          "internalType": "uint256",
          "name": "_eventEndTime",
          "type": "uint256"
        },
        {
          "internalType": "bytes32",
          "name": "_leagueHash",
          "type": "bytes32"
        },
        {
          "internalType": "bytes32",
          "name": "_categoryHash",
          "type": "bytes32"
        },
        {
          "internalType": "bytes32",
          "name": "_regionHash",
          "type": "bytes32"
        },
        {
          "internalType": "bytes32",
          "name": "_homeTeamHash",
          "type": "bytes32"
        },
        {
          "internalType": "bytes32",
          "name": "_awayTeamHash",
          "type": "bytes32"
        },
        {
          "internalType": "bytes32",
          "name": "_titleHash",
          "type": "bytes32"
        },
        {
          "internalType": "bool",
          "name": "_isPrivate",
          "type": "bool"
        },
        {
          "internalType": "uint256",
          "name": "_maxBetPerUser",
          "type": "uint256"
        },
        {
          "internalType": "bool",
          "name": "_useBitr",
          "type": "bool"
        },
        {
          "internalType": "enum OracleType",
          "name": "_oracleType",
          "type": "uint8"
        },
        {
          "internalType": "bytes32",
          "name": "_marketId",
          "type": "bytes32"
        },
        {
          "internalType": "enum MarketType",
          "name": "_marketType",
          "type": "uint8"
        },
        {
          "internalType": "enum BoostTier",
          "name": "_boostTier",
          "type": "uint8"
        }
      ],
      "name": "createPoolWithBoost",
      "outputs": [
        {
          "internalType": "uint256",
          "name": "poolId",
          "type": "uint256"
        }
      ],
      "stateMutability": "payable",
      "type": "function"
    },
    {
      "inputs": [],
      "name": "emergencyPause",
      "outputs": [],
      "stateMutability": "nonpayable",
      "type": "function"
    },
    {
      "inputs": [],
      "name": "emergencyWithdraw",
      "outputs": [],
      "stateMutability": "nonpayable",
      "type": "function"
    },
    {
      "inputs": [],
      "name": "factoryAnalytics",
      "outputs": [
        {
          "internalType": "uint256",
          "name": "totalPoolsCreated",
          "type": "uint256"
        },
        {
          "internalType": "uint256",
          "name": "totalComboPoolsCreated",
          "type": "uint256"
        },
        {
          "internalType": "uint256",
          "name": "totalVolumeProcessed",
          "type": "uint256"
        },
        {
          "internalType": "uint256",
          "name": "totalBoostedPools",
          "type": "uint256"
        },
        {
          "internalType": "uint256",
          "name": "averagePoolSize",
          "type": "uint256"
        },
        {
          "internalType": "uint256",
          "name": "factoryFees",
          "type": "uint256"
        },
        {
          "internalType": "uint256",
          "name": "lastUpdated",
          "type": "uint256"
        }
      ],
      "stateMutability": "view",
      "type": "function"
    },
    {
      "inputs": [],
      "name": "getActivePoolsWithBoosts",
      "outputs": [
        {
          "internalType": "uint256[]",
          "name": "poolIds",
          "type": "uint256[]"
        },
        {
          "internalType": "enum BoostTier[]",
          "name": "boostTiers",
          "type": "uint8[]"
        }
      ],
      "stateMutability": "view",
      "type": "function"
    },
    {
      "inputs": [
        {
          "internalType": "uint256",
          "name": "comboPoolId",
          "type": "uint256"
        }
      ],
      "name": "getAllComboPoolData",
      "outputs": [
        {
          "components": [
            {
              "internalType": "address",
              "name": "creator",
              "type": "address"
            },
            {
              "internalType": "uint256",
              "name": "creatorStake",
              "type": "uint256"
            },
            {
              "internalType": "uint256",
              "name": "totalCreatorSideStake",
              "type": "uint256"
            },
            {
              "internalType": "uint256",
              "name": "maxBettorStake",
              "type": "uint256"
            },
            {
              "internalType": "uint256",
              "name": "totalBettorStake",
              "type": "uint256"
            },
            {
              "internalType": "uint16",
              "name": "totalOdds",
              "type": "uint16"
            },
            {
              "internalType": "uint8",
              "name": "flags",
              "type": "uint8"
            },
            {
              "internalType": "uint8",
              "name": "conditionCount",
              "type": "uint8"
            },
            {
              "internalType": "uint256",
              "name": "eventStartTime",
              "type": "uint256"
            },
            {
              "internalType": "uint256",
              "name": "eventEndTime",
              "type": "uint256"
            },
            {
              "internalType": "uint256",
              "name": "bettingEndTime",
              "type": "uint256"
            },
            {
              "internalType": "uint256",
              "name": "resultTimestamp",
              "type": "uint256"
            },
            {
              "internalType": "bytes32",
              "name": "category",
              "type": "bytes32"
            },
            {
              "internalType": "uint256",
              "name": "maxBetPerUser",
              "type": "uint256"
            },
            {
              "components": [
                {
                  "internalType": "bytes32",
                  "name": "marketId",
                  "type": "bytes32"
                },
                {
                  "internalType": "bytes32",
                  "name": "expectedOutcome",
                  "type": "bytes32"
                },
                {
                  "internalType": "bool",
                  "name": "resolved",
                  "type": "bool"
                },
                {
                  "internalType": "bytes32",
                  "name": "actualOutcome",
                  "type": "bytes32"
                },
                {
                  "internalType": "string",
                  "name": "description",
                  "type": "string"
                },
                {
                  "internalType": "uint16",
                  "name": "odds",
                  "type": "uint16"
                }
              ],
              "internalType": "struct BitredictComboPools.OutcomeCondition[]",
              "name": "conditions",
              "type": "tuple[]"
            }
          ],
          "internalType": "struct BitredictComboPools.ComboPool",
          "name": "comboPool",
          "type": "tuple"
        },
        {
          "internalType": "bool",
          "name": "isBoosted",
          "type": "bool"
        },
        {
          "internalType": "enum BoostTier",
          "name": "boostTier",
          "type": "uint8"
        },
        {
          "internalType": "uint256",
          "name": "boostExpiry",
          "type": "uint256"
        }
      ],
      "stateMutability": "view",
      "type": "function"
    },
    {
      "inputs": [
        {
          "internalType": "uint256",
          "name": "poolId",
          "type": "uint256"
        }
      ],
      "name": "getAllPoolData",
      "outputs": [
        {
          "components": [
            {
              "internalType": "address",
              "name": "creator",
              "type": "address"
            },
            {
              "internalType": "uint16",
              "name": "odds",
              "type": "uint16"
            },
            {
              "internalType": "uint8",
              "name": "flags",
              "type": "uint8"
            },
            {
              "internalType": "enum OracleType",
              "name": "oracleType",
              "type": "uint8"
            },
            {
              "internalType": "uint8",
              "name": "reserved",
              "type": "uint8"
            },
            {
              "internalType": "uint256",
              "name": "creatorStake",
              "type": "uint256"
            },
            {
              "internalType": "uint256",
              "name": "totalCreatorSideStake",
              "type": "uint256"
            },
            {
              "internalType": "uint256",
              "name": "maxBettorStake",
              "type": "uint256"
            },
            {
              "internalType": "uint256",
              "name": "totalBettorStake",
              "type": "uint256"
            },
            {
              "internalType": "bytes32",
              "name": "predictedOutcome",
              "type": "bytes32"
            },
            {
              "internalType": "bytes32",
              "name": "result",
              "type": "bytes32"
            },
            {
              "internalType": "bytes32",
              "name": "marketId",
              "type": "bytes32"
            },
            {
              "internalType": "uint256",
              "name": "eventStartTime",
              "type": "uint256"
            },
            {
              "internalType": "uint256",
              "name": "eventEndTime",
              "type": "uint256"
            },
            {
              "internalType": "uint256",
              "name": "bettingEndTime",
              "type": "uint256"
            },
            {
              "internalType": "uint256",
              "name": "resultTimestamp",
              "type": "uint256"
            },
            {
              "internalType": "uint256",
              "name": "arbitrationDeadline",
              "type": "uint256"
            },
            {
              "internalType": "bytes32",
              "name": "league",
              "type": "bytes32"
            },
            {
              "internalType": "bytes32",
              "name": "category",
              "type": "bytes32"
            },
            {
              "internalType": "bytes32",
              "name": "region",
              "type": "bytes32"
            },
            {
              "internalType": "bytes32",
              "name": "homeTeam",
              "type": "bytes32"
            },
            {
              "internalType": "bytes32",
              "name": "awayTeam",
              "type": "bytes32"
            },
            {
              "internalType": "bytes32",
              "name": "title",
              "type": "bytes32"
            },
            {
              "internalType": "uint256",
              "name": "maxBetPerUser",
              "type": "uint256"
            }
          ],
          "internalType": "struct BitredictPoolCore.Pool",
          "name": "pool",
          "type": "tuple"
        },
        {
          "internalType": "bool",
          "name": "isBoosted",
          "type": "bool"
        },
        {
          "internalType": "enum BoostTier",
          "name": "boostTier",
          "type": "uint8"
        },
        {
          "internalType": "uint256",
          "name": "boostExpiry",
          "type": "uint256"
        }
      ],
      "stateMutability": "view",
      "type": "function"
    },
    {
      "inputs": [],
      "name": "getContractAddresses",
      "outputs": [
        {
          "internalType": "address",
          "name": "poolCoreAddress",
          "type": "address"
        },
        {
          "internalType": "address",
          "name": "comboPoolsAddress",
          "type": "address"
        },
        {
          "internalType": "address",
          "name": "boostSystemAddress",
          "type": "address"
        },
        {
          "internalType": "address",
          "name": "bitrTokenAddress",
          "type": "address"
        }
      ],
      "stateMutability": "view",
      "type": "function"
    },
    {
      "inputs": [
        {
          "internalType": "address",
          "name": "creator",
          "type": "address"
        }
      ],
      "name": "getCreatorAnalytics",
      "outputs": [
        {
          "components": [
            {
              "internalType": "uint256",
              "name": "totalPoolsCreated",
              "type": "uint256"
            },
            {
              "internalType": "uint256",
              "name": "successfulPools",
              "type": "uint256"
            },
            {
              "internalType": "uint256",
              "name": "totalVolumeGenerated",
              "type": "uint256"
            },
            {
              "internalType": "uint256",
              "name": "averagePoolSize",
              "type": "uint256"
            },
            {
              "internalType": "uint256",
              "name": "reputationScore",
              "type": "uint256"
            },
            {
              "internalType": "uint256",
              "name": "winRate",
              "type": "uint256"
            },
            {
              "internalType": "uint256",
              "name": "totalEarnings",
              "type": "uint256"
            },
            {
              "internalType": "uint256",
              "name": "activePoolsCount",
              "type": "uint256"
            }
          ],
          "internalType": "struct BitredictPoolCore.CreatorStats",
          "name": "coreStats",
          "type": "tuple"
        },
        {
          "internalType": "uint256[]",
          "name": "creatorPools",
          "type": "uint256[]"
        },
        {
          "internalType": "uint256[]",
          "name": "creatorComboPools",
          "type": "uint256[]"
        },
        {
          "internalType": "uint256",
          "name": "totalBoostedPools",
          "type": "uint256"
        }
      ],
      "stateMutability": "view",
      "type": "function"
    },
    {
      "inputs": [],
      "name": "getFactoryAnalytics",
      "outputs": [
        {
          "components": [
            {
              "internalType": "uint256",
              "name": "totalPoolsCreated",
              "type": "uint256"
            },
            {
              "internalType": "uint256",
              "name": "totalComboPoolsCreated",
              "type": "uint256"
            },
            {
              "internalType": "uint256",
              "name": "totalVolumeProcessed",
              "type": "uint256"
            },
            {
              "internalType": "uint256",
              "name": "totalBoostedPools",
              "type": "uint256"
            },
            {
              "internalType": "uint256",
              "name": "averagePoolSize",
              "type": "uint256"
            },
            {
              "internalType": "uint256",
              "name": "factoryFees",
              "type": "uint256"
            },
            {
              "internalType": "uint256",
              "name": "lastUpdated",
              "type": "uint256"
            }
          ],
          "internalType": "struct BitredictPoolFactory.FactoryAnalytics",
          "name": "",
          "type": "tuple"
        }
      ],
      "stateMutability": "view",
      "type": "function"
    },
    {
      "inputs": [],
      "name": "getGlobalAnalytics",
      "outputs": [
        {
          "components": [
            {
              "internalType": "uint256",
              "name": "totalPools",
              "type": "uint256"
            },
            {
              "internalType": "uint256",
              "name": "totalVolume",
              "type": "uint256"
            },
            {
              "internalType": "uint256",
              "name": "totalUsers",
              "type": "uint256"
            },
            {
              "internalType": "uint256",
              "name": "totalBets",
              "type": "uint256"
            },
            {
              "internalType": "uint256",
              "name": "averagePoolSize",
              "type": "uint256"
            },
            {
              "internalType": "uint256",
              "name": "lastUpdated",
              "type": "uint256"
            }
          ],
          "internalType": "struct BitredictPoolCore.GlobalStats",
          "name": "poolStats",
          "type": "tuple"
        },
        {
          "components": [
            {
              "internalType": "uint256",
              "name": "totalPoolsCreated",
              "type": "uint256"
            },
            {
              "internalType": "uint256",
              "name": "totalComboPoolsCreated",
              "type": "uint256"
            },
            {
              "internalType": "uint256",
              "name": "totalVolumeProcessed",
              "type": "uint256"
            },
            {
              "internalType": "uint256",
              "name": "totalBoostedPools",
              "type": "uint256"
            },
            {
              "internalType": "uint256",
              "name": "averagePoolSize",
              "type": "uint256"
            },
            {
              "internalType": "uint256",
              "name": "factoryFees",
              "type": "uint256"
            },
            {
              "internalType": "uint256",
              "name": "lastUpdated",
              "type": "uint256"
            }
          ],
          "internalType": "struct BitredictPoolFactory.FactoryAnalytics",
          "name": "factoryStats",
          "type": "tuple"
        },
        {
          "internalType": "uint256",
          "name": "totalBoosted",
          "type": "uint256"
        },
        {
          "internalType": "uint256",
          "name": "totalComboVolume",
          "type": "uint256"
        }
      ],
      "stateMutability": "view",
      "type": "function"
    },
    {
      "inputs": [
        {
          "internalType": "uint256",
          "name": "_creatorStake",
          "type": "uint256"
        },
        {
          "internalType": "bool",
          "name": "_useBitr",
          "type": "bool"
        },
        {
          "internalType": "enum BoostTier",
          "name": "_boostTier",
          "type": "uint8"
        }
      ],
      "name": "getPoolCreationCost",
      "outputs": [
        {
          "internalType": "uint256",
          "name": "totalCost",
          "type": "uint256"
        },
        {
          "internalType": "uint256",
          "name": "creationFee",
          "type": "uint256"
        },
        {
          "internalType": "uint256",
          "name": "boostCost",
          "type": "uint256"
        }
      ],
      "stateMutability": "view",
      "type": "function"
    },
    {
      "inputs": [],
      "name": "owner",
      "outputs": [
        {
          "internalType": "address",
          "name": "",
          "type": "address"
        }
      ],
      "stateMutability": "view",
      "type": "function"
    },
    {
      "inputs": [],
      "name": "poolCore",
      "outputs": [
        {
          "internalType": "contract BitredictPoolCore",
          "name": "",
          "type": "address"
        }
      ],
      "stateMutability": "view",
      "type": "function"
    },
    {
      "inputs": [],
      "name": "renounceOwnership",
      "outputs": [],
      "stateMutability": "nonpayable",
      "type": "function"
    },
    {
      "inputs": [
        {
          "internalType": "address",
          "name": "newOwner",
          "type": "address"
        }
      ],
      "name": "transferOwnership",
      "outputs": [],
      "stateMutability": "nonpayable",
      "type": "function"
    },
    {
      "inputs": [
        {
          "internalType": "address",
          "name": "_newPoolCore",
          "type": "address"
        },
        {
          "internalType": "address",
          "name": "_newComboPools",
          "type": "address"
        },
        {
          "internalType": "address payable",
          "name": "_newBoostSystem",
          "type": "address"
        }
      ],
      "name": "upgradeContracts",
      "outputs": [],
      "stateMutability": "nonpayable",
      "type": "function"
    },
    {
      "stateMutability": "payable",
      "type": "receive"
    }
  ],
  "bytecode": "0x6080346200025757601f6200336738819003918201601f191683019291906001600160401b038411838510176200025c5781608092849260409687528339810103126200025757620000518162000272565b6200005f6020830162000272565b8383015190926001600160a01b0380831692909190839003620002575760606200008a910162000272565b9033156200023f57600054948160018060a01b0319953387891617600055885197823391167f8be0079c531659141344cd1fd0a4f28419497f9722a3daafe3b4186f6b6457e0600080a36001805516958615620001fd57508116918215620001b95783156200017557169384156200013157836002541617600255826003541617600355816004541617600455600554161760055542600c55516130df9081620002888239f35b855162461bcd60e51b815260206004820152601a60248201527f496e76616c6964204249545220746f6b656e20616464726573730000000000006044820152606490fd5b865162461bcd60e51b815260206004820152601c60248201527f496e76616c696420626f6f73742073797374656d2061646472657373000000006044820152606490fd5b865162461bcd60e51b815260206004820152601b60248201527f496e76616c696420636f6d626f20706f6f6c73206164647265737300000000006044820152606490fd5b62461bcd60e51b815260206004820152601960248201527f496e76616c696420706f6f6c20636f72652061646472657373000000000000006044820152606490fd5b8551631e4fbdf760e01b815260006004820152602490fd5b600080fd5b634e487b7160e01b600052604160045260246000fd5b51906001600160a01b0382168203620002575756fe608080604052600436101561001d575b50361561001b57600080fd5b005b600090813560e01c90816301b708c21461265e5750806335ca6876146125d457806338cac0c2146125ab57806351858e271461258f5780635eec742b1461255c578063715018a61461251457806375ff84b61461223857806382b80393146121e757806387ce953e146121be5780638da5cb5b146121975780638db8a21014611cba578063953874d214611c72578063bc9c431814611a9d578063bea52304146114bc578063c407be0414610e07578063db2e21bc14610c79578063e8a0323a14610acd578063e8e791cd14610a69578063f2d366fc146108b9578063f2fde38b14610845578063f3c1c3be14610616578063f6915af5146105ed5763f6e339c30361000f573461040957602036600319011261040957806102e0604051610144816128bd565b8281528260208201528260408201528260608201528260808201528260a08201528260c08201528260e08201528261010082015282610120820152826101408201528261016082015282610180820152826101a0820152826101c0820152826101e08201528261020082015282610220820152826102408201528261026082015282610280820152826102a0820152826102c08201520152602461030060018060a01b03600254166040519283809263068bcd8d60e01b825260043560048301525afa9081156105e2578291610469575b5060018060a01b03600454166040519263fd12153960e01b84526004356004850152604084602481855afa91821561045c5781948293610420575b50602060249160405192838092634f02360760e01b825260043560048301525afa9182156104145780926103cb575b5050610360936103c3916102e06040519560018060a01b03815116875261ffff602082015116602088015260ff60408201511660408801526102c960608201516060890190612a6e565b60ff608082015116608088015260a081015160a088015260c081015160c088015260e081015160e08801526101008101516101008801526101208101516101208801526101408101516101408801526101608101516101608801526101808101516101808801526101a08101516101a08801526101c08101516101c08801526101e08101516101e08801526102008101516102008801526102208101516102208801526102408101516102408801526102608101516102608801526102808101516102808801526102a08101516102a08801526102c08101516102c088015201516102e0860152151561030085015261032084019061281e565b610340820152f35b9091506020823d60201161040c575b816103e7602093836128f4565b810103126104095750610360936104006103c392612b0d565b9181955061027f565b80fd5b3d91506103da565b604051903d90823e3d90fd5b60209550602491935061044a9060403d604011610455575b61044281836128f4565b810190612c78565b959095939150610250565b503d610438565b50604051903d90823e3d90fd5b9050610300813d610300116105da575b8161048761030093836128f4565b810103126105d6576040519061049c826128bd565b6104a581612c47565b82526104b360208201612c5b565b60208301526104c460408201612c6a565b604083015260608101519060028210156105d2576102e09160608401526104ed60808201612c6a565b608084015260a081015160a084015260c081015160c084015260e081015160e08401526101008101516101008401526101208101516101208401526101408101516101408401526101608101516101608401526101808101516101808401526101a08101516101a08401526101c08101516101c08401526101e08101516101e08401526102008101516102008401526102208101516102208401526102408101516102408401526102608101516102608401526102808101516102808401526102a08101516102a08401526102c08101516102c084015201516102e082015238610215565b8380fd5b5080fd5b3d9150610479565b6040513d84823e3d90fd5b50346104095780600319360112610409576004546040516001600160a01b039091168152602090f35b5034610409578060031936011261040957604051906106348261288f565b80825260209080828401528060408401528060608401528060808401528060a080940152610660612d8f565b50600254604051636b4169c360e01b81526001600160a01b0394909160c0908390600490829089165afa801561083a5783906107c5575b600492506106a3612dc7565b9560e08185541660405195868092639f010deb851b82525afa9384156107ba578594610782575b508260049160035416604051928380926325bcec5d60e11b82525afa94851561041457809561074c575b5050948161073e926101e0976040519781518952808201519089015260408101516040890152606081015160608901526080810151608089015201519086015260c08501906126ad565b6101a08301526101c0820152f35b909194508282813d831161077b575b61076581836128f4565b810103126104095750840151928161073e6106f4565b503d61075b565b90935060e0813d60e0116107b2575b8161079e60e093836128f4565b810103126107ae575192826106ca565b8480fd5b3d9150610791565b6040513d87823e3d90fd5b509060c0813d8211610832575b816107df60c093836128f4565b8101031261082e579060049181604051916107f98361288f565b805183528681015187840152604081015160408401526060810151606084015260808101516080840152015182820152610697565b8280fd5b3d91506107d2565b6040513d85823e3d90fd5b50346104095760203660031901126104095761085f6126ee565b610867612a7b565b6001600160a01b039081169081156108a05782546001600160a01b03198116831784551660008051602061306a8339815191528380a380f35b604051631e4fbdf760e01b815260048101849052602490fd5b50346104095780600319360112610409576002546040516323b020d560e21b8152916001600160a01b039181908490600490829086165afa92831561045c578193610a45575b50829192519061092761091183612917565b9261091f60405194856128f4565b808452612917565b6020939083850190601f1901368237829560045416955b82518110156109e1576109518184612d65565b516040519063fd12153960e01b82526004820152602460408282818c5afa9182156109d65786926109b4575b506109888388612d65565b9060048310156109a257505261099d90612d56565b61093e565b634e487b7160e01b8752602160045286fd5b6109ce91925060403d6040116104555761044281836128f4565b50903861097d565b6040513d88823e3d90fd5b50906109ff9183858780604051968796604088526040880190612704565b928684038288015251928381520193925b828110610a1f57505050500390f35b9193839550908082610a3560019483975161281e565b0195019101918594939192610a10565b610a629193503d8085833e610a5a81836128f4565b810190612cdd565b91386108ff565b503461040957608036600319011261040957610a836126ee565b604435600481101561082e576064359182151583036105d257610aaa935060243590612e0b565b90610ac96040519283921515835260406020840152604083019061275b565b0390f35b5034610409576060806003193601126105d657610ae86126ee565b906001600160a01b0390602435828116908190036107ae5760443593838516809503610c75578390610b18612a7b565b1680151580610c67575b610c12575b5080151580610c04575b610bad575b5082151580610b9f575b610b48578380f35b60008051602061308a8339815191529260a09260045482600180871b0319821617600455600b604051948086528501526a426f6f737453797374656d60a81b60808501521660208301526040820152a13880808380f35b508160045416831415610b40565b60a060008051602061308a833981519152916003549080600180851b03198316176003558560405192868452600a8785015269436f6d626f506f6f6c7360b01b60808501521660208301526040820152a138610b36565b508260035416811415610b31565b60a060008051602061308a833981519152916002549080600180851b0319831617600255866040519287845260088885015267506f6f6c436f726560c01b60808501521660208301526040820152a138610b27565b508360025416811415610b22565b8580fd5b5034610409578060031936011261040957610c92612a7b565b6005546040516370a0823160e01b8152306004820152906020906001600160a01b03908490479084908690602490829087165afa9485156105e2578295610dd8575b5080610d59575b505082610ce6578380f35b610d129281839260055416908654168660405180978195829463a9059cbb60e01b845260048401612b7f565b03925af1801561083a57610d2557808380f35b81813d8311610d52575b610d3981836128f4565b810103126105d657610d4a90612b0d565b503880808380f35b503d610d2f565b81808092858254165af13d15610dd3573d610d738161298c565b90610d8160405192836128f4565b815285843d92013e5b15610d96578338610cdb565b60405162461bcd60e51b815260048101839052601560248201527414d515081dda5d1a191c985dd85b0819985a5b1959605a1b6044820152606490fd5b610d8a565b9094508381813d8311610e00575b610df081836128f4565b810103126105d657519338610cd4565b503d610de6565b50610120366003190112610409576004356001600160401b0380821161082e573660238301121561082e57816004013591610e4183612917565b92610e4f60405194856128f4565b8084526024602085019160051b83010191368311610c755760248101915b8383106114135750505050826024359161ffff831683036105d65760a4359081116105d657610ea09036906004016129a7565b91610ea9612683565b93600461010435101561082e57610ebe612be0565b8415611405576802b5e3af16b18800005b61010435156113fe57610ee461010435612ffe565b925b84610f0585610f006044356001600160481b038716612aa7565b612aa7565b9688156113e5576005546040516323b872dd60e01b81529260209184916001600160a01b0390911690829081610f408e303360048501612b1a565b03925af19182156113995787926113a4575b50610f5f610fa892612b3c565b6005546003546020916001600160a01b039182169116610f8a6044356001600160481b038916612aa7565b918a60405180978195829463095ea7b360e01b845260048401612b7f565b03925af191821561139957879261134d575b50916020939161ffff935b805190860120958a1561127f5760035460405163fe409c9f60e01b815261010060048201529788966001600160a01b0390921695508694859390929061101090610104860190612780565b9216602484015260443560448401526064356064840152608435608484015260a483015260c43560c48301528b151560e483015203925af190811561083a57839161124d575b50935b61010435611163575b505050611070600754612d56565b928360075561010435611150575b6110a061108f604435600854612aa7565b948560085542600c55600654612aa7565b908115801561111c575b505060209360008051602061304a833981519152916110d160095460405193849384612697565b0390a1604051906110e5826101043561281e565b83820152817f488e780d64cfe3a3d2b29010be751f8a452e1be3ecfa703e91926e51b6ab751f60403393a360018055604051908152f35b61113c5750808404600a558360008051602061304a8339815191526110aa565b634e487b7160e01b81526012600452602490fd5b61115b600954612d56565b60095561107e565b156111dd57611173813414612b9a565b6004546001600160a01b0316803b1561082e57829060446040518094819363ffd230c960e01b83528960048401526111b1602484016101043561281e565b5af180156105e2576111c9575b50505b823880611062565b6111d2906128aa565b61082e5782386111be565b6004549091906001600160a01b0316803b156105d65760446040518094819363ffd230c960e01b835288600484015261121c602484016101043561281e565b5af180156112425761122f575b506111c1565b61123b909391936128aa565b9138611229565b6040513d86823e3d90fd5b90506020813d602011611277575b81611268602093836128f4565b8101031261082e575138611056565b3d915061125b565b6003546001600160a01b0316936112d09392506112a890604435906001600160481b0316612aa7565b916040519788968795869463fe409c9f60e01b86526101006004870152610104860190612780565b9216602484015260443560448401526064356064840152608435608484015260a483015260c43560c48301528960e483015203925af190811561083a57839161131b575b5093611059565b90506020813d602011611345575b81611336602093836128f4565b8101031261082e575138611314565b3d9150611329565b939150916020843d602011611391575b8161136a602093836128f4565b8101031261138d578661ffff93611382602096612b0d565b509193509193610fba565b8680fd5b3d915061135d565b6040513d89823e3d90fd5b91506020823d6020116113dd575b816113bf602093836128f4565b8101031261138d57610f5f6113d6610fa893612b0d565b9250610f52565b3d91506113b2565b916020939161ffff936113f98a3414612aca565b610fc5565b8392610ee6565b670de0b6b3a7640000610ecf565b82358581116114b85782019060c060231983360301126114b8576040519161143a8361288f565b6024810135835260448101356020840152606481013580151581036114b45760408401526084810135606084015260a4810135908782116114b45761148760c492602436918401016129a7565b608085015201359061ffff821682036114b057826020939260a085940152815201920191610e6d565b8880fd5b8980fd5b8780fd5b50610240366003190112610409576101643580151581036105d6576101a43515156101a435036105d65760026101c43510156105d65760086102043510156105d65760046102243510156105d657611512612be0565b6101a43515611a8f576802b5e3af16b18800005b6102243515611a87578261153c61022435612ffe565b925b61155784610f006044356001600160481b038716612aa7565b926101a43515611a77576005546040516323b872dd60e01b81529060209082906001600160a01b03168187816115928b303360048501612b1a565b03925af18015611242578490611a3c575b6115ad9150612b3c565b6005546002546115fa916020916001600160a01b0390811691166115dc6044356001600160481b038716612aa7565b918760405180968195829463095ea7b360e01b845260048401612b7f565b03925af1801561124257611a03575b505b6101a435156118e4575060209061022460018060a01b0360025416916040519485938492633812281f60e11b84526004356004850152602435602485015260443560448501526064356064850152608435608485015260a43560a485015260c43560c485015260e43560e485015261010480359085015261012480359085015261014480359085015215156101648401526101848035908401526101a43515156101a48401526116c26101c484016101c435612a6e565b6101e4803590840152610204356102048401525af19081156112425784916118b3575b50915b610224356117dd575b506116fd600654612d56565b9283600655610224356117ca575b61172e61171c604435600854612aa7565b948560085542600c5560075490612aa7565b90811580156117aa575b505060209360008051602061304a8339815191529161175f60095460405193849384612697565b0390a160405190611773826102243561281e565b83820152817f11576008800a693051467e4ee714d9ec8fe4cb716c9040e940390eb77346c04160403393a360018055604051908152f35b61113c5750808404600a558360008051602061304a833981519152611738565b6117d5600954612d56565b60095561170b565b6101a43515611853576117f1813414612b9a565b60045484906001600160a01b0316803b156105d65760446040518094819363ffd230c960e01b835288600484015261182f602484016102243561281e565b5af1801561124257611844575b505b386116f1565b61184d906128aa565b3861183c565b60045484906001600160a01b0316803b156105d65760446040518094819363ffd230c960e01b8352886004840152611891602484016102243561281e565b5af18015611242576118a4575b5061183e565b6118ad906128aa565b3861189e565b90506020813d82116118dc575b816118cd602093836128f4565b810103126105d25751386116e5565b3d91506118c0565b6002549192506020916001600160a01b0316906102249061191190604435906001600160481b0316612aa7565b936040519485938492633812281f60e11b84526004356004850152602435602485015260443560448501526064356064850152608435608485015260a43560a485015260c43560c485015260e43560e48501526101048035908501526101248035908501526101448035908501521515610164840152610184803590840152896101a48401526119a86101c484016101c435612a6e565b6101e4803590840152610204356102048401525af19081156112425784916119d2575b50916116e8565b90506020813d82116119fb575b816119ec602093836128f4565b810103126105d25751386119cb565b3d91506119df565b6020813d602011611a34575b81611a1c602093836128f4565b810103126105d257611a2d90612b0d565b5038611609565b3d9150611a0f565b506020813d602011611a6f575b81611a56602093836128f4565b810103126105d257611a6a6115ad91612b0d565b6115a3565b3d9150611a49565b611a82843414612aca565b61160b565b82809261153e565b670de0b6b3a7640000611526565b5061010036600319011261040957600435906001600160401b038083116105d657366023840112156105d657826004013592611ad884612917565b90611ae660405192836128f4565b84825260209460248684019160051b83010191368311610c7557906024879201905b838210611c6357505050506024358281116105d257611b2b90369060040161292e565b916044358181116107ae57611b4490369060040161292e565b936064358281116105d657611b5d90369060040161292e565b506084358281116105d657611b7690369060040161292e565b5060a4358281116105d657611b8f9036906004016129ee565b5060c435918211610409575091611bc6611bcf92611bb4600a969536906004016129ee565b50611bbd612683565b50611bc6612be0565b51825114612c03565b5111611c25576084906040519062461bcd60e51b82526004820152602360248201527f4261746368206372656174696f6e2074656d706f726172696c792064697361626044820152621b195960ea1b6064820152fd5b6064906040519062461bcd60e51b8252600482015260176024820152760a8dede40dac2dcf240e0deded8e640d2dc40c4c2e8c6d604b1b6044820152fd5b81358152908201908201611b08565b5034610409578060031936011261040957608060018060a01b038060025416908060035416908060045416906005541691604051938452602084015260408301526060820152f35b50346104095760203660031901126104095760606101c0604051611cdd81612873565b83815283602082015283604082015283838201528360808201528360a08201528360c08201528360e08201528361010082015283610120820152836101408201528361016082015283610180820152836101a0820152015260248160018060a01b0360035416604051928380926340bae06b60e11b825260043560048301525afa9081156105e2578291611f3a575b5060018060a01b0360045416916040519263fd12153960e01b84526004356004850152604084602481845afa9081156105e25782948392611f0e575b50602060249160405192838092634f02360760e01b825260043560048301525afa928315610414578093611eca575b5050611ec1611eaf946040519586956080875260018060a01b038151166080880152602081015160a0880152604081015160c0880152606081015160e0880152608081015161010088015261ffff60a08201511661012088015260ff60c08201511661014088015260ff60e0820151166101608801526101008101516101808801526101208101516101a08801526101408101516101c08801526101c0610160820151916101e092838a01526101808101516102008a01526101a08101516102208a0152015190610240880152610260870190612780565b9315156020860152604085019061281e565b60608301520390f35b909492506020853d602011611f06575b81611ee7602093836128f4565b810103126104095750611ec1611eff611eaf95612b0d565b9294611dd7565b3d9150611eda565b602095506024919250611f2f9060403d6040116104555761044281836128f4565b959095929150611da8565b3d91508183823e611f4b82826128f4565b602081838101031261082e578051906001600160401b0382116105d2576101e082820184830103126105d25760405192611f8484612873565b611f8f838301612c47565b845281830160208181015190860152604080820151908601526060808201519086015260808082015190860152611fc89060a001612c5b565b60a0850152611fdb60c084840101612c6a565b60c0850152611fee60e084840101612c6a565b60e0850152818301610100818101519086015261012080820151908601526101408082015190860152610160808201519086015261018080820151908601526101a080820151908601526101c00151906001600160401b038211610c7557808301601f8386860101011215610c75578184840101519161206d83612917565b9461207b60405196876128f4565b838652602086019483810160208660051b85858501010101116114b0576020838383010101955b60208660051b8585850101010187106120c857505050505050506101c082015238611d6c565b86516001600160401b0381116121935760c08385018601820187850103601f19011261219357604051916120fb8361288f565b83850186018201602081810151855260408201519085015261211f90606001612b0d565b6040840152838501860182016080810151606085015260a00151906001600160401b03821161218f5760209361217d60c08561216c89898099988f998f8f849c8601950101010101612c98565b60808501528a8a8a01010101612c5b565b60a082015281520197019690506120a2565b8c80fd5b8a80fd5b5034610409578060031936011261040957546040516001600160a01b039091168152602090f35b50346104095780600319360112610409576003546040516001600160a01b039091168152602090f35b503461040957806003193601126104095760e0600654600754600854600954600a5490600b5492600c5494604051968752602087015260408601526060850152608084015260a083015260c0820152f35b5034610409576020806003193601126105d6576122536126ee565b918060e060405161226381612841565b82815282858201528260408201528260608201528260808201528260a08201528260c0820152015260018060a01b03918260025416918360405195634fc16a3960e11b875216928360048701526101009560249187828481845afa918215611242578392918591829361248c575b506040519384809263c84728ef60e01b82528a60048301525afa918215611242578492612470575b5083876003541696846040518099819363c105a19560e01b835260048301525afa958615611242578496612454575b508397969795849860045416985b83518110156123d157898761234b8387612d65565b518760405180948193634f02360760e01b835260048301525afa90811561139957879161239c575b50612387575b61238290612d56565b612336565b9661239461238291612d56565b979050612379565b90508781813d83116123ca575b6123b381836128f4565b8101031261138d576123c490612b0d565b38612373565b503d6123a9565b5086612449879261243a868c60e060405198899881518a5280820151908a0152604081015160408a0152606081015160608a0152608081015160808a015260a081015160a08a015260c081015160c08a0152015160e08801526101608091880152860190612704565b90848203610120860152612704565b906101408301520390f35b6124699196503d8086833e610a5a81836128f4565b9438612328565b6124859192503d8086833e610a5a81836128f4565b90386122f9565b92509250508781813d831161250d575b6124a681836128f4565b810103126105d2579083839260e0604051916124c183612841565b80518352888101518984015260408101516040840152606081015160608401526080810151608084015260a081015160a084015260c081015160c0840152015160e082015291386122d1565b503d61249c565b503461040957806003193601126104095761252d612a7b565b80546001600160a01b03198116825581906001600160a01b031660008051602061306a8339815191528280a380f35b5034610409578060031936011261040957612575612d8f565b5060e0612580612dc7565b61258d60405180926126ad565bf35b50346104095780600319360112610409576125a8612a7b565b80f35b50346104095780600319360112610409576002546040516001600160a01b039091168152602090f35b503461040957606036600319011261040957602435908115158203610409576044359160048310156105d65715612650576802b5e3af16b18800005b6001600160481b031691801561264a5761262a9150612ffe565b610ac961263d82610f0060043586612aa7565b9160405193849384612697565b5061262a565b670de0b6b3a7640000612610565b9050346105d657816003193601126105d6576005546001600160a01b03168152602090f35b60e43590811515820361269257565b600080fd5b6040919493926060820195825260208201520152565b60c08091805184526020810151602085015260408101516040850152606081015160608501526080810151608085015260a081015160a08501520151910152565b600435906001600160a01b038216820361269257565b90815180825260208080930193019160005b828110612724575050505090565b835185529381019392810192600101612716565b60005b83811061274b5750506000910152565b818101518382015260200161273b565b9060209161277481518092818552858086019101612738565b601f01601f1916010190565b908082519081815260208091019281808460051b8301019501936000915b8483106127ae5750505050505090565b9091929394958480600192601f19858203018652895190815181528282015183820152604080830151151590820152606080830151908201526128006080808401519060c0809185015283019061275b565b9161ffff60a08092015116910152980193019301919493929061279e565b90600482101561282b5752565b634e487b7160e01b600052602160045260246000fd5b61010081019081106001600160401b0382111761285d57604052565b634e487b7160e01b600052604160045260246000fd5b6101e081019081106001600160401b0382111761285d57604052565b60c081019081106001600160401b0382111761285d57604052565b6001600160401b03811161285d57604052565b61030081019081106001600160401b0382111761285d57604052565b60e081019081106001600160401b0382111761285d57604052565b601f909101601f19168101906001600160401b0382119082101761285d57604052565b6001600160401b03811161285d5760051b60200190565b81601f820112156126925780359161294583612917565b9261295360405194856128f4565b808452602092838086019260051b820101928311612692578301905b82821061297d575050505090565b8135815290830190830161296f565b6001600160401b03811161285d57601f01601f191660200190565b81601f82011215612692578035906129be8261298c565b926129cc60405194856128f4565b8284526020838301011161269257816000926020809301838601378301015290565b9080601f8301121561269257813590612a0682612917565b92612a1460405194856128f4565b828452602092838086019160051b8301019280841161269257848301915b848310612a425750505050505090565b82356001600160401b038111612692578691612a63848480948901016129a7565b815201920191612a32565b90600282101561282b5752565b6000546001600160a01b03163303612a8f57565b60405163118cdaa760e01b8152336004820152602490fd5b91908201809211612ab457565b634e487b7160e01b600052601160045260246000fd5b15612ad157565b60405162461bcd60e51b8152602060048201526014602482015273125b98dbdc9c9958dd0814d51508185b5bdd5b9d60621b6044820152606490fd5b5190811515820361269257565b6001600160a01b03918216815291166020820152604081019190915260600190565b15612b4357565b60405162461bcd60e51b815260206004820152601460248201527310925514881d1c985b9cd9995c8819985a5b195960621b6044820152606490fd5b6001600160a01b039091168152602081019190915260400190565b15612ba157565b60405162461bcd60e51b8152602060048201526017602482015276125b98dbdc9c9958dd08189bdbdcdd081c185e5b595b9d604a1b6044820152606490fd5b600260015414612bf1576002600155565b604051633ee5aeb560e01b8152600490fd5b15612c0a57565b60405162461bcd60e51b8152602060048201526015602482015274082e4e4c2f240d8cadccee8d040dad2e6dac2e8c6d605b1b6044820152606490fd5b51906001600160a01b038216820361269257565b519061ffff8216820361269257565b519060ff8216820361269257565b919082604091031261269257815160048110156126925760209092015190565b81601f82011215612692578051612cae8161298c565b92612cbc60405194856128f4565b8184526020828401011161269257612cda9160208085019101612738565b90565b6020908181840312612692578051906001600160401b03821161269257019180601f84011215612692578251612d1281612917565b93612d2060405195866128f4565b818552838086019260051b820101928311612692578301905b828210612d47575050505090565b81518152908301908301612d39565b6000198114612ab45760010190565b8051821015612d795760209160051b010190565b634e487b7160e01b600052603260045260246000fd5b60405190612d9c826128d9565b8160c06000918281528260208201528260408201528260608201528260808201528260a08201520152565b60405190612dd4826128d9565b6006548252600754602083015260085460408301526009546060830152600a546080830152600b5460a0830152600c5460c0830152565b919392909360049485821015612fe95781612f49575b5050612e66575b5060405160019260208201906001600160401b03821183831017612e5157506040526000815290565b604190634e487b7160e01b6000525260246000fd5b6005546040516370a0823160e01b81526001600160a01b03928316858201529160209183916024918391165afa8015612f3d57600090612f03575b6802b5e3af16b1880000915010612eb85738612e28565b6040805160009390918201906001600160401b03821183831017612e5157506040526019815278496e73756666696369656e7420424954522062616c616e636560381b602082015290565b6020823d8211612f35575b81612f1b602093836128f4565b8101031261040957506802b5e3af16b18800009051612ea1565b3d9150612f0e565b6040513d6000823e3d90fd5b60018060a01b03865416612f746040519384936385ea867560e01b855289850152602484019061281e565b81604460009384935afa91821561045c5781908293612f9b575b50612e2157945092915050565b9250503d8082843e612fad81846128f4565b82016040838203126105d657612fc283612b0d565b602084015190936001600160401b0382116105d257612fe2929101612c98565b9138612f8e565b602186634e487b7160e01b6000525260246000fd5b600481101561282b576001811461303c576002811461302f5760031461302357600090565b674563918244f4000090565b506729a2241af62c000090565b50671bc16d674ec800009056fe44e2ea4ac9ae6e4f62191e63ce0e544f2d0cb79abc8347d7e58920f5c3f3c0078be0079c531659141344cd1fd0a4f28419497f9722a3daafe3b4186f6b6457e00441abf574021357ac657a1ea4fbfa96c4c3f39a68bc29c9d793d337c0e86fada2646970667358221220ee4a8ae6a534b69fa06ddd61370829111c4b794b17745653805b26687405fc9e64736f6c63430008140033",
  "linkReferences": {},
  "deployedLinkReferences": {}
}