{
  "_format": "hh-sol-artifact-1",
  "contractName": "BitredictBoostSystem",
  "sourceName": "contracts/BitredictBoostSystem.sol",
  "abi": [
    {
      "inputs": [
        {
          "internalType": "address",
          "name": "_poolCore",
          "type": "address"
        },
        {
          "internalType": "address",
          "name": "_revenueCollector",
          "type": "address"
        }
      ],
      "stateMutability": "nonpayable",
      "type": "constructor"
    },
    {
      "inputs": [
        {
          "internalType": "address",
          "name": "owner",
          "type": "address"
        }
      ],
      "name": "OwnableInvalidOwner",
      "type": "error"
    },
    {
      "inputs": [
        {
          "internalType": "address",
          "name": "account",
          "type": "address"
        }
      ],
      "name": "OwnableUnauthorizedAccount",
      "type": "error"
    },
    {
      "anonymous": false,
      "inputs": [
        {
          "indexed": false,
          "internalType": "enum BoostTier",
          "name": "tier",
          "type": "uint8"
        },
        {
          "indexed": false,
          "internalType": "uint256",
          "name": "totalUsage",
          "type": "uint256"
        },
        {
          "indexed": false,
          "internalType": "uint256",
          "name": "totalRevenue",
          "type": "uint256"
        }
      ],
      "name": "BoostAnalyticsUpdated",
      "type": "event"
    },
    {
      "anonymous": false,
      "inputs": [
        {
          "indexed": true,
          "internalType": "uint256",
          "name": "poolId",
          "type": "uint256"
        },
        {
          "indexed": false,
          "internalType": "enum BoostTier",
          "name": "tier",
          "type": "uint8"
        }
      ],
      "name": "BoostExpired",
      "type": "event"
    },
    {
      "anonymous": false,
      "inputs": [
        {
          "indexed": true,
          "internalType": "address",
          "name": "collector",
          "type": "address"
        },
        {
          "indexed": false,
          "internalType": "uint256",
          "name": "amount",
          "type": "uint256"
        }
      ],
      "name": "BoostRevenueClaimed",
      "type": "event"
    },
    {
      "anonymous": false,
      "inputs": [
        {
          "indexed": true,
          "internalType": "uint256",
          "name": "poolId",
          "type": "uint256"
        },
        {
          "indexed": false,
          "internalType": "enum BoostTier",
          "name": "fromTier",
          "type": "uint8"
        },
        {
          "indexed": false,
          "internalType": "enum BoostTier",
          "name": "toTier",
          "type": "uint8"
        },
        {
          "indexed": false,
          "internalType": "uint256",
          "name": "additionalFee",
          "type": "uint256"
        }
      ],
      "name": "BoostUpgraded",
      "type": "event"
    },
    {
      "anonymous": false,
      "inputs": [
        {
          "indexed": true,
          "internalType": "address",
          "name": "previousOwner",
          "type": "address"
        },
        {
          "indexed": true,
          "internalType": "address",
          "name": "newOwner",
          "type": "address"
        }
      ],
      "name": "OwnershipTransferred",
      "type": "event"
    },
    {
      "anonymous": false,
      "inputs": [
        {
          "indexed": true,
          "internalType": "uint256",
          "name": "poolId",
          "type": "uint256"
        },
        {
          "indexed": false,
          "internalType": "enum BoostTier",
          "name": "tier",
          "type": "uint8"
        },
        {
          "indexed": false,
          "internalType": "uint256",
          "name": "expiry",
          "type": "uint256"
        },
        {
          "indexed": false,
          "internalType": "uint256",
          "name": "fee",
          "type": "uint256"
        },
        {
          "indexed": true,
          "internalType": "address",
          "name": "booster",
          "type": "address"
        }
      ],
      "name": "PoolBoosted",
      "type": "event"
    },
    {
      "inputs": [],
      "name": "BOOST_DURATION",
      "outputs": [
        {
          "internalType": "uint256",
          "name": "",
          "type": "uint256"
        }
      ],
      "stateMutability": "view",
      "type": "function"
    },
    {
      "inputs": [],
      "name": "MAX_BRONZE_POOLS",
      "outputs": [
        {
          "internalType": "uint256",
          "name": "",
          "type": "uint256"
        }
      ],
      "stateMutability": "view",
      "type": "function"
    },
    {
      "inputs": [],
      "name": "MAX_GOLD_POOLS",
      "outputs": [
        {
          "internalType": "uint256",
          "name": "",
          "type": "uint256"
        }
      ],
      "stateMutability": "view",
      "type": "function"
    },
    {
      "inputs": [],
      "name": "MAX_SILVER_POOLS",
      "outputs": [
        {
          "internalType": "uint256",
          "name": "",
          "type": "uint256"
        }
      ],
      "stateMutability": "view",
      "type": "function"
    },
    {
      "inputs": [
        {
          "internalType": "enum BoostTier",
          "name": "",
          "type": "uint8"
        }
      ],
      "name": "activeBoostCount",
      "outputs": [
        {
          "internalType": "uint256",
          "name": "",
          "type": "uint256"
        }
      ],
      "stateMutability": "view",
      "type": "function"
    },
    {
      "inputs": [],
      "name": "batchCleanupExpiredBoosts",
      "outputs": [],
      "stateMutability": "nonpayable",
      "type": "function"
    },
    {
      "inputs": [
        {
          "internalType": "uint256",
          "name": "",
          "type": "uint256"
        }
      ],
      "name": "bitrBoostFees",
      "outputs": [
        {
          "internalType": "uint256",
          "name": "",
          "type": "uint256"
        }
      ],
      "stateMutability": "view",
      "type": "function"
    },
    {
      "inputs": [],
      "name": "boostAnalytics",
      "outputs": [
        {
          "internalType": "uint256",
          "name": "totalBoostedPools",
          "type": "uint256"
        },
        {
          "internalType": "uint256",
          "name": "totalBoostRevenue",
          "type": "uint256"
        },
        {
          "internalType": "uint256",
          "name": "averageBoostDuration",
          "type": "uint256"
        },
        {
          "internalType": "uint256",
          "name": "lastUpdated",
          "type": "uint256"
        }
      ],
      "stateMutability": "view",
      "type": "function"
    },
    {
      "inputs": [
        {
          "internalType": "uint256",
          "name": "",
          "type": "uint256"
        }
      ],
      "name": "boostFees",
      "outputs": [
        {
          "internalType": "uint256",
          "name": "",
          "type": "uint256"
        }
      ],
      "stateMutability": "view",
      "type": "function"
    },
    {
      "inputs": [
        {
          "internalType": "uint256",
          "name": "poolId",
          "type": "uint256"
        },
        {
          "internalType": "enum BoostTier",
          "name": "tier",
          "type": "uint8"
        }
      ],
      "name": "boostPool",
      "outputs": [],
      "stateMutability": "payable",
      "type": "function"
    },
    {
      "inputs": [
        {
          "internalType": "uint256",
          "name": "poolId",
          "type": "uint256"
        },
        {
          "internalType": "enum BoostTier",
          "name": "tier",
          "type": "uint8"
        }
      ],
      "name": "canBoostPool",
      "outputs": [
        {
          "internalType": "bool",
          "name": "canBoost",
          "type": "bool"
        },
        {
          "internalType": "string",
          "name": "reason",
          "type": "string"
        }
      ],
      "stateMutability": "view",
      "type": "function"
    },
    {
      "inputs": [],
      "name": "claimBoostRevenue",
      "outputs": [],
      "stateMutability": "nonpayable",
      "type": "function"
    },
    {
      "inputs": [
        {
          "internalType": "uint256[]",
          "name": "poolIds",
          "type": "uint256[]"
        }
      ],
      "name": "cleanupExpiredBoosts",
      "outputs": [],
      "stateMutability": "nonpayable",
      "type": "function"
    },
    {
      "inputs": [],
      "name": "emergencyWithdraw",
      "outputs": [],
      "stateMutability": "nonpayable",
      "type": "function"
    },
    {
      "inputs": [
        {
          "internalType": "uint256",
          "name": "poolId",
          "type": "uint256"
        },
        {
          "internalType": "uint256",
          "name": "additionalHours",
          "type": "uint256"
        }
      ],
      "name": "extendBoost",
      "outputs": [],
      "stateMutability": "payable",
      "type": "function"
    },
    {
      "inputs": [],
      "name": "getBoostAnalytics",
      "outputs": [
        {
          "internalType": "uint256",
          "name": "totalBoostedPools",
          "type": "uint256"
        },
        {
          "internalType": "uint256",
          "name": "totalBoostRevenueValue",
          "type": "uint256"
        },
        {
          "internalType": "uint256",
          "name": "averageBoostDuration",
          "type": "uint256"
        },
        {
          "internalType": "uint256",
          "name": "bronzeUsage",
          "type": "uint256"
        },
        {
          "internalType": "uint256",
          "name": "silverUsage",
          "type": "uint256"
        },
        {
          "internalType": "uint256",
          "name": "goldUsage",
          "type": "uint256"
        },
        {
          "internalType": "uint256",
          "name": "lastUpdated",
          "type": "uint256"
        }
      ],
      "stateMutability": "view",
      "type": "function"
    },
    {
      "inputs": [
        {
          "internalType": "uint256",
          "name": "poolId",
          "type": "uint256"
        },
        {
          "internalType": "enum BoostTier",
          "name": "tier",
          "type": "uint8"
        }
      ],
      "name": "getBoostCost",
      "outputs": [
        {
          "internalType": "uint256",
          "name": "cost",
          "type": "uint256"
        }
      ],
      "stateMutability": "view",
      "type": "function"
    },
    {
      "inputs": [
        {
          "internalType": "uint256",
          "name": "poolId",
          "type": "uint256"
        }
      ],
      "name": "getBoostInfo",
      "outputs": [
        {
          "internalType": "enum BoostTier",
          "name": "tier",
          "type": "uint8"
        },
        {
          "internalType": "uint256",
          "name": "expiry",
          "type": "uint256"
        },
        {
          "internalType": "uint256",
          "name": "startTime",
          "type": "uint256"
        },
        {
          "internalType": "address",
          "name": "booster",
          "type": "address"
        },
        {
          "internalType": "bool",
          "name": "isActive",
          "type": "bool"
        },
        {
          "internalType": "uint256",
          "name": "remainingTime",
          "type": "uint256"
        }
      ],
      "stateMutability": "view",
      "type": "function"
    },
    {
      "inputs": [],
      "name": "getBoostStats",
      "outputs": [
        {
          "internalType": "uint256",
          "name": "totalBoosted",
          "type": "uint256"
        },
        {
          "internalType": "uint256",
          "name": "bronzeBoosted",
          "type": "uint256"
        },
        {
          "internalType": "uint256",
          "name": "silverBoosted",
          "type": "uint256"
        },
        {
          "internalType": "uint256",
          "name": "goldBoosted",
          "type": "uint256"
        },
        {
          "internalType": "uint256",
          "name": "totalRevenue",
          "type": "uint256"
        },
        {
          "internalType": "uint256",
          "name": "averageFee",
          "type": "uint256"
        }
      ],
      "stateMutability": "view",
      "type": "function"
    },
    {
      "inputs": [],
      "name": "getBoostedPools",
      "outputs": [
        {
          "internalType": "uint256[]",
          "name": "poolIds",
          "type": "uint256[]"
        },
        {
          "internalType": "enum BoostTier[]",
          "name": "tiers",
          "type": "uint8[]"
        }
      ],
      "stateMutability": "view",
      "type": "function"
    },
    {
      "inputs": [
        {
          "internalType": "enum BoostTier",
          "name": "tier",
          "type": "uint8"
        }
      ],
      "name": "getBoostedPoolsByTier",
      "outputs": [
        {
          "internalType": "uint256[]",
          "name": "",
          "type": "uint256[]"
        }
      ],
      "stateMutability": "view",
      "type": "function"
    },
    {
      "inputs": [
        {
          "internalType": "uint256",
          "name": "poolId",
          "type": "uint256"
        }
      ],
      "name": "getPoolBoost",
      "outputs": [
        {
          "internalType": "enum BoostTier",
          "name": "tier",
          "type": "uint8"
        },
        {
          "internalType": "uint256",
          "name": "expiry",
          "type": "uint256"
        }
      ],
      "stateMutability": "view",
      "type": "function"
    },
    {
      "inputs": [
        {
          "internalType": "uint256",
          "name": "limit",
          "type": "uint256"
        }
      ],
      "name": "getTopBoostedPools",
      "outputs": [
        {
          "internalType": "uint256[]",
          "name": "poolIds",
          "type": "uint256[]"
        },
        {
          "internalType": "enum BoostTier[]",
          "name": "tiers",
          "type": "uint8[]"
        },
        {
          "internalType": "uint256[]",
          "name": "expiries",
          "type": "uint256[]"
        }
      ],
      "stateMutability": "view",
      "type": "function"
    },
    {
      "inputs": [
        {
          "internalType": "uint256",
          "name": "poolId",
          "type": "uint256"
        }
      ],
      "name": "isPoolBoosted",
      "outputs": [
        {
          "internalType": "bool",
          "name": "",
          "type": "bool"
        }
      ],
      "stateMutability": "view",
      "type": "function"
    },
    {
      "inputs": [],
      "name": "owner",
      "outputs": [
        {
          "internalType": "address",
          "name": "",
          "type": "address"
        }
      ],
      "stateMutability": "view",
      "type": "function"
    },
    {
      "inputs": [],
      "name": "pauseBoostSystem",
      "outputs": [],
      "stateMutability": "nonpayable",
      "type": "function"
    },
    {
      "inputs": [
        {
          "internalType": "uint256",
          "name": "",
          "type": "uint256"
        }
      ],
      "name": "poolBoostExpiry",
      "outputs": [
        {
          "internalType": "uint256",
          "name": "",
          "type": "uint256"
        }
      ],
      "stateMutability": "view",
      "type": "function"
    },
    {
      "inputs": [
        {
          "internalType": "uint256",
          "name": "",
          "type": "uint256"
        }
      ],
      "name": "poolBoostStartTime",
      "outputs": [
        {
          "internalType": "uint256",
          "name": "",
          "type": "uint256"
        }
      ],
      "stateMutability": "view",
      "type": "function"
    },
    {
      "inputs": [
        {
          "internalType": "uint256",
          "name": "",
          "type": "uint256"
        }
      ],
      "name": "poolBoostTier",
      "outputs": [
        {
          "internalType": "enum BoostTier",
          "name": "",
          "type": "uint8"
        }
      ],
      "stateMutability": "view",
      "type": "function"
    },
    {
      "inputs": [
        {
          "internalType": "uint256",
          "name": "",
          "type": "uint256"
        }
      ],
      "name": "poolBooster",
      "outputs": [
        {
          "internalType": "address",
          "name": "",
          "type": "address"
        }
      ],
      "stateMutability": "view",
      "type": "function"
    },
    {
      "inputs": [],
      "name": "poolCore",
      "outputs": [
        {
          "internalType": "contract IBitredictPoolCore",
          "name": "",
          "type": "address"
        }
      ],
      "stateMutability": "view",
      "type": "function"
    },
    {
      "inputs": [],
      "name": "renounceOwnership",
      "outputs": [],
      "stateMutability": "nonpayable",
      "type": "function"
    },
    {
      "inputs": [],
      "name": "revenueCollector",
      "outputs": [
        {
          "internalType": "address",
          "name": "",
          "type": "address"
        }
      ],
      "stateMutability": "view",
      "type": "function"
    },
    {
      "inputs": [
        {
          "internalType": "address",
          "name": "_poolCore",
          "type": "address"
        }
      ],
      "name": "setPoolCore",
      "outputs": [],
      "stateMutability": "nonpayable",
      "type": "function"
    },
    {
      "inputs": [
        {
          "internalType": "address",
          "name": "_revenueCollector",
          "type": "address"
        }
      ],
      "name": "setRevenueCollector",
      "outputs": [],
      "stateMutability": "nonpayable",
      "type": "function"
    },
    {
      "inputs": [],
      "name": "totalBoostRevenue",
      "outputs": [
        {
          "internalType": "uint256",
          "name": "",
          "type": "uint256"
        }
      ],
      "stateMutability": "view",
      "type": "function"
    },
    {
      "inputs": [
        {
          "internalType": "address",
          "name": "newOwner",
          "type": "address"
        }
      ],
      "name": "transferOwnership",
      "outputs": [],
      "stateMutability": "nonpayable",
      "type": "function"
    },
    {
      "inputs": [
        {
          "internalType": "uint256[4]",
          "name": "_newFees",
          "type": "uint256[4]"
        }
      ],
      "name": "updateBoostFees",
      "outputs": [],
      "stateMutability": "nonpayable",
      "type": "function"
    },
    {
      "stateMutability": "payable",
      "type": "receive"
    }
  ],
  "bytecode": "0x6080346200024857620020c2906001600160401b03601f38849003908101601f1916830190828211848310176200024d57808491604096879485528339810103126200024857620000508262000283565b6200005f602080940162000283565b903315620002305760008054336001600160a01b031980831682178455956001600160a01b03948594909390929085167f8be0079c531659141344cd1fd0a4f28419497f9722a3daafe3b4186f6b6457e08480a3620000bd62000263565b828152671bc16d674ec8000089820152674563918244f400008a820152678ac7230489e800006060820152825b6004811062000217575050506200010062000263565b81815267a688906bd8b00000888201526801a055690d9db8000089820152680340aad21b3b7000006060820152905b60048110620001f757505016918215620001b3571692831562000170575081600154161760015560105416176010554260165551611e299081620002998239f35b60649085519062461bcd60e51b82526004820152601960248201527f496e76616c696420726576656e756520636f6c6c6563746f72000000000000006044820152fd5b855162461bcd60e51b815260048101869052601960248201527f496e76616c696420706f6f6c20636f72652061646472657373000000000000006044820152606490fd5b81516001600160481b03166006820155849350908701906001016200012f565b81518316600282015586955090890190600101620000ea565b8451631e4fbdf760e01b815260006004820152602490fd5b600080fd5b634e487b7160e01b600052604160045260246000fd5b60405190608082016001600160401b038111838210176200024d57604052565b51906001600160a01b0382168203620002485756fe6080604081815260049081361015610022575b505050361561002057600080fd5b005b600092833560e01c90816325edb3281461158857816333649e1c146115575750806338cac0c21461152e57806339cb2c91146115025780633df2afa6146114da578063480d1541146114a857806348c367b51461143d5780634f023607146113e3578063715018a61461139b5780637210b2061461130e5780637ed2882e1461127457806385ea86751461122357806386e4673e146111fb5780638da5cb5b146111d357806394cbdbe0146111195780639bd55d311461109b5780639eadf2d71461107c5780639f010deb14611016578063a824578314610e42578063aa57f57e14610df2578063ab48992914610d02578063b33ef43d14610cd6578063b6a1b6a514610cad578063cd7358b914610c91578063cde38cdf14610c41578063d505854714610bf7578063d9c6176c14610bd9578063db2e21bc14610b17578063db885cec14610ade578063e233459314610866578063e82ac07614610832578063ebbe74d714610677578063f286d160146106fb578063f2fde38b1461067c578063f56926b214610677578063f8bf195f14610677578063fd1215391461061e5763ffd230c903610012576101d636611687565b9290918184101561060b5783156105d3576001548151632f0c38e960e11b815280840185905260249360209290916001600160a01b039189919083169085818981855afa9081156105c957839291610237918a96959161059c575b506117b7565b86519384809263068bcd8d60e01b82528b888301525afa9182156105925789908a93610558575b5016330361051e574210156104e65761027686611cd8565b61027f876116ce565b5410156104b457848752600b825260ff8388205416938660020154828610156104a257851515808061048f575b1561046657508588111561042c577f1f04bf32346be6ad58fcb574391fb7ad3c912bf4f5ef6c758624501be99e4c5460606102ed8993896002015490611983565b976102f7816116ce565b6103018154611960565b905561030f8851809261159c565b61031b8782018c61159c565b8888820152a25b8434036103ef5761033585600f54611990565b600f55858852600b835283882060ff1981541660ff8916179055620151804201918242116103de575050848752600c80835283882091909155600d8252828720429055600e825282872080546001600160a01b03191633179055600080516020611db48339815191529392916103aa876116ce565b6103b4815461199d565b90556103c08488611d08565b858852526103d88187205491519283923397846119ac565b0390a380f35b634e487b7160e01b89526011905287fd5b601a9192606494519362461bcd60e51b855284015282015279125b98dbdc9c9958dd08189bdbdcdd0819995948185b5bdd5b9d60321b6044820152fd5b5060169192606494519362461bcd60e51b85528401528201527510d85b881bdb9b1e481d5c19dc98591948189bdbdcdd60521b6044820152fd5b959095610474575b50610322565b61047d906116ce565b6104878154611960565b90553861046e565b50878a52600c8552858a205442106102ac565b50634e487b7160e01b88526021825287fd5b600f8460649385519362461bcd60e51b85528401528201526e109bdbdcdd081d1a595c88199d5b1b608a1b6044820152fd5b60158460649385519362461bcd60e51b855284015282015274115d995b9d08185b1c9958591e481cdd185c9d1959605a1b6044820152fd5b5060168460649385519362461bcd60e51b85528401528201527513db9b1e4818dc99585d1bdc8818d85b88189bdbdcdd60521b6044820152fd5b90506105779192503d808b833e61056f8183611664565b810190611867565b50505050509e9d9c505050505050505050505050503861025e565b85513d8b823e3d90fd5b6105bc9150883d8a116105c2575b6105b48183611664565b81019061179f565b38610231565b503d6105aa565b87513d85823e3d90fd5b906020606492519162461bcd60e51b8352820152601260248201527124b73b30b634b2103137b7b9ba103a34b2b960711b6044820152fd5b634e487b7160e01b855260218252602485fd5b5091903461067357602036600319011261067357358152600b60205260ff828220541690600c602052828120549081421015610669575b506106628351809361159c565b6020820152f35b9150508038610655565b5080fd5b611719565b50346106f75760203660031901126106f7576001600160a01b038235818116939192908490036106f3576106ae611735565b83156106dd57505082546001600160a01b031981168317845516600080516020611dd48339815191528380a380f35b51631e4fbdf760e01b8152908101849052602490fd5b8480fd5b8280fd5b5090346106f757826003193601126106f7576010546001600160a01b03908116913383148015610826575b156107f257479283156107b9578580808681945af16107436119c9565b501561077c57507f582a791fd86fb488ef8a2d4c5d6786ded47a2ed6621bb569f836291489aae22b91602091601054169351908152a280f35b606490602085519162461bcd60e51b8352820152601760248201527614995d995b9d59481d1c985b9cd9995c8819985a5b1959604a1b6044820152fd5b845162461bcd60e51b815260208184015260136024820152724e6f20726576656e756520746f20636c61696d60681b6044820152606490fd5b606490602085519162461bcd60e51b8352820152600e60248201526d139bdd08185d5d1a1bdc9a5e995960921b6044820152fd5b50818554163314610726565b50823461086357602036600319011261086357823592831015610863575061085b6020926116ce565b549051908152f35b80fd5b5090816003193601126106f757803590602492833560018060a01b039081600154169183518093632f0c38e960e11b82528787830152818960209687935afa90811561059257906108bd918a91610ac757506117b7565b858852600e835283882054163303610a8a57848752600b825260ff83882054169584871015610a79578615610a4557858852600c835283882054421015610a0c57811594851580610a01575b156109c7578760020154838102908082048514901517156109b557601890049586340361097a5761093c87600f54611990565b600f55610e108085029485041417156103de575050600080516020611db4833981519152939291600c918689528282526103b4848a20918254611990565b5060176064928587519362461bcd60e51b855284015282015276496e636f727265637420657874656e73696f6e2066656560481b6044820152fd5b50634e487b7160e01b89526011905287fd5b60176064928587519362461bcd60e51b855284015282015276496e76616c696420657874656e73696f6e20686f75727360481b6044820152fd5b506030831115610909565b8460156064928587519362461bcd60e51b855284015282015274109bdbdcdd08185b1c9958591e48195e1c1a5c9959605a1b6044820152fd5b8460106064928587519362461bcd60e51b85528401528201526f141bdbdb081b9bdd08189bdbdcdd195960821b6044820152fd5b634e487b7160e01b88526021855287fd5b825162461bcd60e51b8152808501839052601881880152772737ba103a34329037b934b3b4b730b6103137b7b9ba32b960411b6044820152606490fd5b6105bc9150853d87116105c2576105b48183611664565b83823461067357816003193601126106735760809060115490601254906013549060165492815194855260208501528301526060820152f35b50346106f757826003193601126106f757610b30611735565b478015610b9f57835484918291829182916001600160a01b03165af1610b546119c9565b5015610b5e578280f35b906020606492519162461bcd60e51b8352820152601b60248201527a115b595c99d95b98de481dda5d1a191c985dd85b0819985a5b1959602a1b6044820152fd5b815162461bcd60e51b815260208185015260146024820152734e6f2066756e647320746f20776974686472617760601b6044820152606490fd5b83823461067357816003193601126106735760209051620151808152f35b508234610863576020366003190112610863578235928310156108635750610c2a610c24610c3d936116ce565b54611a10565b90519182916020835260208301906115bf565b0390f35b50503461067357602036600319011261067357356001600160a01b0381169081900361067357610c6f611735565b610c7a811515611761565b601080546001600160a01b03191691909117905580f35b8334610863578060031936011261086357610caa611735565b80f35b83823461067357816003193601126106735760105490516001600160a01b039091168152602090f35b5090346106f75760203660031901126106f7578035908110156106f75760209250600601549051908152f35b5082903461067357610d1336611687565b90929084811015610ddf578015610dad576002015492808252600b60205260ff83832054169085821015610d9a57602095508115159081610d87575b50610d5d575b505051908152f35b60020154919290919081811115610d8057610d789250611983565b908380610d55565b5050610d78565b835250600c855282822054421086610d4f565b634e487b7160e01b835260218652602483fd5b825162461bcd60e51b8152602081870152600c60248201526b24b73b30b634b2103a34b2b960a11b6044820152606490fd5b634e487b7160e01b825260218552602482fd5b50503461067357602036600319011261067357356001600160a01b0381169081900361067357610e20611735565b610e2b811515611761565b600180546001600160a01b03191691909117905580f35b50346106f75760209182600319360112611012578035926001600160401b039283851161100e573660238601121561100e578483013593841161100e576024946005368787831b8401011161100a578796975b868110610ea0578780f35b6001548451632f0c38e960e11b815282841b85018b013588820181905291879082908d9082906001600160a01b03165afa908115611000578a91610fe3575b5015610fd657808952600b80875260ff868b205416600c808952878c20548a831015610fc45791888d9e9d8b93610f2f989796958415159081610fb9575b50610f37575b5050505050505061199d565b979697610e95565b7f3b39599a0e569d32e7c39669f521b7704a4abb9e4ec2a4d9826f205270f6c30295878352855282822060ff19815416905584528082812055600d84528082812055600e84522060018060a01b03198154169055610f94816116ce565b610f9e8154611960565b9055610fac8951809261159c565ba238808781888e82610f23565b905042101538610f1d565b634e487b7160e01b8d5260218b528d8dfd5b50610f2f9098979861199d565b610ffa9150873d89116105c2576105b48183611664565b38610edf565b86513d8c823e3d90fd5b8780fd5b8580fd5b8380fd5b83823461067357816003193601126106735760e09160115491601254916013546001825260146020528282205490600283528380842054936003815220549360165495815197885260208801528601526060850152608084015260a083015260c0820152f35b838234610673578160031936011261067357602090600f549051908152f35b5082346108635780600319360112610863578060016110e29252600a602052826110d081832054600284528284205490611990565b9160038152600a602052205490611990565b90610c3d6110f86110f284611a10565b93611a10565b61110b83519484869586528501906115bf565b9083820360208501526115f3565b50823461086357602090816003193601126108635783358152600b825260ff838220541692600c83528082205490600d84528083205490600e855260018060a01b03818520541692878710156111c05760c0975086151594856111b5575b85156111af57506111884282611983565b955b6111968351809961159c565b87015285015260608401521515608083015260a0820152f35b9561118a565b945080421094611177565b634e487b7160e01b855260218852602485fd5b838234610673578160031936011261067357905490516001600160a01b039091168152602090f35b5090346106f75760203660031901126106f7576020928291358152600d845220549051908152f35b5082346108635750606061123f61123936611687565b90611a42565b611266845194859315158452806020850152825192838092860152602086860191016116ab565b601f01601f19168101030190f35b50346106f75760803660031901126106f75736602312156106f75780519060808201906001600160401b038211838310176112fb57526084813682116106f35783905b8282106112eb575050506112c9611735565b825b8281106112d6578380f35b600190602083519301928160020155016112cb565b81358152602091820191016112b7565b634e487b7160e01b855260418452602485fd5b5082903461067357816003193601126106735760115460018352600a60205281832054600284528284205460038552838520546012549395929490928615806113905761137d575060c09650858404945b815196875260208701528501526060840152608083015260a0820152f35b634e487b7160e01b815260128852602490fd5b5060c097509461135f565b83346108635780600319360112610863576113b4611735565b80546001600160a01b03198116825581906001600160a01b0316600080516020611dd48339815191528280a380f35b5082903461067357602036600319011261067357823591828152600b60205260ff828220541684811015610ddf576020945015159283611428575b5050519015158152f35b8293508152600c84522054421090838061141e565b5082346108635760203660031901126108635750610c3d61148d92359161146383611a10565b9261149b61147961147383611a10565b92611a10565b9183519687966060885260608801906115bf565b9086820360208801526115f3565b91848303908501526115bf565b5090346106f75760203660031901126106f75760ff826020946114d893358152600b86522054169151809261159c565bf35b5090346106f75760203660031901126106f7576020928291358152600c845220549051908152f35b5090346106f75760203660031901126106f7578035908110156106f75760209250600201549051908152f35b83823461067357816003193601126106735760015490516001600160a01b039091168152602090f35b91849150346106735760203660031901126106735792358152600e6020908152929020546001600160a01b03168152f35b843461086357806003193601126108635780f35b9060048210156115a95752565b634e487b7160e01b600052602160045260246000fd5b90815180825260208080930193019160005b8281106115df575050505090565b8351855293810193928101926001016115d1565b90815180825260208080930193019160005b828110611613575050505090565b90919293828082611627600194895161159c565b01950193929101611605565b604081019081106001600160401b0382111761164e57604052565b634e487b7160e01b600052604160045260246000fd5b601f909101601f19168101906001600160401b0382119082101761164e57604052565b60409060031901126116a6576004359060243560048110156116a65790565b600080fd5b60005b8381106116be5750506000910152565b81810151838201526020016116ae565b60048110156115a957600052600a602052604060002090565b60048110156115a9576000526014602052604060002090565b60048110156115a9576000526015602052604060002090565b346116a65760003660031901126116a657602060405160058152f35b6000546001600160a01b0316330361174957565b60405163118cdaa760e01b8152336004820152602490fd5b1561176857565b60405162461bcd60e51b815260206004820152600f60248201526e496e76616c6964206164647265737360881b6044820152606490fd5b908160209103126116a6575180151581036116a65790565b156117be57565b60405162461bcd60e51b8152602060048201526013602482015272141bdbdb08191bd95cc81b9bdd08195e1a5cdd606a1b6044820152606490fd5b519060ff821682036116a657565b6001600160401b03811161164e57601f01601f191660200190565b81601f820112156116a657805161183881611807565b926118466040519485611664565b818452602082840101116116a65761186491602080850191016116ab565b90565b91610280838303126116a65782516001600160a01b03811681036116a65792602081015161ffff811681036116a657926118a3604083016117f9565b926118b0606084016117f9565b9260808101519260a08201519260c08301519260e08101519261010082015192610120830151926101408101519261016082015192610180830151926101a0810151926101c0820151926101e0830151926102008101519160018060401b03928381116116a65784611923918401611822565b936102208301518481116116a6578161193d918501611822565b936102408401519081116116a6576102609161195a918501611822565b92015190565b801561196d576000190190565b634e487b7160e01b600052601160045260246000fd5b9190820391821161196d57565b9190820180921161196d57565b600019811461196d5760010190565b6040919493926119c082606081019761159c565b60208201520152565b3d156119f4573d906119da82611807565b916119e86040519384611664565b82523d6000602084013e565b606090565b6001600160401b03811161164e5760051b60200190565b90611a1a826119f9565b611a276040519182611664565b8281528092611a38601f19916119f9565b0190602036910137565b919060018060a01b0360015416604093845192632f0c38e960e11b845260049282848601526020948581602481855afa908115611ccd57600091611cb0575b5015611c7d5783821015611b9c578115611c4b57600060249188519283809263068bcd8d60e01b825287898301525afa908115611c4057600091611c13575b50421015611bdf57611ad181611cd8565b611ada826116ce565b541015611bb15781600052600b845260ff8660002054169183831015611b9c578215159081611b86575b50611b46575b5050835160019490928301916001600160401b03831184841017611b315750526000815290565b604190634e487b7160e01b6000525260246000fd5b1115611b53573880611b0a565b507510d85b881bdb9b1e481d5c19dc98591948189bdbdcdd60521b6000935191611b7c83611633565b6016835282015290565b9050600052600c84528560002054421038611b04565b602184634e487b7160e01b6000525260246000fd5b5050506e109bdbdcdd081d1a595c88199d5b1b608a1b6000935191611bd583611633565b600f835282015290565b50505074115d995b9d08185b1c9958591e481cdd185c9d1959605a1b6000935191611c0983611633565b6015835282015290565b611c26913d8091833e61056f8183611664565b50505050509d505050505050505050505050505038611ac0565b87513d6000823e3d90fd5b505050507124b73b30b634b2103137b7b9ba103a34b2b960711b6000935191611c7383611633565b6012835282015290565b5050505072141bdbdb08191bd95cc81b9bdd08195e1a5cdd606a1b6000935191611ca683611633565b6013835282015290565b611cc79150863d88116105c2576105b48183611664565b38611a81565b88513d6000823e3d90fd5b60048110156115a95760018114611d025760028114611d0257600314611cfd57600090565b600590565b50600590565b7fcd94a5125a4dac18dc42874d70c23227e18aa9b209fd556060fe34110d056d1e91611d3560115461199d565b601155611d4481601254611990565b601255611d50826116e7565b611d5a815461199d565b9055611d70611d6883611700565b918254611990565b905542601655601154611da7575b611d87816116e7565b5490611da2611d9582611700565b54604051938493846119ac565b0390a1565b62015180601355611d7e56fe57729166f7044080032425b1a2983f2d598bea4b7fcb81566631c207972d5a2b8be0079c531659141344cd1fd0a4f28419497f9722a3daafe3b4186f6b6457e0a26469706673582212200d2979bc65acf6ebd1bff54a0adc9e98e7ec9a69e6009eb06ceb15bd77fd61fc64736f6c63430008140033",
  "linkReferences": {},
  "deployedLinkReferences": {}
}