{
  "_format": "hh-sol-artifact-1",
  "contractName": "BitredictPoolCore",
  "sourceName": "contracts/BitredictPoolCore.sol",
  "abi": [
    {
      "inputs": [
        {
          "internalType": "address",
          "name": "_bitrToken",
          "type": "address"
        },
        {
          "internalType": "address",
          "name": "_feeCollector",
          "type": "address"
        },
        {
          "internalType": "address",
          "name": "_guidedOracle",
          "type": "address"
        },
        {
          "internalType": "address",
          "name": "_optimisticOracle",
          "type": "address"
        }
      ],
      "stateMutability": "nonpayable",
      "type": "constructor"
    },
    {
      "inputs": [
        {
          "internalType": "address",
          "name": "owner",
          "type": "address"
        }
      ],
      "name": "OwnableInvalidOwner",
      "type": "error"
    },
    {
      "inputs": [
        {
          "internalType": "address",
          "name": "account",
          "type": "address"
        }
      ],
      "name": "OwnableUnauthorizedAccount",
      "type": "error"
    },
    {
      "inputs": [],
      "name": "ReentrancyGuardReentrantCall",
      "type": "error"
    },
    {
      "anonymous": false,
      "inputs": [
        {
          "indexed": true,
          "internalType": "uint256",
          "name": "poolId",
          "type": "uint256"
        },
        {
          "indexed": false,
          "internalType": "uint256",
          "name": "totalVolume",
          "type": "uint256"
        },
        {
          "indexed": false,
          "internalType": "uint256",
          "name": "participantCount",
          "type": "uint256"
        }
      ],
      "name": "AnalyticsUpdated",
      "type": "event"
    },
    {
      "anonymous": false,
      "inputs": [
        {
          "indexed": true,
          "internalType": "uint256",
          "name": "poolId",
          "type": "uint256"
        },
        {
          "indexed": true,
          "internalType": "address",
          "name": "bettor",
          "type": "address"
        },
        {
          "indexed": false,
          "internalType": "uint256",
          "name": "amount",
          "type": "uint256"
        },
        {
          "indexed": false,
          "internalType": "bool",
          "name": "isForOutcome",
          "type": "bool"
        }
      ],
      "name": "BetPlaced",
      "type": "event"
    },
    {
      "anonymous": false,
      "inputs": [
        {
          "indexed": true,
          "internalType": "uint256",
          "name": "poolId",
          "type": "uint256"
        },
        {
          "indexed": true,
          "internalType": "address",
          "name": "provider",
          "type": "address"
        },
        {
          "indexed": false,
          "internalType": "uint256",
          "name": "amount",
          "type": "uint256"
        }
      ],
      "name": "LiquidityAdded",
      "type": "event"
    },
    {
      "anonymous": false,
      "inputs": [
        {
          "indexed": true,
          "internalType": "address",
          "name": "previousOwner",
          "type": "address"
        },
        {
          "indexed": true,
          "internalType": "address",
          "name": "newOwner",
          "type": "address"
        }
      ],
      "name": "OwnershipTransferred",
      "type": "event"
    },
    {
      "anonymous": false,
      "inputs": [
        {
          "indexed": true,
          "internalType": "uint256",
          "name": "poolId",
          "type": "uint256"
        },
        {
          "indexed": true,
          "internalType": "address",
          "name": "creator",
          "type": "address"
        },
        {
          "indexed": false,
          "internalType": "uint256",
          "name": "eventStartTime",
          "type": "uint256"
        },
        {
          "indexed": false,
          "internalType": "uint256",
          "name": "eventEndTime",
          "type": "uint256"
        },
        {
          "indexed": false,
          "internalType": "enum OracleType",
          "name": "oracleType",
          "type": "uint8"
        },
        {
          "indexed": false,
          "internalType": "bytes32",
          "name": "marketId",
          "type": "bytes32"
        },
        {
          "indexed": false,
          "internalType": "enum MarketType",
          "name": "marketType",
          "type": "uint8"
        },
        {
          "indexed": false,
          "internalType": "bytes32",
          "name": "league",
          "type": "bytes32"
        },
        {
          "indexed": false,
          "internalType": "bytes32",
          "name": "category",
          "type": "bytes32"
        }
      ],
      "name": "PoolCreated",
      "type": "event"
    },
    {
      "anonymous": false,
      "inputs": [
        {
          "indexed": true,
          "internalType": "uint256",
          "name": "poolId",
          "type": "uint256"
        },
        {
          "indexed": true,
          "internalType": "address",
          "name": "creator",
          "type": "address"
        },
        {
          "indexed": false,
          "internalType": "uint256",
          "name": "eventStartTime",
          "type": "uint256"
        },
        {
          "indexed": false,
          "internalType": "uint256",
          "name": "eventEndTime",
          "type": "uint256"
        },
        {
          "indexed": false,
          "internalType": "enum OracleType",
          "name": "oracleType",
          "type": "uint8"
        },
        {
          "indexed": false,
          "internalType": "bytes32",
          "name": "marketId",
          "type": "bytes32"
        },
        {
          "indexed": false,
          "internalType": "enum MarketType",
          "name": "marketType",
          "type": "uint8"
        },
        {
          "indexed": false,
          "internalType": "bytes32",
          "name": "league",
          "type": "bytes32"
        },
        {
          "indexed": false,
          "internalType": "bytes32",
          "name": "category",
          "type": "bytes32"
        },
        {
          "indexed": false,
          "internalType": "uint256",
          "name": "creatorStake",
          "type": "uint256"
        },
        {
          "indexed": false,
          "internalType": "bool",
          "name": "useBitr",
          "type": "bool"
        }
      ],
      "name": "PoolCreatedLightweight",
      "type": "event"
    },
    {
      "anonymous": false,
      "inputs": [
        {
          "indexed": true,
          "internalType": "uint256",
          "name": "poolId",
          "type": "uint256"
        },
        {
          "indexed": false,
          "internalType": "string",
          "name": "reason",
          "type": "string"
        }
      ],
      "name": "PoolRefunded",
      "type": "event"
    },
    {
      "anonymous": false,
      "inputs": [
        {
          "indexed": true,
          "internalType": "uint256",
          "name": "poolId",
          "type": "uint256"
        },
        {
          "indexed": false,
          "internalType": "bytes32",
          "name": "result",
          "type": "bytes32"
        },
        {
          "indexed": false,
          "internalType": "bool",
          "name": "creatorSideWon",
          "type": "bool"
        },
        {
          "indexed": false,
          "internalType": "uint256",
          "name": "timestamp",
          "type": "uint256"
        }
      ],
      "name": "PoolSettled",
      "type": "event"
    },
    {
      "anonymous": false,
      "inputs": [
        {
          "indexed": true,
          "internalType": "address",
          "name": "user",
          "type": "address"
        },
        {
          "indexed": false,
          "internalType": "enum ReputationSystem.ReputationAction",
          "name": "action",
          "type": "uint8"
        },
        {
          "indexed": false,
          "internalType": "uint256",
          "name": "value",
          "type": "uint256"
        },
        {
          "indexed": true,
          "internalType": "bytes32",
          "name": "poolId",
          "type": "bytes32"
        },
        {
          "indexed": false,
          "internalType": "uint256",
          "name": "timestamp",
          "type": "uint256"
        }
      ],
      "name": "ReputationActionOccurred",
      "type": "event"
    },
    {
      "anonymous": false,
      "inputs": [
        {
          "indexed": true,
          "internalType": "uint256",
          "name": "poolId",
          "type": "uint256"
        },
        {
          "indexed": true,
          "internalType": "address",
          "name": "user",
          "type": "address"
        },
        {
          "indexed": false,
          "internalType": "uint256",
          "name": "amount",
          "type": "uint256"
        }
      ],
      "name": "RewardClaimed",
      "type": "event"
    },
    {
      "anonymous": false,
      "inputs": [
        {
          "indexed": true,
          "internalType": "uint256",
          "name": "poolId",
          "type": "uint256"
        },
        {
          "indexed": true,
          "internalType": "address",
          "name": "user",
          "type": "address"
        }
      ],
      "name": "UserWhitelisted",
      "type": "event"
    },
    {
      "inputs": [],
      "name": "HIGH_ODDS_THRESHOLD",
      "outputs": [
        {
          "internalType": "uint256",
          "name": "",
          "type": "uint256"
        }
      ],
      "stateMutability": "view",
      "type": "function"
    },
    {
      "inputs": [],
      "name": "MAX_LP_PROVIDERS",
      "outputs": [
        {
          "internalType": "uint256",
          "name": "",
          "type": "uint256"
        }
      ],
      "stateMutability": "view",
      "type": "function"
    },
    {
      "inputs": [],
      "name": "MAX_PARTICIPANTS",
      "outputs": [
        {
          "internalType": "uint256",
          "name": "",
          "type": "uint256"
        }
      ],
      "stateMutability": "view",
      "type": "function"
    },
    {
      "inputs": [
        {
          "internalType": "uint256",
          "name": "poolId",
          "type": "uint256"
        },
        {
          "internalType": "uint256",
          "name": "amount",
          "type": "uint256"
        }
      ],
      "name": "addLiquidity",
      "outputs": [],
      "stateMutability": "payable",
      "type": "function"
    },
    {
      "inputs": [
        {
          "internalType": "uint256",
          "name": "poolId",
          "type": "uint256"
        },
        {
          "internalType": "address",
          "name": "user",
          "type": "address"
        }
      ],
      "name": "addToWhitelist",
      "outputs": [],
      "stateMutability": "nonpayable",
      "type": "function"
    },
    {
      "inputs": [
        {
          "internalType": "address",
          "name": "user",
          "type": "address"
        }
      ],
      "name": "adjustedFeeRate",
      "outputs": [
        {
          "internalType": "uint256",
          "name": "",
          "type": "uint256"
        }
      ],
      "stateMutability": "view",
      "type": "function"
    },
    {
      "inputs": [],
      "name": "arbitrationTimeout",
      "outputs": [
        {
          "internalType": "uint256",
          "name": "",
          "type": "uint256"
        }
      ],
      "stateMutability": "view",
      "type": "function"
    },
    {
      "inputs": [],
      "name": "bettingGracePeriod",
      "outputs": [
        {
          "internalType": "uint256",
          "name": "",
          "type": "uint256"
        }
      ],
      "stateMutability": "view",
      "type": "function"
    },
    {
      "inputs": [
        {
          "internalType": "uint256",
          "name": "",
          "type": "uint256"
        },
        {
          "internalType": "address",
          "name": "",
          "type": "address"
        }
      ],
      "name": "bettorStakes",
      "outputs": [
        {
          "internalType": "uint256",
          "name": "",
          "type": "uint256"
        }
      ],
      "stateMutability": "view",
      "type": "function"
    },
    {
      "inputs": [],
      "name": "bitrToken",
      "outputs": [
        {
          "internalType": "contract IERC20",
          "name": "",
          "type": "address"
        }
      ],
      "stateMutability": "view",
      "type": "function"
    },
    {
      "inputs": [],
      "name": "boostSystem",
      "outputs": [
        {
          "internalType": "contract IBitredictBoostSystem",
          "name": "",
          "type": "address"
        }
      ],
      "stateMutability": "view",
      "type": "function"
    },
    {
      "inputs": [
        {
          "internalType": "bytes32",
          "name": "",
          "type": "bytes32"
        },
        {
          "internalType": "uint256",
          "name": "",
          "type": "uint256"
        }
      ],
      "name": "categoryPools",
      "outputs": [
        {
          "internalType": "uint256",
          "name": "",
          "type": "uint256"
        }
      ],
      "stateMutability": "view",
      "type": "function"
    },
    {
      "inputs": [
        {
          "internalType": "bytes32",
          "name": "",
          "type": "bytes32"
        }
      ],
      "name": "categoryStats",
      "outputs": [
        {
          "internalType": "uint256",
          "name": "totalPools",
          "type": "uint256"
        },
        {
          "internalType": "uint256",
          "name": "totalVolume",
          "type": "uint256"
        },
        {
          "internalType": "uint256",
          "name": "averageOdds",
          "type": "uint256"
        },
        {
          "internalType": "uint256",
          "name": "lastActivityTime",
          "type": "uint256"
        }
      ],
      "stateMutability": "view",
      "type": "function"
    },
    {
      "inputs": [
        {
          "internalType": "uint256",
          "name": "poolId",
          "type": "uint256"
        }
      ],
      "name": "claim",
      "outputs": [],
      "stateMutability": "nonpayable",
      "type": "function"
    },
    {
      "inputs": [
        {
          "internalType": "uint256",
          "name": "",
          "type": "uint256"
        },
        {
          "internalType": "address",
          "name": "",
          "type": "address"
        }
      ],
      "name": "claimed",
      "outputs": [
        {
          "internalType": "bool",
          "name": "",
          "type": "bool"
        }
      ],
      "stateMutability": "view",
      "type": "function"
    },
    {
      "inputs": [
        {
          "internalType": "bytes32",
          "name": "_predictedOutcome",
          "type": "bytes32"
        },
        {
          "internalType": "uint256",
          "name": "_odds",
          "type": "uint256"
        },
        {
          "internalType": "uint256",
          "name": "_creatorStake",
          "type": "uint256"
        },
        {
          "internalType": "uint256",
          "name": "_eventStartTime",
          "type": "uint256"
        },
        {
          "internalType": "uint256",
          "name": "_eventEndTime",
          "type": "uint256"
        },
        {
          "internalType": "bytes32",
          "name": "_leagueHash",
          "type": "bytes32"
        },
        {
          "internalType": "bytes32",
          "name": "_categoryHash",
          "type": "bytes32"
        },
        {
          "internalType": "bytes32",
          "name": "_regionHash",
          "type": "bytes32"
        },
        {
          "internalType": "bytes32",
          "name": "_homeTeamHash",
          "type": "bytes32"
        },
        {
          "internalType": "bytes32",
          "name": "_awayTeamHash",
          "type": "bytes32"
        },
        {
          "internalType": "bytes32",
          "name": "_titleHash",
          "type": "bytes32"
        },
        {
          "internalType": "bool",
          "name": "_isPrivate",
          "type": "bool"
        },
        {
          "internalType": "uint256",
          "name": "_maxBetPerUser",
          "type": "uint256"
        },
        {
          "internalType": "bool",
          "name": "_useBitr",
          "type": "bool"
        },
        {
          "internalType": "enum OracleType",
          "name": "_oracleType",
          "type": "uint8"
        },
        {
          "internalType": "bytes32",
          "name": "_marketId",
          "type": "bytes32"
        },
        {
          "internalType": "enum MarketType",
          "name": "_marketType",
          "type": "uint8"
        }
      ],
      "name": "createPool",
      "outputs": [
        {
          "internalType": "uint256",
          "name": "",
          "type": "uint256"
        }
      ],
      "stateMutability": "payable",
      "type": "function"
    },
    {
      "inputs": [
        {
          "internalType": "bytes32",
          "name": "_predictedOutcome",
          "type": "bytes32"
        },
        {
          "internalType": "uint256",
          "name": "_odds",
          "type": "uint256"
        },
        {
          "internalType": "uint256",
          "name": "_creatorStake",
          "type": "uint256"
        },
        {
          "internalType": "uint256",
          "name": "_eventStartTime",
          "type": "uint256"
        },
        {
          "internalType": "uint256",
          "name": "_eventEndTime",
          "type": "uint256"
        },
        {
          "internalType": "bytes32",
          "name": "_leagueHash",
          "type": "bytes32"
        },
        {
          "internalType": "bytes32",
          "name": "_categoryHash",
          "type": "bytes32"
        },
        {
          "internalType": "bytes32",
          "name": "_regionHash",
          "type": "bytes32"
        },
        {
          "internalType": "bytes32",
          "name": "_homeTeamHash",
          "type": "bytes32"
        },
        {
          "internalType": "bytes32",
          "name": "_awayTeamHash",
          "type": "bytes32"
        },
        {
          "internalType": "bytes32",
          "name": "_titleHash",
          "type": "bytes32"
        },
        {
          "internalType": "bool",
          "name": "_isPrivate",
          "type": "bool"
        },
        {
          "internalType": "uint256",
          "name": "_maxBetPerUser",
          "type": "uint256"
        },
        {
          "internalType": "bool",
          "name": "_useBitr",
          "type": "bool"
        },
        {
          "internalType": "enum OracleType",
          "name": "_oracleType",
          "type": "uint8"
        },
        {
          "internalType": "bytes32",
          "name": "_marketId",
          "type": "bytes32"
        },
        {
          "internalType": "enum MarketType",
          "name": "_marketType",
          "type": "uint8"
        }
      ],
      "name": "createPoolLightweight",
      "outputs": [
        {
          "internalType": "uint256",
          "name": "",
          "type": "uint256"
        }
      ],
      "stateMutability": "payable",
      "type": "function"
    },
    {
      "inputs": [],
      "name": "creationFeeBITR",
      "outputs": [
        {
          "internalType": "uint256",
          "name": "",
          "type": "uint256"
        }
      ],
      "stateMutability": "view",
      "type": "function"
    },
    {
      "inputs": [],
      "name": "creationFeeSTT",
      "outputs": [
        {
          "internalType": "uint256",
          "name": "",
          "type": "uint256"
        }
      ],
      "stateMutability": "view",
      "type": "function"
    },
    {
      "inputs": [
        {
          "internalType": "address",
          "name": "",
          "type": "address"
        },
        {
          "internalType": "uint256",
          "name": "",
          "type": "uint256"
        }
      ],
      "name": "creatorActivePools",
      "outputs": [
        {
          "internalType": "uint256",
          "name": "",
          "type": "uint256"
        }
      ],
      "stateMutability": "view",
      "type": "function"
    },
    {
      "inputs": [
        {
          "internalType": "address",
          "name": "",
          "type": "address"
        }
      ],
      "name": "creatorStats",
      "outputs": [
        {
          "internalType": "uint256",
          "name": "totalPoolsCreated",
          "type": "uint256"
        },
        {
          "internalType": "uint256",
          "name": "successfulPools",
          "type": "uint256"
        },
        {
          "internalType": "uint256",
          "name": "totalVolumeGenerated",
          "type": "uint256"
        },
        {
          "internalType": "uint256",
          "name": "averagePoolSize",
          "type": "uint256"
        },
        {
          "internalType": "uint256",
          "name": "reputationScore",
          "type": "uint256"
        },
        {
          "internalType": "uint256",
          "name": "winRate",
          "type": "uint256"
        },
        {
          "internalType": "uint256",
          "name": "totalEarnings",
          "type": "uint256"
        },
        {
          "internalType": "uint256",
          "name": "activePoolsCount",
          "type": "uint256"
        }
      ],
      "stateMutability": "view",
      "type": "function"
    },
    {
      "inputs": [
        {
          "internalType": "address",
          "name": "stakingContract",
          "type": "address"
        }
      ],
      "name": "distributeFees",
      "outputs": [],
      "stateMutability": "nonpayable",
      "type": "function"
    },
    {
      "inputs": [],
      "name": "feeCollector",
      "outputs": [
        {
          "internalType": "address",
          "name": "",
          "type": "address"
        }
      ],
      "stateMutability": "view",
      "type": "function"
    },
    {
      "inputs": [],
      "name": "getActivePools",
      "outputs": [
        {
          "internalType": "uint256[]",
          "name": "",
          "type": "uint256[]"
        }
      ],
      "stateMutability": "view",
      "type": "function"
    },
    {
      "inputs": [
        {
          "internalType": "bytes32",
          "name": "categoryHash",
          "type": "bytes32"
        }
      ],
      "name": "getCategoryStats",
      "outputs": [
        {
          "components": [
            {
              "internalType": "uint256",
              "name": "totalPools",
              "type": "uint256"
            },
            {
              "internalType": "uint256",
              "name": "totalVolume",
              "type": "uint256"
            },
            {
              "internalType": "uint256",
              "name": "averageOdds",
              "type": "uint256"
            },
            {
              "internalType": "uint256",
              "name": "lastActivityTime",
              "type": "uint256"
            }
          ],
          "internalType": "struct BitredictPoolCore.CategoryStats",
          "name": "",
          "type": "tuple"
        }
      ],
      "stateMutability": "view",
      "type": "function"
    },
    {
      "inputs": [
        {
          "internalType": "address",
          "name": "creator",
          "type": "address"
        }
      ],
      "name": "getCreatorStats",
      "outputs": [
        {
          "components": [
            {
              "internalType": "uint256",
              "name": "totalPoolsCreated",
              "type": "uint256"
            },
            {
              "internalType": "uint256",
              "name": "successfulPools",
              "type": "uint256"
            },
            {
              "internalType": "uint256",
              "name": "totalVolumeGenerated",
              "type": "uint256"
            },
            {
              "internalType": "uint256",
              "name": "averagePoolSize",
              "type": "uint256"
            },
            {
              "internalType": "uint256",
              "name": "reputationScore",
              "type": "uint256"
            },
            {
              "internalType": "uint256",
              "name": "winRate",
              "type": "uint256"
            },
            {
              "internalType": "uint256",
              "name": "totalEarnings",
              "type": "uint256"
            },
            {
              "internalType": "uint256",
              "name": "activePoolsCount",
              "type": "uint256"
            }
          ],
          "internalType": "struct BitredictPoolCore.CreatorStats",
          "name": "",
          "type": "tuple"
        }
      ],
      "stateMutability": "view",
      "type": "function"
    },
    {
      "inputs": [],
      "name": "getGlobalStats",
      "outputs": [
        {
          "components": [
            {
              "internalType": "uint256",
              "name": "totalPools",
              "type": "uint256"
            },
            {
              "internalType": "uint256",
              "name": "totalVolume",
              "type": "uint256"
            },
            {
              "internalType": "uint256",
              "name": "totalUsers",
              "type": "uint256"
            },
            {
              "internalType": "uint256",
              "name": "totalBets",
              "type": "uint256"
            },
            {
              "internalType": "uint256",
              "name": "averagePoolSize",
              "type": "uint256"
            },
            {
              "internalType": "uint256",
              "name": "lastUpdated",
              "type": "uint256"
            }
          ],
          "internalType": "struct BitredictPoolCore.GlobalStats",
          "name": "",
          "type": "tuple"
        }
      ],
      "stateMutability": "view",
      "type": "function"
    },
    {
      "inputs": [
        {
          "internalType": "uint256",
          "name": "poolId",
          "type": "uint256"
        }
      ],
      "name": "getPool",
      "outputs": [
        {
          "components": [
            {
              "internalType": "address",
              "name": "creator",
              "type": "address"
            },
            {
              "internalType": "uint16",
              "name": "odds",
              "type": "uint16"
            },
            {
              "internalType": "uint8",
              "name": "flags",
              "type": "uint8"
            },
            {
              "internalType": "enum OracleType",
              "name": "oracleType",
              "type": "uint8"
            },
            {
              "internalType": "uint8",
              "name": "reserved",
              "type": "uint8"
            },
            {
              "internalType": "uint256",
              "name": "creatorStake",
              "type": "uint256"
            },
            {
              "internalType": "uint256",
              "name": "totalCreatorSideStake",
              "type": "uint256"
            },
            {
              "internalType": "uint256",
              "name": "maxBettorStake",
              "type": "uint256"
            },
            {
              "internalType": "uint256",
              "name": "totalBettorStake",
              "type": "uint256"
            },
            {
              "internalType": "bytes32",
              "name": "predictedOutcome",
              "type": "bytes32"
            },
            {
              "internalType": "bytes32",
              "name": "result",
              "type": "bytes32"
            },
            {
              "internalType": "bytes32",
              "name": "marketId",
              "type": "bytes32"
            },
            {
              "internalType": "uint256",
              "name": "eventStartTime",
              "type": "uint256"
            },
            {
              "internalType": "uint256",
              "name": "eventEndTime",
              "type": "uint256"
            },
            {
              "internalType": "uint256",
              "name": "bettingEndTime",
              "type": "uint256"
            },
            {
              "internalType": "uint256",
              "name": "resultTimestamp",
              "type": "uint256"
            },
            {
              "internalType": "uint256",
              "name": "arbitrationDeadline",
              "type": "uint256"
            },
            {
              "internalType": "bytes32",
              "name": "league",
              "type": "bytes32"
            },
            {
              "internalType": "bytes32",
              "name": "category",
              "type": "bytes32"
            },
            {
              "internalType": "bytes32",
              "name": "region",
              "type": "bytes32"
            },
            {
              "internalType": "bytes32",
              "name": "homeTeam",
              "type": "bytes32"
            },
            {
              "internalType": "bytes32",
              "name": "awayTeam",
              "type": "bytes32"
            },
            {
              "internalType": "bytes32",
              "name": "title",
              "type": "bytes32"
            },
            {
              "internalType": "uint256",
              "name": "maxBetPerUser",
              "type": "uint256"
            }
          ],
          "internalType": "struct BitredictPoolCore.Pool",
          "name": "",
          "type": "tuple"
        }
      ],
      "stateMutability": "view",
      "type": "function"
    },
    {
      "inputs": [
        {
          "internalType": "uint256",
          "name": "poolId",
          "type": "uint256"
        }
      ],
      "name": "getPoolAnalytics",
      "outputs": [
        {
          "components": [
            {
              "internalType": "uint256",
              "name": "totalVolume",
              "type": "uint256"
            },
            {
              "internalType": "uint256",
              "name": "participantCount",
              "type": "uint256"
            },
            {
              "internalType": "uint256",
              "name": "averageBetSize",
              "type": "uint256"
            },
            {
              "internalType": "uint256",
              "name": "creatorReputation",
              "type": "uint256"
            },
            {
              "internalType": "uint256",
              "name": "liquidityRatio",
              "type": "uint256"
            },
            {
              "internalType": "uint256",
              "name": "timeToFill",
              "type": "uint256"
            },
            {
              "internalType": "bool",
              "name": "isHotPool",
              "type": "bool"
            },
            {
              "internalType": "uint256",
              "name": "fillPercentage",
              "type": "uint256"
            },
            {
              "internalType": "uint256",
              "name": "lastActivityTime",
              "type": "uint256"
            }
          ],
          "internalType": "struct BitredictPoolCore.PoolAnalytics",
          "name": "",
          "type": "tuple"
        }
      ],
      "stateMutability": "view",
      "type": "function"
    },
    {
      "inputs": [
        {
          "internalType": "bytes32",
          "name": "categoryHash",
          "type": "bytes32"
        }
      ],
      "name": "getPoolsByCategory",
      "outputs": [
        {
          "internalType": "uint256[]",
          "name": "",
          "type": "uint256[]"
        }
      ],
      "stateMutability": "view",
      "type": "function"
    },
    {
      "inputs": [
        {
          "internalType": "address",
          "name": "creator",
          "type": "address"
        }
      ],
      "name": "getPoolsByCreator",
      "outputs": [
        {
          "internalType": "uint256[]",
          "name": "",
          "type": "uint256[]"
        }
      ],
      "stateMutability": "view",
      "type": "function"
    },
    {
      "inputs": [
        {
          "internalType": "uint256",
          "name": "limit",
          "type": "uint256"
        }
      ],
      "name": "getTopCreators",
      "outputs": [
        {
          "internalType": "address[]",
          "name": "creators",
          "type": "address[]"
        },
        {
          "internalType": "uint256[]",
          "name": "volumes",
          "type": "uint256[]"
        }
      ],
      "stateMutability": "pure",
      "type": "function"
    },
    {
      "inputs": [],
      "name": "globalStats",
      "outputs": [
        {
          "internalType": "uint256",
          "name": "totalPools",
          "type": "uint256"
        },
        {
          "internalType": "uint256",
          "name": "totalVolume",
          "type": "uint256"
        },
        {
          "internalType": "uint256",
          "name": "totalUsers",
          "type": "uint256"
        },
        {
          "internalType": "uint256",
          "name": "totalBets",
          "type": "uint256"
        },
        {
          "internalType": "uint256",
          "name": "averagePoolSize",
          "type": "uint256"
        },
        {
          "internalType": "uint256",
          "name": "lastUpdated",
          "type": "uint256"
        }
      ],
      "stateMutability": "view",
      "type": "function"
    },
    {
      "inputs": [],
      "name": "guidedOracle",
      "outputs": [
        {
          "internalType": "address",
          "name": "",
          "type": "address"
        }
      ],
      "stateMutability": "view",
      "type": "function"
    },
    {
      "inputs": [
        {
          "internalType": "address",
          "name": "",
          "type": "address"
        }
      ],
      "name": "longestStreak",
      "outputs": [
        {
          "internalType": "uint256",
          "name": "",
          "type": "uint256"
        }
      ],
      "stateMutability": "view",
      "type": "function"
    },
    {
      "inputs": [
        {
          "internalType": "uint256",
          "name": "",
          "type": "uint256"
        },
        {
          "internalType": "address",
          "name": "",
          "type": "address"
        }
      ],
      "name": "lpStakes",
      "outputs": [
        {
          "internalType": "uint256",
          "name": "",
          "type": "uint256"
        }
      ],
      "stateMutability": "view",
      "type": "function"
    },
    {
      "inputs": [],
      "name": "minBetAmount",
      "outputs": [
        {
          "internalType": "uint256",
          "name": "",
          "type": "uint256"
        }
      ],
      "stateMutability": "view",
      "type": "function"
    },
    {
      "inputs": [],
      "name": "minPoolStakeBITR",
      "outputs": [
        {
          "internalType": "uint256",
          "name": "",
          "type": "uint256"
        }
      ],
      "stateMutability": "view",
      "type": "function"
    },
    {
      "inputs": [],
      "name": "minPoolStakeSTT",
      "outputs": [
        {
          "internalType": "uint256",
          "name": "",
          "type": "uint256"
        }
      ],
      "stateMutability": "view",
      "type": "function"
    },
    {
      "inputs": [],
      "name": "optimisticOracle",
      "outputs": [
        {
          "internalType": "address",
          "name": "",
          "type": "address"
        }
      ],
      "stateMutability": "view",
      "type": "function"
    },
    {
      "inputs": [],
      "name": "owner",
      "outputs": [
        {
          "internalType": "address",
          "name": "",
          "type": "address"
        }
      ],
      "stateMutability": "view",
      "type": "function"
    },
    {
      "inputs": [
        {
          "internalType": "uint256",
          "name": "poolId",
          "type": "uint256"
        },
        {
          "internalType": "uint256",
          "name": "amount",
          "type": "uint256"
        }
      ],
      "name": "placeBet",
      "outputs": [],
      "stateMutability": "payable",
      "type": "function"
    },
    {
      "inputs": [],
      "name": "platformFee",
      "outputs": [
        {
          "internalType": "uint256",
          "name": "",
          "type": "uint256"
        }
      ],
      "stateMutability": "view",
      "type": "function"
    },
    {
      "inputs": [
        {
          "internalType": "uint256",
          "name": "",
          "type": "uint256"
        }
      ],
      "name": "poolAnalytics",
      "outputs": [
        {
          "internalType": "uint256",
          "name": "totalVolume",
          "type": "uint256"
        },
        {
          "internalType": "uint256",
          "name": "participantCount",
          "type": "uint256"
        },
        {
          "internalType": "uint256",
          "name": "averageBetSize",
          "type": "uint256"
        },
        {
          "internalType": "uint256",
          "name": "creatorReputation",
          "type": "uint256"
        },
        {
          "internalType": "uint256",
          "name": "liquidityRatio",
          "type": "uint256"
        },
        {
          "internalType": "uint256",
          "name": "timeToFill",
          "type": "uint256"
        },
        {
          "internalType": "bool",
          "name": "isHotPool",
          "type": "bool"
        },
        {
          "internalType": "uint256",
          "name": "fillPercentage",
          "type": "uint256"
        },
        {
          "internalType": "uint256",
          "name": "lastActivityTime",
          "type": "uint256"
        }
      ],
      "stateMutability": "view",
      "type": "function"
    },
    {
      "inputs": [
        {
          "internalType": "uint256",
          "name": "",
          "type": "uint256"
        },
        {
          "internalType": "uint256",
          "name": "",
          "type": "uint256"
        }
      ],
      "name": "poolBettors",
      "outputs": [
        {
          "internalType": "address",
          "name": "",
          "type": "address"
        }
      ],
      "stateMutability": "view",
      "type": "function"
    },
    {
      "inputs": [],
      "name": "poolCount",
      "outputs": [
        {
          "internalType": "uint256",
          "name": "",
          "type": "uint256"
        }
      ],
      "stateMutability": "view",
      "type": "function"
    },
    {
      "inputs": [
        {
          "internalType": "uint256",
          "name": "poolId",
          "type": "uint256"
        }
      ],
      "name": "poolExists",
      "outputs": [
        {
          "internalType": "bool",
          "name": "",
          "type": "bool"
        }
      ],
      "stateMutability": "view",
      "type": "function"
    },
    {
      "inputs": [
        {
          "internalType": "uint256",
          "name": "",
          "type": "uint256"
        }
      ],
      "name": "poolIdToCreatorIndex",
      "outputs": [
        {
          "internalType": "uint256",
          "name": "",
          "type": "uint256"
        }
      ],
      "stateMutability": "view",
      "type": "function"
    },
    {
      "inputs": [
        {
          "internalType": "uint256",
          "name": "",
          "type": "uint256"
        },
        {
          "internalType": "uint256",
          "name": "",
          "type": "uint256"
        }
      ],
      "name": "poolLPs",
      "outputs": [
        {
          "internalType": "address",
          "name": "",
          "type": "address"
        }
      ],
      "stateMutability": "view",
      "type": "function"
    },
    {
      "inputs": [
        {
          "internalType": "uint256",
          "name": "",
          "type": "uint256"
        },
        {
          "internalType": "address",
          "name": "",
          "type": "address"
        }
      ],
      "name": "poolWhitelist",
      "outputs": [
        {
          "internalType": "bool",
          "name": "",
          "type": "bool"
        }
      ],
      "stateMutability": "view",
      "type": "function"
    },
    {
      "inputs": [
        {
          "internalType": "uint256",
          "name": "",
          "type": "uint256"
        }
      ],
      "name": "pools",
      "outputs": [
        {
          "internalType": "address",
          "name": "creator",
          "type": "address"
        },
        {
          "internalType": "uint16",
          "name": "odds",
          "type": "uint16"
        },
        {
          "internalType": "uint8",
          "name": "flags",
          "type": "uint8"
        },
        {
          "internalType": "enum OracleType",
          "name": "oracleType",
          "type": "uint8"
        },
        {
          "internalType": "uint8",
          "name": "reserved",
          "type": "uint8"
        },
        {
          "internalType": "uint256",
          "name": "creatorStake",
          "type": "uint256"
        },
        {
          "internalType": "uint256",
          "name": "totalCreatorSideStake",
          "type": "uint256"
        },
        {
          "internalType": "uint256",
          "name": "maxBettorStake",
          "type": "uint256"
        },
        {
          "internalType": "uint256",
          "name": "totalBettorStake",
          "type": "uint256"
        },
        {
          "internalType": "bytes32",
          "name": "predictedOutcome",
          "type": "bytes32"
        },
        {
          "internalType": "bytes32",
          "name": "result",
          "type": "bytes32"
        },
        {
          "internalType": "bytes32",
          "name": "marketId",
          "type": "bytes32"
        },
        {
          "internalType": "uint256",
          "name": "eventStartTime",
          "type": "uint256"
        },
        {
          "internalType": "uint256",
          "name": "eventEndTime",
          "type": "uint256"
        },
        {
          "internalType": "uint256",
          "name": "bettingEndTime",
          "type": "uint256"
        },
        {
          "internalType": "uint256",
          "name": "resultTimestamp",
          "type": "uint256"
        },
        {
          "internalType": "uint256",
          "name": "arbitrationDeadline",
          "type": "uint256"
        },
        {
          "internalType": "bytes32",
          "name": "league",
          "type": "bytes32"
        },
        {
          "internalType": "bytes32",
          "name": "category",
          "type": "bytes32"
        },
        {
          "internalType": "bytes32",
          "name": "region",
          "type": "bytes32"
        },
        {
          "internalType": "bytes32",
          "name": "homeTeam",
          "type": "bytes32"
        },
        {
          "internalType": "bytes32",
          "name": "awayTeam",
          "type": "bytes32"
        },
        {
          "internalType": "bytes32",
          "name": "title",
          "type": "bytes32"
        },
        {
          "internalType": "uint256",
          "name": "maxBetPerUser",
          "type": "uint256"
        }
      ],
      "stateMutability": "view",
      "type": "function"
    },
    {
      "inputs": [
        {
          "internalType": "address",
          "name": "",
          "type": "address"
        }
      ],
      "name": "predictionStreaks",
      "outputs": [
        {
          "internalType": "uint256",
          "name": "",
          "type": "uint256"
        }
      ],
      "stateMutability": "view",
      "type": "function"
    },
    {
      "inputs": [
        {
          "internalType": "uint256",
          "name": "poolId",
          "type": "uint256"
        }
      ],
      "name": "refundPool",
      "outputs": [],
      "stateMutability": "nonpayable",
      "type": "function"
    },
    {
      "inputs": [
        {
          "internalType": "uint256",
          "name": "poolId",
          "type": "uint256"
        },
        {
          "internalType": "address",
          "name": "user",
          "type": "address"
        }
      ],
      "name": "removeFromWhitelist",
      "outputs": [],
      "stateMutability": "nonpayable",
      "type": "function"
    },
    {
      "inputs": [],
      "name": "renounceOwnership",
      "outputs": [],
      "stateMutability": "nonpayable",
      "type": "function"
    },
    {
      "inputs": [],
      "name": "reputationSystem",
      "outputs": [
        {
          "internalType": "contract IReputationSystem",
          "name": "",
          "type": "address"
        }
      ],
      "stateMutability": "view",
      "type": "function"
    },
    {
      "inputs": [
        {
          "internalType": "address",
          "name": "_boostSystem",
          "type": "address"
        }
      ],
      "name": "setBoostSystem",
      "outputs": [],
      "stateMutability": "nonpayable",
      "type": "function"
    },
    {
      "inputs": [
        {
          "internalType": "address",
          "name": "_reputationSystem",
          "type": "address"
        }
      ],
      "name": "setReputationSystem",
      "outputs": [],
      "stateMutability": "nonpayable",
      "type": "function"
    },
    {
      "inputs": [
        {
          "internalType": "uint256",
          "name": "poolId",
          "type": "uint256"
        },
        {
          "internalType": "bytes32",
          "name": "outcome",
          "type": "bytes32"
        }
      ],
      "name": "settlePool",
      "outputs": [],
      "stateMutability": "nonpayable",
      "type": "function"
    },
    {
      "inputs": [
        {
          "internalType": "uint256",
          "name": "poolId",
          "type": "uint256"
        }
      ],
      "name": "settlePoolAutomatically",
      "outputs": [],
      "stateMutability": "nonpayable",
      "type": "function"
    },
    {
      "inputs": [
        {
          "internalType": "address",
          "name": "",
          "type": "address"
        }
      ],
      "name": "streakMultiplier",
      "outputs": [
        {
          "internalType": "uint256",
          "name": "",
          "type": "uint256"
        }
      ],
      "stateMutability": "view",
      "type": "function"
    },
    {
      "inputs": [],
      "name": "totalCollectedBITR",
      "outputs": [
        {
          "internalType": "uint256",
          "name": "",
          "type": "uint256"
        }
      ],
      "stateMutability": "view",
      "type": "function"
    },
    {
      "inputs": [],
      "name": "totalCollectedSTT",
      "outputs": [
        {
          "internalType": "uint256",
          "name": "",
          "type": "uint256"
        }
      ],
      "stateMutability": "view",
      "type": "function"
    },
    {
      "inputs": [
        {
          "internalType": "address",
          "name": "newOwner",
          "type": "address"
        }
      ],
      "name": "transferOwnership",
      "outputs": [],
      "stateMutability": "nonpayable",
      "type": "function"
    },
    {
      "inputs": [
        {
          "internalType": "address",
          "name": "user",
          "type": "address"
        },
        {
          "internalType": "bool",
          "name": "won",
          "type": "bool"
        }
      ],
      "name": "updateStreak",
      "outputs": [],
      "stateMutability": "nonpayable",
      "type": "function"
    }
  ],
  "bytecode": "0x60e0346200014c57601f620055e438819003918201601f19168301916001600160401b0383118484101762000151578084926080946040528339810103126200014c576200004d8162000167565b906200005c6020820162000167565b90620000796060620000716040840162000167565b920162000167565b9133156200013357600080546001600160a01b03198082163390811784556040519791936001600160a01b03938416907f8be0079c531659141344cd1fd0a4f28419497f9722a3daafe3b4186f6b6457e09080a3600180551690600254161760025560805260a05260c0524260175561546790816200017d82396080518181816108c70152611cc7015260a05181818161090f0152818161385c0152613ab5015260c05181818161396a015281816139ee0152613c080152f35b604051631e4fbdf760e01b815260006004820152602490fd5b600080fd5b634e487b7160e01b600052604160045260246000fd5b51906001600160a01b03821682036200014c5756fe61034080604052600436101561001457600080fd5b60006102c05260003560e01c90816301b708c21461452f57508063068bcd8d146142d75780630e8a01bc14613db257806310b082f914613d0e578063120aa87714613cbb578063152cdda914613a1d57806322302922146139d5578063237e23be146137e857806326232a2e146103c857806326d84629146136bf5780632d785461146136185780632e24c5871461358d57806331143cee14613545578063325643501461351f578063379607f514613118578063394d9976146130f75780633bdc087c146130865780633e8670ff1461304f5780634afe62b514612a065780634c2809f1146103735780634d7aae78146129df5780635556b676146129a15780635e1871d21461297f5780635e4de6651461292f578063657c183f146129105780636587eda1146128e45780636b4169c3146128225780637024503e1461222e578063715018a6146121df57806384499bb6146121b85780638483c43c146121665780638b4ed235146121365780638da5cb5b1461210c5780638ec083541461202f5780638f63f7481461200e5780639413f25c14611ca35780639cd441da1461179b5780639f82d4721461167b5780639fd482be1461162a578063a12a41cf146115dd578063a695ee38146115b2578063a91379f014610bd5578063aac137d614610bb4578063ab78cc1514610b95578063ac4afa38146109d6578063aedc59811461098a578063c26e797e1461093e578063c3412610146108f6578063c415b95c146108ae578063c6ae0c3b14610870578063c84728ef146107dd578063cd7f99df14610698578063d3d1993d1461060b578063d96d09aa146103c8578063de96303b146105cd578063e4dc4efc14610582578063e843f61c146104dd578063eb6bc08b14610495578063ed51754714610448578063f2fde38b146103cd578063f3baf070146103c8578063f525cb68146103a7578063f6915af514610378578063fa968eea146103735763fea3e613146102f157600080fd5b3461036c57604036600319011261036c5760043561030d61457b565b61031a6003548310614cc6565b816102c05152600860205260018060a01b03916103418360406102c0512054163314615152565b6102c05152600e6020526102c05191604083209116600052602052604060002060ff19815416905580f35b6102c05180fd5b61463c565b3461036c576102c051806003193601126103a4576005546040516001600160a01b039091168152602090f35b80fd5b3461036c576102c051806003193601126103a4576020600354604051908152f35b6145a7565b3461036c57602036600319011261036c576103e6614591565b6103ee6146df565b6001600160a01b0390811690811561042d576000548260018060a01b031982161760005516600080516020615412833981519152600080a36102c05180f35b604051631e4fbdf760e01b81526102c0516004820152602490fd5b3461036c57604036600319011261036c576024356004356102c05152601b6020526102c051604081209081548310156103a4576020610487848461460e565b90546040519160031b1c8152f35b3461036c57602036600319011261036c576104ae614591565b6104b66146df565b600580546001600160a01b0319166001600160a01b03929092169190911790556102c05180f35b3461036c5760208060031936011261036c57600435906104fc826151a0565b9061050a604051928361480d565b82825261052a610519846151a0565b8383019490601f19013686376151b7565b9060405192604084019060408552518091526060840194906102c0515b8181106105655785870384870152858061056189886145c4565b0390f35b82516001600160a01b031687529583019591830191600101610547565b3461036c576102c051806003193601126103a45760c06012546013546014546015546016549160175493604051958652602086015260408501526060840152608083015260a0820152f35b3461036c57602036600319011261036c576001600160a01b036105ee614591565b166102c051526019602052602060406102c0512054604051908152f35b3461036c57602036600319011261036c576004356102c05152601160205261012060406102c0512080549060018101549060028101546003820154600483015460058401549160ff600686015416936008600787015496015496604051988952602089015260408801526060870152608086015260a0850152151560c084015260e0830152610100820152f35b3461036c57602036600319011261036c57610120600435604051906106bc826147f1565b6102c05182526102c05160208301526102c05160408301526102c05160608301526102c05160808301526102c05160a08301526102c05160c08301526102c05160e08301526102c051610100809301526107196003548210614cc6565b6102c05152601160205260406102c0512090604051610737816147f1565b8254928382526001810154602083019081526002820154604084019081526003830154606085019081526004840154906080860191825260058501549260a0870193845260ff6006870154169460c08801951515865288600860078901549860e08b01998a5201549801978852604051998a525160208a01525160408901525160608801525160808701525160a086015251151560c08501525160e08401525190820152f35b3461036c5760208060031936011261036c576001600160a01b036107ff614591565b166102c05152601c815260406102c05120906040518083838295549384815201906102c051526102c05192848420935b8582821061085a575050506108469250038361480d565b6105616040519282849384528301906145c4565b855484526001958601958895509301920161082f565b3461036c57602036600319011261036c576001600160a01b03610891614591565b166102c051526018602052602060406102c0512054604051908152f35b3461036c576102c051806003193601126103a4576040517f00000000000000000000000000000000000000000000000000000000000000006001600160a01b03168152602090f35b3461036c576102c051806003193601126103a4576040517f00000000000000000000000000000000000000000000000000000000000000006001600160a01b03168152602090f35b3461036c57604036600319011261036c5761095761457b565b6004356102c05152600c60205260406102c051209060018060a01b03166000526020526020604060002054604051908152f35b3461036c57604036600319011261036c576109a361457b565b6004356102c05152600a60205260406102c051209060018060a01b03166000526020526020604060002054604051908152f35b3461036c57602036600319011261036c576004356102c0515260086020526013600f600e600d600c600b600a60096008600760066005600460ff600360406102c051209e8f9e8f9e8f9e8f9e8f9e8f9e8f9e8f9e8f9e8f9e8f9e8f9e8f9d8e8061016052549e60018101546103205260028101546102a05201549f01549f01549f01549f01549f01549f01549f01549f01549f01549f01549f01549f01549f601081015460c05260118101546101a0526012810154610120520154610100526040518060a05260018060a01b038216905261ffff8160a01c16602060a0510152818160b01c16604060a0510152610ad7606060a05101838360b81c16614558565b60c01c16608060a05101526103205160a0805101526102a05160c060a051015260e060a051015261010060a051015261012060a051015261014060a051015261016060a051015261018060a05101526101a060a05101526101c060a05101526101e060a051015261020060a051015261022060a051015261024060a051015261026060a051015260c05161028060a05101526101a0516102a060a0510152610120516102c060a0510152610100516102e060a051015261030060a051f35b3461036c576102c051806003193601126103a4576020604051603c8152f35b3461036c576102c051806003193601126103a4576020600654604051908152f35b610bde3661465f565b9e9d94969a91909f97999060809d949d9c93969c526101405261026052610280526102205261018052610c0f614ca3565b60648911806115a6575b610c229061470b565b6004546001600160a01b031680611502575b5080156114e657610c53683635c9adc5dea00000610180511015614972565b610c6c69d3c21bcecceda10000006101805111156149b9565b610c7a4261022051116149f7565b610c8b610220516102805111614a3d565b603c4201421161142c57610ca6603c42016102205111614a96565b80156114d8576802b5e3af16b18800005b610cc46101805182614a89565b9082156114ba576020610cf99260018060a01b036002541660405180809681946323b872dd60e01b8352303360048501614b16565b03916102c051905af191821561136d576102c0519261147a575b50610d20610d2892614b38565b600754614a89565b6007555b8860631981011161142c5760631989011561144657610180518060648102046064148115171561142c57610d68906063198b0190606402614b9b565b9161022051603b1981011161142c57610280516201518081011061142c5760ff916102c05191611423575b61141b575b61ffff6040519a610da88c61476d565b338c521660208b0152166040890152610dc660805160608a01614bbb565b6102c05160808901526101805160a08901526101805160c089015260e08801526102c0516101008801526101208701526102c0516101408701528761016087015261022051610180870152610280516101a0870152603b1961022051016101c08701526102c0516101e087015262015180610280510161020087015261026051610220870152610140516102408701526102608601526102808501526102a08401526102c08301526102e08201526003546102c0515260086020526102c05190604082209160018060a01b0382511683549061ffff60a01b602085015160a01b169160018060b01b03191617178355610ec660ff60408401511684614bc7565b606082015190600282101561140357506013916102e091845460ff60c01b608084015160c01b169160ff60b81b9060b81b169061ffff60b81b19161717845560a0810151600185015560c0810151600285015560e08101516003850155610100810151600485015561012081015160058501556101408101516006850155610160810151600785015561018081015160088501556101a081015160098501556101c0810151600a8501556101e0810151600b850155610200810151600c850155610220810151600d850155610240810151600e850155610260810151600f85015561028081015160108501556102a081015160118501556102c0810151601285015501519101556102c05160018060a01b0360045416806113a8575b50604051610fef816147f1565b610180518152600860208201926001845260408301906101805182526060840190815261108a608085016064815260a086016102c051815260c08701916102c051835260e08801946102c05186526101008901964288526003546102c0515260116020526102c0519a60408c209a518b555160018b01555160028a015551600389015551600488015551600587015551151560068601614be4565b516007840155519101556003549052600b6020526110ae3360406102c05120614bf5565b6003546102c05152600c6020526102c051604081203360005260205261018051604060002055610140519052601b6020526110f260406102c0512060035490614c30565b336102c05152601c60205261111060406102c0512060035490614c30565b336102c05152601c6020526102c051604081205490600019820191821161139057506003546102c05152601d6020526102c051906040822055339052600f60205260406102c05120916111638354614c94565b808455600784016111748154614c94565b90556002840190611189610180518354614a89565b8092558061137b575b50506004546001600160a01b031692836112f9575b5060209250610140516102c051526010835260406102c051206111ca8154614c94565b808255600182016111df610180518254614a89565b809155426003840155816112e2575b5050506111fc601254614c94565b8060125561120f61018051601354614a89565b908160135542601755806112cf575b50506112576003549260405192610220518452610280518685015261124860408501608051614558565b60608401526080830190614c6e565b6102605160a08201526101405160c0820152817fe2092e1dafd36cd4cb06c74190c7ebe2029efcd90a185d581ca9bc661efdbc3660e03393a3806040516000805160206153b28339815191523391806112b4426101805183614c7b565b0390a36112c081614c94565b60035560018055604051908152f35b6112d891614b9b565b601655838061121e565b6002916112ee91614b9b565b9101558380806111ee565b608060249460405195868092634a7a638f60e11b82523360048301525afa90811561136d576020946102c05192611336575b5060040155836111a7565b600491925061135c9060803d608011611366575b611354818361480d565b81019061483d565b505050919061132b565b503d61134a565b6040513d6102c051823e3d90fd5b61138491614b9b565b60038401558380611192565b634e487b7160e01b905260116004526102c051602490fd5b604051634a7a638f60e11b81523360048201529150608090829060249082905afa90811561136d576102c051916113e1575b5083610fe2565b6113fa915060803d60801161136657611354818361480d565b505050836113da565b634e487b7160e01b905260216004526102c051602490fd5b600817610d98565b60049150610d93565b634e487b7160e01b6102c05152601160045260246102c051fd5b60405162461bcd60e51b815260206004820152600c60248201526b496e76616c6964206f64647360a01b6044820152606490fd5b91506020823d82116114b2575b816114946020938361480d565b8101031261036c57610d206114ab610d2893614830565b9250610d13565b3d9150611487565b6114c86114d0923414614ad3565b600654614a89565b600655610d2c565b670de0b6b3a7640000610cb7565b6114fd674563918244f4000061018051101561492c565b610c53565b608060249160405192838092634a7a638f60e11b82523360048301525afa90811561136d576102c051908192611582575b5060026080511015611568576080516001036115595750611553906148d1565b8b610c34565b6115639150614874565b611553565b634e487b7160e01b6102c05152602160045260246102c051fd5b905061159d915060803d60801161136657611354818361480d565b5091508d611533565b50612710891115610c19565b3461036c57602036600319011261036c5760206115d56115d0614591565b615071565b604051908152f35b3461036c57604036600319011261036c576115f6614591565b6024359060018060a01b03166102c05152601c6020526102c051604081209081548310156103a4576020610487848461460e565b3461036c57604036600319011261036c5761164361457b565b6004356102c05152600e60205260406102c051209060018060a01b0316600052602052602060ff604060002054166040519015158152f35b3461036c57602036600319011261036c57611694614591565b6040516116a0816147d5565b6102c05181526102c05160208201526102c05160408201526102c05160608201526102c05160808201526102c05160a08201526102c05160c082015260e06102c05191015260018060a01b03166102c05152600f60205261010060406102c0512060405161170d816147d5565b8154918282526001810154602083019081526002820154604084019081526003830154606085019081526004840154916080860192835260058501549360a0870194855260e0600760068801549760c08a01988952015497019687526040519788525160208801525160408701525160608601525160808501525160a08401525160c08301525160e0820152f35b6117a4366145f8565b906117ad614ca3565b6117ba6003548210614cc6565b806102c0515260206008815260406102c05120906117e06117da84615219565b15614e21565b670de0b6b3a76400008410611c65576969e10de76676d08000008411611c2b5761180f600a8301544210614e5c565b60028201918254851910611bed57836102c05152600c8252836102c0516040812033600052845260406000205415611b94575b5061184c90615232565b611b67575b836102c05152600c8252836102c0516040812033600052845260406000205415611b4b575b506102c05152600c825260406102c05120336000528252604060002061189d868254614a89565b90556118aa858454614a89565b8093556004810154928315938415611b3d575b506102c0519315611b3157925b61ffff825460a01c1690606319820191821161139057506064938481029080820486149015171561142c5760039161190191614b9b565b91015561190d8361524b565b15611b21576002546040516323b872dd60e01b815290829082906001600160a01b031681806119418a303360048501614b16565b03916102c051905af1801561136d576102c05190611aeb575b6119649150614b38565b826000526011815260406000209161197d858454614a89565b808455600184018054914260088701558280611ad6575b505085600052600884526119ab6040600020614d01565b9060e082018051611aa9575b5060c08201918783511515600014611a7a57506101000151848102948186041490151715611a64576000805160206153d283398151915295600a60008051602061537283398151915294611a108a976040965190614b9b565b6004840155101580611a4b575b611a2a9060068301614be4565b549054825191825285820152a26040519384523393a3600180556102c05180f35b50611a2a610e10611a5c4242614b7b565b109050611a1d565b634e487b7160e01b600052601160045260246000fd5b94604093506000805160206153d283398151915297915060008051602061537283398151915294600a91611a10565b61010083015185810290808204871490151715611a6457611acb915190614b9b565b6007870155886119b7565b611adf91614b9b565b60028601558782611994565b508181813d8311611b1a575b611b01818361480d565b8101031261036c57611b1561196491614830565b61195a565b503d611af7565b611b2c843414614ad3565b611964565b506001810154926118ca565b6001830154109350866118bd565b52600b8252611b603360406102c05120614bf5565b8386611876565b836102c05152600e825260406102c05120336000528252611b8f60ff60406000205416614e9f565b611851565b52600b8252606460406102c05120541015611bb0578386611842565b60405162461bcd60e51b8152600481018390526015602482015274546f6f206d616e79204c502070726f76696465727360581b6044820152606490fd5b60405162461bcd60e51b815260048101839052601660248201527543726561746f72207374616b65206f766572666c6f7760501b6044820152606490fd5b6064906040519062461bcd60e51b8252600482015260136024820152724c697175696469747920746f6f206c6172676560681b6044820152fd5b6064906040519062461bcd60e51b8252600482015260176024820152764c69717569646974792062656c6f77206d696e696d756d60481b6044820152fd5b3461036c5760208060031936011261036c57611cbd614591565b6001600160a01b037f000000000000000000000000000000000000000000000000000000000000000081811693929133859003611fd4576006549260075495841593849182159081611edd575b5088159788159283611dcd575b505091611dc5575b50611d2c575b6102c05180f35b1692601e8502948504601e14171561142c57601e8202918204601e14171561142c57813b1561036c576064908160405194633d6bcfaf60e11b8652046004850152046024830152816044816102c05180945af1801561136d57611d94575b8080808080611d25565b6001600160401b038111611dab5760405280611d8a565b634e487b7160e01b6102c05152604160045260246102c051fd5b905087611d1f565b909350601e8a028a8104601e148a171561142c576064611e1e91046102c051600755858c611e00838b6002541692614b7b565b90604051808096819463a9059cbb60e01b998a845260048401615056565b03916102c051905af191821561136d578692611ea4575b50611e559288600254169060405180958194829383528b60048401615056565b03916102c051905af193841561136d57879415611d175790809450813d8311611e9d575b611e83818361480d565b8101031261036c57611e958693614830565b508980611d17565b503d611e79565b9182813d8311611ed6575b611eb9818361480d565b8101031261036c57611e5592611ecf8793614830565b5092611e35565b503d611eaf565b90919250601e8702878104601e1487171561142c5760649004906102c0518080809381600655611f0d868d614b7b565b905af1611f18615026565b5015611f85576102c051808080938888165af1611f33615026565b5015611f425790849189611d0a565b60405162461bcd60e51b815260048101889052601b60248201527a14d515081cdd185ada5b99c81d1c985b9cd9995c8819985a5b1959602a1b6044820152606490fd5b60405162461bcd60e51b815260048101899052602160248201527f5354542066656520636f6c6c6563746f72207472616e73666572206661696c656044820152601960fa1b6064820152608490fd5b60405162461bcd60e51b815260048101859052601260248201527127b7363c903332b29031b7b63632b1ba37b960711b6044820152606490fd5b3461036c576102c051806003193601126103a4576020600754604051908152f35b3461036c576102c051806003193601126103a45760035461204f816151b7565b906102c05190815b8181106120b0575050612069816151b7565b916102c0515b82811061208c5760405160208082528190610561908201876145c4565b8061209a6120ab928461518c565b516120a5828761518c565b52614c94565b61206f565b6120b981615219565b15806120ee575b6120d3575b6120ce90614c94565b612057565b916120e681846120a56120ce948861518c565b9290506120c5565b50806102c051526008602052600a60406102c05120015442106120c0565b3461036c576102c051806003193601126103a457546040516001600160a01b039091168152602090f35b3461036c57602036600319011261036c576004356102c05152601d602052602060406102c0512054604051908152f35b3461036c57602036600319011261036c576004356102c051526010602052608060406102c051208054906001810154906003600282015491015491604051938452602084015260408301526060820152f35b3461036c576102c051806003193601126103a45760206040516802b5e3af16b18800008152f35b3461036c576102c051806003193601126103a4576121fb6146df565b6102c05180546001600160a01b03198116825581906001600160a01b03166000805160206154128339815191528280a380f35b6122373661465f565b9e9f9799916102e09e969c949d95979b93919e526101e052610300526101c0526102005260e0526102405261226a614ca3565b60648a1180612816575b61227d9061470b565b6004546001600160a01b03168061278b575b506101e0511561276f576122b1683635c9adc5dea00000610240511015614972565b6122ca69d3c21bcecceda10000006102405111156149b9565b6122d74260e051116149f7565b6122e760e0516102005111614a3d565b603c4201421161142c57612301603c420160e05111614a96565b6101e0511561275e576123226802b5e3af16b18800005b6102405190614a89565b6101e0511561271c57346126d757602061235e9160018060a01b036002541660405180809581946323b872dd60e01b8352303360048501614b16565b03916102c051905af1801561136d576102c0519061269d575b6123819150614b38565b6102c051908190612694575b6101e05161268a575b60e051603b198101116113905750610200516201518081011061142c5760ff9061ffff6040519b6123c68d61476d565b338d521660208c01521660408a01526123e56102e05160608b01614bbb565b6102c05160808a01526102405160a08a01526102405160c08a01526102c05160e08a01526102c0516101008a01526101208901526102c0516101408901528561016089015260e051610180890152610200516101a0890152603b1960e051016101c08901526102c0516101e08901526201518061020051016102008901526101c051610220890152610300516102408901526102608801526102808701526102a08601526102c08501526102e08401526003546102c0515260086020526102c051604081209060018060a01b0385511682549061ffff60a01b602088015160a01b169160018060b01b031916171782556124e660ff60408701511683614bc7565b606085015190600282101561140357506102e0602095601392845460ff60c01b608084015160c01b169160ff60b81b9060b81b169061ffff60b81b19161717845560a0810151600185015560c0810151600285015560e08101516003850155610100810151600485015561012081015160058501556101408101516006850155610160810151600785015561018081015160088501556101a081015160098501556101c0810151600a8501556101e0810151600b850155610200810151600c850155610220810151600d850155610240810151600e850155610260810151600f85015561028081015160108501556102a081015160118501556102c081015160128501550151910155612617600354926040519260e05184526102005186850152611248604085016102e051614558565b6101c05160a08201526103005160c08201526102405160e08201526101e0511515610100820152817fad42940de1c9efa740e77303242a2bf85df197bb6211f378b732b579d515fea76101203393a3806040516000805160206153b28339815191523391806112b4426102405183614c7b565b9060021790612396565b6001915061238d565b506020813d82116126cf575b816126b66020938361480d565b8101031261036c576126ca61238191614830565b612377565b3d91506126a9565b60405162461bcd60e51b815260206004820152601d60248201527f4e6f20455448207061796d656e7420666f72204249545220706f6f6c730000006044820152606490fd5b34146123815760405162461bcd60e51b815260206004820152601460248201527308aa89040e0c2f2dacadce840dad2e6dac2e8c6d60631b6044820152606490fd5b612322670de0b6b3a7640000612318565b612786674563918244f4000061024051101561492c565b6122b1565b608060249160405192838092634a7a638f60e11b82523360048301525afa90811561136d576102c0519081926127f3575b5060026102e0511015611568576102e0516001036127e457506127de906148d1565b8a61228f565b6127ee9150614874565b6127de565b905061280d915060803d811161136657611354818361480d565b5091508c6127bc565b506127108a1115612274565b3461036c576102c051806003193601126103a457604051612842816147ba565b6102c05181526102c05160208201526102c05160408201526102c05160608201526102c051608082015260a06102c05191015260c0604051612883816147ba565b6012549081815260135460208201908152601454604083019081526015549060608401918252601654926080850193845260a060175495019485526040519586525160208601525160408501525160608401525160808301525160a0820152f35b3461036c576102c051806003193601126103a4576004546040516001600160a01b039091168152602090f35b3461036c576102c051806003193601126103a457602060405160648152f35b3461036c5761293d366145f8565b906102c05152600b6020526102c051604081209081548310156103a4576020612966848461460e565b905460405160039290921b1c6001600160a01b03168152f35b3461036c57602036600319011261036c57602060035460043510604051908152f35b3461036c57602036600319011261036c576001600160a01b036129c2614591565b166102c05152601a602052602060406102c0512054604051908152f35b3461036c576102c051806003193601126103a4576020604051683635c9adc5dea000008152f35b612a0f366145f8565b90612a18614ca3565b612a256003548210614cc6565b806102c0515260206008815260406102c05120612a4181614d01565b90612a4e6117da85615219565b670de0b6b3a764000085106130165769152d02c7e14af68000008511612fe157612a7e6101c08301514210614e5c565b6101009182810190815192878415948515612fc8575b50506102c0519315612fbe5760c08201515b61ffff8784015116606495868302928084048814901517156113905750606319810190811161142c57612ad891614b9b565b9283612ae58a8351614a89565b11612f8e57908888949392856102c05152600a89526102c051604081209033905289526102c05160408120549081159081612f25575b50612b2588615232565b612ef5575b6102e086018051612e8f575b5083612b71949392612b4b92612e7057614a89565b876102c05152600a8b526102c05160408120903390528b5260406102c051205551614a89565b6004820193818555806003840155856102c05152600889526102c051916010604084205460b01c16159283612e3c575b505050612ded575b505050612bb59061524b565b15612ddd576002546040516323b872dd60e01b815290849082906001600160a01b03168180612be98b303360048501614b16565b03916102c051905af1801561136d576102c05190612da7575b612c0c9150614b38565b836102c051526011835260406102c0512090612c29868354614a89565b9081835560018301938454926001840180941161142c578386554260088601558380612d92575b5050866102c0515260088652612c6b60406102c05120614d01565b60e081018051612d67575b5060c08101918251151591896102c05193600014612d42575001518381029381850414901517156113905750938693600a60008051602061537283398151915294612cc860409560019a995190614b9b565b6004840155101580612d29575b612ce29060068301614be4565b549054825191825285820152a26040519384528301527fb1bd10cf5ea9540f12b9b182707734fd82deacc56830e2bd316133deb372bff460403393a3600180556102c05180f35b50612ce2610e10612d3a4242614b7b565b109050612cd5565b9692505050600196959150600a60008051602061537283398151915294604094612cc8565b828201518481029080820486149015171561142c57612d87915190614b9b565b600786015589612c76565b612d9b91614b9b565b60028501558883612c50565b508381813d8311612dd6575b612dbd818361480d565b8101031261036c57612dd1612c0c91614830565b612c02565b503d612db3565b612de8853414614ad3565b612c0c565b6000805160206153b283398151915291612e1482601060ff6060955460b01c161790614bc7565b60018060a01b039051169254604051906005825288820152426040820152a383868080612ba9565b9193949596509150868202918083048814901517156113905750612e668995949392603c92614b9b565b10158a8080612ba1565b896102c0515260098d52612e8a3360406102c05120614bf5565b614a89565b9193612ea19193959697985084614a89565b905110612eb657918a918a969594938d612b36565b60405162461bcd60e51b8152600481018a9052601860248201527722bc31b2b2b2399036b0bc103132ba103832b9103ab9b2b960411b60448201528790fd5b876102c05152600e8b526102c05160408120903390528b52612f2060ff60406102c051205416614e9f565b612b2a565b90929495969791935052600989526101f460406102c05120541015612f5257918a918a969594938d612b1b565b60405162461bcd60e51b8152600481018a90526015602482015274546f6f206d616e79207061727469636970616e747360581b60448201528790fd5b60405162461bcd60e51b8152600481018890526009602482015268141bdbdb08199d5b1b60ba1b60448201528590fd5b60a0820151612aa6565b612fd3929550614a89565b60a082015110928789612a94565b60405162461bcd60e51b815260048101849052600d60248201526c42657420746f6f206c6172676560981b6044820152606490fd5b60405162461bcd60e51b81526004810184905260116024820152704265742062656c6f77206d696e696d756d60781b6044820152606490fd5b3461036c5761305d366145f8565b906102c0515260096020526102c051604081209081548310156103a4576020612966848461460e565b3461036c5760208060031936011261036c576004356102c05152601b815260406102c05120906040518083838295549384815201906102c051526102c05192848420935b858282106130e1575050506108469250038361480d565b85548452600195860195889550930192016130ca565b3461036c576102c051806003193601126103a4576020604051620151808152f35b3461036c5760208060031936011261036c5760043561313a6003548210614cc6565b806102c051526008825261315360406102c05120614d01565b9161315d82615219565b156134ed57816102c05152600d81526102c0516040812090339052815260ff60406102c0512054166134b757816102c05152600d81526102c051604081209033905281526102c0519260408420600160ff19825416179055828452600882526102c0516002604082205460b01c1615156000146133b15750826102c05152600c82526102c051604081209033905282526102c05160408120549182158015613363575b505050505b82613211576102c05180f35b61321a8261524b565b156132fd5760025460405163a9059cbb60e01b815290829082906001600160a01b0316818061324d893360048401615056565b03916102c051905af190811561136d576102c051916132c8575b501561328f576000805160206153f2833981519152905b6040519384523393a3808080611d25565b6064906040519062461bcd60e51b82526004820152601260248201527110925514881c185e5bdd5d0819985a5b195960721b6044820152fd5b90508181813d83116132f6575b6132df818361480d565b8101031261036c576132f090614830565b84613267565b503d6132d5565b6102c05180808086335af1613310615026565b501561332b576000805160206153f28339815191529061327e565b6064906040519062461bcd60e51b82526004820152601160248201527014d515081c185e5bdd5d0819985a5b1959607a1b6044820152fd5b9091929395506127109283850291858304851417156113905750816101006133986133a09360c06133a7989796015190614b9b565b910151614b88565b0490614a89565b9183808080613200565b600a83526040812090339052825260406102c051205490816133d5575b5050613205565b839194506133ec61ffff8460649301511686614b88565b04936134186127106134106134018489614b7b565b61340a33615071565b90614b88565b048096614b7b565b948061347f575b506134298261524b565b1561346e57686c6b935b8bbd4000008110155b156133ce576040519060038252838201524260408201526000805160206153b283398151915260603392a381846133ce565b678ac7230489e8000081101561343c565b6134888361524b565b156134a35761349990600754614a89565b6007555b8561341f565b6134af90600654614a89565b60065561349d565b6064906040519062461bcd60e51b82526004820152600f60248201526e105b1c9958591e4818db185a5b5959608a1b6044820152fd5b6064906040519062461bcd60e51b82526004820152600b60248201526a139bdd081cd95d1d1b195960aa1b6044820152fd5b3461036c576102c051806003193601126103a4576020604051674563918244f400008152f35b3461036c57602036600319011261036c5761355e614591565b6135666146df565b600480546001600160a01b0319166001600160a01b03929092169190911790556102c05180f35b3461036c57602036600319011261036c576001600160a01b036135ae614591565b166102c05152600f60205261010060406102c05120805490600181015490600281015460038201546004830154906005840154926007600686015495015495604051978852602088015260408701526060860152608085015260a084015260c083015260e0820152f35b3461036c57604036600319011261036c5760043561363461457b565b6136416003548310614cc6565b816102c05152600860205260018060a01b03906136688260406102c0512054163314615152565b826102c05152600e6020526102c051916040832091168092526020526102c0519160408320600160ff198254161790557fef35c6815799b054cdc749d1f5bb07547c285ef9d7559c6e839da576f42b49098380a380f35b3461036c57604036600319011261036c576136d8614591565b602435801515810361036c5730331480156137d2575b1561379e57156137735760018060a01b0316806102c051526020906018825260406102c0512061371e8154614c94565b90556102c051526018815260406102c0518181205460198452828220541061375e575b60188352601a613753838320546151e9565b935220556102c05180f35b60188352818120546019845282822055613741565b60018060a01b03166102c051526018602052600160406102c0518082812055601a6020522055611d25565b60405162461bcd60e51b815260206004820152600c60248201526b155b985d5d1a1bdc9a5e995960a21b6044820152606490fd5b506102c051546001600160a01b031633146136ee565b3461036c57604036600319011261036c5760043560243561380c6003548310614cc6565b816102c05152600860205260406102c051209061383161382b84615219565b15614edd565b6138416009830154421015614f1b565b81549160ff8360b81c166002811015611568578061394357507f00000000000000000000000000000000000000000000000000000000000000006001600160a01b03163303613909576138b3600160ff600080516020615392833981519152955b85600686015560b01c161782614bc7565b600581015482141590816138f0575b600b429101556138d184615264565b6040805192835290151560208301524290820152606090a26102c05180f35b613904600260ff835460b01c161782614bc7565b6138c2565b60405162461bcd60e51b81526020600482015260126024820152714f6e6c7920677569646564206f7261636c6560701b6044820152606490fd5b600114613967575b6138b3600160ff600080516020615392833981519152956138a2565b337f00000000000000000000000000000000000000000000000000000000000000006001600160a01b03161461394b5760405162461bcd60e51b81526020600482015260166024820152754f6e6c79206f7074696d6973746963206f7261636c6560501b6044820152606490fd5b3461036c576102c051806003193601126103a4576040517f00000000000000000000000000000000000000000000000000000000000000006001600160a01b03168152602090f35b3461036c5760208060031936011261036c57600435613a3f6003548210614cc6565b806102c051526008825260406102c0512091613a5d61382b83615219565b613a6d6009840154421015614f1b565b6102c05192838482549560ff8760b81c16906002821015611403575080613bd4575050506007810154604051632e8d1dc160e11b815260048101919091526102c051816024817f00000000000000000000000000000000000000000000000000000000000000006001600160a01b03165afa90811561136d576102c051908192613bb0575b5015613b6c57613b0190615003565b9160015b15613b3457506138b3600160ff600080516020615392833981519152959685600686015560b01c161782614bc7565b6064906040519062461bcd60e51b8252600482015260116024820152704f7574636f6d65206e6f7420726561647960781b6044820152fd5b60405162461bcd60e51b815260048101849052601c60248201527b477569646564206f7574636f6d65206e6f7420617661696c61626c6560201b6044820152606490fd5b90613bcd92503d8091833e613bc5818361480d565b810190614f78565b9086613af2565b91939160001901613b0557506007820154604051632e8d1dc160e11b815260048101919091526102c05191935090816024817f00000000000000000000000000000000000000000000000000000000000000006001600160a01b03165afa90811561136d576102c051908192613c9f575b5015613c5c57613c5490615003565b916001613b05565b6064836040519062461bcd60e51b825280600483015260248201527f4f7074696d6973746963206f7574636f6d65206e6f742066696e616c697a65646044820152fd5b90613cb492503d8091833e613bc5818361480d565b9086613c45565b3461036c57604036600319011261036c57613cd461457b565b6004356102c05152600d6020526102c051604081209160018060a01b03169052602052602060ff60406102c0512054166040519015158152f35b3461036c57602036600319011261036c57604051613d2b8161479f565b6102c05181526102c05160208201526102c051604082015260606102c0519101526004356102c051526010602052608060406102c05120604051613d6e8161479f565b815491828252600181015460208301908152606060036002840154936040860194855201549301928352604051938452516020840152516040830152516060820152f35b3461036c5760208060031936011261036c5760043590613dd56003548310614cc6565b816102c051526008815260406102c05120613df261382b84615219565b600c808201544211156142925790613e1991600192828460ff81955460b01c161790614bc7565b846102c05152600b845260406102c0512060405190818682549182815201916102c051526102c05190878220915b88828210614276575050505081613e5f91038261480d565b6102c051835b6140d7575b50505050826102c051526009825260406102c051206040518082858294549384815201906102c051526102c05192868420935b86888383106140b95750505050613eb69250038261480d565b6102c051825b613f1f575b847f5d017285e8f2eb1ffcbc2466eaedb487942e395d5f1e312f09e9384b1687bea5606086613eef84615264565b60136040519180835282015272105c989a5d1c985d1a5bdb881d1a5b595bdd5d606a1b6040820152a26102c05180f35b81518110156140b4576001600160a01b038481613f3c848661518c565b5116876102c05152600a82526102c05181604082209152825260406102c05120549081613f77575b50505050613f7190614c94565b82613ebc565b613f808961524b565b1561404e57613faa93600254169060405180958194829363a9059cbb60e01b845260048401615056565b03916102c051905af190811561136d576102c05191614019575b5015613fd857613f71905b90848780613f64565b60405162461bcd60e51b8152600481018590526019602482015278109255148818995d1d1bdc881c99599d5b990819985a5b1959603a1b6044820152606490fd5b90508481813d8311614047575b614030818361480d565b8101031261036c5761404190614830565b86613fc4565b503d614026565b915091506102c05180809381935af1614065615026565b501561407457613f7190613fcf565b60405162461bcd60e51b815260048101859052601860248201527714d5150818995d1d1bdc881c99599d5b990819985a5b195960421b6044820152606490fd5b613ec1565b86546001600160a01b03168552958101958795509093019201613e9d565b8151811015614271576001600160a01b0386816140f4848661518c565b5116896102c051528582526102c05181604082209152825260406102c0512054908161412e575b5050505061412890614c94565b83613e65565b909192939495965061413f8a61524b565b1561420c5761416993600254169060405180958194829363a9059cbb60e01b845260048401615056565b03916102c051905af190811561136d576102c051916141d7575b501561419a57906141288493925b9086898061411b565b60405162461bcd60e51b815260048101869052601560248201527410925514881314081c99599d5b990819985a5b1959605a1b6044820152606490fd5b90508581813d8311614205575b6141ee818361480d565b8101031261036c576141ff90614830565b87614183565b503d6141e4565b915091506102c05180809381935af1614223615026565b50156142355790614128849392614191565b60405162461bcd60e51b815260048101869052601460248201527314d515081314081c99599d5b990819985a5b195960621b6044820152606490fd5b613e6a565b83546001600160a01b0316855288979401939283019201613e47565b60405162461bcd60e51b815260048101849052601e60248201527f4172626974726174696f6e20706572696f64206e6f74206578706972656400006044820152606490fd5b3461036c57602036600319011261036c576040516142f48161476d565b6102c05181526102c05160208201526102c05160408201526102c05160608201526102c05160808201526102c05160a08201526102c05160c08201526102c05160e08201526102c0516101008201526102c0516101208201526102c0516101408201526102c0516101608201526102c0516101808201526102c0516101a08201526102c0516101c08201526102c0516101e08201526102c0516102008201526102c0516102208201526102c0516102408201526102c0516102608201526102c0516102808201526102c0516102a08201526102c0516102c08201526102e06102c0519101526003546143ea600435918210614cc6565b6102c05152600860205261030061440660406102c05120614d01565b6102e06040519160018060a01b03815116835261ffff602082015116602084015260ff604082015116604084015261444660608201516060850190614558565b60ff608082015116608084015260a081015160a084015260c081015160c084015260e081015160e08401526101008101516101008401526101208101516101208401526101408101516101408401526101608101516101608401526101808101516101808401526101a08101516101a08401526101c08101516101c08401526101e08101516101e08401526102008101516102008401526102208101516102208401526102408101516102408401526102608101516102608401526102808101516102808401526102a08101516102a08401526102c08101516102c084015201516102e0820152f35b34614553576000366003190112614553576002546001600160a01b03168152602090f35b600080fd5b9060028210156145655752565b634e487b7160e01b600052602160045260246000fd5b602435906001600160a01b038216820361455357565b600435906001600160a01b038216820361455357565b346145535760003660031901126145535760206040516101f48152f35b90815180825260208080930193019160005b8281106145e4575050505090565b8351855293810193928101926001016145d6565b6040906003190112614553576004359060243590565b80548210156146265760005260206000200190600090565b634e487b7160e01b600052603260045260246000fd5b34614553576000366003190112614553576020604051670de0b6b3a76400008152f35b61022090600319011261455357600435906024359060443590606435906084359060a4359060c4359060e43590610104359061012435906101443590610164358015158103614553579061018435906101a435801515810361455357906101c435600281101561455357906101e435906102043560088110156145535790565b6000546001600160a01b031633036146f357565b60405163118cdaa760e01b8152336004820152602490fd5b1561471257565b60405162461bcd60e51b815260206004820152602d60248201527f496e76616c6964206f6464733a206d757374206265206265747765656e20312e60448201526c0303120616e64203130302e303609c1b6064820152608490fd5b61030081019081106001600160401b0382111761478957604052565b634e487b7160e01b600052604160045260246000fd5b608081019081106001600160401b0382111761478957604052565b60c081019081106001600160401b0382111761478957604052565b61010081019081106001600160401b0382111761478957604052565b61012081019081106001600160401b0382111761478957604052565b601f909101601f19168101906001600160401b0382119082101761478957604052565b5190811515820361455357565b91908260809103126145535781519161485860208201614830565b91614871606061486a60408501614830565b9301614830565b90565b1561487b57565b60405162461bcd60e51b815260206004820152602860248201527f496e73756666696369656e742072657075746174696f6e20666f722047554944604482015267454420706f6f6c7360c01b6064820152608490fd5b156148d857565b60405162461bcd60e51b815260206004820152602660248201527f496e73756666696369656e742072657075746174696f6e20666f72204f50454e60448201526520706f6f6c7360d01b6064820152608490fd5b1561493357565b60405162461bcd60e51b8152602060048201526017602482015276535454207374616b652062656c6f77206d696e696d756d60481b6044820152606490fd5b1561497957565b60405162461bcd60e51b815260206004820152601860248201527742495452207374616b652062656c6f77206d696e696d756d60401b6044820152606490fd5b156149c057565b60405162461bcd60e51b815260206004820152600f60248201526e5374616b6520746f6f206c6172676560881b6044820152606490fd5b156149fe57565b60405162461bcd60e51b81526020600482015260176024820152764576656e74206d75737420626520696e2066757475726560481b6044820152606490fd5b15614a4457565b60405162461bcd60e51b815260206004820152601d60248201527f4576656e7420656e64206d7573742062652061667465722073746172740000006044820152606490fd5b91908201809211611a6457565b15614a9d57565b60405162461bcd60e51b815260206004820152600e60248201526d22bb32b73a103a37b79039b7b7b760911b6044820152606490fd5b15614ada57565b60405162461bcd60e51b8152602060048201526014602482015273125b98dbdc9c9958dd0814d51508185b5bdd5b9d60621b6044820152606490fd5b6001600160a01b03918216815291166020820152604081019190915260600190565b15614b3f57565b60405162461bcd60e51b815260206004820152601460248201527310925514881d1c985b9cd9995c8819985a5b195960621b6044820152606490fd5b91908203918211611a6457565b81810292918115918404141715611a6457565b8115614ba5570490565b634e487b7160e01b600052601260045260246000fd5b60028210156145655752565b805460ff60b01b191660b09290921b60ff60b01b16919091179055565b9060ff801983541691151516179055565b8054600160401b81101561478957614c129160018201815561460e565b819291549060031b9160018060a01b03809116831b921b1916179055565b80549190600160401b8310156147895782614c53916001614c6c9501815561460e565b90919082549060031b91821b91600019901b1916179055565b565b9060088210156145655752565b6040909392919360608101946000825260208201520152565b6000198114611a645760010190565b600260015414614cb4576002600155565b604051633ee5aeb560e01b8152600490fd5b15614ccd57565b60405162461bcd60e51b815260206004820152600c60248201526b125b9d985b1a59081c1bdbdb60a21b6044820152606490fd5b90604051614d0e8161476d565b6102e06013829460ff815460018060a01b038116865261ffff8160a01c166020870152818160b01c166040870152614d4e828260b81c1660608801614bbb565b60c01c166080850152600181015460a0850152600281015460c0850152600381015460e08501526004810154610100850152600581015461012085015260068101546101408501526007810154610160850152600881015461018085015260098101546101a0850152600a8101546101c0850152600b8101546101e0850152600c810154610200850152600d810154610220850152600e810154610240850152600f810154610260850152601081015461028085015260118101546102a085015260128101546102c08501520154910152565b15614e2857565b60405162461bcd60e51b815260206004820152600c60248201526b141bdbdb081cd95d1d1b195960a21b6044820152606490fd5b15614e6357565b60405162461bcd60e51b815260206004820152601460248201527310995d1d1a5b99c81c195c9a5bd908195b99195960621b6044820152606490fd5b15614ea657565b60405162461bcd60e51b815260206004820152600f60248201526e139bdd081dda1a5d195b1a5cdd1959608a1b6044820152606490fd5b15614ee457565b60405162461bcd60e51b815260206004820152600f60248201526e105b1c9958591e481cd95d1d1b1959608a1b6044820152606490fd5b15614f2257565b60405162461bcd60e51b8152602060048201526013602482015272115d995b9d081b9bdd08195b991959081e595d606a1b6044820152606490fd5b6001600160401b03811161478957601f01601f191660200190565b919060408382031261455357614f8d83614830565b60208085015191949091906001600160401b038211614553570182601f8201121561455357805190614fbe82614f5d565b93614fcc604051958661480d565b8285528383830101116145535760005b828110614ff0575050906000918301015290565b8181018401518582018501528301614fdc565b602081519101519060208110615017575090565b6000199060200360031b1b1690565b3d15615051573d9061503782614f5d565b91615045604051938461480d565b82523d6000602084013e565b606090565b6001600160a01b039091168152602081019190915260400190565b6002546040516370a0823160e01b81526001600160a01b0392831660048201529160209183916024918391165afa90811561514657600091615115575b50690a968163f0a57b40000081101561510f5769043c33c19375648000008110156151085769010f0cf064dd5920000081101561510157686c6b935b8bbd40000011156150fb576101f490565b6101c290565b5061019090565b5061015e90565b5060fa90565b906020823d821161513e575b8161512e6020938361480d565b810103126103a4575051386150ae565b3d9150615121565b6040513d6000823e3d90fd5b1561515957565b60405162461bcd60e51b815260206004820152600b60248201526a2737ba1031b932b0ba37b960a91b6044820152606490fd5b80518210156146265760209160051b010190565b6001600160401b0381116147895760051b60200190565b906151c1826151a0565b6151ce604051918261480d565b82815280926151df601f19916151a0565b0190602036910137565b601481101561521357600a81101561520d576005111561520857600190565b600290565b50600390565b50600590565b6000526008602052600160406000205460b01c16151590565b6000526008602052600460406000205460b01c16151590565b6000526008602052600860406000205460b01c16151590565b600090808252600860205260018060a01b036040832054168252601c60205260408220818352601d60205260408320549080549182811080615358575b6152ad575b5050505050565b6000199280840190811161534457808203615312575b5050805480156152fe578201916152da838361460e565b909182549160031b1b19169055558152601d602052604081205538808080806152a6565b634e487b7160e01b85526031600452602485fd5b61531c908361460e565b90549060031b1c61533181614c53848661460e565b8552601d602052604085205538806152c3565b634e487b7160e01b86526011600452602486fd5b5083615364828461460e565b90549060031b1c146152a156feae1dd3f2d7e1c58d3a89e27565ac6732a48cc3a0ee34874f1749e6fcca59730886acb9671870fda5e7ea8aa500f96625102d6f2e5a2ee12d3ca0fb612850fa29d43c77f044c1f8bc6adf6676b4ce17edda35ef8ee63f154568826c0ecb3c6bf3c733c2813826d31c105dbff518b08258e9e7aeb3eb1c7c7f642d77696faf501d24b5efa61dd1cfc659205a97fb8ed868f3cb8c81922bab2b96423e5de1de2cb78be0079c531659141344cd1fd0a4f28419497f9722a3daafe3b4186f6b6457e0a2646970667358221220031240bde650bcd2f5816c2fbcac3e5f58db30eef4a55c2bc91f0a2054c74afe64736f6c63430008140033",
  "linkReferences": {},
  "deployedLinkReferences": {}
}