{
  "_format": "hh-sol-artifact-1",
  "contractName": "BitrFaucet",
  "sourceName": "contracts/BitrFaucet.sol",
  "abi": [
    {
      "inputs": [
        {
          "internalType": "address",
          "name": "_bitrToken",
          "type": "address"
        },
        {
          "internalType": "address",
          "name": "_oddyssey",
          "type": "address"
        }
      ],
      "stateMutability": "nonpayable",
      "type": "constructor"
    },
    {
      "inputs": [
        {
          "internalType": "address",
          "name": "owner",
          "type": "address"
        }
      ],
      "name": "OwnableInvalidOwner",
      "type": "error"
    },
    {
      "inputs": [
        {
          "internalType": "address",
          "name": "account",
          "type": "address"
        }
      ],
      "name": "OwnableUnauthorizedAccount",
      "type": "error"
    },
    {
      "inputs": [],
      "name": "ReentrancyGuardReentrantCall",
      "type": "error"
    },
    {
      "anonymous": false,
      "inputs": [
        {
          "indexed": true,
          "internalType": "address",
          "name": "owner",
          "type": "address"
        },
        {
          "indexed": false,
          "internalType": "uint256",
          "name": "amount",
          "type": "uint256"
        },
        {
          "indexed": false,
          "internalType": "uint256",
          "name": "timestamp",
          "type": "uint256"
        }
      ],
      "name": "EmergencyWithdraw",
      "type": "event"
    },
    {
      "anonymous": false,
      "inputs": [
        {
          "indexed": true,
          "internalType": "address",
          "name": "user",
          "type": "address"
        },
        {
          "indexed": false,
          "internalType": "uint256",
          "name": "amount",
          "type": "uint256"
        },
        {
          "indexed": false,
          "internalType": "uint256",
          "name": "timestamp",
          "type": "uint256"
        }
      ],
      "name": "FaucetClaimed",
      "type": "event"
    },
    {
      "anonymous": false,
      "inputs": [
        {
          "indexed": false,
          "internalType": "uint256",
          "name": "timestamp",
          "type": "uint256"
        }
      ],
      "name": "FaucetDeactivated",
      "type": "event"
    },
    {
      "anonymous": false,
      "inputs": [
        {
          "indexed": false,
          "internalType": "uint256",
          "name": "timestamp",
          "type": "uint256"
        }
      ],
      "name": "FaucetReactivated",
      "type": "event"
    },
    {
      "anonymous": false,
      "inputs": [
        {
          "indexed": false,
          "internalType": "uint256",
          "name": "amount",
          "type": "uint256"
        },
        {
          "indexed": false,
          "internalType": "uint256",
          "name": "timestamp",
          "type": "uint256"
        }
      ],
      "name": "FaucetRefilled",
      "type": "event"
    },
    {
      "anonymous": false,
      "inputs": [
        {
          "indexed": true,
          "internalType": "address",
          "name": "previousOwner",
          "type": "address"
        },
        {
          "indexed": true,
          "internalType": "address",
          "name": "newOwner",
          "type": "address"
        }
      ],
      "name": "OwnershipTransferred",
      "type": "event"
    },
    {
      "inputs": [],
      "name": "FAUCET_AMOUNT",
      "outputs": [
        {
          "internalType": "uint256",
          "name": "",
          "type": "uint256"
        }
      ],
      "stateMutability": "view",
      "type": "function"
    },
    {
      "inputs": [],
      "name": "MIN_ODDYSSEY_SLIPS",
      "outputs": [
        {
          "internalType": "uint256",
          "name": "",
          "type": "uint256"
        }
      ],
      "stateMutability": "view",
      "type": "function"
    },
    {
      "inputs": [],
      "name": "bitrToken",
      "outputs": [
        {
          "internalType": "contract IERC20",
          "name": "",
          "type": "address"
        }
      ],
      "stateMutability": "view",
      "type": "function"
    },
    {
      "inputs": [
        {
          "internalType": "address",
          "name": "user",
          "type": "address"
        }
      ],
      "name": "checkEligibility",
      "outputs": [
        {
          "internalType": "bool",
          "name": "eligible",
          "type": "bool"
        },
        {
          "internalType": "string",
          "name": "reason",
          "type": "string"
        },
        {
          "internalType": "uint256",
          "name": "oddysseySlips",
          "type": "uint256"
        }
      ],
      "stateMutability": "view",
      "type": "function"
    },
    {
      "inputs": [],
      "name": "claimBitr",
      "outputs": [],
      "stateMutability": "nonpayable",
      "type": "function"
    },
    {
      "inputs": [],
      "name": "emergencyWithdraw",
      "outputs": [],
      "stateMutability": "nonpayable",
      "type": "function"
    },
    {
      "inputs": [
        {
          "internalType": "uint256",
          "name": "amount",
          "type": "uint256"
        }
      ],
      "name": "emergencyWithdrawAmount",
      "outputs": [],
      "stateMutability": "nonpayable",
      "type": "function"
    },
    {
      "inputs": [],
      "name": "faucetActive",
      "outputs": [
        {
          "internalType": "bool",
          "name": "",
          "type": "bool"
        }
      ],
      "stateMutability": "view",
      "type": "function"
    },
    {
      "inputs": [],
      "name": "getFaucetStats",
      "outputs": [
        {
          "internalType": "uint256",
          "name": "balance",
          "type": "uint256"
        },
        {
          "internalType": "uint256",
          "name": "totalDistributed",
          "type": "uint256"
        },
        {
          "internalType": "uint256",
          "name": "userCount",
          "type": "uint256"
        },
        {
          "internalType": "bool",
          "name": "active",
          "type": "bool"
        }
      ],
      "stateMutability": "view",
      "type": "function"
    },
    {
      "inputs": [
        {
          "internalType": "address",
          "name": "user",
          "type": "address"
        }
      ],
      "name": "getUserInfo",
      "outputs": [
        {
          "internalType": "bool",
          "name": "claimed",
          "type": "bool"
        },
        {
          "internalType": "uint256",
          "name": "claimTime",
          "type": "uint256"
        }
      ],
      "stateMutability": "view",
      "type": "function"
    },
    {
      "inputs": [
        {
          "internalType": "address",
          "name": "",
          "type": "address"
        }
      ],
      "name": "hasClaimed",
      "outputs": [
        {
          "internalType": "bool",
          "name": "",
          "type": "bool"
        }
      ],
      "stateMutability": "view",
      "type": "function"
    },
    {
      "inputs": [],
      "name": "hasSufficientBalance",
      "outputs": [
        {
          "internalType": "bool",
          "name": "",
          "type": "bool"
        }
      ],
      "stateMutability": "view",
      "type": "function"
    },
    {
      "inputs": [
        {
          "internalType": "address",
          "name": "",
          "type": "address"
        }
      ],
      "name": "lastClaimTime",
      "outputs": [
        {
          "internalType": "uint256",
          "name": "",
          "type": "uint256"
        }
      ],
      "stateMutability": "view",
      "type": "function"
    },
    {
      "inputs": [],
      "name": "maxPossibleClaims",
      "outputs": [
        {
          "internalType": "uint256",
          "name": "",
          "type": "uint256"
        }
      ],
      "stateMutability": "view",
      "type": "function"
    },
    {
      "inputs": [],
      "name": "oddyssey",
      "outputs": [
        {
          "internalType": "contract Oddyssey",
          "name": "",
          "type": "address"
        }
      ],
      "stateMutability": "view",
      "type": "function"
    },
    {
      "inputs": [],
      "name": "owner",
      "outputs": [
        {
          "internalType": "address",
          "name": "",
          "type": "address"
        }
      ],
      "stateMutability": "view",
      "type": "function"
    },
    {
      "inputs": [
        {
          "internalType": "uint256",
          "name": "amount",
          "type": "uint256"
        }
      ],
      "name": "refillFaucet",
      "outputs": [],
      "stateMutability": "nonpayable",
      "type": "function"
    },
    {
      "inputs": [],
      "name": "renounceOwnership",
      "outputs": [],
      "stateMutability": "nonpayable",
      "type": "function"
    },
    {
      "inputs": [
        {
          "internalType": "bool",
          "name": "active",
          "type": "bool"
        }
      ],
      "name": "setFaucetActive",
      "outputs": [],
      "stateMutability": "nonpayable",
      "type": "function"
    },
    {
      "inputs": [],
      "name": "totalClaimed",
      "outputs": [
        {
          "internalType": "uint256",
          "name": "",
          "type": "uint256"
        }
      ],
      "stateMutability": "view",
      "type": "function"
    },
    {
      "inputs": [],
      "name": "totalUsers",
      "outputs": [
        {
          "internalType": "uint256",
          "name": "",
          "type": "uint256"
        }
      ],
      "stateMutability": "view",
      "type": "function"
    },
    {
      "inputs": [
        {
          "internalType": "address",
          "name": "newOwner",
          "type": "address"
        }
      ],
      "name": "transferOwnership",
      "outputs": [],
      "stateMutability": "nonpayable",
      "type": "function"
    }
  ],
  "bytecode": "0x60c0346101ce5761144190601f38839003908101601f19168201906001600160401b038211838310176101d357808391604095869485528339810103126101ce57610055602061004e836101e9565b92016101e9565b9033156101b65760008054336001600160a01b03198216811783558551946001600160a01b0394909385939192918416907f8be0079c531659141344cd1fd0a4f28419497f9722a3daafe3b4186f6b6457e09080a360018055600160ff196006541617600655169283156101745750169081156101305760805260a0525161124390816101fe82396080518181816101dc015281816103c10152818161053a01528181610689015281816107b601528181610b2701528181610c9901528181610e2f0152610fda015260a051818181610d3d0152610f470152f35b825162461bcd60e51b815260206004820152601860248201527f496e76616c6964204f64647973736579206164647265737300000000000000006044820152606490fd5b62461bcd60e51b815260206004820152601a60248201527f496e76616c6964204249545220746f6b656e20616464726573730000000000006044820152606490fd5b8251631e4fbdf760e01b815260006004820152602490fd5b600080fd5b634e487b7160e01b600052604160045260246000fd5b51906001600160a01b03821682036101ce5756fe608060408181526004908136101561001657600080fd5b600092833560e01c90816301b708c214610e1b575080631e2f5c0514610dff5780632487426014610d6c57806343c4453314610d28578063485405d714610c6b5780636386c1c714610c1f578063715018a614610bc557806371ecbb1a14610af957806373b2e80e14610aba5780637669764014610a955780637723bafb14610a0e5780637868e2031461075f5780638da5cb5b146107375780639055958414610713578063a6e340c614610638578063b77cf9c6146105fe578063bff1f9e1146105df578063c13463c91461050f578063c6c8f6b61461037b578063d54ad2a11461035d578063db2e21bc146101a65763f2fde38b1461011657600080fd5b346101a25760203660031901126101a2576001600160a01b0382358181169391929084900361019e57610147610e5e565b831561018857505082546001600160a01b0319811683178455167f8be0079c531659141344cd1fd0a4f28419497f9722a3daafe3b4186f6b6457e08380a380f35b51631e4fbdf760e01b8152908101849052602490fd5b8480fd5b8280fd5b509190346103595781600319360112610359576101c1610e5e565b82516370a0823160e01b815230828201526001600160a01b037f00000000000000000000000000000000000000000000000000000000000000008116946020939092919084836024818a5afa92831561034f57869361031c575b5082156102e1578554845163a9059cbb60e01b81529083166001600160a01b0316918101918252602082018490529596859187919082908a90829060400103925af19485156102d7577fbb757047c2b5f3974fe26b7c10f732e7bce710b0952a71082702781e62ae059594956102989188916102aa575b506111cf565b8554169382519182524290820152a280f35b6102ca9150873d89116102d0575b6102c28183610ebc565b810190610ede565b38610292565b503d6102b8565b83513d88823e3d90fd5b835162461bcd60e51b815290810185905260156024820152744e6f20746f6b656e7320746f20776974686472617760581b6044820152606490fd5b9092508481813d8311610348575b6103348183610ebc565b810103126103445751913861021b565b8580fd5b503d61032a565b84513d88823e3d90fd5b5080fd5b5090346101a257826003193601126101a25760209250549051908152f35b5082903461035957602090816003193601126101a257833561039b610e5e565b6103a6811515611183565b81516370a0823160e01b815230868201526001600160a01b037f0000000000000000000000000000000000000000000000000000000000000000811696909185816024818b5afa9081156105055790849188916104d0575b5010610496578554845163a9059cbb60e01b81529083166001600160a01b0316918101918252602082018490529596859187919082908a90829060400103925af19485156102d7577fbb757047c2b5f3974fe26b7c10f732e7bce710b0952a71082702781e62ae0595949561029891889161047957506111cf565b6104909150873d89116102d0576102c28183610ebc565b88610292565b835162461bcd60e51b81529081018590526014602482015273496e73756666696369656e742062616c616e636560601b6044820152606490fd5b809250878092503d83116104fe575b6104e98183610ebc565b810103126104fa57839051896103fe565b8680fd5b503d6104df565b85513d89823e3d90fd5b50346101a257826003193601126101a25780516370a0823160e01b81523083820152916020836024817f00000000000000000000000000000000000000000000000000000000000000006001600160a01b03165afa9283156105d557849361059a575b506080935054906005549060ff60065416928151948552602085015283015215156060820152f35b9092506020813d82116105cd575b816105b560209383610ebc565b810103126105c95760809350519138610572565b8380fd5b3d91506105a8565b82513d86823e3d90fd5b8382346103595781600319360112610359576020906005549051908152f35b5090346101a25760203660031901126101a257356001600160a01b038116908190036101a257828291602094526003845220549051908152f35b50346101a25760203660031901126101a2578135610654610e5e565b61065f811515611183565b81516323b872dd60e01b8152339381019390935230602484015260448301819052602083606481877f00000000000000000000000000000000000000000000000000000000000000006001600160a01b03165af19283156105d5577f816ddc8dab13184fc09fe728cd28ba4738cf188266c107b2cb3158d5aa006d49936106ec9186916106fb57506111cf565b8151908152426020820152a180f35b6102ca915060203d81116102d0576102c28183610ebc565b83823461035957816003193601126103595760209060ff6006541690519015158152f35b838234610359578160031936011261035957905490516001600160a01b039091168152602090f35b5090346101a257826003193601126101a2576001916002835414610a01576002835560ff60065416156109c75733845260206002815260ff82862054166109945781516370a0823160e01b815230818501529260247f00000000000000000000000000000000000000000000000000000000000000006001600160a01b031683868381845afa958615610904578896610961575b5069043c33c193756480000080961061092057338852600284528488208760ff19825416179055600384524285892055825486810180911161090e578355600554600019811461090e57889188869201600555604487518094819363a9059cbb60e01b835233898401528b888401525af19081156109045788916108e7575b50156108af575050907fa19a7d2b5bf6a987a66e0eac8a6eb2dbd34ae6a43285849af788b224268ec02291815193845242908401523392a2805580f35b60159192606494519362461bcd60e51b855284015282015274151bdad95b881d1c985b9cd9995c8819985a5b1959605a1b6044820152fd5b6108fe9150843d86116102d0576102c28183610ebc565b38610872565b85513d8a823e3d90fd5b634e487b7160e01b8952601184528289fd5b50601b9192606494519362461bcd60e51b85528401528201527f496e73756666696369656e74206661756365742062616c616e636500000000006044820152fd5b9095508381813d831161098d575b6109798183610ebc565b81010312610989575194386107f3565b8780fd5b503d61096f565b905162461bcd60e51b815291820152600f60248201526e105b1c9958591e4818db185a5b5959608a1b6044820152606490fd5b906020606492519162461bcd60e51b83528201526014602482015273466175636574206973206e6f742061637469766560601b6044820152fd5b51633ee5aeb560e01b8152fd5b50346101a257602091826003193601126105c957356001600160a01b03811681036105c957610a3c90610efb565b90939192805195869415158552606084860152855193846060870152815b858110610a7e57505060808096508486010152830152601f80199101168101030190f35b808801820151898201608001528896508101610a5a565b8382346103595781600319360112610359576020905169043c33c19375648000008152f35b5090346101a25760203660031901126101a257356001600160a01b038116908190036101a257818360ff92602095526002855220541690519015158152f35b5090346101a257826003193601126101a25781516370a0823160e01b815230918101919091526020816024817f00000000000000000000000000000000000000000000000000000000000000006001600160a01b03165afa928315610bba578093610b76575b60208469043c33c193756480000085519110158152f35b9092506020833d8211610bb2575b81610b9160209383610ebc565b81010312610baf575069043c33c19375648000006020925192610b5f565b80fd5b3d9150610b84565b8251903d90823e3d90fd5b8334610baf5780600319360112610baf57610bde610e5e565b80546001600160a01b03198116825581906001600160a01b03167f8be0079c531659141344cd1fd0a4f28419497f9722a3daafe3b4186f6b6457e08280a380f35b5091903461035957602036600319011261035957356001600160a01b0381169081900361035957815260026020528160ff81832054169160036020522054825191151582526020820152f35b5090346101a257826003193601126101a25781516370a0823160e01b815230918101919091526020816024817f00000000000000000000000000000000000000000000000000000000000000006001600160a01b03165afa928315610bba578093610ce7575b60208469043c33c1937564800000855191048152f35b9092506020833d8211610d20575b81610d0260209383610ebc565b81010312610baf575069043c33c19375648000006020925192610cd1565b3d9150610cf5565b838234610359578160031936011261035957517f00000000000000000000000000000000000000000000000000000000000000006001600160a01b03168152602090f35b5090346101a25760203660031901126101a257358015158082036105c957610d92610e5e565b60ff801960065416911617600655600014610dd35760207fb410793f8aa086651daa1819a0f70d6b03a433510a7d1a7c995af5bbcba458c49151428152a180f35b60207fdbbda224ce43b9a76fdd2a5b3bd5ac693e8a1738f7f57beea8b84d6a4af4839c9151428152a180f35b8382346103595781600319360112610359576020905160028152f35b8490346103595781600319360112610359577f00000000000000000000000000000000000000000000000000000000000000006001600160a01b03168152602090f35b6000546001600160a01b03163303610e7257565b60405163118cdaa760e01b8152336004820152602490fd5b6040810190811067ffffffffffffffff821117610ea657604052565b634e487b7160e01b600052604160045260246000fd5b90601f8019910116810190811067ffffffffffffffff821117610ea657604052565b90816020910312610ef657518015158103610ef65790565b600080fd5b9060018060a01b03809216906000918083526020906002825260409460ff86862054166111565760ff600654161561112457855191633e90467760e11b835260048301528282602481847f0000000000000000000000000000000000000000000000000000000000000000165afa8592816110f5575b50610fb15750507f4572726f7220636865636b696e67204f6464797373657920736c69707300000083945191610fa683610e8a565b601d83528201529190565b81949194600281106110c45750826024918751928380926370a0823160e01b82523060048301527f0000000000000000000000000000000000000000000000000000000000000000165afa80156110ba578290611083575b69043c33c193756480000091501061104a575070456c696769626c6520746f20636c61696d60781b600194519161103f83610e8a565b601183528201529190565b7f496e73756666696369656e74206661756365742062616c616e636500000000009094519161107883610e8a565b601b83528201529190565b508281813d83116110b3575b6110998183610ebc565b810103126103595769043c33c19375648000009051611009565b503d61108f565b86513d84823e3d90fd5b9450507f496e73756666696369656e74204f6464797373657920736c69707300000000009094519161107883610e8a565b9092508381813d831161111d575b61110d8183610ebc565b8101031261034457519138610f71565b503d611103565b505073466175636574206973206e6f742061637469766560601b8394519161114b83610e8a565b601483528201529190565b50506e105b1c9958591e4818db185a5b5959608a1b8394519161117883610e8a565b600f83528201529190565b1561118a57565b60405162461bcd60e51b815260206004820152601d60248201527f416d6f756e74206d7573742062652067726561746572207468616e20300000006044820152606490fd5b156111d657565b60405162461bcd60e51b815260206004820152600f60248201526e151c985b9cd9995c8819985a5b1959608a1b6044820152606490fdfea2646970667358221220fbd713d90c2eb83ef213305c073fb5357c0ba0a64d6222dd0c18394eec091ece64736f6c63430008140033",
  "linkReferences": {},
  "deployedLinkReferences": {}
}