{
  "_format": "hh-sol-artifact-1",
  "contractName": "GuidedOracle",
  "sourceName": "contracts/GuidedOracle.sol",
  "abi": [
    {
      "inputs": [
        {
          "internalType": "address",
          "name": "_oracleBot",
          "type": "address"
        }
      ],
      "stateMutability": "nonpayable",
      "type": "constructor"
    },
    {
      "anonymous": false,
      "inputs": [
        {
          "indexed": true,
          "internalType": "address",
          "name": "target",
          "type": "address"
        },
        {
          "indexed": false,
          "internalType": "bytes",
          "name": "data",
          "type": "bytes"
        }
      ],
      "name": "CallExecuted",
      "type": "event"
    },
    {
      "anonymous": false,
      "inputs": [
        {
          "indexed": false,
          "internalType": "address",
          "name": "newBot",
          "type": "address"
        }
      ],
      "name": "OracleBotUpdated",
      "type": "event"
    },
    {
      "anonymous": false,
      "inputs": [
        {
          "indexed": true,
          "internalType": "bytes32",
          "name": "marketId",
          "type": "bytes32"
        },
        {
          "indexed": false,
          "internalType": "bytes",
          "name": "resultData",
          "type": "bytes"
        },
        {
          "indexed": false,
          "internalType": "uint256",
          "name": "timestamp",
          "type": "uint256"
        }
      ],
      "name": "OutcomeSubmitted",
      "type": "event"
    },
    {
      "inputs": [
        {
          "internalType": "address",
          "name": "target",
          "type": "address"
        },
        {
          "internalType": "bytes",
          "name": "data",
          "type": "bytes"
        }
      ],
      "name": "executeCall",
      "outputs": [],
      "stateMutability": "nonpayable",
      "type": "function"
    },
    {
      "inputs": [
        {
          "internalType": "bytes32",
          "name": "marketId",
          "type": "bytes32"
        }
      ],
      "name": "getOutcome",
      "outputs": [
        {
          "internalType": "bool",
          "name": "isSet",
          "type": "bool"
        },
        {
          "internalType": "bytes",
          "name": "resultData",
          "type": "bytes"
        }
      ],
      "stateMutability": "view",
      "type": "function"
    },
    {
      "inputs": [],
      "name": "oracleBot",
      "outputs": [
        {
          "internalType": "address",
          "name": "",
          "type": "address"
        }
      ],
      "stateMutability": "view",
      "type": "function"
    },
    {
      "inputs": [
        {
          "internalType": "bytes32",
          "name": "",
          "type": "bytes32"
        }
      ],
      "name": "outcomes",
      "outputs": [
        {
          "internalType": "bool",
          "name": "isSet",
          "type": "bool"
        },
        {
          "internalType": "bytes",
          "name": "resultData",
          "type": "bytes"
        },
        {
          "internalType": "uint256",
          "name": "timestamp",
          "type": "uint256"
        }
      ],
      "stateMutability": "view",
      "type": "function"
    },
    {
      "inputs": [],
      "name": "owner",
      "outputs": [
        {
          "internalType": "address",
          "name": "",
          "type": "address"
        }
      ],
      "stateMutability": "view",
      "type": "function"
    },
    {
      "inputs": [
        {
          "internalType": "bytes32",
          "name": "marketId",
          "type": "bytes32"
        },
        {
          "internalType": "bytes",
          "name": "resultData",
          "type": "bytes"
        }
      ],
      "name": "submitOutcome",
      "outputs": [],
      "stateMutability": "nonpayable",
      "type": "function"
    },
    {
      "inputs": [
        {
          "internalType": "address",
          "name": "newBot",
          "type": "address"
        }
      ],
      "name": "updateOracleBot",
      "outputs": [],
      "stateMutability": "nonpayable",
      "type": "function"
    }
  ],
  "bytecode": "0x60803461007c57601f61094238819003918201601f19168301916001600160401b038311848410176100815780849260209460405283398101031261007c57516001600160a01b0381169081900361007c5760018060a01b031990816000541617600055339060015416176001556040516108aa90816100988239f35b600080fd5b634e487b7160e01b600052604160045260246000fdfe60406080815260048036101561001457600080fd5b600091823560e01c806325ed061e146103855780635d1a3b82146103175780637a75be97146102ef5780638da5cb5b146102c6578063bca8c7b5146101a9578063d4356e721461014d5763d760be101461006d57600080fd5b3461014957602036600319011261014957610086610677565b6001546001600160a01b0391908216330361011957169182156100e1575082546001600160a01b03191682178355519081527fcec5337563293fbbf7f8c0ec022f756115a0ee844c9b13f46dbfe0a8ba999f1890602090a180f35b6020606492519162461bcd60e51b83528201526013602482015272496e76616c696420626f74206164647265737360681b6044820152fd5b825162461bcd60e51b8152602081860152600a60248201526927b7363c9037bbb732b960b11b6044820152606490fd5b8280fd5b509034610149576020366003190112610149579181923581526002602052209060ff8254169060026101816001850161071b565b9301546101a1825194859415158552606060208601526060850190610637565b918301520390f35b509190346102c257826003193601126102c2576101c4610677565b906024356001600160401b0381116102be576101e39036908301610605565b929060018060a01b03926101fb8487541633146107c1565b858088518785823780888101838152039082875af13d156102b9573d61022081610818565b9061022d8a5192836106f8565b81528760203d92013e5b1561027f5750610279907f13bee011730f488ace07b7a9f5a820315c8f3efa67a026550d02641b47f5ad9d949596519384936020855216956020840191610833565b0390a280f35b606490602088519162461bcd60e51b83528201526014602482015273115e1d195c9b985b0818d85b1b0819985a5b195960621b6044820152fd5b610237565b8380fd5b5080fd5b8382346102c257816003193601126102c25760015490516001600160a01b039091168152602090f35b8382346102c257816003193601126102c257905490516001600160a01b039091168152602090f35b509034610149576020366003190112610149579181923581526002602052206103818251610344816106c7565b60ff83541615158152600261035b6001850161071b565b938460208401520154848201525115159183519384938452806020850152830190610637565b0390f35b508290346102c257806003193601126102c2578235906001600160401b0390602435828111610601576103bb9036908701610605565b926103d060018060a01b0387541633146107c1565b8486526020966002885260ff84882054166105c2578351916103f1836106c7565b60019081845261040087610818565b9161040d875193846106f8565b87835236888701116105be5787868c850137898b89850101528a850192835286850193428552898b5260028c52878b209551151560ff8019885416911617865581860193519081519384116105ab57508b610468855461068d565b601f8111610563575b50508b90601f84116001146104e6579280808d9e9997946104cf9997946000805160206108558339815191529e9f97600298946104db575b50501b916000199060031b1c19161790555b519101558351948486958652850191610833565b9042908301520390a280f35b0151925038806104a9565b848c528c8c209293929190601f1984168d5b81811061054e575092600295926000805160206108558339815191529d9e9f9a989592836104cf9b999610610535575b505050811b0190556104bb565b015160001960f88460031b161c191690558e8080610528565b82840151855593860193928f01928f016104f8565b858d52818d2090601f860160051c82019286106105a1575b601f0160051c019083905b82811061059657508d9150610471565b8d8155018390610586565b909150819061057b565b634e487b7160e01b8c526041905260248bfd5b8980fd5b835162461bcd60e51b8152908101889052601960248201527813dd5d18dbdb5948185b1c9958591e481cdd589b5a5d1d1959603a1b6044820152606490fd5b8480fd5b9181601f84011215610632578235916001600160401b038311610632576020838186019501011161063257565b600080fd5b919082519283825260005b848110610663575050826000602080949584010152601f8019910116010190565b602081830181015184830182015201610642565b600435906001600160a01b038216820361063257565b90600182811c921680156106bd575b60208310146106a757565b634e487b7160e01b600052602260045260246000fd5b91607f169161069c565b606081019081106001600160401b038211176106e257604052565b634e487b7160e01b600052604160045260246000fd5b601f909101601f19168101906001600160401b038211908210176106e257604052565b906040519182600082549261072f8461068d565b90818452600194858116908160001461079e575060011461075b575b5050610759925003836106f8565b565b9093915060005260209081600020936000915b8183106107865750506107599350820101388061074b565b8554888401850152948501948794509183019161076e565b91505061075994506020925060ff191682840152151560051b820101388061074b565b156107c857565b60405162461bcd60e51b815260206004820152602260248201527f4f6e6c79206f7261636c6520626f742063616e207375626d6974206f7574636f6044820152616d6560f01b6064820152608490fd5b6001600160401b0381116106e257601f01601f191660200190565b908060209392818452848401376000828201840152601f01601f191601019056fea6a23110d9c9193cef0a74bc5aa197bfae3ac30f224be5bbefe74a76343e8334a26469706673582212200cc6c11f7fcaffedda3bc09db8611243785b20a0ad7ceb9585722137c25a71c564736f6c63430008140033",
  "linkReferences": {},
  "deployedLinkReferences": {}
}