{
  "_format": "hh-sol-artifact-1",
  "contractName": "GuidedOracle",
  "sourceName": "contracts/GuidedOracle.sol",
  "abi": [
    {
      "inputs": [
        {
          "internalType": "address",
          "name": "_oracleBot",
          "type": "address"
        }
      ],
      "stateMutability": "nonpayable",
      "type": "constructor"
    },
    {
      "anonymous": false,
      "inputs": [
        {
          "indexed": true,
          "internalType": "address",
          "name": "target",
          "type": "address"
        },
        {
          "indexed": false,
          "internalType": "bytes",
          "name": "data",
          "type": "bytes"
        }
      ],
      "name": "CallExecuted",
      "type": "event"
    },
    {
      "anonymous": false,
      "inputs": [
        {
          "indexed": false,
          "internalType": "address",
          "name": "newBot",
          "type": "address"
        }
      ],
      "name": "OracleBotUpdated",
      "type": "event"
    },
    {
      "anonymous": false,
      "inputs": [
        {
          "indexed": true,
          "internalType": "bytes32",
          "name": "marketId",
          "type": "bytes32"
        },
        {
          "indexed": false,
          "internalType": "bytes",
          "name": "resultData",
          "type": "bytes"
        },
        {
          "indexed": false,
          "internalType": "uint256",
          "name": "timestamp",
          "type": "uint256"
        }
      ],
      "name": "OutcomeSubmitted",
      "type": "event"
    },
    {
      "inputs": [
        {
          "internalType": "address",
          "name": "target",
          "type": "address"
        },
        {
          "internalType": "bytes",
          "name": "data",
          "type": "bytes"
        }
      ],
      "name": "executeCall",
      "outputs": [],
      "stateMutability": "nonpayable",
      "type": "function"
    },
    {
      "inputs": [
        {
          "internalType": "bytes32",
          "name": "marketId",
          "type": "bytes32"
        }
      ],
      "name": "getOutcome",
      "outputs": [
        {
          "internalType": "bool",
          "name": "isSet",
          "type": "bool"
        },
        {
          "internalType": "bytes",
          "name": "resultData",
          "type": "bytes"
        }
      ],
      "stateMutability": "view",
      "type": "function"
    },
    {
      "inputs": [],
      "name": "oracleBot",
      "outputs": [
        {
          "internalType": "address",
          "name": "",
          "type": "address"
        }
      ],
      "stateMutability": "view",
      "type": "function"
    },
    {
      "inputs": [
        {
          "internalType": "bytes32",
          "name": "",
          "type": "bytes32"
        }
      ],
      "name": "outcomes",
      "outputs": [
        {
          "internalType": "bool",
          "name": "isSet",
          "type": "bool"
        },
        {
          "internalType": "bytes",
          "name": "resultData",
          "type": "bytes"
        },
        {
          "internalType": "uint256",
          "name": "timestamp",
          "type": "uint256"
        }
      ],
      "stateMutability": "view",
      "type": "function"
    },
    {
      "inputs": [],
      "name": "owner",
      "outputs": [
        {
          "internalType": "address",
          "name": "",
          "type": "address"
        }
      ],
      "stateMutability": "view",
      "type": "function"
    },
    {
      "inputs": [
        {
          "internalType": "bytes32",
          "name": "marketId",
          "type": "bytes32"
        },
        {
          "internalType": "bytes",
          "name": "resultData",
          "type": "bytes"
        }
      ],
      "name": "submitOutcome",
      "outputs": [],
      "stateMutability": "nonpayable",
      "type": "function"
    },
    {
      "inputs": [
        {
          "internalType": "address",
          "name": "newBot",
          "type": "address"
        }
      ],
      "name": "updateOracleBot",
      "outputs": [],
      "stateMutability": "nonpayable",
      "type": "function"
    }
  ],
  "bytecode": "0x60803461007c57601f61094e38819003918201601f19168301916001600160401b038311848410176100815780849260209460405283398101031261007c57516001600160a01b0381169081900361007c5760018060a01b031990816000541617600055339060015416176001556040516108b690816100988239f35b600080fd5b634e487b7160e01b600052604160045260246000fdfe60406080815260048036101561001457600080fd5b600091823560e01c806325ed061e146103865780635d1a3b82146103185780637a75be97146102f05780638da5cb5b146102c7578063bca8c7b5146101a9578063d4356e721461014d5763d760be101461006d57600080fd5b34610149576020366003190112610149576100866106a2565b6001546001600160a01b0391908216330361011957169182156100e1575082546001600160a01b03191682178355519081527fcec5337563293fbbf7f8c0ec022f756115a0ee844c9b13f46dbfe0a8ba999f1890602090a180f35b6020606492519162461bcd60e51b83528201526013602482015272496e76616c696420626f74206164647265737360681b6044820152fd5b825162461bcd60e51b8152602081860152600a60248201526927b7363c9037bbb732b960b11b6044820152606490fd5b8280fd5b509034610149576020366003190112610149579181923581526002602052209060ff82541690600261018160018501610746565b9301546101a1825194859415158552606060208601526060850190610662565b918301520390f35b509190346102c357826003193601126102c3576101c46106a2565b9060243567ffffffffffffffff81116102bf576101e4903690830161062f565b929060018060a01b03926101fc8487541633146107ec565b858088518785823780888101838152039082875af13d156102ba573d61022181610843565b9061022e8a519283610724565b81528760203d92013e5b15610280575061027a907f13bee011730f488ace07b7a9f5a820315c8f3efa67a026550d02641b47f5ad9d94959651938493602085521695602084019161085f565b0390a280f35b606490602088519162461bcd60e51b83528201526014602482015273115e1d195c9b985b0818d85b1b0819985a5b195960621b6044820152fd5b610238565b8380fd5b5080fd5b8382346102c357816003193601126102c35760015490516001600160a01b039091168152602090f35b8382346102c357816003193601126102c357905490516001600160a01b039091168152602090f35b509034610149576020366003190112610149579181923581526002602052206103828251610345816106f2565b60ff83541615158152600261035c60018501610746565b938460208401520154848201525115159183519384938452806020850152830190610662565b0390f35b508290346102c357806003193601126102c35782359067ffffffffffffffff9060243582811161062b576103bd903690870161062f565b926103d260018060a01b0387541633146107ec565b8486526020966002885260ff84882054166105e8578351916103f3836106f2565b60019081845261040287610843565b9161040f87519384610724565b87835236888701116105e45787868c850137898b89850101528a850192835286850193428552898b5260028c52878b209551151560ff8019885416911617865581860193519081519384116105d157508b61046a85546106b8565b601f8111610589575b50508b90601f84116001146104fa579280808d9e9997946104e39997947fa6a23110d9c9193cef0a74bc5aa197bfae3ac30f224be5bbefe74a76343e83349e9f97600298946104ef575b50501b916000199060031b1c19161790555b51910155835194848695865285019161085f565b9042908301520390a280f35b0151925038806104bd565b848c528c8c209293929190601f1984168d5b818110610574575092600295927fa6a23110d9c9193cef0a74bc5aa197bfae3ac30f224be5bbefe74a76343e83349d9e9f9a989592836104e39b99961061055b575b505050811b0190556104cf565b015160001960f88460031b161c191690558e808061054e565b82840151855593860193928f01928f0161050c565b858d52818d2090601f860160051c82019286106105c7575b601f0160051c019083905b8281106105bc57508d9150610473565b8d81550183906105ac565b90915081906105a1565b634e487b7160e01b8c526041905260248bfd5b8980fd5b835162461bcd60e51b8152908101889052601960248201527f4f7574636f6d6520616c7265616479207375626d6974746564000000000000006044820152606490fd5b8480fd5b9181601f8401121561065d5782359167ffffffffffffffff831161065d576020838186019501011161065d57565b600080fd5b919082519283825260005b84811061068e575050826000602080949584010152601f8019910116010190565b60208183018101518483018201520161066d565b600435906001600160a01b038216820361065d57565b90600182811c921680156106e8575b60208310146106d257565b634e487b7160e01b600052602260045260246000fd5b91607f16916106c7565b6060810190811067ffffffffffffffff82111761070e57604052565b634e487b7160e01b600052604160045260246000fd5b90601f8019910116810190811067ffffffffffffffff82111761070e57604052565b906040519182600082549261075a846106b8565b9081845260019485811690816000146107c95750600114610786575b505061078492500383610724565b565b9093915060005260209081600020936000915b8183106107b157505061078493508201013880610776565b85548884018501529485019487945091830191610799565b91505061078494506020925060ff191682840152151560051b8201013880610776565b156107f357565b60405162461bcd60e51b815260206004820152602260248201527f4f6e6c79206f7261636c6520626f742063616e207375626d6974206f7574636f6044820152616d6560f01b6064820152608490fd5b67ffffffffffffffff811161070e57601f01601f191660200190565b908060209392818452848401376000828201840152601f01601f191601019056fea264697066735822122046311e7cde9e80aed143593f5d3ce6b631af4f0492e575c2720671be8c52f34464736f6c63430008140033",
  "linkReferences": {},
  "deployedLinkReferences": {}
}