{
  "_format": "hh-sol-artifact-1",
  "contractName": "Oddyssey",
  "sourceName": "contracts/Oddyssey.sol",
  "abi": [
    {
      "inputs": [
        {
          "internalType": "address",
          "name": "_devWallet",
          "type": "address"
        },
        {
          "internalType": "uint256",
          "name": "_initialEntryFee",
          "type": "uint256"
        }
      ],
      "stateMutability": "nonpayable",
      "type": "constructor"
    },
    {
      "inputs": [],
      "name": "DataNotFound",
      "type": "error"
    },
    {
      "inputs": [],
      "name": "InsufficientFunds",
      "type": "error"
    },
    {
      "inputs": [],
      "name": "InvalidInput",
      "type": "error"
    },
    {
      "inputs": [],
      "name": "InvalidState",
      "type": "error"
    },
    {
      "inputs": [],
      "name": "InvalidTiming",
      "type": "error"
    },
    {
      "inputs": [
        {
          "internalType": "address",
          "name": "owner",
          "type": "address"
        }
      ],
      "name": "OwnableInvalidOwner",
      "type": "error"
    },
    {
      "inputs": [
        {
          "internalType": "address",
          "name": "account",
          "type": "address"
        }
      ],
      "name": "OwnableUnauthorizedAccount",
      "type": "error"
    },
    {
      "inputs": [],
      "name": "ReentrancyGuardReentrantCall",
      "type": "error"
    },
    {
      "inputs": [],
      "name": "TransferFailed",
      "type": "error"
    },
    {
      "inputs": [],
      "name": "Unauthorized",
      "type": "error"
    },
    {
      "anonymous": false,
      "inputs": [
        {
          "indexed": true,
          "internalType": "uint256",
          "name": "cycleId",
          "type": "uint256"
        },
        {
          "indexed": false,
          "internalType": "uint256",
          "name": "totalVolume",
          "type": "uint256"
        },
        {
          "indexed": false,
          "internalType": "uint32",
          "name": "totalSlips",
          "type": "uint32"
        },
        {
          "indexed": false,
          "internalType": "uint256",
          "name": "averageScore",
          "type": "uint256"
        }
      ],
      "name": "AnalyticsUpdated",
      "type": "event"
    },
    {
      "anonymous": false,
      "inputs": [
        {
          "indexed": true,
          "internalType": "uint256",
          "name": "cycleId",
          "type": "uint256"
        },
        {
          "indexed": false,
          "internalType": "uint256",
          "name": "endTime",
          "type": "uint256"
        },
        {
          "indexed": false,
          "internalType": "uint32",
          "name": "totalSlips",
          "type": "uint32"
        }
      ],
      "name": "CycleEnded",
      "type": "event"
    },
    {
      "anonymous": false,
      "inputs": [
        {
          "indexed": true,
          "internalType": "uint256",
          "name": "cycleId",
          "type": "uint256"
        },
        {
          "indexed": false,
          "internalType": "uint256",
          "name": "prizePool",
          "type": "uint256"
        }
      ],
      "name": "CycleResolved",
      "type": "event"
    },
    {
      "anonymous": false,
      "inputs": [
        {
          "indexed": true,
          "internalType": "uint256",
          "name": "cycleId",
          "type": "uint256"
        },
        {
          "indexed": false,
          "internalType": "uint256",
          "name": "endTime",
          "type": "uint256"
        }
      ],
      "name": "CycleStarted",
      "type": "event"
    },
    {
      "anonymous": false,
      "inputs": [
        {
          "indexed": true,
          "internalType": "uint256",
          "name": "newFee",
          "type": "uint256"
        }
      ],
      "name": "EntryFeeSet",
      "type": "event"
    },
    {
      "anonymous": false,
      "inputs": [
        {
          "indexed": true,
          "internalType": "uint256",
          "name": "cycleId",
          "type": "uint256"
        },
        {
          "indexed": true,
          "internalType": "address",
          "name": "player",
          "type": "address"
        },
        {
          "indexed": true,
          "internalType": "uint256",
          "name": "slipId",
          "type": "uint256"
        },
        {
          "indexed": false,
          "internalType": "uint8",
          "name": "rank",
          "type": "uint8"
        },
        {
          "indexed": false,
          "internalType": "uint256",
          "name": "finalScore",
          "type": "uint256"
        }
      ],
      "name": "LeaderboardUpdated",
      "type": "event"
    },
    {
      "anonymous": false,
      "inputs": [
        {
          "indexed": true,
          "internalType": "address",
          "name": "user",
          "type": "address"
        },
        {
          "indexed": false,
          "internalType": "uint256",
          "name": "pointsEarned",
          "type": "uint256"
        },
        {
          "indexed": false,
          "internalType": "uint256",
          "name": "correctPredictions",
          "type": "uint256"
        },
        {
          "indexed": false,
          "internalType": "uint256",
          "name": "totalReputation",
          "type": "uint256"
        }
      ],
      "name": "OddysseyReputationUpdated",
      "type": "event"
    },
    {
      "anonymous": false,
      "inputs": [
        {
          "indexed": true,
          "internalType": "address",
          "name": "newOracle",
          "type": "address"
        }
      ],
      "name": "OracleSet",
      "type": "event"
    },
    {
      "anonymous": false,
      "inputs": [
        {
          "indexed": true,
          "internalType": "address",
          "name": "previousOwner",
          "type": "address"
        },
        {
          "indexed": true,
          "internalType": "address",
          "name": "newOwner",
          "type": "address"
        }
      ],
      "name": "OwnershipTransferred",
      "type": "event"
    },
    {
      "anonymous": false,
      "inputs": [
        {
          "indexed": true,
          "internalType": "uint256",
          "name": "cycleId",
          "type": "uint256"
        },
        {
          "indexed": true,
          "internalType": "address",
          "name": "player",
          "type": "address"
        },
        {
          "indexed": true,
          "internalType": "uint256",
          "name": "slipId",
          "type": "uint256"
        },
        {
          "indexed": false,
          "internalType": "uint256",
          "name": "rank",
          "type": "uint256"
        },
        {
          "indexed": false,
          "internalType": "uint256",
          "name": "amount",
          "type": "uint256"
        }
      ],
      "name": "PrizeClaimed",
      "type": "event"
    },
    {
      "anonymous": false,
      "inputs": [
        {
          "indexed": true,
          "internalType": "uint256",
          "name": "fromCycleId",
          "type": "uint256"
        },
        {
          "indexed": true,
          "internalType": "uint256",
          "name": "toCycleId",
          "type": "uint256"
        },
        {
          "indexed": false,
          "internalType": "uint256",
          "name": "amount",
          "type": "uint256"
        }
      ],
      "name": "PrizeRollover",
      "type": "event"
    },
    {
      "anonymous": false,
      "inputs": [
        {
          "indexed": true,
          "internalType": "address",
          "name": "user",
          "type": "address"
        },
        {
          "indexed": false,
          "internalType": "enum IReputationSystem.ReputationAction",
          "name": "action",
          "type": "uint8"
        },
        {
          "indexed": false,
          "internalType": "uint256",
          "name": "value",
          "type": "uint256"
        },
        {
          "indexed": true,
          "internalType": "bytes32",
          "name": "cycleId",
          "type": "bytes32"
        },
        {
          "indexed": false,
          "internalType": "uint256",
          "name": "timestamp",
          "type": "uint256"
        }
      ],
      "name": "ReputationActionOccurred",
      "type": "event"
    },
    {
      "anonymous": false,
      "inputs": [
        {
          "indexed": true,
          "internalType": "uint256",
          "name": "slipId",
          "type": "uint256"
        },
        {
          "indexed": true,
          "internalType": "address",
          "name": "player",
          "type": "address"
        },
        {
          "indexed": true,
          "internalType": "uint256",
          "name": "cycleId",
          "type": "uint256"
        },
        {
          "indexed": false,
          "internalType": "uint8",
          "name": "correctCount",
          "type": "uint8"
        },
        {
          "indexed": false,
          "internalType": "uint256",
          "name": "finalScore",
          "type": "uint256"
        }
      ],
      "name": "SlipEvaluated",
      "type": "event"
    },
    {
      "anonymous": false,
      "inputs": [
        {
          "indexed": true,
          "internalType": "uint256",
          "name": "cycleId",
          "type": "uint256"
        },
        {
          "indexed": true,
          "internalType": "address",
          "name": "player",
          "type": "address"
        },
        {
          "indexed": true,
          "internalType": "uint256",
          "name": "slipId",
          "type": "uint256"
        }
      ],
      "name": "SlipPlaced",
      "type": "event"
    },
    {
      "anonymous": false,
      "inputs": [
        {
          "indexed": true,
          "internalType": "address",
          "name": "user",
          "type": "address"
        },
        {
          "indexed": false,
          "internalType": "uint256",
          "name": "totalSlips",
          "type": "uint256"
        },
        {
          "indexed": false,
          "internalType": "uint256",
          "name": "totalWins",
          "type": "uint256"
        },
        {
          "indexed": false,
          "internalType": "uint256",
          "name": "bestScore",
          "type": "uint256"
        },
        {
          "indexed": false,
          "internalType": "uint256",
          "name": "winRate",
          "type": "uint256"
        }
      ],
      "name": "UserStatsUpdated",
      "type": "event"
    },
    {
      "inputs": [],
      "name": "DAILY_LEADERBOARD_SIZE",
      "outputs": [
        {
          "internalType": "uint256",
          "name": "",
          "type": "uint256"
        }
      ],
      "stateMutability": "view",
      "type": "function"
    },
    {
      "inputs": [],
      "name": "DEV_FEE_PERCENTAGE",
      "outputs": [
        {
          "internalType": "uint256",
          "name": "",
          "type": "uint256"
        }
      ],
      "stateMutability": "view",
      "type": "function"
    },
    {
      "inputs": [],
      "name": "MATCH_COUNT",
      "outputs": [
        {
          "internalType": "uint256",
          "name": "",
          "type": "uint256"
        }
      ],
      "stateMutability": "view",
      "type": "function"
    },
    {
      "inputs": [],
      "name": "MAX_CYCLES_TO_RESOLVE",
      "outputs": [
        {
          "internalType": "uint256",
          "name": "",
          "type": "uint256"
        }
      ],
      "stateMutability": "view",
      "type": "function"
    },
    {
      "inputs": [],
      "name": "MIN_CORRECT_PREDICTIONS",
      "outputs": [
        {
          "internalType": "uint256",
          "name": "",
          "type": "uint256"
        }
      ],
      "stateMutability": "view",
      "type": "function"
    },
    {
      "inputs": [],
      "name": "ODDS_SCALING_FACTOR",
      "outputs": [
        {
          "internalType": "uint256",
          "name": "",
          "type": "uint256"
        }
      ],
      "stateMutability": "view",
      "type": "function"
    },
    {
      "inputs": [],
      "name": "PRIZE_ROLLOVER_FEE_PERCENTAGE",
      "outputs": [
        {
          "internalType": "uint256",
          "name": "",
          "type": "uint256"
        }
      ],
      "stateMutability": "view",
      "type": "function"
    },
    {
      "inputs": [
        {
          "internalType": "address",
          "name": "_user",
          "type": "address"
        },
        {
          "internalType": "uint256",
          "name": "_cycleId",
          "type": "uint256"
        },
        {
          "internalType": "uint256",
          "name": "_slipId",
          "type": "uint256"
        }
      ],
      "name": "canClaimPrize",
      "outputs": [
        {
          "internalType": "bool",
          "name": "canClaim",
          "type": "bool"
        },
        {
          "internalType": "uint8",
          "name": "rank",
          "type": "uint8"
        }
      ],
      "stateMutability": "view",
      "type": "function"
    },
    {
      "inputs": [
        {
          "internalType": "uint256[]",
          "name": "_cycleIds",
          "type": "uint256[]"
        },
        {
          "internalType": "uint256[]",
          "name": "_slipIds",
          "type": "uint256[]"
        }
      ],
      "name": "claimMultiplePrizes",
      "outputs": [],
      "stateMutability": "nonpayable",
      "type": "function"
    },
    {
      "inputs": [
        {
          "internalType": "uint256",
          "name": "_cycleId",
          "type": "uint256"
        },
        {
          "internalType": "uint256",
          "name": "_slipId",
          "type": "uint256"
        }
      ],
      "name": "claimPrize",
      "outputs": [],
      "stateMutability": "nonpayable",
      "type": "function"
    },
    {
      "inputs": [
        {
          "internalType": "uint256",
          "name": "",
          "type": "uint256"
        }
      ],
      "name": "claimableStartTimes",
      "outputs": [
        {
          "internalType": "uint256",
          "name": "",
          "type": "uint256"
        }
      ],
      "stateMutability": "view",
      "type": "function"
    },
    {
      "inputs": [
        {
          "internalType": "uint256",
          "name": "",
          "type": "uint256"
        }
      ],
      "name": "cycleInfo",
      "outputs": [
        {
          "internalType": "uint256",
          "name": "startTime",
          "type": "uint256"
        },
        {
          "internalType": "uint256",
          "name": "endTime",
          "type": "uint256"
        },
        {
          "internalType": "uint256",
          "name": "prizePool",
          "type": "uint256"
        },
        {
          "internalType": "uint32",
          "name": "slipCount",
          "type": "uint32"
        },
        {
          "internalType": "uint32",
          "name": "evaluatedSlips",
          "type": "uint32"
        },
        {
          "internalType": "enum Oddyssey.CycleState",
          "name": "state",
          "type": "uint8"
        },
        {
          "internalType": "bool",
          "name": "hasWinner",
          "type": "bool"
        }
      ],
      "stateMutability": "view",
      "type": "function"
    },
    {
      "inputs": [
        {
          "internalType": "uint256",
          "name": "",
          "type": "uint256"
        }
      ],
      "name": "cycleStats",
      "outputs": [
        {
          "internalType": "uint256",
          "name": "volume",
          "type": "uint256"
        },
        {
          "internalType": "uint32",
          "name": "slips",
          "type": "uint32"
        },
        {
          "internalType": "uint32",
          "name": "evaluatedSlips",
          "type": "uint32"
        }
      ],
      "stateMutability": "view",
      "type": "function"
    },
    {
      "inputs": [
        {
          "internalType": "uint256",
          "name": "",
          "type": "uint256"
        }
      ],
      "name": "dailyAverageScore",
      "outputs": [
        {
          "internalType": "uint256",
          "name": "",
          "type": "uint256"
        }
      ],
      "stateMutability": "view",
      "type": "function"
    },
    {
      "inputs": [
        {
          "internalType": "uint256",
          "name": "",
          "type": "uint256"
        }
      ],
      "name": "dailyCorrectPredictions",
      "outputs": [
        {
          "internalType": "uint256",
          "name": "",
          "type": "uint256"
        }
      ],
      "stateMutability": "view",
      "type": "function"
    },
    {
      "inputs": [
        {
          "internalType": "uint256",
          "name": "",
          "type": "uint256"
        }
      ],
      "name": "dailyCycleEndTimes",
      "outputs": [
        {
          "internalType": "uint256",
          "name": "",
          "type": "uint256"
        }
      ],
      "stateMutability": "view",
      "type": "function"
    },
    {
      "inputs": [],
      "name": "dailyCycleId",
      "outputs": [
        {
          "internalType": "uint256",
          "name": "",
          "type": "uint256"
        }
      ],
      "stateMutability": "view",
      "type": "function"
    },
    {
      "inputs": [
        {
          "internalType": "uint256",
          "name": "",
          "type": "uint256"
        }
      ],
      "name": "dailyEvaluatedSlips",
      "outputs": [
        {
          "internalType": "uint256",
          "name": "",
          "type": "uint256"
        }
      ],
      "stateMutability": "view",
      "type": "function"
    },
    {
      "inputs": [
        {
          "internalType": "uint256",
          "name": "",
          "type": "uint256"
        },
        {
          "internalType": "uint256",
          "name": "",
          "type": "uint256"
        }
      ],
      "name": "dailyLeaderboards",
      "outputs": [
        {
          "internalType": "address",
          "name": "player",
          "type": "address"
        },
        {
          "internalType": "uint256",
          "name": "slipId",
          "type": "uint256"
        },
        {
          "internalType": "uint256",
          "name": "finalScore",
          "type": "uint256"
        },
        {
          "internalType": "uint8",
          "name": "correctCount",
          "type": "uint8"
        }
      ],
      "stateMutability": "view",
      "type": "function"
    },
    {
      "inputs": [
        {
          "internalType": "uint256",
          "name": "",
          "type": "uint256"
        },
        {
          "internalType": "uint256",
          "name": "",
          "type": "uint256"
        }
      ],
      "name": "dailyMatches",
      "outputs": [
        {
          "internalType": "uint64",
          "name": "id",
          "type": "uint64"
        },
        {
          "internalType": "uint64",
          "name": "startTime",
          "type": "uint64"
        },
        {
          "internalType": "uint32",
          "name": "oddsHome",
          "type": "uint32"
        },
        {
          "internalType": "uint32",
          "name": "oddsDraw",
          "type": "uint32"
        },
        {
          "internalType": "uint32",
          "name": "oddsAway",
          "type": "uint32"
        },
        {
          "internalType": "uint32",
          "name": "oddsOver",
          "type": "uint32"
        },
        {
          "internalType": "uint32",
          "name": "oddsUnder",
          "type": "uint32"
        },
        {
          "internalType": "string",
          "name": "homeTeam",
          "type": "string"
        },
        {
          "internalType": "string",
          "name": "awayTeam",
          "type": "string"
        },
        {
          "internalType": "string",
          "name": "leagueName",
          "type": "string"
        },
        {
          "components": [
            {
              "internalType": "enum Oddyssey.MoneylineResult",
              "name": "moneyline",
              "type": "uint8"
            },
            {
              "internalType": "enum Oddyssey.OverUnderResult",
              "name": "overUnder",
              "type": "uint8"
            }
          ],
          "internalType": "struct Oddyssey.Result",
          "name": "result",
          "type": "tuple"
        }
      ],
      "stateMutability": "view",
      "type": "function"
    },
    {
      "inputs": [
        {
          "internalType": "uint256",
          "name": "",
          "type": "uint256"
        }
      ],
      "name": "dailyMaxScore",
      "outputs": [
        {
          "internalType": "uint256",
          "name": "",
          "type": "uint256"
        }
      ],
      "stateMutability": "view",
      "type": "function"
    },
    {
      "inputs": [
        {
          "internalType": "uint256",
          "name": "",
          "type": "uint256"
        }
      ],
      "name": "dailyMinScore",
      "outputs": [
        {
          "internalType": "uint256",
          "name": "",
          "type": "uint256"
        }
      ],
      "stateMutability": "view",
      "type": "function"
    },
    {
      "inputs": [
        {
          "internalType": "uint256",
          "name": "",
          "type": "uint256"
        }
      ],
      "name": "dailyPrizePools",
      "outputs": [
        {
          "internalType": "uint256",
          "name": "",
          "type": "uint256"
        }
      ],
      "stateMutability": "view",
      "type": "function"
    },
    {
      "inputs": [
        {
          "internalType": "uint256",
          "name": "",
          "type": "uint256"
        }
      ],
      "name": "dailySlipCount",
      "outputs": [
        {
          "internalType": "uint256",
          "name": "",
          "type": "uint256"
        }
      ],
      "stateMutability": "view",
      "type": "function"
    },
    {
      "inputs": [
        {
          "internalType": "uint256",
          "name": "",
          "type": "uint256"
        }
      ],
      "name": "dailyUserCount",
      "outputs": [
        {
          "internalType": "uint256",
          "name": "",
          "type": "uint256"
        }
      ],
      "stateMutability": "view",
      "type": "function"
    },
    {
      "inputs": [
        {
          "internalType": "uint256",
          "name": "",
          "type": "uint256"
        }
      ],
      "name": "dailyVolume",
      "outputs": [
        {
          "internalType": "uint256",
          "name": "",
          "type": "uint256"
        }
      ],
      "stateMutability": "view",
      "type": "function"
    },
    {
      "inputs": [
        {
          "internalType": "uint256",
          "name": "",
          "type": "uint256"
        }
      ],
      "name": "dailyWinnersCount",
      "outputs": [
        {
          "internalType": "uint256",
          "name": "",
          "type": "uint256"
        }
      ],
      "stateMutability": "view",
      "type": "function"
    },
    {
      "inputs": [],
      "name": "devWallet",
      "outputs": [
        {
          "internalType": "address",
          "name": "",
          "type": "address"
        }
      ],
      "stateMutability": "view",
      "type": "function"
    },
    {
      "inputs": [],
      "name": "entryFee",
      "outputs": [
        {
          "internalType": "uint256",
          "name": "",
          "type": "uint256"
        }
      ],
      "stateMutability": "view",
      "type": "function"
    },
    {
      "inputs": [
        {
          "internalType": "uint256[]",
          "name": "_slipIds",
          "type": "uint256[]"
        }
      ],
      "name": "evaluateMultipleSlips",
      "outputs": [],
      "stateMutability": "nonpayable",
      "type": "function"
    },
    {
      "inputs": [
        {
          "internalType": "uint256",
          "name": "_slipId",
          "type": "uint256"
        }
      ],
      "name": "evaluateSlip",
      "outputs": [],
      "stateMutability": "nonpayable",
      "type": "function"
    },
    {
      "inputs": [
        {
          "internalType": "address",
          "name": "_user",
          "type": "address"
        }
      ],
      "name": "getAllUserSlips",
      "outputs": [
        {
          "internalType": "uint256[]",
          "name": "",
          "type": "uint256[]"
        }
      ],
      "stateMutability": "view",
      "type": "function"
    },
    {
      "inputs": [
        {
          "internalType": "uint256[]",
          "name": "_slipIds",
          "type": "uint256[]"
        }
      ],
      "name": "getBatchSlips",
      "outputs": [
        {
          "components": [
            {
              "internalType": "address",
              "name": "player",
              "type": "address"
            },
            {
              "internalType": "uint256",
              "name": "cycleId",
              "type": "uint256"
            },
            {
              "internalType": "uint256",
              "name": "placedAt",
              "type": "uint256"
            },
            {
              "components": [
                {
                  "internalType": "uint64",
                  "name": "matchId",
                  "type": "uint64"
                },
                {
                  "internalType": "enum Oddyssey.BetType",
                  "name": "betType",
                  "type": "uint8"
                },
                {
                  "internalType": "string",
                  "name": "selection",
                  "type": "string"
                },
                {
                  "internalType": "uint32",
                  "name": "selectedOdd",
                  "type": "uint32"
                },
                {
                  "internalType": "string",
                  "name": "homeTeam",
                  "type": "string"
                },
                {
                  "internalType": "string",
                  "name": "awayTeam",
                  "type": "string"
                },
                {
                  "internalType": "string",
                  "name": "leagueName",
                  "type": "string"
                }
              ],
              "internalType": "struct Oddyssey.UserPrediction[10]",
              "name": "predictions",
              "type": "tuple[10]"
            },
            {
              "internalType": "uint256",
              "name": "finalScore",
              "type": "uint256"
            },
            {
              "internalType": "uint8",
              "name": "correctCount",
              "type": "uint8"
            },
            {
              "internalType": "bool",
              "name": "isEvaluated",
              "type": "bool"
            }
          ],
          "internalType": "struct Oddyssey.Slip[]",
          "name": "",
          "type": "tuple[]"
        }
      ],
      "stateMutability": "view",
      "type": "function"
    },
    {
      "inputs": [],
      "name": "getCurrentCycle",
      "outputs": [
        {
          "internalType": "uint256",
          "name": "",
          "type": "uint256"
        }
      ],
      "stateMutability": "view",
      "type": "function"
    },
    {
      "inputs": [],
      "name": "getCurrentCycleInfo",
      "outputs": [
        {
          "internalType": "uint256",
          "name": "cycleId",
          "type": "uint256"
        },
        {
          "internalType": "uint8",
          "name": "state",
          "type": "uint8"
        },
        {
          "internalType": "uint256",
          "name": "endTime",
          "type": "uint256"
        },
        {
          "internalType": "uint256",
          "name": "prizePool",
          "type": "uint256"
        },
        {
          "internalType": "uint32",
          "name": "cycleSlipCount",
          "type": "uint32"
        }
      ],
      "stateMutability": "view",
      "type": "function"
    },
    {
      "inputs": [
        {
          "internalType": "uint256",
          "name": "_cycleId",
          "type": "uint256"
        }
      ],
      "name": "getCycleMatches",
      "outputs": [
        {
          "components": [
            {
              "internalType": "uint64",
              "name": "id",
              "type": "uint64"
            },
            {
              "internalType": "uint64",
              "name": "startTime",
              "type": "uint64"
            },
            {
              "internalType": "uint32",
              "name": "oddsHome",
              "type": "uint32"
            },
            {
              "internalType": "uint32",
              "name": "oddsDraw",
              "type": "uint32"
            },
            {
              "internalType": "uint32",
              "name": "oddsAway",
              "type": "uint32"
            },
            {
              "internalType": "uint32",
              "name": "oddsOver",
              "type": "uint32"
            },
            {
              "internalType": "uint32",
              "name": "oddsUnder",
              "type": "uint32"
            },
            {
              "internalType": "string",
              "name": "homeTeam",
              "type": "string"
            },
            {
              "internalType": "string",
              "name": "awayTeam",
              "type": "string"
            },
            {
              "internalType": "string",
              "name": "leagueName",
              "type": "string"
            },
            {
              "components": [
                {
                  "internalType": "enum Oddyssey.MoneylineResult",
                  "name": "moneyline",
                  "type": "uint8"
                },
                {
                  "internalType": "enum Oddyssey.OverUnderResult",
                  "name": "overUnder",
                  "type": "uint8"
                }
              ],
              "internalType": "struct Oddyssey.Result",
              "name": "result",
              "type": "tuple"
            }
          ],
          "internalType": "struct Oddyssey.Match[10]",
          "name": "",
          "type": "tuple[10]"
        }
      ],
      "stateMutability": "view",
      "type": "function"
    },
    {
      "inputs": [
        {
          "internalType": "uint256",
          "name": "_cycleId",
          "type": "uint256"
        }
      ],
      "name": "getCycleStatus",
      "outputs": [
        {
          "internalType": "bool",
          "name": "exists",
          "type": "bool"
        },
        {
          "internalType": "uint8",
          "name": "state",
          "type": "uint8"
        },
        {
          "internalType": "uint256",
          "name": "endTime",
          "type": "uint256"
        },
        {
          "internalType": "uint256",
          "name": "prizePool",
          "type": "uint256"
        },
        {
          "internalType": "uint32",
          "name": "cycleSlipCount",
          "type": "uint32"
        },
        {
          "internalType": "bool",
          "name": "hasWinner",
          "type": "bool"
        }
      ],
      "stateMutability": "view",
      "type": "function"
    },
    {
      "inputs": [
        {
          "internalType": "uint256",
          "name": "_cycleId",
          "type": "uint256"
        }
      ],
      "name": "getDailyLeaderboard",
      "outputs": [
        {
          "components": [
            {
              "internalType": "address",
              "name": "player",
              "type": "address"
            },
            {
              "internalType": "uint256",
              "name": "slipId",
              "type": "uint256"
            },
            {
              "internalType": "uint256",
              "name": "finalScore",
              "type": "uint256"
            },
            {
              "internalType": "uint8",
              "name": "correctCount",
              "type": "uint8"
            }
          ],
          "internalType": "struct Oddyssey.LeaderboardEntry[5]",
          "name": "",
          "type": "tuple[5]"
        }
      ],
      "stateMutability": "view",
      "type": "function"
    },
    {
      "inputs": [
        {
          "internalType": "uint256",
          "name": "_cycleId",
          "type": "uint256"
        }
      ],
      "name": "getDailyMatches",
      "outputs": [
        {
          "components": [
            {
              "internalType": "uint64",
              "name": "id",
              "type": "uint64"
            },
            {
              "internalType": "uint64",
              "name": "startTime",
              "type": "uint64"
            },
            {
              "internalType": "uint32",
              "name": "oddsHome",
              "type": "uint32"
            },
            {
              "internalType": "uint32",
              "name": "oddsDraw",
              "type": "uint32"
            },
            {
              "internalType": "uint32",
              "name": "oddsAway",
              "type": "uint32"
            },
            {
              "internalType": "uint32",
              "name": "oddsOver",
              "type": "uint32"
            },
            {
              "internalType": "uint32",
              "name": "oddsUnder",
              "type": "uint32"
            },
            {
              "internalType": "string",
              "name": "homeTeam",
              "type": "string"
            },
            {
              "internalType": "string",
              "name": "awayTeam",
              "type": "string"
            },
            {
              "internalType": "string",
              "name": "leagueName",
              "type": "string"
            },
            {
              "components": [
                {
                  "internalType": "enum Oddyssey.MoneylineResult",
                  "name": "moneyline",
                  "type": "uint8"
                },
                {
                  "internalType": "enum Oddyssey.OverUnderResult",
                  "name": "overUnder",
                  "type": "uint8"
                }
              ],
              "internalType": "struct Oddyssey.Result",
              "name": "result",
              "type": "tuple"
            }
          ],
          "internalType": "struct Oddyssey.Match[10]",
          "name": "",
          "type": "tuple[10]"
        }
      ],
      "stateMutability": "view",
      "type": "function"
    },
    {
      "inputs": [
        {
          "internalType": "uint256",
          "name": "_cycleId",
          "type": "uint256"
        }
      ],
      "name": "getDailyStats",
      "outputs": [
        {
          "components": [
            {
              "internalType": "uint256",
              "name": "slipCount",
              "type": "uint256"
            },
            {
              "internalType": "uint256",
              "name": "userCount",
              "type": "uint256"
            },
            {
              "internalType": "uint256",
              "name": "volume",
              "type": "uint256"
            },
            {
              "internalType": "uint256",
              "name": "correctPredictions",
              "type": "uint256"
            },
            {
              "internalType": "uint256",
              "name": "evaluatedSlips",
              "type": "uint256"
            },
            {
              "internalType": "uint256",
              "name": "averageScore",
              "type": "uint256"
            },
            {
              "internalType": "uint256",
              "name": "maxScore",
              "type": "uint256"
            },
            {
              "internalType": "uint256",
              "name": "minScore",
              "type": "uint256"
            },
            {
              "internalType": "uint256",
              "name": "winnersCount",
              "type": "uint256"
            }
          ],
          "internalType": "struct Oddyssey.DailyStats",
          "name": "",
          "type": "tuple"
        }
      ],
      "stateMutability": "view",
      "type": "function"
    },
    {
      "inputs": [
        {
          "internalType": "uint256",
          "name": "_slipId",
          "type": "uint256"
        }
      ],
      "name": "getSlip",
      "outputs": [
        {
          "components": [
            {
              "internalType": "address",
              "name": "player",
              "type": "address"
            },
            {
              "internalType": "uint256",
              "name": "cycleId",
              "type": "uint256"
            },
            {
              "internalType": "uint256",
              "name": "placedAt",
              "type": "uint256"
            },
            {
              "components": [
                {
                  "internalType": "uint64",
                  "name": "matchId",
                  "type": "uint64"
                },
                {
                  "internalType": "enum Oddyssey.BetType",
                  "name": "betType",
                  "type": "uint8"
                },
                {
                  "internalType": "string",
                  "name": "selection",
                  "type": "string"
                },
                {
                  "internalType": "uint32",
                  "name": "selectedOdd",
                  "type": "uint32"
                },
                {
                  "internalType": "string",
                  "name": "homeTeam",
                  "type": "string"
                },
                {
                  "internalType": "string",
                  "name": "awayTeam",
                  "type": "string"
                },
                {
                  "internalType": "string",
                  "name": "leagueName",
                  "type": "string"
                }
              ],
              "internalType": "struct Oddyssey.UserPrediction[10]",
              "name": "predictions",
              "type": "tuple[10]"
            },
            {
              "internalType": "uint256",
              "name": "finalScore",
              "type": "uint256"
            },
            {
              "internalType": "uint8",
              "name": "correctCount",
              "type": "uint8"
            },
            {
              "internalType": "bool",
              "name": "isEvaluated",
              "type": "bool"
            }
          ],
          "internalType": "struct Oddyssey.Slip",
          "name": "",
          "type": "tuple"
        }
      ],
      "stateMutability": "view",
      "type": "function"
    },
    {
      "inputs": [
        {
          "internalType": "address",
          "name": "_user",
          "type": "address"
        }
      ],
      "name": "getUserData",
      "outputs": [
        {
          "components": [
            {
              "internalType": "uint256",
              "name": "totalSlips",
              "type": "uint256"
            },
            {
              "internalType": "uint256",
              "name": "totalWins",
              "type": "uint256"
            },
            {
              "internalType": "uint256",
              "name": "bestScore",
              "type": "uint256"
            },
            {
              "internalType": "uint256",
              "name": "averageScore",
              "type": "uint256"
            },
            {
              "internalType": "uint256",
              "name": "winRate",
              "type": "uint256"
            },
            {
              "internalType": "uint256",
              "name": "currentStreak",
              "type": "uint256"
            },
            {
              "internalType": "uint256",
              "name": "bestStreak",
              "type": "uint256"
            },
            {
              "internalType": "uint256",
              "name": "lastActiveCycle",
              "type": "uint256"
            }
          ],
          "internalType": "struct Oddyssey.UserStats",
          "name": "userStatsData",
          "type": "tuple"
        },
        {
          "internalType": "uint256",
          "name": "reputation",
          "type": "uint256"
        },
        {
          "internalType": "uint256",
          "name": "correctPredictions",
          "type": "uint256"
        }
      ],
      "stateMutability": "view",
      "type": "function"
    },
    {
      "inputs": [
        {
          "internalType": "address",
          "name": "_user",
          "type": "address"
        }
      ],
      "name": "getUserSlipCount",
      "outputs": [
        {
          "internalType": "uint256",
          "name": "",
          "type": "uint256"
        }
      ],
      "stateMutability": "view",
      "type": "function"
    },
    {
      "inputs": [
        {
          "internalType": "address",
          "name": "_user",
          "type": "address"
        },
        {
          "internalType": "uint256",
          "name": "_cycleId",
          "type": "uint256"
        }
      ],
      "name": "getUserSlipsForCycle",
      "outputs": [
        {
          "internalType": "uint256[]",
          "name": "",
          "type": "uint256[]"
        }
      ],
      "stateMutability": "view",
      "type": "function"
    },
    {
      "inputs": [
        {
          "internalType": "address",
          "name": "_user",
          "type": "address"
        },
        {
          "internalType": "uint256",
          "name": "_cycleId",
          "type": "uint256"
        }
      ],
      "name": "getUserSlipsWithData",
      "outputs": [
        {
          "internalType": "uint256[]",
          "name": "slipIds",
          "type": "uint256[]"
        },
        {
          "components": [
            {
              "internalType": "address",
              "name": "player",
              "type": "address"
            },
            {
              "internalType": "uint256",
              "name": "cycleId",
              "type": "uint256"
            },
            {
              "internalType": "uint256",
              "name": "placedAt",
              "type": "uint256"
            },
            {
              "components": [
                {
                  "internalType": "uint64",
                  "name": "matchId",
                  "type": "uint64"
                },
                {
                  "internalType": "enum Oddyssey.BetType",
                  "name": "betType",
                  "type": "uint8"
                },
                {
                  "internalType": "string",
                  "name": "selection",
                  "type": "string"
                },
                {
                  "internalType": "uint32",
                  "name": "selectedOdd",
                  "type": "uint32"
                },
                {
                  "internalType": "string",
                  "name": "homeTeam",
                  "type": "string"
                },
                {
                  "internalType": "string",
                  "name": "awayTeam",
                  "type": "string"
                },
                {
                  "internalType": "string",
                  "name": "leagueName",
                  "type": "string"
                }
              ],
              "internalType": "struct Oddyssey.UserPrediction[10]",
              "name": "predictions",
              "type": "tuple[10]"
            },
            {
              "internalType": "uint256",
              "name": "finalScore",
              "type": "uint256"
            },
            {
              "internalType": "uint8",
              "name": "correctCount",
              "type": "uint8"
            },
            {
              "internalType": "bool",
              "name": "isEvaluated",
              "type": "bool"
            }
          ],
          "internalType": "struct Oddyssey.Slip[]",
          "name": "slipsData",
          "type": "tuple[]"
        }
      ],
      "stateMutability": "view",
      "type": "function"
    },
    {
      "inputs": [
        {
          "internalType": "uint256",
          "name": "_cycleId",
          "type": "uint256"
        }
      ],
      "name": "isCycleInitialized",
      "outputs": [
        {
          "internalType": "bool",
          "name": "",
          "type": "bool"
        }
      ],
      "stateMutability": "view",
      "type": "function"
    },
    {
      "inputs": [
        {
          "internalType": "uint256",
          "name": "",
          "type": "uint256"
        }
      ],
      "name": "isCycleResolved",
      "outputs": [
        {
          "internalType": "bool",
          "name": "",
          "type": "bool"
        }
      ],
      "stateMutability": "view",
      "type": "function"
    },
    {
      "inputs": [],
      "name": "oracle",
      "outputs": [
        {
          "internalType": "address",
          "name": "",
          "type": "address"
        }
      ],
      "stateMutability": "view",
      "type": "function"
    },
    {
      "inputs": [],
      "name": "owner",
      "outputs": [
        {
          "internalType": "address",
          "name": "",
          "type": "address"
        }
      ],
      "stateMutability": "view",
      "type": "function"
    },
    {
      "inputs": [
        {
          "components": [
            {
              "internalType": "uint64",
              "name": "matchId",
              "type": "uint64"
            },
            {
              "internalType": "enum Oddyssey.BetType",
              "name": "betType",
              "type": "uint8"
            },
            {
              "internalType": "string",
              "name": "selection",
              "type": "string"
            },
            {
              "internalType": "uint32",
              "name": "selectedOdd",
              "type": "uint32"
            },
            {
              "internalType": "string",
              "name": "homeTeam",
              "type": "string"
            },
            {
              "internalType": "string",
              "name": "awayTeam",
              "type": "string"
            },
            {
              "internalType": "string",
              "name": "leagueName",
              "type": "string"
            }
          ],
          "internalType": "struct Oddyssey.UserPrediction[10]",
          "name": "_predictions",
          "type": "tuple[10]"
        }
      ],
      "name": "placeSlip",
      "outputs": [],
      "stateMutability": "payable",
      "type": "function"
    },
    {
      "inputs": [
        {
          "internalType": "uint256",
          "name": "",
          "type": "uint256"
        },
        {
          "internalType": "uint8",
          "name": "",
          "type": "uint8"
        }
      ],
      "name": "prizeClaimed",
      "outputs": [
        {
          "internalType": "bool",
          "name": "",
          "type": "bool"
        }
      ],
      "stateMutability": "view",
      "type": "function"
    },
    {
      "inputs": [],
      "name": "renounceOwnership",
      "outputs": [],
      "stateMutability": "nonpayable",
      "type": "function"
    },
    {
      "inputs": [],
      "name": "reputationSystem",
      "outputs": [
        {
          "internalType": "contract IReputationSystem",
          "name": "",
          "type": "address"
        }
      ],
      "stateMutability": "view",
      "type": "function"
    },
    {
      "inputs": [
        {
          "internalType": "uint256",
          "name": "_cycleId",
          "type": "uint256"
        },
        {
          "components": [
            {
              "internalType": "enum Oddyssey.MoneylineResult",
              "name": "moneyline",
              "type": "uint8"
            },
            {
              "internalType": "enum Oddyssey.OverUnderResult",
              "name": "overUnder",
              "type": "uint8"
            }
          ],
          "internalType": "struct Oddyssey.Result[10]",
          "name": "_results",
          "type": "tuple[10]"
        }
      ],
      "name": "resolveDailyCycle",
      "outputs": [],
      "stateMutability": "nonpayable",
      "type": "function"
    },
    {
      "inputs": [
        {
          "internalType": "uint256[]",
          "name": "_cycleIds",
          "type": "uint256[]"
        },
        {
          "components": [
            {
              "internalType": "enum Oddyssey.MoneylineResult",
              "name": "moneyline",
              "type": "uint8"
            },
            {
              "internalType": "enum Oddyssey.OverUnderResult",
              "name": "overUnder",
              "type": "uint8"
            }
          ],
          "internalType": "struct Oddyssey.Result[10][]",
          "name": "_results",
          "type": "tuple[10][]"
        }
      ],
      "name": "resolveMultipleCycles",
      "outputs": [],
      "stateMutability": "nonpayable",
      "type": "function"
    },
    {
      "inputs": [
        {
          "internalType": "uint256",
          "name": "_newFee",
          "type": "uint256"
        }
      ],
      "name": "setEntryFee",
      "outputs": [],
      "stateMutability": "nonpayable",
      "type": "function"
    },
    {
      "inputs": [
        {
          "internalType": "address",
          "name": "_newOracle",
          "type": "address"
        }
      ],
      "name": "setOracle",
      "outputs": [],
      "stateMutability": "nonpayable",
      "type": "function"
    },
    {
      "inputs": [
        {
          "internalType": "address",
          "name": "_reputationSystem",
          "type": "address"
        }
      ],
      "name": "setReputationSystem",
      "outputs": [],
      "stateMutability": "nonpayable",
      "type": "function"
    },
    {
      "inputs": [],
      "name": "slipCount",
      "outputs": [
        {
          "internalType": "uint256",
          "name": "",
          "type": "uint256"
        }
      ],
      "stateMutability": "view",
      "type": "function"
    },
    {
      "inputs": [
        {
          "internalType": "uint256",
          "name": "",
          "type": "uint256"
        }
      ],
      "name": "slips",
      "outputs": [
        {
          "internalType": "address",
          "name": "player",
          "type": "address"
        },
        {
          "internalType": "uint256",
          "name": "cycleId",
          "type": "uint256"
        },
        {
          "internalType": "uint256",
          "name": "placedAt",
          "type": "uint256"
        },
        {
          "internalType": "uint256",
          "name": "finalScore",
          "type": "uint256"
        },
        {
          "internalType": "uint8",
          "name": "correctCount",
          "type": "uint8"
        },
        {
          "internalType": "bool",
          "name": "isEvaluated",
          "type": "bool"
        }
      ],
      "stateMutability": "view",
      "type": "function"
    },
    {
      "inputs": [
        {
          "components": [
            {
              "internalType": "uint64",
              "name": "id",
              "type": "uint64"
            },
            {
              "internalType": "uint64",
              "name": "startTime",
              "type": "uint64"
            },
            {
              "internalType": "uint32",
              "name": "oddsHome",
              "type": "uint32"
            },
            {
              "internalType": "uint32",
              "name": "oddsDraw",
              "type": "uint32"
            },
            {
              "internalType": "uint32",
              "name": "oddsAway",
              "type": "uint32"
            },
            {
              "internalType": "uint32",
              "name": "oddsOver",
              "type": "uint32"
            },
            {
              "internalType": "uint32",
              "name": "oddsUnder",
              "type": "uint32"
            },
            {
              "internalType": "string",
              "name": "homeTeam",
              "type": "string"
            },
            {
              "internalType": "string",
              "name": "awayTeam",
              "type": "string"
            },
            {
              "internalType": "string",
              "name": "leagueName",
              "type": "string"
            },
            {
              "components": [
                {
                  "internalType": "enum Oddyssey.MoneylineResult",
                  "name": "moneyline",
                  "type": "uint8"
                },
                {
                  "internalType": "enum Oddyssey.OverUnderResult",
                  "name": "overUnder",
                  "type": "uint8"
                }
              ],
              "internalType": "struct Oddyssey.Result",
              "name": "result",
              "type": "tuple"
            }
          ],
          "internalType": "struct Oddyssey.Match[10]",
          "name": "_matches",
          "type": "tuple[10]"
        }
      ],
      "name": "startDailyCycle",
      "outputs": [],
      "stateMutability": "nonpayable",
      "type": "function"
    },
    {
      "inputs": [],
      "name": "stats",
      "outputs": [
        {
          "internalType": "uint256",
          "name": "totalVolume",
          "type": "uint256"
        },
        {
          "internalType": "uint32",
          "name": "totalSlips",
          "type": "uint32"
        },
        {
          "internalType": "uint256",
          "name": "highestOdd",
          "type": "uint256"
        }
      ],
      "stateMutability": "view",
      "type": "function"
    },
    {
      "inputs": [
        {
          "internalType": "address",
          "name": "newOwner",
          "type": "address"
        }
      ],
      "name": "transferOwnership",
      "outputs": [],
      "stateMutability": "nonpayable",
      "type": "function"
    },
    {
      "inputs": [
        {
          "internalType": "address",
          "name": "",
          "type": "address"
        }
      ],
      "name": "userOddysseyCorrectPredictions",
      "outputs": [
        {
          "internalType": "uint256",
          "name": "",
          "type": "uint256"
        }
      ],
      "stateMutability": "view",
      "type": "function"
    },
    {
      "inputs": [
        {
          "internalType": "address",
          "name": "",
          "type": "address"
        }
      ],
      "name": "userOddysseyReputation",
      "outputs": [
        {
          "internalType": "uint256",
          "name": "",
          "type": "uint256"
        }
      ],
      "stateMutability": "view",
      "type": "function"
    },
    {
      "inputs": [
        {
          "internalType": "address",
          "name": "",
          "type": "address"
        }
      ],
      "name": "userStats",
      "outputs": [
        {
          "internalType": "uint256",
          "name": "totalSlips",
          "type": "uint256"
        },
        {
          "internalType": "uint256",
          "name": "totalWins",
          "type": "uint256"
        },
        {
          "internalType": "uint256",
          "name": "bestScore",
          "type": "uint256"
        },
        {
          "internalType": "uint256",
          "name": "averageScore",
          "type": "uint256"
        },
        {
          "internalType": "uint256",
          "name": "winRate",
          "type": "uint256"
        },
        {
          "internalType": "uint256",
          "name": "currentStreak",
          "type": "uint256"
        },
        {
          "internalType": "uint256",
          "name": "bestStreak",
          "type": "uint256"
        },
        {
          "internalType": "uint256",
          "name": "lastActiveCycle",
          "type": "uint256"
        }
      ],
      "stateMutability": "view",
      "type": "function"
    }
  ],
  "bytecode": "0x60e0346200015b576200593190601f38839003908101601f19168201906001600160401b038211838310176200016057808391604095869485528339810103126200015b5780516001600160a01b03808216929091908382036200015b576020015191331562000143576000549360018060a01b03199433868216176000558651923391167f8be0079c531659141344cd1fd0a4f28419497f9722a3daafe3b4186f6b6457e0600080a360018055156200013457506706f05b59d3b200008203620001235760c052600355339060025416176002556101f48060805260a052516157ba90816200017782396080518181816116a60152614a3d015260a0518181816117760152615413015260c051818181611a4601528181614a6e01526154790152f35b835163b4fa3fb360e01b8152600490fd5b63b4fa3fb360e01b8152600490fd5b8451631e4fbdf760e01b815260006004820152602490fd5b600080fd5b634e487b7160e01b600052604160045260246000fdfe6080604052600436101561001257600080fd5b60003560e01c806302c009ef14613485578063042db2e6146109ff57806305b61d1114613467578063072ea61c146134495780630832275e1461330157806314bd9644146132e557806317ee395b1461329a5780631e7e465f146131555780632012ef0314612f1b578063210d5f5f14612e9257806325a2e0ed14612e665780632ac5df9314612e3a57806331143cee14612df7578063328621a614612c6657806335d8cbac14612c28578063361a979214612bb857806344f7960914612b375780634c3b193914612af35780634f4bc86e14612ab95780635052617d14612a9d578063590d0f9914612a805780635932ec0a14611e9b5780635b2fcc2514611e6f578063625d9ce514611e535780636587eda114611e2a5780636977f54614611e025780636f3fb30314611dd6578063715018a614611d8f57806373d2257314611d09578063745be57614611cdd5780637adbf97314611c685780637b15414014611c395780637d208cee14611bff5780637dc0d1d014611bd65780637e12170d14611b8d5780638366021714611b255780638a65d87414611a9e5780638da5cb5b14611a755780638ea5220f14611a305780639102e43014611a04578063943ca3b9146119d857806399a1c282146119ac5780639ad7884c146119585780639bea95ac14611927578063a0a806e71461189c578063a1ce7ecb14611799578063a4957efe1461175e578063af9b2bfb146116c9578063b0dbf47d1461168e578063ba1487ad1461137f578063ba61ebde14610a1d578063be26ed7f146109ff578063c56a00de1461098e578063c6b6850814610954578063c81b986c14610879578063cb2a74361461084d578063d2b17b5a14610821578063d80528ae146107ec578063e2f800d71461064e578063e734e60c14610622578063eb770d0c146105c3578063eebf3be514610597578063f2fde38b14610523578063f674c43514610439578063fbb0de531461041d5763ffc9896b146102f257600080fd5b34610418576020806003193601126104185761014090610310614322565b600060e060405161032081614166565b82815282858201528260408201528260608201528260808201528260a08201528260c0820152015260018060a01b03166000526007815260406000206008825260406000205460098352604060002054916040519061037e82614166565b805494858352600182015490808401918252600283015460408501908152600384015490606086019182526004850154926080870193845260058601549460a0880195865260e0600760068901549860c08b01998a52015498019788526040519a8b5251908a01525160408901525160608801525160808701525160a08601525160c08501525160e0840152610100830152610120820152f35b600080fd5b3461041857600036600319011261041857602060405160078152f35b34610418576040366003190112610418576001600160401b036004358181116104185761046a903690600401614572565b602491823590811161041857610484903690600401614572565b9181518351036105115760005b825181101561050f576104a48184614666565b51906104b08186614666565b51303b1561041857604051926301ec550560e61b845260048401528383015260008260448183305af1918215610503576104ef926104f4575b506145fc565b610491565b6104fd9061411b565b856104e9565b6040513d6000823e3d90fd5b005b60405163b4fa3fb360e01b8152600490fd5b346104185760203660031901126104185761053c614322565b6105446145d0565b6001600160a01b0390811690811561057e576000548260018060a01b031982161760005516600080516020615745833981519152600080a3005b604051631e4fbdf760e01b815260006004820152602490fd5b346104185760203660031901126104185760043560005260166020526020604060002054604051908152f35b34610418576020366003190112610418576004356105df6145d0565b6706f05b59d3b20000810361051157600354811461051157806003557f565a4bfd76b3419546eefb0f3228d436837362a9b57e0c3a03227225dfec023d600080a2005b3461041857602036600319011261041857600435600052600c6020526020604060002054604051908152f35b346104185760208060031936011261041857600435906040516106708161414a565b60008152600082820152600060408201526000606082015260006080820152600060a0820152600060c0820152600060e08201526000610100809201528260005260168252604060002054916017815260406000205490601881526040600020546019825260406000205495601a83526040600020548015156000146107e05760198452604060002054976103e89889810299818b0414901517156107ca5761072a6101209984600052601a8752604060002054906148ee565b925b600052601c855260406000205493601d865260406000205495601e8152604060002054978960405161075d8161414a565b8c815283810192835260408101948552606081019586526080810196875260a0810197885260c0810198895260e08101998a52019889526040519a8b5251908a01525160408901525160608801525160808701525160a08601525160c08501525160e08401525190820152f35b634e487b7160e01b600052601160045260246000fd5b6101209760009261072c565b34610418576000366003190112610418576060601f5463ffffffff602054166021549060405192835260208301526040820152f35b3461041857602036600319011261041857600435600052601b6020526020604060002054604051908152f35b3461041857602036600319011261041857600435600052601c6020526020604060002054604051908152f35b346104185760208060031936011261041857610893614cb9565b5060043560005260108152604060002090604051916108b1836140e4565b80546001600160a01b0316835260018181015483850152600282015460408086019190915251906108e1826140ff565b60038301600085845b600a831061093657888260ff60408a8a6060860152603f8101546080860152015481811660a085015260081c16151560c0830152610932604051928284938452830190613f30565b0390f35b84916006916109448661484c565b81520193019101909186906108ea565b34610418576020366003190112610418576001600160a01b03610975614322565b1660005260086020526020604060002054604051908152f35b3461041857602080600319360112610418576109a8614c21565b50600435600052600a808252604060002090604051916109c7836140ff565b92600090835b8383106109e257604051806109328782614229565b6006826001926109f18961467a565b8152019601920191946109cd565b34610418576000366003190112610418576020600454604051908152f35b346104185760031960203682011261041857600435906001600160401b03821161041857366023830112156104185760405191610a59836140ff565b8261014490818301923684116104185780600401915b8483106112405760025487906001600160a01b0316330361122f574261012c810191906001600160401b0390831060005b600a80821015610bdd57610ab4828661460b565b5180519091906001600160401b031615610bcb576020820180519092906001600160401b0316856107ca57881015610bb95763ffffffff80604083015116158015610bab575b8015610b9d575b610511578060a08301511615908115610b8e575b5061051157600184018085116107ca575b828110610b6057505090516001600160401b03908116915084168110610b56575b50610b51906145fc565b610aa0565b9250610b51610b47565b81516001600160401b0390811690610b78838b61460b565b5151161461051157610b89906145fc565b610b26565b905060c0820151161589610b15565b508060808301511615610b01565b508060608301511615610afa565b60405163c8b9bc9160e01b8152600490fd5b604051635a26d5fd60e11b8152600490fd5b848685856107ca576001600160401b031690811115610bb957610c016004546145fc565b918260045560001983018381116107ca57610c1b906153b8565b6001600160401b0361012b198301116107ca5782600052600a602052604060002060005b600a8110610d6d57847f62eeb403dc233a7676f50cdb0fd72dae595aeb7c63039adce5caacc33254f9c060208683600052600b825260018060401b039061012b19011680604060002055600c825260001960406000205560148252604060002060ff198154169055604051610cb3816140e4565b4281528281018281526040820160008152610d286060840160008152600360808601956000875260a08101946001865260c0820196600088528c600052600f8b52604060002092518355516001830155516002820155019463ffffffff8092511663ffffffff19875416178655511684614643565b5190610d33826141fd565b610d3c826141fd565b8254905161ffff60401b19909116604092831b60ff60401b161790151560481b60ff60481b161790915551908152a2005b610d77818461460b565b5190610d838184614433565b6112195782516020840151604085810151606087015160808089015160a0808b01519690951b600160401b600160801b03166001600160401b03978816179390911b63ffffffff60801b1692909217921b63ffffffff60a01b169190911760c091821b63ffffffff60c01b161760e092831b6001600160e01b03191617845585015160018401805463ffffffff191663ffffffff929092169190911790558401518051918211611063578190610e3c6002850154614447565b601f81116111c6575b50602090601f831160011461115457600092611149575b50508160011b916000199060031b1c19161760028201555b6101008301518051906001600160401b038211611063578190610e9a6003850154614447565b601f81116110f6575b50602090601f831160011461108457600092611079575b50508160011b916000199060031b1c19161760038201555b6101208301518051906001600160401b03821161106357610ef66004840154614447565b601f811161101c575b50602090601f8311600114610fa65791806101409492600594600092610f9b575b50508160011b916000199060031b1c19161760048201555b01920151918251610f48816141fd565b610f51816141fd565b60208254940151936003851015610f855760ff61ff00610f809660081b1692169061ffff1916171790556145fc565b610c3f565b634e487b7160e01b600052602160045260246000fd5b015190508b80610f20565b906004840160005260206000209160005b601f1985168110611004575092610140949260019260059583601f19811610610feb575b505050811b016004820155610f38565b015160001960f88460031b161c191690558b8080610fdb565b91926020600181928685015181550194019201610fb7565b600484016000526020600020601f840160051c81016020851061105c575b601f830160051c82018110611050575050610eff565b6000815560010161103a565b508061103a565b634e487b7160e01b600052604160045260246000fd5b015190508980610eba565b9250600384016000526020600020906000935b601f19841685106110db576001945083601f198116106110c2575b505050811b016003820155610ed2565b015160001960f88460031b161c191690558980806110b2565b81810151835560209485019460019093019290910190611097565b909150600384016000526020600020601f840160051c810160208510611142575b90849392915b601f830160051c82018110611133575050610ea3565b6000815585945060010161111d565b5080611117565b015190508980610e5c565b9250600284016000526020600020906000935b601f19841685106111ab576001945083601f19811610611192575b505050811b016002820155610e74565b015160001960f88460031b161c19169055898080611182565b81810151835560209485019460019093019290910190611167565b909150600284016000526020600020601f840160051c810160208510611212575b90849392915b601f830160051c82018110611203575050610e45565b600081558594506001016111ed565b50806111e7565b634e487b7160e01b600052600060045260246000fd5b6040516282b42960e81b8152600490fd5b82356001600160401b038111610418578201610180878236030112610418576040519161126c8361412e565b6112786004830161436c565b83526112866024830161436c565b6020840152611297604483016143e2565b60408401526112a8606483016143e2565b60608401526112b9608483016143e2565b60808401526112ca60a483016143e2565b60a08401526112db60c483016143e2565b60c084015260e48201356001600160401b03811161041857611303906004369185010161439b565b60e08401526101048201356001600160401b0381116104185761132c906004369185010161439b565b610100840152610124820135926001600160401b0384116104185761136e6020949361135f86956004369184010161439b565b610120840152883691016141c0565b610140820152815201920191610a6f565b34610418576040366003190112610418576001600160401b03600435818111610418576113b0903690600401614572565b602480359283116104185736602384011215610418578260040135906113d58261455b565b916113e3604051938461419d565b8083526020948584018361028080940283010191368311610418578401905b8282106116295750506002546001600160a01b03925082163303905061122f5783518351036105115760328451116105115760005b845181101561050f5761144a8186614666565b516114558286614666565b518360025416330361122f578115801561161e575b610bcb5781600052600f80895260406000205415610bcb5782600052885260406000206003808201928160ff855460401c166114a5816141fd565b1461160c57600180930154421115610bb9576000835b611576575b5050825460ff60401b1916600360401b17835550600083815260148a5260409020805460ff191690911790555463ffffffff1661153b57908161153692600052600c8852426040600020555b80600052600d885260008051602061572583398151915288604060002054604051908152a26145fc565b611437565b6201518042018042116115615790611536929181600052600c895260406000205561150c565b84634e487b7160e01b60005260116004526000fd5b600a808210156116065761158a828461460b565b5190876000528d528c60056115a3846040600020614433565b5001918051916115b2836141fd565b6115bb836141fd565b8354910151868110156115f157916115eb939160ff61ff008a979560081b1692169061ffff1916171790556145fc565b906114bb565b8c634e487b7160e01b60005260216004526000fd5b506114c0565b60405163baf3f0f760e01b8152600490fd5b50600454821161146a565b36601f8301121561041857604051611640816140ff565b8285018136821161041857918693918b9386905b82821061166957505050815201910190611402565b60409294965061167d9591939536856141c0565b8152019101918794928c9492611654565b346104185760003660031901126104185760206040517f00000000000000000000000000000000000000000000000000000000000000008152f35b34610418576020366003190112610418576004356001600160401b038111610418576116f9903690600401614572565b60005b815181101561050f5761170f8183614666565b5190303b1561041857604051916302c009ef60e01b8352600483015260008260248183305af19182156105035761174a9261174f57506145fc565b6116fc565b6117589061411b565b836104e9565b346104185760003660031901126104185760206040517f00000000000000000000000000000000000000000000000000000000000000008152f35b34610418576117a7366143f3565b90600052600a602052604060002090600a811015610418576117c891614433565b5080549063ffffffff9061093261189083600184015416926118816117ef60028301614481565b6118726117fe60038501614481565b91611817600561181060048801614481565b9601614527565b976040519a8b9a60018060401b038083168d528260401c1660208d0152808260801c1660408d0152808260a01c1660608d01528160c01c1660808c015260e01c60a08b015260c08a01526101808060e08b0152890190613ef0565b90878203610100890152613ef0565b90858203610120870152613ef0565b91610140840190614207565b3461041857602080600319360112610418576001600160a01b036118be614322565b1660005260128152604060002090604051808383829554938481520190600052836000209260005b85828210611911575050506118fd9250038361419d565b610932604051928284938452830190614338565b85548452600195860195889550930192016118e6565b34610418576020366003190112610418576004356000526014602052602060ff604060002054166040519015158152f35b346104185760203660031901126104185760c060ff63ffffffff61197d600435614e52565b9594969093604093929351971515885216602087015260408601526060850152166080830152151560a0820152f35b3461041857602036600319011261041857600435600052601e6020526020604060002054604051908152f35b346104185760203660031901126104185760043560005260186020526020604060002054604051908152f35b3461041857602036600319011261041857600435600052601d6020526020604060002054604051908152f35b34610418576000366003190112610418576040517f00000000000000000000000000000000000000000000000000000000000000006001600160a01b03168152602090f35b34610418576000366003190112610418576000546040516001600160a01b039091168152602090f35b34610418576020366003190112610418576001600160a01b03611abf614322565b1660005260076020526101006040600020805490600181015490600281015460038201546004830154906005840154926007600686015495015495604051978852602088015260408701526060860152608085015260a084015260c083015260e0820152f35b3461041857611b33366143f3565b9060005260136020526040600020600582101561041857608091611b5691614409565b5060018060a01b038154169060018101549060ff600360028301549201541691604051938452602084015260408301526060820152f35b3461041857602036600319011261041857600435600052600e602052606060406000206001815491015460405191825263ffffffff90818116602084015260201c166040820152f35b34610418576000366003190112610418576002546040516001600160a01b039091168152602090f35b34610418576020366003190112610418576001600160a01b03611c20614322565b1660005260126020526020604060002054604051908152f35b3461041857611c47366143f3565b611c4f614829565b600554811015610bcb57611c629161493e565b60018055005b3461041857602036600319011261041857611c81614322565b611c896145d0565b6001600160a01b03908116908115610511576002549081168214610511576001600160a01b03191681176002557f3f32684a32a11dabdbb8c0177de80aa3ae36a004d75210335b49e544e48cd0aa600080a2005b3461041857602036600319011261041857600435600052600d6020526020604060002054604051908152f35b3461041857604036600319011261041857611d22614322565b6024356000526020906011825260406000209060018060a01b03166000528152604060002090604051808383829554938481520190600052836000209260005b85828210611d79575050506118fd9250038361419d565b8554845260019586019588955093019201611d62565b3461041857600036600319011261041857611da86145d0565b600080546001600160a01b0319811682556001600160a01b03166000805160206157458339815191528280a3005b346104185760203660031901126104185760043560005260176020526020604060002054604051908152f35b34610418576020366003190112610418576020611e20600435615517565b6040519015158152f35b34610418576000366003190112610418576006546040516001600160a01b039091168152602090f35b3461041857600036600319011261041857602060405160058152f35b346104185760203660031901126104185760043560005260196020526020604060002054604051908152f35b60031960203682011261041857600435906001600160401b03821161041857366023830112156104185760405191611ed2836140ff565b82916101448201913683116104185780600401935b8385106129735785611ef7614829565b60045490811561160c5781600052600f6020526040600020600160ff600383015460401c16611f25816141fd565b0361160c576001810154421015610bb95760035434036129615782600052600a602052604060002060005b600a81106127df575060055460008181526010602052604080822080546001600160a01b0319163317815560018101889055426002820155603f8101839055908101805461ffff191690559194905b600a81106121eb5750505050611fb66005546145fc565b600555826000526011602052604060002033600052602052611fdc8260406000206147df565b336000526012602052611ff38260406000206147df565b82600052600d602052604060002061200c34825461461c565b905561201a34601f5461461c565b601f55600360205463ffffffff9081612034818316614814565b1663ffffffff198092161760205585600052600e602052604060002061205b34825461461c565b905585600052600e60205260016040600020018054828461207d818416614814565b1691161790556002840161209234825461461c565b905582840154916120a4818416614814565b1691161791015581600052601660205260406000206120c381546145fc565b905581600052601860205260406000206120de34825461461c565b90558160005260116020526040600020336000526020526001604060002054146121cc575b336000526007602052604060002061211b81546145fc565b90818155836007820155600181015490600460028201549101549160405193845260208401526040830152606082015260008051602061576583398151915260803392a26040519033837ff6e7d09282448c842ef23b148b6dfa2dc4b69839898341f8fb5065eb496cb0fa600080a46006546001600160a01b03166121a05760018055005b60138152600060208201524260408201526000805160206156e583398151915260603392a38080611c62565b81600052601760205260406000206121e481546145fc565b9055612103565b6001600160401b036121fd828461460b565b515116602061220c838561460b565b510151906002821015610f85576122b7600484936122ac60038a6122a16002898c63ffffffff604061223e848461460b565b5101519161224f60609e8f9261460b565b51015116906122926122776122648589614433565b5094612270818a614433565b5098614433565b509960206040519e8f9061228a826140e4565b8152016147bb565b60408c01528b8b015201614481565b608088015201614481565b60a085015201614481565b60c08201526122c98360038701614433565b92909261121957815183546001600160401b039091166001600160401b031982168117855560208401516002811015610f85576001600160481b031990921617604091821b60ff60401b161784558201518051906001600160401b03821161106357819061233a6001870154614447565b601f811161278c575b50602090601f831160011461271a5760009261270f575b50508160011b916000199060031b1c19161760018401555b63ffffffff60028401918301511663ffffffff19825416179055608081015180519060018060401b0382116110635781906123b06003860154614447565b601f81116126bc575b50602090601f831160011461264a5760009261263f575b50508160011b916000199060031b1c19161760038301555b60a08101518051906001600160401b0382116110635761240b6004850154614447565b601f81116125f8575b50602090601f83116001146125855760c09392916000918361257a575b50508160011b916000199060031b1c19161760048401555b01518051906001600160401b038211611063576124696005840154614447565b601f8111612533575b50602090601f83116001146124be5791806005926124ae9695946000926124b3575b50508160011b916000199060031b1c1916179101556145fc565b611f9f565b015190508c80612494565b906005840160005260206000209160005b601f198516811061251b5750926005926001926124ae97969583601f19811610612502575b505050811b019101556145fc565b015160001960f88460031b161c191690558c80806124f4565b919260206001819286850151815501940192016124cf565b600584016000526020600020601f840160051c810160208510612573575b601f830160051c82018110612567575050612472565b60008155600101612551565b5080612551565b015190508c80612431565b906004850160005260206000209160005b601f19851681106125e0575091839160019360c09695601f198116106125c7575b505050811b016004840155612449565b015160001960f88460031b161c191690558c80806125b7565b91926020600181928685015181550194019201612596565b600485016000526020600020601f840160051c810160208510612638575b601f830160051c8201811061262c575050612414565b60008155600101612616565b5080612616565b015190508b806123d0565b9250600385016000526020600020906000935b601f19841685106126a1576001945083601f19811610612688575b505050811b0160038301556123e8565b015160001960f88460031b161c191690558b8080612678565b8181015183556020948501946001909301929091019061265d565b909150600385016000526020600020601f840160051c810160208510612708575b90849392915b601f830160051c820181106126f95750506123b9565b600081558594506001016126e3565b50806126dd565b015190508c8061235a565b9250600186016000526020600020906000935b601f1984168510612771576001945083601f19811610612758575b505050811b016001840155612372565b015160001960f88460031b161c191690558c8080612748565b8181015183556020948501946001909301929091019061272d565b909150600186016000526020600020601f840160051c8101602085106127d8575b90849392915b601f830160051c820181106127c9575050612343565b600081558594506001016127b3565b50806127ad565b6127e9818561460b565b5180516001600160401b03166127ff8385614433565b50546001600160401b0316036105115761282261281c8385614433565b5061467a565b6020820180519060029182811015610f85576128ef5750506040820180516020815191012061284f614764565b602081519101201460001461289157506040015163ffffffff165b63ffffffff809116918215610511576060015116036105115761288c906145fc565b611f50565b8051602081519101206128a2614781565b60208151910120146000146128c157506060015163ffffffff1661286a565b51602081519101206128d161479e565b6020815191012014600014610511576080015163ffffffff1661286a565b5190811015610f85576001036105115760408201805160208151910120612914614723565b6020815191012014600014612933575060a0015163ffffffff1661286a565b5160208151910120612943614743565b60208151910120146000146105115760c0015163ffffffff1661286a565b60405163356680b760e01b8152600490fd5b84356001600160401b03811161041857820160e0848236030112610418576040519161299e836140e4565b6129aa6004830161436c565b83526024820135600281101561041857602084015260448201356001600160401b038111610418576129e2906004369185010161439b565b60408401526129f3606483016143e2565b606084015260848201356001600160401b03811161041857612a1b906004369185010161439b565b608084015260a48201356001600160401b03811161041857612a43906004369185010161439b565b60a084015260c4820135926001600160401b03841161041857612a7060209493600486953692010161439b565b60c0820152815201940193611ee7565b346104185760003660031901126104185760206040516103e88152f35b34610418576000366003190112610418576020604051600a8152f35b34610418576020366003190112610418576001600160a01b03612ada614322565b1660005260096020526020604060002054604051908152f35b346104185760003660031901126104185760a060ff63ffffffff612b15614d9a565b9395909260405196875216602086015260408501526060840152166080820152f35b3461041857602036600319011261041857600435600052600f60205260e0604060002060ff81549160018101546003600283015492015491838360401c16916040519586526020860152604085015263ffffffff80831660608601528260201c166080850152612ba6816141fd565b60a084015260481c16151560c0820152f35b3461041857602036600319011261041857600435600052601060205260c0604060002060ff60018060a01b038254169160018101549060028101546040603f83015492015492604051958652602086015260408501526060840152818116608084015260081c16151560a0820152f35b3461041857606036600319011261041857604060ff612c55612c48614322565b6044359060243590615552565b835191151582529091166020820152f35b3461041857604036600319011261041857612c7f614322565b60243560005260209060118252604060002060018060a01b038092166000528252604060002090604051808385829554938481520190600052856000209260005b87828210612de157505050612cd79250038361419d565b612ce18251614d4a565b9260005b8351811015612db757612cf88185614666565b5160005260108252604060002060405190612d12826140e4565b848154168252600180820154858401526002820154604084015260405190612d39826140ff565b60006003840187845b600a8410612d9957505050505082916040916060612d9496950152603f8101546080840152015460ff9081811660a084015260081c16151560c0820152612d898288614666565b526104e98187614666565b612ce5565b8491600691612da78561484c565b8152019201920191908890612d42565b612dd4846109328488604051948594604086526040860190614338565b918483039085015261406d565b8554845260019586019588955093019201612cc0565b3461041857602036600319011261041857612e10614322565b612e186145d0565b600680546001600160a01b0319166001600160a01b0392909216919091179055005b3461041857602036600319011261041857600435600052600b6020526020604060002054604051908152f35b3461041857602036600319011261041857600435600052601a6020526020604060002054604051908152f35b346104185760208060031936011261041857600435612eaf614c21565b5060045481118015612f13575b610bcb57600052600a80825260406000209060405191612edb836140ff565b92600090835b838310612ef657604051806109328782614229565b600682600192612f058961467a565b815201960192019194612ee1565b508015612ebc565b34610418576102a03660031901126104185760043536604312156104185760405190612f46826140ff565b81906102a43681116104185760249283905b82821061313b5750506002546001600160a01b03163303905061122f5780158015613130575b610bcb57806000526020600f815260406000205415610bcb5781600052600f81526040600020936003948581019160ff8781855460401c16612fbf816141fd565b1461160c57600180930154421115610bb957906000835b613097575b5050825460ff60401b1916600360401b1783555060008481526014845260409020805460ff1916909117905554929350909163ffffffff166130505781600080516020615725833981519152929350600052600c8152426040600020555b82600052600d8152604060002054604051908152a2005b6201518042018042116130825782600080516020615725833981519152939450600052600c8252604060002055613039565b83634e487b7160e01b60005260116004526000fd5b600a8082101561312a576130ab828461460b565b519088600052875260056130c3836040600020614433565b5001908051906130d2826141fd565b6130db826141fd565b8883549101518c811015613115579161310d93918761ff008a9998979560081b1692169061ffff1916171790556145fc565b909192612fd6565b8b634e487b7160e01b60005260216004526000fd5b50612fdb565b506004548111612f7e565b602060409161314a36856141c0565b815201910190612f58565b346104185760208060031936011261041857600435906001600160401b03908183116104185736602384011215610418578260040135918211610418576024600593368285871b83010111610418576131ad84614d4a565b9460005b8581106131cb57604051858152806109328188018a61406d565b8381831b84010135600052601085526040600020604051906131ec826140e4565b80546001600160a01b03168252600181810154888401526002820154604080850191909152519061321c826140ff565b6000600384018a845b600a841061327c5750505050508291604091606061327796950152603f8101546080840152015460ff9081811660a084015260081c16151560c082015261326c828a614666565b526104e98189614666565b6131b1565b849160069161328a8561484c565b8152019201920191908b90613225565b346104185760403660031901126104185760243560ff8116809103610418576004356000526015602052604060002090600052602052602060ff604060002054166040519015158152f35b3461041857600036600319011261041857602060405160328152f35b34610418576020806003193601126104185760405160a0906001600160401b039082810182811182821017611063576040528360005b8481106134195750505060043560005260138352604060002090604051928301908382109082111761106357604052600083835b600583106133cd57508360405191826000905b6005821061338c5761028085f35b835180516001600160a01b0316825280840151828501526040808201519083015260609081015160ff1690820152928201926001919091019060800161337e565b6001916004916040516133df816140c9565b848060a01b03875416815284870154838201526002870154604082015260ff6003880154166060820152815201930191019091849061336b565b604051613425816140c9565b60008152600083820152600060408201526000606082015281840152018490613337565b34610418576000366003190112610418576020600354604051908152f35b34610418576000366003190112610418576020600554604051908152f35b346104185760203660031901126104185761349e614829565b6005546004351015610bcb576004356000526010602052604060002060018101549081600052600f60205260406000205415610bcb5781600052600f602052600360ff816040600020015460401c166134f6816141fd565b0361160c5760408101549060ff8260081c1661160c576000916103e89084600052600a602052604060002060005b600a8110613ccd57505061ffff191660ff8416908117610100176040840155839015613cc15761356b915b603f84018190558354600435906001600160a01b031687614f83565b60018060a01b038154168060005260076020526040600020600085600052601160205260406000208360005260205260406000208054908161386f575b5050506080816000805160206157658339815191529254906001810154906004600282015491015491604051938452602084015260408301526060820152a282600052600e60205282604060002092600f6020526001604060002094019261363f600363ffffffff9661362961362389895460201c16614814565b88614643565b0161363987825460201c16614814565b90614643565b82600052601a602052604060002061365781546145fc565b9055826000526019602052604060002061367560ff8416825461461c565b9055603f81015480613806575b50600760ff83161015806137e7575b6006546001600160a01b03166136d0575b5050505054908082169160201c16146136bb5760018055005b600052600c6020524260406000205580611c62565b6137af575b600860ff83161015613777575b600960ff8316101561373f575b600a60ff831614613701575b806136a2565b54604080516017815260ff909316602084015242908301526001600160a01b0316906000805160206156e583398151915290606090a38284806136fb565b8260018060a01b038254166000805160206156e583398151915260606040516016815260ff87166020820152426040820152a36136ef565b8260018060a01b038254166000805160206156e583398151915260606040516015815260ff87166020820152426040820152a36136e2565b8260018060a01b038254166000805160206156e583398151915260606040516014815260ff87166020820152426040820152a36136d5565b83600052601e60205260406000206137ff81546145fc565b9055613691565b83600052601c60205280604060002080548015908115613865575b5061385d575b5050601d602052604060002080548015908115613853575b5061384b575b50613682565b558680613845565b905082108961383f565b558088613827565b905082118a613821565b816000198101116107ca576138889160001901906147c7565b90549060031b1c600052601060205260406000209083600760ff6040850154161015600014613cb05750600183016138c081546145fc565b905560ff6040830154168460005260096020526138e3604060002091825461461c565b9055600360ff6040840154166008811015613ca7575b6009811015613c9e575b600a14613c96575b6000805b600560ff821610613c56575b50613c44575b603f8301546002850180548211613c2f575b5050906007840154926001840184116107ca5785936001018903613c23576005850161395f81546145fc565b80915560068601548111613c05575b505b836000526008602052604060002061398984825461461c565b90556006546001600160a01b031680613ac7575b508454806139fa575b506060600080516020615765833981519152959360809593604060ff816000805160206157058339815191529601541691868152600860205220549060405192835260208301526040820152a291876135a8565b9091929350600385015481600019810111613ab35781613a30613a25613a35936000198401906148db565b603f8601549061461c565b6148ee565b60038601556001850154612710908082810204821481151715613a9f57946000805160206157658339815191529694604060ff818b97613a8a6000805160206157058339815191529860609860809d026148ee565b60048b015596505050509395509395506139a6565b634e487b7160e01b85526011600452602485fd5b634e487b7160e01b84526011600452602484fd5b603f82015490945060098110613bd0575060175b60408281015490516e027b2323cb9b9b2bc9031bcb1b6329608d1b6020820152602f81018c90526201016960ed1b604f82015260f89190911b6001600160f81b0319166052820152670818dbdc9c9958dd60c21b6053820152603b8152946001600160401b0360608701908111908711176110635760608601604052803b15610418576304f5ba7d60e51b606087015260648601889052601a821015610f85576000916084870152606060a48701526060860190605f1987613ba060c4820182613ef0565b0301908360608901915af19384156105035786941561399d57613bc791925060600161411b565b6000908961399d565b60088110613be057506016613adb565b60078110613bf057506015613adb565b600511613bfe576014613adb565b6013613adb565b60068601559192506003830183116107ca576003859301918961396e565b60016005860155613970565b556002810181116107ca576002018880613933565b600a810181116107ca57600a01613921565b89600052601360205286613c6e826040600020614409565b50546001600160a01b031614613c8c57613c87906148ca565b61390f565b505060018961391b565b50600861390b565b60069150613903565b600491506138f9565b919060006005850155600191613970565b61356b9150600061354f565b613ce3613cdd8260038801614433565b5061484c565b613cf061281c8385614433565b60009060208301516002811015610f8557613e43576040830190815160208151910120613d1b614764565b60208151910120149182613e1f575b8215613dd6575b8215613d89575b5050613d81575b613d53575b50613d4e906145fc565b613524565b95613d79613d4e929563ffffffff6060613d6f6103e8956148ca565b9a015116906148db565b049390613d44565b506001613d3f565b9091505160208151910120613d9c61479e565b60208151910120149081613db3575b508a80613d38565b60039150610140015151613dc6816141fd565b613dcf816141fd565b148a613dab565b8092505160208151910120613de9614781565b602081519101201480613dfd575b91613d31565b50600261014082015151613e10816141fd565b613e19816141fd565b14613df7565b9150600161014082015151613e33816141fd565b613e3c816141fd565b1491613d2a565b604083015160208151910120613e57614723565b60208151910120149081613ecb575b8115613e7b575b5015613d3f57506001613d3f565b9050604083015160208151910120613e91614743565b60208151910120149081613ea7575b508a613e6d565b6101400151613eb99150602001614636565b6003811015610f85576002148a613ea0565b9050613ede602061014083015101614636565b6003811015610f855760011490613e66565b919082519283825260005b848110613f1c575050826000602080949584010152601f8019910116010190565b602081830181015184830182015201613efb565b80516001600160a01b03168252602080820151818401526040808301518185015260608084015160e082870181905261022087019695949193818701939192916000918291905b600a8410613fac57505050505050505060c081608082930151608085015260ff60a08201511660a08501520151151591015290565b909192939495969960df198a82030188528a5160018060401b038151168252868101516002811015614059576140498389936140366140236140028e88978860019b01528a85015190808c880152860190613ef0565b63ffffffff8b850151168b8601526080808501519086830390870152613ef0565b60a0808401519085830390860152613ef0565b9160c08092015191818403910152613ef0565b9c01980196959401929190613f77565b634e487b7160e01b86526021600452602486fd5b908082519081815260208091019281808460051b8301019501936000915b84831061409b5750505050505090565b90919293949584806140b9600193601f198682030187528a51613f30565b980193019301919493929061408b565b608081019081106001600160401b0382111761106357604052565b60e081019081106001600160401b0382111761106357604052565b61014081019081106001600160401b0382111761106357604052565b6001600160401b03811161106357604052565b61016081019081106001600160401b0382111761106357604052565b61012081019081106001600160401b0382111761106357604052565b61010081019081106001600160401b0382111761106357604052565b604081019081106001600160401b0382111761106357604052565b601f909101601f19168101906001600160401b0382119082101761106357604052565b9190826040910312610418576040516141d881614182565b8092803590600482101561041857602091835201359060038210156104185760200152565b60041115610f8557565b6020908051614215816141fd565b83520151906003821015610f855760200152565b6020808252610160820192919060008282015b600a821061424c57505050505090565b90919293948380600192601f19888203018552614313895191858060401b0380845116825284840151168482015263ffffffff60408181860151169083015260608181860151169083015260808181860151169083015260a08181860151169083015260c0908185015116908201526143036142ef6142db60e080870151906101808091870152850190613ef0565b610100808701519085830390860152613ef0565b610120808601519084830390850152613ef0565b9261014080910151910190614207565b9701920192019093929161423c565b600435906001600160a01b038216820361041857565b90815180825260208080930193019160005b828110614358575050505090565b83518552938101939281019260010161434a565b35906001600160401b038216820361041857565b6001600160401b03811161106357601f01601f191660200190565b81601f82011215610418578035906143b282614380565b926143c0604051948561419d565b8284526020838301011161041857816000926020809301838601378301015290565b359063ffffffff8216820361041857565b6040906003190112610418576004359060243590565b90600581101561441d5760021b0190600090565b634e487b7160e01b600052603260045260246000fd5b90600a81101561441d576006020190600090565b90600182811c92168015614477575b602083101461446157565b634e487b7160e01b600052602260045260246000fd5b91607f1691614456565b906040519182600082549261449584614447565b90818452600194858116908160001461450457506001146144c1575b50506144bf9250038361419d565b565b9093915060005260209081600020936000915b8183106144ec5750506144bf935082010138806144b1565b855488840185015294850194879450918301916144d4565b9150506144bf94506020925060ff191682840152151560051b82010138806144b1565b9060405161453481614182565b60ff819354818116614545816141fd565b835260081c16906003821015610f855760200152565b6001600160401b0381116110635760051b60200190565b81601f82011215610418578035916145898361455b565b92614597604051948561419d565b808452602092838086019260051b820101928311610418578301905b8282106145c1575050505090565b813581529083019083016145b3565b6000546001600160a01b031633036145e457565b60405163118cdaa760e01b8152336004820152602490fd5b60001981146107ca5760010190565b90600a81101561441d5760051b0190565b919082018092116107ca57565b919082039182116107ca57565b516003811015610f855790565b805463ffffffff60201b191660209290921b63ffffffff60201b16919091179055565b805182101561441d5760209160051b010190565b906040516146878161412e565b61014061471e60058395805460018060401b0380821687528160401c16602087015263ffffffff90818160801c166040880152818160a01c166060880152818160c01c16608088015260e01c60a087015260018201541660c08601526146ef60028201614481565b60e086015261470060038201614481565b61010086015261471260048201614481565b61012086015201614527565b910152565b6040519061473082614182565b600482526327bb32b960e11b6020830152565b6040519061475082614182565b60058252642ab73232b960d91b6020830152565b6040519061477182614182565b60018252603160f81b6020830152565b6040519061478e82614182565b60018252600b60fb1b6020830152565b604051906147ab82614182565b60018252601960f91b6020830152565b6002821015610f855752565b805482101561441d5760005260206000200190600090565b8054600160401b811015611063576147fc916001820181556147c7565b819291549060031b91821b91600019901b1916179055565b63ffffffff8091169081146107ca5760010190565b60026001541461483a576002600155565b604051633ee5aeb560e01b8152600490fd5b90604051614859816140e4565b60c061471e6005839561488160ff825460018060401b038116885260401c16602087016147bb565b61488d60018201614481565b604086015263ffffffff60028201541660608601526148ae60038201614481565b60808601526148bf60048201614481565b60a086015201614481565b60ff1660ff81146107ca5760010190565b818102929181159184041417156107ca57565b81156148f8570490565b634e487b7160e01b600052601260045260246000fd5b3d15614939573d9061491f82614380565b9161492d604051938461419d565b82523d6000602084013e565b606090565b90600090828252602091600f835260ff90604092600383818685200154861c16614967816141fd565b03614c1057858252600c8552838220544210614bff5780825260108552838220805490936001600160a01b0393909184163303614bef57600194888682015403614bde5786015460081c821615614bcd578781526013875285812081908290835b600586821610614b83575b505015614b725788825260158852868220928082169384845289528783205416614b6157888252600d885286822054614a0b9161532c565b948515614b40578882526015885286822083835288528682209060ff1982541617905580808080614a6a612710614a627f00000000000000000000000000000000000000000000000000000000000000008c6148db565b04809a614629565b98887f0000000000000000000000000000000000000000000000000000000000000000165af1614a9861490e565b5015614b2f5780808087335af1614aad61490e565b5015614b1e5784519081528386820152867f785817d289e9ce1881ef42379ab98f4f7513f0d3bb1f9a9e060afb4cd2b67eab863393a460065416614af2575b50505050565b8151926018845283015242908201526000805160206156e583398151915260603392a338808080614aec565b84516312171d8360e31b8152600490fd5b85516312171d8360e31b8152600490fd5b9781526015875285812091815295525050509020805460ff19169091179055565b865163baf3f0f760e01b8152600490fd5b8651635a26d5fd60e11b8152600490fd5b614b8d8183614409565b50548816331480614bb7575b614bab57614ba6906148ca565b6149c8565b925050508538806149d3565b508689614bc48385614409565b50015414614b99565b855163baf3f0f760e01b8152600490fd5b865163b4fa3fb360e01b8152600490fd5b85516282b42960e81b8152600490fd5b835163c8b9bc9160e01b8152600490fd5b835163baf3f0f760e01b8152600490fd5b6040805191614c2f836140ff565b829160005b61014080821015614cb157825160209291614c4e8261412e565b600082528390600082840152600086840152606060008185015260006080850152600060a0850152600060c08501528060e0850152806101008501526101208401526000865192614c9e84614182565b8184528301528201528187015201614c34565b505050909150565b604090815191614cc8836140e4565b82600091828252602083818401528382840152815191614ce7836140ff565b845b6101408110614d0e575050509060c09160608201528260808201528260a08201520152565b82908251614d1b816140e4565b87815287838201526060808583015288818301528060808301528060a083015260c08201528186015201614ce9565b90614d548261455b565b614d61604051918261419d565b8281528092614d72601f199161455b565b019060005b828110614d8357505050565b602090614d8e614cb9565b82828501015201614d77565b60045480614db45750600090600090600090600090600090565b9081600052600f60205260406000209060405192614dd1846140e4565b8254845260018301549160208501928352600360028501549460408701958652015494606081019363ffffffff918288168652828860201c16608082015260c060ff808a60401c1699614e238b6141fd565b8a60a085015260481c161515910152614e3b876141fd565b614e44876141fd565b519451935116919493929190565b80158015614f19575b614f0457600052600f602052604060002060405191614e79836140e4565b81548352600182015460208401908152600360028401549360408601948552015490606085019263ffffffff8084168552808460201c16608088015260ff8460401c1696614ec6886141fd565b8760a082015260ff60c082019560481c161515855251151592614ee8886141fd565b614ef1886141fd565b5195519451169251151591959493929190565b50600090600090600090600090600090600090565b506004548111614e5b565b9061121957818103614f34575050565b60038060ff9260018060a01b0385541660018060a01b03198254161781556001850154600182015560028501546002820155019201541660ff19825416179055565b80156107ca576000190190565b90949392919260ff80911690600782106153235760059687548610156153195760009486865260106020526040968787209060019187838201541490811591615301575b506152f457868852601360205288882093600019895b8d81106152c0575b50600181016151bf575b506000199b805b61511d575b5060018c01615013575b505050505050505050509050565b60049b8c5b8181116150d25750615056908b5196615030886140c9565b6001600160a01b039384168852602088019485528c880196875260608801998a52614409565b9590956150c0575185546001600160a01b0319169116178455519083015551600282015591516003928301805460ff191692909116919091179055908252600f60205291902001805460ff60481b1916600160481b17905590508038808080808080808080615005565b634e487b7160e01b8a52898d5260248afd5b600019810181811161510a57906151006150ef615105938a614409565b506150fa838b614409565b90614f24565b614f76565b615018565b634e487b7160e01b8c5260118f5260248cfd5b9b6000198d01908d82116151ab576151358288614409565b5080546001600160a01b03161561519f576002810154908982891192831561517a575b505050600014615173575061516d909c614f76565b80614ff6565b9c50614ffb565b89149250908261518f575b5050388981615158565b60030154168a1190508838615185565b505061516d909c614f76565b634e487b7160e01b8b52601160045260248bfd5b6151c98187614409565b506002810154908882881192831561529b575b50505060001461528c57835b615240575b508860608b516151fc816140c9565b828152602081018390528c810183905201526010850180546001600160a01b0319169055601185018990556012850189905560138501805460ff1916905538614fef565b6004808210156152865784820190818311615273575084916152686150ef61526d938a614409565b6145fc565b906151e8565b634e487b7160e01b8c526011905260248bfd5b506151ed565b50505050505050505050509050565b8814925090826152b0575b50503888816151dc565b60030154168911905087386152a6565b6152ca8188614409565b50546001600160a01b038481169116146152ec576152e7906145fc565b614fdd565b905038614fe5565b5050505050505050509050565b546001600160a01b0386811691161415905038614fc7565b5050505050509050565b50505050509050565b60009060ff168061534d57505061534961271091610fa0906148db565b0490565b6001810361536757505061534961271091610bb8906148db565b60028103615381575050615349612710916107d0906148db565b6003810361539b575050615349612710916101f4906148db565b6004036153b35750615349612710916101f4906148db565b905090565b80156155145760008181526013602052604080822080546001600160a01b039493929190851615908115615501575b506153f25750505050565b600d602052808220549182615408575b50614aec565b6154406127106154387f0000000000000000000000000000000000000000000000000000000000000000866148db565b048094614629565b92848252600d602052818381205560018501958686116154ed578280928192898352600d60205286832061547589825461461c565b90557f0000000000000000000000000000000000000000000000000000000000000000165af16154a361490e565b50156154dd577fd02ee9eafb934e2ffd95384478ef177c9932fd0d6cb1813747b8eefdf55d8b199160209151908152a33880808080615402565b516312171d8360e31b8152600490fd5b634e487b7160e01b83526011600452602483fd5b60079150600360ff9101541610386153e7565b50565b6004548111801561554a575b615544576000908152600a60205260409020546001600160401b0316151590565b50600090565b508015615523565b92919092831580156156d9575b6156cd576000938085526020600f815260ff9160409160038481858b200154851c1661558a816141fd565b036156c357818852600c81528288205442106156c35760059182548710156156b85786895260108252838920805490976001600160a01b039788169791821688900361569d57600198838a820154036156aa5786015460081c87161561569d57828b5260138452858b208b9a99989092895b615612575b50999a508a99505050505050505050565b888d1687811015615697578d848c858561562c858b614409565b50541614928361567d575b505050615653575061564b8a9b9c9d6148ca565b9c9b9a6155fc565b965050505050879596975260158152828520918552528220541661567657509190565b9250508190565b61568a9192935088614409565b50015414848f8d90615637565b50615601565b5050505050505050508190565b505050505050505050508190565b505050505050508190565b5050505050508190565b50509050600090600090565b50600454841161555f56fed43c77f044c1f8bc6adf6676b4ce17edda35ef8ee63f154568826c0ecb3c6bf39c7b6f99cba4ae2b8837d2a4ff724e1273427755c6f2e43bac3108bccb98b66add45cfbd9f2d20e6b7b6f5fa3148363d48017feae0c98de41ec4435a5aa754468be0079c531659141344cd1fd0a4f28419497f9722a3daafe3b4186f6b6457e0dbc55064e49993e4c979488990287b80a393512ce56bbe0cb3834df880cf97c7a26469706673582212200ff382f74d74a8844fce1af994541a7d79c3eb27a46bc88ad90f8660308b88d864736f6c63430008140033",
  "linkReferences": {},
  "deployedLinkReferences": {}
}