{
  "_format": "hh-sol-artifact-1",
  "contractName": "Oddyssey",
  "sourceName": "contracts/Oddyssey.sol",
  "abi": [
    {
      "inputs": [
        {
          "internalType": "address",
          "name": "_devWallet",
          "type": "address"
        },
        {
          "internalType": "uint256",
          "name": "_initialEntryFee",
          "type": "uint256"
        }
      ],
      "stateMutability": "nonpayable",
      "type": "constructor"
    },
    {
      "inputs": [],
      "name": "DataNotFound",
      "type": "error"
    },
    {
      "inputs": [],
      "name": "InsufficientFunds",
      "type": "error"
    },
    {
      "inputs": [],
      "name": "InvalidInput",
      "type": "error"
    },
    {
      "inputs": [],
      "name": "InvalidState",
      "type": "error"
    },
    {
      "inputs": [],
      "name": "InvalidTiming",
      "type": "error"
    },
    {
      "inputs": [
        {
          "internalType": "address",
          "name": "owner",
          "type": "address"
        }
      ],
      "name": "OwnableInvalidOwner",
      "type": "error"
    },
    {
      "inputs": [
        {
          "internalType": "address",
          "name": "account",
          "type": "address"
        }
      ],
      "name": "OwnableUnauthorizedAccount",
      "type": "error"
    },
    {
      "inputs": [],
      "name": "ReentrancyGuardReentrantCall",
      "type": "error"
    },
    {
      "inputs": [],
      "name": "TransferFailed",
      "type": "error"
    },
    {
      "inputs": [],
      "name": "Unauthorized",
      "type": "error"
    },
    {
      "anonymous": false,
      "inputs": [
        {
          "indexed": true,
          "internalType": "uint256",
          "name": "cycleId",
          "type": "uint256"
        },
        {
          "indexed": false,
          "internalType": "uint256",
          "name": "totalVolume",
          "type": "uint256"
        },
        {
          "indexed": false,
          "internalType": "uint32",
          "name": "totalSlips",
          "type": "uint32"
        },
        {
          "indexed": false,
          "internalType": "uint256",
          "name": "averageScore",
          "type": "uint256"
        }
      ],
      "name": "AnalyticsUpdated",
      "type": "event"
    },
    {
      "anonymous": false,
      "inputs": [
        {
          "indexed": true,
          "internalType": "uint256",
          "name": "cycleId",
          "type": "uint256"
        },
        {
          "indexed": false,
          "internalType": "uint256",
          "name": "endTime",
          "type": "uint256"
        },
        {
          "indexed": false,
          "internalType": "uint32",
          "name": "totalSlips",
          "type": "uint32"
        }
      ],
      "name": "CycleEnded",
      "type": "event"
    },
    {
      "anonymous": false,
      "inputs": [
        {
          "indexed": true,
          "internalType": "uint256",
          "name": "cycleId",
          "type": "uint256"
        },
        {
          "indexed": false,
          "internalType": "uint256",
          "name": "prizePool",
          "type": "uint256"
        }
      ],
      "name": "CycleResolved",
      "type": "event"
    },
    {
      "anonymous": false,
      "inputs": [
        {
          "indexed": true,
          "internalType": "uint256",
          "name": "cycleId",
          "type": "uint256"
        },
        {
          "indexed": false,
          "internalType": "uint256",
          "name": "endTime",
          "type": "uint256"
        }
      ],
      "name": "CycleStarted",
      "type": "event"
    },
    {
      "anonymous": false,
      "inputs": [
        {
          "indexed": true,
          "internalType": "uint256",
          "name": "newFee",
          "type": "uint256"
        }
      ],
      "name": "EntryFeeSet",
      "type": "event"
    },
    {
      "anonymous": false,
      "inputs": [
        {
          "indexed": true,
          "internalType": "uint256",
          "name": "cycleId",
          "type": "uint256"
        },
        {
          "indexed": true,
          "internalType": "address",
          "name": "player",
          "type": "address"
        },
        {
          "indexed": true,
          "internalType": "uint256",
          "name": "slipId",
          "type": "uint256"
        },
        {
          "indexed": false,
          "internalType": "uint8",
          "name": "rank",
          "type": "uint8"
        },
        {
          "indexed": false,
          "internalType": "uint256",
          "name": "finalScore",
          "type": "uint256"
        }
      ],
      "name": "LeaderboardUpdated",
      "type": "event"
    },
    {
      "anonymous": false,
      "inputs": [
        {
          "indexed": true,
          "internalType": "address",
          "name": "user",
          "type": "address"
        },
        {
          "indexed": false,
          "internalType": "uint256",
          "name": "pointsEarned",
          "type": "uint256"
        },
        {
          "indexed": false,
          "internalType": "uint256",
          "name": "correctPredictions",
          "type": "uint256"
        },
        {
          "indexed": false,
          "internalType": "uint256",
          "name": "totalReputation",
          "type": "uint256"
        }
      ],
      "name": "OddysseyReputationUpdated",
      "type": "event"
    },
    {
      "anonymous": false,
      "inputs": [
        {
          "indexed": true,
          "internalType": "address",
          "name": "newOracle",
          "type": "address"
        }
      ],
      "name": "OracleSet",
      "type": "event"
    },
    {
      "anonymous": false,
      "inputs": [
        {
          "indexed": true,
          "internalType": "address",
          "name": "previousOwner",
          "type": "address"
        },
        {
          "indexed": true,
          "internalType": "address",
          "name": "newOwner",
          "type": "address"
        }
      ],
      "name": "OwnershipTransferred",
      "type": "event"
    },
    {
      "anonymous": false,
      "inputs": [
        {
          "indexed": true,
          "internalType": "uint256",
          "name": "cycleId",
          "type": "uint256"
        },
        {
          "indexed": true,
          "internalType": "address",
          "name": "player",
          "type": "address"
        },
        {
          "indexed": false,
          "internalType": "uint256",
          "name": "rank",
          "type": "uint256"
        },
        {
          "indexed": false,
          "internalType": "uint256",
          "name": "amount",
          "type": "uint256"
        }
      ],
      "name": "PrizeClaimed",
      "type": "event"
    },
    {
      "anonymous": false,
      "inputs": [
        {
          "indexed": true,
          "internalType": "uint256",
          "name": "fromCycleId",
          "type": "uint256"
        },
        {
          "indexed": true,
          "internalType": "uint256",
          "name": "toCycleId",
          "type": "uint256"
        },
        {
          "indexed": false,
          "internalType": "uint256",
          "name": "amount",
          "type": "uint256"
        }
      ],
      "name": "PrizeRollover",
      "type": "event"
    },
    {
      "anonymous": false,
      "inputs": [
        {
          "indexed": true,
          "internalType": "uint256",
          "name": "slipId",
          "type": "uint256"
        },
        {
          "indexed": true,
          "internalType": "address",
          "name": "player",
          "type": "address"
        },
        {
          "indexed": true,
          "internalType": "uint256",
          "name": "cycleId",
          "type": "uint256"
        },
        {
          "indexed": false,
          "internalType": "uint8",
          "name": "correctCount",
          "type": "uint8"
        },
        {
          "indexed": false,
          "internalType": "uint256",
          "name": "finalScore",
          "type": "uint256"
        }
      ],
      "name": "SlipEvaluated",
      "type": "event"
    },
    {
      "anonymous": false,
      "inputs": [
        {
          "indexed": true,
          "internalType": "uint256",
          "name": "cycleId",
          "type": "uint256"
        },
        {
          "indexed": true,
          "internalType": "address",
          "name": "player",
          "type": "address"
        },
        {
          "indexed": true,
          "internalType": "uint256",
          "name": "slipId",
          "type": "uint256"
        }
      ],
      "name": "SlipPlaced",
      "type": "event"
    },
    {
      "anonymous": false,
      "inputs": [
        {
          "indexed": true,
          "internalType": "address",
          "name": "user",
          "type": "address"
        },
        {
          "indexed": false,
          "internalType": "uint256",
          "name": "totalSlips",
          "type": "uint256"
        },
        {
          "indexed": false,
          "internalType": "uint256",
          "name": "totalWins",
          "type": "uint256"
        },
        {
          "indexed": false,
          "internalType": "uint256",
          "name": "bestScore",
          "type": "uint256"
        },
        {
          "indexed": false,
          "internalType": "uint256",
          "name": "winRate",
          "type": "uint256"
        }
      ],
      "name": "UserStatsUpdated",
      "type": "event"
    },
    {
      "inputs": [],
      "name": "DAILY_LEADERBOARD_SIZE",
      "outputs": [
        {
          "internalType": "uint256",
          "name": "",
          "type": "uint256"
        }
      ],
      "stateMutability": "view",
      "type": "function"
    },
    {
      "inputs": [],
      "name": "DEV_FEE_PERCENTAGE",
      "outputs": [
        {
          "internalType": "uint256",
          "name": "",
          "type": "uint256"
        }
      ],
      "stateMutability": "view",
      "type": "function"
    },
    {
      "inputs": [],
      "name": "MATCH_COUNT",
      "outputs": [
        {
          "internalType": "uint256",
          "name": "",
          "type": "uint256"
        }
      ],
      "stateMutability": "view",
      "type": "function"
    },
    {
      "inputs": [],
      "name": "MAX_CYCLES_TO_RESOLVE",
      "outputs": [
        {
          "internalType": "uint256",
          "name": "",
          "type": "uint256"
        }
      ],
      "stateMutability": "view",
      "type": "function"
    },
    {
      "inputs": [],
      "name": "MIN_CORRECT_PREDICTIONS",
      "outputs": [
        {
          "internalType": "uint256",
          "name": "",
          "type": "uint256"
        }
      ],
      "stateMutability": "view",
      "type": "function"
    },
    {
      "inputs": [],
      "name": "ODDS_SCALING_FACTOR",
      "outputs": [
        {
          "internalType": "uint256",
          "name": "",
          "type": "uint256"
        }
      ],
      "stateMutability": "view",
      "type": "function"
    },
    {
      "inputs": [],
      "name": "PRIZE_ROLLOVER_FEE_PERCENTAGE",
      "outputs": [
        {
          "internalType": "uint256",
          "name": "",
          "type": "uint256"
        }
      ],
      "stateMutability": "view",
      "type": "function"
    },
    {
      "inputs": [
        {
          "internalType": "uint256[]",
          "name": "_cycleIds",
          "type": "uint256[]"
        }
      ],
      "name": "claimMultiplePrizes",
      "outputs": [],
      "stateMutability": "nonpayable",
      "type": "function"
    },
    {
      "inputs": [
        {
          "internalType": "uint256",
          "name": "_cycleId",
          "type": "uint256"
        }
      ],
      "name": "claimPrize",
      "outputs": [],
      "stateMutability": "nonpayable",
      "type": "function"
    },
    {
      "inputs": [
        {
          "internalType": "uint256",
          "name": "",
          "type": "uint256"
        }
      ],
      "name": "claimableStartTimes",
      "outputs": [
        {
          "internalType": "uint256",
          "name": "",
          "type": "uint256"
        }
      ],
      "stateMutability": "view",
      "type": "function"
    },
    {
      "inputs": [
        {
          "internalType": "uint256",
          "name": "",
          "type": "uint256"
        }
      ],
      "name": "cycleInfo",
      "outputs": [
        {
          "internalType": "uint256",
          "name": "startTime",
          "type": "uint256"
        },
        {
          "internalType": "uint256",
          "name": "endTime",
          "type": "uint256"
        },
        {
          "internalType": "uint256",
          "name": "prizePool",
          "type": "uint256"
        },
        {
          "internalType": "uint32",
          "name": "slipCount",
          "type": "uint32"
        },
        {
          "internalType": "uint32",
          "name": "evaluatedSlips",
          "type": "uint32"
        },
        {
          "internalType": "enum Oddyssey.CycleState",
          "name": "state",
          "type": "uint8"
        },
        {
          "internalType": "bool",
          "name": "hasWinner",
          "type": "bool"
        }
      ],
      "stateMutability": "view",
      "type": "function"
    },
    {
      "inputs": [
        {
          "internalType": "uint256",
          "name": "",
          "type": "uint256"
        }
      ],
      "name": "cycleStats",
      "outputs": [
        {
          "internalType": "uint256",
          "name": "volume",
          "type": "uint256"
        },
        {
          "internalType": "uint32",
          "name": "slips",
          "type": "uint32"
        },
        {
          "internalType": "uint32",
          "name": "evaluatedSlips",
          "type": "uint32"
        }
      ],
      "stateMutability": "view",
      "type": "function"
    },
    {
      "inputs": [
        {
          "internalType": "uint256",
          "name": "",
          "type": "uint256"
        }
      ],
      "name": "dailyCycleEndTimes",
      "outputs": [
        {
          "internalType": "uint256",
          "name": "",
          "type": "uint256"
        }
      ],
      "stateMutability": "view",
      "type": "function"
    },
    {
      "inputs": [],
      "name": "dailyCycleId",
      "outputs": [
        {
          "internalType": "uint256",
          "name": "",
          "type": "uint256"
        }
      ],
      "stateMutability": "view",
      "type": "function"
    },
    {
      "inputs": [
        {
          "internalType": "uint256",
          "name": "",
          "type": "uint256"
        },
        {
          "internalType": "uint256",
          "name": "",
          "type": "uint256"
        }
      ],
      "name": "dailyLeaderboards",
      "outputs": [
        {
          "internalType": "address",
          "name": "player",
          "type": "address"
        },
        {
          "internalType": "uint256",
          "name": "slipId",
          "type": "uint256"
        },
        {
          "internalType": "uint256",
          "name": "finalScore",
          "type": "uint256"
        },
        {
          "internalType": "uint8",
          "name": "correctCount",
          "type": "uint8"
        }
      ],
      "stateMutability": "view",
      "type": "function"
    },
    {
      "inputs": [
        {
          "internalType": "uint256",
          "name": "",
          "type": "uint256"
        },
        {
          "internalType": "uint256",
          "name": "",
          "type": "uint256"
        }
      ],
      "name": "dailyMatches",
      "outputs": [
        {
          "internalType": "uint64",
          "name": "id",
          "type": "uint64"
        },
        {
          "internalType": "uint64",
          "name": "startTime",
          "type": "uint64"
        },
        {
          "internalType": "uint32",
          "name": "oddsHome",
          "type": "uint32"
        },
        {
          "internalType": "uint32",
          "name": "oddsDraw",
          "type": "uint32"
        },
        {
          "internalType": "uint32",
          "name": "oddsAway",
          "type": "uint32"
        },
        {
          "internalType": "uint32",
          "name": "oddsOver",
          "type": "uint32"
        },
        {
          "internalType": "uint32",
          "name": "oddsUnder",
          "type": "uint32"
        },
        {
          "components": [
            {
              "internalType": "enum Oddyssey.MoneylineResult",
              "name": "moneyline",
              "type": "uint8"
            },
            {
              "internalType": "enum Oddyssey.OverUnderResult",
              "name": "overUnder",
              "type": "uint8"
            }
          ],
          "internalType": "struct Oddyssey.Result",
          "name": "result",
          "type": "tuple"
        }
      ],
      "stateMutability": "view",
      "type": "function"
    },
    {
      "inputs": [
        {
          "internalType": "uint256",
          "name": "",
          "type": "uint256"
        }
      ],
      "name": "dailyPrizePools",
      "outputs": [
        {
          "internalType": "uint256",
          "name": "",
          "type": "uint256"
        }
      ],
      "stateMutability": "view",
      "type": "function"
    },
    {
      "inputs": [],
      "name": "devWallet",
      "outputs": [
        {
          "internalType": "address",
          "name": "",
          "type": "address"
        }
      ],
      "stateMutability": "view",
      "type": "function"
    },
    {
      "inputs": [],
      "name": "enhancedReputationSystem",
      "outputs": [
        {
          "internalType": "contract IEnhancedReputationSystem",
          "name": "",
          "type": "address"
        }
      ],
      "stateMutability": "view",
      "type": "function"
    },
    {
      "inputs": [],
      "name": "entryFee",
      "outputs": [
        {
          "internalType": "uint256",
          "name": "",
          "type": "uint256"
        }
      ],
      "stateMutability": "view",
      "type": "function"
    },
    {
      "inputs": [
        {
          "internalType": "uint256[]",
          "name": "_slipIds",
          "type": "uint256[]"
        }
      ],
      "name": "evaluateMultipleSlips",
      "outputs": [],
      "stateMutability": "nonpayable",
      "type": "function"
    },
    {
      "inputs": [
        {
          "internalType": "uint256",
          "name": "_slipId",
          "type": "uint256"
        }
      ],
      "name": "evaluateSlip",
      "outputs": [],
      "stateMutability": "nonpayable",
      "type": "function"
    },
    {
      "inputs": [
        {
          "internalType": "uint256[]",
          "name": "_slipIds",
          "type": "uint256[]"
        }
      ],
      "name": "getBatchSlips",
      "outputs": [
        {
          "components": [
            {
              "internalType": "address",
              "name": "player",
              "type": "address"
            },
            {
              "internalType": "uint256",
              "name": "cycleId",
              "type": "uint256"
            },
            {
              "internalType": "uint256",
              "name": "placedAt",
              "type": "uint256"
            },
            {
              "components": [
                {
                  "internalType": "uint64",
                  "name": "matchId",
                  "type": "uint64"
                },
                {
                  "internalType": "enum Oddyssey.BetType",
                  "name": "betType",
                  "type": "uint8"
                },
                {
                  "internalType": "bytes32",
                  "name": "selection",
                  "type": "bytes32"
                },
                {
                  "internalType": "uint32",
                  "name": "selectedOdd",
                  "type": "uint32"
                }
              ],
              "internalType": "struct Oddyssey.UserPrediction[10]",
              "name": "predictions",
              "type": "tuple[10]"
            },
            {
              "internalType": "uint256",
              "name": "finalScore",
              "type": "uint256"
            },
            {
              "internalType": "uint8",
              "name": "correctCount",
              "type": "uint8"
            },
            {
              "internalType": "bool",
              "name": "isEvaluated",
              "type": "bool"
            }
          ],
          "internalType": "struct Oddyssey.Slip[]",
          "name": "",
          "type": "tuple[]"
        }
      ],
      "stateMutability": "view",
      "type": "function"
    },
    {
      "inputs": [],
      "name": "getCurrentCycle",
      "outputs": [
        {
          "internalType": "uint256",
          "name": "",
          "type": "uint256"
        }
      ],
      "stateMutability": "view",
      "type": "function"
    },
    {
      "inputs": [],
      "name": "getCurrentCycleInfo",
      "outputs": [
        {
          "internalType": "uint256",
          "name": "cycleId",
          "type": "uint256"
        },
        {
          "internalType": "uint8",
          "name": "state",
          "type": "uint8"
        },
        {
          "internalType": "uint256",
          "name": "endTime",
          "type": "uint256"
        },
        {
          "internalType": "uint256",
          "name": "prizePool",
          "type": "uint256"
        },
        {
          "internalType": "uint32",
          "name": "cycleSlipCount",
          "type": "uint32"
        }
      ],
      "stateMutability": "view",
      "type": "function"
    },
    {
      "inputs": [
        {
          "internalType": "uint256",
          "name": "_cycleId",
          "type": "uint256"
        }
      ],
      "name": "getCycleMatches",
      "outputs": [
        {
          "components": [
            {
              "internalType": "uint64",
              "name": "id",
              "type": "uint64"
            },
            {
              "internalType": "uint64",
              "name": "startTime",
              "type": "uint64"
            },
            {
              "internalType": "uint32",
              "name": "oddsHome",
              "type": "uint32"
            },
            {
              "internalType": "uint32",
              "name": "oddsDraw",
              "type": "uint32"
            },
            {
              "internalType": "uint32",
              "name": "oddsAway",
              "type": "uint32"
            },
            {
              "internalType": "uint32",
              "name": "oddsOver",
              "type": "uint32"
            },
            {
              "internalType": "uint32",
              "name": "oddsUnder",
              "type": "uint32"
            },
            {
              "components": [
                {
                  "internalType": "enum Oddyssey.MoneylineResult",
                  "name": "moneyline",
                  "type": "uint8"
                },
                {
                  "internalType": "enum Oddyssey.OverUnderResult",
                  "name": "overUnder",
                  "type": "uint8"
                }
              ],
              "internalType": "struct Oddyssey.Result",
              "name": "result",
              "type": "tuple"
            }
          ],
          "internalType": "struct Oddyssey.Match[10]",
          "name": "",
          "type": "tuple[10]"
        }
      ],
      "stateMutability": "view",
      "type": "function"
    },
    {
      "inputs": [
        {
          "internalType": "uint256",
          "name": "_cycleId",
          "type": "uint256"
        }
      ],
      "name": "getCycleStatus",
      "outputs": [
        {
          "internalType": "bool",
          "name": "exists",
          "type": "bool"
        },
        {
          "internalType": "uint8",
          "name": "state",
          "type": "uint8"
        },
        {
          "internalType": "uint256",
          "name": "endTime",
          "type": "uint256"
        },
        {
          "internalType": "uint256",
          "name": "prizePool",
          "type": "uint256"
        },
        {
          "internalType": "uint32",
          "name": "cycleSlipCount",
          "type": "uint32"
        },
        {
          "internalType": "bool",
          "name": "hasWinner",
          "type": "bool"
        }
      ],
      "stateMutability": "view",
      "type": "function"
    },
    {
      "inputs": [
        {
          "internalType": "uint256",
          "name": "_cycleId",
          "type": "uint256"
        }
      ],
      "name": "getDailyLeaderboard",
      "outputs": [
        {
          "components": [
            {
              "internalType": "address",
              "name": "player",
              "type": "address"
            },
            {
              "internalType": "uint256",
              "name": "slipId",
              "type": "uint256"
            },
            {
              "internalType": "uint256",
              "name": "finalScore",
              "type": "uint256"
            },
            {
              "internalType": "uint8",
              "name": "correctCount",
              "type": "uint8"
            }
          ],
          "internalType": "struct Oddyssey.LeaderboardEntry[5]",
          "name": "",
          "type": "tuple[5]"
        }
      ],
      "stateMutability": "view",
      "type": "function"
    },
    {
      "inputs": [
        {
          "internalType": "uint256",
          "name": "_cycleId",
          "type": "uint256"
        }
      ],
      "name": "getDailyMatches",
      "outputs": [
        {
          "components": [
            {
              "internalType": "uint64",
              "name": "id",
              "type": "uint64"
            },
            {
              "internalType": "uint64",
              "name": "startTime",
              "type": "uint64"
            },
            {
              "internalType": "uint32",
              "name": "oddsHome",
              "type": "uint32"
            },
            {
              "internalType": "uint32",
              "name": "oddsDraw",
              "type": "uint32"
            },
            {
              "internalType": "uint32",
              "name": "oddsAway",
              "type": "uint32"
            },
            {
              "internalType": "uint32",
              "name": "oddsOver",
              "type": "uint32"
            },
            {
              "internalType": "uint32",
              "name": "oddsUnder",
              "type": "uint32"
            },
            {
              "components": [
                {
                  "internalType": "enum Oddyssey.MoneylineResult",
                  "name": "moneyline",
                  "type": "uint8"
                },
                {
                  "internalType": "enum Oddyssey.OverUnderResult",
                  "name": "overUnder",
                  "type": "uint8"
                }
              ],
              "internalType": "struct Oddyssey.Result",
              "name": "result",
              "type": "tuple"
            }
          ],
          "internalType": "struct Oddyssey.Match[10]",
          "name": "",
          "type": "tuple[10]"
        }
      ],
      "stateMutability": "view",
      "type": "function"
    },
    {
      "inputs": [
        {
          "internalType": "uint256",
          "name": "_slipId",
          "type": "uint256"
        }
      ],
      "name": "getSlip",
      "outputs": [
        {
          "components": [
            {
              "internalType": "address",
              "name": "player",
              "type": "address"
            },
            {
              "internalType": "uint256",
              "name": "cycleId",
              "type": "uint256"
            },
            {
              "internalType": "uint256",
              "name": "placedAt",
              "type": "uint256"
            },
            {
              "components": [
                {
                  "internalType": "uint64",
                  "name": "matchId",
                  "type": "uint64"
                },
                {
                  "internalType": "enum Oddyssey.BetType",
                  "name": "betType",
                  "type": "uint8"
                },
                {
                  "internalType": "bytes32",
                  "name": "selection",
                  "type": "bytes32"
                },
                {
                  "internalType": "uint32",
                  "name": "selectedOdd",
                  "type": "uint32"
                }
              ],
              "internalType": "struct Oddyssey.UserPrediction[10]",
              "name": "predictions",
              "type": "tuple[10]"
            },
            {
              "internalType": "uint256",
              "name": "finalScore",
              "type": "uint256"
            },
            {
              "internalType": "uint8",
              "name": "correctCount",
              "type": "uint8"
            },
            {
              "internalType": "bool",
              "name": "isEvaluated",
              "type": "bool"
            }
          ],
          "internalType": "struct Oddyssey.Slip",
          "name": "",
          "type": "tuple"
        }
      ],
      "stateMutability": "view",
      "type": "function"
    },
    {
      "inputs": [
        {
          "internalType": "address",
          "name": "_user",
          "type": "address"
        }
      ],
      "name": "getUserData",
      "outputs": [
        {
          "components": [
            {
              "internalType": "uint256",
              "name": "totalSlips",
              "type": "uint256"
            },
            {
              "internalType": "uint256",
              "name": "totalWins",
              "type": "uint256"
            },
            {
              "internalType": "uint256",
              "name": "bestScore",
              "type": "uint256"
            },
            {
              "internalType": "uint256",
              "name": "averageScore",
              "type": "uint256"
            },
            {
              "internalType": "uint256",
              "name": "winRate",
              "type": "uint256"
            },
            {
              "internalType": "uint256",
              "name": "currentStreak",
              "type": "uint256"
            },
            {
              "internalType": "uint256",
              "name": "bestStreak",
              "type": "uint256"
            },
            {
              "internalType": "uint256",
              "name": "lastActiveCycle",
              "type": "uint256"
            }
          ],
          "internalType": "struct Oddyssey.UserStats",
          "name": "userStatsData",
          "type": "tuple"
        },
        {
          "internalType": "uint256",
          "name": "reputation",
          "type": "uint256"
        },
        {
          "internalType": "uint256",
          "name": "correctPredictions",
          "type": "uint256"
        }
      ],
      "stateMutability": "view",
      "type": "function"
    },
    {
      "inputs": [
        {
          "internalType": "address",
          "name": "_user",
          "type": "address"
        }
      ],
      "name": "getUserSlipCount",
      "outputs": [
        {
          "internalType": "uint256",
          "name": "",
          "type": "uint256"
        }
      ],
      "stateMutability": "view",
      "type": "function"
    },
    {
      "inputs": [
        {
          "internalType": "address",
          "name": "_user",
          "type": "address"
        },
        {
          "internalType": "uint256",
          "name": "_cycleId",
          "type": "uint256"
        }
      ],
      "name": "getUserSlipsForCycle",
      "outputs": [
        {
          "internalType": "uint256[]",
          "name": "",
          "type": "uint256[]"
        }
      ],
      "stateMutability": "view",
      "type": "function"
    },
    {
      "inputs": [
        {
          "internalType": "address",
          "name": "_user",
          "type": "address"
        },
        {
          "internalType": "uint256",
          "name": "_cycleId",
          "type": "uint256"
        }
      ],
      "name": "getUserSlipsWithData",
      "outputs": [
        {
          "internalType": "uint256[]",
          "name": "slipIds",
          "type": "uint256[]"
        },
        {
          "components": [
            {
              "internalType": "address",
              "name": "player",
              "type": "address"
            },
            {
              "internalType": "uint256",
              "name": "cycleId",
              "type": "uint256"
            },
            {
              "internalType": "uint256",
              "name": "placedAt",
              "type": "uint256"
            },
            {
              "components": [
                {
                  "internalType": "uint64",
                  "name": "matchId",
                  "type": "uint64"
                },
                {
                  "internalType": "enum Oddyssey.BetType",
                  "name": "betType",
                  "type": "uint8"
                },
                {
                  "internalType": "bytes32",
                  "name": "selection",
                  "type": "bytes32"
                },
                {
                  "internalType": "uint32",
                  "name": "selectedOdd",
                  "type": "uint32"
                }
              ],
              "internalType": "struct Oddyssey.UserPrediction[10]",
              "name": "predictions",
              "type": "tuple[10]"
            },
            {
              "internalType": "uint256",
              "name": "finalScore",
              "type": "uint256"
            },
            {
              "internalType": "uint8",
              "name": "correctCount",
              "type": "uint8"
            },
            {
              "internalType": "bool",
              "name": "isEvaluated",
              "type": "bool"
            }
          ],
          "internalType": "struct Oddyssey.Slip[]",
          "name": "slipsData",
          "type": "tuple[]"
        }
      ],
      "stateMutability": "view",
      "type": "function"
    },
    {
      "inputs": [
        {
          "internalType": "uint256",
          "name": "_cycleId",
          "type": "uint256"
        }
      ],
      "name": "isCycleInitialized",
      "outputs": [
        {
          "internalType": "bool",
          "name": "",
          "type": "bool"
        }
      ],
      "stateMutability": "view",
      "type": "function"
    },
    {
      "inputs": [
        {
          "internalType": "uint256",
          "name": "",
          "type": "uint256"
        }
      ],
      "name": "isCycleResolved",
      "outputs": [
        {
          "internalType": "bool",
          "name": "",
          "type": "bool"
        }
      ],
      "stateMutability": "view",
      "type": "function"
    },
    {
      "inputs": [],
      "name": "oracle",
      "outputs": [
        {
          "internalType": "address",
          "name": "",
          "type": "address"
        }
      ],
      "stateMutability": "view",
      "type": "function"
    },
    {
      "inputs": [],
      "name": "owner",
      "outputs": [
        {
          "internalType": "address",
          "name": "",
          "type": "address"
        }
      ],
      "stateMutability": "view",
      "type": "function"
    },
    {
      "inputs": [
        {
          "components": [
            {
              "internalType": "uint64",
              "name": "matchId",
              "type": "uint64"
            },
            {
              "internalType": "enum Oddyssey.BetType",
              "name": "betType",
              "type": "uint8"
            },
            {
              "internalType": "bytes32",
              "name": "selection",
              "type": "bytes32"
            },
            {
              "internalType": "uint32",
              "name": "selectedOdd",
              "type": "uint32"
            }
          ],
          "internalType": "struct Oddyssey.UserPrediction[10]",
          "name": "_predictions",
          "type": "tuple[10]"
        }
      ],
      "name": "placeSlip",
      "outputs": [],
      "stateMutability": "payable",
      "type": "function"
    },
    {
      "inputs": [
        {
          "internalType": "uint256",
          "name": "",
          "type": "uint256"
        },
        {
          "internalType": "uint8",
          "name": "",
          "type": "uint8"
        }
      ],
      "name": "prizeClaimed",
      "outputs": [
        {
          "internalType": "bool",
          "name": "",
          "type": "bool"
        }
      ],
      "stateMutability": "view",
      "type": "function"
    },
    {
      "inputs": [],
      "name": "renounceOwnership",
      "outputs": [],
      "stateMutability": "nonpayable",
      "type": "function"
    },
    {
      "inputs": [
        {
          "internalType": "uint256",
          "name": "_cycleId",
          "type": "uint256"
        },
        {
          "components": [
            {
              "internalType": "enum Oddyssey.MoneylineResult",
              "name": "moneyline",
              "type": "uint8"
            },
            {
              "internalType": "enum Oddyssey.OverUnderResult",
              "name": "overUnder",
              "type": "uint8"
            }
          ],
          "internalType": "struct Oddyssey.Result[10]",
          "name": "_results",
          "type": "tuple[10]"
        }
      ],
      "name": "resolveDailyCycle",
      "outputs": [],
      "stateMutability": "nonpayable",
      "type": "function"
    },
    {
      "inputs": [
        {
          "internalType": "uint256[]",
          "name": "_cycleIds",
          "type": "uint256[]"
        },
        {
          "components": [
            {
              "internalType": "enum Oddyssey.MoneylineResult",
              "name": "moneyline",
              "type": "uint8"
            },
            {
              "internalType": "enum Oddyssey.OverUnderResult",
              "name": "overUnder",
              "type": "uint8"
            }
          ],
          "internalType": "struct Oddyssey.Result[10][]",
          "name": "_results",
          "type": "tuple[10][]"
        }
      ],
      "name": "resolveMultipleCycles",
      "outputs": [],
      "stateMutability": "nonpayable",
      "type": "function"
    },
    {
      "inputs": [
        {
          "internalType": "address",
          "name": "_enhancedReputationSystem",
          "type": "address"
        }
      ],
      "name": "setEnhancedReputationSystem",
      "outputs": [],
      "stateMutability": "nonpayable",
      "type": "function"
    },
    {
      "inputs": [
        {
          "internalType": "uint256",
          "name": "_newFee",
          "type": "uint256"
        }
      ],
      "name": "setEntryFee",
      "outputs": [],
      "stateMutability": "nonpayable",
      "type": "function"
    },
    {
      "inputs": [
        {
          "internalType": "address",
          "name": "_newOracle",
          "type": "address"
        }
      ],
      "name": "setOracle",
      "outputs": [],
      "stateMutability": "nonpayable",
      "type": "function"
    },
    {
      "inputs": [],
      "name": "slipCount",
      "outputs": [
        {
          "internalType": "uint256",
          "name": "",
          "type": "uint256"
        }
      ],
      "stateMutability": "view",
      "type": "function"
    },
    {
      "inputs": [
        {
          "internalType": "uint256",
          "name": "",
          "type": "uint256"
        }
      ],
      "name": "slips",
      "outputs": [
        {
          "internalType": "address",
          "name": "player",
          "type": "address"
        },
        {
          "internalType": "uint256",
          "name": "cycleId",
          "type": "uint256"
        },
        {
          "internalType": "uint256",
          "name": "placedAt",
          "type": "uint256"
        },
        {
          "internalType": "uint256",
          "name": "finalScore",
          "type": "uint256"
        },
        {
          "internalType": "uint8",
          "name": "correctCount",
          "type": "uint8"
        },
        {
          "internalType": "bool",
          "name": "isEvaluated",
          "type": "bool"
        }
      ],
      "stateMutability": "view",
      "type": "function"
    },
    {
      "inputs": [
        {
          "components": [
            {
              "internalType": "uint64",
              "name": "id",
              "type": "uint64"
            },
            {
              "internalType": "uint64",
              "name": "startTime",
              "type": "uint64"
            },
            {
              "internalType": "uint32",
              "name": "oddsHome",
              "type": "uint32"
            },
            {
              "internalType": "uint32",
              "name": "oddsDraw",
              "type": "uint32"
            },
            {
              "internalType": "uint32",
              "name": "oddsAway",
              "type": "uint32"
            },
            {
              "internalType": "uint32",
              "name": "oddsOver",
              "type": "uint32"
            },
            {
              "internalType": "uint32",
              "name": "oddsUnder",
              "type": "uint32"
            },
            {
              "components": [
                {
                  "internalType": "enum Oddyssey.MoneylineResult",
                  "name": "moneyline",
                  "type": "uint8"
                },
                {
                  "internalType": "enum Oddyssey.OverUnderResult",
                  "name": "overUnder",
                  "type": "uint8"
                }
              ],
              "internalType": "struct Oddyssey.Result",
              "name": "result",
              "type": "tuple"
            }
          ],
          "internalType": "struct Oddyssey.Match[10]",
          "name": "_matches",
          "type": "tuple[10]"
        }
      ],
      "name": "startDailyCycle",
      "outputs": [],
      "stateMutability": "nonpayable",
      "type": "function"
    },
    {
      "inputs": [],
      "name": "stats",
      "outputs": [
        {
          "internalType": "uint256",
          "name": "totalVolume",
          "type": "uint256"
        },
        {
          "internalType": "uint32",
          "name": "totalSlips",
          "type": "uint32"
        },
        {
          "internalType": "uint256",
          "name": "highestOdd",
          "type": "uint256"
        }
      ],
      "stateMutability": "view",
      "type": "function"
    },
    {
      "inputs": [
        {
          "internalType": "address",
          "name": "newOwner",
          "type": "address"
        }
      ],
      "name": "transferOwnership",
      "outputs": [],
      "stateMutability": "nonpayable",
      "type": "function"
    },
    {
      "inputs": [
        {
          "internalType": "address",
          "name": "",
          "type": "address"
        }
      ],
      "name": "userOddysseyCorrectPredictions",
      "outputs": [
        {
          "internalType": "uint256",
          "name": "",
          "type": "uint256"
        }
      ],
      "stateMutability": "view",
      "type": "function"
    },
    {
      "inputs": [
        {
          "internalType": "address",
          "name": "",
          "type": "address"
        }
      ],
      "name": "userOddysseyReputation",
      "outputs": [
        {
          "internalType": "uint256",
          "name": "",
          "type": "uint256"
        }
      ],
      "stateMutability": "view",
      "type": "function"
    },
    {
      "inputs": [
        {
          "internalType": "address",
          "name": "",
          "type": "address"
        }
      ],
      "name": "userStats",
      "outputs": [
        {
          "internalType": "uint256",
          "name": "totalSlips",
          "type": "uint256"
        },
        {
          "internalType": "uint256",
          "name": "totalWins",
          "type": "uint256"
        },
        {
          "internalType": "uint256",
          "name": "bestScore",
          "type": "uint256"
        },
        {
          "internalType": "uint256",
          "name": "averageScore",
          "type": "uint256"
        },
        {
          "internalType": "uint256",
          "name": "winRate",
          "type": "uint256"
        },
        {
          "internalType": "uint256",
          "name": "currentStreak",
          "type": "uint256"
        },
        {
          "internalType": "uint256",
          "name": "bestStreak",
          "type": "uint256"
        },
        {
          "internalType": "uint256",
          "name": "lastActiveCycle",
          "type": "uint256"
        }
      ],
      "stateMutability": "view",
      "type": "function"
    }
  ],
  "bytecode": "0x60e0346200015b576200400f90601f38839003908101601f19168201906001600160401b038211838310176200016057808391604095869485528339810103126200015b5780516001600160a01b03808216929091908382036200015b576020015191331562000143576000549360018060a01b03199433868216176000558651923391167f8be0079c531659141344cd1fd0a4f28419497f9722a3daafe3b4186f6b6457e0600080a360018055156200013457506706f05b59d3b200008203620001235760c052600355339060025416176002556101f48060805260a05251613e989081620001778239608051818181610b2e01526134a5015260a051818181610bef0152613c3a015260c051818181610d94015281816134d50152613ca00152f35b835163b4fa3fb360e01b8152600490fd5b63b4fa3fb360e01b8152600490fd5b8451631e4fbdf760e01b815260006004820152602490fd5b600080fd5b634e487b7160e01b600052604160045260246000fdfe6080604052600436101561001257600080fd5b60003560e01c806302c009ef14612473578063042db2e61461078e57806305b61d1114612455578063072ea61c146124375780630832275e146122f557806314bd9644146122d957806317ee395b1461228e5780631e7e465f146121485780632012ef0314611ef0578063201a013b14611a19578063210d5f5f146119ee5780632ac5df93146119c2578063328621a614611831578063361a9792146117c157806344dac5551461129757806344f79609146112165780634c3b1939146111d25780634f4bc86e146111985780635052617d1461117c578063590d0f991461115f578063625d9ce5146111435780636977f5461461111b578063715018a6146110c257806373d2257314611028578063745be57614610ffc5780637adbf97314610f875780637d208cee14610f4d5780637dc0d1d014610f245780637e12170d14610edb5780638366021714610e735780638a65d87414610dec5780638da5cb5b14610dc35780638ea5220f14610d7e57806391230fa314610d3b5780639ad7884c14610ce75780639bea95ac14610cb6578063a1ce7ecb14610c12578063a4957efe14610bd7578063af9b2bfb14610b51578063b0dbf47d14610b16578063ba1487ad146107ac578063be26ed7f1461078e578063c503b251146106ea578063c56a00de14610675578063c6b685081461063b578063c81b986c14610568578063ccb0b3c31461053f578063d709815414610515578063d80528ae146104e0578063e734e60c146104b4578063eb770d0c14610443578063f2fde38b146103b5578063fbb0de53146103995763ffc9896b1461026e57600080fd5b3461039457602080600319360112610394576101409061028c612fad565b600060e060405161029c81612e19565b82815282858201528260408201528260608201528260808201528260a08201528260c0820152015260018060a01b0316600052600781526040600020600882526040600020546009835260406000205491604051906102fa82612e19565b805494858352600182015490808401918252600283015460408501908152600384015490606086019182526004850154926080870193845260058601549460a0880195865260e0600760068901549860c08b01998a52015498019788526040519a8b5251908a01525160408901525160608801525160808701525160a08601525160c08501525160e0840152610100830152610120820152f35b600080fd5b3461039457600036600319011261039457602060405160078152f35b34610394576020366003190112610394576103ce612fad565b6103d66130f4565b6001600160a01b0390811690811561042a57600054826bffffffffffffffffffffffff60a01b821617600055167f8be0079c531659141344cd1fd0a4f28419497f9722a3daafe3b4186f6b6457e0600080a3005b604051631e4fbdf760e01b815260006004820152602490fd5b346103945760203660031901126103945760043561045f6130f4565b6706f05b59d3b2000081036104a25760035481146104a257806003557f565a4bfd76b3419546eefb0f3228d436837362a9b57e0c3a03227225dfec023d600080a2005b60405163b4fa3fb360e01b8152600490fd5b3461039457602036600319011261039457600435600052600c6020526020604060002054604051908152f35b3461039457600036600319011261039457606060165463ffffffff601754166018549060405192835260208301526040820152f35b346103945760203660031901126103945761052e613300565b6105396004356133e2565b60018055005b34610394576000366003190112610394576006546040516001600160a01b039091168152602090f35b3461039457602080600319360112610394576105826136b3565b5060043560005260108152604060002090604051906105a082612de2565b82546001600160a01b0316825260018381015482840152600284015460408085019190915251916105d083612dfd565b600385810191600090855b600a8310610620576105c08860ff60228c8b606085015260218101546080850152015481811660a084015260081c16151560c082015261061e6040518092612cc1565bf35b8382879261062d88613323565b8152019501920191936105db565b34610394576020366003190112610394576001600160a01b0361065c612fad565b1660005260086020526020604060002054604051908152f35b34610394576020806003193601126103945761068f61360f565b50600435600052600a808252604060002090604051916106ae83612dfd565b92600090835b8383106106cd57604051806106c98782612f12565b0390f35b6003826001926106dc8961318e565b8152019601920191946106b4565b34610394576020366003190112610394576004356001600160401b0381116103945761071a903690600401613096565b60005b815181101561078c57610730818361317a565b5190303b1561039457604051916335c2605560e21b8352600483015260008260248183305af19182156107805761076c92610771575b50613120565b61071d565b61077a90612e35565b83610766565b6040513d6000823e3d90fd5b005b34610394576000366003190112610394576020600454604051908152f35b34610394576040366003190112610394576001600160401b03600435818111610394576107dd903690600401613096565b6024359182116103945736602383011215610394578160040135916108018361307f565b9261080f6040519485612e63565b808452602084019160246102808093028201019036821161039457602401925b818410610aaf57600254869086906001600160a01b03163303610a9e5780518251036104a25760328151116104a25760005b815181101561078c57610874818361317a565b5190610880818561317a565b516002546001600160a01b03163303610a9e5782158015610a93575b610a815782600052600f8060205260406000205415610a81578360005260205260406000206003918260ff8184015460401c166108d881612ee6565b14610a6f5760019081830154421115610a5d57600090825b6109c3575b50509101805460ff60401b1916600360401b1781556000848152601460205260409020805460ff19169092179091555463ffffffff16610987578161098292600052600c602052426040600020555b80600052600d6020527fdd45cfbd9f2d20e6b7b6f5fa3148363d48017feae0c98de41ec4435a5aa754466020604060002054604051908152a2613120565b610861565b620151804201918242116109ad576109829281600052600c602052604060002055610944565b634e487b7160e01b600052601160045260246000fd5b600a80831015610a57576109d7838361312f565b5190886000526020526109ee836040600020613037565b50928151936109fc85612ee6565b610a0585612ee6565b6020600282015493015188811015610a41578695610a3b9460ff61ff0060029460081b1692169061ffff19161717910155613120565b916108f0565b634e487b7160e01b600052602160045260246000fd5b506108f5565b60405163c8b9bc9160e01b8152600490fd5b60405163baf3f0f760e01b8152600490fd5b604051635a26d5fd60e11b8152600490fd5b50600454831161089c565b6040516282b42960e81b8152600490fd5b36601f8501121561039457604051610ac681612dfd565b808486013681116103945791859287949294905b808210610af25750508152940193602001905061082f565b91935091936020604091610b063686612e84565b8152019201869391949294610ada565b346103945760003660031901126103945760206040517f00000000000000000000000000000000000000000000000000000000000000008152f35b34610394576020366003190112610394576004356001600160401b03811161039457610b81903690600401613096565b60005b815181101561078c57610b97818361317a565b5190303b1561039457604051916302c009ef60e01b8352600483015260008260248183305af191821561078057610bd2926107715750613120565b610b84565b346103945760003660031901126103945760206040517f00000000000000000000000000000000000000000000000000000000000000008152f35b3461039457610c2036612ff7565b90600052600a6020526040600020600a8210156103945761012091610c4491613037565b5061061e815463ffffffff92610c63600285600184015416920161304b565b91604051946001600160401b0380831687528260401c166020870152808260801c166040870152808260a01c1660608701528160c01c16608086015260e01c60a085015260c084015260e0830190612ef0565b34610394576020366003190112610394576004356000526014602052602060ff604060002054166040519015158152f35b346103945760203660031901126103945760c060ff63ffffffff610d0c600435613823565b9594969093604093929351971515885216602087015260408601526060850152166080830152151560a0820152f35b3461039457602036600319011261039457610d54612fad565b610d5c6130f4565b600680546001600160a01b0319166001600160a01b0392909216919091179055005b34610394576000366003190112610394576040517f00000000000000000000000000000000000000000000000000000000000000006001600160a01b03168152602090f35b34610394576000366003190112610394576000546040516001600160a01b039091168152602090f35b34610394576020366003190112610394576001600160a01b03610e0d612fad565b1660005260076020526101006040600020805490600181015490600281015460038201546004830154906005840154926007600686015495015495604051978852602088015260408701526060860152608085015260a084015260c083015260e0820152f35b3461039457610e8136612ff7565b9060005260136020526040600020600582101561039457608091610ea49161300d565b5060018060a01b038154169060018101549060ff600360028301549201541691604051938452602084015260408301526060820152f35b3461039457602036600319011261039457600435600052600e602052606060406000206001815491015460405191825263ffffffff90818116602084015260201c166040820152f35b34610394576000366003190112610394576002546040516001600160a01b039091168152602090f35b34610394576020366003190112610394576001600160a01b03610f6e612fad565b1660005260126020526020604060002054604051908152f35b3461039457602036600319011261039457610fa0612fad565b610fa86130f4565b6001600160a01b039081169081156104a25760025490811682146104a2576001600160a01b03191681176002557f3f32684a32a11dabdbb8c0177de80aa3ae36a004d75210335b49e544e48cd0aa600080a2005b3461039457602036600319011261039457600435600052600d6020526020604060002054604051908152f35b3461039457604036600319011261039457611041612fad565b6024356000526020906011825260406000209060018060a01b03166000528152604060002090604051808383829554938481520190600052836000209260005b858282106110ac5750505061109892500383612e63565b6106c9604051928284938452830190612fc3565b8554845260019586019588955093019201611081565b34610394576000366003190112610394576110db6130f4565b600080546001600160a01b0319811682556001600160a01b03167f8be0079c531659141344cd1fd0a4f28419497f9722a3daafe3b4186f6b6457e08280a3005b34610394576020366003190112610394576020611139600435613d3e565b6040519015158152f35b3461039457600036600319011261039457602060405160058152f35b346103945760003660031901126103945760206040516103e88152f35b34610394576000366003190112610394576020604051600a8152f35b34610394576020366003190112610394576001600160a01b036111b9612fad565b1660005260096020526020604060002054604051908152f35b346103945760003660031901126103945760a060ff63ffffffff6111f461376b565b9395909260405196875216602086015260408501526060840152166080820152f35b3461039457602036600319011261039457600435600052600f60205260e0604060002060ff81549160018101546003600283015492015491838360401c16916040519586526020860152604085015263ffffffff80831660608601528260201c16608085015261128581612ee6565b60a084015260481c16151560c0820152f35b610500366003190112610394573660231215610394576040516112b981612dfd565b80610504368111610394576004915b81831061176157836112d8613300565b6004548015610a6f5780600052600f6020526040600020600160ff600383015460401c1661130581612ee6565b03610a6f576001810154421015610a5d57600354340361174f5781600052600a602052604060002060005b600a81106115f6575050600554926040519061134b82612de2565b3382526020820190848252604083014281526060840191825260006080850152600060a0850152600060c085015286600052601060205260406000209260018060a01b038551166bffffffffffffffffffffffff60a01b8554161784555160018401555160028301555160038201906000905b600a82106115835750505060229060808301516021820155019060ff60a08201511661ff0060c08454930151151560081b169161ffff191617179055611405600554613120565b60055581600052601160205260406000203360005260205261142b8360406000206132b1565b3360005260126020526114428360406000206132b1565b81600052600d602052604060002061145b348254613140565b905561146934601654613140565b601655600360175463ffffffff90816114838183166132eb565b1663ffffffff198092161760175584600052600e60205260406000206114aa348254613140565b905584600052600e6020526001604060002001805482846114cc8184166132eb565b169116179055600284016114e1348254613140565b905582840154916114f38184166132eb565b1691161791015533600052600760205260406000206115128154613120565b908181558260078201556001810154906004600282015491015491604051938452602084015260408301526060820152600080516020613e4383398151915260803392a233907ff6e7d09282448c842ef23b148b6dfa2dc4b69839898341f8fb5065eb496cb0fa600080a460018055005b80516001600160401b03815116908454926020820151916002831015610a415760019460039460ff60401b60209560401b169168ffffffffffffffffff19161717875560408101518588015563ffffffff6060600289019201511663ffffffff19825416179055019301910190916113be565b611600818661312f565b516001600160401b0380825116906116188486613037565b505416036104a25761163361162d8385613037565b5061318e565b6020820180519060029182811015610a41576116eb575050604082018051611659613242565b602081519101201460001461169b57506040015163ffffffff165b63ffffffff8091169182156104a2576060015116036104a25761169690613120565b611330565b80516116a561325f565b60208151910120146000146116c457506060015163ffffffff16611674565b516116cd61327c565b60208151910120146000146104a2576080015163ffffffff16611674565b5190811015610a41576001036104a257604082018051611709613201565b6020815191012014600014611728575060a0015163ffffffff16611674565b51611731613221565b60208151910120146000146104a25760c0015163ffffffff16611674565b60405163356680b760e01b8152600490fd5b608083360312610394576040519061177882612dc7565b61178184612ec1565b82526020908185013592600284101561039457608093838201526040860135604082015260606117b2818801612ed5565b908201528152019201916112c8565b3461039457602036600319011261039457600435600052601060205260c0604060002060ff60018060a01b038254169160018101549060028101546022602183015492015492604051958652602086015260408501526060840152818116608084015260081c16151560a0820152f35b346103945760403660031901126103945761184a612fad565b602435600052602060118152604060002060018060a01b03809316600052815260406000206040519081838254918281520191600052836000209060005b8181106119ae575050508161189e910382612e63565b6118a8815161371b565b926000925b8251841015611984576118c0848461317a565b51600052601081526040600020936040516118da81612de2565b83865416815260019586810154848301526002810154604083015260405161190181612dfd565b60038281019890600090835b600a83106119695750505050611961949596975090602291606084015260218101546080840152015460ff9081811660a084015260081c16151560c0820152611956828861317a565b52610766818761317a565b9291906118ad565b818985926119768f613323565b8152019c019201919a61190d565b826106c96119a19287604051948594604086526040860190612fc3565b9184830390850152612d85565b825484529285019260019283019201611888565b3461039457602036600319011261039457600435600052600b6020526020604060002054604051908152f35b34610394576020366003190112610394576106c9611a0d600435613d78565b60405191829182612f12565b3461039457610b4036600319011261039457366023121561039457604051611a4081612dfd565b80610b44368111610394576004915b818310611e46576002805485906001600160a01b03163303610a9e576001600160401b03600061012c420193844211915b600a80821015611b9f57611a94828761312f565b516001600160401b0381511615610a81576020810191856001600160401b03845116906109ad57891015610a5d5763ffffffff80604084015116158015611b91575b8015611b83575b6104a2578060a08401511615908115611b74575b506104a257600184018085116109ad575b818110611b41575050506001600160401b039051166001600160401b0385168110611b37575b50611b3290613120565b611a80565b9350611b32611b28565b6001600160401b038351166001600160401b03611b5e838c61312f565b515116146104a257611b6f90613120565b611b02565b905060c083015116158a611af1565b508060808401511615611add565b508060608401511615611ad6565b50509184916109ad576001600160401b031690811115610a5d57611bc4600454613120565b9182600455600019918284018481116109ad57611be090613bde565b61012b19016001600160401b0381116109ad576001600160401b03169083600052600a926020938085526040600020966000905b828210611d5a57505050847f62eeb403dc233a7676f50cdb0fd72dae595aeb7c63039adce5caacc33254f9c0959650600052600b845282604060002055600c845260406000205560148352604060002060ff198154169055604051611c7881612de2565b42815283810190838252611d0c604082019160008352600360608201916000835260808101966000885260a08201956001875260c0830197600089528d600052600f8c526040600020935184555160018401555190820155019463ffffffff8092511663ffffffff198754161786555116849067ffffffff0000000082549160201b169067ffffffff000000001916179055565b5190611d1782612ee6565b611d2082612ee6565b60ff60401b69ff00000000000000000084549251151560481b169260401b169069ffff0000000000000000191617179055604051908152a2005b8051906001600160401b038251166fffffffffffffffff00000000000000008984015160401b1690604084015160608501516080808701519260a09163ffffffff60e01b838a015160e01b169560c097179163ffffffff60801b911b16179163ffffffff60a01b911b16179063ffffffff60c01b90841b1617178b5563ffffffff60018c01918401511663ffffffff1982541617905560e0868b0192015191825191611e0583612ee6565b611e0e83612ee6565b8982549401519160039384841015610a415760019560ff61ff008e9660081b1692169061ffff19161717905501990191019097611c14565b610120833603126103945760405161012091611e6182612e19565b611e6a85612ec1565b8252602091611e7a838701612ec1565b83820152611e8a60408701612ed5565b60408201526060611e9c818801612ed5565b908201526080611ead818801612ed5565b9082015260a0611ebe818801612ed5565b9082015260c0611ecf818801612ed5565b90820152611ee03660e08801612e84565b60e0820152815201920191611a4f565b34610394576102a03660031901126103945760043536604312156103945760405190611f1b82612dfd565b816102a43681116103945760249384905b82821061212e575050600280549091506001600160a01b03163303610a9e5782158015612123575b610a815782600052602091600f835260406000205415610a815783600052600f83526040600020906003908183019360ff908382875460401c16611f9781612ee6565b14610a6f57600180950154421115610a5d57600092855b612090575b5050845460ff60401b1916600360401b17855550505060008481526014845260409020805460ff191690911790555463ffffffff1661203757817fdd45cfbd9f2d20e6b7b6f5fa3148363d48017feae0c98de41ec4435a5aa75446929350600052600c8152426040600020555b82600052600d8152604060002054604051908152a2005b62015180420180421161207b57827fdd45cfbd9f2d20e6b7b6f5fa3148363d48017feae0c98de41ec4435a5aa75446939450600052600c8252604060002055612020565b83634e487b7160e01b60005260116004526000fd5b600a938481101561211d576120a5818361312f565b51948a6000528952826120bc826040600020613037565b5001908551916120cb83612ee6565b6120d483612ee6565b8a815497015192888410156121085789978761ff006121029660081b1692169061ffff191617179055613120565b93611fae565b8d634e487b7160e01b60005260216004526000fd5b50611fb3565b506004548311611f54565b602060409161213d3685612e84565b815201910190611f2c565b346103945760208060031936011261039457600435906001600160401b03908183116103945736602384011215610394578260040135918211610394576024600593368285871b83010111610394576121a08461371b565b9460005b8581106121be57604051858152806106c98188018a612d85565b8381831b84010135600052601085526040600020604051906121df82612de2565b80546001600160a01b03168252600181810154888401526002820154604080850191909152519061220f82612dfd565b600060038481018b855b600a8510612271575050505050508291602291606061226c9695015260218101546080840152015460ff9081811660a084015260081c16151560c0820152612261828a61317a565b52610766818961317a565b6121a4565b8591849161227e85613323565b8152019201930192908c90612219565b346103945760403660031901126103945760243560ff8116809103610394576004356000526015602052604060002090600052602052602060ff604060002054166040519015158152f35b3461039457600036600319011261039457602060405160328152f35b34610394576020806003193601126103945760405160a0906001600160401b03908281018281118282101761240d576040528360005b8481106124235750505060043560005260138352604060002090604051928301908382109082111761240d57604052600083835b600583106123c157508360405191826000905b600582106123805761028085f35b835180516001600160a01b0316825280840151828501526040808201519083015260609081015160ff16908201529282019260019190910190608001612372565b6001916004916040516123d381612dc7565b848060a01b03875416815284870154838201526002870154604082015260ff6003880154166060820152815201930191019091849061235f565b634e487b7160e01b600052604160045260246000fd5b61242b61368e565b8184015201849061232b565b34610394576000366003190112610394576020600354604051908152f35b34610394576000366003190112610394576020600554604051908152f35b346103945760203660031901126103945761248c613300565b6005546004351015610a815760043560005260106020526040600020600181015480600052600f602052600360ff816040600020015460401c166124cf81612ee6565b03610a6f5760228201549160ff8360081c16610a6f5760006103e883600052600a60205260406000209460005b600a8110612ac6575061ffff191660ff831690811761010017602285015561254292919015612abe575b602184018190558354600435906001600160a01b031686613902565b60018060a01b0390541680600052600760205260406000206000836000526011602052604060002083600052602052604060002080549081612674575b505050608081600080516020613e438339815191529254906001810154906004600282015491015491604051938452602084015260408301526060820152a280600052600e6020526040600020600f60205260016040600020910161264a600363ffffffff936126196125f786865460201c166132eb565b855467ffffffff00000000191660209190911b67ffffffff0000000016178555565b0161262984825460201c166132eb565b67ffffffff0000000082549160201b169067ffffffff000000001916179055565b54908082169160201c161461265f5760018055005b600052600c6020524260406000205580610539565b816000198101116109ad5761268d916000190190613299565b90549060031b1c600052601060205260406000209083600760ff6022850154161015600014612aad5750600183016126c58154613120565b905560ff6022830154168460005260096020526126e86040600020918254613140565b9055600360ff6022840154166008811015612aa4575b6009811015612a9b575b600a14612a93575b6000805b600560ff821610612a53575b50612a41575b60218301546002850180548211612a2c575b5050906007840154926001840184116109ad5785936001018703612a2057600585016127648154613120565b8091556006860180548211612a05575b50505b8360005260086020526040600020612790848254613140565b90556006546001600160a01b0316806128ee575b50845480612814575b506060600080516020613e43833981519152959360809593604060ff60227f9c7b6f99cba4ae2b8837d2a4ff724e1273427755c6f2e43bac3108bccb98b66a9601541691868152600860205220549060405192835260208301526040820152a2918561257f565b90919293506003850180546000198301908382116128da5761284861283d61284d93869361315a565b602187015490613140565b613383565b90556001850154612710908181029181830414901517156128c657608094600080516020613e438339815191529694604060ff60228b976128b17f9c7b6f99cba4ae2b8837d2a4ff724e1273427755c6f2e43bac3108bccb98b66a98606098613383565b60048b015596505050509395509395506127ad565b634e487b7160e01b84526011600452602484fd5b634e487b7160e01b86526011600452602486fd5b9350602281015493604051946e027b2323cb9b9b2bc9031bcb1b6329608d1b602087015288602f8701526201016960ed1b604f87015260ff60f81b9060f81b166052860152670818dbdc9c9958dd60c21b6053860152603b85528460608101106001600160401b0360608701111761240d5760608501604052803b15610394576379435c8360e01b6060860152866064860152600b6084860152606060a48601528451908160c487015260005b8281106129f05750906000918260e483890101526084876060810193601f801991011681010301908360608901915af1938415610780578694156127a4576129e7919250606001612e35565b600090876127a4565b80602091880160e4838201519101520161299b565b559192506003830183116109ad576003859301918780612774565b60016005860155612777565b556002810181116109ad576002018680612738565b600a810181116109ad57600a01612726565b87600052601360205286612a6b82604060002061300d565b50546001600160a01b031614612a8957612a8490613372565b612714565b5050600187612720565b506008612710565b60069150612708565b600491506126fe565b919060006005850155600191612777565b506000612526565b612adc612ad68260038801613037565b50613323565b612ae961162d838a613037565b60009060208301516002811015610a4157612c245760408301908151612b0d613242565b60208151910120149182612c01575b8215612bc0575b8215612b7b575b5050612b73575b612b45575b50612b4090613120565b6124fc565b93612b6b612b40929463ffffffff6060612b616103e895613372565b980151169061315a565b049290612b36565b506001612b31565b90915051612b8761327c565b60208151910120149081612b9e575b508a80612b2a565b6003915060e0015151612bb081612ee6565b612bb981612ee6565b148a612b96565b80925051612bcc61325f565b602081519101201480612be0575b91612b23565b50600260e082015151612bf281612ee6565b612bfb81612ee6565b14612bda565b9150600160e082015151612c1481612ee6565b612c1d81612ee6565b1491612b1c565b6040830151612c31613201565b60208151910120149081612c9d575b8115612c55575b5015612b3157506001612b31565b90506040830151612c64613221565b60208151910120149081612c7a575b508a612c47565b60e00151612c8b915060200161316d565b6003811015610a41576002148a612c73565b9050612caf602060e08301510161316d565b6003811015610a415760011490612c40565b80516001600160a01b0316825260208082015181840152604080830151818501526060808401519290600090818188015b600a8410612d29575050505050505060c08160806105a093015161056085015260ff60a08201511661058085015201511515910152565b86516001600160401b038151168252858101516002811015612d715786830152868101518783015283015163ffffffff16838201529584019560019390930192608001612cf2565b634e487b7160e01b84526021600452602484fd5b90815180825260208080930193019160005b828110612da5575050505090565b90919293826105c082612dbb6001948951612cc1565b01950193929101612d97565b608081019081106001600160401b0382111761240d57604052565b60e081019081106001600160401b0382111761240d57604052565b61014081019081106001600160401b0382111761240d57604052565b61010081019081106001600160401b0382111761240d57604052565b6001600160401b03811161240d57604052565b604081019081106001600160401b0382111761240d57604052565b90601f801991011681019081106001600160401b0382111761240d57604052565b919082604091031261039457604051612e9c81612e48565b8092803590600482101561039457602091835201359060038210156103945760200152565b35906001600160401b038216820361039457565b359063ffffffff8216820361039457565b60041115610a4157565b6020908051612efe81612ee6565b83520151906003821015610a415760200152565b610b40810192916000915b600a8310612f2a57505050565b600190610120835191612fa16001600160401b039384815116835260209485820151168584015263ffffffff60408181840151169085015260608181840151169085015260808181840151169085015260a08181840151169085015260c09081830151169084015260e08091015190830190612ef0565b01920192019190612f1d565b600435906001600160a01b038216820361039457565b90815180825260208080930193019160005b828110612fe3575050505090565b835185529381019392810192600101612fd5565b6040906003190112610394576004359060243590565b9060058110156130215760021b0190600090565b634e487b7160e01b600052603260045260246000fd5b90600a811015613021576003020190600090565b9060405161305881612e48565b60ff81935481811661306981612ee6565b835260081c16906003821015610a415760200152565b6001600160401b03811161240d5760051b60200190565b81601f82011215610394578035916130ad8361307f565b926130bb6040519485612e63565b808452602092838086019260051b820101928311610394578301905b8282106130e5575050505090565b813581529083019083016130d7565b6000546001600160a01b0316330361310857565b60405163118cdaa760e01b8152336004820152602490fd5b60001981146109ad5760010190565b90600a8110156130215760051b0190565b919082018092116109ad57565b919082039182116109ad57565b818102929181159184041417156109ad57565b516003811015610a415790565b80518210156130215760209160051b010190565b9060405161319b81612e19565b60e06131fc6002839580546001600160401b0380821687528160401c16602087015263ffffffff90818160801c166040880152818160a01c166060880152818160c01c166080880152851c60a087015260018201541660c08601520161304b565b910152565b6040519061320e82612e48565b600482526327bb32b960e11b6020830152565b6040519061322e82612e48565b60058252642ab73232b960d91b6020830152565b6040519061324f82612e48565b60018252603160f81b6020830152565b6040519061326c82612e48565b60018252600b60fb1b6020830152565b6040519061328982612e48565b60018252601960f91b6020830152565b80548210156130215760005260206000200190600090565b80546801000000000000000081101561240d576132d391600182018155613299565b819291549060031b91821b91600019901b1916179055565b63ffffffff8091169081146109ad5760010190565b600260015414613311576002600155565b604051633ee5aeb560e01b8152600490fd5b9060405161333081612dc7565b809260ff81546001600160401b038116845260401c16906002821015610a4157600263ffffffff91606093602086015260018101546040860152015416910152565b60ff1660ff81146109ad5760010190565b811561338d570490565b634e487b7160e01b600052601260045260246000fd5b3d156133dd573d906001600160401b03821161240d57604051916133d1601f8201601f191660200184612e63565b82523d6000602084013e565b606090565b6000908082526020600f815260ff92604091600385818585200154851c1661340981612ee6565b036135fe57838252600c81528282205442106135ed578382526013815282822082908390845b6005898216106135b7575b5050156135a6578483526015825283832095808216968785528352848420541661359557848352600d82528383205461347291613b52565b91821561357457848152601582528381208682528252838120805460ff19166001179055808080806134d26127106134ca7f00000000000000000000000000000000000000000000000000000000000000008a61315a565b04809861314d565b967f00000000000000000000000000000000000000000000000000000000000000006001600160a01b03165af16135076133a3565b50156135635780808085335af161351c6133a3565b501561355257825194855284015233927f64da964e036dd66a7be792791f60a47ec5378950b9d12795de3f453aa3940eb09190a3565b82516312171d8360e31b8152600490fd5b83516312171d8360e31b8152600490fd5b93845260158152828420948452939093529020805460ff1916600117905550565b835163baf3f0f760e01b8152600490fd5b8351635a26d5fd60e11b8152600490fd5b6135c1818361300d565b50546001600160a01b031633146135e0576135db90613372565b61342f565b925050506001388061343a565b825163c8b9bc9160e01b8152600490fd5b825163baf3f0f760e01b8152600490fd5b604090815161361d81612dfd565b809260005b610140811061363057505050565b602090825161363e81612e19565b60008152826000818301526000858301526000606083015260006080830152600060a0830152600060c0830152600085519161367983612e48565b81835282015260e08201528185015201613622565b6040519061369b82612dc7565b60006060838281528260208201528260408201520152565b604051906136c082612de2565b8160009081815260208281830152826040830152604051906136e182612dfd565b835b61014081106137075750509060c09160608201528260808201528260a08201520152565b819061371161368e565b81850152016136e3565b906137258261307f565b6137326040519182612e63565b8281528092613743601f199161307f565b019060005b82811061375457505050565b60209061375f6136b3565b82828501015201613748565b600454806137855750600090600090600090600090600090565b9081600052600f602052604060002090604051926137a284612de2565b8254845260018301549160208501928352600360028501549460408701958652015494606081019363ffffffff918288168652828860201c16608082015260c060ff808a60401c16996137f48b612ee6565b8a60a085015260481c16151591015261380c87612ee6565b61381587612ee6565b519451935116919493929190565b801580156138ea575b6138d557600052600f60205260406000206040519161384a83612de2565b81548352600182015460208401908152600360028401549360408601948552015490606085019263ffffffff8084168552808460201c16608088015260ff8460401c169661389788612ee6565b8760a082015260ff60c082019560481c1615158552511515926138b988612ee6565b6138c288612ee6565b5195519451169251151591959493929190565b50600090600090600090600090600090600090565b50600454811161382c565b80156109ad576000190190565b9291939060ff8092169260078410613b4a5760009585875260136020526040872092600019936005805b613ac4575b5060018501613946575b505050505050505050565b600494855b818111613a10575061398b906040519261396484612dc7565b6001600160a01b039485168452602084019586526040840196875260608401998a5261300d565b9590956139fe57505184546001600160a01b031916911617835551600183015551600282015591516003928301805460ff191691909216179055908252600f602052604090912001805469ff0000000000000000001916690100000000000000000017905538808080808080808061393b565b634e487b7160e01b8a52899052602489fd5b6000198101818111613ab157613a26908461300d565b50613a31828561300d565b613a9f5790898282613a4c959403613a51575b5050506138f5565b61394b565b825481546001600160a01b0319166001600160a01b039190911617815560018381015490820155600280840154908201556003928301549201805460ff191691909216179055388981613a44565b634e487b7160e01b8d528c895260248dfd5b634e487b7160e01b8c526011885260248cfd5b94600019860190868211613b3657613adc828461300d565b5060028101549089828911928315613b11575b505050600014613b0a5750613b0490956138f5565b8061392c565b9550613931565b891492509082613b26575b5050388981613aef565b60030154168a1190508838613b1c565b634e487b7160e01b8b52601160045260248bfd5b505050505050565b60009060ff1680613b73575050613b6f61271091610fa09061315a565b0490565b60018103613b8d575050613b6f61271091610bb89061315a565b60028103613ba7575050613b6f612710916107d09061315a565b60038103613bc1575050613b6f612710916101f49061315a565b600403613bd95750613b6f612710916101f49061315a565b905090565b8015613d3b5760008181526013602052604080822080546001600160a01b039493929190851615908115613d28575b50613c19575b50505050565b600d602052808220549182613c2f575b50613c13565b613c67612710613c5f7f00000000000000000000000000000000000000000000000000000000000000008661315a565b04809461314d565b92848252600d60205281838120556001850195868611613d14578280928192898352600d602052868320613c9c898254613140565b90557f0000000000000000000000000000000000000000000000000000000000000000165af1613cca6133a3565b5015613d04577fd02ee9eafb934e2ffd95384478ef177c9932fd0d6cb1813747b8eefdf55d8b199160209151908152a33880808080613c29565b516312171d8360e31b8152600490fd5b634e487b7160e01b83526011600452602483fd5b60079150600360ff910154161038613c0d565b50565b60045481118015613d70575b613d6a57600052600a6020526001600160401b0360406000205416151590565b50600090565b508015613d4a565b613d8061360f565b5060045481111580613e39575b15613dfd57600052600a602090808252604060002060405192613daf84612dfd565b600091845b848410613de05750505050506001600160401b038151511615613dd45790565b50613ddd61360f565b90565b600383600192613def8561318e565b815201920193019290613db4565b60405162461bcd60e51b815260206004820152601460248201527310de58db1948191bd95cc81b9bdd08195e1a5cdd60621b6044820152606490fd5b50801515613d8d56fedbc55064e49993e4c979488990287b80a393512ce56bbe0cb3834df880cf97c7a26469706673582212209aae5d2515d7ae9addd0e1a87e2e731c5a8ed81d80a62ca0519d1918aad27e5f64736f6c63430008140033",
  "linkReferences": {},
  "deployedLinkReferences": {}
}