{
  "_format": "hh-sol-artifact-1",
  "contractName": "Oddyssey",
  "sourceName": "contracts/Oddyssey.sol",
  "abi": [
    {
      "inputs": [
        {
          "internalType": "address",
          "name": "_devWallet",
          "type": "address"
        },
        {
          "internalType": "uint256",
          "name": "_initialEntryFee",
          "type": "uint256"
        }
      ],
      "stateMutability": "nonpayable",
      "type": "constructor"
    },
    {
      "inputs": [],
      "name": "DataNotFound",
      "type": "error"
    },
    {
      "inputs": [],
      "name": "InsufficientFunds",
      "type": "error"
    },
    {
      "inputs": [],
      "name": "InvalidInput",
      "type": "error"
    },
    {
      "inputs": [],
      "name": "InvalidState",
      "type": "error"
    },
    {
      "inputs": [],
      "name": "InvalidTiming",
      "type": "error"
    },
    {
      "inputs": [
        {
          "internalType": "address",
          "name": "owner",
          "type": "address"
        }
      ],
      "name": "OwnableInvalidOwner",
      "type": "error"
    },
    {
      "inputs": [
        {
          "internalType": "address",
          "name": "account",
          "type": "address"
        }
      ],
      "name": "OwnableUnauthorizedAccount",
      "type": "error"
    },
    {
      "inputs": [],
      "name": "ReentrancyGuardReentrantCall",
      "type": "error"
    },
    {
      "inputs": [],
      "name": "TransferFailed",
      "type": "error"
    },
    {
      "inputs": [],
      "name": "Unauthorized",
      "type": "error"
    },
    {
      "anonymous": false,
      "inputs": [
        {
          "indexed": true,
          "internalType": "uint256",
          "name": "cycleId",
          "type": "uint256"
        },
        {
          "indexed": false,
          "internalType": "uint256",
          "name": "totalVolume",
          "type": "uint256"
        },
        {
          "indexed": false,
          "internalType": "uint32",
          "name": "totalSlips",
          "type": "uint32"
        },
        {
          "indexed": false,
          "internalType": "uint256",
          "name": "averageScore",
          "type": "uint256"
        }
      ],
      "name": "AnalyticsUpdated",
      "type": "event"
    },
    {
      "anonymous": false,
      "inputs": [
        {
          "indexed": true,
          "internalType": "uint256",
          "name": "cycleId",
          "type": "uint256"
        },
        {
          "indexed": false,
          "internalType": "uint256",
          "name": "endTime",
          "type": "uint256"
        },
        {
          "indexed": false,
          "internalType": "uint32",
          "name": "totalSlips",
          "type": "uint32"
        }
      ],
      "name": "CycleEnded",
      "type": "event"
    },
    {
      "anonymous": false,
      "inputs": [
        {
          "indexed": true,
          "internalType": "uint256",
          "name": "cycleId",
          "type": "uint256"
        },
        {
          "indexed": false,
          "internalType": "uint256",
          "name": "prizePool",
          "type": "uint256"
        }
      ],
      "name": "CycleResolved",
      "type": "event"
    },
    {
      "anonymous": false,
      "inputs": [
        {
          "indexed": true,
          "internalType": "uint256",
          "name": "cycleId",
          "type": "uint256"
        },
        {
          "indexed": false,
          "internalType": "uint256",
          "name": "endTime",
          "type": "uint256"
        }
      ],
      "name": "CycleStarted",
      "type": "event"
    },
    {
      "anonymous": false,
      "inputs": [
        {
          "indexed": true,
          "internalType": "uint256",
          "name": "newFee",
          "type": "uint256"
        }
      ],
      "name": "EntryFeeSet",
      "type": "event"
    },
    {
      "anonymous": false,
      "inputs": [
        {
          "indexed": true,
          "internalType": "uint256",
          "name": "cycleId",
          "type": "uint256"
        },
        {
          "indexed": true,
          "internalType": "address",
          "name": "player",
          "type": "address"
        },
        {
          "indexed": true,
          "internalType": "uint256",
          "name": "slipId",
          "type": "uint256"
        },
        {
          "indexed": false,
          "internalType": "uint8",
          "name": "rank",
          "type": "uint8"
        },
        {
          "indexed": false,
          "internalType": "uint256",
          "name": "finalScore",
          "type": "uint256"
        }
      ],
      "name": "LeaderboardUpdated",
      "type": "event"
    },
    {
      "anonymous": false,
      "inputs": [
        {
          "indexed": true,
          "internalType": "address",
          "name": "user",
          "type": "address"
        },
        {
          "indexed": false,
          "internalType": "uint256",
          "name": "pointsEarned",
          "type": "uint256"
        },
        {
          "indexed": false,
          "internalType": "uint256",
          "name": "correctPredictions",
          "type": "uint256"
        },
        {
          "indexed": false,
          "internalType": "uint256",
          "name": "totalReputation",
          "type": "uint256"
        }
      ],
      "name": "OddysseyReputationUpdated",
      "type": "event"
    },
    {
      "anonymous": false,
      "inputs": [
        {
          "indexed": true,
          "internalType": "address",
          "name": "newOracle",
          "type": "address"
        }
      ],
      "name": "OracleSet",
      "type": "event"
    },
    {
      "anonymous": false,
      "inputs": [
        {
          "indexed": true,
          "internalType": "address",
          "name": "previousOwner",
          "type": "address"
        },
        {
          "indexed": true,
          "internalType": "address",
          "name": "newOwner",
          "type": "address"
        }
      ],
      "name": "OwnershipTransferred",
      "type": "event"
    },
    {
      "anonymous": false,
      "inputs": [
        {
          "indexed": true,
          "internalType": "uint256",
          "name": "cycleId",
          "type": "uint256"
        },
        {
          "indexed": true,
          "internalType": "address",
          "name": "player",
          "type": "address"
        },
        {
          "indexed": true,
          "internalType": "uint256",
          "name": "slipId",
          "type": "uint256"
        },
        {
          "indexed": false,
          "internalType": "uint256",
          "name": "rank",
          "type": "uint256"
        },
        {
          "indexed": false,
          "internalType": "uint256",
          "name": "amount",
          "type": "uint256"
        }
      ],
      "name": "PrizeClaimed",
      "type": "event"
    },
    {
      "anonymous": false,
      "inputs": [
        {
          "indexed": true,
          "internalType": "uint256",
          "name": "fromCycleId",
          "type": "uint256"
        },
        {
          "indexed": true,
          "internalType": "uint256",
          "name": "toCycleId",
          "type": "uint256"
        },
        {
          "indexed": false,
          "internalType": "uint256",
          "name": "amount",
          "type": "uint256"
        }
      ],
      "name": "PrizeRollover",
      "type": "event"
    },
    {
      "anonymous": false,
      "inputs": [
        {
          "indexed": true,
          "internalType": "address",
          "name": "user",
          "type": "address"
        },
        {
          "indexed": false,
          "internalType": "enum IReputationSystem.ReputationAction",
          "name": "action",
          "type": "uint8"
        },
        {
          "indexed": false,
          "internalType": "uint256",
          "name": "value",
          "type": "uint256"
        },
        {
          "indexed": true,
          "internalType": "bytes32",
          "name": "cycleId",
          "type": "bytes32"
        },
        {
          "indexed": false,
          "internalType": "uint256",
          "name": "timestamp",
          "type": "uint256"
        }
      ],
      "name": "ReputationActionOccurred",
      "type": "event"
    },
    {
      "anonymous": false,
      "inputs": [
        {
          "indexed": true,
          "internalType": "uint256",
          "name": "slipId",
          "type": "uint256"
        },
        {
          "indexed": true,
          "internalType": "address",
          "name": "player",
          "type": "address"
        },
        {
          "indexed": true,
          "internalType": "uint256",
          "name": "cycleId",
          "type": "uint256"
        },
        {
          "indexed": false,
          "internalType": "uint8",
          "name": "correctCount",
          "type": "uint8"
        },
        {
          "indexed": false,
          "internalType": "uint256",
          "name": "finalScore",
          "type": "uint256"
        }
      ],
      "name": "SlipEvaluated",
      "type": "event"
    },
    {
      "anonymous": false,
      "inputs": [
        {
          "indexed": true,
          "internalType": "uint256",
          "name": "cycleId",
          "type": "uint256"
        },
        {
          "indexed": true,
          "internalType": "address",
          "name": "player",
          "type": "address"
        },
        {
          "indexed": true,
          "internalType": "uint256",
          "name": "slipId",
          "type": "uint256"
        }
      ],
      "name": "SlipPlaced",
      "type": "event"
    },
    {
      "anonymous": false,
      "inputs": [
        {
          "indexed": true,
          "internalType": "address",
          "name": "user",
          "type": "address"
        },
        {
          "indexed": false,
          "internalType": "uint256",
          "name": "totalSlips",
          "type": "uint256"
        },
        {
          "indexed": false,
          "internalType": "uint256",
          "name": "totalWins",
          "type": "uint256"
        },
        {
          "indexed": false,
          "internalType": "uint256",
          "name": "bestScore",
          "type": "uint256"
        },
        {
          "indexed": false,
          "internalType": "uint256",
          "name": "winRate",
          "type": "uint256"
        }
      ],
      "name": "UserStatsUpdated",
      "type": "event"
    },
    {
      "inputs": [],
      "name": "DAILY_LEADERBOARD_SIZE",
      "outputs": [
        {
          "internalType": "uint256",
          "name": "",
          "type": "uint256"
        }
      ],
      "stateMutability": "view",
      "type": "function"
    },
    {
      "inputs": [],
      "name": "DEV_FEE_PERCENTAGE",
      "outputs": [
        {
          "internalType": "uint256",
          "name": "",
          "type": "uint256"
        }
      ],
      "stateMutability": "view",
      "type": "function"
    },
    {
      "inputs": [],
      "name": "MATCH_COUNT",
      "outputs": [
        {
          "internalType": "uint256",
          "name": "",
          "type": "uint256"
        }
      ],
      "stateMutability": "view",
      "type": "function"
    },
    {
      "inputs": [],
      "name": "MAX_CYCLES_TO_RESOLVE",
      "outputs": [
        {
          "internalType": "uint256",
          "name": "",
          "type": "uint256"
        }
      ],
      "stateMutability": "view",
      "type": "function"
    },
    {
      "inputs": [],
      "name": "MIN_CORRECT_PREDICTIONS",
      "outputs": [
        {
          "internalType": "uint256",
          "name": "",
          "type": "uint256"
        }
      ],
      "stateMutability": "view",
      "type": "function"
    },
    {
      "inputs": [],
      "name": "ODDS_SCALING_FACTOR",
      "outputs": [
        {
          "internalType": "uint256",
          "name": "",
          "type": "uint256"
        }
      ],
      "stateMutability": "view",
      "type": "function"
    },
    {
      "inputs": [],
      "name": "PRIZE_ROLLOVER_FEE_PERCENTAGE",
      "outputs": [
        {
          "internalType": "uint256",
          "name": "",
          "type": "uint256"
        }
      ],
      "stateMutability": "view",
      "type": "function"
    },
    {
      "inputs": [
        {
          "internalType": "address",
          "name": "_user",
          "type": "address"
        },
        {
          "internalType": "uint256",
          "name": "_cycleId",
          "type": "uint256"
        },
        {
          "internalType": "uint256",
          "name": "_slipId",
          "type": "uint256"
        }
      ],
      "name": "canClaimPrize",
      "outputs": [
        {
          "internalType": "bool",
          "name": "canClaim",
          "type": "bool"
        },
        {
          "internalType": "uint8",
          "name": "rank",
          "type": "uint8"
        }
      ],
      "stateMutability": "view",
      "type": "function"
    },
    {
      "inputs": [
        {
          "internalType": "uint256[]",
          "name": "_cycleIds",
          "type": "uint256[]"
        },
        {
          "internalType": "uint256[]",
          "name": "_slipIds",
          "type": "uint256[]"
        }
      ],
      "name": "claimMultiplePrizes",
      "outputs": [],
      "stateMutability": "nonpayable",
      "type": "function"
    },
    {
      "inputs": [
        {
          "internalType": "uint256",
          "name": "_cycleId",
          "type": "uint256"
        },
        {
          "internalType": "uint256",
          "name": "_slipId",
          "type": "uint256"
        }
      ],
      "name": "claimPrize",
      "outputs": [],
      "stateMutability": "nonpayable",
      "type": "function"
    },
    {
      "inputs": [
        {
          "internalType": "uint256",
          "name": "",
          "type": "uint256"
        }
      ],
      "name": "claimableStartTimes",
      "outputs": [
        {
          "internalType": "uint256",
          "name": "",
          "type": "uint256"
        }
      ],
      "stateMutability": "view",
      "type": "function"
    },
    {
      "inputs": [
        {
          "internalType": "uint256",
          "name": "",
          "type": "uint256"
        }
      ],
      "name": "cycleInfo",
      "outputs": [
        {
          "internalType": "uint256",
          "name": "startTime",
          "type": "uint256"
        },
        {
          "internalType": "uint256",
          "name": "endTime",
          "type": "uint256"
        },
        {
          "internalType": "uint256",
          "name": "prizePool",
          "type": "uint256"
        },
        {
          "internalType": "uint32",
          "name": "slipCount",
          "type": "uint32"
        },
        {
          "internalType": "uint32",
          "name": "evaluatedSlips",
          "type": "uint32"
        },
        {
          "internalType": "enum Oddyssey.CycleState",
          "name": "state",
          "type": "uint8"
        },
        {
          "internalType": "bool",
          "name": "hasWinner",
          "type": "bool"
        }
      ],
      "stateMutability": "view",
      "type": "function"
    },
    {
      "inputs": [
        {
          "internalType": "uint256",
          "name": "",
          "type": "uint256"
        }
      ],
      "name": "cycleStats",
      "outputs": [
        {
          "internalType": "uint256",
          "name": "volume",
          "type": "uint256"
        },
        {
          "internalType": "uint32",
          "name": "slips",
          "type": "uint32"
        },
        {
          "internalType": "uint32",
          "name": "evaluatedSlips",
          "type": "uint32"
        }
      ],
      "stateMutability": "view",
      "type": "function"
    },
    {
      "inputs": [
        {
          "internalType": "uint256",
          "name": "",
          "type": "uint256"
        }
      ],
      "name": "dailyAverageScore",
      "outputs": [
        {
          "internalType": "uint256",
          "name": "",
          "type": "uint256"
        }
      ],
      "stateMutability": "view",
      "type": "function"
    },
    {
      "inputs": [
        {
          "internalType": "uint256",
          "name": "",
          "type": "uint256"
        }
      ],
      "name": "dailyCorrectPredictions",
      "outputs": [
        {
          "internalType": "uint256",
          "name": "",
          "type": "uint256"
        }
      ],
      "stateMutability": "view",
      "type": "function"
    },
    {
      "inputs": [
        {
          "internalType": "uint256",
          "name": "",
          "type": "uint256"
        }
      ],
      "name": "dailyCycleEndTimes",
      "outputs": [
        {
          "internalType": "uint256",
          "name": "",
          "type": "uint256"
        }
      ],
      "stateMutability": "view",
      "type": "function"
    },
    {
      "inputs": [],
      "name": "dailyCycleId",
      "outputs": [
        {
          "internalType": "uint256",
          "name": "",
          "type": "uint256"
        }
      ],
      "stateMutability": "view",
      "type": "function"
    },
    {
      "inputs": [
        {
          "internalType": "uint256",
          "name": "",
          "type": "uint256"
        }
      ],
      "name": "dailyEvaluatedSlips",
      "outputs": [
        {
          "internalType": "uint256",
          "name": "",
          "type": "uint256"
        }
      ],
      "stateMutability": "view",
      "type": "function"
    },
    {
      "inputs": [
        {
          "internalType": "uint256",
          "name": "",
          "type": "uint256"
        },
        {
          "internalType": "uint256",
          "name": "",
          "type": "uint256"
        }
      ],
      "name": "dailyLeaderboards",
      "outputs": [
        {
          "internalType": "address",
          "name": "player",
          "type": "address"
        },
        {
          "internalType": "uint256",
          "name": "slipId",
          "type": "uint256"
        },
        {
          "internalType": "uint256",
          "name": "finalScore",
          "type": "uint256"
        },
        {
          "internalType": "uint8",
          "name": "correctCount",
          "type": "uint8"
        }
      ],
      "stateMutability": "view",
      "type": "function"
    },
    {
      "inputs": [
        {
          "internalType": "uint256",
          "name": "",
          "type": "uint256"
        },
        {
          "internalType": "uint256",
          "name": "",
          "type": "uint256"
        }
      ],
      "name": "dailyMatches",
      "outputs": [
        {
          "internalType": "uint64",
          "name": "id",
          "type": "uint64"
        },
        {
          "internalType": "uint64",
          "name": "startTime",
          "type": "uint64"
        },
        {
          "internalType": "uint32",
          "name": "oddsHome",
          "type": "uint32"
        },
        {
          "internalType": "uint32",
          "name": "oddsDraw",
          "type": "uint32"
        },
        {
          "internalType": "uint32",
          "name": "oddsAway",
          "type": "uint32"
        },
        {
          "internalType": "uint32",
          "name": "oddsOver",
          "type": "uint32"
        },
        {
          "internalType": "uint32",
          "name": "oddsUnder",
          "type": "uint32"
        },
        {
          "internalType": "string",
          "name": "homeTeam",
          "type": "string"
        },
        {
          "internalType": "string",
          "name": "awayTeam",
          "type": "string"
        },
        {
          "internalType": "string",
          "name": "leagueName",
          "type": "string"
        },
        {
          "components": [
            {
              "internalType": "enum Oddyssey.MoneylineResult",
              "name": "moneyline",
              "type": "uint8"
            },
            {
              "internalType": "enum Oddyssey.OverUnderResult",
              "name": "overUnder",
              "type": "uint8"
            }
          ],
          "internalType": "struct Oddyssey.Result",
          "name": "result",
          "type": "tuple"
        }
      ],
      "stateMutability": "view",
      "type": "function"
    },
    {
      "inputs": [
        {
          "internalType": "uint256",
          "name": "",
          "type": "uint256"
        }
      ],
      "name": "dailyMaxScore",
      "outputs": [
        {
          "internalType": "uint256",
          "name": "",
          "type": "uint256"
        }
      ],
      "stateMutability": "view",
      "type": "function"
    },
    {
      "inputs": [
        {
          "internalType": "uint256",
          "name": "",
          "type": "uint256"
        }
      ],
      "name": "dailyMinScore",
      "outputs": [
        {
          "internalType": "uint256",
          "name": "",
          "type": "uint256"
        }
      ],
      "stateMutability": "view",
      "type": "function"
    },
    {
      "inputs": [
        {
          "internalType": "uint256",
          "name": "",
          "type": "uint256"
        }
      ],
      "name": "dailyPrizePools",
      "outputs": [
        {
          "internalType": "uint256",
          "name": "",
          "type": "uint256"
        }
      ],
      "stateMutability": "view",
      "type": "function"
    },
    {
      "inputs": [
        {
          "internalType": "uint256",
          "name": "",
          "type": "uint256"
        }
      ],
      "name": "dailySlipCount",
      "outputs": [
        {
          "internalType": "uint256",
          "name": "",
          "type": "uint256"
        }
      ],
      "stateMutability": "view",
      "type": "function"
    },
    {
      "inputs": [
        {
          "internalType": "uint256",
          "name": "",
          "type": "uint256"
        }
      ],
      "name": "dailyUserCount",
      "outputs": [
        {
          "internalType": "uint256",
          "name": "",
          "type": "uint256"
        }
      ],
      "stateMutability": "view",
      "type": "function"
    },
    {
      "inputs": [
        {
          "internalType": "uint256",
          "name": "",
          "type": "uint256"
        }
      ],
      "name": "dailyVolume",
      "outputs": [
        {
          "internalType": "uint256",
          "name": "",
          "type": "uint256"
        }
      ],
      "stateMutability": "view",
      "type": "function"
    },
    {
      "inputs": [
        {
          "internalType": "uint256",
          "name": "",
          "type": "uint256"
        }
      ],
      "name": "dailyWinnersCount",
      "outputs": [
        {
          "internalType": "uint256",
          "name": "",
          "type": "uint256"
        }
      ],
      "stateMutability": "view",
      "type": "function"
    },
    {
      "inputs": [],
      "name": "devWallet",
      "outputs": [
        {
          "internalType": "address",
          "name": "",
          "type": "address"
        }
      ],
      "stateMutability": "view",
      "type": "function"
    },
    {
      "inputs": [],
      "name": "entryFee",
      "outputs": [
        {
          "internalType": "uint256",
          "name": "",
          "type": "uint256"
        }
      ],
      "stateMutability": "view",
      "type": "function"
    },
    {
      "inputs": [
        {
          "internalType": "uint256[]",
          "name": "_slipIds",
          "type": "uint256[]"
        }
      ],
      "name": "evaluateMultipleSlips",
      "outputs": [],
      "stateMutability": "nonpayable",
      "type": "function"
    },
    {
      "inputs": [
        {
          "internalType": "uint256",
          "name": "_slipId",
          "type": "uint256"
        }
      ],
      "name": "evaluateSlip",
      "outputs": [],
      "stateMutability": "nonpayable",
      "type": "function"
    },
    {
      "inputs": [
        {
          "internalType": "address",
          "name": "_user",
          "type": "address"
        }
      ],
      "name": "getAllUserSlips",
      "outputs": [
        {
          "internalType": "uint256[]",
          "name": "",
          "type": "uint256[]"
        }
      ],
      "stateMutability": "view",
      "type": "function"
    },
    {
      "inputs": [
        {
          "internalType": "uint256[]",
          "name": "_slipIds",
          "type": "uint256[]"
        }
      ],
      "name": "getBatchSlips",
      "outputs": [
        {
          "components": [
            {
              "internalType": "address",
              "name": "player",
              "type": "address"
            },
            {
              "internalType": "uint256",
              "name": "cycleId",
              "type": "uint256"
            },
            {
              "internalType": "uint256",
              "name": "placedAt",
              "type": "uint256"
            },
            {
              "components": [
                {
                  "internalType": "uint64",
                  "name": "matchId",
                  "type": "uint64"
                },
                {
                  "internalType": "uint8",
                  "name": "betType",
                  "type": "uint8"
                },
                {
                  "internalType": "string",
                  "name": "selection",
                  "type": "string"
                },
                {
                  "internalType": "uint32",
                  "name": "selectedOdd",
                  "type": "uint32"
                }
              ],
              "internalType": "struct Oddyssey.UserPrediction[10]",
              "name": "predictions",
              "type": "tuple[10]"
            },
            {
              "internalType": "uint256",
              "name": "finalScore",
              "type": "uint256"
            },
            {
              "internalType": "uint8",
              "name": "correctCount",
              "type": "uint8"
            },
            {
              "internalType": "bool",
              "name": "isEvaluated",
              "type": "bool"
            }
          ],
          "internalType": "struct Oddyssey.Slip[]",
          "name": "",
          "type": "tuple[]"
        }
      ],
      "stateMutability": "view",
      "type": "function"
    },
    {
      "inputs": [],
      "name": "getCurrentCycle",
      "outputs": [
        {
          "internalType": "uint256",
          "name": "",
          "type": "uint256"
        }
      ],
      "stateMutability": "view",
      "type": "function"
    },
    {
      "inputs": [],
      "name": "getCurrentCycleInfo",
      "outputs": [
        {
          "internalType": "uint256",
          "name": "cycleId",
          "type": "uint256"
        },
        {
          "internalType": "uint8",
          "name": "state",
          "type": "uint8"
        },
        {
          "internalType": "uint256",
          "name": "endTime",
          "type": "uint256"
        },
        {
          "internalType": "uint256",
          "name": "prizePool",
          "type": "uint256"
        },
        {
          "internalType": "uint32",
          "name": "cycleSlipCount",
          "type": "uint32"
        }
      ],
      "stateMutability": "view",
      "type": "function"
    },
    {
      "inputs": [
        {
          "internalType": "uint256",
          "name": "_cycleId",
          "type": "uint256"
        }
      ],
      "name": "getCycleMatches",
      "outputs": [
        {
          "components": [
            {
              "internalType": "uint64",
              "name": "id",
              "type": "uint64"
            },
            {
              "internalType": "uint64",
              "name": "startTime",
              "type": "uint64"
            },
            {
              "internalType": "uint32",
              "name": "oddsHome",
              "type": "uint32"
            },
            {
              "internalType": "uint32",
              "name": "oddsDraw",
              "type": "uint32"
            },
            {
              "internalType": "uint32",
              "name": "oddsAway",
              "type": "uint32"
            },
            {
              "internalType": "uint32",
              "name": "oddsOver",
              "type": "uint32"
            },
            {
              "internalType": "uint32",
              "name": "oddsUnder",
              "type": "uint32"
            },
            {
              "internalType": "string",
              "name": "homeTeam",
              "type": "string"
            },
            {
              "internalType": "string",
              "name": "awayTeam",
              "type": "string"
            },
            {
              "internalType": "string",
              "name": "leagueName",
              "type": "string"
            },
            {
              "components": [
                {
                  "internalType": "enum Oddyssey.MoneylineResult",
                  "name": "moneyline",
                  "type": "uint8"
                },
                {
                  "internalType": "enum Oddyssey.OverUnderResult",
                  "name": "overUnder",
                  "type": "uint8"
                }
              ],
              "internalType": "struct Oddyssey.Result",
              "name": "result",
              "type": "tuple"
            }
          ],
          "internalType": "struct Oddyssey.Match[10]",
          "name": "",
          "type": "tuple[10]"
        }
      ],
      "stateMutability": "view",
      "type": "function"
    },
    {
      "inputs": [
        {
          "internalType": "uint256",
          "name": "_cycleId",
          "type": "uint256"
        }
      ],
      "name": "getCycleStatus",
      "outputs": [
        {
          "internalType": "bool",
          "name": "exists",
          "type": "bool"
        },
        {
          "internalType": "uint8",
          "name": "state",
          "type": "uint8"
        },
        {
          "internalType": "uint256",
          "name": "endTime",
          "type": "uint256"
        },
        {
          "internalType": "uint256",
          "name": "prizePool",
          "type": "uint256"
        },
        {
          "internalType": "uint32",
          "name": "cycleSlipCount",
          "type": "uint32"
        },
        {
          "internalType": "bool",
          "name": "hasWinner",
          "type": "bool"
        }
      ],
      "stateMutability": "view",
      "type": "function"
    },
    {
      "inputs": [
        {
          "internalType": "uint256",
          "name": "_cycleId",
          "type": "uint256"
        }
      ],
      "name": "getDailyLeaderboard",
      "outputs": [
        {
          "components": [
            {
              "internalType": "address",
              "name": "player",
              "type": "address"
            },
            {
              "internalType": "uint256",
              "name": "slipId",
              "type": "uint256"
            },
            {
              "internalType": "uint256",
              "name": "finalScore",
              "type": "uint256"
            },
            {
              "internalType": "uint8",
              "name": "correctCount",
              "type": "uint8"
            }
          ],
          "internalType": "struct Oddyssey.LeaderboardEntry[5]",
          "name": "",
          "type": "tuple[5]"
        }
      ],
      "stateMutability": "view",
      "type": "function"
    },
    {
      "inputs": [
        {
          "internalType": "uint256",
          "name": "_cycleId",
          "type": "uint256"
        }
      ],
      "name": "getDailyMatches",
      "outputs": [
        {
          "components": [
            {
              "internalType": "uint64",
              "name": "id",
              "type": "uint64"
            },
            {
              "internalType": "uint64",
              "name": "startTime",
              "type": "uint64"
            },
            {
              "internalType": "uint32",
              "name": "oddsHome",
              "type": "uint32"
            },
            {
              "internalType": "uint32",
              "name": "oddsDraw",
              "type": "uint32"
            },
            {
              "internalType": "uint32",
              "name": "oddsAway",
              "type": "uint32"
            },
            {
              "internalType": "uint32",
              "name": "oddsOver",
              "type": "uint32"
            },
            {
              "internalType": "uint32",
              "name": "oddsUnder",
              "type": "uint32"
            },
            {
              "internalType": "string",
              "name": "homeTeam",
              "type": "string"
            },
            {
              "internalType": "string",
              "name": "awayTeam",
              "type": "string"
            },
            {
              "internalType": "string",
              "name": "leagueName",
              "type": "string"
            },
            {
              "components": [
                {
                  "internalType": "enum Oddyssey.MoneylineResult",
                  "name": "moneyline",
                  "type": "uint8"
                },
                {
                  "internalType": "enum Oddyssey.OverUnderResult",
                  "name": "overUnder",
                  "type": "uint8"
                }
              ],
              "internalType": "struct Oddyssey.Result",
              "name": "result",
              "type": "tuple"
            }
          ],
          "internalType": "struct Oddyssey.Match[10]",
          "name": "",
          "type": "tuple[10]"
        }
      ],
      "stateMutability": "view",
      "type": "function"
    },
    {
      "inputs": [
        {
          "internalType": "uint256",
          "name": "_cycleId",
          "type": "uint256"
        }
      ],
      "name": "getDailyStats",
      "outputs": [
        {
          "components": [
            {
              "internalType": "uint256",
              "name": "slipCount",
              "type": "uint256"
            },
            {
              "internalType": "uint256",
              "name": "userCount",
              "type": "uint256"
            },
            {
              "internalType": "uint256",
              "name": "volume",
              "type": "uint256"
            },
            {
              "internalType": "uint256",
              "name": "correctPredictions",
              "type": "uint256"
            },
            {
              "internalType": "uint256",
              "name": "evaluatedSlips",
              "type": "uint256"
            },
            {
              "internalType": "uint256",
              "name": "averageScore",
              "type": "uint256"
            },
            {
              "internalType": "uint256",
              "name": "maxScore",
              "type": "uint256"
            },
            {
              "internalType": "uint256",
              "name": "minScore",
              "type": "uint256"
            },
            {
              "internalType": "uint256",
              "name": "winnersCount",
              "type": "uint256"
            }
          ],
          "internalType": "struct Oddyssey.DailyStats",
          "name": "",
          "type": "tuple"
        }
      ],
      "stateMutability": "view",
      "type": "function"
    },
    {
      "inputs": [
        {
          "internalType": "uint256",
          "name": "_slipId",
          "type": "uint256"
        }
      ],
      "name": "getSlip",
      "outputs": [
        {
          "components": [
            {
              "internalType": "address",
              "name": "player",
              "type": "address"
            },
            {
              "internalType": "uint256",
              "name": "cycleId",
              "type": "uint256"
            },
            {
              "internalType": "uint256",
              "name": "placedAt",
              "type": "uint256"
            },
            {
              "components": [
                {
                  "internalType": "uint64",
                  "name": "matchId",
                  "type": "uint64"
                },
                {
                  "internalType": "uint8",
                  "name": "betType",
                  "type": "uint8"
                },
                {
                  "internalType": "string",
                  "name": "selection",
                  "type": "string"
                },
                {
                  "internalType": "uint32",
                  "name": "selectedOdd",
                  "type": "uint32"
                }
              ],
              "internalType": "struct Oddyssey.UserPrediction[10]",
              "name": "predictions",
              "type": "tuple[10]"
            },
            {
              "internalType": "uint256",
              "name": "finalScore",
              "type": "uint256"
            },
            {
              "internalType": "uint8",
              "name": "correctCount",
              "type": "uint8"
            },
            {
              "internalType": "bool",
              "name": "isEvaluated",
              "type": "bool"
            }
          ],
          "internalType": "struct Oddyssey.Slip",
          "name": "",
          "type": "tuple"
        }
      ],
      "stateMutability": "view",
      "type": "function"
    },
    {
      "inputs": [
        {
          "internalType": "address",
          "name": "_user",
          "type": "address"
        }
      ],
      "name": "getUserData",
      "outputs": [
        {
          "components": [
            {
              "internalType": "uint256",
              "name": "totalSlips",
              "type": "uint256"
            },
            {
              "internalType": "uint256",
              "name": "totalWins",
              "type": "uint256"
            },
            {
              "internalType": "uint256",
              "name": "bestScore",
              "type": "uint256"
            },
            {
              "internalType": "uint256",
              "name": "averageScore",
              "type": "uint256"
            },
            {
              "internalType": "uint256",
              "name": "winRate",
              "type": "uint256"
            },
            {
              "internalType": "uint256",
              "name": "currentStreak",
              "type": "uint256"
            },
            {
              "internalType": "uint256",
              "name": "bestStreak",
              "type": "uint256"
            },
            {
              "internalType": "uint256",
              "name": "lastActiveCycle",
              "type": "uint256"
            }
          ],
          "internalType": "struct Oddyssey.UserStats",
          "name": "userStatsData",
          "type": "tuple"
        },
        {
          "internalType": "uint256",
          "name": "reputation",
          "type": "uint256"
        },
        {
          "internalType": "uint256",
          "name": "correctPredictions",
          "type": "uint256"
        }
      ],
      "stateMutability": "view",
      "type": "function"
    },
    {
      "inputs": [
        {
          "internalType": "address",
          "name": "_user",
          "type": "address"
        }
      ],
      "name": "getUserSlipCount",
      "outputs": [
        {
          "internalType": "uint256",
          "name": "",
          "type": "uint256"
        }
      ],
      "stateMutability": "view",
      "type": "function"
    },
    {
      "inputs": [
        {
          "internalType": "address",
          "name": "_user",
          "type": "address"
        },
        {
          "internalType": "uint256",
          "name": "_cycleId",
          "type": "uint256"
        }
      ],
      "name": "getUserSlipsForCycle",
      "outputs": [
        {
          "internalType": "uint256[]",
          "name": "",
          "type": "uint256[]"
        }
      ],
      "stateMutability": "view",
      "type": "function"
    },
    {
      "inputs": [
        {
          "internalType": "address",
          "name": "_user",
          "type": "address"
        },
        {
          "internalType": "uint256",
          "name": "_cycleId",
          "type": "uint256"
        }
      ],
      "name": "getUserSlipsWithData",
      "outputs": [
        {
          "internalType": "uint256[]",
          "name": "slipIds",
          "type": "uint256[]"
        },
        {
          "components": [
            {
              "internalType": "address",
              "name": "player",
              "type": "address"
            },
            {
              "internalType": "uint256",
              "name": "cycleId",
              "type": "uint256"
            },
            {
              "internalType": "uint256",
              "name": "placedAt",
              "type": "uint256"
            },
            {
              "components": [
                {
                  "internalType": "uint64",
                  "name": "matchId",
                  "type": "uint64"
                },
                {
                  "internalType": "uint8",
                  "name": "betType",
                  "type": "uint8"
                },
                {
                  "internalType": "string",
                  "name": "selection",
                  "type": "string"
                },
                {
                  "internalType": "uint32",
                  "name": "selectedOdd",
                  "type": "uint32"
                }
              ],
              "internalType": "struct Oddyssey.UserPrediction[10]",
              "name": "predictions",
              "type": "tuple[10]"
            },
            {
              "internalType": "uint256",
              "name": "finalScore",
              "type": "uint256"
            },
            {
              "internalType": "uint8",
              "name": "correctCount",
              "type": "uint8"
            },
            {
              "internalType": "bool",
              "name": "isEvaluated",
              "type": "bool"
            }
          ],
          "internalType": "struct Oddyssey.Slip[]",
          "name": "slipsData",
          "type": "tuple[]"
        }
      ],
      "stateMutability": "view",
      "type": "function"
    },
    {
      "inputs": [
        {
          "internalType": "uint256",
          "name": "_cycleId",
          "type": "uint256"
        }
      ],
      "name": "isCycleInitialized",
      "outputs": [
        {
          "internalType": "bool",
          "name": "",
          "type": "bool"
        }
      ],
      "stateMutability": "view",
      "type": "function"
    },
    {
      "inputs": [
        {
          "internalType": "uint256",
          "name": "",
          "type": "uint256"
        }
      ],
      "name": "isCycleResolved",
      "outputs": [
        {
          "internalType": "bool",
          "name": "",
          "type": "bool"
        }
      ],
      "stateMutability": "view",
      "type": "function"
    },
    {
      "inputs": [],
      "name": "oracle",
      "outputs": [
        {
          "internalType": "address",
          "name": "",
          "type": "address"
        }
      ],
      "stateMutability": "view",
      "type": "function"
    },
    {
      "inputs": [],
      "name": "owner",
      "outputs": [
        {
          "internalType": "address",
          "name": "",
          "type": "address"
        }
      ],
      "stateMutability": "view",
      "type": "function"
    },
    {
      "inputs": [
        {
          "components": [
            {
              "internalType": "uint64",
              "name": "matchId",
              "type": "uint64"
            },
            {
              "internalType": "uint8",
              "name": "betType",
              "type": "uint8"
            },
            {
              "internalType": "string",
              "name": "selection",
              "type": "string"
            },
            {
              "internalType": "uint32",
              "name": "selectedOdd",
              "type": "uint32"
            }
          ],
          "internalType": "struct Oddyssey.UserPrediction[10]",
          "name": "_predictions",
          "type": "tuple[10]"
        }
      ],
      "name": "placeSlip",
      "outputs": [],
      "stateMutability": "payable",
      "type": "function"
    },
    {
      "inputs": [
        {
          "internalType": "uint256",
          "name": "",
          "type": "uint256"
        },
        {
          "internalType": "uint8",
          "name": "",
          "type": "uint8"
        }
      ],
      "name": "prizeClaimed",
      "outputs": [
        {
          "internalType": "bool",
          "name": "",
          "type": "bool"
        }
      ],
      "stateMutability": "view",
      "type": "function"
    },
    {
      "inputs": [],
      "name": "renounceOwnership",
      "outputs": [],
      "stateMutability": "nonpayable",
      "type": "function"
    },
    {
      "inputs": [],
      "name": "reputationSystem",
      "outputs": [
        {
          "internalType": "contract IReputationSystem",
          "name": "",
          "type": "address"
        }
      ],
      "stateMutability": "view",
      "type": "function"
    },
    {
      "inputs": [
        {
          "internalType": "uint256",
          "name": "_cycleId",
          "type": "uint256"
        },
        {
          "components": [
            {
              "internalType": "enum Oddyssey.MoneylineResult",
              "name": "moneyline",
              "type": "uint8"
            },
            {
              "internalType": "enum Oddyssey.OverUnderResult",
              "name": "overUnder",
              "type": "uint8"
            }
          ],
          "internalType": "struct Oddyssey.Result[10]",
          "name": "_results",
          "type": "tuple[10]"
        }
      ],
      "name": "resolveDailyCycle",
      "outputs": [],
      "stateMutability": "nonpayable",
      "type": "function"
    },
    {
      "inputs": [
        {
          "internalType": "uint256[]",
          "name": "_cycleIds",
          "type": "uint256[]"
        },
        {
          "components": [
            {
              "internalType": "enum Oddyssey.MoneylineResult",
              "name": "moneyline",
              "type": "uint8"
            },
            {
              "internalType": "enum Oddyssey.OverUnderResult",
              "name": "overUnder",
              "type": "uint8"
            }
          ],
          "internalType": "struct Oddyssey.Result[10][]",
          "name": "_results",
          "type": "tuple[10][]"
        }
      ],
      "name": "resolveMultipleCycles",
      "outputs": [],
      "stateMutability": "nonpayable",
      "type": "function"
    },
    {
      "inputs": [
        {
          "internalType": "uint256",
          "name": "_newFee",
          "type": "uint256"
        }
      ],
      "name": "setEntryFee",
      "outputs": [],
      "stateMutability": "nonpayable",
      "type": "function"
    },
    {
      "inputs": [
        {
          "internalType": "address",
          "name": "_newOracle",
          "type": "address"
        }
      ],
      "name": "setOracle",
      "outputs": [],
      "stateMutability": "nonpayable",
      "type": "function"
    },
    {
      "inputs": [
        {
          "internalType": "address",
          "name": "_reputationSystem",
          "type": "address"
        }
      ],
      "name": "setReputationSystem",
      "outputs": [],
      "stateMutability": "nonpayable",
      "type": "function"
    },
    {
      "inputs": [],
      "name": "slipCount",
      "outputs": [
        {
          "internalType": "uint256",
          "name": "",
          "type": "uint256"
        }
      ],
      "stateMutability": "view",
      "type": "function"
    },
    {
      "inputs": [
        {
          "internalType": "uint256",
          "name": "",
          "type": "uint256"
        }
      ],
      "name": "slips",
      "outputs": [
        {
          "internalType": "address",
          "name": "player",
          "type": "address"
        },
        {
          "internalType": "uint256",
          "name": "cycleId",
          "type": "uint256"
        },
        {
          "internalType": "uint256",
          "name": "placedAt",
          "type": "uint256"
        },
        {
          "internalType": "uint256",
          "name": "finalScore",
          "type": "uint256"
        },
        {
          "internalType": "uint8",
          "name": "correctCount",
          "type": "uint8"
        },
        {
          "internalType": "bool",
          "name": "isEvaluated",
          "type": "bool"
        }
      ],
      "stateMutability": "view",
      "type": "function"
    },
    {
      "inputs": [
        {
          "components": [
            {
              "internalType": "uint64",
              "name": "id",
              "type": "uint64"
            },
            {
              "internalType": "uint64",
              "name": "startTime",
              "type": "uint64"
            },
            {
              "internalType": "uint32",
              "name": "oddsHome",
              "type": "uint32"
            },
            {
              "internalType": "uint32",
              "name": "oddsDraw",
              "type": "uint32"
            },
            {
              "internalType": "uint32",
              "name": "oddsAway",
              "type": "uint32"
            },
            {
              "internalType": "uint32",
              "name": "oddsOver",
              "type": "uint32"
            },
            {
              "internalType": "uint32",
              "name": "oddsUnder",
              "type": "uint32"
            },
            {
              "internalType": "string",
              "name": "homeTeam",
              "type": "string"
            },
            {
              "internalType": "string",
              "name": "awayTeam",
              "type": "string"
            },
            {
              "internalType": "string",
              "name": "leagueName",
              "type": "string"
            },
            {
              "components": [
                {
                  "internalType": "enum Oddyssey.MoneylineResult",
                  "name": "moneyline",
                  "type": "uint8"
                },
                {
                  "internalType": "enum Oddyssey.OverUnderResult",
                  "name": "overUnder",
                  "type": "uint8"
                }
              ],
              "internalType": "struct Oddyssey.Result",
              "name": "result",
              "type": "tuple"
            }
          ],
          "internalType": "struct Oddyssey.Match[10]",
          "name": "_matches",
          "type": "tuple[10]"
        }
      ],
      "name": "startDailyCycle",
      "outputs": [],
      "stateMutability": "nonpayable",
      "type": "function"
    },
    {
      "inputs": [],
      "name": "stats",
      "outputs": [
        {
          "internalType": "uint256",
          "name": "totalVolume",
          "type": "uint256"
        },
        {
          "internalType": "uint32",
          "name": "totalSlips",
          "type": "uint32"
        },
        {
          "internalType": "uint256",
          "name": "highestOdd",
          "type": "uint256"
        }
      ],
      "stateMutability": "view",
      "type": "function"
    },
    {
      "inputs": [
        {
          "internalType": "address",
          "name": "newOwner",
          "type": "address"
        }
      ],
      "name": "transferOwnership",
      "outputs": [],
      "stateMutability": "nonpayable",
      "type": "function"
    },
    {
      "inputs": [
        {
          "internalType": "address",
          "name": "",
          "type": "address"
        }
      ],
      "name": "userOddysseyCorrectPredictions",
      "outputs": [
        {
          "internalType": "uint256",
          "name": "",
          "type": "uint256"
        }
      ],
      "stateMutability": "view",
      "type": "function"
    },
    {
      "inputs": [
        {
          "internalType": "address",
          "name": "",
          "type": "address"
        }
      ],
      "name": "userOddysseyReputation",
      "outputs": [
        {
          "internalType": "uint256",
          "name": "",
          "type": "uint256"
        }
      ],
      "stateMutability": "view",
      "type": "function"
    },
    {
      "inputs": [
        {
          "internalType": "address",
          "name": "",
          "type": "address"
        }
      ],
      "name": "userStats",
      "outputs": [
        {
          "internalType": "uint256",
          "name": "totalSlips",
          "type": "uint256"
        },
        {
          "internalType": "uint256",
          "name": "totalWins",
          "type": "uint256"
        },
        {
          "internalType": "uint256",
          "name": "bestScore",
          "type": "uint256"
        },
        {
          "internalType": "uint256",
          "name": "averageScore",
          "type": "uint256"
        },
        {
          "internalType": "uint256",
          "name": "winRate",
          "type": "uint256"
        },
        {
          "internalType": "uint256",
          "name": "currentStreak",
          "type": "uint256"
        },
        {
          "internalType": "uint256",
          "name": "bestStreak",
          "type": "uint256"
        },
        {
          "internalType": "uint256",
          "name": "lastActiveCycle",
          "type": "uint256"
        }
      ],
      "stateMutability": "view",
      "type": "function"
    }
  ],
  "bytecode": "0x60e0346200015b576200576a90601f38839003908101601f19168201906001600160401b038211838310176200016057808391604095869485528339810103126200015b5780516001600160a01b03808216929091908382036200015b576020015191331562000143576000549360018060a01b03199433868216176000558651923391167f8be0079c531659141344cd1fd0a4f28419497f9722a3daafe3b4186f6b6457e0600080a360018055156200013457506706f05b59d3b200008203620001235760c052600355339060025416176002556101f48060805260a052516155f39081620001778239608051818181611e12015261455f015260a051818181611ee2015261522b015260c0518181816121b2015281816145ad01526152910152f35b835163b4fa3fb360e01b8152600490fd5b63b4fa3fb360e01b8152600490fd5b8451631e4fbdf760e01b815260006004820152602490fd5b600080fd5b634e487b7160e01b600052604160045260246000fdfe6080604052600436101561001257600080fd5b60003560e01c806302c009ef14613025578063042db2e614610a1c57806305b61d1114613007578063072ea61c14612fe95780630832275e14612ea157806314bd964414612e8557806317ee395b14612e3a5780631e7e465f14612cd65780632012ef0314612a9c578063210d5f5f14612a1357806325a2e0ed146129e75780632ac5df93146129bb57806331143cee14612978578063328621a6146127e757806335d8cbac146127a9578063361a97921461273957806344f79609146126b85780634c3b1939146126745780634f4bc86e1461263a5780635052617d1461261e578063590d0f99146126015780635b2fcc25146125d5578063625d9ce5146125b95780636587eda1146125905780636977f546146125685780636f3fb3031461253c578063715018a6146124f557806373d225731461246f578063745be576146124435780637adbf973146123ce5780637b154140146123a55780637d208cee1461236b5780637dc0d1d0146123425780637e12170d146122f957806383660217146122915780638a65d8741461220a5780638da5cb5b146121e15780638ea5220f1461219c5780639102e43014612170578063943ca3b91461214457806399a1c282146121185780639ad7884c146120c45780639bea95ac14612093578063a0a806e714612008578063a1ce7ecb14611f05578063a4957efe14611eca578063af9b2bfb14611e35578063b0dbf47d14611dfa578063b162a01a14611699578063ba1487ad1461138a578063ba61ebde14610a3a578063be26ed7f14610a1c578063c56a00de146109ab578063c6b6850814610971578063c81b986c14610879578063cb2a74361461084d578063d2b17b5a14610821578063d80528ae146107ec578063e2f800d71461064e578063e734e60c14610622578063eb770d0c146105c3578063eebf3be514610597578063f2fde38b14610523578063f674c43514610439578063fbb0de531461041d5763ffc9896b146102f257600080fd5b34610418576020806003193601126104185761014090610310613e59565b600060e060405161032081613c9d565b82815282858201528260408201528260608201528260808201528260a08201528260c0820152015260018060a01b03166000526007815260406000206008825260406000205460098352604060002054916040519061037e82613c9d565b805494858352600182015490808401918252600283015460408501908152600384015490606086019182526004850154926080870193845260058601549460a0880195865260e0600760068901549860c08b01998a52015498019788526040519a8b5251908a01525160408901525160608801525160808701525160a08601525160c08501525160e0840152610100830152610120820152f35b600080fd5b3461041857600036600319011261041857602060405160078152f35b34610418576040366003190112610418576001600160401b036004358181116104185761046a903690600401614022565b602491823590811161041857610484903690600401614022565b9181518351036105115760005b825181101561050f576104a4818461419d565b51906104b0818661419d565b51303b1561041857604051926301ec550560e61b845260048401528383015260008260448183305af1918215610503576104ef926104f4575b50614133565b610491565b6104fd90613c52565b856104e9565b6040513d6000823e3d90fd5b005b60405163b4fa3fb360e01b8152600490fd5b346104185760203660031901126104185761053c613e59565b610544614107565b6001600160a01b0390811690811561057e576000548260018060a01b03198216176000551660008051602061555e833981519152600080a3005b604051631e4fbdf760e01b815260006004820152602490fd5b346104185760203660031901126104185760043560005260166020526020604060002054604051908152f35b34610418576020366003190112610418576004356105df614107565b6706f05b59d3b20000810361051157600354811461051157806003557f565a4bfd76b3419546eefb0f3228d436837362a9b57e0c3a03227225dfec023d600080a2005b3461041857602036600319011261041857600435600052600c6020526020604060002054604051908152f35b3461041857602080600319360112610418576004359060405161067081613c81565b60008152600082820152600060408201526000606082015260006080820152600060a0820152600060c0820152600060e08201526000610100809201528260005260168252604060002054916017815260406000205490601881526040600020546019825260406000205495601a83526040600020548015156000146107e05760198452604060002054976103e89889810299818b0414901517156107ca5761072a6101209984600052601a8752604060002054906143f8565b925b600052601c855260406000205493601d865260406000205495601e8152604060002054978960405161075d81613c81565b8c815283810192835260408101948552606081019586526080810196875260a0810197885260c0810198895260e08101998a52019889526040519a8b5251908a01525160408901525160608801525160808701525160a08601525160c08501525160e08401525190820152f35b634e487b7160e01b600052601160045260246000fd5b6101209760009261072c565b34610418576000366003190112610418576060601f5463ffffffff602054166021549060405192835260208301526040820152f35b3461041857602036600319011261041857600435600052601b6020526020604060002054604051908152f35b3461041857602036600319011261041857600435600052601c6020526020604060002054604051908152f35b346104185760208060031936011261041857600435610896614a9a565b5060055481101561095f5760005260108152604060002090604051916108bb83613c1b565b80546001600160a01b0316835260018181015483850152600282015460408086019190915251906108eb82613c36565b600383810190600086855b600a831061094257898260ff60228b8b606086015260218101546080860152015481811660a085015260081c16151560c083015261093e604051928284938452830190613ad0565b0390f35b8591849161094f8761438b565b81520194019101909287906108f6565b604051635a26d5fd60e11b8152600490fd5b34610418576020366003190112610418576001600160a01b03610992613e59565b1660005260086020526020604060002054604051908152f35b3461041857602080600319360112610418576109c5614a02565b50600435600052600a808252604060002090604051916109e483613c36565b92600090835b8383106109ff576040518061093e8782613d60565b600682600192610a0e896141b1565b8152019601920191946109ea565b34610418576000366003190112610418576020600454604051908152f35b346104185760031960203682011261041857600435906001600160401b03821161041857366023830112156104185760405191610a7683613c36565b8261014490818301923684116104185780600401915b84831061124b5760025487906001600160a01b0316330361123a574261012c810191906001600160401b0390831060005b600a80821015610be857610ad18286614142565b5180519091906001600160401b03161561095f576020820180519092906001600160401b0316856107ca57881015610bd65763ffffffff80604083015116158015610bc8575b8015610bba575b610511578060a08301511615908115610bab575b5061051157600184018085116107ca575b828110610b7d57505090516001600160401b03908116915084168110610b73575b50610b6e90614133565b610abd565b9250610b6e610b64565b81516001600160401b0390811690610b95838b614142565b5151161461051157610ba690614133565b610b43565b905060c0820151161589610b32565b508060808301511615610b1e565b508060608301511615610b17565b60405163c8b9bc9160e01b8152600490fd5b848685856107ca576001600160401b031690811115610bd657610c0c600454614133565b918260045560001983018381116107ca57610c26906151d0565b6001600160401b0361012b198301116107ca5782600052600a602052604060002060005b600a8110610d7857847f62eeb403dc233a7676f50cdb0fd72dae595aeb7c63039adce5caacc33254f9c060208683600052600b825260018060401b039061012b19011680604060002055600c825260001960406000205560148252604060002060ff198154169055604051610cbe81613c1b565b4281528281018281526040820160008152610d336060840160008152600360808601956000875260a08101946001865260c0820196600088528c600052600f8b52604060002092518355516001830155516002820155019463ffffffff8092511663ffffffff1987541617865551168461417a565b5190610d3e82613d34565b610d4782613d34565b8254905161ffff60401b19909116604092831b60ff60401b161790151560481b60ff60481b161790915551908152a2005b610d828184614142565b5190610d8e8184613ee3565b6112245782516020840151604085810151606087015160808089015160a0808b01519690951b600160401b600160801b03166001600160401b03978816179390911b63ffffffff60801b1692909217921b63ffffffff60a01b169190911760c091821b63ffffffff60c01b161760e092831b6001600160e01b03191617845585015160018401805463ffffffff191663ffffffff92909216919091179055840151805191821161106e578190610e476002850154613ef7565b601f81116111d1575b50602090601f831160011461115f57600092611154575b50508160011b916000199060031b1c19161760028201555b6101008301518051906001600160401b03821161106e578190610ea56003850154613ef7565b601f8111611101575b50602090601f831160011461108f57600092611084575b50508160011b916000199060031b1c19161760038201555b6101208301518051906001600160401b03821161106e57610f016004840154613ef7565b601f8111611027575b50602090601f8311600114610fb15791806101409492600594600092610fa6575b50508160011b916000199060031b1c19161760048201555b01920151918251610f5381613d34565b610f5c81613d34565b60208254940151936003851015610f905760ff61ff00610f8b9660081b1692169061ffff191617179055614133565b610c4a565b634e487b7160e01b600052602160045260246000fd5b015190508b80610f2b565b906004840160005260206000209160005b601f198516811061100f575092610140949260019260059583601f19811610610ff6575b505050811b016004820155610f43565b015160001960f88460031b161c191690558b8080610fe6565b91926020600181928685015181550194019201610fc2565b600484016000526020600020601f840160051c810160208510611067575b601f830160051c8201811061105b575050610f0a565b60008155600101611045565b5080611045565b634e487b7160e01b600052604160045260246000fd5b015190508980610ec5565b9250600384016000526020600020906000935b601f19841685106110e6576001945083601f198116106110cd575b505050811b016003820155610edd565b015160001960f88460031b161c191690558980806110bd565b818101518355602094850194600190930192909101906110a2565b909150600384016000526020600020601f840160051c81016020851061114d575b90849392915b601f830160051c8201811061113e575050610eae565b60008155859450600101611128565b5080611122565b015190508980610e67565b9250600284016000526020600020906000935b601f19841685106111b6576001945083601f1981161061119d575b505050811b016002820155610e7f565b015160001960f88460031b161c1916905589808061118d565b81810151835560209485019460019093019290910190611172565b909150600284016000526020600020601f840160051c81016020851061121d575b90849392915b601f830160051c8201811061120e575050610e50565b600081558594506001016111f8565b50806111f2565b634e487b7160e01b600052600060045260246000fd5b6040516282b42960e81b8152600490fd5b82356001600160401b038111610418578201610180878236030112610418576040519161127783613c65565b61128360048301614080565b835261129160248301614080565b60208401526112a2604483016140f6565b60408401526112b3606483016140f6565b60608401526112c4608483016140f6565b60808401526112d560a483016140f6565b60a08401526112e660c483016140f6565b60c084015260e48201356001600160401b0381116104185761130e90600436918501016140af565b60e08401526101048201356001600160401b0381116104185761133790600436918501016140af565b610100840152610124820135926001600160401b038411610418576113796020949361136a8695600436918401016140af565b61012084015288369101613cf7565b610140820152815201920191610a8c565b34610418576040366003190112610418576001600160401b03600435818111610418576113bb903690600401614022565b602480359283116104185736602384011215610418578260040135906113e08261400b565b916113ee6040519384613cd4565b8083526020948584018361028080940283010191368311610418578401905b8282106116345750506002546001600160a01b03925082163303905061123a5783518351036105115760328451116105115760005b845181101561050f57611455818661419d565b51611460828661419d565b518360025416330361123a5781158015611629575b61095f5781600052600f8089526040600020541561095f5782600052885260406000206003808201928160ff855460401c166114b081613d34565b1461161757600180930154421115610bd6576000835b611581575b5050825460ff60401b1916600360401b17835550600083815260148a5260409020805460ff191690911790555463ffffffff1661154657908161154192600052600c8852426040600020555b80600052600d885260008051602061553e83398151915288604060002054604051908152a2614133565b611442565b62015180420180421161156c5790611541929181600052600c8952604060002055611517565b84634e487b7160e01b60005260116004526000fd5b600a80821015611611576115958284614142565b5190876000528d528c60056115ae846040600020613ee3565b5001918051916115bd83613d34565b6115c683613d34565b8354910151868110156115fc57916115f6939160ff61ff008a979560081b1692169061ffff191617179055614133565b906114c6565b8c634e487b7160e01b60005260216004526000fd5b506114cb565b60405163baf3f0f760e01b8152600490fd5b506004548211611475565b36601f830112156104185760405161164b81613c36565b8285018136821161041857918693918b9386905b8282106116745750505081520191019061140d565b604092949650611688959193953685613cf7565b8152019101918794928c949261165f565b60031960203682011261041857600435906001600160401b038211610418573660238301121561041857604051916116d083613c36565b826101448201913683116104185780600401915b838310611d6457856116f4614368565b6004549081156116175781600052600f6020526040600020600160ff600383015460401c1661172281613d34565b03611617576001810154421015610bd6576003543403611d525782600052600a602052604060002060005b600a8110611be3575050600554600081815260106020526040812080546001600160a01b03191633178155600181018690554260028201556021810182905560228101805461ffff191690559193905b600a81106119e9575050506117b3600554614133565b6005558260005260116020526040600020336000526020526117d982604060002061431e565b3360005260126020526117f082604060002061431e565b82600052600d6020526040600020611809348254614153565b905561181734601f54614153565b601f55600360205463ffffffff9081611831818316614353565b1663ffffffff198092161760205585600052600e6020526040600020611858348254614153565b905585600052600e60205260016040600020018054828461187a818416614353565b1691161790556002840161188f348254614153565b905582840154916118a1818416614353565b1691161791015581600052601660205260406000206118c08154614133565b905581600052601860205260406000206118db348254614153565b90558160005260116020526040600020336000526020526001604060002054146119ca575b33600052600760205260406000206119188154614133565b90818155836007820155600181015490600460028201549101549160405193845260208401526040830152606082015260008051602061559e83398151915260803392a26040519033837ff6e7d09282448c842ef23b148b6dfa2dc4b69839898341f8fb5065eb496cb0fa600080a46006546001600160a01b031661199e575b60018055005b60138152600060208201524260408201526000805160206154fe83398151915260603392a38080611998565b81600052601760205260406000206119e28154614133565b9055611900565b6001600160401b036119fb8284614142565b51511660ff6020611a0c8486614142565b510151166040611a1c8486614142565b5101519060609163ffffffff83611a338789614142565b510151169160405194611a4586613c00565b85526020850152604084015281830152611a6283600387016142f2565b611224578251815460208501516001600160481b03199091166001600160401b0392831617604091821b60ff60401b16178355840151805191821161106e57611aae6001840154613ef7565b601f8111611b9c575b50602090601f8311600114611b1e579282611b0e9796959360029363ffffffff96600092611b13575b50508160011b916000199060031b1c19161760018201555b019201511663ffffffff19825416179055614133565b61179d565b015190508e80611ae0565b906001840160005260206000209160005b601f1985168110611b8457508360029363ffffffff9693600193611b0e9b9a9997601f19811610611b6b575b505050811b016001820155611af8565b015160001960f88460031b161c191690558e8080611b5b565b91926020600181928685015181550194019201611b2f565b600184016000526020600020601f840160051c810160208510611bdc575b601f830160051c82018110611bd0575050611ab7565b60008155600101611bba565b5080611bba565b611bed8185614142565b5180516001600160401b0316611c038385613ee3565b50546001600160401b03160361051157611c26611c208385613ee3565b506141b1565b602082015160ff1680611ce9575060408201805160208151910120611c4961429b565b6020815191012014600014611c8b57506040015163ffffffff165b63ffffffff8091169182156105115760600151160361051157611c8690614133565b61174d565b805160208151910120611c9c6142b8565b6020815191012014600014611cbb57506060015163ffffffff16611c64565b5160208151910120611ccb6142d5565b6020815191012014600014610511576080015163ffffffff16611c64565b6001036105115760408201805160208151910120611d0561425a565b6020815191012014600014611d24575060a0015163ffffffff16611c64565b5160208151910120611d3461427a565b60208151910120146000146105115760c0015163ffffffff16611c64565b60405163356680b760e01b8152600490fd5b82356001600160401b0381116104185782019060808683360301126104185760405190611d9082613c00565b611d9c60048401614080565b8252602483013560ff811681036104185760208301526044830135916001600160401b03831161041857611dea6064602095611ddf8796600436918401016140af565b6040850152016140f6565b60608201528152019201916116e4565b346104185760003660031901126104185760206040517f00000000000000000000000000000000000000000000000000000000000000008152f35b34610418576020366003190112610418576004356001600160401b03811161041857611e65903690600401614022565b60005b815181101561050f57611e7b818361419d565b5190303b1561041857604051916302c009ef60e01b8352600483015260008260248183305af191821561050357611eb692611ebb5750614133565b611e68565b611ec490613c52565b836104e9565b346104185760003660031901126104185760206040517f00000000000000000000000000000000000000000000000000000000000000008152f35b3461041857611f1336613ea3565b90600052600a602052604060002090600a81101561041857611f3491613ee3565b5080549063ffffffff9061093e611ffc8360018401541692611fed611f5b60028301613f31565b611fde611f6a60038501613f31565b91611f836005611f7c60048801613f31565b9601613fd7565b976040519a8b9a60018060401b038083168d528260401c1660208d0152808260801c1660408d0152808260a01c1660608d01528160c01c1660808c015260e01c60a08b015260c08a01526101808060e08b0152890190613a90565b90878203610100890152613a90565b90858203610120870152613a90565b91610140840190613d3e565b3461041857602080600319360112610418576001600160a01b0361202a613e59565b1660005260128152604060002090604051808383829554938481520190600052836000209260005b8582821061207d5750505061206992500383613cd4565b61093e604051928284938452830190613e6f565b8554845260019586019588955093019201612052565b34610418576020366003190112610418576004356000526014602052602060ff604060002054166040519015158152f35b346104185760203660031901126104185760c060ff63ffffffff6120e9600435614c4b565b9594969093604093929351971515885216602087015260408601526060850152166080830152151560a0820152f35b3461041857602036600319011261041857600435600052601e6020526020604060002054604051908152f35b346104185760203660031901126104185760043560005260186020526020604060002054604051908152f35b3461041857602036600319011261041857600435600052601d6020526020604060002054604051908152f35b34610418576000366003190112610418576040517f00000000000000000000000000000000000000000000000000000000000000006001600160a01b03168152602090f35b34610418576000366003190112610418576000546040516001600160a01b039091168152602090f35b34610418576020366003190112610418576001600160a01b0361222b613e59565b1660005260076020526101006040600020805490600181015490600281015460038201546004830154906005840154926007600686015495015495604051978852602088015260408701526060860152608085015260a084015260c083015260e0820152f35b346104185761229f36613ea3565b90600052601360205260406000206005821015610418576080916122c291613eb9565b5060018060a01b038154169060018101549060ff600360028301549201541691604051938452602084015260408301526060820152f35b3461041857602036600319011261041857600435600052600e602052606060406000206001815491015460405191825263ffffffff90818116602084015260201c166040820152f35b34610418576000366003190112610418576002546040516001600160a01b039091168152602090f35b34610418576020366003190112610418576001600160a01b0361238c613e59565b1660005260126020526020604060002054604051908152f35b34610418576123b336613ea3565b6123bb614368565b60055481101561095f5761199891614448565b34610418576020366003190112610418576123e7613e59565b6123ef614107565b6001600160a01b03908116908115610511576002549081168214610511576001600160a01b03191681176002557f3f32684a32a11dabdbb8c0177de80aa3ae36a004d75210335b49e544e48cd0aa600080a2005b3461041857602036600319011261041857600435600052600d6020526020604060002054604051908152f35b3461041857604036600319011261041857612488613e59565b6024356000526020906011825260406000209060018060a01b03166000528152604060002090604051808383829554938481520190600052836000209260005b858282106124df5750505061206992500383613cd4565b85548452600195860195889550930192016124c8565b346104185760003660031901126104185761250e614107565b600080546001600160a01b0319811682556001600160a01b031660008051602061555e8339815191528280a3005b346104185760203660031901126104185760043560005260176020526020604060002054604051908152f35b3461041857602036600319011261041857602061258660043561532f565b6040519015158152f35b34610418576000366003190112610418576006546040516001600160a01b039091168152602090f35b3461041857600036600319011261041857602060405160058152f35b346104185760203660031901126104185760043560005260196020526020604060002054604051908152f35b346104185760003660031901126104185760206040516103e88152f35b34610418576000366003190112610418576020604051600a8152f35b34610418576020366003190112610418576001600160a01b0361265b613e59565b1660005260096020526020604060002054604051908152f35b346104185760003660031901126104185760a060ff63ffffffff612696614b79565b9395909260405196875216602086015260408501526060840152166080820152f35b3461041857602036600319011261041857600435600052600f60205260e0604060002060ff81549160018101546003600283015492015491838360401c16916040519586526020860152604085015263ffffffff80831660608601528260201c16608085015261272781613d34565b60a084015260481c16151560c0820152f35b3461041857602036600319011261041857600435600052601060205260c0604060002060ff60018060a01b038254169160018101549060028101546022602183015492015492604051958652602086015260408501526060840152818116608084015260081c16151560a0820152f35b3461041857606036600319011261041857604060ff6127d66127c9613e59565b604435906024359061536a565b835191151582529091166020820152f35b3461041857604036600319011261041857612800613e59565b602435600052602060118152604060002060018060a01b03809316600052815260406000206040519081838254918281520191600052836000209060005b8181106129645750505081612854910382613cd4565b61285e8151614b19565b926000925b825184101561293a57612876848461419d565b516000526010815260406000209360405161289081613c1b565b8386541681526001958681015484830152600281015460408301526040516128b781613c36565b60038281019890600090835b600a831061291f5750505050612917949596975090602291606084015260218101546080840152015460ff9081811660a084015260081c16151560c082015261290c828861419d565b526104e9818761419d565b929190612863565b8189859261292c8f61438b565b8152019c019201919a6128c3565b8261093e6129579287604051948594604086526040860190613e6f565b9184830390850152613ba4565b82548452928501926001928301920161283e565b3461041857602036600319011261041857612991613e59565b612999614107565b600680546001600160a01b0319166001600160a01b0392909216919091179055005b3461041857602036600319011261041857600435600052600b6020526020604060002054604051908152f35b3461041857602036600319011261041857600435600052601a6020526020604060002054604051908152f35b346104185760208060031936011261041857600435612a30614a02565b5060045481118015612a94575b61095f57600052600a80825260406000209060405191612a5c83613c36565b92600090835b838310612a77576040518061093e8782613d60565b600682600192612a86896141b1565b815201960192019194612a62565b508015612a3d565b34610418576102a03660031901126104185760043536604312156104185760405190612ac782613c36565b81906102a43681116104185760249283905b828210612cbc5750506002546001600160a01b03163303905061123a5780158015612cb1575b61095f57806000526020600f81526040600020541561095f5781600052600f81526040600020936003948581019160ff8781855460401c16612b4081613d34565b1461161757600180930154421115610bd657906000835b612c18575b5050825460ff60401b1916600360401b1783555060008481526014845260409020805460ff1916909117905554929350909163ffffffff16612bd1578160008051602061553e833981519152929350600052600c8152426040600020555b82600052600d8152604060002054604051908152a2005b620151804201804211612c03578260008051602061553e833981519152939450600052600c8252604060002055612bba565b83634e487b7160e01b60005260116004526000fd5b600a80821015612cab57612c2c8284614142565b51908860005287526005612c44836040600020613ee3565b500190805190612c5382613d34565b612c5c82613d34565b8883549101518c811015612c965791612c8e93918761ff008a9998979560081b1692169061ffff191617179055614133565b909192612b57565b8b634e487b7160e01b60005260216004526000fd5b50612b5c565b506004548111612aff565b6020604091612ccb3685613cf7565b815201910190612ad9565b3461041857602080600319360112610418576001600160401b0390600435908282116104185736602383011215610418578160040135928311610418576024820191602436918560051b01011161041857612d3083614b19565b92600092600554935b828110612d53576040518481528061093e81870189613ba4565b84612d5f828585614b69565b35101561095f57612d71818484614b69565b3560005260108452604060002060405190612d8b82613c1b565b80546001600160a01b031682526001818101548784015260028201546040808501919091525190612dbb82613c36565b600060038481018a855b600a8510612e1d5750505050505082916022916060612e189695015260218101546080840152015460ff9081811660a084015260081c16151560c0820152612e0d828961419d565b526104e9818861419d565b612d39565b85918491612e2a8561438b565b8152019201930192908b90612dc5565b346104185760403660031901126104185760243560ff8116809103610418576004356000526015602052604060002090600052602052602060ff604060002054166040519015158152f35b3461041857600036600319011261041857602060405160328152f35b34610418576020806003193601126104185760405160a0906001600160401b03908281018281118282101761106e576040528360005b848110612fb95750505060043560005260138352604060002090604051928301908382109082111761106e57604052600083835b60058310612f6d57508360405191826000905b60058210612f2c5761028085f35b835180516001600160a01b0316825280840151828501526040808201519083015260609081015160ff16908201529282019260019190910190608001612f1e565b600191600491604051612f7f81613c00565b848060a01b03875416815284870154838201526002870154604082015260ff60038801541660608201528152019301910190918490612f0b565b604051612fc581613c00565b60008152600083820152600060408201526000606082015281840152018490612ed7565b34610418576000366003190112610418576020600354604051908152f35b34610418576000366003190112610418576020600554604051908152f35b346104185760203660031901126104185761303e614368565b600554600435101561095f576004356000526010602052604060002060018101549081600052600f6020526040600020541561095f5781600052600f602052600360ff816040600020015460401c1661309681613d34565b036116175760228101549060ff8260081c16611617576000916103e89084600052600a602052604060002060005b600a811061386f57505061ffff191660ff84169081176101001760228401558390156138635761310b915b602184018190558354600435906001600160a01b031687614d9b565b60018060a01b038154168060005260076020526040600020600085600052601160205260406000208360005260205260406000208054908161340f575b50505060808160008051602061559e8339815191529254906001810154906004600282015491015491604051938452602084015260408301526060820152a282600052600e60205282604060002092600f602052600160406000209401926131df600363ffffffff966131c96131c389895460201c16614353565b8861417a565b016131d987825460201c16614353565b9061417a565b82600052601a60205260406000206131f78154614133565b9055826000526019602052604060002061321560ff84168254614153565b90556021810154806133a6575b50600760ff8316101580613387575b6006546001600160a01b0316613270575b5050505054908082169160201c161461325b5760018055005b600052600c6020524260406000205580611998565b61334f575b600860ff83161015613317575b600960ff831610156132df575b600a60ff8316146132a1575b80613242565b54604080516017815260ff909316602084015242908301526001600160a01b0316906000805160206154fe83398151915290606090a382848061329b565b8260018060a01b038254166000805160206154fe83398151915260606040516016815260ff87166020820152426040820152a361328f565b8260018060a01b038254166000805160206154fe83398151915260606040516015815260ff87166020820152426040820152a3613282565b8260018060a01b038254166000805160206154fe83398151915260606040516014815260ff87166020820152426040820152a3613275565b83600052601e602052604060002061339f8154614133565b9055613231565b83600052601c60205280604060002080548015908115613405575b506133fd575b5050601d6020526040600020805480159081156133f3575b506133eb575b50613222565b5586806133e5565b90508210896133df565b5580886133c7565b905082118a6133c1565b816000198101116107ca57613428916000190190614306565b90549060031b1c600052601060205260406000209083600760ff60228501541610156000146138525750600183016134608154614133565b905560ff6022830154168460005260096020526134836040600020918254614153565b9055600360ff6022840154166008811015613849575b6009811015613840575b600a14613838575b6000805b600560ff8216106137f8575b506137e6575b602183015460028501805482116137d1575b5050906007840154926001840184116107ca57859360010189036137c557600585016134ff8154614133565b809155600686015481116137a7575b505b8360005260086020526040600020613529848254614153565b90556006546001600160a01b031680613669575b5084548061359b575b50606060008051602061559e833981519152959360809593604060ff602260008051602061551e8339815191529601541691868152600860205220549060405192835260208301526040820152a29187613148565b909192935060038501548160001981011161365557816135d16135c66135d6936000198401906143e5565b602186015490614153565b6143f8565b60038601556001850154612710908082810204821481151715613641579460008051602061559e8339815191529694604060ff60228b9761362c60008051602061551e8339815191529860609860809d026143f8565b60048b01559650505050939550939550613546565b634e487b7160e01b85526011600452602485fd5b634e487b7160e01b84526011600452602484fd5b602182015490945060098110613772575060175b60228201546040516e027b2323cb9b9b2bc9031bcb1b6329608d1b6020820152602f81018c90526201016960ed1b604f82015260f89190911b6001600160f81b0319166052820152670818dbdc9c9958dd60c21b6053820152603b8152946001600160401b03606087019081119087111761106e5760608601604052803b15610418576304f5ba7d60e51b606087015260648601889052601a821015610f90576000916084870152606060a48701526060860190605f198761374260c4820182613a90565b0301908360608901915af19384156105035786941561353d57613769919250606001613c52565b6000908961353d565b600881106137825750601661367d565b600781106137925750601561367d565b6005116137a057601461367d565b601361367d565b60068601559192506003830183116107ca576003859301918961350e565b60016005860155613510565b556002810181116107ca5760020188806134d3565b600a810181116107ca57600a016134c1565b89600052601360205286613810826040600020613eb9565b50546001600160a01b03161461382e57613829906143d4565b6134af565b50506001896134bb565b5060086134ab565b600691506134a3565b60049150613499565b919060006005850155600191613510565b61310b915060006130ef565b61388561387f82600388016142f2565b5061438b565b613892611c208385613ee3565b60009060ff602084015116156000146139e35760408301908151602081519101206138bb61429b565b602081519101201491826139bf575b8215613976575b8215613929575b5050613921575b6138f3575b506138ee90614133565b6130c4565b956139196138ee929563ffffffff606061390f6103e8956143d4565b9a015116906143e5565b0493906138e4565b5060016138df565b909150516020815191012061393c6142d5565b60208151910120149081613953575b508a806138d8565b6003915061014001515161396681613d34565b61396f81613d34565b148a61394b565b80925051602081519101206139896142b8565b60208151910120148061399d575b916138d1565b506002610140820151516139b081613d34565b6139b981613d34565b14613997565b91506001610140820151516139d381613d34565b6139dc81613d34565b14916138ca565b6040830151602081519101206139f761425a565b60208151910120149081613a6b575b8115613a1b575b50156138df575060016138df565b9050604083015160208151910120613a3161427a565b60208151910120149081613a47575b508a613a0d565b6101400151613a59915060200161416d565b6003811015610f90576002148a613a40565b9050613a7e60206101408301510161416d565b6003811015610f905760011490613a06565b919082519283825260005b848110613abc575050826000602080949584010152601f8019910116010190565b602081830181015184830182015201613a9b565b80516001600160a01b03168252602080820151818401526040808301518185015260608084015160e0828701819052610220870196959491936000918701905b600a8310613b435750505050505060c081608082930151608085015260ff60a08201511660a08501520151151591015290565b909192939497848060019260df198b82030186528b5190848060401b03825116815260ff8383015116838201528963ffffffff81613b8d898601516080808c880152860190613a90565b940151169101529a01930193019194939290613b10565b908082519081815260208091019281808460051b8301019501936000915b848310613bd25750505050505090565b9091929394958480613bf0600193601f198682030187528a51613ad0565b9801930193019194939290613bc2565b608081019081106001600160401b0382111761106e57604052565b60e081019081106001600160401b0382111761106e57604052565b61014081019081106001600160401b0382111761106e57604052565b6001600160401b03811161106e57604052565b61016081019081106001600160401b0382111761106e57604052565b61012081019081106001600160401b0382111761106e57604052565b61010081019081106001600160401b0382111761106e57604052565b604081019081106001600160401b0382111761106e57604052565b601f909101601f19168101906001600160401b0382119082101761106e57604052565b919082604091031261041857604051613d0f81613cb9565b8092803590600482101561041857602091835201359060038210156104185760200152565b60041115610f9057565b6020908051613d4c81613d34565b83520151906003821015610f905760200152565b6020808252610160820192919060008282015b600a8210613d8357505050505090565b90919293948380600192601f19888203018552613e4a895191858060401b0380845116825284840151168482015263ffffffff60408181860151169083015260608181860151169083015260808181860151169083015260a08181860151169083015260c090818501511690820152613e3a613e26613e1260e080870151906101808091870152850190613a90565b610100808701519085830390860152613a90565b610120808601519084830390850152613a90565b9261014080910151910190613d3e565b97019201920190939291613d73565b600435906001600160a01b038216820361041857565b90815180825260208080930193019160005b828110613e8f575050505090565b835185529381019392810192600101613e81565b6040906003190112610418576004359060243590565b906005811015613ecd5760021b0190600090565b634e487b7160e01b600052603260045260246000fd5b90600a811015613ecd576006020190600090565b90600182811c92168015613f27575b6020831014613f1157565b634e487b7160e01b600052602260045260246000fd5b91607f1691613f06565b9060405191826000825492613f4584613ef7565b908184526001948581169081600014613fb45750600114613f71575b5050613f6f92500383613cd4565b565b9093915060005260209081600020936000915b818310613f9c575050613f6f93508201013880613f61565b85548884018501529485019487945091830191613f84565b915050613f6f94506020925060ff191682840152151560051b8201013880613f61565b90604051613fe481613cb9565b60ff819354818116613ff581613d34565b835260081c16906003821015610f905760200152565b6001600160401b03811161106e5760051b60200190565b81601f82011215610418578035916140398361400b565b926140476040519485613cd4565b808452602092838086019260051b820101928311610418578301905b828210614071575050505090565b81358152908301908301614063565b35906001600160401b038216820361041857565b6001600160401b03811161106e57601f01601f191660200190565b81601f82011215610418578035906140c682614094565b926140d46040519485613cd4565b8284526020838301011161041857816000926020809301838601378301015290565b359063ffffffff8216820361041857565b6000546001600160a01b0316330361411b57565b60405163118cdaa760e01b8152336004820152602490fd5b60001981146107ca5760010190565b90600a811015613ecd5760051b0190565b919082018092116107ca57565b919082039182116107ca57565b516003811015610f905790565b805463ffffffff60201b191660209290921b63ffffffff60201b16919091179055565b8051821015613ecd5760209160051b010190565b906040516141be81613c65565b61014061425560058395805460018060401b0380821687528160401c16602087015263ffffffff90818160801c166040880152818160a01c166060880152818160c01c16608088015260e01c60a087015260018201541660c086015261422660028201613f31565b60e086015261423760038201613f31565b61010086015261424960048201613f31565b61012086015201613fd7565b910152565b6040519061426782613cb9565b600482526327bb32b960e11b6020830152565b6040519061428782613cb9565b60058252642ab73232b960d91b6020830152565b604051906142a882613cb9565b60018252603160f81b6020830152565b604051906142c582613cb9565b60018252600b60fb1b6020830152565b604051906142e282613cb9565b60018252601960f91b6020830152565b90600a811015613ecd576003020190600090565b8054821015613ecd5760005260206000200190600090565b8054600160401b81101561106e5761433b91600182018155614306565b819291549060031b91821b91600019901b1916179055565b63ffffffff8091169081146107ca5760010190565b600260015414614379576002600155565b604051633ee5aeb560e01b8152600490fd5b9060405161439881613c00565b606063ffffffff6002839560ff815460018060401b038116875260401c1660208601526143c760018201613f31565b6040860152015416910152565b60ff1660ff81146107ca5760010190565b818102929181159184041417156107ca57565b8115614402570490565b634e487b7160e01b600052601260045260246000fd5b3d15614443573d9061442982614094565b916144376040519384613cd4565b82523d6000602084013e565b606090565b90811515806149f6575b156149be57600090828252602091600f835260ff90604092600383818685200154861c1661447f81613d34565b036149ad57858252600c855283822054421061499c5780825260108552838220805490936001600160a01b039390918416330361495a5760019488868201540361490b576022015460081c8216156148c7578781526013875285812082908290835b60058682161061487d575b505015614839578281169260058410156148065789835260158952878320848452895287832054166147b657888252600d885286822054908115614778579061453491615144565b948882526015885286822083835288528682209060ff198254161790558415614752576127106145847f0000000000000000000000000000000000000000000000000000000000000000876143e5565b0461458f8187614160565b958615614704576145a08783614153565b036146c5578180808093887f0000000000000000000000000000000000000000000000000000000000000000165af16145d7614418565b50156146875780808087335af16145ec614418565b501561464b57845190815283868201528660008051602061557e833981519152863393a46006541661461f575b50505050565b8151926018845283015242908201526000805160206154fe83398151915260603392a338808080614619565b845162461bcd60e51b8152600481018790526015602482015274141c9a5e99481d1c985b9cd9995c8819985a5b1959605a1b6044820152606490fd5b855162461bcd60e51b815260048101889052601760248201527611195d88199959481d1c985b9cd9995c8819985a5b1959604a1b6044820152606490fd5b865162461bcd60e51b815260048101899052601860248201527708ccaca40c6c2d8c6ead8c2e8d2dedc40dad2e6dac2e8c6d60431b6044820152606490fd5b875162461bcd60e51b8152600481018a9052602160248201527f55736572207368617265206d7573742062652067726561746572207468616e206044820152600360fc1b6064820152608490fd5b91969460008051602061557e8339815191529450809350959095519586528501523393a4565b875162461bcd60e51b8152600481018a905260176024820152764e6f207072697a6520706f6f6c20617661696c61626c6560481b6044820152606490fd5b865162461bcd60e51b815260048101899052602360248201527f5072697a6520616c726561647920636c61696d656420666f7220746869732072604482015262616e6b60e81b6064820152608490fd5b875162461bcd60e51b8152600481018a9052600c60248201526b496e76616c69642072616e6b60a01b6044820152606490fd5b865162461bcd60e51b815260048101899052601f60248201527f506c61796572206e6f7420666f756e64206f6e206c6561646572626f617264006044820152606490fd5b6148878183613eb9565b505488163314806148b1575b6148a5576148a0906143d4565b6144e1565b925050508538806144ec565b5086896148be8385613eb9565b50015414614893565b855162461bcd60e51b815260048101889052601f60248201527f536c697020686173206e6f74206265656e206576616c756174656420796574006044820152606490fd5b865162461bcd60e51b815260048101899052602260248201527f536c697020646f6573206e6f742062656c6f6e6720746f2074686973206379636044820152616c6560f01b6064820152608490fd5b855162461bcd60e51b815260048101889052601b60248201527a536c697020646f6573206e6f742062656c6f6e6720746f20796f7560281b6044820152606490fd5b835163c8b9bc9160e01b8152600490fd5b835163baf3f0f760e01b8152600490fd5b60405162461bcd60e51b815260206004820152601060248201526f125b9d985b1a590818de58db1948125160821b6044820152606490fd5b50600454821115614452565b6040805191614a1083613c36565b829160005b61014080821015614a9257825160209291614a2f82613c65565b600082528390600082840152600086840152606060008185015260006080850152600060a0850152600060c08501528060e0850152806101008501526101208401526000865192614a7f84613cb9565b8184528301528201528187015201614a15565b505050909150565b604090815191614aa983613c1b565b82600091828252602083818401528382840152815191614ac883613c36565b845b6101408110614aef575050509060c09160608201528260808201528260a08201520152565b82908251614afc81613c00565b878152878382015287606080868401528201528186015201614aca565b90614b238261400b565b614b306040519182613cd4565b8281528092614b41601f199161400b565b019060005b828110614b5257505050565b602090614b5d614a9a565b82828501015201614b46565b9190811015613ecd5760051b0190565b60045480614b935750600090600090600090600090600090565b80600052600f60205260406000209060405190614baf82613c1b565b8254825260018301549360208301948552600360028501549460408501958652015492614c2a606082019563ffffffff928387168852838760201c16608082015260c060ff808960401c169860a0840199614c0981613d34565b8a5260481c1615159101525184600052600d60205260406000205490614153565b935195614c3687613d34565b614c3f87613d34565b51945116919493929190565b80158015614d31575b614d1c5780600052600f60205260406000209160405190614c7482613c1b565b83548252600184015493602083019485526003600282015491604085019283520154916060840194614cf263ffffffff918286168852828660201c16608088015260ff8660401c169460a0880195614ccb81613d34565b865260ff60c089019760481c16151587525190600052600d60205260406000205490614153565b94511515925196614d0288613d34565b614d0b88613d34565b519551169251151591959493929190565b50600090600090600090600090600090600090565b506004548111614c54565b9061122457818103614d4c575050565b60038060ff9260018060a01b0385541660018060a01b03198254161781556001850154600182015560028501546002820155019201541660ff19825416179055565b80156107ca576000190190565b90949392919260ff809116906007821061513b5760059687548610156151315760009486865260106020526040968787209060019187838201541490811591615119575b5061510c57868852601360205288882093600019895b8d81106150d8575b5060018101614fd7575b506000199b805b614f35575b5060018c01614e2b575b505050505050505050509050565b60049b8c5b818111614eea5750614e6e908b5196614e4888613c00565b6001600160a01b039384168852602088019485528c880196875260608801998a52613eb9565b959095614ed8575185546001600160a01b0319169116178455519083015551600282015591516003928301805460ff191692909116919091179055908252600f60205291902001805460ff60481b1916600160481b17905590508038808080808080808080614e1d565b634e487b7160e01b8a52898d5260248afd5b6000198101818111614f225790614f18614f07614f1d938a613eb9565b50614f12838b613eb9565b90614d3c565b614d8e565b614e30565b634e487b7160e01b8c5260118f5260248cfd5b9b6000198d01908d8211614fc357614f4d8288613eb9565b5080546001600160a01b031615614fb75760028101549089828911928315614f92575b505050600014614f8b5750614f85909c614d8e565b80614e0e565b9c50614e13565b891492509082614fa7575b5050388981614f70565b60030154168a1190508838614f9d565b5050614f85909c614d8e565b634e487b7160e01b8b52601160045260248bfd5b614fe18187613eb9565b50600281015490888288119283156150b3575b5050506000146150a457835b615058575b508860608b5161501481613c00565b828152602081018390528c810183905201526010850180546001600160a01b0319169055601185018990556012850189905560138501805460ff1916905538614e07565b60048082101561509e578482019081831161508b57508491615080614f07615085938a613eb9565b614133565b90615000565b634e487b7160e01b8c526011905260248bfd5b50615005565b50505050505050505050509050565b8814925090826150c8575b5050388881614ff4565b60030154168911905087386150be565b6150e28188613eb9565b50546001600160a01b03848116911614615104576150ff90614133565b614df5565b905038614dfd565b5050505050505050509050565b546001600160a01b0386811691161415905038614ddf565b5050505050509050565b50505050509050565b60009060ff168061516557505061516161271091610fa0906143e5565b0490565b6001810361517f57505061516161271091610bb8906143e5565b60028103615199575050615161612710916107d0906143e5565b600381036151b3575050615161612710916101f4906143e5565b6004036151cb5750615161612710916101f4906143e5565b905090565b801561532c5760008181526013602052604080822080546001600160a01b039493929190851615908115615319575b5061520a5750505050565b600d602052808220549182615220575b50614619565b6152586127106152507f0000000000000000000000000000000000000000000000000000000000000000866143e5565b048094614160565b92848252600d60205281838120556001850195868611615305578280928192898352600d60205286832061528d898254614153565b90557f0000000000000000000000000000000000000000000000000000000000000000165af16152bb614418565b50156152f5577fd02ee9eafb934e2ffd95384478ef177c9932fd0d6cb1813747b8eefdf55d8b199160209151908152a3388080808061521a565b516312171d8360e31b8152600490fd5b634e487b7160e01b83526011600452602483fd5b60079150600360ff9101541610386151ff565b50565b60045481118015615362575b61535c576000908152600a60205260409020546001600160401b0316151590565b50600090565b50801561533b565b92919092831580156154f2575b6154e6576000938085526020600f815260ff9160409160038481858b200154851c166153a281613d34565b036154dc57818852600c81528288205442106154dc5760059182548710156154d15786895260108252838920805490976001600160a01b03978816979182168890036154b657600198838a820154036154c3576022015460081c8716156154b657828b5260138452858b208b9a99989092895b61542b575b50999a508a99505050505050505050565b888d16878110156154b0578d848c8585615445858b613eb9565b505416149283615496575b50505061546c57506154648a9b9c9d6143d4565b9c9b9a615415565b965050505050879596975260158152828520918552528220541661548f57509190565b9250508190565b6154a39192935088613eb9565b50015414848f8d90615450565b5061541a565b5050505050505050508190565b505050505050505050508190565b505050505050508190565b5050505050508190565b50509050600090600090565b50600454841161537756fed43c77f044c1f8bc6adf6676b4ce17edda35ef8ee63f154568826c0ecb3c6bf39c7b6f99cba4ae2b8837d2a4ff724e1273427755c6f2e43bac3108bccb98b66add45cfbd9f2d20e6b7b6f5fa3148363d48017feae0c98de41ec4435a5aa754468be0079c531659141344cd1fd0a4f28419497f9722a3daafe3b4186f6b6457e0785817d289e9ce1881ef42379ab98f4f7513f0d3bb1f9a9e060afb4cd2b67eabdbc55064e49993e4c979488990287b80a393512ce56bbe0cb3834df880cf97c7a264697066735822122010863193c01129e2adb8fce212435e8de3510203e5bcd3963adef20e51fef93664736f6c63430008140033",
  "linkReferences": {},
  "deployedLinkReferences": {}
}