{
  "_format": "hh-sol-artifact-1",
  "contractName": "Oddyssey",
  "sourceName": "contracts/Oddyssey.sol",
  "abi": [
    {
      "inputs": [
        {
          "internalType": "address",
          "name": "_devWallet",
          "type": "address"
        },
        {
          "internalType": "uint256",
          "name": "_initialEntryFee",
          "type": "uint256"
        }
      ],
      "stateMutability": "nonpayable",
      "type": "constructor"
    },
    {
      "inputs": [],
      "name": "DataNotFound",
      "type": "error"
    },
    {
      "inputs": [],
      "name": "InsufficientFunds",
      "type": "error"
    },
    {
      "inputs": [],
      "name": "InvalidInput",
      "type": "error"
    },
    {
      "inputs": [],
      "name": "InvalidState",
      "type": "error"
    },
    {
      "inputs": [],
      "name": "InvalidTiming",
      "type": "error"
    },
    {
      "inputs": [
        {
          "internalType": "address",
          "name": "owner",
          "type": "address"
        }
      ],
      "name": "OwnableInvalidOwner",
      "type": "error"
    },
    {
      "inputs": [
        {
          "internalType": "address",
          "name": "account",
          "type": "address"
        }
      ],
      "name": "OwnableUnauthorizedAccount",
      "type": "error"
    },
    {
      "inputs": [],
      "name": "ReentrancyGuardReentrantCall",
      "type": "error"
    },
    {
      "inputs": [],
      "name": "TransferFailed",
      "type": "error"
    },
    {
      "inputs": [],
      "name": "Unauthorized",
      "type": "error"
    },
    {
      "anonymous": false,
      "inputs": [
        {
          "indexed": true,
          "internalType": "uint256",
          "name": "cycleId",
          "type": "uint256"
        },
        {
          "indexed": false,
          "internalType": "uint256",
          "name": "totalVolume",
          "type": "uint256"
        },
        {
          "indexed": false,
          "internalType": "uint32",
          "name": "totalSlips",
          "type": "uint32"
        },
        {
          "indexed": false,
          "internalType": "uint256",
          "name": "averageScore",
          "type": "uint256"
        }
      ],
      "name": "AnalyticsUpdated",
      "type": "event"
    },
    {
      "anonymous": false,
      "inputs": [
        {
          "indexed": true,
          "internalType": "uint256",
          "name": "cycleId",
          "type": "uint256"
        },
        {
          "indexed": false,
          "internalType": "uint256",
          "name": "endTime",
          "type": "uint256"
        },
        {
          "indexed": false,
          "internalType": "uint32",
          "name": "totalSlips",
          "type": "uint32"
        }
      ],
      "name": "CycleEnded",
      "type": "event"
    },
    {
      "anonymous": false,
      "inputs": [
        {
          "indexed": true,
          "internalType": "uint256",
          "name": "cycleId",
          "type": "uint256"
        },
        {
          "indexed": false,
          "internalType": "uint256",
          "name": "prizePool",
          "type": "uint256"
        }
      ],
      "name": "CycleResolved",
      "type": "event"
    },
    {
      "anonymous": false,
      "inputs": [
        {
          "indexed": true,
          "internalType": "uint256",
          "name": "cycleId",
          "type": "uint256"
        },
        {
          "indexed": false,
          "internalType": "uint256",
          "name": "endTime",
          "type": "uint256"
        }
      ],
      "name": "CycleStarted",
      "type": "event"
    },
    {
      "anonymous": false,
      "inputs": [
        {
          "indexed": true,
          "internalType": "uint256",
          "name": "newFee",
          "type": "uint256"
        }
      ],
      "name": "EntryFeeSet",
      "type": "event"
    },
    {
      "anonymous": false,
      "inputs": [
        {
          "indexed": true,
          "internalType": "uint256",
          "name": "cycleId",
          "type": "uint256"
        },
        {
          "indexed": true,
          "internalType": "address",
          "name": "player",
          "type": "address"
        },
        {
          "indexed": true,
          "internalType": "uint256",
          "name": "slipId",
          "type": "uint256"
        },
        {
          "indexed": false,
          "internalType": "uint8",
          "name": "rank",
          "type": "uint8"
        },
        {
          "indexed": false,
          "internalType": "uint256",
          "name": "finalScore",
          "type": "uint256"
        }
      ],
      "name": "LeaderboardUpdated",
      "type": "event"
    },
    {
      "anonymous": false,
      "inputs": [
        {
          "indexed": true,
          "internalType": "address",
          "name": "user",
          "type": "address"
        },
        {
          "indexed": false,
          "internalType": "uint256",
          "name": "pointsEarned",
          "type": "uint256"
        },
        {
          "indexed": false,
          "internalType": "uint256",
          "name": "correctPredictions",
          "type": "uint256"
        },
        {
          "indexed": false,
          "internalType": "uint256",
          "name": "totalReputation",
          "type": "uint256"
        }
      ],
      "name": "OddysseyReputationUpdated",
      "type": "event"
    },
    {
      "anonymous": false,
      "inputs": [
        {
          "indexed": true,
          "internalType": "address",
          "name": "newOracle",
          "type": "address"
        }
      ],
      "name": "OracleSet",
      "type": "event"
    },
    {
      "anonymous": false,
      "inputs": [
        {
          "indexed": true,
          "internalType": "address",
          "name": "previousOwner",
          "type": "address"
        },
        {
          "indexed": true,
          "internalType": "address",
          "name": "newOwner",
          "type": "address"
        }
      ],
      "name": "OwnershipTransferred",
      "type": "event"
    },
    {
      "anonymous": false,
      "inputs": [
        {
          "indexed": true,
          "internalType": "uint256",
          "name": "cycleId",
          "type": "uint256"
        },
        {
          "indexed": true,
          "internalType": "address",
          "name": "player",
          "type": "address"
        },
        {
          "indexed": false,
          "internalType": "uint256",
          "name": "rank",
          "type": "uint256"
        },
        {
          "indexed": false,
          "internalType": "uint256",
          "name": "amount",
          "type": "uint256"
        }
      ],
      "name": "PrizeClaimed",
      "type": "event"
    },
    {
      "anonymous": false,
      "inputs": [
        {
          "indexed": true,
          "internalType": "uint256",
          "name": "fromCycleId",
          "type": "uint256"
        },
        {
          "indexed": true,
          "internalType": "uint256",
          "name": "toCycleId",
          "type": "uint256"
        },
        {
          "indexed": false,
          "internalType": "uint256",
          "name": "amount",
          "type": "uint256"
        }
      ],
      "name": "PrizeRollover",
      "type": "event"
    },
    {
      "anonymous": false,
      "inputs": [
        {
          "indexed": true,
          "internalType": "uint256",
          "name": "slipId",
          "type": "uint256"
        },
        {
          "indexed": true,
          "internalType": "address",
          "name": "player",
          "type": "address"
        },
        {
          "indexed": true,
          "internalType": "uint256",
          "name": "cycleId",
          "type": "uint256"
        },
        {
          "indexed": false,
          "internalType": "uint8",
          "name": "correctCount",
          "type": "uint8"
        },
        {
          "indexed": false,
          "internalType": "uint256",
          "name": "finalScore",
          "type": "uint256"
        }
      ],
      "name": "SlipEvaluated",
      "type": "event"
    },
    {
      "anonymous": false,
      "inputs": [
        {
          "indexed": true,
          "internalType": "uint256",
          "name": "cycleId",
          "type": "uint256"
        },
        {
          "indexed": true,
          "internalType": "address",
          "name": "player",
          "type": "address"
        },
        {
          "indexed": true,
          "internalType": "uint256",
          "name": "slipId",
          "type": "uint256"
        }
      ],
      "name": "SlipPlaced",
      "type": "event"
    },
    {
      "anonymous": false,
      "inputs": [
        {
          "indexed": true,
          "internalType": "address",
          "name": "user",
          "type": "address"
        },
        {
          "indexed": false,
          "internalType": "uint256",
          "name": "totalSlips",
          "type": "uint256"
        },
        {
          "indexed": false,
          "internalType": "uint256",
          "name": "totalWins",
          "type": "uint256"
        },
        {
          "indexed": false,
          "internalType": "uint256",
          "name": "bestScore",
          "type": "uint256"
        },
        {
          "indexed": false,
          "internalType": "uint256",
          "name": "winRate",
          "type": "uint256"
        }
      ],
      "name": "UserStatsUpdated",
      "type": "event"
    },
    {
      "inputs": [],
      "name": "DAILY_LEADERBOARD_SIZE",
      "outputs": [
        {
          "internalType": "uint256",
          "name": "",
          "type": "uint256"
        }
      ],
      "stateMutability": "view",
      "type": "function"
    },
    {
      "inputs": [],
      "name": "DEV_FEE_PERCENTAGE",
      "outputs": [
        {
          "internalType": "uint256",
          "name": "",
          "type": "uint256"
        }
      ],
      "stateMutability": "view",
      "type": "function"
    },
    {
      "inputs": [],
      "name": "MATCH_COUNT",
      "outputs": [
        {
          "internalType": "uint256",
          "name": "",
          "type": "uint256"
        }
      ],
      "stateMutability": "view",
      "type": "function"
    },
    {
      "inputs": [],
      "name": "MAX_CYCLES_TO_RESOLVE",
      "outputs": [
        {
          "internalType": "uint256",
          "name": "",
          "type": "uint256"
        }
      ],
      "stateMutability": "view",
      "type": "function"
    },
    {
      "inputs": [],
      "name": "MIN_CORRECT_PREDICTIONS",
      "outputs": [
        {
          "internalType": "uint256",
          "name": "",
          "type": "uint256"
        }
      ],
      "stateMutability": "view",
      "type": "function"
    },
    {
      "inputs": [],
      "name": "ODDS_SCALING_FACTOR",
      "outputs": [
        {
          "internalType": "uint256",
          "name": "",
          "type": "uint256"
        }
      ],
      "stateMutability": "view",
      "type": "function"
    },
    {
      "inputs": [],
      "name": "PRIZE_ROLLOVER_FEE_PERCENTAGE",
      "outputs": [
        {
          "internalType": "uint256",
          "name": "",
          "type": "uint256"
        }
      ],
      "stateMutability": "view",
      "type": "function"
    },
    {
      "inputs": [
        {
          "internalType": "uint256[]",
          "name": "_cycleIds",
          "type": "uint256[]"
        }
      ],
      "name": "claimMultiplePrizes",
      "outputs": [],
      "stateMutability": "nonpayable",
      "type": "function"
    },
    {
      "inputs": [
        {
          "internalType": "uint256",
          "name": "_cycleId",
          "type": "uint256"
        }
      ],
      "name": "claimPrize",
      "outputs": [],
      "stateMutability": "nonpayable",
      "type": "function"
    },
    {
      "inputs": [
        {
          "internalType": "uint256",
          "name": "",
          "type": "uint256"
        }
      ],
      "name": "claimableStartTimes",
      "outputs": [
        {
          "internalType": "uint256",
          "name": "",
          "type": "uint256"
        }
      ],
      "stateMutability": "view",
      "type": "function"
    },
    {
      "inputs": [
        {
          "internalType": "uint256",
          "name": "",
          "type": "uint256"
        }
      ],
      "name": "cycleInfo",
      "outputs": [
        {
          "internalType": "uint256",
          "name": "startTime",
          "type": "uint256"
        },
        {
          "internalType": "uint256",
          "name": "endTime",
          "type": "uint256"
        },
        {
          "internalType": "uint256",
          "name": "prizePool",
          "type": "uint256"
        },
        {
          "internalType": "uint32",
          "name": "slipCount",
          "type": "uint32"
        },
        {
          "internalType": "uint32",
          "name": "evaluatedSlips",
          "type": "uint32"
        },
        {
          "internalType": "enum Oddyssey.CycleState",
          "name": "state",
          "type": "uint8"
        },
        {
          "internalType": "bool",
          "name": "hasWinner",
          "type": "bool"
        }
      ],
      "stateMutability": "view",
      "type": "function"
    },
    {
      "inputs": [
        {
          "internalType": "uint256",
          "name": "",
          "type": "uint256"
        }
      ],
      "name": "cycleStats",
      "outputs": [
        {
          "internalType": "uint256",
          "name": "volume",
          "type": "uint256"
        },
        {
          "internalType": "uint32",
          "name": "slips",
          "type": "uint32"
        },
        {
          "internalType": "uint32",
          "name": "evaluatedSlips",
          "type": "uint32"
        }
      ],
      "stateMutability": "view",
      "type": "function"
    },
    {
      "inputs": [
        {
          "internalType": "uint256",
          "name": "",
          "type": "uint256"
        }
      ],
      "name": "dailyCycleEndTimes",
      "outputs": [
        {
          "internalType": "uint256",
          "name": "",
          "type": "uint256"
        }
      ],
      "stateMutability": "view",
      "type": "function"
    },
    {
      "inputs": [],
      "name": "dailyCycleId",
      "outputs": [
        {
          "internalType": "uint256",
          "name": "",
          "type": "uint256"
        }
      ],
      "stateMutability": "view",
      "type": "function"
    },
    {
      "inputs": [
        {
          "internalType": "uint256",
          "name": "",
          "type": "uint256"
        },
        {
          "internalType": "uint256",
          "name": "",
          "type": "uint256"
        }
      ],
      "name": "dailyLeaderboards",
      "outputs": [
        {
          "internalType": "address",
          "name": "player",
          "type": "address"
        },
        {
          "internalType": "uint256",
          "name": "slipId",
          "type": "uint256"
        },
        {
          "internalType": "uint256",
          "name": "finalScore",
          "type": "uint256"
        },
        {
          "internalType": "uint8",
          "name": "correctCount",
          "type": "uint8"
        }
      ],
      "stateMutability": "view",
      "type": "function"
    },
    {
      "inputs": [
        {
          "internalType": "uint256",
          "name": "",
          "type": "uint256"
        },
        {
          "internalType": "uint256",
          "name": "",
          "type": "uint256"
        }
      ],
      "name": "dailyMatches",
      "outputs": [
        {
          "internalType": "uint64",
          "name": "id",
          "type": "uint64"
        },
        {
          "internalType": "uint64",
          "name": "startTime",
          "type": "uint64"
        },
        {
          "internalType": "uint32",
          "name": "oddsHome",
          "type": "uint32"
        },
        {
          "internalType": "uint32",
          "name": "oddsDraw",
          "type": "uint32"
        },
        {
          "internalType": "uint32",
          "name": "oddsAway",
          "type": "uint32"
        },
        {
          "internalType": "uint32",
          "name": "oddsOver",
          "type": "uint32"
        },
        {
          "internalType": "uint32",
          "name": "oddsUnder",
          "type": "uint32"
        },
        {
          "internalType": "string",
          "name": "homeTeam",
          "type": "string"
        },
        {
          "internalType": "string",
          "name": "awayTeam",
          "type": "string"
        },
        {
          "internalType": "string",
          "name": "leagueName",
          "type": "string"
        },
        {
          "components": [
            {
              "internalType": "enum Oddyssey.MoneylineResult",
              "name": "moneyline",
              "type": "uint8"
            },
            {
              "internalType": "enum Oddyssey.OverUnderResult",
              "name": "overUnder",
              "type": "uint8"
            }
          ],
          "internalType": "struct Oddyssey.Result",
          "name": "result",
          "type": "tuple"
        }
      ],
      "stateMutability": "view",
      "type": "function"
    },
    {
      "inputs": [
        {
          "internalType": "uint256",
          "name": "",
          "type": "uint256"
        }
      ],
      "name": "dailyPrizePools",
      "outputs": [
        {
          "internalType": "uint256",
          "name": "",
          "type": "uint256"
        }
      ],
      "stateMutability": "view",
      "type": "function"
    },
    {
      "inputs": [],
      "name": "devWallet",
      "outputs": [
        {
          "internalType": "address",
          "name": "",
          "type": "address"
        }
      ],
      "stateMutability": "view",
      "type": "function"
    },
    {
      "inputs": [],
      "name": "enhancedReputationSystem",
      "outputs": [
        {
          "internalType": "contract IEnhancedReputationSystem",
          "name": "",
          "type": "address"
        }
      ],
      "stateMutability": "view",
      "type": "function"
    },
    {
      "inputs": [],
      "name": "entryFee",
      "outputs": [
        {
          "internalType": "uint256",
          "name": "",
          "type": "uint256"
        }
      ],
      "stateMutability": "view",
      "type": "function"
    },
    {
      "inputs": [
        {
          "internalType": "uint256[]",
          "name": "_slipIds",
          "type": "uint256[]"
        }
      ],
      "name": "evaluateMultipleSlips",
      "outputs": [],
      "stateMutability": "nonpayable",
      "type": "function"
    },
    {
      "inputs": [
        {
          "internalType": "uint256",
          "name": "_slipId",
          "type": "uint256"
        }
      ],
      "name": "evaluateSlip",
      "outputs": [],
      "stateMutability": "nonpayable",
      "type": "function"
    },
    {
      "inputs": [
        {
          "internalType": "uint256[]",
          "name": "_slipIds",
          "type": "uint256[]"
        }
      ],
      "name": "getBatchSlips",
      "outputs": [
        {
          "components": [
            {
              "internalType": "address",
              "name": "player",
              "type": "address"
            },
            {
              "internalType": "uint256",
              "name": "cycleId",
              "type": "uint256"
            },
            {
              "internalType": "uint256",
              "name": "placedAt",
              "type": "uint256"
            },
            {
              "components": [
                {
                  "internalType": "uint64",
                  "name": "matchId",
                  "type": "uint64"
                },
                {
                  "internalType": "enum Oddyssey.BetType",
                  "name": "betType",
                  "type": "uint8"
                },
                {
                  "internalType": "string",
                  "name": "selection",
                  "type": "string"
                },
                {
                  "internalType": "uint32",
                  "name": "selectedOdd",
                  "type": "uint32"
                },
                {
                  "internalType": "string",
                  "name": "homeTeam",
                  "type": "string"
                },
                {
                  "internalType": "string",
                  "name": "awayTeam",
                  "type": "string"
                },
                {
                  "internalType": "string",
                  "name": "leagueName",
                  "type": "string"
                }
              ],
              "internalType": "struct Oddyssey.UserPrediction[10]",
              "name": "predictions",
              "type": "tuple[10]"
            },
            {
              "internalType": "uint256",
              "name": "finalScore",
              "type": "uint256"
            },
            {
              "internalType": "uint8",
              "name": "correctCount",
              "type": "uint8"
            },
            {
              "internalType": "bool",
              "name": "isEvaluated",
              "type": "bool"
            }
          ],
          "internalType": "struct Oddyssey.Slip[]",
          "name": "",
          "type": "tuple[]"
        }
      ],
      "stateMutability": "view",
      "type": "function"
    },
    {
      "inputs": [],
      "name": "getCurrentCycle",
      "outputs": [
        {
          "internalType": "uint256",
          "name": "",
          "type": "uint256"
        }
      ],
      "stateMutability": "view",
      "type": "function"
    },
    {
      "inputs": [],
      "name": "getCurrentCycleInfo",
      "outputs": [
        {
          "internalType": "uint256",
          "name": "cycleId",
          "type": "uint256"
        },
        {
          "internalType": "uint8",
          "name": "state",
          "type": "uint8"
        },
        {
          "internalType": "uint256",
          "name": "endTime",
          "type": "uint256"
        },
        {
          "internalType": "uint256",
          "name": "prizePool",
          "type": "uint256"
        },
        {
          "internalType": "uint32",
          "name": "cycleSlipCount",
          "type": "uint32"
        }
      ],
      "stateMutability": "view",
      "type": "function"
    },
    {
      "inputs": [
        {
          "internalType": "uint256",
          "name": "_cycleId",
          "type": "uint256"
        }
      ],
      "name": "getCycleMatches",
      "outputs": [
        {
          "components": [
            {
              "internalType": "uint64",
              "name": "id",
              "type": "uint64"
            },
            {
              "internalType": "uint64",
              "name": "startTime",
              "type": "uint64"
            },
            {
              "internalType": "uint32",
              "name": "oddsHome",
              "type": "uint32"
            },
            {
              "internalType": "uint32",
              "name": "oddsDraw",
              "type": "uint32"
            },
            {
              "internalType": "uint32",
              "name": "oddsAway",
              "type": "uint32"
            },
            {
              "internalType": "uint32",
              "name": "oddsOver",
              "type": "uint32"
            },
            {
              "internalType": "uint32",
              "name": "oddsUnder",
              "type": "uint32"
            },
            {
              "internalType": "string",
              "name": "homeTeam",
              "type": "string"
            },
            {
              "internalType": "string",
              "name": "awayTeam",
              "type": "string"
            },
            {
              "internalType": "string",
              "name": "leagueName",
              "type": "string"
            },
            {
              "components": [
                {
                  "internalType": "enum Oddyssey.MoneylineResult",
                  "name": "moneyline",
                  "type": "uint8"
                },
                {
                  "internalType": "enum Oddyssey.OverUnderResult",
                  "name": "overUnder",
                  "type": "uint8"
                }
              ],
              "internalType": "struct Oddyssey.Result",
              "name": "result",
              "type": "tuple"
            }
          ],
          "internalType": "struct Oddyssey.Match[10]",
          "name": "",
          "type": "tuple[10]"
        }
      ],
      "stateMutability": "view",
      "type": "function"
    },
    {
      "inputs": [
        {
          "internalType": "uint256",
          "name": "_cycleId",
          "type": "uint256"
        }
      ],
      "name": "getCycleStatus",
      "outputs": [
        {
          "internalType": "bool",
          "name": "exists",
          "type": "bool"
        },
        {
          "internalType": "uint8",
          "name": "state",
          "type": "uint8"
        },
        {
          "internalType": "uint256",
          "name": "endTime",
          "type": "uint256"
        },
        {
          "internalType": "uint256",
          "name": "prizePool",
          "type": "uint256"
        },
        {
          "internalType": "uint32",
          "name": "cycleSlipCount",
          "type": "uint32"
        },
        {
          "internalType": "bool",
          "name": "hasWinner",
          "type": "bool"
        }
      ],
      "stateMutability": "view",
      "type": "function"
    },
    {
      "inputs": [
        {
          "internalType": "uint256",
          "name": "_cycleId",
          "type": "uint256"
        }
      ],
      "name": "getDailyLeaderboard",
      "outputs": [
        {
          "components": [
            {
              "internalType": "address",
              "name": "player",
              "type": "address"
            },
            {
              "internalType": "uint256",
              "name": "slipId",
              "type": "uint256"
            },
            {
              "internalType": "uint256",
              "name": "finalScore",
              "type": "uint256"
            },
            {
              "internalType": "uint8",
              "name": "correctCount",
              "type": "uint8"
            }
          ],
          "internalType": "struct Oddyssey.LeaderboardEntry[5]",
          "name": "",
          "type": "tuple[5]"
        }
      ],
      "stateMutability": "view",
      "type": "function"
    },
    {
      "inputs": [
        {
          "internalType": "uint256",
          "name": "_cycleId",
          "type": "uint256"
        }
      ],
      "name": "getDailyMatches",
      "outputs": [
        {
          "components": [
            {
              "internalType": "uint64",
              "name": "id",
              "type": "uint64"
            },
            {
              "internalType": "uint64",
              "name": "startTime",
              "type": "uint64"
            },
            {
              "internalType": "uint32",
              "name": "oddsHome",
              "type": "uint32"
            },
            {
              "internalType": "uint32",
              "name": "oddsDraw",
              "type": "uint32"
            },
            {
              "internalType": "uint32",
              "name": "oddsAway",
              "type": "uint32"
            },
            {
              "internalType": "uint32",
              "name": "oddsOver",
              "type": "uint32"
            },
            {
              "internalType": "uint32",
              "name": "oddsUnder",
              "type": "uint32"
            },
            {
              "internalType": "string",
              "name": "homeTeam",
              "type": "string"
            },
            {
              "internalType": "string",
              "name": "awayTeam",
              "type": "string"
            },
            {
              "internalType": "string",
              "name": "leagueName",
              "type": "string"
            },
            {
              "components": [
                {
                  "internalType": "enum Oddyssey.MoneylineResult",
                  "name": "moneyline",
                  "type": "uint8"
                },
                {
                  "internalType": "enum Oddyssey.OverUnderResult",
                  "name": "overUnder",
                  "type": "uint8"
                }
              ],
              "internalType": "struct Oddyssey.Result",
              "name": "result",
              "type": "tuple"
            }
          ],
          "internalType": "struct Oddyssey.Match[10]",
          "name": "",
          "type": "tuple[10]"
        }
      ],
      "stateMutability": "view",
      "type": "function"
    },
    {
      "inputs": [
        {
          "internalType": "uint256",
          "name": "_slipId",
          "type": "uint256"
        }
      ],
      "name": "getSlip",
      "outputs": [
        {
          "components": [
            {
              "internalType": "address",
              "name": "player",
              "type": "address"
            },
            {
              "internalType": "uint256",
              "name": "cycleId",
              "type": "uint256"
            },
            {
              "internalType": "uint256",
              "name": "placedAt",
              "type": "uint256"
            },
            {
              "components": [
                {
                  "internalType": "uint64",
                  "name": "matchId",
                  "type": "uint64"
                },
                {
                  "internalType": "enum Oddyssey.BetType",
                  "name": "betType",
                  "type": "uint8"
                },
                {
                  "internalType": "string",
                  "name": "selection",
                  "type": "string"
                },
                {
                  "internalType": "uint32",
                  "name": "selectedOdd",
                  "type": "uint32"
                },
                {
                  "internalType": "string",
                  "name": "homeTeam",
                  "type": "string"
                },
                {
                  "internalType": "string",
                  "name": "awayTeam",
                  "type": "string"
                },
                {
                  "internalType": "string",
                  "name": "leagueName",
                  "type": "string"
                }
              ],
              "internalType": "struct Oddyssey.UserPrediction[10]",
              "name": "predictions",
              "type": "tuple[10]"
            },
            {
              "internalType": "uint256",
              "name": "finalScore",
              "type": "uint256"
            },
            {
              "internalType": "uint8",
              "name": "correctCount",
              "type": "uint8"
            },
            {
              "internalType": "bool",
              "name": "isEvaluated",
              "type": "bool"
            }
          ],
          "internalType": "struct Oddyssey.Slip",
          "name": "",
          "type": "tuple"
        }
      ],
      "stateMutability": "view",
      "type": "function"
    },
    {
      "inputs": [
        {
          "internalType": "address",
          "name": "_user",
          "type": "address"
        }
      ],
      "name": "getUserData",
      "outputs": [
        {
          "components": [
            {
              "internalType": "uint256",
              "name": "totalSlips",
              "type": "uint256"
            },
            {
              "internalType": "uint256",
              "name": "totalWins",
              "type": "uint256"
            },
            {
              "internalType": "uint256",
              "name": "bestScore",
              "type": "uint256"
            },
            {
              "internalType": "uint256",
              "name": "averageScore",
              "type": "uint256"
            },
            {
              "internalType": "uint256",
              "name": "winRate",
              "type": "uint256"
            },
            {
              "internalType": "uint256",
              "name": "currentStreak",
              "type": "uint256"
            },
            {
              "internalType": "uint256",
              "name": "bestStreak",
              "type": "uint256"
            },
            {
              "internalType": "uint256",
              "name": "lastActiveCycle",
              "type": "uint256"
            }
          ],
          "internalType": "struct Oddyssey.UserStats",
          "name": "userStatsData",
          "type": "tuple"
        },
        {
          "internalType": "uint256",
          "name": "reputation",
          "type": "uint256"
        },
        {
          "internalType": "uint256",
          "name": "correctPredictions",
          "type": "uint256"
        }
      ],
      "stateMutability": "view",
      "type": "function"
    },
    {
      "inputs": [
        {
          "internalType": "address",
          "name": "_user",
          "type": "address"
        }
      ],
      "name": "getUserSlipCount",
      "outputs": [
        {
          "internalType": "uint256",
          "name": "",
          "type": "uint256"
        }
      ],
      "stateMutability": "view",
      "type": "function"
    },
    {
      "inputs": [
        {
          "internalType": "address",
          "name": "_user",
          "type": "address"
        },
        {
          "internalType": "uint256",
          "name": "_cycleId",
          "type": "uint256"
        }
      ],
      "name": "getUserSlipsForCycle",
      "outputs": [
        {
          "internalType": "uint256[]",
          "name": "",
          "type": "uint256[]"
        }
      ],
      "stateMutability": "view",
      "type": "function"
    },
    {
      "inputs": [
        {
          "internalType": "address",
          "name": "_user",
          "type": "address"
        },
        {
          "internalType": "uint256",
          "name": "_cycleId",
          "type": "uint256"
        }
      ],
      "name": "getUserSlipsWithData",
      "outputs": [
        {
          "internalType": "uint256[]",
          "name": "slipIds",
          "type": "uint256[]"
        },
        {
          "components": [
            {
              "internalType": "address",
              "name": "player",
              "type": "address"
            },
            {
              "internalType": "uint256",
              "name": "cycleId",
              "type": "uint256"
            },
            {
              "internalType": "uint256",
              "name": "placedAt",
              "type": "uint256"
            },
            {
              "components": [
                {
                  "internalType": "uint64",
                  "name": "matchId",
                  "type": "uint64"
                },
                {
                  "internalType": "enum Oddyssey.BetType",
                  "name": "betType",
                  "type": "uint8"
                },
                {
                  "internalType": "string",
                  "name": "selection",
                  "type": "string"
                },
                {
                  "internalType": "uint32",
                  "name": "selectedOdd",
                  "type": "uint32"
                },
                {
                  "internalType": "string",
                  "name": "homeTeam",
                  "type": "string"
                },
                {
                  "internalType": "string",
                  "name": "awayTeam",
                  "type": "string"
                },
                {
                  "internalType": "string",
                  "name": "leagueName",
                  "type": "string"
                }
              ],
              "internalType": "struct Oddyssey.UserPrediction[10]",
              "name": "predictions",
              "type": "tuple[10]"
            },
            {
              "internalType": "uint256",
              "name": "finalScore",
              "type": "uint256"
            },
            {
              "internalType": "uint8",
              "name": "correctCount",
              "type": "uint8"
            },
            {
              "internalType": "bool",
              "name": "isEvaluated",
              "type": "bool"
            }
          ],
          "internalType": "struct Oddyssey.Slip[]",
          "name": "slipsData",
          "type": "tuple[]"
        }
      ],
      "stateMutability": "view",
      "type": "function"
    },
    {
      "inputs": [
        {
          "internalType": "uint256",
          "name": "_cycleId",
          "type": "uint256"
        }
      ],
      "name": "isCycleInitialized",
      "outputs": [
        {
          "internalType": "bool",
          "name": "",
          "type": "bool"
        }
      ],
      "stateMutability": "view",
      "type": "function"
    },
    {
      "inputs": [
        {
          "internalType": "uint256",
          "name": "",
          "type": "uint256"
        }
      ],
      "name": "isCycleResolved",
      "outputs": [
        {
          "internalType": "bool",
          "name": "",
          "type": "bool"
        }
      ],
      "stateMutability": "view",
      "type": "function"
    },
    {
      "inputs": [],
      "name": "oracle",
      "outputs": [
        {
          "internalType": "address",
          "name": "",
          "type": "address"
        }
      ],
      "stateMutability": "view",
      "type": "function"
    },
    {
      "inputs": [],
      "name": "owner",
      "outputs": [
        {
          "internalType": "address",
          "name": "",
          "type": "address"
        }
      ],
      "stateMutability": "view",
      "type": "function"
    },
    {
      "inputs": [
        {
          "components": [
            {
              "internalType": "uint64",
              "name": "matchId",
              "type": "uint64"
            },
            {
              "internalType": "enum Oddyssey.BetType",
              "name": "betType",
              "type": "uint8"
            },
            {
              "internalType": "string",
              "name": "selection",
              "type": "string"
            },
            {
              "internalType": "uint32",
              "name": "selectedOdd",
              "type": "uint32"
            },
            {
              "internalType": "string",
              "name": "homeTeam",
              "type": "string"
            },
            {
              "internalType": "string",
              "name": "awayTeam",
              "type": "string"
            },
            {
              "internalType": "string",
              "name": "leagueName",
              "type": "string"
            }
          ],
          "internalType": "struct Oddyssey.UserPrediction[10]",
          "name": "_predictions",
          "type": "tuple[10]"
        }
      ],
      "name": "placeSlip",
      "outputs": [],
      "stateMutability": "payable",
      "type": "function"
    },
    {
      "inputs": [
        {
          "internalType": "uint256",
          "name": "",
          "type": "uint256"
        },
        {
          "internalType": "uint8",
          "name": "",
          "type": "uint8"
        }
      ],
      "name": "prizeClaimed",
      "outputs": [
        {
          "internalType": "bool",
          "name": "",
          "type": "bool"
        }
      ],
      "stateMutability": "view",
      "type": "function"
    },
    {
      "inputs": [],
      "name": "renounceOwnership",
      "outputs": [],
      "stateMutability": "nonpayable",
      "type": "function"
    },
    {
      "inputs": [
        {
          "internalType": "uint256",
          "name": "_cycleId",
          "type": "uint256"
        },
        {
          "components": [
            {
              "internalType": "enum Oddyssey.MoneylineResult",
              "name": "moneyline",
              "type": "uint8"
            },
            {
              "internalType": "enum Oddyssey.OverUnderResult",
              "name": "overUnder",
              "type": "uint8"
            }
          ],
          "internalType": "struct Oddyssey.Result[10]",
          "name": "_results",
          "type": "tuple[10]"
        }
      ],
      "name": "resolveDailyCycle",
      "outputs": [],
      "stateMutability": "nonpayable",
      "type": "function"
    },
    {
      "inputs": [
        {
          "internalType": "uint256[]",
          "name": "_cycleIds",
          "type": "uint256[]"
        },
        {
          "components": [
            {
              "internalType": "enum Oddyssey.MoneylineResult",
              "name": "moneyline",
              "type": "uint8"
            },
            {
              "internalType": "enum Oddyssey.OverUnderResult",
              "name": "overUnder",
              "type": "uint8"
            }
          ],
          "internalType": "struct Oddyssey.Result[10][]",
          "name": "_results",
          "type": "tuple[10][]"
        }
      ],
      "name": "resolveMultipleCycles",
      "outputs": [],
      "stateMutability": "nonpayable",
      "type": "function"
    },
    {
      "inputs": [
        {
          "internalType": "address",
          "name": "_enhancedReputationSystem",
          "type": "address"
        }
      ],
      "name": "setEnhancedReputationSystem",
      "outputs": [],
      "stateMutability": "nonpayable",
      "type": "function"
    },
    {
      "inputs": [
        {
          "internalType": "uint256",
          "name": "_newFee",
          "type": "uint256"
        }
      ],
      "name": "setEntryFee",
      "outputs": [],
      "stateMutability": "nonpayable",
      "type": "function"
    },
    {
      "inputs": [
        {
          "internalType": "address",
          "name": "_newOracle",
          "type": "address"
        }
      ],
      "name": "setOracle",
      "outputs": [],
      "stateMutability": "nonpayable",
      "type": "function"
    },
    {
      "inputs": [],
      "name": "slipCount",
      "outputs": [
        {
          "internalType": "uint256",
          "name": "",
          "type": "uint256"
        }
      ],
      "stateMutability": "view",
      "type": "function"
    },
    {
      "inputs": [
        {
          "internalType": "uint256",
          "name": "",
          "type": "uint256"
        }
      ],
      "name": "slips",
      "outputs": [
        {
          "internalType": "address",
          "name": "player",
          "type": "address"
        },
        {
          "internalType": "uint256",
          "name": "cycleId",
          "type": "uint256"
        },
        {
          "internalType": "uint256",
          "name": "placedAt",
          "type": "uint256"
        },
        {
          "internalType": "uint256",
          "name": "finalScore",
          "type": "uint256"
        },
        {
          "internalType": "uint8",
          "name": "correctCount",
          "type": "uint8"
        },
        {
          "internalType": "bool",
          "name": "isEvaluated",
          "type": "bool"
        }
      ],
      "stateMutability": "view",
      "type": "function"
    },
    {
      "inputs": [
        {
          "components": [
            {
              "internalType": "uint64",
              "name": "id",
              "type": "uint64"
            },
            {
              "internalType": "uint64",
              "name": "startTime",
              "type": "uint64"
            },
            {
              "internalType": "uint32",
              "name": "oddsHome",
              "type": "uint32"
            },
            {
              "internalType": "uint32",
              "name": "oddsDraw",
              "type": "uint32"
            },
            {
              "internalType": "uint32",
              "name": "oddsAway",
              "type": "uint32"
            },
            {
              "internalType": "uint32",
              "name": "oddsOver",
              "type": "uint32"
            },
            {
              "internalType": "uint32",
              "name": "oddsUnder",
              "type": "uint32"
            },
            {
              "internalType": "string",
              "name": "homeTeam",
              "type": "string"
            },
            {
              "internalType": "string",
              "name": "awayTeam",
              "type": "string"
            },
            {
              "internalType": "string",
              "name": "leagueName",
              "type": "string"
            },
            {
              "components": [
                {
                  "internalType": "enum Oddyssey.MoneylineResult",
                  "name": "moneyline",
                  "type": "uint8"
                },
                {
                  "internalType": "enum Oddyssey.OverUnderResult",
                  "name": "overUnder",
                  "type": "uint8"
                }
              ],
              "internalType": "struct Oddyssey.Result",
              "name": "result",
              "type": "tuple"
            }
          ],
          "internalType": "struct Oddyssey.Match[10]",
          "name": "_matches",
          "type": "tuple[10]"
        }
      ],
      "name": "startDailyCycle",
      "outputs": [],
      "stateMutability": "nonpayable",
      "type": "function"
    },
    {
      "inputs": [],
      "name": "stats",
      "outputs": [
        {
          "internalType": "uint256",
          "name": "totalVolume",
          "type": "uint256"
        },
        {
          "internalType": "uint32",
          "name": "totalSlips",
          "type": "uint32"
        },
        {
          "internalType": "uint256",
          "name": "highestOdd",
          "type": "uint256"
        }
      ],
      "stateMutability": "view",
      "type": "function"
    },
    {
      "inputs": [
        {
          "internalType": "address",
          "name": "newOwner",
          "type": "address"
        }
      ],
      "name": "transferOwnership",
      "outputs": [],
      "stateMutability": "nonpayable",
      "type": "function"
    },
    {
      "inputs": [
        {
          "internalType": "address",
          "name": "",
          "type": "address"
        }
      ],
      "name": "userOddysseyCorrectPredictions",
      "outputs": [
        {
          "internalType": "uint256",
          "name": "",
          "type": "uint256"
        }
      ],
      "stateMutability": "view",
      "type": "function"
    },
    {
      "inputs": [
        {
          "internalType": "address",
          "name": "",
          "type": "address"
        }
      ],
      "name": "userOddysseyReputation",
      "outputs": [
        {
          "internalType": "uint256",
          "name": "",
          "type": "uint256"
        }
      ],
      "stateMutability": "view",
      "type": "function"
    },
    {
      "inputs": [
        {
          "internalType": "address",
          "name": "",
          "type": "address"
        }
      ],
      "name": "userStats",
      "outputs": [
        {
          "internalType": "uint256",
          "name": "totalSlips",
          "type": "uint256"
        },
        {
          "internalType": "uint256",
          "name": "totalWins",
          "type": "uint256"
        },
        {
          "internalType": "uint256",
          "name": "bestScore",
          "type": "uint256"
        },
        {
          "internalType": "uint256",
          "name": "averageScore",
          "type": "uint256"
        },
        {
          "internalType": "uint256",
          "name": "winRate",
          "type": "uint256"
        },
        {
          "internalType": "uint256",
          "name": "currentStreak",
          "type": "uint256"
        },
        {
          "internalType": "uint256",
          "name": "bestStreak",
          "type": "uint256"
        },
        {
          "internalType": "uint256",
          "name": "lastActiveCycle",
          "type": "uint256"
        }
      ],
      "stateMutability": "view",
      "type": "function"
    }
  ],
  "bytecode": "0x60e0346200015b5762004d8390601f38839003908101601f19168201906001600160401b038211838310176200016057808391604095869485528339810103126200015b5780516001600160a01b03808216929091908382036200015b576020015191331562000143576000549360018060a01b03199433868216176000558651923391167f8be0079c531659141344cd1fd0a4f28419497f9722a3daafe3b4186f6b6457e0600080a360018055156200013457506706f05b59d3b200008203620001235760c052600355339060025416176002556101f48060805260a05251614c0c90816200017782396080518181816113c601526141f7015260a051818181611487015261494b015260c05181818161168b0152818161422701526149b10152f35b835163b4fa3fb360e01b8152600490fd5b63b4fa3fb360e01b8152600490fd5b8451631e4fbdf760e01b815260006004820152602490fd5b600080fd5b634e487b7160e01b600052604160045260246000fdfe6080604052600436101561001257600080fd5b60003560e01c806302c009ef14612e9e578063042db2e61461077857806305b61d1114612e80578063072ea61c14612e625780630832275e14612d1a57806314bd964414612cfe57806317ee395b14612cb35780631e7e465f14612b6e5780632012ef0314612934578063210d5f5f146129095780632ac5df93146128dd578063328621a61461274c578063361a9792146126dc57806344f796091461265b5780634c3b1939146126175780634f4bc86e146125dd5780635052617d146125c1578063590d0f99146125a45780635932ec0a14611a44578063625d9ce514611a285780636977f54614611a00578063715018a6146119b957806373d225731461191f578063745be576146118f35780637adbf9731461187e5780637d208cee146118445780637dc0d1d01461181b5780637e12170d146117d2578063836602171461176a5780638a65d874146116e35780638da5cb5b146116ba5780638ea5220f1461167557806391230fa3146116325780639ad7884c146115de5780639bea95ac146115ad578063a1ce7ecb146114aa578063a4957efe1461146f578063af9b2bfb146113e9578063b0dbf47d146113ae578063ba1487ad1461109f578063ba61ebde14610796578063be26ed7f14610778578063c503b251146106d4578063c56a00de14610663578063c6b6850814610629578063c81b986c1461054e578063ccb0b3c314610525578063d7098154146104fb578063d80528ae146104c6578063e734e60c1461049a578063eb770d0c14610429578063f2fde38b146103b5578063fbb0de53146103995763ffc9896b1461026e57600080fd5b3461039457602080600319360112610394576101409061028c613aa1565b600060e060405161029c816138e5565b82815282858201528260408201528260608201528260808201528260a08201528260c0820152015260018060a01b0316600052600781526040600020600882526040600020546009835260406000205491604051906102fa826138e5565b805494858352600182015490808401918252600283015460408501908152600384015490606086019182526004850154926080870193845260058601549460a0880195865260e0600760068901549860c08b01998a52015498019788526040519a8b5251908a01525160408901525160608801525160808701525160a08601525160c08501525160e0840152610100830152610120820152f35b600080fd5b3461039457600036600319011261039457602060405160078152f35b34610394576020366003190112610394576103ce613aa1565b6103d6613d4f565b6001600160a01b03908116908115610410576000548260018060a01b031982161760005516600080516020614b97833981519152600080a3005b604051631e4fbdf760e01b815260006004820152602490fd5b3461039457602036600319011261039457600435610445613d4f565b6706f05b59d3b20000810361048857600354811461048857806003557f565a4bfd76b3419546eefb0f3228d436837362a9b57e0c3a03227225dfec023d600080a2005b60405163b4fa3fb360e01b8152600490fd5b3461039457602036600319011261039457600435600052600c6020526020604060002054604051908152f35b3461039457600036600319011261039457606060165463ffffffff601754166018549060405192835260208301526040820152f35b3461039457602036600319011261039457610514614032565b61051f600435614134565b60018055005b34610394576000366003190112610394576006546040516001600160a01b039091168152602090f35b3461039457602080600319360112610394576105686143f9565b5060043560005260108152604060002090604051916105868361387f565b80546001600160a01b0316835260018181015483850152600282015460408086019190915251906105b68261389a565b60038301600085845b600a831061060b57888260ff60408a8a6060860152603f8101546080860152015481811660a085015260081c16151560c08301526106076040519282849384528301906136cb565b0390f35b849160069161061986614055565b81520193019101909186906105bf565b34610394576020366003190112610394576001600160a01b0361064a613aa1565b1660005260086020526020604060002054604051908152f35b34610394576020806003193601126103945761067d614361565b50600435600052600a8082526040600020906040519161069c8361389a565b92600090835b8383106106b7576040518061060787826139a8565b6006826001926106c689613e23565b8152019601920191946106a2565b34610394576020366003190112610394576004356001600160401b03811161039457610704903690600401613cf1565b60005b81518110156107765761071a8183613e0f565b5190303b1561039457604051916335c2605560e21b8352600483015260008260248183305af191821561076a576107569261075b575b50613d7b565b610707565b610764906138b6565b83610750565b6040513d6000823e3d90fd5b005b34610394576000366003190112610394576020600454604051908152f35b346103945760031960203682011261039457600435906001600160401b038211610394573660238301121561039457604051916107d28361389a565b8261014490818301923684116103945780600401915b848310610f605760025487906001600160a01b03163303610f4f574261012c810191906001600160401b0390831060005b600a8082101561096c5761082d8286613d8a565b5180519091906001600160401b03161561095a576020820180519092906001600160401b031685610907578810156109485763ffffffff8060408301511615801561093a575b801561092c575b610488578060a0830151161590811561091d575b506104885760018401808511610907575b8281106108d957505090516001600160401b039081169150841681106108cf575b506108ca90613d7b565b610819565b92506108ca6108c0565b81516001600160401b03908116906108f1838b613d8a565b515116146104885761090290613d7b565b61089f565b634e487b7160e01b600052601160045260246000fd5b905060c082015116158961088e565b50806080830151161561087a565b508060608301511615610873565b60405163c8b9bc9160e01b8152600490fd5b604051635a26d5fd60e11b8152600490fd5b84868585610907576001600160401b03169081111561094857610990600454613d7b565b91826004556000198301838111610907576109aa906148ef565b6001600160401b0361012b19830111610907576000838152600a60205260408120915b600a8210610afb57847f62eeb403dc233a7676f50cdb0fd72dae595aeb7c63039adce5caacc33254f9c060208683600052600b825260018060401b039061012b19011680604060002055600c825260001960406000205560148252604060002060ff198154169055604051610a418161387f565b4281528281018281526040820160008152610ab66060840160008152600360808601956000875260a08101946001865260c0820196600088528c600052600f8b52604060002092518355516001830155516002820155019463ffffffff8092511663ffffffff19875416178655511684613dec565b5190610ac18261397c565b610aca8261397c565b8254905161ffff60401b19909116604092831b60ff60401b161790151560481b60ff60481b161790915551908152a2005b805180516020820151604080840151606085015160808087015160a08089015160c092831b63ffffffff60c01b169490911b63ffffffff60a01b169490921b63ffffffff60801b169590941b600160401b600160801b03166001600160401b039687161794909417919091171760e092831b6001600160e01b03191617875583015160018701805463ffffffff191663ffffffff929092169190911790558201518051918211610dd5578190610bb46002880154613bc6565b601f8111610f1a575b50602090601f8311600114610ea857600092610e9d575b50508160011b916000199060031b1c19161760028501555b6101008101518051906001600160401b038211610dd5578190610c126003880154613bc6565b601f8111610e68575b50602090601f8311600114610df657600092610deb575b50508160011b916000199060031b1c19161760038501555b6101208101518051906001600160401b038211610dd5578190610c706004880154613bc6565b601f8111610d95575b50602090601f8311600114610d2357600092610d18575b50508160011b916000199060031b1c19161760048501555b61014001518051916005850190610cbe8461397c565b610cc78461397c565b60208254930151916003831015610d025760019460069460ff61ff0060209660081b1692169061ffff191617179055019301910190916109cd565b634e487b7160e01b600052602160045260246000fd5b015190508880610c90565b9250600487016000526020600020906000935b601f1984168510610d7a576001945083601f19811610610d61575b505050811b016004850155610ca8565b015160001960f88460031b161c19169055888080610d51565b81810151835560209485019460019093019290910190610d36565b610dc5906004890160005260206000206005601f8601811c82019260208710610dcb575b601f01901c0190613dc8565b89610c79565b9192508291610db9565b634e487b7160e01b600052604160045260246000fd5b015190508880610c32565b9250600387016000526020600020906000935b601f1984168510610e4d576001945083601f19811610610e34575b505050811b016003850155610c4a565b015160001960f88460031b161c19169055888080610e24565b81810151835560209485019460019093019290910190610e09565b610e97906003890160005260206000206005601f8601811c82019260208710610dcb57601f01901c0190613dc8565b89610c1b565b015190508880610bd4565b9250600287016000526020600020906000935b601f1984168510610eff576001945083601f19811610610ee6575b505050811b016002850155610bec565b015160001960f88460031b161c19169055888080610ed6565b81810151835560209485019460019093019290910190610ebb565b610f49906002890160005260206000206005601f8601811c82019260208710610dcb57601f01901c0190613dc8565b89610bbd565b6040516282b42960e81b8152600490fd5b82356001600160401b0381116103945782016101808782360301126103945760405191610f8c836138c9565b610f9860048301613aeb565b8352610fa660248301613aeb565b6020840152610fb760448301613b61565b6040840152610fc860648301613b61565b6060840152610fd960848301613b61565b6080840152610fea60a48301613b61565b60a0840152610ffb60c48301613b61565b60c084015260e48201356001600160401b038111610394576110239060043691850101613b1a565b60e08401526101048201356001600160401b0381116103945761104c9060043691850101613b1a565b610100840152610124820135926001600160401b0384116103945761108e6020949361107f869560043691840101613b1a565b6101208401528836910161393f565b6101408201528152019201916107e8565b34610394576040366003190112610394576001600160401b03600435818111610394576110d0903690600401613cf1565b602480359283116103945736602384011215610394578260040135906110f582613cda565b91611103604051938461391c565b8083526020948584018361028080940283010191368311610394578401905b8282106113495750506002546001600160a01b039250821633039050610f4f5783518351036104885760328451116104885760005b84518110156107765761116a8186613e0f565b516111758286613e0f565b5183600254163303610f4f578115801561133e575b61095a5781600052600f8089526040600020541561095a5782600052885260406000206003808201928160ff855460401c166111c58161397c565b1461132c57600180930154421115610948576000835b611296575b5050825460ff60401b1916600360401b17835550600083815260148a5260409020805460ff191690911790555463ffffffff1661125b57908161125692600052600c8852426040600020555b80600052600d8852600080516020614b7783398151915288604060002054604051908152a2613d7b565b611157565b6201518042018042116112815790611256929181600052600c895260406000205561122c565b84634e487b7160e01b60005260116004526000fd5b600a80821015611326576112aa8284613d8a565b5190876000528d528c60056112c3846040600020613bb2565b5001918051916112d28361397c565b6112db8361397c565b835491015186811015611311579161130b939160ff61ff008a979560081b1692169061ffff191617179055613d7b565b906111db565b8c634e487b7160e01b60005260216004526000fd5b506111e0565b60405163baf3f0f760e01b8152600490fd5b50600454821161118a565b36601f83011215610394576040516113608161389a565b8285018136821161039457918693918b9386905b82821061138957505050815201910190611122565b60409294965061139d95919395368561393f565b8152019101918794928c9492611374565b346103945760003660031901126103945760206040517f00000000000000000000000000000000000000000000000000000000000000008152f35b34610394576020366003190112610394576004356001600160401b03811161039457611419903690600401613cf1565b60005b81518110156107765761142f8183613e0f565b5190303b1561039457604051916302c009ef60e01b8352600483015260008260248183305af191821561076a5761146a9261075b5750613d7b565b61141c565b346103945760003660031901126103945760206040517f00000000000000000000000000000000000000000000000000000000000000008152f35b34610394576114b836613b72565b90600052600a602052604060002090600a811015610394576114d991613bb2565b5080549063ffffffff906106076115a1836001840154169261159261150060028301613c00565b61158361150f60038501613c00565b91611528600561152160048801613c00565b9601613ca6565b976040519a8b9a60018060401b038083168d528260401c1660208d0152808260801c1660408d0152808260a01c1660608d01528160c01c1660808c015260e01c60a08b015260c08a01526101808060e08b015289019061368b565b9087820361010089015261368b565b9085820361012087015261368b565b91610140840190613986565b34610394576020366003190112610394576004356000526014602052602060ff604060002054166040519015158152f35b346103945760203660031901126103945760c060ff63ffffffff611603600435614540565b9594969093604093929351971515885216602087015260408601526060850152166080830152151560a0820152f35b346103945760203660031901126103945761164b613aa1565b611653613d4f565b600680546001600160a01b0319166001600160a01b0392909216919091179055005b34610394576000366003190112610394576040517f00000000000000000000000000000000000000000000000000000000000000006001600160a01b03168152602090f35b34610394576000366003190112610394576000546040516001600160a01b039091168152602090f35b34610394576020366003190112610394576001600160a01b03611704613aa1565b1660005260076020526101006040600020805490600181015490600281015460038201546004830154906005840154926007600686015495015495604051978852602088015260408701526060860152608085015260a084015260c083015260e0820152f35b346103945761177836613b72565b906000526013602052604060002060058210156103945760809161179b91613b88565b5060018060a01b038154169060018101549060ff600360028301549201541691604051938452602084015260408301526060820152f35b3461039457602036600319011261039457600435600052600e602052606060406000206001815491015460405191825263ffffffff90818116602084015260201c166040820152f35b34610394576000366003190112610394576002546040516001600160a01b039091168152602090f35b34610394576020366003190112610394576001600160a01b03611865613aa1565b1660005260126020526020604060002054604051908152f35b3461039457602036600319011261039457611897613aa1565b61189f613d4f565b6001600160a01b03908116908115610488576002549081168214610488576001600160a01b03191681176002557f3f32684a32a11dabdbb8c0177de80aa3ae36a004d75210335b49e544e48cd0aa600080a2005b3461039457602036600319011261039457600435600052600d6020526020604060002054604051908152f35b3461039457604036600319011261039457611938613aa1565b6024356000526020906011825260406000209060018060a01b03166000528152604060002090604051808383829554938481520190600052836000209260005b858282106119a35750505061198f9250038361391c565b610607604051928284938452830190613ab7565b8554845260019586019588955093019201611978565b34610394576000366003190112610394576119d2613d4f565b600080546001600160a01b0319811682556001600160a01b0316600080516020614b978339815191528280a3005b34610394576020366003190112610394576020611a1e600435614a4f565b6040519015158152f35b3461039457600036600319011261039457602060405160058152f35b60031960203682011261039457600435906001600160401b03821161039457366023830112156103945760405191611a7b8361389a565b82916101448201913683116103945780600401935b8385106124975785611aa0614032565b600454801561132c5780600052600f6020526040600020600160ff600383015460401c16611acd8161397c565b0361132c5760018101544210156109485760035434036124855781600052600a60205260406000209260005b600a81106123035750611b0a613f64565b9360005b600a8110612212575050506005549260405190611b2a8261387f565b33825260208083018581524260408086019182526060860194855260006080870181905260a0870181905260c0870181905289815260109094528320855181546001600160a01b0319166001600160a01b03919091161781559151600183015551600282015591516003830191905b600a8210611d5e575050506040906080830151603f820155019060ff60a08201511661ff0060c08454930151151560081b169161ffff191617179055611be0600554613d7b565b600555816000526011602052604060002033600052602052611c06836040600020613fe8565b336000526012602052611c1d836040600020613fe8565b81600052600d6020526040600020611c36348254613d9b565b9055611c4434601654613d9b565b601655600360175463ffffffff9081611c5e81831661401d565b1663ffffffff198092161760175584600052600e6020526040600020611c85348254613d9b565b905584600052600e602052600160406000200180548284611ca781841661401d565b16911617905560028401611cbc348254613d9b565b90558284015491611cce81841661401d565b169116179101553360005260076020526040600020611ced8154613d7b565b908181558260078201556001810154906004600282015491015491604051938452602084015260408301526060820152600080516020614bb783398151915260803392a233907ff6e7d09282448c842ef23b148b6dfa2dc4b69839898341f8fb5065eb496cb0fa600080a460018055005b805180518454602083015190916001600160401b0316906002811015610d02576001600160481b031990921617604091821b60ff60401b161785558101518051906001600160401b038211610dd5578190611dbc6001880154613bc6565b601f81116121dd575b50602090601f831160011461216b57600092612160575b50508160011b916000199060031b1c19161760018501555b6002840163ffffffff60608301511663ffffffff19825416179055608081015180519060018060401b038211610dd5578190611e336003880154613bc6565b601f811161212b575b50602090601f83116001146120b9576000926120ae575b50508160011b916000199060031b1c19161760038501555b60a08101518051906001600160401b038211610dd557611e8e6004870154613bc6565b601f8111612079575b50602090601f83116001146120065760c093929160009183611ffb575b50508160011b916000199060031b1c19161760048601555b01518051906001600160401b038211610dd557611eec6005860154613bc6565b601f8111611fbb575b50602090601f8311600114611f45579282600693602093600196600092611f3a575b5050600019600383901b1c191690851b1760058701555b01930191019091611b99565b015190508d80611f17565b906005860160005260206000209160005b601f1985168110611fa3575083602093600196938793600697601f19811610611f8a575b505050811b016005870155611f2e565b015160001960f88460031b161c191690558d8080611f7a565b91926020600181928685015181550194019201611f56565b611feb90600587016000526020600020601f850160051c81019160208610611ff1575b601f0160051c0190613dc8565b8a611ef5565b9091508190611fde565b015190508c80611eb4565b906004870160005260206000209160005b601f1985168110612061575091839160019360c09695601f19811610612048575b505050811b016004860155611ecc565b015160001960f88460031b161c191690558c8080612038565b91926020600181928685015181550194019201612017565b6120a890600488016000526020600020601f850160051c81019160208610611ff157601f0160051c0190613dc8565b8b611e97565b015190508b80611e53565b9250600387016000526020600020906000935b601f1984168510612110576001945083601f198116106120f7575b505050811b016003850155611e6b565b015160001960f88460031b161c191690558b80806120e7565b818101518355602094850194600190930192909101906120cc565b61215a90600389016000526020600020601f850160051c81019160208610611ff157601f0160051c0190613dc8565b8c611e3c565b015190508b80611ddc565b9250600187016000526020600020906000935b601f19841685106121c2576001945083601f198116106121a9575b505050811b016001850155611df4565b015160001960f88460031b161c191690558b8080612199565b8181015183556020948501946001909301929091019061217e565b61220c90600189016000526020600020601f850160051c81019160208610611ff157601f0160051c0190613dc8565b8c611dc5565b6001600160401b036122248285613d8a565b51511660206122338386613d8a565b510151600280821015610d025761224a8487613d8a565b51604001519060608061225d878a613d8a565b51015163ffffffff166122708789613bb2565b509161227c888a613bb2565b5094612288898b613bb2565b5096604051986122978a61387f565b89526122a69060208a01613fc4565b6040880152860152016122b890613c00565b60808401526003016122c990613c00565b60a08301526004016122da90613c00565b60c08201526122e98288613d8a565b526122f48187613d8a565b506122fe90613d7b565b611b0e565b61230d8183613d8a565b5180516001600160401b03166123238388613bb2565b50546001600160401b031603610488576123466123408388613bb2565b50613e23565b6020820180519060029182811015610d025761241357505060408201805160208151910120612373613f0d565b60208151910120146000146123b557506040015163ffffffff165b63ffffffff80911691821561048857606001511603610488576123b090613d7b565b611af9565b8051602081519101206123c6613f2a565b60208151910120146000146123e557506060015163ffffffff1661238e565b51602081519101206123f5613f47565b6020815191012014600014610488576080015163ffffffff1661238e565b5190811015610d02576001036104885760408201805160208151910120612438613ecc565b6020815191012014600014612457575060a0015163ffffffff1661238e565b5160208151910120612467613eec565b60208151910120146000146104885760c0015163ffffffff1661238e565b60405163356680b760e01b8152600490fd5b84356001600160401b03811161039457820160e084823603011261039457604051916124c28361387f565b6124ce60048301613aeb565b83526024820135600281101561039457602084015260448201356001600160401b038111610394576125069060043691850101613b1a565b604084015261251760648301613b61565b606084015260848201356001600160401b0381116103945761253f9060043691850101613b1a565b608084015260a48201356001600160401b038111610394576125679060043691850101613b1a565b60a084015260c4820135926001600160401b03841161039457612594602094936004869536920101613b1a565b60c0820152815201940193611a90565b346103945760003660031901126103945760206040516103e88152f35b34610394576000366003190112610394576020604051600a8152f35b34610394576020366003190112610394576001600160a01b036125fe613aa1565b1660005260096020526020604060002054604051908152f35b346103945760003660031901126103945760a060ff63ffffffff612639614488565b9395909260405196875216602086015260408501526060840152166080820152f35b3461039457602036600319011261039457600435600052600f60205260e0604060002060ff81549160018101546003600283015492015491838360401c16916040519586526020860152604085015263ffffffff80831660608601528260201c1660808501526126ca8161397c565b60a084015260481c16151560c0820152f35b3461039457602036600319011261039457600435600052601060205260c0604060002060ff60018060a01b038254169160018101549060028101546040603f83015492015492604051958652602086015260408501526060840152818116608084015260081c16151560a0820152f35b3461039457604036600319011261039457612765613aa1565b60243560005260209060118252604060002060018060a01b038092166000528252604060002090604051808385829554938481520190600052856000209260005b878282106128c7575050506127bd9250038361391c565b6127c78251614438565b9260005b835181101561289d576127de8185613e0f565b51600052601082526040600020604051906127f88261387f565b84815416825260018082015485840152600282015460408401526040519061281f8261389a565b60006003840187845b600a841061287f5750505050508291604091606061287a96950152603f8101546080840152015460ff9081811660a084015260081c16151560c082015261286f8288613e0f565b526107508187613e0f565b6127cb565b849160069161288d85614055565b8152019201920191908890612828565b6128ba846106078488604051948594604086526040860190613ab7565b9184830390850152613808565b85548452600195860195889550930192016127a6565b3461039457602036600319011261039457600435600052600b6020526020604060002054604051908152f35b3461039457602036600319011261039457610607612928600435614a8a565b604051918291826139a8565b34610394576102a0366003190112610394576004353660431215610394576040519061295f8261389a565b81906102a43681116103945760249283905b828210612b545750506002546001600160a01b031633039050610f4f5780158015612b49575b61095a57806000526020600f81526040600020541561095a5781600052600f81526040600020936003948581019160ff8781855460401c166129d88161397c565b1461132c5760018093015442111561094857906000835b612ab0575b5050825460ff60401b1916600360401b1783555060008481526014845260409020805460ff1916909117905554929350909163ffffffff16612a695781600080516020614b77833981519152929350600052600c8152426040600020555b82600052600d8152604060002054604051908152a2005b620151804201804211612a9b5782600080516020614b77833981519152939450600052600c8252604060002055612a52565b83634e487b7160e01b60005260116004526000fd5b600a80821015612b4357612ac48284613d8a565b51908860005287526005612adc836040600020613bb2565b500190805190612aeb8261397c565b612af48261397c565b8883549101518c811015612b2e5791612b2693918761ff008a9998979560081b1692169061ffff191617179055613d7b565b9091926129ef565b8b634e487b7160e01b60005260216004526000fd5b506129f4565b506004548111612997565b6020604091612b63368561393f565b815201910190612971565b346103945760208060031936011261039457600435906001600160401b03908183116103945736602384011215610394578260040135918211610394576024600593368285871b8301011161039457612bc684614438565b9460005b858110612be457604051858152806106078188018a613808565b8381831b8401013560005260108552604060002060405190612c058261387f565b80546001600160a01b031682526001818101548884015260028201546040808501919091525190612c358261389a565b6000600384018a845b600a8410612c9557505050505082916040916060612c9096950152603f8101546080840152015460ff9081811660a084015260081c16151560c0820152612c85828a613e0f565b526107508189613e0f565b612bca565b8491600691612ca385614055565b8152019201920191908b90612c3e565b346103945760403660031901126103945760243560ff8116809103610394576004356000526015602052604060002090600052602052602060ff604060002054166040519015158152f35b3461039457600036600319011261039457602060405160328152f35b34610394576020806003193601126103945760405160a0906001600160401b039082810182811182821017610dd5576040528360005b848110612e3257505050600435600052601383526040600020906040519283019083821090821117610dd557604052600083835b60058310612de657508360405191826000905b60058210612da55761028085f35b835180516001600160a01b0316825280840151828501526040808201519083015260609081015160ff16908201529282019260019190910190608001612d97565b600191600491604051612df881613864565b848060a01b03875416815284870154838201526002870154604082015260ff60038801541660608201528152019301910190918490612d84565b604051612e3e81613864565b60008152600083820152600060408201526000606082015281840152018490612d50565b34610394576000366003190112610394576020600354604051908152f35b34610394576000366003190112610394576020600554604051908152f35b3461039457602036600319011261039457612eb7614032565b600554600435101561095a5760043560005260106020526040600020600181015480600052600f602052600360ff816040600020015460401c16612efa8161397c565b0361132c5760408201549160ff8360081c1661132c5760006103e883600052600a60205260406000209460005b600a8110613468575061ffff191660ff8316908117610100176040850155612f6d92919015613460575b603f84018190558354600435906001600160a01b03168661461f565b60018060a01b0390541680600052600760205260406000206000836000526011602052604060002083600052602052604060002080549081613068575b505050608081600080516020614bb78339815191529254906001810154906004600282015491015491604051938452602084015260408301526060820152a280600052600e6020526040600020600f60205260016040600020910161303e600363ffffffff9361302861302286865460201c1661401d565b85613dec565b0161303884825460201c1661401d565b90613dec565b54908082169160201c16146130535760018055005b600052600c602052426040600020558061051f565b8160001981011161090757613081916000190190613fd0565b90549060031b1c600052601060205260406000209083600760ff604085015416101560001461344f5750600183016130b98154613d7b565b905560ff6040830154168460005260096020526130dc6040600020918254613d9b565b9055600360ff6040840154166008811015613446575b600981101561343d575b600a14613435575b6000805b600560ff8216106133f5575b506133e3575b603f83015460028501805482116133ce575b50509060078401549260018401841161090757859360010187036133c257600585016131588154613d7b565b80915560068601805482116133a7575b50505b8360005260086020526040600020613184848254613d9b565b90556006546001600160a01b0316806132bc575b508454806131f5575b506060600080516020614bb7833981519152959360809593604060ff81600080516020614b578339815191529601541691868152600860205220549060405192835260208301526040820152a29185612faa565b90919293506003850180546000198301908382116132a85761322961321e61322e938693613db5565b603f87015490613d9b565b6140e4565b905560018501546127109081810291818304149015171561329457608094600080516020614bb78339815191529694604060ff818b9761327f600080516020614b57833981519152986060986140e4565b60048b015596505050509395509395506131a1565b634e487b7160e01b84526011600452602484fd5b634e487b7160e01b86526011600452602486fd5b60408281015490516e027b2323cb9b9b2bc9031bcb1b6329608d1b6020820152602f81018a90526201016960ed1b604f82015260f89190911b6001600160f81b0319166052820152670818dbdc9c9958dd60c21b6053820152603b815294506001600160401b036060860190811190861117610dd55760608501604052803b15610394576379435c8360e01b606086810191825260648701899052600b608488015260a4870152600091605f198761337760c482018261368b565b0301908360608901915af193841561076a578694156131985761339e9192506060016138b6565b60009087613198565b55919250600383018311610907576003859301918780613168565b6001600586015561316b565b5560028101811161090757600201868061312c565b600a8101811161090757600a0161311a565b8760005260136020528661340d826040600020613b88565b50546001600160a01b03161461342b57613426906140d3565b613108565b5050600187613114565b506008613104565b600691506130fc565b600491506130f2565b91906000600585015560019161316b565b506000612f51565b61347e6134788260038801613bb2565b50614055565b61348b612340838a613bb2565b60009060208301516002811015610d02576135de5760408301908151602081519101206134b6613f0d565b602081519101201491826135ba575b8215613571575b8215613524575b505061351c575b6134ee575b506134e990613d7b565b612f27565b936135146134e9929463ffffffff606061350a6103e8956140d3565b9801511690613db5565b0492906134df565b5060016134da565b9091505160208151910120613537613f47565b6020815191012014908161354e575b508a806134d3565b600391506101400151516135618161397c565b61356a8161397c565b148a613546565b8092505160208151910120613584613f2a565b602081519101201480613598575b916134cc565b506002610140820151516135ab8161397c565b6135b48161397c565b14613592565b91506001610140820151516135ce8161397c565b6135d78161397c565b14916134c5565b6040830151602081519101206135f2613ecc565b60208151910120149081613666575b8115613616575b50156134da575060016134da565b905060408301516020815191012061362c613eec565b60208151910120149081613642575b508a613608565b61014001516136549150602001613ddf565b6003811015610d02576002148a61363b565b9050613679602061014083015101613ddf565b6003811015610d025760011490613601565b919082519283825260005b8481106136b7575050826000602080949584010152601f8019910116010190565b602081830181015184830182015201613696565b80516001600160a01b03168252602080820151818401526040808301518185015260608084015160e082870181905261022087019695949193818701939192916000918291905b600a841061374757505050505050505060c081608082930151608085015260ff60a08201511660a08501520151151591015290565b909192939495969960df198a82030188528a5160018060401b0381511682528681015160028110156137f4576137e48389936137d16137be61379d8e88978860019b01528a85015190808c88015286019061368b565b63ffffffff8b850151168b860152608080850151908683039087015261368b565b60a080840151908583039086015261368b565b9160c0809201519181840391015261368b565b9c01980196959401929190613712565b634e487b7160e01b86526021600452602486fd5b908082519081815260208091019281808460051b8301019501936000915b8483106138365750505050505090565b9091929394958480613854600193601f198682030187528a516136cb565b9801930193019194939290613826565b608081019081106001600160401b03821117610dd557604052565b60e081019081106001600160401b03821117610dd557604052565b61014081019081106001600160401b03821117610dd557604052565b6001600160401b038111610dd557604052565b61016081019081106001600160401b03821117610dd557604052565b61010081019081106001600160401b03821117610dd557604052565b604081019081106001600160401b03821117610dd557604052565b601f909101601f19168101906001600160401b03821190821017610dd557604052565b91908260409103126103945760405161395781613901565b8092803590600482101561039457602091835201359060038210156103945760200152565b60041115610d0257565b60209080516139948161397c565b83520151906003821015610d025760200152565b6020808252610160820192919060008282015b600a82106139cb57505050505090565b90919293948380600192601f19888203018552613a92895191858060401b0380845116825284840151168482015263ffffffff60408181860151169083015260608181860151169083015260808181860151169083015260a08181860151169083015260c090818501511690820152613a82613a6e613a5a60e08087015190610180809187015285019061368b565b61010080870151908583039086015261368b565b61012080860151908483039085015261368b565b9261014080910151910190613986565b970192019201909392916139bb565b600435906001600160a01b038216820361039457565b90815180825260208080930193019160005b828110613ad7575050505090565b835185529381019392810192600101613ac9565b35906001600160401b038216820361039457565b6001600160401b038111610dd557601f01601f191660200190565b81601f8201121561039457803590613b3182613aff565b92613b3f604051948561391c565b8284526020838301011161039457816000926020809301838601378301015290565b359063ffffffff8216820361039457565b6040906003190112610394576004359060243590565b906005811015613b9c5760021b0190600090565b634e487b7160e01b600052603260045260246000fd5b90600a811015613b9c576006020190600090565b90600182811c92168015613bf6575b6020831014613be057565b634e487b7160e01b600052602260045260246000fd5b91607f1691613bd5565b9060405191826000825492613c1484613bc6565b908184526001948581169081600014613c835750600114613c40575b5050613c3e9250038361391c565b565b9093915060005260209081600020936000915b818310613c6b575050613c3e93508201013880613c30565b85548884018501529485019487945091830191613c53565b915050613c3e94506020925060ff191682840152151560051b8201013880613c30565b90604051613cb381613901565b60ff819354818116613cc48161397c565b835260081c16906003821015610d025760200152565b6001600160401b038111610dd55760051b60200190565b81601f8201121561039457803591613d0883613cda565b92613d16604051948561391c565b808452602092838086019260051b820101928311610394578301905b828210613d40575050505090565b81358152908301908301613d32565b6000546001600160a01b03163303613d6357565b60405163118cdaa760e01b8152336004820152602490fd5b60001981146109075760010190565b90600a811015613b9c5760051b0190565b9190820180921161090757565b9190820391821161090757565b8181029291811591840414171561090757565b818110613dd3575050565b60008155600101613dc8565b516003811015610d025790565b805463ffffffff60201b191660209290921b63ffffffff60201b16919091179055565b8051821015613b9c5760209160051b010190565b90604051613e30816138c9565b610140613ec760058395805460018060401b0380821687528160401c16602087015263ffffffff90818160801c166040880152818160a01c166060880152818160c01c16608088015260e01c60a087015260018201541660c0860152613e9860028201613c00565b60e0860152613ea960038201613c00565b610100860152613ebb60048201613c00565b61012086015201613ca6565b910152565b60405190613ed982613901565b600482526327bb32b960e11b6020830152565b60405190613ef982613901565b60058252642ab73232b960d91b6020830152565b60405190613f1a82613901565b60018252603160f81b6020830152565b60405190613f3782613901565b60018252600b60fb1b6020830152565b60405190613f5482613901565b60018252601960f91b6020830152565b604090815191613f738361389a565b600083815b6101408110613f875750505050565b6020908451613f958161387f565b84815284838201526060808783015285818301528060808301528060a083015260c08201528184015201613f78565b6002821015610d025752565b8054821015613b9c5760005260206000200190600090565b8054600160401b811015610dd55761400591600182018155613fd0565b819291549060031b91821b91600019901b1916179055565b63ffffffff8091169081146109075760010190565b600260015414614043576002600155565b604051633ee5aeb560e01b8152600490fd5b906040516140628161387f565b60c0613ec76005839561408a60ff825460018060401b038116885260401c1660208701613fc4565b61409660018201613c00565b604086015263ffffffff60028201541660608601526140b760038201613c00565b60808601526140c860048201613c00565b60a086015201613c00565b60ff1660ff81146109075760010190565b81156140ee570490565b634e487b7160e01b600052601260045260246000fd5b3d1561412f573d9061411582613aff565b91614123604051938461391c565b82523d6000602084013e565b606090565b6000908082526020600f815260ff92604091600385818585200154851c1661415b8161397c565b0361435057838252600c815282822054421061433f578382526013815282822082908390845b600589821610614309575b5050156142f857848352601582528383209580821696878552835284842054166142e757848352600d8252838320546141c491614863565b9182156142c657848152601582528381208682528252838120805460ff191660011790558080808061422461271061421c7f00000000000000000000000000000000000000000000000000000000000000008a613db5565b048098613da8565b967f00000000000000000000000000000000000000000000000000000000000000006001600160a01b03165af1614259614104565b50156142b55780808085335af161426e614104565b50156142a457825194855284015233927f64da964e036dd66a7be792791f60a47ec5378950b9d12795de3f453aa3940eb09190a3565b82516312171d8360e31b8152600490fd5b83516312171d8360e31b8152600490fd5b93845260158152828420948452939093529020805460ff1916600117905550565b835163baf3f0f760e01b8152600490fd5b8351635a26d5fd60e11b8152600490fd5b6143138183613b88565b50546001600160a01b031633146143325761432d906140d3565b614181565b925050506001388061418c565b825163c8b9bc9160e01b8152600490fd5b825163baf3f0f760e01b8152600490fd5b604080519161436f8361389a565b829160005b610140808210156143f15782516020929161438e826138c9565b600082528390600082840152600086840152606060008185015260006080850152600060a0850152600060c08501528060e08501528061010085015261012084015260008651926143de84613901565b8184528301528201528187015201614374565b505050909150565b604051906144068261387f565b8160c0600091828152826020820152826040820152614423613f64565b60608201528260808201528260a08201520152565b9061444282613cda565b61444f604051918261391c565b8281528092614460601f1991613cda565b019060005b82811061447157505050565b60209061447c6143f9565b82828501015201614465565b600454806144a25750600090600090600090600090600090565b9081600052600f602052604060002090604051926144bf8461387f565b8254845260018301549160208501928352600360028501549460408701958652015494606081019363ffffffff918288168652828860201c16608082015260c060ff808a60401c16996145118b61397c565b8a60a085015260481c1615159101526145298761397c565b6145328761397c565b519451935116919493929190565b80158015614607575b6145f257600052600f6020526040600020604051916145678361387f565b81548352600182015460208401908152600360028401549360408601948552015490606085019263ffffffff8084168552808460201c16608088015260ff8460401c16966145b48861397c565b8760a082015260ff60c082019560481c1615158552511515926145d68861397c565b6145df8861397c565b5195519451169251151591959493929190565b50600090600090600090600090600090600090565b506004548111614549565b8015610907576000190190565b9291939060ff809216926007841061485b5760009585875260136020526040872092600019936005805b6147d5575b5060018501614663575b505050505050505050565b600494855b81811161472157506146a8906040519261468184613864565b6001600160a01b039485168452602084019586526040840196875260608401998a52613b88565b95909561470f57505184546001600160a01b031916911617835551600183015551600282015591516003928301805460ff191691909216179055908252600f602052604090912001805460ff60481b1916600160481b179055388080808080808080614658565b634e487b7160e01b8a52899052602489fd5b60001981018181116147c2576147379084613b88565b506147428285613b88565b6147b0579089828261475d959403614762575b505050614612565b614668565b825481546001600160a01b0319166001600160a01b039190911617815560018381015490820155600280840154908201556003928301549201805460ff191691909216179055388981614755565b634e487b7160e01b8d528c895260248dfd5b634e487b7160e01b8c526011885260248cfd5b94600019860190868211614847576147ed8284613b88565b5060028101549089828911928315614822575b50505060001461481b57506148159095614612565b80614649565b955061464e565b891492509082614837575b5050388981614800565b60030154168a119050883861482d565b634e487b7160e01b8b52601160045260248bfd5b505050505050565b60009060ff168061488457505061488061271091610fa090613db5565b0490565b6001810361489e57505061488061271091610bb890613db5565b600281036148b8575050614880612710916107d090613db5565b600381036148d2575050614880612710916101f490613db5565b6004036148ea5750614880612710916101f490613db5565b905090565b8015614a4c5760008181526013602052604080822080546001600160a01b039493929190851615908115614a39575b5061492a575b50505050565b600d602052808220549182614940575b50614924565b6149786127106149707f000000000000000000000000000000000000000000000000000000000000000086613db5565b048094613da8565b92848252600d60205281838120556001850195868611614a25578280928192898352600d6020528683206149ad898254613d9b565b90557f0000000000000000000000000000000000000000000000000000000000000000165af16149db614104565b5015614a15577fd02ee9eafb934e2ffd95384478ef177c9932fd0d6cb1813747b8eefdf55d8b199160209151908152a3388080808061493a565b516312171d8360e31b8152600490fd5b634e487b7160e01b83526011600452602483fd5b60079150600360ff91015416103861491e565b50565b60045481118015614a82575b614a7c576000908152600a60205260409020546001600160401b0316151590565b50600090565b508015614a5b565b614a92614361565b5060045481111580614b4d575b15614b1157600052600a602090808252604060002060405192614ac18461389a565b600091845b848410614af45750508351516001600160401b0316159250614ae89150505790565b50614af1614361565b90565b600683600192614b0385613e23565b815201920193019290614ac6565b60405162461bcd60e51b815260206004820152601460248201527310de58db1948191bd95cc81b9bdd08195e1a5cdd60621b6044820152606490fd5b50801515614a9f56fe9c7b6f99cba4ae2b8837d2a4ff724e1273427755c6f2e43bac3108bccb98b66add45cfbd9f2d20e6b7b6f5fa3148363d48017feae0c98de41ec4435a5aa754468be0079c531659141344cd1fd0a4f28419497f9722a3daafe3b4186f6b6457e0dbc55064e49993e4c979488990287b80a393512ce56bbe0cb3834df880cf97c7a264697066735822122000429ec9ca3afd9b10cc288c3e4e61c486eeec5733bde16926e361ba364d96d464736f6c63430008140033",
  "linkReferences": {},
  "deployedLinkReferences": {}
}