{
  "_format": "hh-sol-artifact-1",
  "contractName": "Oddyssey",
  "sourceName": "contracts/Oddyssey.sol",
  "abi": [
    {
      "inputs": [
        {
          "internalType": "address",
          "name": "_devWallet",
          "type": "address"
        },
        {
          "internalType": "uint256",
          "name": "_initialEntryFee",
          "type": "uint256"
        }
      ],
      "stateMutability": "nonpayable",
      "type": "constructor"
    },
    {
      "inputs": [],
      "name": "BettingClosed",
      "type": "error"
    },
    {
      "inputs": [],
      "name": "BettingNotClosed",
      "type": "error"
    },
    {
      "inputs": [],
      "name": "BettingNotStarted",
      "type": "error"
    },
    {
      "inputs": [],
      "name": "BettingWindowExpired",
      "type": "error"
    },
    {
      "inputs": [],
      "name": "BettingWindowNotReady",
      "type": "error"
    },
    {
      "inputs": [],
      "name": "ClaimingExpired",
      "type": "error"
    },
    {
      "inputs": [],
      "name": "ClaimingNotAvailable",
      "type": "error"
    },
    {
      "inputs": [],
      "name": "ClaimingNotReady",
      "type": "error"
    },
    {
      "inputs": [],
      "name": "CycleAlreadyResolved",
      "type": "error"
    },
    {
      "inputs": [],
      "name": "CycleAlreadyStarted",
      "type": "error"
    },
    {
      "inputs": [],
      "name": "CycleDoesNotExist",
      "type": "error"
    },
    {
      "inputs": [],
      "name": "CycleExpired",
      "type": "error"
    },
    {
      "inputs": [],
      "name": "CycleLimitExceeded",
      "type": "error"
    },
    {
      "inputs": [],
      "name": "CycleNotActive",
      "type": "error"
    },
    {
      "inputs": [],
      "name": "CycleNotEnded",
      "type": "error"
    },
    {
      "inputs": [],
      "name": "CycleNotResolved",
      "type": "error"
    },
    {
      "inputs": [],
      "name": "DataExpired",
      "type": "error"
    },
    {
      "inputs": [],
      "name": "DataIncomplete",
      "type": "error"
    },
    {
      "inputs": [],
      "name": "DataInvalid",
      "type": "error"
    },
    {
      "inputs": [],
      "name": "DataMismatch",
      "type": "error"
    },
    {
      "inputs": [],
      "name": "DataTooLarge",
      "type": "error"
    },
    {
      "inputs": [],
      "name": "DataTooSmall",
      "type": "error"
    },
    {
      "inputs": [],
      "name": "DuplicateMatchId",
      "type": "error"
    },
    {
      "inputs": [],
      "name": "DuplicatePrediction",
      "type": "error"
    },
    {
      "inputs": [],
      "name": "EndTimeBeforeStart",
      "type": "error"
    },
    {
      "inputs": [],
      "name": "EndTimeInvalid",
      "type": "error"
    },
    {
      "inputs": [],
      "name": "ExcessivePayment",
      "type": "error"
    },
    {
      "inputs": [],
      "name": "FeeTooHigh",
      "type": "error"
    },
    {
      "inputs": [],
      "name": "FeeTooLow",
      "type": "error"
    },
    {
      "inputs": [],
      "name": "GasLimitExceeded",
      "type": "error"
    },
    {
      "inputs": [],
      "name": "InsufficientPayment",
      "type": "error"
    },
    {
      "inputs": [],
      "name": "InvalidAddress",
      "type": "error"
    },
    {
      "inputs": [],
      "name": "InvalidBetType",
      "type": "error"
    },
    {
      "inputs": [],
      "name": "InvalidCycleId",
      "type": "error"
    },
    {
      "inputs": [],
      "name": "InvalidDevWallet",
      "type": "error"
    },
    {
      "inputs": [],
      "name": "InvalidFee",
      "type": "error"
    },
    {
      "inputs": [],
      "name": "InvalidMatchData",
      "type": "error"
    },
    {
      "inputs": [],
      "name": "InvalidMatchId",
      "type": "error"
    },
    {
      "inputs": [],
      "name": "InvalidOracleAddress",
      "type": "error"
    },
    {
      "inputs": [],
      "name": "InvalidPredictionCount",
      "type": "error"
    },
    {
      "inputs": [],
      "name": "InvalidPredictionFormat",
      "type": "error"
    },
    {
      "inputs": [],
      "name": "InvalidRank",
      "type": "error"
    },
    {
      "inputs": [],
      "name": "InvalidSelection",
      "type": "error"
    },
    {
      "inputs": [],
      "name": "InvalidStartTime",
      "type": "error"
    },
    {
      "inputs": [],
      "name": "InvalidState",
      "type": "error"
    },
    {
      "inputs": [],
      "name": "LeaderboardFull",
      "type": "error"
    },
    {
      "inputs": [],
      "name": "LeaderboardNotReady",
      "type": "error"
    },
    {
      "inputs": [],
      "name": "MatchAlreadyStarted",
      "type": "error"
    },
    {
      "inputs": [],
      "name": "MatchDataExpired",
      "type": "error"
    },
    {
      "inputs": [],
      "name": "MatchDataIncomplete",
      "type": "error"
    },
    {
      "inputs": [],
      "name": "MatchDataInvalid",
      "type": "error"
    },
    {
      "inputs": [],
      "name": "MatchIdMismatch",
      "type": "error"
    },
    {
      "inputs": [],
      "name": "MatchNotFound",
      "type": "error"
    },
    {
      "inputs": [],
      "name": "MatchNotReady",
      "type": "error"
    },
    {
      "inputs": [],
      "name": "MatchOrderMismatch",
      "type": "error"
    },
    {
      "inputs": [],
      "name": "NotOnLeaderboard",
      "type": "error"
    },
    {
      "inputs": [],
      "name": "NotOracle",
      "type": "error"
    },
    {
      "inputs": [],
      "name": "NotOwner",
      "type": "error"
    },
    {
      "inputs": [],
      "name": "OddsExpired",
      "type": "error"
    },
    {
      "inputs": [],
      "name": "OddsInvalid",
      "type": "error"
    },
    {
      "inputs": [],
      "name": "OddsMismatch",
      "type": "error"
    },
    {
      "inputs": [],
      "name": "OddsNotAvailable",
      "type": "error"
    },
    {
      "inputs": [],
      "name": "OddsNotSet",
      "type": "error"
    },
    {
      "inputs": [],
      "name": "OddsTooHigh",
      "type": "error"
    },
    {
      "inputs": [],
      "name": "OddsTooLow",
      "type": "error"
    },
    {
      "inputs": [
        {
          "internalType": "address",
          "name": "owner",
          "type": "address"
        }
      ],
      "name": "OwnableInvalidOwner",
      "type": "error"
    },
    {
      "inputs": [
        {
          "internalType": "address",
          "name": "account",
          "type": "address"
        }
      ],
      "name": "OwnableUnauthorizedAccount",
      "type": "error"
    },
    {
      "inputs": [],
      "name": "PaymentFailed",
      "type": "error"
    },
    {
      "inputs": [],
      "name": "PaymentRequired",
      "type": "error"
    },
    {
      "inputs": [],
      "name": "PredictionOutOfOrder",
      "type": "error"
    },
    {
      "inputs": [],
      "name": "PrizeAlreadyClaimed",
      "type": "error"
    },
    {
      "inputs": [],
      "name": "PrizeAmountInvalid",
      "type": "error"
    },
    {
      "inputs": [],
      "name": "PrizeExpired",
      "type": "error"
    },
    {
      "inputs": [],
      "name": "PrizeNotAvailable",
      "type": "error"
    },
    {
      "inputs": [],
      "name": "PrizeNotEarned",
      "type": "error"
    },
    {
      "inputs": [],
      "name": "RankNotFound",
      "type": "error"
    },
    {
      "inputs": [],
      "name": "ReentrancyDetected",
      "type": "error"
    },
    {
      "inputs": [],
      "name": "ReentrancyGuardReentrantCall",
      "type": "error"
    },
    {
      "inputs": [],
      "name": "RefundFailed",
      "type": "error"
    },
    {
      "inputs": [],
      "name": "ResultAlreadySet",
      "type": "error"
    },
    {
      "inputs": [],
      "name": "ResultExpired",
      "type": "error"
    },
    {
      "inputs": [],
      "name": "ResultIncomplete",
      "type": "error"
    },
    {
      "inputs": [],
      "name": "ResultInvalid",
      "type": "error"
    },
    {
      "inputs": [],
      "name": "ResultMismatch",
      "type": "error"
    },
    {
      "inputs": [],
      "name": "ResultNotSet",
      "type": "error"
    },
    {
      "inputs": [],
      "name": "SlipAlreadyEvaluated",
      "type": "error"
    },
    {
      "inputs": [],
      "name": "SlipAlreadyPlaced",
      "type": "error"
    },
    {
      "inputs": [],
      "name": "SlipExpired",
      "type": "error"
    },
    {
      "inputs": [],
      "name": "SlipInvalid",
      "type": "error"
    },
    {
      "inputs": [],
      "name": "SlipLimitExceeded",
      "type": "error"
    },
    {
      "inputs": [],
      "name": "SlipNotEvaluated",
      "type": "error"
    },
    {
      "inputs": [],
      "name": "SlipNotFound",
      "type": "error"
    },
    {
      "inputs": [],
      "name": "SlipNotPlaced",
      "type": "error"
    },
    {
      "inputs": [],
      "name": "StartTimeInPast",
      "type": "error"
    },
    {
      "inputs": [],
      "name": "StartTimeTooLate",
      "type": "error"
    },
    {
      "inputs": [],
      "name": "StartTimeTooSoon",
      "type": "error"
    },
    {
      "inputs": [],
      "name": "StateExpired",
      "type": "error"
    },
    {
      "inputs": [],
      "name": "StateMismatch",
      "type": "error"
    },
    {
      "inputs": [],
      "name": "StateNotReady",
      "type": "error"
    },
    {
      "inputs": [],
      "name": "StateTransitionInvalid",
      "type": "error"
    },
    {
      "inputs": [],
      "name": "TimeWindowInvalid",
      "type": "error"
    },
    {
      "inputs": [],
      "name": "TooFewPredictions",
      "type": "error"
    },
    {
      "inputs": [],
      "name": "TooManyCycles",
      "type": "error"
    },
    {
      "inputs": [],
      "name": "TooManyPredictions",
      "type": "error"
    },
    {
      "inputs": [],
      "name": "TransactionExpired",
      "type": "error"
    },
    {
      "inputs": [],
      "name": "TransactionFailed",
      "type": "error"
    },
    {
      "inputs": [],
      "name": "TransactionInvalid",
      "type": "error"
    },
    {
      "inputs": [],
      "name": "TransferFailed",
      "type": "error"
    },
    {
      "inputs": [],
      "name": "Unauthorized",
      "type": "error"
    },
    {
      "anonymous": false,
      "inputs": [
        {
          "indexed": true,
          "internalType": "uint256",
          "name": "cycleId",
          "type": "uint256"
        },
        {
          "indexed": false,
          "internalType": "uint256",
          "name": "prizePool",
          "type": "uint256"
        }
      ],
      "name": "CycleResolved",
      "type": "event"
    },
    {
      "anonymous": false,
      "inputs": [
        {
          "indexed": true,
          "internalType": "uint256",
          "name": "cycleId",
          "type": "uint256"
        },
        {
          "indexed": false,
          "internalType": "uint256",
          "name": "endTime",
          "type": "uint256"
        }
      ],
      "name": "CycleStarted",
      "type": "event"
    },
    {
      "anonymous": false,
      "inputs": [
        {
          "indexed": true,
          "internalType": "uint256",
          "name": "newFee",
          "type": "uint256"
        }
      ],
      "name": "EntryFeeSet",
      "type": "event"
    },
    {
      "anonymous": false,
      "inputs": [
        {
          "indexed": true,
          "internalType": "address",
          "name": "user",
          "type": "address"
        },
        {
          "indexed": false,
          "internalType": "uint256",
          "name": "pointsEarned",
          "type": "uint256"
        },
        {
          "indexed": false,
          "internalType": "uint256",
          "name": "correctPredictions",
          "type": "uint256"
        },
        {
          "indexed": false,
          "internalType": "uint256",
          "name": "totalReputation",
          "type": "uint256"
        }
      ],
      "name": "OddysseyReputationUpdated",
      "type": "event"
    },
    {
      "anonymous": false,
      "inputs": [
        {
          "indexed": true,
          "internalType": "address",
          "name": "newOracle",
          "type": "address"
        }
      ],
      "name": "OracleSet",
      "type": "event"
    },
    {
      "anonymous": false,
      "inputs": [
        {
          "indexed": true,
          "internalType": "address",
          "name": "previousOwner",
          "type": "address"
        },
        {
          "indexed": true,
          "internalType": "address",
          "name": "newOwner",
          "type": "address"
        }
      ],
      "name": "OwnershipTransferred",
      "type": "event"
    },
    {
      "anonymous": false,
      "inputs": [
        {
          "indexed": true,
          "internalType": "uint256",
          "name": "cycleId",
          "type": "uint256"
        },
        {
          "indexed": true,
          "internalType": "address",
          "name": "player",
          "type": "address"
        },
        {
          "indexed": false,
          "internalType": "uint256",
          "name": "rank",
          "type": "uint256"
        },
        {
          "indexed": false,
          "internalType": "uint256",
          "name": "amount",
          "type": "uint256"
        }
      ],
      "name": "PrizeClaimed",
      "type": "event"
    },
    {
      "anonymous": false,
      "inputs": [
        {
          "indexed": true,
          "internalType": "uint256",
          "name": "fromCycleId",
          "type": "uint256"
        },
        {
          "indexed": true,
          "internalType": "uint256",
          "name": "toCycleId",
          "type": "uint256"
        },
        {
          "indexed": false,
          "internalType": "uint256",
          "name": "amount",
          "type": "uint256"
        }
      ],
      "name": "PrizeRollover",
      "type": "event"
    },
    {
      "anonymous": false,
      "inputs": [
        {
          "indexed": true,
          "internalType": "uint256",
          "name": "cycleId",
          "type": "uint256"
        },
        {
          "indexed": true,
          "internalType": "address",
          "name": "player",
          "type": "address"
        },
        {
          "indexed": true,
          "internalType": "uint256",
          "name": "slipId",
          "type": "uint256"
        }
      ],
      "name": "SlipPlaced",
      "type": "event"
    },
    {
      "anonymous": false,
      "inputs": [
        {
          "indexed": true,
          "internalType": "address",
          "name": "user",
          "type": "address"
        },
        {
          "indexed": false,
          "internalType": "uint256",
          "name": "totalSlips",
          "type": "uint256"
        },
        {
          "indexed": false,
          "internalType": "uint256",
          "name": "totalWins",
          "type": "uint256"
        },
        {
          "indexed": false,
          "internalType": "uint256",
          "name": "bestScore",
          "type": "uint256"
        },
        {
          "indexed": false,
          "internalType": "uint256",
          "name": "winRate",
          "type": "uint256"
        }
      ],
      "name": "UserStatsUpdated",
      "type": "event"
    },
    {
      "inputs": [],
      "name": "DAILY_LEADERBOARD_SIZE",
      "outputs": [
        {
          "internalType": "uint256",
          "name": "",
          "type": "uint256"
        }
      ],
      "stateMutability": "view",
      "type": "function"
    },
    {
      "inputs": [],
      "name": "DEV_FEE_PERCENTAGE",
      "outputs": [
        {
          "internalType": "uint256",
          "name": "",
          "type": "uint256"
        }
      ],
      "stateMutability": "view",
      "type": "function"
    },
    {
      "inputs": [],
      "name": "MATCH_COUNT",
      "outputs": [
        {
          "internalType": "uint256",
          "name": "",
          "type": "uint256"
        }
      ],
      "stateMutability": "view",
      "type": "function"
    },
    {
      "inputs": [],
      "name": "MAX_CYCLES_TO_RESOLVE",
      "outputs": [
        {
          "internalType": "uint256",
          "name": "",
          "type": "uint256"
        }
      ],
      "stateMutability": "view",
      "type": "function"
    },
    {
      "inputs": [],
      "name": "MIN_CORRECT_PREDICTIONS",
      "outputs": [
        {
          "internalType": "uint256",
          "name": "",
          "type": "uint256"
        }
      ],
      "stateMutability": "view",
      "type": "function"
    },
    {
      "inputs": [],
      "name": "ODDS_SCALING_FACTOR",
      "outputs": [
        {
          "internalType": "uint256",
          "name": "",
          "type": "uint256"
        }
      ],
      "stateMutability": "view",
      "type": "function"
    },
    {
      "inputs": [],
      "name": "PRIZE_ROLLOVER_FEE_PERCENTAGE",
      "outputs": [
        {
          "internalType": "uint256",
          "name": "",
          "type": "uint256"
        }
      ],
      "stateMutability": "view",
      "type": "function"
    },
    {
      "inputs": [
        {
          "internalType": "uint256[]",
          "name": "_cycleIds",
          "type": "uint256[]"
        }
      ],
      "name": "claimMultiplePrizes",
      "outputs": [],
      "stateMutability": "nonpayable",
      "type": "function"
    },
    {
      "inputs": [
        {
          "internalType": "uint256",
          "name": "_cycleId",
          "type": "uint256"
        }
      ],
      "name": "claimPrize",
      "outputs": [],
      "stateMutability": "nonpayable",
      "type": "function"
    },
    {
      "inputs": [
        {
          "internalType": "uint256",
          "name": "",
          "type": "uint256"
        }
      ],
      "name": "claimableStartTimes",
      "outputs": [
        {
          "internalType": "uint256",
          "name": "",
          "type": "uint256"
        }
      ],
      "stateMutability": "view",
      "type": "function"
    },
    {
      "inputs": [
        {
          "internalType": "uint256",
          "name": "",
          "type": "uint256"
        }
      ],
      "name": "cycleInfo",
      "outputs": [
        {
          "internalType": "uint256",
          "name": "startTime",
          "type": "uint256"
        },
        {
          "internalType": "uint256",
          "name": "endTime",
          "type": "uint256"
        },
        {
          "internalType": "uint256",
          "name": "prizePool",
          "type": "uint256"
        },
        {
          "internalType": "uint32",
          "name": "slipCount",
          "type": "uint32"
        },
        {
          "internalType": "uint32",
          "name": "evaluatedSlips",
          "type": "uint32"
        },
        {
          "internalType": "enum Oddyssey.CycleState",
          "name": "state",
          "type": "uint8"
        },
        {
          "internalType": "bool",
          "name": "hasWinner",
          "type": "bool"
        }
      ],
      "stateMutability": "view",
      "type": "function"
    },
    {
      "inputs": [
        {
          "internalType": "uint256",
          "name": "",
          "type": "uint256"
        }
      ],
      "name": "cycleStats",
      "outputs": [
        {
          "internalType": "uint256",
          "name": "volume",
          "type": "uint256"
        },
        {
          "internalType": "uint32",
          "name": "slips",
          "type": "uint32"
        },
        {
          "internalType": "uint32",
          "name": "evaluatedSlips",
          "type": "uint32"
        }
      ],
      "stateMutability": "view",
      "type": "function"
    },
    {
      "inputs": [
        {
          "internalType": "uint256",
          "name": "",
          "type": "uint256"
        }
      ],
      "name": "dailyCycleEndTimes",
      "outputs": [
        {
          "internalType": "uint256",
          "name": "",
          "type": "uint256"
        }
      ],
      "stateMutability": "view",
      "type": "function"
    },
    {
      "inputs": [],
      "name": "dailyCycleId",
      "outputs": [
        {
          "internalType": "uint256",
          "name": "",
          "type": "uint256"
        }
      ],
      "stateMutability": "view",
      "type": "function"
    },
    {
      "inputs": [
        {
          "internalType": "uint256",
          "name": "",
          "type": "uint256"
        },
        {
          "internalType": "uint256",
          "name": "",
          "type": "uint256"
        }
      ],
      "name": "dailyLeaderboards",
      "outputs": [
        {
          "internalType": "address",
          "name": "player",
          "type": "address"
        },
        {
          "internalType": "uint256",
          "name": "slipId",
          "type": "uint256"
        },
        {
          "internalType": "uint256",
          "name": "finalScore",
          "type": "uint256"
        },
        {
          "internalType": "uint8",
          "name": "correctCount",
          "type": "uint8"
        }
      ],
      "stateMutability": "view",
      "type": "function"
    },
    {
      "inputs": [
        {
          "internalType": "uint256",
          "name": "",
          "type": "uint256"
        },
        {
          "internalType": "uint256",
          "name": "",
          "type": "uint256"
        }
      ],
      "name": "dailyMatches",
      "outputs": [
        {
          "internalType": "uint64",
          "name": "id",
          "type": "uint64"
        },
        {
          "internalType": "uint64",
          "name": "startTime",
          "type": "uint64"
        },
        {
          "internalType": "uint32",
          "name": "oddsHome",
          "type": "uint32"
        },
        {
          "internalType": "uint32",
          "name": "oddsDraw",
          "type": "uint32"
        },
        {
          "internalType": "uint32",
          "name": "oddsAway",
          "type": "uint32"
        },
        {
          "internalType": "uint32",
          "name": "oddsOver",
          "type": "uint32"
        },
        {
          "internalType": "uint32",
          "name": "oddsUnder",
          "type": "uint32"
        },
        {
          "components": [
            {
              "internalType": "enum Oddyssey.MoneylineResult",
              "name": "moneyline",
              "type": "uint8"
            },
            {
              "internalType": "enum Oddyssey.OverUnderResult",
              "name": "overUnder",
              "type": "uint8"
            }
          ],
          "internalType": "struct Oddyssey.Result",
          "name": "result",
          "type": "tuple"
        }
      ],
      "stateMutability": "view",
      "type": "function"
    },
    {
      "inputs": [
        {
          "internalType": "uint256",
          "name": "",
          "type": "uint256"
        }
      ],
      "name": "dailyPrizePools",
      "outputs": [
        {
          "internalType": "uint256",
          "name": "",
          "type": "uint256"
        }
      ],
      "stateMutability": "view",
      "type": "function"
    },
    {
      "inputs": [],
      "name": "devWallet",
      "outputs": [
        {
          "internalType": "address",
          "name": "",
          "type": "address"
        }
      ],
      "stateMutability": "view",
      "type": "function"
    },
    {
      "inputs": [],
      "name": "entryFee",
      "outputs": [
        {
          "internalType": "uint256",
          "name": "",
          "type": "uint256"
        }
      ],
      "stateMutability": "view",
      "type": "function"
    },
    {
      "inputs": [
        {
          "internalType": "uint256[]",
          "name": "_slipIds",
          "type": "uint256[]"
        }
      ],
      "name": "evaluateMultipleSlips",
      "outputs": [],
      "stateMutability": "nonpayable",
      "type": "function"
    },
    {
      "inputs": [
        {
          "internalType": "uint256",
          "name": "_slipId",
          "type": "uint256"
        }
      ],
      "name": "evaluateSlip",
      "outputs": [],
      "stateMutability": "nonpayable",
      "type": "function"
    },
    {
      "inputs": [],
      "name": "getCurrentCycle",
      "outputs": [
        {
          "internalType": "uint256",
          "name": "",
          "type": "uint256"
        }
      ],
      "stateMutability": "view",
      "type": "function"
    },
    {
      "inputs": [],
      "name": "getCurrentCycleInfo",
      "outputs": [
        {
          "internalType": "uint256",
          "name": "cycleId",
          "type": "uint256"
        },
        {
          "internalType": "uint8",
          "name": "state",
          "type": "uint8"
        },
        {
          "internalType": "uint256",
          "name": "endTime",
          "type": "uint256"
        },
        {
          "internalType": "uint256",
          "name": "prizePool",
          "type": "uint256"
        },
        {
          "internalType": "uint32",
          "name": "cycleSlipCount",
          "type": "uint32"
        }
      ],
      "stateMutability": "view",
      "type": "function"
    },
    {
      "inputs": [
        {
          "internalType": "uint256",
          "name": "_cycleId",
          "type": "uint256"
        }
      ],
      "name": "getCycleMatches",
      "outputs": [
        {
          "components": [
            {
              "internalType": "uint64",
              "name": "id",
              "type": "uint64"
            },
            {
              "internalType": "uint64",
              "name": "startTime",
              "type": "uint64"
            },
            {
              "internalType": "uint32",
              "name": "oddsHome",
              "type": "uint32"
            },
            {
              "internalType": "uint32",
              "name": "oddsDraw",
              "type": "uint32"
            },
            {
              "internalType": "uint32",
              "name": "oddsAway",
              "type": "uint32"
            },
            {
              "internalType": "uint32",
              "name": "oddsOver",
              "type": "uint32"
            },
            {
              "internalType": "uint32",
              "name": "oddsUnder",
              "type": "uint32"
            },
            {
              "components": [
                {
                  "internalType": "enum Oddyssey.MoneylineResult",
                  "name": "moneyline",
                  "type": "uint8"
                },
                {
                  "internalType": "enum Oddyssey.OverUnderResult",
                  "name": "overUnder",
                  "type": "uint8"
                }
              ],
              "internalType": "struct Oddyssey.Result",
              "name": "result",
              "type": "tuple"
            }
          ],
          "internalType": "struct Oddyssey.Match[10]",
          "name": "",
          "type": "tuple[10]"
        }
      ],
      "stateMutability": "view",
      "type": "function"
    },
    {
      "inputs": [
        {
          "internalType": "uint256",
          "name": "_cycleId",
          "type": "uint256"
        }
      ],
      "name": "getCycleStatus",
      "outputs": [
        {
          "internalType": "bool",
          "name": "exists",
          "type": "bool"
        },
        {
          "internalType": "uint8",
          "name": "state",
          "type": "uint8"
        },
        {
          "internalType": "uint256",
          "name": "endTime",
          "type": "uint256"
        },
        {
          "internalType": "uint256",
          "name": "prizePool",
          "type": "uint256"
        },
        {
          "internalType": "uint32",
          "name": "cycleSlipCount",
          "type": "uint32"
        },
        {
          "internalType": "bool",
          "name": "hasWinner",
          "type": "bool"
        }
      ],
      "stateMutability": "view",
      "type": "function"
    },
    {
      "inputs": [
        {
          "internalType": "uint256",
          "name": "_cycleId",
          "type": "uint256"
        }
      ],
      "name": "getDailyLeaderboard",
      "outputs": [
        {
          "components": [
            {
              "internalType": "address",
              "name": "player",
              "type": "address"
            },
            {
              "internalType": "uint256",
              "name": "slipId",
              "type": "uint256"
            },
            {
              "internalType": "uint256",
              "name": "finalScore",
              "type": "uint256"
            },
            {
              "internalType": "uint8",
              "name": "correctCount",
              "type": "uint8"
            }
          ],
          "internalType": "struct Oddyssey.LeaderboardEntry[5]",
          "name": "",
          "type": "tuple[5]"
        }
      ],
      "stateMutability": "view",
      "type": "function"
    },
    {
      "inputs": [
        {
          "internalType": "uint256",
          "name": "_cycleId",
          "type": "uint256"
        }
      ],
      "name": "getDailyMatches",
      "outputs": [
        {
          "components": [
            {
              "internalType": "uint64",
              "name": "id",
              "type": "uint64"
            },
            {
              "internalType": "uint64",
              "name": "startTime",
              "type": "uint64"
            },
            {
              "internalType": "uint32",
              "name": "oddsHome",
              "type": "uint32"
            },
            {
              "internalType": "uint32",
              "name": "oddsDraw",
              "type": "uint32"
            },
            {
              "internalType": "uint32",
              "name": "oddsAway",
              "type": "uint32"
            },
            {
              "internalType": "uint32",
              "name": "oddsOver",
              "type": "uint32"
            },
            {
              "internalType": "uint32",
              "name": "oddsUnder",
              "type": "uint32"
            },
            {
              "components": [
                {
                  "internalType": "enum Oddyssey.MoneylineResult",
                  "name": "moneyline",
                  "type": "uint8"
                },
                {
                  "internalType": "enum Oddyssey.OverUnderResult",
                  "name": "overUnder",
                  "type": "uint8"
                }
              ],
              "internalType": "struct Oddyssey.Result",
              "name": "result",
              "type": "tuple"
            }
          ],
          "internalType": "struct Oddyssey.Match[10]",
          "name": "",
          "type": "tuple[10]"
        }
      ],
      "stateMutability": "view",
      "type": "function"
    },
    {
      "inputs": [
        {
          "internalType": "address",
          "name": "_user",
          "type": "address"
        }
      ],
      "name": "getOddysseyReputation",
      "outputs": [
        {
          "internalType": "uint256",
          "name": "totalReputation",
          "type": "uint256"
        },
        {
          "internalType": "uint256",
          "name": "totalCorrectPredictions",
          "type": "uint256"
        }
      ],
      "stateMutability": "view",
      "type": "function"
    },
    {
      "inputs": [
        {
          "internalType": "uint256",
          "name": "_slipId",
          "type": "uint256"
        }
      ],
      "name": "getSlip",
      "outputs": [
        {
          "components": [
            {
              "internalType": "address",
              "name": "player",
              "type": "address"
            },
            {
              "internalType": "uint256",
              "name": "cycleId",
              "type": "uint256"
            },
            {
              "internalType": "uint256",
              "name": "placedAt",
              "type": "uint256"
            },
            {
              "components": [
                {
                  "internalType": "uint64",
                  "name": "matchId",
                  "type": "uint64"
                },
                {
                  "internalType": "enum Oddyssey.BetType",
                  "name": "betType",
                  "type": "uint8"
                },
                {
                  "internalType": "bytes32",
                  "name": "selection",
                  "type": "bytes32"
                },
                {
                  "internalType": "uint32",
                  "name": "selectedOdd",
                  "type": "uint32"
                }
              ],
              "internalType": "struct Oddyssey.UserPrediction[10]",
              "name": "predictions",
              "type": "tuple[10]"
            },
            {
              "internalType": "uint256",
              "name": "finalScore",
              "type": "uint256"
            },
            {
              "internalType": "uint8",
              "name": "correctCount",
              "type": "uint8"
            },
            {
              "internalType": "bool",
              "name": "isEvaluated",
              "type": "bool"
            }
          ],
          "internalType": "struct Oddyssey.Slip",
          "name": "",
          "type": "tuple"
        }
      ],
      "stateMutability": "view",
      "type": "function"
    },
    {
      "inputs": [
        {
          "internalType": "address",
          "name": "_user",
          "type": "address"
        },
        {
          "internalType": "uint256",
          "name": "_cycleId",
          "type": "uint256"
        }
      ],
      "name": "getUserSlipsForCycle",
      "outputs": [
        {
          "internalType": "uint256[]",
          "name": "",
          "type": "uint256[]"
        }
      ],
      "stateMutability": "view",
      "type": "function"
    },
    {
      "inputs": [
        {
          "internalType": "address",
          "name": "_user",
          "type": "address"
        }
      ],
      "name": "getUserStats",
      "outputs": [
        {
          "internalType": "uint256",
          "name": "totalSlips",
          "type": "uint256"
        },
        {
          "internalType": "uint256",
          "name": "totalWins",
          "type": "uint256"
        },
        {
          "internalType": "uint256",
          "name": "bestScore",
          "type": "uint256"
        },
        {
          "internalType": "uint256",
          "name": "averageScore",
          "type": "uint256"
        },
        {
          "internalType": "uint256",
          "name": "winRate",
          "type": "uint256"
        },
        {
          "internalType": "uint256",
          "name": "currentStreak",
          "type": "uint256"
        },
        {
          "internalType": "uint256",
          "name": "bestStreak",
          "type": "uint256"
        },
        {
          "internalType": "uint256",
          "name": "lastActiveCycle",
          "type": "uint256"
        }
      ],
      "stateMutability": "view",
      "type": "function"
    },
    {
      "inputs": [
        {
          "internalType": "address",
          "name": "_user",
          "type": "address"
        }
      ],
      "name": "getUserStatsWithReputation",
      "outputs": [
        {
          "internalType": "uint256",
          "name": "totalSlips",
          "type": "uint256"
        },
        {
          "internalType": "uint256",
          "name": "totalWins",
          "type": "uint256"
        },
        {
          "internalType": "uint256",
          "name": "bestScore",
          "type": "uint256"
        },
        {
          "internalType": "uint256",
          "name": "averageScore",
          "type": "uint256"
        },
        {
          "internalType": "uint256",
          "name": "winRate",
          "type": "uint256"
        },
        {
          "internalType": "uint256",
          "name": "currentStreak",
          "type": "uint256"
        },
        {
          "internalType": "uint256",
          "name": "bestStreak",
          "type": "uint256"
        },
        {
          "internalType": "uint256",
          "name": "lastActiveCycle",
          "type": "uint256"
        },
        {
          "internalType": "uint256",
          "name": "totalReputation",
          "type": "uint256"
        },
        {
          "internalType": "uint256",
          "name": "totalCorrectPredictions",
          "type": "uint256"
        }
      ],
      "stateMutability": "view",
      "type": "function"
    },
    {
      "inputs": [
        {
          "internalType": "uint256",
          "name": "_cycleId",
          "type": "uint256"
        }
      ],
      "name": "isCycleInitialized",
      "outputs": [
        {
          "internalType": "bool",
          "name": "",
          "type": "bool"
        }
      ],
      "stateMutability": "view",
      "type": "function"
    },
    {
      "inputs": [
        {
          "internalType": "uint256",
          "name": "",
          "type": "uint256"
        }
      ],
      "name": "isCycleResolved",
      "outputs": [
        {
          "internalType": "bool",
          "name": "",
          "type": "bool"
        }
      ],
      "stateMutability": "view",
      "type": "function"
    },
    {
      "inputs": [],
      "name": "oracle",
      "outputs": [
        {
          "internalType": "address",
          "name": "",
          "type": "address"
        }
      ],
      "stateMutability": "view",
      "type": "function"
    },
    {
      "inputs": [],
      "name": "owner",
      "outputs": [
        {
          "internalType": "address",
          "name": "",
          "type": "address"
        }
      ],
      "stateMutability": "view",
      "type": "function"
    },
    {
      "inputs": [
        {
          "components": [
            {
              "internalType": "uint64",
              "name": "matchId",
              "type": "uint64"
            },
            {
              "internalType": "enum Oddyssey.BetType",
              "name": "betType",
              "type": "uint8"
            },
            {
              "internalType": "bytes32",
              "name": "selection",
              "type": "bytes32"
            },
            {
              "internalType": "uint32",
              "name": "selectedOdd",
              "type": "uint32"
            }
          ],
          "internalType": "struct Oddyssey.UserPrediction[10]",
          "name": "_predictions",
          "type": "tuple[10]"
        }
      ],
      "name": "placeSlip",
      "outputs": [],
      "stateMutability": "payable",
      "type": "function"
    },
    {
      "inputs": [
        {
          "internalType": "uint256",
          "name": "",
          "type": "uint256"
        },
        {
          "internalType": "uint8",
          "name": "",
          "type": "uint8"
        }
      ],
      "name": "prizeClaimed",
      "outputs": [
        {
          "internalType": "bool",
          "name": "",
          "type": "bool"
        }
      ],
      "stateMutability": "view",
      "type": "function"
    },
    {
      "inputs": [],
      "name": "renounceOwnership",
      "outputs": [],
      "stateMutability": "nonpayable",
      "type": "function"
    },
    {
      "inputs": [
        {
          "internalType": "uint256",
          "name": "_cycleId",
          "type": "uint256"
        },
        {
          "components": [
            {
              "internalType": "enum Oddyssey.MoneylineResult",
              "name": "moneyline",
              "type": "uint8"
            },
            {
              "internalType": "enum Oddyssey.OverUnderResult",
              "name": "overUnder",
              "type": "uint8"
            }
          ],
          "internalType": "struct Oddyssey.Result[10]",
          "name": "_results",
          "type": "tuple[10]"
        }
      ],
      "name": "resolveDailyCycle",
      "outputs": [],
      "stateMutability": "nonpayable",
      "type": "function"
    },
    {
      "inputs": [
        {
          "internalType": "uint256[]",
          "name": "_cycleIds",
          "type": "uint256[]"
        },
        {
          "components": [
            {
              "internalType": "enum Oddyssey.MoneylineResult",
              "name": "moneyline",
              "type": "uint8"
            },
            {
              "internalType": "enum Oddyssey.OverUnderResult",
              "name": "overUnder",
              "type": "uint8"
            }
          ],
          "internalType": "struct Oddyssey.Result[10][]",
          "name": "_results",
          "type": "tuple[10][]"
        }
      ],
      "name": "resolveMultipleCycles",
      "outputs": [],
      "stateMutability": "nonpayable",
      "type": "function"
    },
    {
      "inputs": [
        {
          "internalType": "uint256",
          "name": "_newFee",
          "type": "uint256"
        }
      ],
      "name": "setEntryFee",
      "outputs": [],
      "stateMutability": "nonpayable",
      "type": "function"
    },
    {
      "inputs": [
        {
          "internalType": "address",
          "name": "_newOracle",
          "type": "address"
        }
      ],
      "name": "setOracle",
      "outputs": [],
      "stateMutability": "nonpayable",
      "type": "function"
    },
    {
      "inputs": [],
      "name": "slipCount",
      "outputs": [
        {
          "internalType": "uint256",
          "name": "",
          "type": "uint256"
        }
      ],
      "stateMutability": "view",
      "type": "function"
    },
    {
      "inputs": [
        {
          "internalType": "uint256",
          "name": "",
          "type": "uint256"
        }
      ],
      "name": "slips",
      "outputs": [
        {
          "internalType": "address",
          "name": "player",
          "type": "address"
        },
        {
          "internalType": "uint256",
          "name": "cycleId",
          "type": "uint256"
        },
        {
          "internalType": "uint256",
          "name": "placedAt",
          "type": "uint256"
        },
        {
          "internalType": "uint256",
          "name": "finalScore",
          "type": "uint256"
        },
        {
          "internalType": "uint8",
          "name": "correctCount",
          "type": "uint8"
        },
        {
          "internalType": "bool",
          "name": "isEvaluated",
          "type": "bool"
        }
      ],
      "stateMutability": "view",
      "type": "function"
    },
    {
      "inputs": [
        {
          "components": [
            {
              "internalType": "uint64",
              "name": "id",
              "type": "uint64"
            },
            {
              "internalType": "uint64",
              "name": "startTime",
              "type": "uint64"
            },
            {
              "internalType": "uint32",
              "name": "oddsHome",
              "type": "uint32"
            },
            {
              "internalType": "uint32",
              "name": "oddsDraw",
              "type": "uint32"
            },
            {
              "internalType": "uint32",
              "name": "oddsAway",
              "type": "uint32"
            },
            {
              "internalType": "uint32",
              "name": "oddsOver",
              "type": "uint32"
            },
            {
              "internalType": "uint32",
              "name": "oddsUnder",
              "type": "uint32"
            },
            {
              "components": [
                {
                  "internalType": "enum Oddyssey.MoneylineResult",
                  "name": "moneyline",
                  "type": "uint8"
                },
                {
                  "internalType": "enum Oddyssey.OverUnderResult",
                  "name": "overUnder",
                  "type": "uint8"
                }
              ],
              "internalType": "struct Oddyssey.Result",
              "name": "result",
              "type": "tuple"
            }
          ],
          "internalType": "struct Oddyssey.Match[10]",
          "name": "_matches",
          "type": "tuple[10]"
        }
      ],
      "name": "startDailyCycle",
      "outputs": [],
      "stateMutability": "nonpayable",
      "type": "function"
    },
    {
      "inputs": [],
      "name": "stats",
      "outputs": [
        {
          "internalType": "uint256",
          "name": "totalVolume",
          "type": "uint256"
        },
        {
          "internalType": "uint32",
          "name": "totalSlips",
          "type": "uint32"
        },
        {
          "internalType": "uint256",
          "name": "highestOdd",
          "type": "uint256"
        }
      ],
      "stateMutability": "view",
      "type": "function"
    },
    {
      "inputs": [
        {
          "internalType": "address",
          "name": "newOwner",
          "type": "address"
        }
      ],
      "name": "transferOwnership",
      "outputs": [],
      "stateMutability": "nonpayable",
      "type": "function"
    },
    {
      "inputs": [
        {
          "internalType": "address",
          "name": "",
          "type": "address"
        }
      ],
      "name": "userOddysseyCorrectPredictions",
      "outputs": [
        {
          "internalType": "uint256",
          "name": "",
          "type": "uint256"
        }
      ],
      "stateMutability": "view",
      "type": "function"
    },
    {
      "inputs": [
        {
          "internalType": "address",
          "name": "",
          "type": "address"
        }
      ],
      "name": "userOddysseyReputation",
      "outputs": [
        {
          "internalType": "uint256",
          "name": "",
          "type": "uint256"
        }
      ],
      "stateMutability": "view",
      "type": "function"
    },
    {
      "inputs": [
        {
          "internalType": "address",
          "name": "",
          "type": "address"
        }
      ],
      "name": "userStats",
      "outputs": [
        {
          "internalType": "uint256",
          "name": "totalSlips",
          "type": "uint256"
        },
        {
          "internalType": "uint256",
          "name": "totalWins",
          "type": "uint256"
        },
        {
          "internalType": "uint256",
          "name": "bestScore",
          "type": "uint256"
        },
        {
          "internalType": "uint256",
          "name": "averageScore",
          "type": "uint256"
        },
        {
          "internalType": "uint256",
          "name": "winRate",
          "type": "uint256"
        },
        {
          "internalType": "uint256",
          "name": "currentStreak",
          "type": "uint256"
        },
        {
          "internalType": "uint256",
          "name": "bestStreak",
          "type": "uint256"
        },
        {
          "internalType": "uint256",
          "name": "lastActiveCycle",
          "type": "uint256"
        }
      ],
      "stateMutability": "view",
      "type": "function"
    }
  ],
  "bytecode": "0x60e0346200015b5762003b2e90601f38839003908101601f19168201906001600160401b038211838310176200016057808391604095869485528339810103126200015b5780516001600160a01b03808216929091908382036200015b576020015191331562000143576000549360018060a01b03199433868216176000558651923391167f8be0079c531659141344cd1fd0a4f28419497f9722a3daafe3b4186f6b6457e0600080a360018055156200013457506706f05b59d3b200008203620001235760c052600355339060025416176002556101f48060805260a052516139b79081620001778239608051818181610ae6015261307a015260a051818181610ba70152613759015260c051818181610d52015281816130aa01526137bf0152f35b83516358d620b360e01b8152600490fd5b63ef241aef60e01b8152600490fd5b8451631e4fbdf760e01b815260006004820152602490fd5b600080fd5b634e487b7160e01b600052604160045260246000fdfe6080604052600436101561001257600080fd5b60003560e01c806302c009ef146122d1578063042db2e61461072d57806305b61d11146122b3578063072ea61c146122955780630832275e1461216957806314bd96441461214d57806317ee395b146121025780632012ef0314611ed1578063201a013b146119b0578063210d5f5f146119855780632ac5df9314611959578063361a9792146118e95780633e03d4c11461183d57806344dac5551461126857806344f79609146111e75780634c3b1939146111a35780634e43603a14610daa5780634f4bc86e146111695780635052617d1461114d578063590d0f9914611130578063625d9ce5146111145780636977f546146110ec578063715018a61461109357806373d2257314610fd0578063745be57614610fa45780637adbf97314610f1d5780637dc0d1d014610ef45780637e12170d14610eab5780638366021714610e435780638a65d87414610daa5780638da5cb5b14610d815780638ea5220f14610d3c578063904502e114610cf55780639ad7884c14610ca15780639bea95ac14610c70578063a1ce7ecb14610bca578063a4957efe14610b8f578063af9b2bfb14610b09578063b0dbf47d14610ace578063ba1487ad1461074b578063be26ed7f1461072d578063c503b25114610689578063c56a00de14610616578063c6b68508146105dc578063c81b986c146103f8578063d7098154146103ce578063d80528ae14610399578063e734e60c1461036d578063eb770d0c146102fc578063f2fde38b1461026e5763fbb0de531461024d57600080fd5b3461026957600036600319011261026957602060405160078152f35b600080fd5b3461026957602036600319011261026957610287612bf0565b61028f612d03565b6001600160a01b039081169081156102e357600054826bffffffffffffffffffffffff60a01b821617600055167f8be0079c531659141344cd1fd0a4f28419497f9722a3daafe3b4186f6b6457e0600080a3005b604051631e4fbdf760e01b815260006004820152602490fd5b3461026957602036600319011261026957600435610318612d03565b6706f05b59d3b20000810361035b57600354811461035b57806003557f565a4bfd76b3419546eefb0f3228d436837362a9b57e0c3a03227225dfec023d600080a2005b6040516358d620b360e01b8152600490fd5b3461026957602036600319011261026957600435600052600b6020526020604060002054604051908152f35b3461026957600036600319011261026957606060145463ffffffff601554166016549060405192835260208301526040820152f35b34610269576020366003190112610269576103e7612ed5565b6103f2600435612fb7565b60018055005b346102695760203660031901126102695760405161041581612a41565b60008152600060208201526000604082015260405161043381612a6f565b60005b61014081106105c757600060c0848460608201528260808201528260a08201520152600435600052600f60205260406000206040519061047582612a41565b80546001600160a01b03168252600181015460208301526002810154604080840191909152516104a481612a6f565b6003828101906000835b600a82106105aa578660ff60228888606085015260218101546080850152015481811660a084015260081c16151560c082015260405160018060a01b03825116815260208201516020820152604082015160408201526060820151606082016000905b600a8210610545576105c08460c087608081015161056084015260ff60a082015116610580840152015115156105a0820152f35b82516001600160401b03815116825260208101516002811015610594578263ffffffff606060209460809486600198015260408101516040850152015116606082015201930191019091610511565b634e487b7160e01b600052602160045260246000fd5b8260206001926105b987612ef8565b8152019401910190926104ae565b6020906105d2613263565b8184015201610436565b34610269576020366003190112610269576001600160a01b036105fd612bf0565b1660005260076020526020604060002054604051908152f35b3461026957602080600319360112610269576106306131e4565b50600435600052600981526040600020906040519061064e82612a6f565b6000825b600a821061066c57604051806106688682612b55565b0390f35b60038360019261067b88612d9d565b815201950191019093610652565b34610269576020366003190112610269576004356001600160401b038111610269576106b9903690600401612ca5565b60005b815181101561072b576106cf8183612d89565b5190303b1561026957604051916335c2605560e21b8352600483015260008260248183305af191821561071f5761070b92610710575b50612d2f565b6106bc565b61071990612a5c565b83610705565b6040513d6000823e3d90fd5b005b34610269576000366003190112610269576020600454604051908152f35b34610269576040366003190112610269576001600160401b036004358181116102695761077c903690600401612ca5565b602480359283116102695736602384011215610269578260040135906107a182612c8e565b916107af6040519384612aa6565b8083526020948584018361028080940283010191368311610269578401905b828210610a69575050600280546001600160a01b03935090915082163303610a33578451845103610a57576032855111610a455760005b855181101561072b576108188187612d89565b516108238287612d89565b51848454163303610a335781158015610a28575b610a165781600052600e808a5260406000205415610a0457826000528952604060002090600390818301928260ff855460401c1661087481612b29565b146109f257600101544211156109e05760005b600a811061095c575050815468ff00000000000000001916600360401b17825550600082815260128a5260409020805460ff191660011790555463ffffffff1661092157908161091c92600052600b8952426040600020555b80600052600c89527fdd45cfbd9f2d20e6b7b6f5fa3148363d48017feae0c98de41ec4435a5aa7544689604060002054604051908152a2612d2f565b610805565b620151804201804211610947579061091c929181600052600b8a526040600020556108e0565b85634e487b7160e01b60005260116004526000fd5b6109668183612d3e565b518560005260098d528c8861097f846040600020612c46565b50019180519161098e83612b29565b61099783612b29565b8354910151868110156109cb579060ff61ff006109c69695949360081b1692169061ffff191617179055612d2f565b610887565b8c634e487b7160e01b60005260216004526000fd5b6040516312d655ab60e21b8152600490fd5b604051633778bbe160e11b8152600490fd5b604051635efb56a560e01b8152600490fd5b6040516308dd7fd960e11b8152600490fd5b506004548211610837565b604051631bc2178f60e01b8152600490fd5b604051632061c47f60e11b8152600490fd5b604051635651f66960e11b8152600490fd5b36601f8301121561026957604051610a8081612a6f565b8285018136821161026957918693918b9386905b828210610aa9575050508152019101906107ce565b604092949650610abd959193953685612ac7565b8152019101918794928c9492610a94565b346102695760003660031901126102695760206040517f00000000000000000000000000000000000000000000000000000000000000008152f35b34610269576020366003190112610269576004356001600160401b03811161026957610b39903690600401612ca5565b60005b815181101561072b57610b4f8183612d89565b5190303b1561026957604051916302c009ef60e01b8352600483015260008260248183305af191821561071f57610b8a926107105750612d2f565b610b3c565b346102695760003660031901126102695760206040517f00000000000000000000000000000000000000000000000000000000000000008152f35b3461026957610bd836612c06565b9060005260096020526040600020600a8210156102695761012091610bfc91612c46565b50610c6e815463ffffffff92610c1b6002856001840154169201612c5a565b91604051946001600160401b0380831687528260401c166020870152808260801c166040870152808260a01c1660608701528160c01c16608086015260e01c60a085015260c084015260e0830190612b33565bf35b34610269576020366003190112610269576004356000526012602052602060ff604060002054166040519015158152f35b346102695760203660031901126102695760c060ff63ffffffff610cc6600435613340565b9594969093604093929351971515885216602087015260408601526060850152166080830152151560a0820152f35b34610269576020366003190112610269576001600160a01b03610d16612bf0565b166000526007602052604080600020546008602052816000205482519182526020820152f35b34610269576000366003190112610269576040517f00000000000000000000000000000000000000000000000000000000000000006001600160a01b03168152602090f35b34610269576000366003190112610269576000546040516001600160a01b039091168152602090f35b34610269576020366003190112610269576001600160a01b03610dcb612bf0565b166000526006602052604060002080546106686001830154926002810154906003810154600482015460058301549160076006850154940154946040519889988994919260e0969399989794919961010087019a8752602087015260408601526060850152608084015260a083015260c08201520152565b3461026957610e5136612c06565b9060005260116020526040600020600582101561026957608091610e7491612c1c565b5060018060a01b038154169060018101549060ff600360028301549201541691604051938452602084015260408301526060820152f35b3461026957602036600319011261026957600435600052600d602052606060406000206001815491015460405191825263ffffffff90818116602084015260201c166040820152f35b34610269576000366003190112610269576002546040516001600160a01b039091168152602090f35b3461026957602036600319011261026957610f36612bf0565b610f3e612d03565b6001600160a01b03908116908115610f92576002549081168214610f92576001600160a01b03191681176002557f3f32684a32a11dabdbb8c0177de80aa3ae36a004d75210335b49e544e48cd0aa600080a2005b604051635521068160e01b8152600490fd5b3461026957602036600319011261026957600435600052600c6020526020604060002054604051908152f35b3461026957604036600319011261026957610fe9612bf0565b6024356000526020906010825260406000209060018060a01b03166000528152604060002060405190818382549182815201908192600052846000209060005b8682821061107f57868661103f82880383612aa6565b604051928392818401908285525180915260408401929160005b82811061106857505050500390f35b835185528695509381019392810192600101611059565b835485529093019260019283019201611029565b34610269576000366003190112610269576110ac612d03565b600080546001600160a01b0319811682556001600160a01b03167f8be0079c531659141344cd1fd0a4f28419497f9722a3daafe3b4186f6b6457e08280a3005b3461026957602036600319011261026957602061110a60043561385d565b6040519015158152f35b3461026957600036600319011261026957602060405160058152f35b346102695760003660031901126102695760206040516103e88152f35b34610269576000366003190112610269576020604051600a8152f35b34610269576020366003190112610269576001600160a01b0361118a612bf0565b1660005260086020526020604060002054604051908152f35b346102695760003660031901126102695760a060ff63ffffffff6111c5613288565b9395909260405196875216602086015260408501526060840152166080820152f35b3461026957602036600319011261026957600435600052600e60205260e0604060002060ff81549160018101546003600283015492015491838360401c16916040519586526020860152604085015263ffffffff80831660608601528260201c16608085015261125681612b29565b60a084015260481c16151560c0820152f35b6105003660031901126102695736602312156102695760405161128a81612a6f565b80610504368111610269576004915b8183106117dd57836112a9612ed5565b60045480156117cb5780600052600e6020526040600020600160ff600383015460401c166112d681612b29565b036117cb5760018101544210156117b95760035434036117a757816000526009602052604060002060005b600a81106115f4575050600554926040519061131c82612a41565b3382526020820190848252604083014281526060840191825260006080850152600060a0850152600060c085015286600052600f60205260406000209260018060a01b038551166bffffffffffffffffffffffff60a01b8554161784555160018401555160028301555160038201906000905b600a82106115815750505060229060808301516021820155019060ff60a08201511661ff0060c08454930151151560081b169161ffff1916171790556113d6600554612d2f565b600555816000526010602052604060002033600052602052604060002080546801000000000000000081101561156b5761141591600182018155612ea8565b81549060031b9085821b91600019901b191617905581600052600c6020526040600020611443348254612d4f565b905561145134601454612d4f565b601455600360155463ffffffff908161146b818316612ec0565b1663ffffffff198092161760155584600052600d6020526040600020611492348254612d4f565b905584600052600d6020526001604060002001805482846114b4818416612ec0565b169116179055600284016114c9348254612d4f565b905582840154916114db818416612ec0565b1691161791015533600052600660205260406000206114fa8154612d2f565b90818155826007820155600181015490600460028201549101549160405193845260208401526040830152606082015260008051602061396283398151915260803392a233907ff6e7d09282448c842ef23b148b6dfa2dc4b69839898341f8fb5065eb496cb0fa600080a460018055005b634e487b7160e01b600052604160045260246000fd5b80516001600160401b038151169084549260208201519160028310156105945760019460039460ff60401b60209560401b169168ffffffffffffffffff19161717875560408101518588015563ffffffff6060600289019201511663ffffffff198254161790550193019101909161138f565b6115fe8186612d3e565b516001600160401b0380825116906116168486612c46565b505416036117955761163161162b8385612c46565b50612d9d565b60208201805190600291828110156105945761171f575050604082018051611657612e51565b60208151910120146000146116bd57506040015163ffffffff165b63ffffffff8091169182156116ab576060015116036116995761169490612d2f565b611301565b60405163491f773b60e11b8152600490fd5b604051638d83e18960e01b8152600490fd5b80516116c7612e6e565b60208151910120146000146116e657506060015163ffffffff16611672565b516116ef612e8b565b602081519101201460001461170d576080015163ffffffff16611672565b604051631efccef760e11b8152600490fd5b5190811015610594576001036117835760408201805161173d612e10565b602081519101201460001461175c575060a0015163ffffffff16611672565b51611765612e30565b602081519101201460001461170d5760c0015163ffffffff16611672565b6040516391c402a160e01b8152600490fd5b604051630871c42b60e21b8152600490fd5b60405163cd1c886760e01b8152600490fd5b6040516330e2a62560e11b8152600490fd5b60405163a7cdc26d60e01b8152600490fd5b60808336031261026957604051906117f482612a0a565b6117fd84612b04565b825260209081850135926002841015610269576080938382015260408601356040820152606061182e818801612b18565b90820152815201920191611299565b34610269576020366003190112610269576001600160a01b0361185e612bf0565b166000526006602052610140604060002080549060018101549060028101549060038101549060048101546005820154906007600684015493015493600760205260406000205495600860205260406000205497604051998a5260208a015260408901526060880152608087015260a086015260c085015260e0840152610100830152610120820152f35b3461026957602036600319011261026957600435600052600f60205260c0604060002060ff60018060a01b038254169160018101549060028101546022602183015492015492604051958652602086015260408501526060840152818116608084015260081c16151560a0820152f35b3461026957602036600319011261026957600435600052600a6020526020604060002054604051908152f35b34610269576020366003190112610269576106686119a4600435613897565b60405191829182612b55565b3461026957610b40366003190112610269573660231215610269576040516119d781612a6f565b80610b44368111610269576004915b818310611e27576002805485906001600160a01b03163303610a33576001600160401b03600061012c420193844211915b600a80821015611b8257611a2b8287612d3e565b516001600160401b0381511615611b70576020810191856001600160401b0384511690611b1d57891015611b5e5763ffffffff80604084015116158015611b50575b8015611b42575b6116ab578060a08401511615908115611b33575b506116ab5760018401808511611b1d575b818110611ad8575050506001600160401b039051166001600160401b0385168110611ace575b50611ac990612d2f565b611a17565b9350611ac9611abf565b6001600160401b038351166001600160401b03611af5838c612d3e565b51511614611b0b57611b0690612d2f565b611a99565b60405163b90af29360e01b8152600490fd5b634e487b7160e01b600052601160045260246000fd5b905060c083015116158a611a88565b508060808401511615611a74565b508060608401511615611a6d565b604051630a5c9ce760e31b8152600490fd5b604051631632113760e31b8152600490fd5b5050918491611b1d576001600160401b031690811115611b5e57611ba7600454612d2f565b918260045560001991828401848111611b1d57611bc3906136fd565b61012b19016001600160401b038111611b1d576001600160401b03169083600052602092600984526040600020956000905b600a8210611d3b575050847f62eeb403dc233a7676f50cdb0fd72dae595aeb7c63039adce5caacc33254f9c0959650600052600a845282604060002055600b845260406000205560128352604060002060ff198154169055604051611c5981612a41565b42815283810190838252611ced604082019160008352600360608201916000835260808101966000885260a08201956001875260c0830197600089528d600052600e8c526040600020935184555160018401555190820155019463ffffffff8092511663ffffffff198754161786555116849067ffffffff0000000082549160201b169067ffffffff000000001916179055565b5190611cf882612b29565b611d0182612b29565b60ff60401b69ff00000000000000000084549251151560481b169260401b169069ffff0000000000000000191617179055604051908152a2005b8051906001600160401b038251166fffffffffffffffff00000000000000008884015160401b1690604084015160608501516080808701519260a09163ffffffff60e01b838a015160e01b169560c097179163ffffffff60801b911b16179163ffffffff60a01b911b16179063ffffffff60c01b90841b1617178a5563ffffffff60018b01918401511663ffffffff1982541617905560e0858a0192015191825191611de683612b29565b611def83612b29565b88825494015191600393848410156105945760019560ff61ff008d9660081b1692169061ffff19161717905501980191019096611bf5565b610120833603126102695760405161012091611e4282612a25565b611e4b85612b04565b8252602091611e5b838701612b04565b83820152611e6b60408701612b18565b60408201526060611e7d818801612b18565b908201526080611e8e818801612b18565b9082015260a0611e9f818801612b18565b9082015260c0611eb0818801612b18565b90820152611ec13660e08801612ac7565b60e08201528152019201916119e6565b34610269576102a03660031901126102695760043536604312156102695760405190611efc82612a6f565b816102a43681116102695760249384905b8282106120e8575050600280549091506001600160a01b03163303610a3357821580156120dd575b610a165782600052602091600e835260406000205415610a045783600052600e83526040600020906003918281019360ff918483875460401c16611f7881612b29565b146109f257600101544211156109e05760005b600a81106120735788888863ffffffff89600360401b60ff60401b1982541617815583600052601283526040600020600160ff1982541617905554161560001461201a57817fdd45cfbd9f2d20e6b7b6f5fa3148363d48017feae0c98de41ec4435a5aa75446929350600052600b8152426040600020555b82600052600c8152604060002054604051908152a2005b62015180420180421161205e57827fdd45cfbd9f2d20e6b7b6f5fa3148363d48017feae0c98de41ec4435a5aa75446939450600052600b8252604060002055612003565b83634e487b7160e01b60005260116004526000fd5b61207d8185612d3e565b5190886000526009885282612096826040600020612c46565b500182516120a381612b29565b6120ac81612b29565b89825494015193888510156109cb578661ff006120d89660081b1692169061ffff191617179055612d2f565b611f8b565b506004548311611f35565b60206040916120f73685612ac7565b815201910190611f0d565b346102695760403660031901126102695760243560ff8116809103610269576004356000526013602052604060002090600052602052602060ff604060002054166040519015158152f35b3461026957600036600319011261026957602060405160328152f35b34610269576020806003193601126102695760405160a0906001600160401b03908281018281118282101761156b576040528360005b8481106122815750505060043560005260118352604060002090604051928301908382109082111761156b57604052600083835b6005831061223557508360405191826000905b600582106121f45761028085f35b835180516001600160a01b0316825280840151828501526040808201519083015260609081015160ff169082015292820192600191909101906080016121e6565b60019160049160405161224781612a0a565b848060a01b03875416815284870154838201526002870154604082015260ff600388015416606082015281520193019101909184906121d3565b612289613263565b8184015201849061219f565b34610269576000366003190112610269576020600354604051908152f35b34610269576000366003190112610269576020600554604051908152f35b34610269576020366003190112610269576122ea612ed5565b60055460043510156129f857600435600052600f602052604060002060018101549081600052600e602052600360ff816040600020015460401c1661232e81612b29565b036129e65760228101549060ff8260081c166129d4576000916103e890846000526009602052604060002060005b600a81106127d957505061ffff191660ff8416908117610100176022840155156127d057905b6021810182905580546001600160a01b039384936123a6926004359086168861341f565b5416908160005260066020526040600020908360005260106020526040600020836000526020526040600020805490816124d0575b5050506080816000805160206139628339815191529254906001810154906004600282015491015491604051938452602084015260408301526060820152a280600052600d6020526040600020600e6020526001604060002091016124a6600363ffffffff9361247561245386865460201c16612ec0565b855467ffffffff00000000191660209190911b67ffffffff0000000016178555565b0161248584825460201c16612ec0565b67ffffffff0000000082549160201b169067ffffffff000000001916179055565b54908082169160201c16146124bb5760018055005b600052600b60205242604060002055806103f2565b919392600019929091838101908111611b1d576124ec91612ea8565b90549060031b1c600052600f6020526040600020916022830192600760ff85541610156000146127bb57600183016125248154612d2f565b905560ff8454168560005260086020526125446040600020918254612d4f565b9055600360ff85541660088110156127b2575b60098110156127a9575b600a146127a1575b60009660005b600560ff821610612764575b5050909192939495612742575b6021820154600285018054821161272f575b50509060078401549260018401809411611b1d578693880361272357600585016125c48154612d2f565b809155600686018054821161270b575b50505b83600052600760205260406000206125f0848254612d4f565b905584549182612662575b505050907f9c7b6f99cba4ae2b8837d2a4ff724e1273427755c6f2e43bac3108bccb98b66a60606080949360ff6000805160206139628339815191529754168460005260076020526040600020549060405192835260208301526040820152a291856123db565b9091929493506003840191825490840190848211611b1d5761269c92602161268e879461269794612d69565b91015490612d4f565b612f58565b905560018201549361271094858102958187041490151715611b1d57606060809460ff7f9c7b6f99cba4ae2b8837d2a4ff724e1273427755c6f2e43bac3108bccb98b66a936126fb8a966000805160206139628339815191529a612f58565b60048801559750509293946125fb565b55600383019350918310611b1d5785929188806125d4565b600160058601556125d7565b5560028101809111611b1d57878061259a565b600a81018091111561258857634e487b7160e01b600052601160045260246000fd5b896000526011602052878261277d836040600020612c1c565b505416146127935761278e90612f47565b61256f565b50600197508990508061257b565b506008612569565b60069150612561565b60049150612557565b849550600060058495969401556001916125d7565b50600090612382565b6127ef6127e98260038801612c46565b50612ef8565b6127fc61162b8385612c46565b60009060208301516002811015610594576129375760408301908151612820612e51565b60208151910120149182612914575b82156128d3575b821561288e575b5050612886575b612858575b5061285390612d2f565b61235c565b9561287e612853929563ffffffff60606128746103e895612f47565b9a01511690612d69565b049390612849565b506001612844565b9091505161289a612e8b565b602081519101201490816128b1575b508a8061283d565b6003915060e00151516128c381612b29565b6128cc81612b29565b148a6128a9565b809250516128df612e6e565b6020815191012014806128f3575b91612836565b50600260e08201515161290581612b29565b61290e81612b29565b146128ed565b9150600160e08201515161292781612b29565b61293081612b29565b149161282f565b6040830151612944612e10565b602081519101201490816129b0575b8115612968575b501561284457506001612844565b90506040830151612977612e30565b6020815191012014908161298d575b508a61295a565b60e0015161299e9150602001612d7c565b6003811015610594576002148a612986565b90506129c2602060e083015101612d7c565b60038110156105945760011490612953565b604051636d3e967760e01b8152600490fd5b6040516328ae54ed60e01b8152600490fd5b604051633cb68a9d60e21b8152600490fd5b608081019081106001600160401b0382111761156b57604052565b61010081019081106001600160401b0382111761156b57604052565b60e081019081106001600160401b0382111761156b57604052565b6001600160401b03811161156b57604052565b61014081019081106001600160401b0382111761156b57604052565b604081019081106001600160401b0382111761156b57604052565b90601f801991011681019081106001600160401b0382111761156b57604052565b919082604091031261026957604051612adf81612a8b565b8092803590600482101561026957602091835201359060038210156102695760200152565b35906001600160401b038216820361026957565b359063ffffffff8216820361026957565b6004111561059457565b6020908051612b4181612b29565b835201519060038210156105945760200152565b610b40810192916000915b600a8310612b6d57505050565b600190610120835191612be46001600160401b039384815116835260209485820151168584015263ffffffff60408181840151169085015260608181840151169085015260808181840151169085015260a08181840151169085015260c09081830151169084015260e08091015190830190612b33565b01920192019190612b60565b600435906001600160a01b038216820361026957565b6040906003190112610269576004359060243590565b906005811015612c305760021b0190600090565b634e487b7160e01b600052603260045260246000fd5b90600a811015612c30576003020190600090565b90604051612c6781612a8b565b60ff819354818116612c7881612b29565b835260081c169060038210156105945760200152565b6001600160401b03811161156b5760051b60200190565b81601f8201121561026957803591612cbc83612c8e565b92612cca6040519485612aa6565b808452602092838086019260051b820101928311610269578301905b828210612cf4575050505090565b81358152908301908301612ce6565b6000546001600160a01b03163303612d1757565b60405163118cdaa760e01b8152336004820152602490fd5b6000198114611b1d5760010190565b90600a811015612c305760051b0190565b91908201809211611b1d57565b91908203918211611b1d57565b81810292918115918404141715611b1d57565b5160038110156105945790565b8051821015612c305760209160051b010190565b90604051612daa81612a25565b60e0612e0b6002839580546001600160401b0380821687528160401c16602087015263ffffffff90818160801c166040880152818160a01c166060880152818160c01c166080880152851c60a087015260018201541660c086015201612c5a565b910152565b60405190612e1d82612a8b565b600482526327bb32b960e11b6020830152565b60405190612e3d82612a8b565b60058252642ab73232b960d91b6020830152565b60405190612e5e82612a8b565b60018252603160f81b6020830152565b60405190612e7b82612a8b565b60018252600b60fb1b6020830152565b60405190612e9882612a8b565b60018252601960f91b6020830152565b8054821015612c305760005260206000200190600090565b63ffffffff809116908114611b1d5760010190565b600260015414612ee6576002600155565b604051633ee5aeb560e01b8152600490fd5b90604051612f0581612a0a565b809260ff81546001600160401b038116845260401c1690600282101561059457600263ffffffff91606093602086015260018101546040860152015416910152565b60ff1660ff8114611b1d5760010190565b8115612f62570490565b634e487b7160e01b600052601260045260246000fd5b3d15612fb2573d906001600160401b03821161156b5760405191612fa6601f8201601f191660200184612aa6565b82523d6000602084013e565b606090565b6000908082526020600e815260ff92604091600385818585200154851c16612fde81612b29565b036131d357838252600b81528282205442106131c2578382526011815282822082908390845b60058982161061318c575b50501561317b578483526013825283832095808216968785528352848420541661316a57848352600c82528383205461304791613671565b91821561314957848152601382528381208682528252838120805460ff19166001179055808080806130a761271061309f7f00000000000000000000000000000000000000000000000000000000000000008a612d69565b048098612d5c565b967f00000000000000000000000000000000000000000000000000000000000000006001600160a01b03165af16130dc612f78565b50156131385780808085335af16130f1612f78565b501561312757825194855284015233927f64da964e036dd66a7be792791f60a47ec5378950b9d12795de3f453aa3940eb09190a3565b82516312171d8360e31b8152600490fd5b83516312171d8360e31b8152600490fd5b93845260138152828420948452939093529020805460ff1916600117905550565b835163611ab18960e11b8152600490fd5b835163b305461d60e01b8152600490fd5b6131968183612c1c565b50546001600160a01b031633146131b5576131b090612f47565b613004565b925050506001388061300f565b8251632ff18b4b60e11b8152600490fd5b82516328ae54ed60e01b8152600490fd5b60409081516131f281612a6f565b809260005b610140811061320557505050565b602090825161321381612a25565b60008152826000818301526000858301526000606083015260006080830152600060a0830152600060c0830152600085519161324e83612a8b565b81835282015260e082015281850152016131f7565b6040519061327082612a0a565b60006060838281528260208201528260408201520152565b600454806132a25750600090600090600090600090600090565b9081600052600e602052604060002090604051926132bf84612a41565b8254845260018301549160208501928352600360028501549460408701958652015494606081019363ffffffff918288168652828860201c16608082015260c060ff808a60401c16996133118b612b29565b8a60a085015260481c16151591015261332987612b29565b61333287612b29565b519451935116919493929190565b80158015613407575b6133f257600052600e60205260406000206040519161336783612a41565b81548352600182015460208401908152600360028401549360408601948552015490606085019263ffffffff8084168552808460201c16608088015260ff8460401c16966133b488612b29565b8760a082015260ff60c082019560481c1615158552511515926133d688612b29565b6133df88612b29565b5195519451169251151591959493929190565b50600090600090600090600090600090600090565b506004548111613349565b8015611b1d576000190190565b9291939060ff80921692600784106136695760009585875260119283602052604088206000196005805b6135e3575b5060018101613464575b50505050505050505050565b600495865b8281116135305750506134aa906040519261348384612a0a565b6001600160a01b039485168452602084019586526040840196875260608401998a52612c1c565b95909561351e57505184546001600160a01b031916911617835551600183015551600282015591516003928301805460ff191691909216179055908252600e602052604090912001805469ff0000000000000000001916690100000000000000000017905538808080808080808080613458565b634e487b7160e01b8a52899052602489fd5b60001981018181116135d1576135469085612c1c565b506135518286612c1c565b6135bf57908a828261356c959403613571575b505050613412565b613469565b825481546001600160a01b0319166001600160a01b039190911617815560018381015490820155600280840154908201556003928301549201805460ff191691909216179055388a81613564565b634e487b7160e01b8e528d8a5260248efd5b634e487b7160e01b8d5282895260248dfd5b90600019820190828211613655576135fb8285612c1c565b506002810154908a828a11928315613630575b50505060001461362957506136239091613412565b80613449565b915061344e565b8a1492509082613645575b5050388a8161360e565b60030154168b119050893861363b565b634e487b7160e01b8c52600488905260248cfd5b505050505050565b60009060ff168061369257505061368e61271091610fa090612d69565b0490565b600181036136ac57505061368e61271091610bb890612d69565b600281036136c657505061368e612710916107d090612d69565b600381036136e057505061368e612710916101f490612d69565b6004036136f8575061368e612710916101f490612d69565b905090565b801561385a5760008181526011602052604080822080546001600160a01b039493929190851615908115613847575b50613738575b50505050565b600c60205280822054918261374e575b50613732565b61378661271061377e7f000000000000000000000000000000000000000000000000000000000000000086612d69565b048094612d5c565b92848252600c60205281838120556001850195868611613833578280928192898352600c6020528683206137bb898254612d4f565b90557f0000000000000000000000000000000000000000000000000000000000000000165af16137e9612f78565b5015613823577fd02ee9eafb934e2ffd95384478ef177c9932fd0d6cb1813747b8eefdf55d8b199160209151908152a33880808080613748565b516312171d8360e31b8152600490fd5b634e487b7160e01b83526011600452602483fd5b60079150600360ff91015416103861372c565b50565b6004548111801561388f575b6138895760005260096020526001600160401b0360406000205416151590565b50600090565b508015613869565b61389f6131e4565b5060045481111580613958575b1561391c57600052602060098152604060002090604051916138cd83612a6f565b90600090835b600a83106138ff57505050506001600160401b0381515116156138f35790565b506138fc6131e4565b90565b60038260019261390e87612d9d565b8152019401920191926138d3565b60405162461bcd60e51b815260206004820152601460248201527310de58db1948191bd95cc81b9bdd08195e1a5cdd60621b6044820152606490fd5b508015156138ac56fedbc55064e49993e4c979488990287b80a393512ce56bbe0cb3834df880cf97c7a2646970667358221220b18e800c4e668392537bdec3fb1025840239f79462325144e3a27849ec16b2a264736f6c63430008140033",
  "linkReferences": {},
  "deployedLinkReferences": {}
}