{
  "_format": "hh-sol-artifact-1",
  "contractName": "Oddyssey",
  "sourceName": "contracts/Oddyssey.sol",
  "abi": [
    {
      "inputs": [
        {
          "internalType": "address",
          "name": "_devWallet",
          "type": "address"
        },
        {
          "internalType": "uint256",
          "name": "_initialEntryFee",
          "type": "uint256"
        }
      ],
      "stateMutability": "nonpayable",
      "type": "constructor"
    },
    {
      "inputs": [],
      "name": "BettingClosed",
      "type": "error"
    },
    {
      "inputs": [],
      "name": "ClaimingNotAvailable",
      "type": "error"
    },
    {
      "inputs": [],
      "name": "CycleNotResolved",
      "type": "error"
    },
    {
      "inputs": [],
      "name": "GameNotActive",
      "type": "error"
    },
    {
      "inputs": [],
      "name": "InsufficientPayment",
      "type": "error"
    },
    {
      "inputs": [],
      "name": "InvalidFee",
      "type": "error"
    },
    {
      "inputs": [],
      "name": "InvalidPredictionCount",
      "type": "error"
    },
    {
      "inputs": [],
      "name": "InvalidSelection",
      "type": "error"
    },
    {
      "inputs": [],
      "name": "InvalidStartTime",
      "type": "error"
    },
    {
      "inputs": [],
      "name": "NotOnLeaderboard",
      "type": "error"
    },
    {
      "inputs": [],
      "name": "OddsMismatch",
      "type": "error"
    },
    {
      "inputs": [],
      "name": "OddsNotSet",
      "type": "error"
    },
    {
      "inputs": [
        {
          "internalType": "address",
          "name": "owner",
          "type": "address"
        }
      ],
      "name": "OwnableInvalidOwner",
      "type": "error"
    },
    {
      "inputs": [
        {
          "internalType": "address",
          "name": "account",
          "type": "address"
        }
      ],
      "name": "OwnableUnauthorizedAccount",
      "type": "error"
    },
    {
      "inputs": [],
      "name": "PrizeAlreadyClaimed",
      "type": "error"
    },
    {
      "inputs": [],
      "name": "ReentrancyGuardReentrantCall",
      "type": "error"
    },
    {
      "inputs": [],
      "name": "SlipAlreadyEvaluated",
      "type": "error"
    },
    {
      "inputs": [],
      "name": "TransferFailed",
      "type": "error"
    },
    {
      "inputs": [],
      "name": "Unauthorized",
      "type": "error"
    },
    {
      "anonymous": false,
      "inputs": [
        {
          "indexed": true,
          "internalType": "uint256",
          "name": "cycleId",
          "type": "uint256"
        },
        {
          "indexed": false,
          "internalType": "uint256",
          "name": "prizePool",
          "type": "uint256"
        }
      ],
      "name": "CycleResolved",
      "type": "event"
    },
    {
      "anonymous": false,
      "inputs": [
        {
          "indexed": true,
          "internalType": "uint256",
          "name": "cycleId",
          "type": "uint256"
        },
        {
          "indexed": false,
          "internalType": "uint256",
          "name": "endTime",
          "type": "uint256"
        }
      ],
      "name": "CycleStarted",
      "type": "event"
    },
    {
      "anonymous": false,
      "inputs": [
        {
          "indexed": true,
          "internalType": "uint256",
          "name": "newFee",
          "type": "uint256"
        }
      ],
      "name": "EntryFeeSet",
      "type": "event"
    },
    {
      "anonymous": false,
      "inputs": [
        {
          "indexed": true,
          "internalType": "address",
          "name": "newOracle",
          "type": "address"
        }
      ],
      "name": "OracleSet",
      "type": "event"
    },
    {
      "anonymous": false,
      "inputs": [
        {
          "indexed": true,
          "internalType": "address",
          "name": "previousOwner",
          "type": "address"
        },
        {
          "indexed": true,
          "internalType": "address",
          "name": "newOwner",
          "type": "address"
        }
      ],
      "name": "OwnershipTransferred",
      "type": "event"
    },
    {
      "anonymous": false,
      "inputs": [
        {
          "indexed": true,
          "internalType": "uint256",
          "name": "cycleId",
          "type": "uint256"
        },
        {
          "indexed": true,
          "internalType": "address",
          "name": "player",
          "type": "address"
        },
        {
          "indexed": false,
          "internalType": "uint256",
          "name": "rank",
          "type": "uint256"
        },
        {
          "indexed": false,
          "internalType": "uint256",
          "name": "amount",
          "type": "uint256"
        }
      ],
      "name": "PrizeClaimed",
      "type": "event"
    },
    {
      "anonymous": false,
      "inputs": [
        {
          "indexed": true,
          "internalType": "uint256",
          "name": "fromCycleId",
          "type": "uint256"
        },
        {
          "indexed": true,
          "internalType": "uint256",
          "name": "toCycleId",
          "type": "uint256"
        },
        {
          "indexed": false,
          "internalType": "uint256",
          "name": "amount",
          "type": "uint256"
        }
      ],
      "name": "PrizeRollover",
      "type": "event"
    },
    {
      "anonymous": false,
      "inputs": [
        {
          "indexed": true,
          "internalType": "uint256",
          "name": "cycleId",
          "type": "uint256"
        },
        {
          "indexed": true,
          "internalType": "address",
          "name": "player",
          "type": "address"
        },
        {
          "indexed": true,
          "internalType": "uint256",
          "name": "slipId",
          "type": "uint256"
        }
      ],
      "name": "SlipPlaced",
      "type": "event"
    },
    {
      "inputs": [],
      "name": "DAILY_LEADERBOARD_SIZE",
      "outputs": [
        {
          "internalType": "uint256",
          "name": "",
          "type": "uint256"
        }
      ],
      "stateMutability": "view",
      "type": "function"
    },
    {
      "inputs": [],
      "name": "DEV_FEE_PERCENTAGE",
      "outputs": [
        {
          "internalType": "uint256",
          "name": "",
          "type": "uint256"
        }
      ],
      "stateMutability": "view",
      "type": "function"
    },
    {
      "inputs": [],
      "name": "MATCH_COUNT",
      "outputs": [
        {
          "internalType": "uint256",
          "name": "",
          "type": "uint256"
        }
      ],
      "stateMutability": "view",
      "type": "function"
    },
    {
      "inputs": [],
      "name": "MIN_CORRECT_PREDICTIONS",
      "outputs": [
        {
          "internalType": "uint256",
          "name": "",
          "type": "uint256"
        }
      ],
      "stateMutability": "view",
      "type": "function"
    },
    {
      "inputs": [],
      "name": "ODDS_SCALING_FACTOR",
      "outputs": [
        {
          "internalType": "uint256",
          "name": "",
          "type": "uint256"
        }
      ],
      "stateMutability": "view",
      "type": "function"
    },
    {
      "inputs": [],
      "name": "PRIZE_ROLLOVER_FEE_PERCENTAGE",
      "outputs": [
        {
          "internalType": "uint256",
          "name": "",
          "type": "uint256"
        }
      ],
      "stateMutability": "view",
      "type": "function"
    },
    {
      "inputs": [
        {
          "internalType": "uint256",
          "name": "_cycleId",
          "type": "uint256"
        }
      ],
      "name": "claimPrize",
      "outputs": [],
      "stateMutability": "nonpayable",
      "type": "function"
    },
    {
      "inputs": [
        {
          "internalType": "uint256",
          "name": "",
          "type": "uint256"
        }
      ],
      "name": "claimableStartTimes",
      "outputs": [
        {
          "internalType": "uint256",
          "name": "",
          "type": "uint256"
        }
      ],
      "stateMutability": "view",
      "type": "function"
    },
    {
      "inputs": [
        {
          "internalType": "uint256",
          "name": "",
          "type": "uint256"
        }
      ],
      "name": "cycleStats",
      "outputs": [
        {
          "internalType": "uint256",
          "name": "volume",
          "type": "uint256"
        },
        {
          "internalType": "uint32",
          "name": "slips",
          "type": "uint32"
        },
        {
          "internalType": "uint32",
          "name": "evaluatedSlips",
          "type": "uint32"
        }
      ],
      "stateMutability": "view",
      "type": "function"
    },
    {
      "inputs": [
        {
          "internalType": "uint256",
          "name": "",
          "type": "uint256"
        }
      ],
      "name": "dailyCycleEndTimes",
      "outputs": [
        {
          "internalType": "uint256",
          "name": "",
          "type": "uint256"
        }
      ],
      "stateMutability": "view",
      "type": "function"
    },
    {
      "inputs": [],
      "name": "dailyCycleId",
      "outputs": [
        {
          "internalType": "uint256",
          "name": "",
          "type": "uint256"
        }
      ],
      "stateMutability": "view",
      "type": "function"
    },
    {
      "inputs": [
        {
          "internalType": "uint256",
          "name": "",
          "type": "uint256"
        },
        {
          "internalType": "uint256",
          "name": "",
          "type": "uint256"
        }
      ],
      "name": "dailyLeaderboards",
      "outputs": [
        {
          "internalType": "address",
          "name": "player",
          "type": "address"
        },
        {
          "internalType": "uint256",
          "name": "slipId",
          "type": "uint256"
        },
        {
          "internalType": "uint256",
          "name": "finalScore",
          "type": "uint256"
        },
        {
          "internalType": "uint8",
          "name": "correctCount",
          "type": "uint8"
        }
      ],
      "stateMutability": "view",
      "type": "function"
    },
    {
      "inputs": [
        {
          "internalType": "uint256",
          "name": "",
          "type": "uint256"
        },
        {
          "internalType": "uint256",
          "name": "",
          "type": "uint256"
        }
      ],
      "name": "dailyMatches",
      "outputs": [
        {
          "internalType": "uint64",
          "name": "id",
          "type": "uint64"
        },
        {
          "internalType": "uint64",
          "name": "startTime",
          "type": "uint64"
        },
        {
          "internalType": "uint32",
          "name": "oddsHome",
          "type": "uint32"
        },
        {
          "internalType": "uint32",
          "name": "oddsDraw",
          "type": "uint32"
        },
        {
          "internalType": "uint32",
          "name": "oddsAway",
          "type": "uint32"
        },
        {
          "internalType": "uint32",
          "name": "oddsOver",
          "type": "uint32"
        },
        {
          "internalType": "uint32",
          "name": "oddsUnder",
          "type": "uint32"
        },
        {
          "components": [
            {
              "internalType": "enum Oddyssey.MoneylineResult",
              "name": "moneyline",
              "type": "uint8"
            },
            {
              "internalType": "enum Oddyssey.OverUnderResult",
              "name": "overUnder",
              "type": "uint8"
            }
          ],
          "internalType": "struct Oddyssey.Result",
          "name": "result",
          "type": "tuple"
        }
      ],
      "stateMutability": "view",
      "type": "function"
    },
    {
      "inputs": [
        {
          "internalType": "uint256",
          "name": "",
          "type": "uint256"
        }
      ],
      "name": "dailyPrizePools",
      "outputs": [
        {
          "internalType": "uint256",
          "name": "",
          "type": "uint256"
        }
      ],
      "stateMutability": "view",
      "type": "function"
    },
    {
      "inputs": [],
      "name": "devWallet",
      "outputs": [
        {
          "internalType": "address",
          "name": "",
          "type": "address"
        }
      ],
      "stateMutability": "view",
      "type": "function"
    },
    {
      "inputs": [],
      "name": "entryFee",
      "outputs": [
        {
          "internalType": "uint256",
          "name": "",
          "type": "uint256"
        }
      ],
      "stateMutability": "view",
      "type": "function"
    },
    {
      "inputs": [
        {
          "internalType": "uint256",
          "name": "_slipId",
          "type": "uint256"
        }
      ],
      "name": "evaluateSlip",
      "outputs": [],
      "stateMutability": "nonpayable",
      "type": "function"
    },
    {
      "inputs": [
        {
          "internalType": "uint256",
          "name": "_cycleId",
          "type": "uint256"
        }
      ],
      "name": "getDailyLeaderboard",
      "outputs": [
        {
          "components": [
            {
              "internalType": "address",
              "name": "player",
              "type": "address"
            },
            {
              "internalType": "uint256",
              "name": "slipId",
              "type": "uint256"
            },
            {
              "internalType": "uint256",
              "name": "finalScore",
              "type": "uint256"
            },
            {
              "internalType": "uint8",
              "name": "correctCount",
              "type": "uint8"
            }
          ],
          "internalType": "struct Oddyssey.LeaderboardEntry[5]",
          "name": "",
          "type": "tuple[5]"
        }
      ],
      "stateMutability": "view",
      "type": "function"
    },
    {
      "inputs": [
        {
          "internalType": "uint256",
          "name": "_cycleId",
          "type": "uint256"
        }
      ],
      "name": "getDailyMatches",
      "outputs": [
        {
          "components": [
            {
              "internalType": "uint64",
              "name": "id",
              "type": "uint64"
            },
            {
              "internalType": "uint64",
              "name": "startTime",
              "type": "uint64"
            },
            {
              "internalType": "uint32",
              "name": "oddsHome",
              "type": "uint32"
            },
            {
              "internalType": "uint32",
              "name": "oddsDraw",
              "type": "uint32"
            },
            {
              "internalType": "uint32",
              "name": "oddsAway",
              "type": "uint32"
            },
            {
              "internalType": "uint32",
              "name": "oddsOver",
              "type": "uint32"
            },
            {
              "internalType": "uint32",
              "name": "oddsUnder",
              "type": "uint32"
            },
            {
              "components": [
                {
                  "internalType": "enum Oddyssey.MoneylineResult",
                  "name": "moneyline",
                  "type": "uint8"
                },
                {
                  "internalType": "enum Oddyssey.OverUnderResult",
                  "name": "overUnder",
                  "type": "uint8"
                }
              ],
              "internalType": "struct Oddyssey.Result",
              "name": "result",
              "type": "tuple"
            }
          ],
          "internalType": "struct Oddyssey.Match[10]",
          "name": "",
          "type": "tuple[10]"
        }
      ],
      "stateMutability": "view",
      "type": "function"
    },
    {
      "inputs": [
        {
          "internalType": "uint256",
          "name": "_slipId",
          "type": "uint256"
        }
      ],
      "name": "getSlip",
      "outputs": [
        {
          "components": [
            {
              "internalType": "address",
              "name": "player",
              "type": "address"
            },
            {
              "internalType": "uint256",
              "name": "cycleId",
              "type": "uint256"
            },
            {
              "internalType": "uint256",
              "name": "placedAt",
              "type": "uint256"
            },
            {
              "components": [
                {
                  "internalType": "uint64",
                  "name": "matchId",
                  "type": "uint64"
                },
                {
                  "internalType": "enum Oddyssey.BetType",
                  "name": "betType",
                  "type": "uint8"
                },
                {
                  "internalType": "bytes32",
                  "name": "selection",
                  "type": "bytes32"
                },
                {
                  "internalType": "uint32",
                  "name": "selectedOdd",
                  "type": "uint32"
                }
              ],
              "internalType": "struct Oddyssey.UserPrediction[10]",
              "name": "predictions",
              "type": "tuple[10]"
            },
            {
              "internalType": "uint256",
              "name": "finalScore",
              "type": "uint256"
            },
            {
              "internalType": "uint8",
              "name": "correctCount",
              "type": "uint8"
            },
            {
              "internalType": "bool",
              "name": "isEvaluated",
              "type": "bool"
            }
          ],
          "internalType": "struct Oddyssey.Slip",
          "name": "",
          "type": "tuple"
        }
      ],
      "stateMutability": "view",
      "type": "function"
    },
    {
      "inputs": [
        {
          "internalType": "address",
          "name": "_user",
          "type": "address"
        },
        {
          "internalType": "uint256",
          "name": "_cycleId",
          "type": "uint256"
        }
      ],
      "name": "getUserSlipsForCycle",
      "outputs": [
        {
          "internalType": "uint256[]",
          "name": "",
          "type": "uint256[]"
        }
      ],
      "stateMutability": "view",
      "type": "function"
    },
    {
      "inputs": [
        {
          "internalType": "uint256",
          "name": "",
          "type": "uint256"
        }
      ],
      "name": "isCycleResolved",
      "outputs": [
        {
          "internalType": "bool",
          "name": "",
          "type": "bool"
        }
      ],
      "stateMutability": "view",
      "type": "function"
    },
    {
      "inputs": [],
      "name": "oracle",
      "outputs": [
        {
          "internalType": "address",
          "name": "",
          "type": "address"
        }
      ],
      "stateMutability": "view",
      "type": "function"
    },
    {
      "inputs": [],
      "name": "owner",
      "outputs": [
        {
          "internalType": "address",
          "name": "",
          "type": "address"
        }
      ],
      "stateMutability": "view",
      "type": "function"
    },
    {
      "inputs": [
        {
          "components": [
            {
              "internalType": "uint64",
              "name": "matchId",
              "type": "uint64"
            },
            {
              "internalType": "enum Oddyssey.BetType",
              "name": "betType",
              "type": "uint8"
            },
            {
              "internalType": "bytes32",
              "name": "selection",
              "type": "bytes32"
            },
            {
              "internalType": "uint32",
              "name": "selectedOdd",
              "type": "uint32"
            }
          ],
          "internalType": "struct Oddyssey.UserPrediction[10]",
          "name": "_predictions",
          "type": "tuple[10]"
        }
      ],
      "name": "placeSlip",
      "outputs": [],
      "stateMutability": "payable",
      "type": "function"
    },
    {
      "inputs": [
        {
          "internalType": "uint256",
          "name": "",
          "type": "uint256"
        },
        {
          "internalType": "uint8",
          "name": "",
          "type": "uint8"
        }
      ],
      "name": "prizeClaimed",
      "outputs": [
        {
          "internalType": "bool",
          "name": "",
          "type": "bool"
        }
      ],
      "stateMutability": "view",
      "type": "function"
    },
    {
      "inputs": [],
      "name": "renounceOwnership",
      "outputs": [],
      "stateMutability": "nonpayable",
      "type": "function"
    },
    {
      "inputs": [
        {
          "components": [
            {
              "internalType": "enum Oddyssey.MoneylineResult",
              "name": "moneyline",
              "type": "uint8"
            },
            {
              "internalType": "enum Oddyssey.OverUnderResult",
              "name": "overUnder",
              "type": "uint8"
            }
          ],
          "internalType": "struct Oddyssey.Result[10]",
          "name": "_results",
          "type": "tuple[10]"
        }
      ],
      "name": "resolveDailyCycle",
      "outputs": [],
      "stateMutability": "nonpayable",
      "type": "function"
    },
    {
      "inputs": [
        {
          "internalType": "uint256",
          "name": "_newFee",
          "type": "uint256"
        }
      ],
      "name": "setEntryFee",
      "outputs": [],
      "stateMutability": "nonpayable",
      "type": "function"
    },
    {
      "inputs": [
        {
          "internalType": "address",
          "name": "_newOracle",
          "type": "address"
        }
      ],
      "name": "setOracle",
      "outputs": [],
      "stateMutability": "nonpayable",
      "type": "function"
    },
    {
      "inputs": [],
      "name": "slipCount",
      "outputs": [
        {
          "internalType": "uint256",
          "name": "",
          "type": "uint256"
        }
      ],
      "stateMutability": "view",
      "type": "function"
    },
    {
      "inputs": [
        {
          "internalType": "uint256",
          "name": "",
          "type": "uint256"
        }
      ],
      "name": "slips",
      "outputs": [
        {
          "internalType": "address",
          "name": "player",
          "type": "address"
        },
        {
          "internalType": "uint256",
          "name": "cycleId",
          "type": "uint256"
        },
        {
          "internalType": "uint256",
          "name": "placedAt",
          "type": "uint256"
        },
        {
          "internalType": "uint256",
          "name": "finalScore",
          "type": "uint256"
        },
        {
          "internalType": "uint8",
          "name": "correctCount",
          "type": "uint8"
        },
        {
          "internalType": "bool",
          "name": "isEvaluated",
          "type": "bool"
        }
      ],
      "stateMutability": "view",
      "type": "function"
    },
    {
      "inputs": [
        {
          "components": [
            {
              "internalType": "uint64",
              "name": "id",
              "type": "uint64"
            },
            {
              "internalType": "uint64",
              "name": "startTime",
              "type": "uint64"
            },
            {
              "internalType": "uint32",
              "name": "oddsHome",
              "type": "uint32"
            },
            {
              "internalType": "uint32",
              "name": "oddsDraw",
              "type": "uint32"
            },
            {
              "internalType": "uint32",
              "name": "oddsAway",
              "type": "uint32"
            },
            {
              "internalType": "uint32",
              "name": "oddsOver",
              "type": "uint32"
            },
            {
              "internalType": "uint32",
              "name": "oddsUnder",
              "type": "uint32"
            },
            {
              "components": [
                {
                  "internalType": "enum Oddyssey.MoneylineResult",
                  "name": "moneyline",
                  "type": "uint8"
                },
                {
                  "internalType": "enum Oddyssey.OverUnderResult",
                  "name": "overUnder",
                  "type": "uint8"
                }
              ],
              "internalType": "struct Oddyssey.Result",
              "name": "result",
              "type": "tuple"
            }
          ],
          "internalType": "struct Oddyssey.Match[10]",
          "name": "_matches",
          "type": "tuple[10]"
        }
      ],
      "name": "startDailyCycle",
      "outputs": [],
      "stateMutability": "nonpayable",
      "type": "function"
    },
    {
      "inputs": [],
      "name": "stats",
      "outputs": [
        {
          "internalType": "uint256",
          "name": "totalVolume",
          "type": "uint256"
        },
        {
          "internalType": "uint32",
          "name": "totalSlips",
          "type": "uint32"
        },
        {
          "internalType": "uint256",
          "name": "highestOdd",
          "type": "uint256"
        }
      ],
      "stateMutability": "view",
      "type": "function"
    },
    {
      "inputs": [
        {
          "internalType": "address",
          "name": "newOwner",
          "type": "address"
        }
      ],
      "name": "transferOwnership",
      "outputs": [],
      "stateMutability": "nonpayable",
      "type": "function"
    }
  ],
  "bytecode": "0x60e03461011857601f6200273438819003918201601f19168301916001600160401b0383118484101761011d5780849260409485528339810103126101185780516001600160a01b03918282168203610118576020015133156100ff576000549160018060a01b0319923384821617600055604051943391167f8be0079c531659141344cd1fd0a4f28419497f9722a3daafe3b4186f6b6457e0600080a36001805560c052600355339060025416176002556101f48060805260a0526126009081620001348239608051818181610681015261201c015260a0518181816106bc01526124c6015260c0518181816107cc0152818161204c015261252c0152f35b604051631e4fbdf760e01b815260006004820152602490fd5b600080fd5b634e487b7160e01b600052604160045260246000fdfe6080604052600436101561001257600080fd5b60003560e01c806302c009ef146117d9578063042db2e6146117bb57806305b61d111461179d578063072ea61c1461177f5780630832275e1461165357806317ee395b14611608578063201a013b146112c75780632ac5df931461129b578063361a97921461122b57806344dac55514610d305780635052617d14610d14578063590d0f9914610cf7578063625d9ce51461019d578063715018a614610c9e57806373d2257314610bdb578063745be57614610baf57806374946fe0146109655780637adbf973146108fe5780637dc0d1d0146108d55780637e12170d1461088c57806383660217146108245780638da5cb5b146107fb5780638ea5220f146107b65780639bea95ac14610785578063a1ce7ecb146106df578063a4957efe146106a4578063b0dbf47d14610669578063c56a00de146104fe578063c81b986c1461031a578063d7098154146102f0578063d80528ae146102bb578063e734e60c1461028f578063eb770d0c14610230578063f2fde38b146101a25763fbb0de531461019d57600080fd5b611c29565b3461022b57602036600319011261022b576101bb611c45565b6101c3611cf3565b6001600160a01b0390811690811561021257600054826001600160601b0360a01b821617600055167f8be0079c531659141344cd1fd0a4f28419497f9722a3daafe3b4186f6b6457e0600080a3005b604051631e4fbdf760e01b815260006004820152602490fd5b600080fd5b3461022b57602036600319011261022b5760043561024c611cf3565b801561027d57806003557f565a4bfd76b3419546eefb0f3228d436837362a9b57e0c3a03227225dfec023d600080a2005b6040516358d620b360e01b8152600490fd5b3461022b57602036600319011261022b5760043560005260086020526020604060002054604051908152f35b3461022b57600036600319011261022b57606060105463ffffffff601154166012549060405192835260208301526040820152f35b3461022b57602036600319011261022b57610309611ea6565b610314600435611f68565b60018055005b3461022b57602036600319011261022b5760405161033781611b54565b60008152600060208201526000604082015260405161035581611b8a565b60005b61014081106104e957600060c0848460608201528260808201528260a08201520152600435600052600b60205260406000206040519061039782611b54565b80546001600160a01b03168252600181015460208301526002810154604080840191909152516103c681611b8a565b6003828101906000835b600a82106104cc578660ff60228888606085015260218101546080850152015481811660a084015260081c16151560c082015260405160018060a01b03825116815260208201516020820152604082015160408201526060820151606082016000905b600a8210610467576105c08460c087608081015161056084015260ff60a082015116610580840152015115156105a0820152f35b82516001600160401b038151168252602081015160028110156104b6578263ffffffff606060209460809486600198015260408101516040850152015116606082015201930191019091610433565b634e487b7160e01b600052602160045260246000fd5b8260206001926104db87611ec9565b8152019401910190926103d0565b6020906104f4612186565b8184015201610358565b3461022b5760208060031936011261022b5760405161051c81611b8a565b8160005b610140811061060957506004356000526006815260406000206040519061054682611b8a565b600083835b600a83106105ea57508360405191826000905b600a821061056c57610b4085f35b826101206001926105de60e088516001600160401b0380825116855286820151168685015263ffffffff80604083015116604086015260608181840151169086015260808181840151169086015260a08181840151169086015260c090818301511690850152015160e0830190611cd0565b0194019101909261055e565b6001916003916105f986611d86565b815201930191019091849061054b565b60405161061581611b38565b60008152600083820152600060408201526000606082015260006080820152600060a0820152600060c082015260405161064e81611b6f565b6000815260008482015260e082015281840152018290610520565b3461022b57600036600319011261022b5760206040517f00000000000000000000000000000000000000000000000000000000000000008152f35b3461022b57600036600319011261022b5760206040517f00000000000000000000000000000000000000000000000000000000000000008152f35b3461022b576106ed36611c5b565b9060005260066020526040600020600a82101561022b576101209161071191611c85565b50610783815463ffffffff926107306002856001840154169201611c99565b91604051946001600160401b0380831687528260401c166020870152808260801c166040870152808260a01c1660608701528160c01c16608086015260e01c60a085015260c084015260e0830190611cd0565bf35b3461022b57602036600319011261022b57600435600052600e602052602060ff604060002054166040519015158152f35b3461022b57600036600319011261022b576040517f00000000000000000000000000000000000000000000000000000000000000006001600160a01b03168152602090f35b3461022b57600036600319011261022b576000546040516001600160a01b039091168152602090f35b3461022b5761083236611c5b565b90600052600d6020526040600020600582101561022b5760809161085591611c71565b5060018060a01b038154169060018101549060ff600360028301549201541691604051938452602084015260408301526060820152f35b3461022b57602036600319011261022b57600435600052600a602052606060406000206001815491015460405191825263ffffffff90818116602084015260201c166040820152f35b3461022b57600036600319011261022b576002546040516001600160a01b039091168152602090f35b3461022b57602036600319011261022b57610917611c45565b61091f611cf3565b600280546001600160a01b0319166001600160a01b039290921691821790557f3f32684a32a11dabdbb8c0177de80aa3ae36a004d75210335b49e544e48cd0aa600080a2005b3461022b5761028036600319011261022b57366023121561022b5760405161098c81611b8a565b6102848136821161022b576004905b828210610b95576002805485906001600160a01b03163303610b84576004549182600052602091600e835260ff918260406000205416610b46578460005260078452604060002054421115610b015760005b600a8110610a9f57858581600052600e81526040600020600160ff1982541617905562015180420190814211610a89577fdd45cfbd9f2d20e6b7b6f5fa3148363d48017feae0c98de41ec4435a5aa75446918360005260088252604060002055600a815263ffffffff6001604060002001541615610a79575b60098152604060002054604051908152a2005b6008815242604060002055610a66565b634e487b7160e01b600052601160045260246000fd5b610aa98184611d2e565b5190866000526006865282610ac2826040600020611c85565b5001825160048110156104b6578782549401519360038510156104b6578761ff00610afc9660081b1692169061ffff191617179055611d1f565b6109ed565b60405162461bcd60e51b815260048101859052601760248201527f42657474696e6720706572696f64206e6f74206f7665720000000000000000006044820152606490fd5b60405162461bcd60e51b815260048101859052601660248201527510de58db1948185b1c9958591e481c995cdbdb1d995960521b6044820152606490fd5b6040516282b42960e81b8152600490fd5b6020604091610ba43685611bec565b81520191019061099b565b3461022b57602036600319011261022b5760043560005260096020526020604060002054604051908152f35b3461022b57604036600319011261022b57610bf4611c45565b602435600052602090600c825260406000209060018060a01b03166000528152604060002060405190818382549182815201908192600052846000209060005b86828210610c8a578686610c4a82880383611ba6565b604051928392818401908285525180915260408401929160005b828110610c7357505050500390f35b835185528695509381019392810192600101610c64565b835485529093019260019283019201610c34565b3461022b57600036600319011261022b57610cb7611cf3565b600080546001600160a01b0319811682556001600160a01b03167f8be0079c531659141344cd1fd0a4f28419497f9722a3daafe3b4186f6b6457e08280a3005b3461022b57600036600319011261022b5760206040516103e88152f35b3461022b57600036600319011261022b576020604051600a8152f35b61050036600319011261022b57366023121561022b57604051610d5281611b8a565b8061050436811161022b576004915b8183106111cb5783610d71611ea6565b6004548060005260076020526040600020544210156111b95760035434036111a757806000526006602052604060002060005b600a811061101c5750506005549160405190610dbf82611b54565b3382526020820190838252604083014281526060840191825260006080850152600060a0850152600060c085015285600052600b60205260406000209260018060a01b038551166001600160601b0360a01b8554161784555160018401555160028301555160038201906000905b600a8210610fa45750505060229060808301516021820155019060ff60a08201511661ff0060c08454930151151560081b169161ffff191617179055610e74600554611d1f565b60055580600052600c6020526040600020336000526020526040600020805468010000000000000000811015610f8e5760018101808355811015610f78578391600052602060002001558060005260096020526040600020610ed7348254611d3f565b9055610ee534601054611d3f565b60105560115463ffffffff80610efc818416611e91565b1663ffffffff198093161760115582600052600a6020526040600020610f23348254611d3f565b905582600052600a602052600160406000200191825491610f45818416611e91565b16911617905533907ff6e7d09282448c842ef23b148b6dfa2dc4b69839898341f8fb5065eb496cb0fa600080a460018055005b634e487b7160e01b600052603260045260246000fd5b634e487b7160e01b600052604160045260246000fd5b80516001600160401b038151169084549260208201519160028310156104b65760019460039468ff000000000000000060209560401b169168ffffffffffffffffff19161717875560408101518588015563ffffffff6060600289019201511663ffffffff1982541617905501930191019091610e2d565b6110268185611d2e565b516001600160401b03808251169061103e8486611c85565b50541603611195576110596110538385611c85565b50611d86565b602082015160028110156104b65761114157604082018051611079611e3a565b60208151910120146000146110df57506040015163ffffffff165b63ffffffff8091169182156110cd576060015116036110bb576110b690611d1f565b610da4565b60405163491f773b60e11b8152600490fd5b604051638d83e18960e01b8152600490fd5b80516110e9611e57565b602081519101201460001461110857506060015163ffffffff16611094565b51611111611e74565b602081519101201460001461112f576080015163ffffffff16611094565b604051631efccef760e11b8152600490fd5b60408201805161114f611df9565b602081519101201460001461116e575060a0015163ffffffff16611094565b51611177611e19565b602081519101201460001461112f5760c0015163ffffffff16611094565b604051635651f66960e11b8152600490fd5b60405163cd1c886760e01b8152600490fd5b6040516330e2a62560e11b8152600490fd5b60808336031261022b57604051906111e282611b1d565b6111eb84611bc7565b82526020908185013592600284101561022b576080938382015260408601356040820152606061121c818801611bdb565b90820152815201920191610d61565b3461022b57602036600319011261022b57600435600052600b60205260c0604060002060ff60018060a01b038254169160018101549060028101546022602183015492015492604051958652602086015260408501526060840152818116608084015260081c16151560a0820152f35b3461022b57602036600319011261022b5760043560005260076020526020604060002054604051908152f35b3461022b57610b4036600319011261022b57366023121561022b576040516112ee81611b8a565b80610b4436811161022b576004915b81831061155e57600280548591906001600160a01b03163303610b84576001600160401b039160005b600a81106115025750603c420192834211610a89576001600160401b0316928311156114f057611357600454611d1f565b928360045560001992838501858111610a89576113739061246a565b846000526020926006845260406000206000915b600a831061140d5750505050603b1901916001600160401b038311610a89576001600160401b037f62eeb403dc233a7676f50cdb0fd72dae595aeb7c63039adce5caacc33254f9c09385600052600784521660406000205560088252604060002055600e8152604060002060ff19815416905560078152604060002054604051908152a2005b8051906001600160401b038251166fffffffffffffffff00000000000000008884015160401b1690604084015160608501516080808701519260a09163ffffffff60e01b838a015160e01b169560c097179163ffffffff60801b911b16179163ffffffff60a01b911b16179063ffffffff60c01b90841b161717845563ffffffff60018501918401511663ffffffff1982541617905560e08584019201519182519160048310156104b65788825494015191600393848410156104b65760019560ff61ff008d9660081b1692169061ffff19161717905501920192019190611387565b604051632ca4094f60e21b8152600490fd5b60206001600160401b03816115178486611d2e565b510151166001600160401b0386161161153a575b5061153590611d1f565b611326565b8194506001600160401b03906115536115359385611d2e565b51015116939061152b565b6101208336031261022b576040516101209161157982611b38565b61158285611bc7565b8252602091611592838701611bc7565b838201526115a260408701611bdb565b604082015260606115b4818801611bdb565b9082015260806115c5818801611bdb565b9082015260a06115d6818801611bdb565b9082015260c06115e7818801611bdb565b908201526115f83660e08801611bec565b60e08201528152019201916112fd565b3461022b57604036600319011261022b5760243560ff811680910361022b57600435600052600f602052604060002090600052602052602060ff604060002054166040519015158152f35b3461022b5760208060031936011261022b5760405160a0906001600160401b039082810182811182821017610f8e576040528360005b84811061176b57505050600435600052600d83526040600020906040519283019083821090821117610f8e57604052600083835b6005831061171f57508360405191826000905b600582106116de5761028085f35b835180516001600160a01b0316825280840151828501526040808201519083015260609081015160ff169082015292820192600191909101906080016116d0565b60019160049160405161173181611b1d565b848060a01b03875416815284870154838201526002870154604082015260ff600388015416606082015281520193019101909184906116bd565b611773612186565b81840152018490611689565b3461022b57600036600319011261022b576020600354604051908152f35b3461022b57600036600319011261022b576020600554604051908152f35b3461022b57600036600319011261022b576020600454604051908152f35b3461022b57602036600319011261022b576117f2611ea6565b600435600052600b6020526040600020600181015480600052600e60205260ff6040600020541615611b0b5760228201549160ff8360081c16611af9576000906103e883600052600660205260406000209460005b600a8110611902575061ffff191660ff841690811761010017602284015593945061188e93156118f957905b6021810182905554600435906001600160a01b0316856121b8565b80600052600a6020526001604060002001805463ffffffff8167ffffffff000000006118bf83809560201c16611e91565b60201b1667ffffffff0000000019821617809455169160201c16146118e45760018055005b60005260086020524260406000205580610314565b50600090611873565b6119186119128260038701611c85565b50611ec9565b611925611053838a611c85565b600090602083015160028110156104b657611a5c576040830151611947611e3a565b60208151910120149081611a3b575b81156119f9575b81156119b4575b506119ac575b61197e575b5061197990611d1f565b611847565b946119a4611979929463ffffffff606061199a6103e895611f18565b9901511690611d59565b04929061196f565b50600161196a565b905060408301516119c3611e74565b602081519101201490816119d9575b508a611964565b6119e7915060e00151611d6c565b60048110156104b6576003148a6119d2565b90506040830151611a08611e57565b602081519101201480611a1c575b9061195d565b50611a2a60e0820151611d6c565b60048110156104b657600214611a16565b9050611a4a60e0820151611d6c565b60048110156104b65760011490611956565b6040830151611a69611df9565b60208151910120149081611ad5575b8115611a8d575b501561196a5750600161196a565b90506040830151611a9c611e19565b60208151910120149081611ab2575b508a611a7f565b60e00151611ac39150602001611d79565b60038110156104b6576002148a611aab565b9050611ae7602060e083015101611d79565b60038110156104b65760011490611a78565b604051636d3e967760e01b8152600490fd5b6040516328ae54ed60e01b8152600490fd5b608081019081106001600160401b03821117610f8e57604052565b61010081019081106001600160401b03821117610f8e57604052565b60e081019081106001600160401b03821117610f8e57604052565b604081019081106001600160401b03821117610f8e57604052565b61014081019081106001600160401b03821117610f8e57604052565b90601f801991011681019081106001600160401b03821117610f8e57604052565b35906001600160401b038216820361022b57565b359063ffffffff8216820361022b57565b919082604091031261022b57604051611c0481611b6f565b8092803590600482101561022b576020918352013590600382101561022b5760200152565b3461022b57600036600319011261022b57602060405160058152f35b600435906001600160a01b038216820361022b57565b604090600319011261022b576004359060243590565b906005811015610f785760021b0190600090565b90600a811015610f78576003020190600090565b90604051611ca681611b6f565b80925460ff81169060048210156104b65760ff91835260081c169060038210156104b65760200152565b80519060048210156104b657602091835201519060038210156104b65760200152565b6000546001600160a01b03163303611d0757565b60405163118cdaa760e01b8152336004820152602490fd5b6000198114610a895760010190565b90600a811015610f785760051b0190565b91908201809211610a8957565b91908203918211610a8957565b81810292918115918404141715610a8957565b5160048110156104b65790565b5160038110156104b65790565b90604051611d9381611b38565b60e0611df46002839580546001600160401b0380821687528160401c16602087015263ffffffff90818160801c166040880152818160a01c166060880152818160c01c166080880152851c60a087015260018201541660c086015201611c99565b910152565b60405190611e0682611b6f565b600482526327bb32b960e11b6020830152565b60405190611e2682611b6f565b60058252642ab73232b960d91b6020830152565b60405190611e4782611b6f565b60018252603160f81b6020830152565b60405190611e6482611b6f565b60018252600b60fb1b6020830152565b60405190611e8182611b6f565b60018252601960f91b6020830152565b63ffffffff809116908114610a895760010190565b600260015414611eb7576002600155565b604051633ee5aeb560e01b8152600490fd5b90604051611ed681611b1d565b809260ff81546001600160401b038116845260401c169060028210156104b657600263ffffffff91606093602086015260018101546040860152015416910152565b60ff1660ff8114610a895760010190565b3d15611f63573d906001600160401b038211610f8e5760405191611f57601f8201601f191660200184611ba6565b82523d6000602084013e565b606090565b6000908082526020600e815260ff9260409184838320541615612175578382526008815282822054421061216457838252600d815282822082908390845b60058982161061212e575b50501561211d57848352600f825283832095808216968785528352848420541661210c578483526009825283832054611fe9916123de565b9182156120eb57848152600f82528381208682528252838120805460ff19166001179055808080806120496127106120417f00000000000000000000000000000000000000000000000000000000000000008a611d59565b048098611d4c565b967f00000000000000000000000000000000000000000000000000000000000000006001600160a01b03165af161207e611f29565b50156120da5780808085335af1612093611f29565b50156120c957825194855284015233927f64da964e036dd66a7be792791f60a47ec5378950b9d12795de3f453aa3940eb09190a3565b82516312171d8360e31b8152600490fd5b83516312171d8360e31b8152600490fd5b938452600f8152828420948452939093529020805460ff1916600117905550565b835163611ab18960e11b8152600490fd5b835163b305461d60e01b8152600490fd5b6121388183611c71565b50546001600160a01b031633146121575761215290611f18565b611fa6565b9250505060013880611fb1565b8251632ff18b4b60e11b8152600490fd5b82516328ae54ed60e01b8152600490fd5b6040519061219382611b1d565b60006060838281528260208201528260408201520152565b8015610a89576000190190565b909493919260ff80931693600585106123d5576000928352600d6020526040832060001997906005805b61234f575b50600189016121fc575b505050505050509050565b600498895b81811161229b5750612241906040519261221a84611b1d565b6001600160a01b039485168452602084019586526040840196875260608401998a52611c71565b95909561228957506003959697985051166001600160601b0360a01b8454161783555160018301555160028201550191511660ff1982541617905580388080808080806121f1565b634e487b7160e01b8152808a52602490fd5b600019810181811161233c576122b19084611c71565b506122bc8285611c71565b61232a57908982826122d79594036122dc575b5050506121ab565b612201565b825481546001600160a01b0319166001600160a01b039190911617815560018381015490820155600280840154908201556003928301549201805460ff1916919092161790553889816122cf565b634e487b7160e01b8952888d52602489fd5b634e487b7160e01b885260118c52602488fd5b986000198a01908a82116123c1576123678284611c71565b506002810154908982891192831561239c575b505050600014612395575061238f90996121ab565b806121e2565b99506121e7565b8914925090826123b1575b505038898161237a565b60030154168a11905088386123a7565b634e487b7160e01b87526011600452602487fd5b50505050509050565b60009060ff16806123ff5750506123fb61271091610fa090611d59565b0490565b600181036124195750506123fb61271091610bb890611d59565b600281036124335750506123fb612710916107d090611d59565b6003810361244d5750506123fb612710916101f490611d59565b60040361246557506123fb612710916101f490611d59565b905090565b80156125c7576000818152600d602052604080822080546001600160a01b0394939291908516159081156125b4575b506124a5575b50505050565b60096020528082205491826124bb575b5061249f565b6124f36127106124eb7f000000000000000000000000000000000000000000000000000000000000000086611d59565b048094611d4c565b928482526009602052818381205560018501958686116125a05782809281928983526009602052868320612528898254611d3f565b90557f0000000000000000000000000000000000000000000000000000000000000000165af1612556611f29565b5015612590577fd02ee9eafb934e2ffd95384478ef177c9932fd0d6cb1813747b8eefdf55d8b199160209151908152a338808080806124b5565b516312171d8360e31b8152600490fd5b634e487b7160e01b83526011600452602483fd5b60059150600360ff910154161038612499565b5056fea2646970667358221220aea1d161cb714444350947b83dc06deb6d551d7908c5ce1f4789e8499831f5ce64736f6c63430008140033",
  "linkReferences": {},
  "deployedLinkReferences": {}
}