{
  "_format": "hh-sol-artifact-1",
  "contractName": "Oddyssey",
  "sourceName": "contracts/Oddyssey.sol",
  "abi": [
    {
      "inputs": [
        {
          "internalType": "address",
          "name": "_devWallet",
          "type": "address"
        },
        {
          "internalType": "uint256",
          "name": "_initialEntryFee",
          "type": "uint256"
        }
      ],
      "stateMutability": "nonpayable",
      "type": "constructor"
    },
    {
      "inputs": [],
      "name": "DataNotFound",
      "type": "error"
    },
    {
      "inputs": [],
      "name": "InsufficientFunds",
      "type": "error"
    },
    {
      "inputs": [],
      "name": "InvalidInput",
      "type": "error"
    },
    {
      "inputs": [],
      "name": "InvalidState",
      "type": "error"
    },
    {
      "inputs": [],
      "name": "InvalidTiming",
      "type": "error"
    },
    {
      "inputs": [
        {
          "internalType": "address",
          "name": "owner",
          "type": "address"
        }
      ],
      "name": "OwnableInvalidOwner",
      "type": "error"
    },
    {
      "inputs": [
        {
          "internalType": "address",
          "name": "account",
          "type": "address"
        }
      ],
      "name": "OwnableUnauthorizedAccount",
      "type": "error"
    },
    {
      "inputs": [],
      "name": "ReentrancyGuardReentrantCall",
      "type": "error"
    },
    {
      "inputs": [],
      "name": "TransferFailed",
      "type": "error"
    },
    {
      "inputs": [],
      "name": "Unauthorized",
      "type": "error"
    },
    {
      "anonymous": false,
      "inputs": [
        {
          "indexed": true,
          "internalType": "uint256",
          "name": "cycleId",
          "type": "uint256"
        },
        {
          "indexed": false,
          "internalType": "uint256",
          "name": "totalVolume",
          "type": "uint256"
        },
        {
          "indexed": false,
          "internalType": "uint32",
          "name": "totalSlips",
          "type": "uint32"
        },
        {
          "indexed": false,
          "internalType": "uint256",
          "name": "averageScore",
          "type": "uint256"
        }
      ],
      "name": "AnalyticsUpdated",
      "type": "event"
    },
    {
      "anonymous": false,
      "inputs": [
        {
          "indexed": true,
          "internalType": "uint256",
          "name": "cycleId",
          "type": "uint256"
        },
        {
          "indexed": false,
          "internalType": "uint256",
          "name": "endTime",
          "type": "uint256"
        },
        {
          "indexed": false,
          "internalType": "uint32",
          "name": "totalSlips",
          "type": "uint32"
        }
      ],
      "name": "CycleEnded",
      "type": "event"
    },
    {
      "anonymous": false,
      "inputs": [
        {
          "indexed": true,
          "internalType": "uint256",
          "name": "cycleId",
          "type": "uint256"
        },
        {
          "indexed": false,
          "internalType": "uint256",
          "name": "prizePool",
          "type": "uint256"
        }
      ],
      "name": "CycleResolved",
      "type": "event"
    },
    {
      "anonymous": false,
      "inputs": [
        {
          "indexed": true,
          "internalType": "uint256",
          "name": "cycleId",
          "type": "uint256"
        },
        {
          "indexed": false,
          "internalType": "uint256",
          "name": "endTime",
          "type": "uint256"
        }
      ],
      "name": "CycleStarted",
      "type": "event"
    },
    {
      "anonymous": false,
      "inputs": [
        {
          "indexed": true,
          "internalType": "uint256",
          "name": "newFee",
          "type": "uint256"
        }
      ],
      "name": "EntryFeeSet",
      "type": "event"
    },
    {
      "anonymous": false,
      "inputs": [
        {
          "indexed": true,
          "internalType": "uint256",
          "name": "cycleId",
          "type": "uint256"
        },
        {
          "indexed": true,
          "internalType": "address",
          "name": "player",
          "type": "address"
        },
        {
          "indexed": true,
          "internalType": "uint256",
          "name": "slipId",
          "type": "uint256"
        },
        {
          "indexed": false,
          "internalType": "uint8",
          "name": "rank",
          "type": "uint8"
        },
        {
          "indexed": false,
          "internalType": "uint256",
          "name": "finalScore",
          "type": "uint256"
        }
      ],
      "name": "LeaderboardUpdated",
      "type": "event"
    },
    {
      "anonymous": false,
      "inputs": [
        {
          "indexed": true,
          "internalType": "address",
          "name": "user",
          "type": "address"
        },
        {
          "indexed": false,
          "internalType": "uint256",
          "name": "pointsEarned",
          "type": "uint256"
        },
        {
          "indexed": false,
          "internalType": "uint256",
          "name": "correctPredictions",
          "type": "uint256"
        },
        {
          "indexed": false,
          "internalType": "uint256",
          "name": "totalReputation",
          "type": "uint256"
        }
      ],
      "name": "OddysseyReputationUpdated",
      "type": "event"
    },
    {
      "anonymous": false,
      "inputs": [
        {
          "indexed": true,
          "internalType": "address",
          "name": "newOracle",
          "type": "address"
        }
      ],
      "name": "OracleSet",
      "type": "event"
    },
    {
      "anonymous": false,
      "inputs": [
        {
          "indexed": true,
          "internalType": "address",
          "name": "previousOwner",
          "type": "address"
        },
        {
          "indexed": true,
          "internalType": "address",
          "name": "newOwner",
          "type": "address"
        }
      ],
      "name": "OwnershipTransferred",
      "type": "event"
    },
    {
      "anonymous": false,
      "inputs": [
        {
          "indexed": true,
          "internalType": "uint256",
          "name": "cycleId",
          "type": "uint256"
        },
        {
          "indexed": true,
          "internalType": "address",
          "name": "player",
          "type": "address"
        },
        {
          "indexed": false,
          "internalType": "uint256",
          "name": "rank",
          "type": "uint256"
        },
        {
          "indexed": false,
          "internalType": "uint256",
          "name": "amount",
          "type": "uint256"
        }
      ],
      "name": "PrizeClaimed",
      "type": "event"
    },
    {
      "anonymous": false,
      "inputs": [
        {
          "indexed": true,
          "internalType": "uint256",
          "name": "fromCycleId",
          "type": "uint256"
        },
        {
          "indexed": true,
          "internalType": "uint256",
          "name": "toCycleId",
          "type": "uint256"
        },
        {
          "indexed": false,
          "internalType": "uint256",
          "name": "amount",
          "type": "uint256"
        }
      ],
      "name": "PrizeRollover",
      "type": "event"
    },
    {
      "anonymous": false,
      "inputs": [
        {
          "indexed": true,
          "internalType": "uint256",
          "name": "slipId",
          "type": "uint256"
        },
        {
          "indexed": true,
          "internalType": "address",
          "name": "player",
          "type": "address"
        },
        {
          "indexed": true,
          "internalType": "uint256",
          "name": "cycleId",
          "type": "uint256"
        },
        {
          "indexed": false,
          "internalType": "uint8",
          "name": "correctCount",
          "type": "uint8"
        },
        {
          "indexed": false,
          "internalType": "uint256",
          "name": "finalScore",
          "type": "uint256"
        }
      ],
      "name": "SlipEvaluated",
      "type": "event"
    },
    {
      "anonymous": false,
      "inputs": [
        {
          "indexed": true,
          "internalType": "uint256",
          "name": "cycleId",
          "type": "uint256"
        },
        {
          "indexed": true,
          "internalType": "address",
          "name": "player",
          "type": "address"
        },
        {
          "indexed": true,
          "internalType": "uint256",
          "name": "slipId",
          "type": "uint256"
        }
      ],
      "name": "SlipPlaced",
      "type": "event"
    },
    {
      "anonymous": false,
      "inputs": [
        {
          "indexed": true,
          "internalType": "address",
          "name": "user",
          "type": "address"
        },
        {
          "indexed": false,
          "internalType": "uint256",
          "name": "totalSlips",
          "type": "uint256"
        },
        {
          "indexed": false,
          "internalType": "uint256",
          "name": "totalWins",
          "type": "uint256"
        },
        {
          "indexed": false,
          "internalType": "uint256",
          "name": "bestScore",
          "type": "uint256"
        },
        {
          "indexed": false,
          "internalType": "uint256",
          "name": "winRate",
          "type": "uint256"
        }
      ],
      "name": "UserStatsUpdated",
      "type": "event"
    },
    {
      "inputs": [],
      "name": "DAILY_LEADERBOARD_SIZE",
      "outputs": [
        {
          "internalType": "uint256",
          "name": "",
          "type": "uint256"
        }
      ],
      "stateMutability": "view",
      "type": "function"
    },
    {
      "inputs": [],
      "name": "DEV_FEE_PERCENTAGE",
      "outputs": [
        {
          "internalType": "uint256",
          "name": "",
          "type": "uint256"
        }
      ],
      "stateMutability": "view",
      "type": "function"
    },
    {
      "inputs": [],
      "name": "MATCH_COUNT",
      "outputs": [
        {
          "internalType": "uint256",
          "name": "",
          "type": "uint256"
        }
      ],
      "stateMutability": "view",
      "type": "function"
    },
    {
      "inputs": [],
      "name": "MAX_CYCLES_TO_RESOLVE",
      "outputs": [
        {
          "internalType": "uint256",
          "name": "",
          "type": "uint256"
        }
      ],
      "stateMutability": "view",
      "type": "function"
    },
    {
      "inputs": [],
      "name": "MIN_CORRECT_PREDICTIONS",
      "outputs": [
        {
          "internalType": "uint256",
          "name": "",
          "type": "uint256"
        }
      ],
      "stateMutability": "view",
      "type": "function"
    },
    {
      "inputs": [],
      "name": "ODDS_SCALING_FACTOR",
      "outputs": [
        {
          "internalType": "uint256",
          "name": "",
          "type": "uint256"
        }
      ],
      "stateMutability": "view",
      "type": "function"
    },
    {
      "inputs": [],
      "name": "PRIZE_ROLLOVER_FEE_PERCENTAGE",
      "outputs": [
        {
          "internalType": "uint256",
          "name": "",
          "type": "uint256"
        }
      ],
      "stateMutability": "view",
      "type": "function"
    },
    {
      "inputs": [
        {
          "internalType": "uint256[]",
          "name": "_cycleIds",
          "type": "uint256[]"
        }
      ],
      "name": "claimMultiplePrizes",
      "outputs": [],
      "stateMutability": "nonpayable",
      "type": "function"
    },
    {
      "inputs": [
        {
          "internalType": "uint256",
          "name": "_cycleId",
          "type": "uint256"
        }
      ],
      "name": "claimPrize",
      "outputs": [],
      "stateMutability": "nonpayable",
      "type": "function"
    },
    {
      "inputs": [
        {
          "internalType": "uint256",
          "name": "",
          "type": "uint256"
        }
      ],
      "name": "claimableStartTimes",
      "outputs": [
        {
          "internalType": "uint256",
          "name": "",
          "type": "uint256"
        }
      ],
      "stateMutability": "view",
      "type": "function"
    },
    {
      "inputs": [
        {
          "internalType": "uint256",
          "name": "",
          "type": "uint256"
        }
      ],
      "name": "cycleInfo",
      "outputs": [
        {
          "internalType": "uint256",
          "name": "startTime",
          "type": "uint256"
        },
        {
          "internalType": "uint256",
          "name": "endTime",
          "type": "uint256"
        },
        {
          "internalType": "uint256",
          "name": "prizePool",
          "type": "uint256"
        },
        {
          "internalType": "uint32",
          "name": "slipCount",
          "type": "uint32"
        },
        {
          "internalType": "uint32",
          "name": "evaluatedSlips",
          "type": "uint32"
        },
        {
          "internalType": "enum Oddyssey.CycleState",
          "name": "state",
          "type": "uint8"
        },
        {
          "internalType": "bool",
          "name": "hasWinner",
          "type": "bool"
        }
      ],
      "stateMutability": "view",
      "type": "function"
    },
    {
      "inputs": [
        {
          "internalType": "uint256",
          "name": "",
          "type": "uint256"
        }
      ],
      "name": "cycleStats",
      "outputs": [
        {
          "internalType": "uint256",
          "name": "volume",
          "type": "uint256"
        },
        {
          "internalType": "uint32",
          "name": "slips",
          "type": "uint32"
        },
        {
          "internalType": "uint32",
          "name": "evaluatedSlips",
          "type": "uint32"
        }
      ],
      "stateMutability": "view",
      "type": "function"
    },
    {
      "inputs": [
        {
          "internalType": "uint256",
          "name": "",
          "type": "uint256"
        }
      ],
      "name": "dailyAverageScore",
      "outputs": [
        {
          "internalType": "uint256",
          "name": "",
          "type": "uint256"
        }
      ],
      "stateMutability": "view",
      "type": "function"
    },
    {
      "inputs": [
        {
          "internalType": "uint256",
          "name": "",
          "type": "uint256"
        }
      ],
      "name": "dailyCorrectPredictions",
      "outputs": [
        {
          "internalType": "uint256",
          "name": "",
          "type": "uint256"
        }
      ],
      "stateMutability": "view",
      "type": "function"
    },
    {
      "inputs": [
        {
          "internalType": "uint256",
          "name": "",
          "type": "uint256"
        }
      ],
      "name": "dailyCycleEndTimes",
      "outputs": [
        {
          "internalType": "uint256",
          "name": "",
          "type": "uint256"
        }
      ],
      "stateMutability": "view",
      "type": "function"
    },
    {
      "inputs": [],
      "name": "dailyCycleId",
      "outputs": [
        {
          "internalType": "uint256",
          "name": "",
          "type": "uint256"
        }
      ],
      "stateMutability": "view",
      "type": "function"
    },
    {
      "inputs": [
        {
          "internalType": "uint256",
          "name": "",
          "type": "uint256"
        }
      ],
      "name": "dailyEvaluatedSlips",
      "outputs": [
        {
          "internalType": "uint256",
          "name": "",
          "type": "uint256"
        }
      ],
      "stateMutability": "view",
      "type": "function"
    },
    {
      "inputs": [
        {
          "internalType": "uint256",
          "name": "",
          "type": "uint256"
        },
        {
          "internalType": "uint256",
          "name": "",
          "type": "uint256"
        }
      ],
      "name": "dailyLeaderboards",
      "outputs": [
        {
          "internalType": "address",
          "name": "player",
          "type": "address"
        },
        {
          "internalType": "uint256",
          "name": "slipId",
          "type": "uint256"
        },
        {
          "internalType": "uint256",
          "name": "finalScore",
          "type": "uint256"
        },
        {
          "internalType": "uint8",
          "name": "correctCount",
          "type": "uint8"
        }
      ],
      "stateMutability": "view",
      "type": "function"
    },
    {
      "inputs": [
        {
          "internalType": "uint256",
          "name": "",
          "type": "uint256"
        },
        {
          "internalType": "uint256",
          "name": "",
          "type": "uint256"
        }
      ],
      "name": "dailyMatches",
      "outputs": [
        {
          "internalType": "uint64",
          "name": "id",
          "type": "uint64"
        },
        {
          "internalType": "uint64",
          "name": "startTime",
          "type": "uint64"
        },
        {
          "internalType": "uint32",
          "name": "oddsHome",
          "type": "uint32"
        },
        {
          "internalType": "uint32",
          "name": "oddsDraw",
          "type": "uint32"
        },
        {
          "internalType": "uint32",
          "name": "oddsAway",
          "type": "uint32"
        },
        {
          "internalType": "uint32",
          "name": "oddsOver",
          "type": "uint32"
        },
        {
          "internalType": "uint32",
          "name": "oddsUnder",
          "type": "uint32"
        },
        {
          "internalType": "string",
          "name": "homeTeam",
          "type": "string"
        },
        {
          "internalType": "string",
          "name": "awayTeam",
          "type": "string"
        },
        {
          "internalType": "string",
          "name": "leagueName",
          "type": "string"
        },
        {
          "components": [
            {
              "internalType": "enum Oddyssey.MoneylineResult",
              "name": "moneyline",
              "type": "uint8"
            },
            {
              "internalType": "enum Oddyssey.OverUnderResult",
              "name": "overUnder",
              "type": "uint8"
            }
          ],
          "internalType": "struct Oddyssey.Result",
          "name": "result",
          "type": "tuple"
        }
      ],
      "stateMutability": "view",
      "type": "function"
    },
    {
      "inputs": [
        {
          "internalType": "uint256",
          "name": "",
          "type": "uint256"
        }
      ],
      "name": "dailyMaxScore",
      "outputs": [
        {
          "internalType": "uint256",
          "name": "",
          "type": "uint256"
        }
      ],
      "stateMutability": "view",
      "type": "function"
    },
    {
      "inputs": [
        {
          "internalType": "uint256",
          "name": "",
          "type": "uint256"
        }
      ],
      "name": "dailyMinScore",
      "outputs": [
        {
          "internalType": "uint256",
          "name": "",
          "type": "uint256"
        }
      ],
      "stateMutability": "view",
      "type": "function"
    },
    {
      "inputs": [
        {
          "internalType": "uint256",
          "name": "",
          "type": "uint256"
        }
      ],
      "name": "dailyPrizePools",
      "outputs": [
        {
          "internalType": "uint256",
          "name": "",
          "type": "uint256"
        }
      ],
      "stateMutability": "view",
      "type": "function"
    },
    {
      "inputs": [
        {
          "internalType": "uint256",
          "name": "",
          "type": "uint256"
        }
      ],
      "name": "dailySlipCount",
      "outputs": [
        {
          "internalType": "uint256",
          "name": "",
          "type": "uint256"
        }
      ],
      "stateMutability": "view",
      "type": "function"
    },
    {
      "inputs": [
        {
          "internalType": "uint256",
          "name": "",
          "type": "uint256"
        }
      ],
      "name": "dailyUserCount",
      "outputs": [
        {
          "internalType": "uint256",
          "name": "",
          "type": "uint256"
        }
      ],
      "stateMutability": "view",
      "type": "function"
    },
    {
      "inputs": [
        {
          "internalType": "uint256",
          "name": "",
          "type": "uint256"
        }
      ],
      "name": "dailyVolume",
      "outputs": [
        {
          "internalType": "uint256",
          "name": "",
          "type": "uint256"
        }
      ],
      "stateMutability": "view",
      "type": "function"
    },
    {
      "inputs": [
        {
          "internalType": "uint256",
          "name": "",
          "type": "uint256"
        }
      ],
      "name": "dailyWinnersCount",
      "outputs": [
        {
          "internalType": "uint256",
          "name": "",
          "type": "uint256"
        }
      ],
      "stateMutability": "view",
      "type": "function"
    },
    {
      "inputs": [],
      "name": "devWallet",
      "outputs": [
        {
          "internalType": "address",
          "name": "",
          "type": "address"
        }
      ],
      "stateMutability": "view",
      "type": "function"
    },
    {
      "inputs": [],
      "name": "enhancedReputationSystem",
      "outputs": [
        {
          "internalType": "contract IEnhancedReputationSystem",
          "name": "",
          "type": "address"
        }
      ],
      "stateMutability": "view",
      "type": "function"
    },
    {
      "inputs": [],
      "name": "entryFee",
      "outputs": [
        {
          "internalType": "uint256",
          "name": "",
          "type": "uint256"
        }
      ],
      "stateMutability": "view",
      "type": "function"
    },
    {
      "inputs": [
        {
          "internalType": "uint256[]",
          "name": "_slipIds",
          "type": "uint256[]"
        }
      ],
      "name": "evaluateMultipleSlips",
      "outputs": [],
      "stateMutability": "nonpayable",
      "type": "function"
    },
    {
      "inputs": [
        {
          "internalType": "uint256",
          "name": "_slipId",
          "type": "uint256"
        }
      ],
      "name": "evaluateSlip",
      "outputs": [],
      "stateMutability": "nonpayable",
      "type": "function"
    },
    {
      "inputs": [
        {
          "internalType": "address",
          "name": "_user",
          "type": "address"
        }
      ],
      "name": "getAllUserSlips",
      "outputs": [
        {
          "internalType": "uint256[]",
          "name": "",
          "type": "uint256[]"
        }
      ],
      "stateMutability": "view",
      "type": "function"
    },
    {
      "inputs": [
        {
          "internalType": "address",
          "name": "_user",
          "type": "address"
        },
        {
          "internalType": "uint256",
          "name": "_offset",
          "type": "uint256"
        },
        {
          "internalType": "uint256",
          "name": "_limit",
          "type": "uint256"
        }
      ],
      "name": "getAllUserSlipsPaginated",
      "outputs": [
        {
          "internalType": "uint256[]",
          "name": "slipIds",
          "type": "uint256[]"
        },
        {
          "internalType": "uint256",
          "name": "totalCount",
          "type": "uint256"
        }
      ],
      "stateMutability": "view",
      "type": "function"
    },
    {
      "inputs": [
        {
          "internalType": "address",
          "name": "_user",
          "type": "address"
        }
      ],
      "name": "getAllUserSlipsWithData",
      "outputs": [
        {
          "internalType": "uint256[]",
          "name": "slipIds",
          "type": "uint256[]"
        },
        {
          "components": [
            {
              "internalType": "address",
              "name": "player",
              "type": "address"
            },
            {
              "internalType": "uint256",
              "name": "cycleId",
              "type": "uint256"
            },
            {
              "internalType": "uint256",
              "name": "placedAt",
              "type": "uint256"
            },
            {
              "components": [
                {
                  "internalType": "uint64",
                  "name": "matchId",
                  "type": "uint64"
                },
                {
                  "internalType": "enum Oddyssey.BetType",
                  "name": "betType",
                  "type": "uint8"
                },
                {
                  "internalType": "string",
                  "name": "selection",
                  "type": "string"
                },
                {
                  "internalType": "uint32",
                  "name": "selectedOdd",
                  "type": "uint32"
                },
                {
                  "internalType": "string",
                  "name": "homeTeam",
                  "type": "string"
                },
                {
                  "internalType": "string",
                  "name": "awayTeam",
                  "type": "string"
                },
                {
                  "internalType": "string",
                  "name": "leagueName",
                  "type": "string"
                }
              ],
              "internalType": "struct Oddyssey.UserPrediction[10]",
              "name": "predictions",
              "type": "tuple[10]"
            },
            {
              "internalType": "uint256",
              "name": "finalScore",
              "type": "uint256"
            },
            {
              "internalType": "uint8",
              "name": "correctCount",
              "type": "uint8"
            },
            {
              "internalType": "bool",
              "name": "isEvaluated",
              "type": "bool"
            }
          ],
          "internalType": "struct Oddyssey.Slip[]",
          "name": "slipsData",
          "type": "tuple[]"
        }
      ],
      "stateMutability": "view",
      "type": "function"
    },
    {
      "inputs": [
        {
          "internalType": "uint256[]",
          "name": "_slipIds",
          "type": "uint256[]"
        }
      ],
      "name": "getBatchSlips",
      "outputs": [
        {
          "components": [
            {
              "internalType": "address",
              "name": "player",
              "type": "address"
            },
            {
              "internalType": "uint256",
              "name": "cycleId",
              "type": "uint256"
            },
            {
              "internalType": "uint256",
              "name": "placedAt",
              "type": "uint256"
            },
            {
              "components": [
                {
                  "internalType": "uint64",
                  "name": "matchId",
                  "type": "uint64"
                },
                {
                  "internalType": "enum Oddyssey.BetType",
                  "name": "betType",
                  "type": "uint8"
                },
                {
                  "internalType": "string",
                  "name": "selection",
                  "type": "string"
                },
                {
                  "internalType": "uint32",
                  "name": "selectedOdd",
                  "type": "uint32"
                },
                {
                  "internalType": "string",
                  "name": "homeTeam",
                  "type": "string"
                },
                {
                  "internalType": "string",
                  "name": "awayTeam",
                  "type": "string"
                },
                {
                  "internalType": "string",
                  "name": "leagueName",
                  "type": "string"
                }
              ],
              "internalType": "struct Oddyssey.UserPrediction[10]",
              "name": "predictions",
              "type": "tuple[10]"
            },
            {
              "internalType": "uint256",
              "name": "finalScore",
              "type": "uint256"
            },
            {
              "internalType": "uint8",
              "name": "correctCount",
              "type": "uint8"
            },
            {
              "internalType": "bool",
              "name": "isEvaluated",
              "type": "bool"
            }
          ],
          "internalType": "struct Oddyssey.Slip[]",
          "name": "",
          "type": "tuple[]"
        }
      ],
      "stateMutability": "view",
      "type": "function"
    },
    {
      "inputs": [],
      "name": "getCurrentCycle",
      "outputs": [
        {
          "internalType": "uint256",
          "name": "",
          "type": "uint256"
        }
      ],
      "stateMutability": "view",
      "type": "function"
    },
    {
      "inputs": [],
      "name": "getCurrentCycleInfo",
      "outputs": [
        {
          "internalType": "uint256",
          "name": "cycleId",
          "type": "uint256"
        },
        {
          "internalType": "uint8",
          "name": "state",
          "type": "uint8"
        },
        {
          "internalType": "uint256",
          "name": "endTime",
          "type": "uint256"
        },
        {
          "internalType": "uint256",
          "name": "prizePool",
          "type": "uint256"
        },
        {
          "internalType": "uint32",
          "name": "cycleSlipCount",
          "type": "uint32"
        }
      ],
      "stateMutability": "view",
      "type": "function"
    },
    {
      "inputs": [
        {
          "internalType": "uint256",
          "name": "_cycleId",
          "type": "uint256"
        }
      ],
      "name": "getCycleMatches",
      "outputs": [
        {
          "components": [
            {
              "internalType": "uint64",
              "name": "id",
              "type": "uint64"
            },
            {
              "internalType": "uint64",
              "name": "startTime",
              "type": "uint64"
            },
            {
              "internalType": "uint32",
              "name": "oddsHome",
              "type": "uint32"
            },
            {
              "internalType": "uint32",
              "name": "oddsDraw",
              "type": "uint32"
            },
            {
              "internalType": "uint32",
              "name": "oddsAway",
              "type": "uint32"
            },
            {
              "internalType": "uint32",
              "name": "oddsOver",
              "type": "uint32"
            },
            {
              "internalType": "uint32",
              "name": "oddsUnder",
              "type": "uint32"
            },
            {
              "internalType": "string",
              "name": "homeTeam",
              "type": "string"
            },
            {
              "internalType": "string",
              "name": "awayTeam",
              "type": "string"
            },
            {
              "internalType": "string",
              "name": "leagueName",
              "type": "string"
            },
            {
              "components": [
                {
                  "internalType": "enum Oddyssey.MoneylineResult",
                  "name": "moneyline",
                  "type": "uint8"
                },
                {
                  "internalType": "enum Oddyssey.OverUnderResult",
                  "name": "overUnder",
                  "type": "uint8"
                }
              ],
              "internalType": "struct Oddyssey.Result",
              "name": "result",
              "type": "tuple"
            }
          ],
          "internalType": "struct Oddyssey.Match[10]",
          "name": "",
          "type": "tuple[10]"
        }
      ],
      "stateMutability": "view",
      "type": "function"
    },
    {
      "inputs": [
        {
          "internalType": "uint256",
          "name": "_cycleId",
          "type": "uint256"
        }
      ],
      "name": "getCycleStatus",
      "outputs": [
        {
          "internalType": "bool",
          "name": "exists",
          "type": "bool"
        },
        {
          "internalType": "uint8",
          "name": "state",
          "type": "uint8"
        },
        {
          "internalType": "uint256",
          "name": "endTime",
          "type": "uint256"
        },
        {
          "internalType": "uint256",
          "name": "prizePool",
          "type": "uint256"
        },
        {
          "internalType": "uint32",
          "name": "cycleSlipCount",
          "type": "uint32"
        },
        {
          "internalType": "bool",
          "name": "hasWinner",
          "type": "bool"
        }
      ],
      "stateMutability": "view",
      "type": "function"
    },
    {
      "inputs": [
        {
          "internalType": "uint256",
          "name": "_cycleId",
          "type": "uint256"
        }
      ],
      "name": "getDailyAverageScore",
      "outputs": [
        {
          "internalType": "uint256",
          "name": "",
          "type": "uint256"
        }
      ],
      "stateMutability": "view",
      "type": "function"
    },
    {
      "inputs": [
        {
          "internalType": "uint256",
          "name": "_cycleId",
          "type": "uint256"
        }
      ],
      "name": "getDailyCorrectPredictions",
      "outputs": [
        {
          "internalType": "uint256",
          "name": "",
          "type": "uint256"
        }
      ],
      "stateMutability": "view",
      "type": "function"
    },
    {
      "inputs": [
        {
          "internalType": "uint256",
          "name": "_cycleId",
          "type": "uint256"
        }
      ],
      "name": "getDailyEvaluatedSlips",
      "outputs": [
        {
          "internalType": "uint256",
          "name": "",
          "type": "uint256"
        }
      ],
      "stateMutability": "view",
      "type": "function"
    },
    {
      "inputs": [
        {
          "internalType": "uint256",
          "name": "_cycleId",
          "type": "uint256"
        }
      ],
      "name": "getDailyLeaderboard",
      "outputs": [
        {
          "components": [
            {
              "internalType": "address",
              "name": "player",
              "type": "address"
            },
            {
              "internalType": "uint256",
              "name": "slipId",
              "type": "uint256"
            },
            {
              "internalType": "uint256",
              "name": "finalScore",
              "type": "uint256"
            },
            {
              "internalType": "uint8",
              "name": "correctCount",
              "type": "uint8"
            }
          ],
          "internalType": "struct Oddyssey.LeaderboardEntry[5]",
          "name": "",
          "type": "tuple[5]"
        }
      ],
      "stateMutability": "view",
      "type": "function"
    },
    {
      "inputs": [
        {
          "internalType": "uint256",
          "name": "_cycleId",
          "type": "uint256"
        }
      ],
      "name": "getDailyMatches",
      "outputs": [
        {
          "components": [
            {
              "internalType": "uint64",
              "name": "id",
              "type": "uint64"
            },
            {
              "internalType": "uint64",
              "name": "startTime",
              "type": "uint64"
            },
            {
              "internalType": "uint32",
              "name": "oddsHome",
              "type": "uint32"
            },
            {
              "internalType": "uint32",
              "name": "oddsDraw",
              "type": "uint32"
            },
            {
              "internalType": "uint32",
              "name": "oddsAway",
              "type": "uint32"
            },
            {
              "internalType": "uint32",
              "name": "oddsOver",
              "type": "uint32"
            },
            {
              "internalType": "uint32",
              "name": "oddsUnder",
              "type": "uint32"
            },
            {
              "internalType": "string",
              "name": "homeTeam",
              "type": "string"
            },
            {
              "internalType": "string",
              "name": "awayTeam",
              "type": "string"
            },
            {
              "internalType": "string",
              "name": "leagueName",
              "type": "string"
            },
            {
              "components": [
                {
                  "internalType": "enum Oddyssey.MoneylineResult",
                  "name": "moneyline",
                  "type": "uint8"
                },
                {
                  "internalType": "enum Oddyssey.OverUnderResult",
                  "name": "overUnder",
                  "type": "uint8"
                }
              ],
              "internalType": "struct Oddyssey.Result",
              "name": "result",
              "type": "tuple"
            }
          ],
          "internalType": "struct Oddyssey.Match[10]",
          "name": "",
          "type": "tuple[10]"
        }
      ],
      "stateMutability": "view",
      "type": "function"
    },
    {
      "inputs": [
        {
          "internalType": "uint256",
          "name": "_cycleId",
          "type": "uint256"
        }
      ],
      "name": "getDailyMaxScore",
      "outputs": [
        {
          "internalType": "uint256",
          "name": "",
          "type": "uint256"
        }
      ],
      "stateMutability": "view",
      "type": "function"
    },
    {
      "inputs": [
        {
          "internalType": "uint256",
          "name": "_cycleId",
          "type": "uint256"
        }
      ],
      "name": "getDailyMinScore",
      "outputs": [
        {
          "internalType": "uint256",
          "name": "",
          "type": "uint256"
        }
      ],
      "stateMutability": "view",
      "type": "function"
    },
    {
      "inputs": [
        {
          "internalType": "uint256",
          "name": "_cycleId",
          "type": "uint256"
        }
      ],
      "name": "getDailySlipCount",
      "outputs": [
        {
          "internalType": "uint256",
          "name": "",
          "type": "uint256"
        }
      ],
      "stateMutability": "view",
      "type": "function"
    },
    {
      "inputs": [
        {
          "internalType": "uint256",
          "name": "_cycleId",
          "type": "uint256"
        }
      ],
      "name": "getDailyStats",
      "outputs": [
        {
          "components": [
            {
              "internalType": "uint256",
              "name": "slipCount",
              "type": "uint256"
            },
            {
              "internalType": "uint256",
              "name": "userCount",
              "type": "uint256"
            },
            {
              "internalType": "uint256",
              "name": "volume",
              "type": "uint256"
            },
            {
              "internalType": "uint256",
              "name": "correctPredictions",
              "type": "uint256"
            },
            {
              "internalType": "uint256",
              "name": "evaluatedSlips",
              "type": "uint256"
            },
            {
              "internalType": "uint256",
              "name": "averageScore",
              "type": "uint256"
            },
            {
              "internalType": "uint256",
              "name": "maxScore",
              "type": "uint256"
            },
            {
              "internalType": "uint256",
              "name": "minScore",
              "type": "uint256"
            },
            {
              "internalType": "uint256",
              "name": "winnersCount",
              "type": "uint256"
            }
          ],
          "internalType": "struct Oddyssey.DailyStats",
          "name": "",
          "type": "tuple"
        }
      ],
      "stateMutability": "view",
      "type": "function"
    },
    {
      "inputs": [
        {
          "internalType": "uint256[]",
          "name": "_cycleIds",
          "type": "uint256[]"
        }
      ],
      "name": "getDailyStatsBatch",
      "outputs": [
        {
          "components": [
            {
              "internalType": "uint256",
              "name": "slipCount",
              "type": "uint256"
            },
            {
              "internalType": "uint256",
              "name": "userCount",
              "type": "uint256"
            },
            {
              "internalType": "uint256",
              "name": "volume",
              "type": "uint256"
            },
            {
              "internalType": "uint256",
              "name": "correctPredictions",
              "type": "uint256"
            },
            {
              "internalType": "uint256",
              "name": "evaluatedSlips",
              "type": "uint256"
            },
            {
              "internalType": "uint256",
              "name": "averageScore",
              "type": "uint256"
            },
            {
              "internalType": "uint256",
              "name": "maxScore",
              "type": "uint256"
            },
            {
              "internalType": "uint256",
              "name": "minScore",
              "type": "uint256"
            },
            {
              "internalType": "uint256",
              "name": "winnersCount",
              "type": "uint256"
            }
          ],
          "internalType": "struct Oddyssey.DailyStats[]",
          "name": "",
          "type": "tuple[]"
        }
      ],
      "stateMutability": "view",
      "type": "function"
    },
    {
      "inputs": [
        {
          "internalType": "uint256",
          "name": "_cycleId",
          "type": "uint256"
        }
      ],
      "name": "getDailyUserCount",
      "outputs": [
        {
          "internalType": "uint256",
          "name": "",
          "type": "uint256"
        }
      ],
      "stateMutability": "view",
      "type": "function"
    },
    {
      "inputs": [
        {
          "internalType": "uint256",
          "name": "_cycleId",
          "type": "uint256"
        }
      ],
      "name": "getDailyVolume",
      "outputs": [
        {
          "internalType": "uint256",
          "name": "",
          "type": "uint256"
        }
      ],
      "stateMutability": "view",
      "type": "function"
    },
    {
      "inputs": [
        {
          "internalType": "uint256",
          "name": "_cycleId",
          "type": "uint256"
        }
      ],
      "name": "getDailyWinnersCount",
      "outputs": [
        {
          "internalType": "uint256",
          "name": "",
          "type": "uint256"
        }
      ],
      "stateMutability": "view",
      "type": "function"
    },
    {
      "inputs": [],
      "name": "getPlatformDailyStats",
      "outputs": [
        {
          "internalType": "uint256",
          "name": "totalCycles",
          "type": "uint256"
        },
        {
          "internalType": "uint256",
          "name": "totalSlips",
          "type": "uint256"
        },
        {
          "internalType": "uint256",
          "name": "totalUsers",
          "type": "uint256"
        },
        {
          "internalType": "uint256",
          "name": "totalVolume",
          "type": "uint256"
        },
        {
          "internalType": "uint256",
          "name": "totalCorrectPredictions",
          "type": "uint256"
        },
        {
          "internalType": "uint256",
          "name": "totalEvaluatedSlips",
          "type": "uint256"
        },
        {
          "internalType": "uint256",
          "name": "totalWinners",
          "type": "uint256"
        },
        {
          "internalType": "uint256",
          "name": "averageScore",
          "type": "uint256"
        },
        {
          "internalType": "uint256",
          "name": "maxScore",
          "type": "uint256"
        },
        {
          "internalType": "uint256",
          "name": "minScore",
          "type": "uint256"
        }
      ],
      "stateMutability": "view",
      "type": "function"
    },
    {
      "inputs": [
        {
          "internalType": "uint256",
          "name": "_slipId",
          "type": "uint256"
        }
      ],
      "name": "getSlip",
      "outputs": [
        {
          "components": [
            {
              "internalType": "address",
              "name": "player",
              "type": "address"
            },
            {
              "internalType": "uint256",
              "name": "cycleId",
              "type": "uint256"
            },
            {
              "internalType": "uint256",
              "name": "placedAt",
              "type": "uint256"
            },
            {
              "components": [
                {
                  "internalType": "uint64",
                  "name": "matchId",
                  "type": "uint64"
                },
                {
                  "internalType": "enum Oddyssey.BetType",
                  "name": "betType",
                  "type": "uint8"
                },
                {
                  "internalType": "string",
                  "name": "selection",
                  "type": "string"
                },
                {
                  "internalType": "uint32",
                  "name": "selectedOdd",
                  "type": "uint32"
                },
                {
                  "internalType": "string",
                  "name": "homeTeam",
                  "type": "string"
                },
                {
                  "internalType": "string",
                  "name": "awayTeam",
                  "type": "string"
                },
                {
                  "internalType": "string",
                  "name": "leagueName",
                  "type": "string"
                }
              ],
              "internalType": "struct Oddyssey.UserPrediction[10]",
              "name": "predictions",
              "type": "tuple[10]"
            },
            {
              "internalType": "uint256",
              "name": "finalScore",
              "type": "uint256"
            },
            {
              "internalType": "uint8",
              "name": "correctCount",
              "type": "uint8"
            },
            {
              "internalType": "bool",
              "name": "isEvaluated",
              "type": "bool"
            }
          ],
          "internalType": "struct Oddyssey.Slip",
          "name": "",
          "type": "tuple"
        }
      ],
      "stateMutability": "view",
      "type": "function"
    },
    {
      "inputs": [
        {
          "internalType": "address",
          "name": "_user",
          "type": "address"
        }
      ],
      "name": "getUserData",
      "outputs": [
        {
          "components": [
            {
              "internalType": "uint256",
              "name": "totalSlips",
              "type": "uint256"
            },
            {
              "internalType": "uint256",
              "name": "totalWins",
              "type": "uint256"
            },
            {
              "internalType": "uint256",
              "name": "bestScore",
              "type": "uint256"
            },
            {
              "internalType": "uint256",
              "name": "averageScore",
              "type": "uint256"
            },
            {
              "internalType": "uint256",
              "name": "winRate",
              "type": "uint256"
            },
            {
              "internalType": "uint256",
              "name": "currentStreak",
              "type": "uint256"
            },
            {
              "internalType": "uint256",
              "name": "bestStreak",
              "type": "uint256"
            },
            {
              "internalType": "uint256",
              "name": "lastActiveCycle",
              "type": "uint256"
            }
          ],
          "internalType": "struct Oddyssey.UserStats",
          "name": "userStatsData",
          "type": "tuple"
        },
        {
          "internalType": "uint256",
          "name": "reputation",
          "type": "uint256"
        },
        {
          "internalType": "uint256",
          "name": "correctPredictions",
          "type": "uint256"
        }
      ],
      "stateMutability": "view",
      "type": "function"
    },
    {
      "inputs": [
        {
          "internalType": "address",
          "name": "_user",
          "type": "address"
        }
      ],
      "name": "getUserSlipCount",
      "outputs": [
        {
          "internalType": "uint256",
          "name": "",
          "type": "uint256"
        }
      ],
      "stateMutability": "view",
      "type": "function"
    },
    {
      "inputs": [
        {
          "internalType": "address",
          "name": "_user",
          "type": "address"
        },
        {
          "internalType": "uint8",
          "name": "_minCorrect",
          "type": "uint8"
        }
      ],
      "name": "getUserSlipsByPerformance",
      "outputs": [
        {
          "internalType": "uint256[]",
          "name": "slipIds",
          "type": "uint256[]"
        },
        {
          "components": [
            {
              "internalType": "address",
              "name": "player",
              "type": "address"
            },
            {
              "internalType": "uint256",
              "name": "cycleId",
              "type": "uint256"
            },
            {
              "internalType": "uint256",
              "name": "placedAt",
              "type": "uint256"
            },
            {
              "components": [
                {
                  "internalType": "uint64",
                  "name": "matchId",
                  "type": "uint64"
                },
                {
                  "internalType": "enum Oddyssey.BetType",
                  "name": "betType",
                  "type": "uint8"
                },
                {
                  "internalType": "string",
                  "name": "selection",
                  "type": "string"
                },
                {
                  "internalType": "uint32",
                  "name": "selectedOdd",
                  "type": "uint32"
                },
                {
                  "internalType": "string",
                  "name": "homeTeam",
                  "type": "string"
                },
                {
                  "internalType": "string",
                  "name": "awayTeam",
                  "type": "string"
                },
                {
                  "internalType": "string",
                  "name": "leagueName",
                  "type": "string"
                }
              ],
              "internalType": "struct Oddyssey.UserPrediction[10]",
              "name": "predictions",
              "type": "tuple[10]"
            },
            {
              "internalType": "uint256",
              "name": "finalScore",
              "type": "uint256"
            },
            {
              "internalType": "uint8",
              "name": "correctCount",
              "type": "uint8"
            },
            {
              "internalType": "bool",
              "name": "isEvaluated",
              "type": "bool"
            }
          ],
          "internalType": "struct Oddyssey.Slip[]",
          "name": "slipsData",
          "type": "tuple[]"
        }
      ],
      "stateMutability": "view",
      "type": "function"
    },
    {
      "inputs": [
        {
          "internalType": "address",
          "name": "_user",
          "type": "address"
        },
        {
          "internalType": "bool",
          "name": "_evaluatedOnly",
          "type": "bool"
        }
      ],
      "name": "getUserSlipsByStatus",
      "outputs": [
        {
          "internalType": "uint256[]",
          "name": "slipIds",
          "type": "uint256[]"
        },
        {
          "components": [
            {
              "internalType": "address",
              "name": "player",
              "type": "address"
            },
            {
              "internalType": "uint256",
              "name": "cycleId",
              "type": "uint256"
            },
            {
              "internalType": "uint256",
              "name": "placedAt",
              "type": "uint256"
            },
            {
              "components": [
                {
                  "internalType": "uint64",
                  "name": "matchId",
                  "type": "uint64"
                },
                {
                  "internalType": "enum Oddyssey.BetType",
                  "name": "betType",
                  "type": "uint8"
                },
                {
                  "internalType": "string",
                  "name": "selection",
                  "type": "string"
                },
                {
                  "internalType": "uint32",
                  "name": "selectedOdd",
                  "type": "uint32"
                },
                {
                  "internalType": "string",
                  "name": "homeTeam",
                  "type": "string"
                },
                {
                  "internalType": "string",
                  "name": "awayTeam",
                  "type": "string"
                },
                {
                  "internalType": "string",
                  "name": "leagueName",
                  "type": "string"
                }
              ],
              "internalType": "struct Oddyssey.UserPrediction[10]",
              "name": "predictions",
              "type": "tuple[10]"
            },
            {
              "internalType": "uint256",
              "name": "finalScore",
              "type": "uint256"
            },
            {
              "internalType": "uint8",
              "name": "correctCount",
              "type": "uint8"
            },
            {
              "internalType": "bool",
              "name": "isEvaluated",
              "type": "bool"
            }
          ],
          "internalType": "struct Oddyssey.Slip[]",
          "name": "slipsData",
          "type": "tuple[]"
        }
      ],
      "stateMutability": "view",
      "type": "function"
    },
    {
      "inputs": [
        {
          "internalType": "address",
          "name": "_user",
          "type": "address"
        },
        {
          "internalType": "uint256",
          "name": "_cycleId",
          "type": "uint256"
        }
      ],
      "name": "getUserSlipsForCycle",
      "outputs": [
        {
          "internalType": "uint256[]",
          "name": "",
          "type": "uint256[]"
        }
      ],
      "stateMutability": "view",
      "type": "function"
    },
    {
      "inputs": [
        {
          "internalType": "address",
          "name": "_user",
          "type": "address"
        },
        {
          "internalType": "uint256",
          "name": "_cycleId",
          "type": "uint256"
        }
      ],
      "name": "getUserSlipsWithData",
      "outputs": [
        {
          "internalType": "uint256[]",
          "name": "slipIds",
          "type": "uint256[]"
        },
        {
          "components": [
            {
              "internalType": "address",
              "name": "player",
              "type": "address"
            },
            {
              "internalType": "uint256",
              "name": "cycleId",
              "type": "uint256"
            },
            {
              "internalType": "uint256",
              "name": "placedAt",
              "type": "uint256"
            },
            {
              "components": [
                {
                  "internalType": "uint64",
                  "name": "matchId",
                  "type": "uint64"
                },
                {
                  "internalType": "enum Oddyssey.BetType",
                  "name": "betType",
                  "type": "uint8"
                },
                {
                  "internalType": "string",
                  "name": "selection",
                  "type": "string"
                },
                {
                  "internalType": "uint32",
                  "name": "selectedOdd",
                  "type": "uint32"
                },
                {
                  "internalType": "string",
                  "name": "homeTeam",
                  "type": "string"
                },
                {
                  "internalType": "string",
                  "name": "awayTeam",
                  "type": "string"
                },
                {
                  "internalType": "string",
                  "name": "leagueName",
                  "type": "string"
                }
              ],
              "internalType": "struct Oddyssey.UserPrediction[10]",
              "name": "predictions",
              "type": "tuple[10]"
            },
            {
              "internalType": "uint256",
              "name": "finalScore",
              "type": "uint256"
            },
            {
              "internalType": "uint8",
              "name": "correctCount",
              "type": "uint8"
            },
            {
              "internalType": "bool",
              "name": "isEvaluated",
              "type": "bool"
            }
          ],
          "internalType": "struct Oddyssey.Slip[]",
          "name": "slipsData",
          "type": "tuple[]"
        }
      ],
      "stateMutability": "view",
      "type": "function"
    },
    {
      "inputs": [
        {
          "internalType": "uint256",
          "name": "_cycleId",
          "type": "uint256"
        }
      ],
      "name": "isCycleInitialized",
      "outputs": [
        {
          "internalType": "bool",
          "name": "",
          "type": "bool"
        }
      ],
      "stateMutability": "view",
      "type": "function"
    },
    {
      "inputs": [
        {
          "internalType": "uint256",
          "name": "",
          "type": "uint256"
        }
      ],
      "name": "isCycleResolved",
      "outputs": [
        {
          "internalType": "bool",
          "name": "",
          "type": "bool"
        }
      ],
      "stateMutability": "view",
      "type": "function"
    },
    {
      "inputs": [],
      "name": "oracle",
      "outputs": [
        {
          "internalType": "address",
          "name": "",
          "type": "address"
        }
      ],
      "stateMutability": "view",
      "type": "function"
    },
    {
      "inputs": [],
      "name": "owner",
      "outputs": [
        {
          "internalType": "address",
          "name": "",
          "type": "address"
        }
      ],
      "stateMutability": "view",
      "type": "function"
    },
    {
      "inputs": [
        {
          "components": [
            {
              "internalType": "uint64",
              "name": "matchId",
              "type": "uint64"
            },
            {
              "internalType": "enum Oddyssey.BetType",
              "name": "betType",
              "type": "uint8"
            },
            {
              "internalType": "string",
              "name": "selection",
              "type": "string"
            },
            {
              "internalType": "uint32",
              "name": "selectedOdd",
              "type": "uint32"
            },
            {
              "internalType": "string",
              "name": "homeTeam",
              "type": "string"
            },
            {
              "internalType": "string",
              "name": "awayTeam",
              "type": "string"
            },
            {
              "internalType": "string",
              "name": "leagueName",
              "type": "string"
            }
          ],
          "internalType": "struct Oddyssey.UserPrediction[10]",
          "name": "_predictions",
          "type": "tuple[10]"
        }
      ],
      "name": "placeSlip",
      "outputs": [],
      "stateMutability": "payable",
      "type": "function"
    },
    {
      "inputs": [
        {
          "internalType": "uint256",
          "name": "",
          "type": "uint256"
        },
        {
          "internalType": "uint8",
          "name": "",
          "type": "uint8"
        }
      ],
      "name": "prizeClaimed",
      "outputs": [
        {
          "internalType": "bool",
          "name": "",
          "type": "bool"
        }
      ],
      "stateMutability": "view",
      "type": "function"
    },
    {
      "inputs": [],
      "name": "renounceOwnership",
      "outputs": [],
      "stateMutability": "nonpayable",
      "type": "function"
    },
    {
      "inputs": [
        {
          "internalType": "uint256",
          "name": "_cycleId",
          "type": "uint256"
        },
        {
          "components": [
            {
              "internalType": "enum Oddyssey.MoneylineResult",
              "name": "moneyline",
              "type": "uint8"
            },
            {
              "internalType": "enum Oddyssey.OverUnderResult",
              "name": "overUnder",
              "type": "uint8"
            }
          ],
          "internalType": "struct Oddyssey.Result[10]",
          "name": "_results",
          "type": "tuple[10]"
        }
      ],
      "name": "resolveDailyCycle",
      "outputs": [],
      "stateMutability": "nonpayable",
      "type": "function"
    },
    {
      "inputs": [
        {
          "internalType": "uint256[]",
          "name": "_cycleIds",
          "type": "uint256[]"
        },
        {
          "components": [
            {
              "internalType": "enum Oddyssey.MoneylineResult",
              "name": "moneyline",
              "type": "uint8"
            },
            {
              "internalType": "enum Oddyssey.OverUnderResult",
              "name": "overUnder",
              "type": "uint8"
            }
          ],
          "internalType": "struct Oddyssey.Result[10][]",
          "name": "_results",
          "type": "tuple[10][]"
        }
      ],
      "name": "resolveMultipleCycles",
      "outputs": [],
      "stateMutability": "nonpayable",
      "type": "function"
    },
    {
      "inputs": [
        {
          "internalType": "address",
          "name": "_enhancedReputationSystem",
          "type": "address"
        }
      ],
      "name": "setEnhancedReputationSystem",
      "outputs": [],
      "stateMutability": "nonpayable",
      "type": "function"
    },
    {
      "inputs": [
        {
          "internalType": "uint256",
          "name": "_newFee",
          "type": "uint256"
        }
      ],
      "name": "setEntryFee",
      "outputs": [],
      "stateMutability": "nonpayable",
      "type": "function"
    },
    {
      "inputs": [
        {
          "internalType": "address",
          "name": "_newOracle",
          "type": "address"
        }
      ],
      "name": "setOracle",
      "outputs": [],
      "stateMutability": "nonpayable",
      "type": "function"
    },
    {
      "inputs": [],
      "name": "slipCount",
      "outputs": [
        {
          "internalType": "uint256",
          "name": "",
          "type": "uint256"
        }
      ],
      "stateMutability": "view",
      "type": "function"
    },
    {
      "inputs": [
        {
          "internalType": "uint256",
          "name": "",
          "type": "uint256"
        }
      ],
      "name": "slips",
      "outputs": [
        {
          "internalType": "address",
          "name": "player",
          "type": "address"
        },
        {
          "internalType": "uint256",
          "name": "cycleId",
          "type": "uint256"
        },
        {
          "internalType": "uint256",
          "name": "placedAt",
          "type": "uint256"
        },
        {
          "internalType": "uint256",
          "name": "finalScore",
          "type": "uint256"
        },
        {
          "internalType": "uint8",
          "name": "correctCount",
          "type": "uint8"
        },
        {
          "internalType": "bool",
          "name": "isEvaluated",
          "type": "bool"
        }
      ],
      "stateMutability": "view",
      "type": "function"
    },
    {
      "inputs": [
        {
          "components": [
            {
              "internalType": "uint64",
              "name": "id",
              "type": "uint64"
            },
            {
              "internalType": "uint64",
              "name": "startTime",
              "type": "uint64"
            },
            {
              "internalType": "uint32",
              "name": "oddsHome",
              "type": "uint32"
            },
            {
              "internalType": "uint32",
              "name": "oddsDraw",
              "type": "uint32"
            },
            {
              "internalType": "uint32",
              "name": "oddsAway",
              "type": "uint32"
            },
            {
              "internalType": "uint32",
              "name": "oddsOver",
              "type": "uint32"
            },
            {
              "internalType": "uint32",
              "name": "oddsUnder",
              "type": "uint32"
            },
            {
              "internalType": "string",
              "name": "homeTeam",
              "type": "string"
            },
            {
              "internalType": "string",
              "name": "awayTeam",
              "type": "string"
            },
            {
              "internalType": "string",
              "name": "leagueName",
              "type": "string"
            },
            {
              "components": [
                {
                  "internalType": "enum Oddyssey.MoneylineResult",
                  "name": "moneyline",
                  "type": "uint8"
                },
                {
                  "internalType": "enum Oddyssey.OverUnderResult",
                  "name": "overUnder",
                  "type": "uint8"
                }
              ],
              "internalType": "struct Oddyssey.Result",
              "name": "result",
              "type": "tuple"
            }
          ],
          "internalType": "struct Oddyssey.Match[10]",
          "name": "_matches",
          "type": "tuple[10]"
        }
      ],
      "name": "startDailyCycle",
      "outputs": [],
      "stateMutability": "nonpayable",
      "type": "function"
    },
    {
      "inputs": [],
      "name": "stats",
      "outputs": [
        {
          "internalType": "uint256",
          "name": "totalVolume",
          "type": "uint256"
        },
        {
          "internalType": "uint32",
          "name": "totalSlips",
          "type": "uint32"
        },
        {
          "internalType": "uint256",
          "name": "highestOdd",
          "type": "uint256"
        }
      ],
      "stateMutability": "view",
      "type": "function"
    },
    {
      "inputs": [
        {
          "internalType": "address",
          "name": "newOwner",
          "type": "address"
        }
      ],
      "name": "transferOwnership",
      "outputs": [],
      "stateMutability": "nonpayable",
      "type": "function"
    },
    {
      "inputs": [
        {
          "internalType": "address",
          "name": "",
          "type": "address"
        }
      ],
      "name": "userOddysseyCorrectPredictions",
      "outputs": [
        {
          "internalType": "uint256",
          "name": "",
          "type": "uint256"
        }
      ],
      "stateMutability": "view",
      "type": "function"
    },
    {
      "inputs": [
        {
          "internalType": "address",
          "name": "",
          "type": "address"
        }
      ],
      "name": "userOddysseyReputation",
      "outputs": [
        {
          "internalType": "uint256",
          "name": "",
          "type": "uint256"
        }
      ],
      "stateMutability": "view",
      "type": "function"
    },
    {
      "inputs": [
        {
          "internalType": "address",
          "name": "",
          "type": "address"
        }
      ],
      "name": "userStats",
      "outputs": [
        {
          "internalType": "uint256",
          "name": "totalSlips",
          "type": "uint256"
        },
        {
          "internalType": "uint256",
          "name": "totalWins",
          "type": "uint256"
        },
        {
          "internalType": "uint256",
          "name": "bestScore",
          "type": "uint256"
        },
        {
          "internalType": "uint256",
          "name": "averageScore",
          "type": "uint256"
        },
        {
          "internalType": "uint256",
          "name": "winRate",
          "type": "uint256"
        },
        {
          "internalType": "uint256",
          "name": "currentStreak",
          "type": "uint256"
        },
        {
          "internalType": "uint256",
          "name": "bestStreak",
          "type": "uint256"
        },
        {
          "internalType": "uint256",
          "name": "lastActiveCycle",
          "type": "uint256"
        }
      ],
      "stateMutability": "view",
      "type": "function"
    }
  ],
  "bytecode": "0x60e0346200015b5762005f9b90601f38839003908101601f19168201906001600160401b038211838310176200016057808391604095869485528339810103126200015b5780516001600160a01b03808216929091908382036200015b576020015191331562000143576000549360018060a01b03199433868216176000558651923391167f8be0079c531659141344cd1fd0a4f28419497f9722a3daafe3b4186f6b6457e0600080a360018055156200013457506706f05b59d3b200008203620001235760c052600355339060025416176002556101f48060805260a05251615e249081620001778239608051818181611c590152615239015260a051818181611d1a015261599d015260c051818181612027015281816152690152615a030152f35b835163b4fa3fb360e01b8152600490fd5b63b4fa3fb360e01b8152600490fd5b8451631e4fbdf760e01b815260006004820152602490fd5b600080fd5b634e487b7160e01b600052604160045260246000fdfe6080604052600436101561001257600080fd5b60003560e01c806302c009ef14613d19578063042db2e61461102157806305b61d1114613cfb578063072ea61c14613cdd5780630832275e14613b9557806314bd964414613b7957806317ee395b14613b315780631e7e465f14613a2b5780632012ef03146137f1578063208b75bd14613631578063210d5f5f14613606578063236e7a7a146134b357806325a2e0ed14611f50578063294f317d146134695780632ac5df931461343d578063328621a6146132e1578063361a97921461327157806340e751ca14611fe557806344f79609146131f05780634b742480146123885780634c3b1939146131ac5780634f4bc86e146131725780635052617d14613156578063590d0f99146131395780635932ec0a146125625780635ace0680146123f85780635b2fcc2514610ff5578063625d9ce5146123dc5780636977f546146123b45780636f3fb30314612388578063715018a61461234157806373d22573146122bb578063745be5761461228f5780637adbf9731461221a5780637d208cee146121e05780637dc0d1d0146121b75780637e12170d1461216e57806383660217146121065780638a65d8741461207f5780638da5cb5b146120565780638ea5220f146120115780639102e43014611fe5578063911456c114611fbf57806391230fa314611f7c578063943ca3b9146104b75780639911113d14611f5057806399a1c282146107995780639ad7884c14611efc5780639bea95ac14611ecb578063a0a806e714611e40578063a1ce7ecb14611d3d578063a4957efe14611d02578063af9b2bfb14611c7c578063b0dbf47d14611c41578063ba1487ad14611932578063ba61ebde1461103f578063be26ed7f14611021578063bf28875714610573578063c276e94f14610ff5578063c503b25114610f52578063c56a00de14610ee1578063c5cc726914610b01578063c6b6850814610ea7578063c81b986c14610dd0578063c98aa5ed14610b2d578063cb2a743614610b01578063cb9941da14610844578063ccb0b3c31461081b578063d2b17b5a146107ef578063d7098154146107c5578063d735058b14610799578063d80528ae14610764578063e2f800d71461063c578063e734e60c14610610578063eb770d0c1461059f578063eebf3be514610573578063f2fde38b146104ff578063fbb0de53146104e3578063fd847e01146104b75763ffc9896b1461038c57600080fd5b346104b2576020806003193601126104b257610140906103aa614abb565b600060e06040516103ba816148a9565b82815282858201528260408201528260608201528260808201528260a08201528260c0820152015260018060a01b031660005260078152604060002060088252604060002054600983526040600020549160405190610418826148a9565b805494858352600182015490808401918252600283015460408501908152600384015490606086019182526004850154926080870193845260058601549460a0880195865260e0600760068901549860c08b01998a52015498019788526040519a8b5251908a01525160408901525160608801525160808701525160a08601525160c08501525160e0840152610100830152610120820152f35b600080fd5b346104b25760203660031901126104b25760043560005260186020526020604060002054604051908152f35b346104b25760003660031901126104b257602060405160078152f35b346104b25760203660031901126104b257610518614abb565b610520614d91565b6001600160a01b0390811690811561055a576000548260018060a01b031982161760005516600080516020615daf833981519152600080a3005b604051631e4fbdf760e01b815260006004820152602490fd5b346104b25760203660031901126104b25760043560005260166020526020604060002054604051908152f35b346104b25760203660031901126104b2576004356105bb614d91565b6706f05b59d3b2000081036105fe5760035481146105fe57806003557f565a4bfd76b3419546eefb0f3228d436837362a9b57e0c3a03227225dfec023d600080a2005b60405163b4fa3fb360e01b8152600490fd5b346104b25760203660031901126104b257600435600052600c6020526020604060002054604051908152f35b346104b2576020806003193601126104b2576004359061065a615ba5565b5081600052601681526040600020549060178152604060002054601882526040600020546019835260406000205494601a84526040600020548015156000146107585760198552604060002054966103e89788810298818a041490151715610742576106d76101209884600052601a885260406000205490615126565b925b600052601c865260406000205493601d875260406000205495601e8852604060002054976040519961070a8b61485e565b8a5289015260408801526060870152608086015260a085015260c084015260e08301526101008201526107406040518092614940565bf35b634e487b7160e01b600052601160045260246000fd5b610120966000926106d9565b346104b25760003660031901126104b2576060601f5463ffffffff602054166021549060405192835260208301526040820152f35b346104b25760203660031901126104b257600435600052601e6020526020604060002054604051908152f35b346104b25760203660031901126104b2576107de615074565b6107e9600435615176565b60018055005b346104b25760203660031901126104b257600435600052601b6020526020604060002054604051908152f35b346104b25760003660031901126104b2576006546040516001600160a01b039091168152602090f35b346104b25760403660031901126104b25761085d614abb565b6108656145d6565b9060018060a01b038091166000526020906012825260406000206040519081848254918281520191600052846000209060005b818110610aed57505050816108ae9103826148e0565b6108b88151615c36565b9160009460009160ff809216925b84518110156109c8576108d98186614e51565b51600052601087526040600020846040516108f381614827565b848354168152600192838101548b8301526002810154604083015260405161091a81614842565b80948c600384016000915b600a831061099f57505050508293945060606040930152603f810154608084015201549060c086808416938460a085015260081c1615159101521015610974575b61096f90614dbd565b6108c6565b9661099761096f916109868a88614e51565b51610991828a614e51565b52614dbd565b979050610966565b839597508193929496986109b4600693615097565b815201920192018a9593919694928e610925565b85878984866109d683615c36565b936109e08461547a565b9560005b8581106109fe57604051806109fa8a8a83614b05565b0390f35b610a088183614e51565b51610a138289614e51565b52610a1e8183614e51565b5160005260108352604060002090604051610a3881614827565b86835416815285600193848101548784015260028101546040840152604051610a6081614842565b8095600383016000905b8a600a8310610ac257505050506060840152603f81015460808401526040015481811660a084015260081c16151560c0820152610abd9250610aac828b614e51565b52610ab7818a614e51565b50614dbd565b6109e4565b8395979899829493959750610ad8600693615097565b815201920192018a9492979695939197610a6a565b825484529286019260019283019201610898565b346104b25760203660031901126104b257600435600052601c6020526020604060002054604051908152f35b346104b25760403660031901126104b257610b46614abb565b6024358015158091036104b25760018060a01b03809216600052602090601282526040600020604051808285829454938481520190600052856000209260005b87828210610dba57505050610b9d925003826148e0565b610ba78151615c36565b9160009460005b8351811015610caa57610bc18185614e51565b5160005260108652604060002083604051610bdb81614827565b848354168152600192838101548a83015260028101546040830152604051610c0281614842565b8094600383016000905b8d600a8310610c82575050505060c0939450906040916060840152603f8101546080840152015460ff9081811660a084015260081c161515918291015214610c5d575b610c5890614dbd565b610bae565b95610c7a610c5891610c6f8987614e51565b516109918289614e51565b969050610c4f565b83959750819392949698610c97600693615097565b8152019201920189959391969492610c0c565b84868884610cb782615c36565b92610cc18361547a565b9460005b848110610cdb57604051806109fa898983614b05565b610ce58183614e51565b51610cf08288614e51565b52610cfb8183614e51565b5160005260108352604060002060405190610d1582614827565b858154168252600180820154868401526002820154604084015260405190610d3c82614842565b60006003840188845b600a8410610d9c57505050505082916040916060610d9796950152603f8101546080840152015460ff9081811660a084015260081c16151560c0820152610d8c828a614e51565b52610ab78189614e51565b610cc5565b8491600691610daa85615097565b8152019201920191908990610d45565b8554845260019586019587955093019201610b86565b346104b2576020806003193601126104b257610dea61543b565b506004356000526010815260406000209060405191610e0883614827565b80546001600160a01b031683526001818101548385015260028201546040808601919091525190610e3882614842565b60038301600085845b600a8310610e8957888260ff60408a8a6060860152603f8101546080860152015481811660a085015260081c16151560c08301526109fa604051928284938452830190614673565b8491600691610e9786615097565b8152019301910190918690610e41565b346104b25760203660031901126104b2576001600160a01b03610ec8614abb565b1660005260086020526020604060002054604051908152f35b346104b2576020806003193601126104b257610efb6153a3565b50600435600052600a80825260406000209060405191610f1a83614842565b92600090835b838310610f3557604051806109fa87826149c2565b600682600192610f4489614e65565b815201960192019194610f20565b346104b25760203660031901126104b2576004356001600160401b0381116104b257610f82903690600401614d33565b60005b8151811015610ff357610f988183614e51565b5190303b156104b257604051916335c2605560e21b8352600483015260008260248183305af1918215610fe757610fd392610fd85750614dbd565b610f85565b610fe19061487a565b83610ab7565b6040513d6000823e3d90fd5b005b346104b25760203660031901126104b25760043560005260196020526020604060002054604051908152f35b346104b25760003660031901126104b2576020600454604051908152f35b346104b2576003196020368201126104b257600435906001600160401b0382116104b257366023830112156104b2576040519161107b83614842565b8261014490818301923684116104b25780600401915b8483106117f35760025487906001600160a01b031633036117e2574261012c810191906001600160401b0390831060005b600a808210156111ff576110d68286614dcc565b5180519091906001600160401b0316156111ed576020820180519092906001600160401b031685610742578810156111db5763ffffffff806040830151161580156111cd575b80156111bf575b6105fe578060a083015116159081156111b0575b506105fe5760018401808511610742575b82811061118257505090516001600160401b03908116915084168110611178575b5061117390614dbd565b6110c2565b9250611173611169565b81516001600160401b039081169061119a838b614dcc565b515116146105fe576111ab90614dbd565b611148565b905060c0820151161589611137565b508060808301511615611123565b50806060830151161561111c565b60405163c8b9bc9160e01b8152600490fd5b604051635a26d5fd60e11b8152600490fd5b84868585610742576001600160401b0316908111156111db57611223600454614dbd565b918260045560001983018381116107425761123d90615941565b6001600160401b0361012b19830111610742576000838152600a60205260408120915b600a821061138e57847f62eeb403dc233a7676f50cdb0fd72dae595aeb7c63039adce5caacc33254f9c060208683600052600b825260018060401b039061012b19011680604060002055600c825260001960406000205560148252604060002060ff1981541690556040516112d481614827565b42815282810182815260408201600081526113496060840160008152600360808601956000875260a08101946001865260c0820196600088528c600052600f8b52604060002092518355516001830155516002820155019463ffffffff8092511663ffffffff19875416178655511684614e2e565b519061135482614996565b61135d82614996565b8254905161ffff60401b19909116604092831b60ff60401b161790151560481b60ff60481b161790915551908152a2005b805180516020820151604080840151606085015160808087015160a08089015160c092831b63ffffffff60c01b169490911b63ffffffff60a01b169490921b63ffffffff60801b169590941b600160401b600160801b03166001600160401b039687161794909417919091171760e092831b6001600160e01b03191617875583015160018701805463ffffffff191663ffffffff9290921691909117905582015180519182116116685781906114476002880154614c08565b601f81116117ad575b50602090601f831160011461173b57600092611730575b50508160011b916000199060031b1c19161760028501555b6101008101518051906001600160401b0382116116685781906114a56003880154614c08565b601f81116116fb575b50602090601f83116001146116895760009261167e575b50508160011b916000199060031b1c19161760038501555b6101208101518051906001600160401b0382116116685781906115036004880154614c08565b601f8111611628575b50602090601f83116001146115b6576000926115ab575b50508160011b916000199060031b1c19161760048501555b6101400151805191600585019061155184614996565b61155a84614996565b602082549301519160038310156115955760019460069460ff61ff0060209660081b1692169061ffff19161717905501930191019091611260565b634e487b7160e01b600052602160045260246000fd5b015190508880611523565b9250600487016000526020600020906000935b601f198416851061160d576001945083601f198116106115f4575b505050811b01600485015561153b565b015160001960f88460031b161c191690558880806115e4565b818101518355602094850194600190930192909101906115c9565b611658906004890160005260206000206005601f8601811c8201926020871061165e575b601f01901c0190614e0a565b8961150c565b919250829161164c565b634e487b7160e01b600052604160045260246000fd5b0151905088806114c5565b9250600387016000526020600020906000935b601f19841685106116e0576001945083601f198116106116c7575b505050811b0160038501556114dd565b015160001960f88460031b161c191690558880806116b7565b8181015183556020948501946001909301929091019061169c565b61172a906003890160005260206000206005601f8601811c8201926020871061165e57601f01901c0190614e0a565b896114ae565b015190508880611467565b9250600287016000526020600020906000935b601f1984168510611792576001945083601f19811610611779575b505050811b01600285015561147f565b015160001960f88460031b161c19169055888080611769565b8181015183556020948501946001909301929091019061174e565b6117dc906002890160005260206000206005601f8601811c8201926020871061165e57601f01901c0190614e0a565b89611450565b6040516282b42960e81b8152600490fd5b82356001600160401b0381116104b25782016101808782360301126104b2576040519161181f8361488d565b61182b60048301614b2d565b835261183960248301614b2d565b602084015261184a60448301614ba3565b604084015261185b60648301614ba3565b606084015261186c60848301614ba3565b608084015261187d60a48301614ba3565b60a084015261188e60c48301614ba3565b60c084015260e48201356001600160401b0381116104b2576118b69060043691850101614b5c565b60e08401526101048201356001600160401b0381116104b2576118df9060043691850101614b5c565b610100840152610124820135926001600160401b0384116104b25761192160209493611912869560043691840101614b5c565b61012084015288369101614903565b610140820152815201920191611091565b346104b25760403660031901126104b2576001600160401b036004358181116104b257611963903690600401614d33565b602480359283116104b257366023840112156104b25782600401359061198882614d1c565b9161199660405193846148e0565b80835260209485840183610280809402830101913683116104b2578401905b828210611bdc5750506002546001600160a01b0392508216330390506117e25783518351036105fe5760328451116105fe5760005b8451811015610ff3576119fd8186614e51565b51611a088286614e51565b51836002541633036117e25781158015611bd1575b6111ed5781600052600f808952604060002054156111ed5782600052885260406000206003808201928160ff855460401c16611a5881614996565b14611bbf576001809301544211156111db576000835b611b29575b5050825460ff60401b1916600360401b17835550600083815260148a5260409020805460ff191690911790555463ffffffff16611aee579081611ae992600052600c8852426040600020555b80600052600d8852600080516020615d8f83398151915288604060002054604051908152a2614dbd565b6119ea565b620151804201804211611b145790611ae9929181600052600c8952604060002055611abf565b84634e487b7160e01b60005260116004526000fd5b600a80821015611bb957611b3d8284614dcc565b5190876000528d528c6005611b56846040600020614bf4565b500191805191611b6583614996565b611b6e83614996565b835491015186811015611ba45791611b9e939160ff61ff008a979560081b1692169061ffff191617179055614dbd565b90611a6e565b8c634e487b7160e01b60005260216004526000fd5b50611a73565b60405163baf3f0f760e01b8152600490fd5b506004548211611a1d565b36601f830112156104b257604051611bf381614842565b828501813682116104b257918693918b9386905b828210611c1c575050508152019101906119b5565b604092949650611c30959193953685614903565b8152019101918794928c9492611c07565b346104b25760003660031901126104b25760206040517f00000000000000000000000000000000000000000000000000000000000000008152f35b346104b25760203660031901126104b2576004356001600160401b0381116104b257611cac903690600401614d33565b60005b8151811015610ff357611cc28183614e51565b5190303b156104b257604051916302c009ef60e01b8352600483015260008260248183305af1918215610fe757611cfd92610fd85750614dbd565b611caf565b346104b25760003660031901126104b25760206040517f00000000000000000000000000000000000000000000000000000000000000008152f35b346104b257611d4b36614bb4565b90600052600a602052604060002090600a8110156104b257611d6c91614bf4565b5080549063ffffffff906109fa611e348360018401541692611e25611d9360028301614c42565b611e16611da260038501614c42565b91611dbb6005611db460048801614c42565b9601614ce8565b976040519a8b9a60018060401b038083168d528260401c1660208d0152808260801c1660408d0152808260a01c1660608d01528160c01c1660808c015260e01c60a08b015260c08a01526101808060e08b0152890190614633565b90878203610100890152614633565b90858203610120870152614633565b916101408401906149a0565b346104b2576020806003193601126104b2576001600160a01b03611e62614abb565b1660005260128152604060002090604051808383829554938481520190600052836000209260005b85828210611eb557505050611ea1925003836148e0565b6109fa604051928284938452830190614ad1565b8554845260019586019588955093019201611e8a565b346104b25760203660031901126104b2576004356000526014602052602060ff604060002054166040519015158152f35b346104b25760203660031901126104b25760c060ff63ffffffff611f21600435615592565b9594969093604093929351971515885216602087015260408601526060850152166080830152151560a0820152f35b346104b25760203660031901126104b257600435600052601a6020526020604060002054604051908152f35b346104b25760203660031901126104b257611f95614abb565b611f9d614d91565b600680546001600160a01b0319166001600160a01b0392909216919091179055005b346104b25760203660031901126104b2576020611fdd600435615bea565b604051908152f35b346104b25760203660031901126104b257600435600052601d6020526020604060002054604051908152f35b346104b25760003660031901126104b2576040517f00000000000000000000000000000000000000000000000000000000000000006001600160a01b03168152602090f35b346104b25760003660031901126104b2576000546040516001600160a01b039091168152602090f35b346104b25760203660031901126104b2576001600160a01b036120a0614abb565b1660005260076020526101006040600020805490600181015490600281015460038201546004830154906005840154926007600686015495015495604051978852602088015260408701526060860152608085015260a084015260c083015260e0820152f35b346104b25761211436614bb4565b906000526013602052604060002060058210156104b25760809161213791614bca565b5060018060a01b038154169060018101549060ff600360028301549201541691604051938452602084015260408301526060820152f35b346104b25760203660031901126104b257600435600052600e602052606060406000206001815491015460405191825263ffffffff90818116602084015260201c166040820152f35b346104b25760003660031901126104b2576002546040516001600160a01b039091168152602090f35b346104b25760203660031901126104b2576001600160a01b03612201614abb565b1660005260126020526020604060002054604051908152f35b346104b25760203660031901126104b257612233614abb565b61223b614d91565b6001600160a01b039081169081156105fe5760025490811682146105fe576001600160a01b03191681176002557f3f32684a32a11dabdbb8c0177de80aa3ae36a004d75210335b49e544e48cd0aa600080a2005b346104b25760203660031901126104b257600435600052600d6020526020604060002054604051908152f35b346104b25760403660031901126104b2576122d4614abb565b6024356000526020906011825260406000209060018060a01b03166000528152604060002090604051808383829554938481520190600052836000209260005b8582821061232b57505050611ea1925003836148e0565b8554845260019586019588955093019201612314565b346104b25760003660031901126104b25761235a614d91565b600080546001600160a01b0319811682556001600160a01b0316600080516020615daf8339815191528280a3005b346104b25760203660031901126104b25760043560005260176020526020604060002054604051908152f35b346104b25760203660031901126104b25760206123d2600435615aa1565b6040519015158152f35b346104b25760003660031901126104b257602060405160058152f35b346104b2576020806003193601126104b2576001600160a01b038061241b614abb565b1660005260128252604060002090604051808385829554938481520190600052856000209260005b8782821061254c5750505061245a925003836148e0565b612464825161547a565b9260005b835181101561253a5761247b8185614e51565b516000526010825260406000206040519061249582614827565b8481541682526001808201548584015260028201546040840152604051906124bc82614842565b60006003840187845b600a841061251c5750505050508291604091606061251796950152603f8101546080840152015460ff9081811660a084015260081c16151560c082015261250c8288614e51565b52610ab78187614e51565b612468565b849160069161252a85615097565b81520192019201919088906124c5565b5050506109fa60405192839283614b05565b8554845260019586019588955093019201612443565b6003196020368201126104b257600435906001600160401b0382116104b257366023830112156104b2576040519161259983614842565b82916101448201913683116104b25780600401935b83851061302c57856125be615074565b6004548015611bbf5780600052600f6020526040600020600160ff600383015460401c166125eb81614996565b03611bbf5760018101544210156111db57600354340361301a5781600052600a60205260406000209260005b600a8110612e985750612628614fa6565b9360005b600a8110612da757505050600554926040519061264882614827565b33825260208083018581524260408086019182526060860194855260006080870181905260a0870181905260c0870181905289815260109094528320855181546001600160a01b0319166001600160a01b03919091161781559151600183015551600282015591516003830191905b600a82106128f3575050506040906080830151603f820155019060ff60a08201511661ff0060c08454930151151560081b169161ffff1916171790556126fe600554614dbd565b60055581600052601160205260406000203360005260205261272483604060002061502a565b33600052601260205261273b83604060002061502a565b81600052600d6020526040600020612754348254614ddd565b905561276234601f54614ddd565b601f55600360205463ffffffff908161277c81831661505f565b1663ffffffff198092161760205584600052600e60205260406000206127a3348254614ddd565b905584600052600e6020526001604060002001805482846127c581841661505f565b169116179055600284016127da348254614ddd565b905582840154916127ec81841661505f565b16911617910155806000526016602052604060002061280b8154614dbd565b90558060005260186020526040600020612826348254614ddd565b90558060005260116020526040600020336000526020526001604060002054146128d4575b33600052600760205260406000206128638154614dbd565b908181558260078201556001810154906004600282015491015491604051938452602084015260408301526060820152600080516020615dcf83398151915260803392a233907ff6e7d09282448c842ef23b148b6dfa2dc4b69839898341f8fb5065eb496cb0fa600080a460018055005b80600052601760205260406000206128ec8154614dbd565b905561284b565b805180518454602083015190916001600160401b0316906002811015611595576001600160481b031990921617604091821b60ff60401b161785558101518051906001600160401b0382116116685781906129516001880154614c08565b601f8111612d72575b50602090601f8311600114612d0057600092612cf5575b50508160011b916000199060031b1c19161760018501555b6002840163ffffffff60608301511663ffffffff19825416179055608081015180519060018060401b0382116116685781906129c86003880154614c08565b601f8111612cc0575b50602090601f8311600114612c4e57600092612c43575b50508160011b916000199060031b1c19161760038501555b60a08101518051906001600160401b03821161166857612a236004870154614c08565b601f8111612c0e575b50602090601f8311600114612b9b5760c093929160009183612b90575b50508160011b916000199060031b1c19161760048601555b01518051906001600160401b03821161166857612a816005860154614c08565b601f8111612b50575b50602090601f8311600114612ada579282600693602093600196600092612acf575b5050600019600383901b1c191690851b1760058701555b019301910190916126b7565b015190508d80612aac565b906005860160005260206000209160005b601f1985168110612b38575083602093600196938793600697601f19811610612b1f575b505050811b016005870155612ac3565b015160001960f88460031b161c191690558d8080612b0f565b91926020600181928685015181550194019201612aeb565b612b8090600587016000526020600020601f850160051c81019160208610612b86575b601f0160051c0190614e0a565b8a612a8a565b9091508190612b73565b015190508c80612a49565b906004870160005260206000209160005b601f1985168110612bf6575091839160019360c09695601f19811610612bdd575b505050811b016004860155612a61565b015160001960f88460031b161c191690558c8080612bcd565b91926020600181928685015181550194019201612bac565b612c3d90600488016000526020600020601f850160051c81019160208610612b8657601f0160051c0190614e0a565b8b612a2c565b015190508b806129e8565b9250600387016000526020600020906000935b601f1984168510612ca5576001945083601f19811610612c8c575b505050811b016003850155612a00565b015160001960f88460031b161c191690558b8080612c7c565b81810151835560209485019460019093019290910190612c61565b612cef90600389016000526020600020601f850160051c81019160208610612b8657601f0160051c0190614e0a565b8c6129d1565b015190508b80612971565b9250600187016000526020600020906000935b601f1984168510612d57576001945083601f19811610612d3e575b505050811b016001850155612989565b015160001960f88460031b161c191690558b8080612d2e565b81810151835560209485019460019093019290910190612d13565b612da190600189016000526020600020601f850160051c81019160208610612b8657601f0160051c0190614e0a565b8c61295a565b6001600160401b03612db98285614dcc565b5151166020612dc88386614dcc565b51015160028082101561159557612ddf8487614dcc565b516040015190606080612df2878a614dcc565b51015163ffffffff16612e058789614bf4565b5091612e11888a614bf4565b5094612e1d898b614bf4565b509660405198612e2c8a614827565b8952612e3b9060208a01615006565b604088015286015201612e4d90614c42565b6080840152600301612e5e90614c42565b60a0830152600401612e6f90614c42565b60c0820152612e7e8288614dcc565b52612e898187614dcc565b50612e9390614dbd565b61262c565b612ea28183614dcc565b5180516001600160401b0316612eb88388614bf4565b50546001600160401b0316036105fe57612edb612ed58388614bf4565b50614e65565b602082018051906002918281101561159557612fa857505060408201805160208151910120612f08614f4f565b6020815191012014600014612f4a57506040015163ffffffff165b63ffffffff8091169182156105fe576060015116036105fe57612f4590614dbd565b612617565b805160208151910120612f5b614f6c565b6020815191012014600014612f7a57506060015163ffffffff16612f23565b5160208151910120612f8a614f89565b60208151910120146000146105fe576080015163ffffffff16612f23565b5190811015611595576001036105fe5760408201805160208151910120612fcd614f0e565b6020815191012014600014612fec575060a0015163ffffffff16612f23565b5160208151910120612ffc614f2e565b60208151910120146000146105fe5760c0015163ffffffff16612f23565b60405163356680b760e01b8152600490fd5b84356001600160401b0381116104b257820160e08482360301126104b2576040519161305783614827565b61306360048301614b2d565b8352602482013560028110156104b257602084015260448201356001600160401b0381116104b25761309b9060043691850101614b5c565b60408401526130ac60648301614ba3565b606084015260848201356001600160401b0381116104b2576130d49060043691850101614b5c565b608084015260a48201356001600160401b0381116104b2576130fc9060043691850101614b5c565b60a084015260c4820135926001600160401b0384116104b257613129602094936004869536920101614b5c565b60c08201528152019401936125ae565b346104b25760003660031901126104b25760206040516103e88152f35b346104b25760003660031901126104b2576020604051600a8152f35b346104b25760203660031901126104b2576001600160a01b03613193614abb565b1660005260096020526020604060002054604051908152f35b346104b25760003660031901126104b25760a060ff63ffffffff6131ce6154da565b9395909260405196875216602086015260408501526060840152166080820152f35b346104b25760203660031901126104b257600435600052600f60205260e0604060002060ff81549160018101546003600283015492015491838360401c16916040519586526020860152604085015263ffffffff80831660608601528260201c16608085015261325f81614996565b60a084015260481c16151560c0820152f35b346104b25760203660031901126104b257600435600052601060205260c0604060002060ff60018060a01b038254169160018101549060028101546040603f83015492015492604051958652602086015260408501526060840152818116608084015260081c16151560a0820152f35b346104b25760403660031901126104b2576132fa614abb565b60243560005260209060118252604060002060018060a01b038092166000528252604060002090604051808385829554938481520190600052856000209260005b8782821061342757505050613352925003836148e0565b61335c825161547a565b9260005b835181101561253a576133738185614e51565b516000526010825260406000206040519061338d82614827565b8481541682526001808201548584015260028201546040840152604051906133b482614842565b60006003840187845b600a84106134095750505050508291604091606061340496950152603f8101546080840152015460ff9081811660a084015260081c16151560c082015261250c8288614e51565b613360565b849160069161341785615097565b81520192019201919088906133bd565b855484526001958601958895509301920161333b565b346104b25760203660031901126104b257600435600052600b6020526020604060002054604051908152f35b346104b25760603660031901126104b2576134a9613495613488614abb565b6044359060243590615c68565b604051928392604084526040840190614ad1565b9060208301520390f35b346104b25760003660031901126104b257600080600090600080916004549360209163ffffffff83541696601f5460015b888111156135595750821561354c576103e89889830299838b0414831517156107425780613515856101409c615126565b965b6040519a8b528a015260408901526060880152608087015260a086015260c085015260e0840152610100830152610120820152f35b8861014099600096613517565b93929161358f61357a6135a492876000526019895260406000205490614ddd565b9386600052601a885260406000205490614ddd565b9385600052601e875260406000205490614ddd565b9380600052601c86526040600020548781116135fe575b50601d8652604060002054801515806135ed575b6135e3575b506135de90614dbd565b6134e4565b97506135de6135d4565b508815806135cf57508881106135cf565b96508a6135bb565b346104b25760203660031901126104b2576109fa613625600435615adc565b604051918291826149c2565b346104b25761363f366145e6565b9061364982614d1c565b9161365760405193846148e0565b808352601f1961366682614d1c565b0160005b8181106137da57505060005b8181106136c95760408051602080825286518183018190528188019383019160005b8281106136a55784840385f35b90919282610120826136ba6001948a51614940565b01960191019492919094613698565b6136d48183856154ca565b35908160005260206016815260406000205490601781526040600020546018825260406000205460199586845260406000205496601a97888652604060002054918215156000146137cc578652604060002054986103e8998a81029a818c041490151715610742576137c7996137569185600052885260406000205490615126565b925b600052601c865260406000205493601d875260406000205495601e885260406000205497604051996137898b61485e565b8a5289015260408801526060870152608086015260a085015260c084015260e08301526101008201526137bc8287614e51565b52610ab78186614e51565b613676565b506137c79850600092613758565b6020906137e5615ba5565b8282880101520161366a565b346104b2576102a03660031901126104b25760043536604312156104b2576040519061381c82614842565b81906102a43681116104b25760249283905b828210613a115750506002546001600160a01b0316330390506117e25780158015613a06575b6111ed57806000526020600f8152604060002054156111ed5781600052600f81526040600020936003948581019160ff8781855460401c1661389581614996565b14611bbf576001809301544211156111db57906000835b61396d575b5050825460ff60401b1916600360401b1783555060008481526014845260409020805460ff1916909117905554929350909163ffffffff166139265781600080516020615d8f833981519152929350600052600c8152426040600020555b82600052600d8152604060002054604051908152a2005b6201518042018042116139585782600080516020615d8f833981519152939450600052600c825260406000205561390f565b83634e487b7160e01b60005260116004526000fd5b600a80821015613a00576139818284614dcc565b51908860005287526005613999836040600020614bf4565b5001908051906139a882614996565b6139b182614996565b8883549101518c8110156139eb57916139e393918761ff008a9998979560081b1692169061ffff191617179055614dbd565b9091926138ac565b8b634e487b7160e01b60005260216004526000fd5b506138b1565b506004548111613854565b6020604091613a203685614903565b81520191019061382e565b346104b257613a39366145e6565b613a428161547a565b916000915b808310613a6457604051602080825281906109fa908201876147b0565b613a6f8382846154ca565b3560005260209260108452604060002060405190613a8c82614827565b80546001600160a01b031682526001818101548784015260028201546040808501919091525190613abc82614842565b8160038401986000915b600a8310613b155750505050613b0e94959650906040916060840152603f8101546080840152015460ff9081811660a084015260081c16151560c08201526137bc8287614e51565b9190613a47565b6006828592613b238e615097565b8152019b0192019199613ac6565b346104b25760403660031901126104b257613b4a6145d6565b600435600052601560205260ff60406000209116600052602052602060ff604060002054166040519015158152f35b346104b25760003660031901126104b257602060405160328152f35b346104b2576020806003193601126104b25760405160a0906001600160401b039082810182811182821017611668576040528360005b848110613cad5750505060043560005260138352604060002090604051928301908382109082111761166857604052600083835b60058310613c6157508360405191826000905b60058210613c205761028085f35b835180516001600160a01b0316825280840151828501526040808201519083015260609081015160ff16908201529282019260019190910190608001613c12565b600191600491604051613c738161480c565b848060a01b03875416815284870154838201526002870154604082015260ff60038801541660608201528152019301910190918490613bff565b604051613cb98161480c565b60008152600083820152600060408201526000606082015281840152018490613bcb565b346104b25760003660031901126104b2576020600354604051908152f35b346104b25760003660031901126104b2576020600554604051908152f35b346104b25760203660031901126104b257613d32615074565b60055460043510156111ed576004356000526010602052604060002060018101549081600052600f602052600360ff816040600020015460401c16613d7681614996565b03611bbf5760408101549060ff8260081c16611bbf576000916103e89084600052600a602052604060002060005b600a81106143b357505061ffff191660ff84169081176101001760408401558390156143a757613deb915b603f84018190558354600435906001600160a01b031687615671565b60018060a01b0381541680600052600760205260406000206000856000526011602052604060002083600052602052604060002080549081613fbe575b505050608081600080516020615dcf8339815191529254906001810154906004600282015491015491604051938452602084015260408301526060820152a282600052600e602052600760ff604060002093600f602052603f60016040600020960194613ec4600363ffffffff98613eae613ea88b8b5460201c1661505f565b8a614e2e565b01613ebe89825460201c1661505f565b90614e2e565b87600052601a6020526040600020613edc8154614dbd565b90558760005260196020526040600020613ef98585168254614ddd565b9055015480613f55575b50161015613f36575b54908082169160201c1614613f215760018055005b600052600c60205242604060002055806107e9565b82600052601e6020526040600020613f4e8154614dbd565b9055613f0c565b86600052601c60205280604060002080548015908115613fb4575b50613fac575b5050601d602052604060002080548015908115613fa2575b50613f9a575b50613f03565b558680613f94565b9050821089613f8e565b558088613f76565b905082118a613f70565b8160001981011161074257613fd7916000190190615012565b90549060031b1c600052601060205260406000209083600760ff604085015416101560001461439657506001830161400f8154614dbd565b905560ff6040830154168460005260096020526140326040600020918254614ddd565b9055600360ff604084015416600881101561438d575b6009811015614384575b600a1461437c575b6000805b600560ff82161061433c575b5061432a575b603f8301546002850180548211614315575b505090600784015492600184018411610742578593600101890361430957600585016140ae8154614dbd565b80915560068601805482116142ee575b50505b83600052600860205260406000206140da848254614ddd565b90556006546001600160a01b031680614203575b5084548061414b575b506060600080516020615dcf833981519152959360809593604060ff81600080516020615d6f8339815191529601541691868152600860205220549060405192835260208301526040820152a29187613e28565b90919293506003850154816000198101116141ef578161418161417661418693600019840190614df7565b603f86015490614ddd565b615126565b60038601556001850154612710908181029181830414901517156141ef57608094600080516020615dcf8339815191529694604060ff818b976141da600080516020615d6f83398151915298606098615126565b60048b015596505050509395509395506140f7565b634e487b7160e01b84526011600452602484fd5b60408281015490516e027b2323cb9b9b2bc9031bcb1b6329608d1b6020820152602f81018c90526201016960ed1b604f82015260f89190911b6001600160f81b0319166052820152670818dbdc9c9958dd60c21b6053820152603b815294506001600160401b0360608601908111908611176116685760608501604052803b156104b2576379435c8360e01b606086810191825260648701899052600b608488015260a4870152600091605f19876142be60c4820182614633565b0301908360608901915af1938415610fe7578694156140ee576142e591925060600161487a565b600090896140ee565b559192506003830183116107425760038593019189806140be565b600160058601556140c1565b55600281018111610742576002018880614082565b600a8101811161074257600a01614070565b89600052601360205286614354826040600020614bca565b50546001600160a01b0316146143725761436d90615115565b61405e565b505060018961406a565b50600861405a565b60069150614052565b60049150614048565b9190600060058501556001916140c1565b613deb91506000613dcf565b6143c96143c38260038801614bf4565b50615097565b6143d6612ed58385614bf4565b6000906020830151600281101561159557614529576040830190815160208151910120614401614f4f565b60208151910120149182614505575b82156144bc575b821561446f575b5050614467575b614439575b5061443490614dbd565b613da4565b9561445f614434929563ffffffff60606144556103e895615115565b9a01511690614df7565b04939061442a565b506001614425565b9091505160208151910120614482614f89565b60208151910120149081614499575b508a8061441e565b600391506101400151516144ac81614996565b6144b581614996565b148a614491565b80925051602081519101206144cf614f6c565b6020815191012014806144e3575b91614417565b506002610140820151516144f681614996565b6144ff81614996565b146144dd565b915060016101408201515161451981614996565b61452281614996565b1491614410565b60408301516020815191012061453d614f0e565b602081519101201490816145b1575b8115614561575b501561442557506001614425565b9050604083015160208151910120614577614f2e565b6020815191012014908161458d575b508a614553565b610140015161459f9150602001614e21565b6003811015611595576002148a614586565b90506145c4602061014083015101614e21565b6003811015611595576001149061454c565b6024359060ff821682036104b257565b9060206003198301126104b2576001600160401b0391600435908382116104b257806023830112156104b25781600401359384116104b25760248460051b830101116104b2576024019190565b919082519283825260005b84811061465f575050826000602080949584010152601f8019910116010190565b60208183018101518483018201520161463e565b80516001600160a01b03168252602080820151818401526040808301518185015260608084015160e082870181905261022087019695949193818701939192916000918291905b600a84106146ef57505050505050505060c081608082930151608085015260ff60a08201511660a08501520151151591015290565b909192939495969960df198a82030188528a5160018060401b03815116825286810151600281101561479c5761478c8389936147796147666147458e88978860019b01528a85015190808c880152860190614633565b63ffffffff8b850151168b8601526080808501519086830390870152614633565b60a0808401519085830390860152614633565b9160c08092015191818403910152614633565b9c019801969594019291906146ba565b634e487b7160e01b86526021600452602486fd5b908082519081815260208091019281808460051b8301019501936000915b8483106147de5750505050505090565b90919293949584806147fc600193601f198682030187528a51614673565b98019301930191949392906147ce565b608081019081106001600160401b0382111761166857604052565b60e081019081106001600160401b0382111761166857604052565b61014081019081106001600160401b0382111761166857604052565b61012081019081106001600160401b0382111761166857604052565b6001600160401b03811161166857604052565b61016081019081106001600160401b0382111761166857604052565b61010081019081106001600160401b0382111761166857604052565b604081019081106001600160401b0382111761166857604052565b601f909101601f19168101906001600160401b0382119082101761166857604052565b91908260409103126104b25760405161491b816148c5565b809280359060048210156104b257602091835201359060038210156104b25760200152565b805182526020810151602083015260408101516040830152606081015160608301526080810151608083015260a081015160a083015260c081015160c083015260e081015160e083015261010080910151910152565b6004111561159557565b60209080516149ae81614996565b835201519060038210156115955760200152565b6020808252610160820192919060008282015b600a82106149e557505050505090565b90919293948380600192601f19888203018552614aac895191858060401b0380845116825284840151168482015263ffffffff60408181860151169083015260608181860151169083015260808181860151169083015260a08181860151169083015260c090818501511690820152614a9c614a88614a7460e080870151906101808091870152850190614633565b610100808701519085830390860152614633565b610120808601519084830390850152614633565b92610140809101519101906149a0565b970192019201909392916149d5565b600435906001600160a01b03821682036104b257565b90815180825260208080930193019160005b828110614af1575050505090565b835185529381019392810192600101614ae3565b9091614b1c614b2a93604084526040840190614ad1565b9160208184039101526147b0565b90565b35906001600160401b03821682036104b257565b6001600160401b03811161166857601f01601f191660200190565b81601f820112156104b257803590614b7382614b41565b92614b8160405194856148e0565b828452602083830101116104b257816000926020809301838601378301015290565b359063ffffffff821682036104b257565b60409060031901126104b2576004359060243590565b906005811015614bde5760021b0190600090565b634e487b7160e01b600052603260045260246000fd5b90600a811015614bde576006020190600090565b90600182811c92168015614c38575b6020831014614c2257565b634e487b7160e01b600052602260045260246000fd5b91607f1691614c17565b9060405191826000825492614c5684614c08565b908184526001948581169081600014614cc55750600114614c82575b5050614c80925003836148e0565b565b9093915060005260209081600020936000915b818310614cad575050614c8093508201013880614c72565b85548884018501529485019487945091830191614c95565b915050614c8094506020925060ff191682840152151560051b8201013880614c72565b90604051614cf5816148c5565b60ff819354818116614d0681614996565b835260081c169060038210156115955760200152565b6001600160401b0381116116685760051b60200190565b81601f820112156104b257803591614d4a83614d1c565b92614d5860405194856148e0565b808452602092838086019260051b8201019283116104b2578301905b828210614d82575050505090565b81358152908301908301614d74565b6000546001600160a01b03163303614da557565b60405163118cdaa760e01b8152336004820152602490fd5b60001981146107425760010190565b90600a811015614bde5760051b0190565b9190820180921161074257565b9190820391821161074257565b8181029291811591840414171561074257565b818110614e15575050565b60008155600101614e0a565b5160038110156115955790565b805463ffffffff60201b191660209290921b63ffffffff60201b16919091179055565b8051821015614bde5760209160051b010190565b90604051614e728161488d565b610140614f0960058395805460018060401b0380821687528160401c16602087015263ffffffff90818160801c166040880152818160a01c166060880152818160c01c16608088015260e01c60a087015260018201541660c0860152614eda60028201614c42565b60e0860152614eeb60038201614c42565b610100860152614efd60048201614c42565b61012086015201614ce8565b910152565b60405190614f1b826148c5565b600482526327bb32b960e11b6020830152565b60405190614f3b826148c5565b60058252642ab73232b960d91b6020830152565b60405190614f5c826148c5565b60018252603160f81b6020830152565b60405190614f79826148c5565b60018252600b60fb1b6020830152565b60405190614f96826148c5565b60018252601960f91b6020830152565b604090815191614fb583614842565b600083815b6101408110614fc95750505050565b6020908451614fd781614827565b84815284838201526060808783015285818301528060808301528060a083015260c08201528184015201614fba565b60028210156115955752565b8054821015614bde5760005260206000200190600090565b8054600160401b8110156116685761504791600182018155615012565b819291549060031b91821b91600019901b1916179055565b63ffffffff8091169081146107425760010190565b600260015414615085576002600155565b604051633ee5aeb560e01b8152600490fd5b906040516150a481614827565b60c0614f09600583956150cc60ff825460018060401b038116885260401c1660208701615006565b6150d860018201614c42565b604086015263ffffffff60028201541660608601526150f960038201614c42565b608086015261510a60048201614c42565b60a086015201614c42565b60ff1660ff81146107425760010190565b8115615130570490565b634e487b7160e01b600052601260045260246000fd5b3d15615171573d9061515782614b41565b9161516560405193846148e0565b82523d6000602084013e565b606090565b6000908082526020600f815260ff92604091600385818585200154851c1661519d81614996565b0361539257838252600c8152828220544210615381578382526013815282822082908390845b60058982161061534b575b50501561533a578483526015825283832095808216968785528352848420541661532957848352600d825283832054615206916158b5565b91821561530857848152601582528381208682528252838120805460ff191660011790558080808061526661271061525e7f00000000000000000000000000000000000000000000000000000000000000008a614df7565b048098614dea565b967f00000000000000000000000000000000000000000000000000000000000000006001600160a01b03165af161529b615146565b50156152f75780808085335af16152b0615146565b50156152e657825194855284015233927f64da964e036dd66a7be792791f60a47ec5378950b9d12795de3f453aa3940eb09190a3565b82516312171d8360e31b8152600490fd5b83516312171d8360e31b8152600490fd5b93845260158152828420948452939093529020805460ff1916600117905550565b835163baf3f0f760e01b8152600490fd5b8351635a26d5fd60e11b8152600490fd5b6153558183614bca565b50546001600160a01b031633146153745761536f90615115565b6151c3565b92505050600138806151ce565b825163c8b9bc9160e01b8152600490fd5b825163baf3f0f760e01b8152600490fd5b60408051916153b183614842565b829160005b61014080821015615433578251602092916153d08261488d565b600082528390600082840152600086840152606060008185015260006080850152600060a0850152600060c08501528060e0850152806101008501526101208401526000865192615420846148c5565b81845283015282015281870152016153b6565b505050909150565b6040519061544882614827565b8160c0600091828152826020820152826040820152615465614fa6565b60608201528260808201528260a08201520152565b9061548482614d1c565b61549160405191826148e0565b82815280926154a2601f1991614d1c565b019060005b8281106154b357505050565b6020906154be61543b565b828285010152016154a7565b9190811015614bde5760051b0190565b600454806154f45750600090600090600090600090600090565b9081600052600f6020526040600020906040519261551184614827565b8254845260018301549160208501928352600360028501549460408701958652015494606081019363ffffffff918288168652828860201c16608082015260c060ff808a60401c16996155638b614996565b8a60a085015260481c16151591015261557b87614996565b61558487614996565b519451935116919493929190565b80158015615659575b61564457600052600f6020526040600020604051916155b983614827565b81548352600182015460208401908152600360028401549360408601948552015490606085019263ffffffff8084168552808460201c16608088015260ff8460401c169661560688614996565b8760a082015260ff60c082019560481c16151585525115159261562888614996565b61563188614996565b5195519451169251151591959493929190565b50600090600090600090600090600090600090565b50600454811161559b565b8015610742576000190190565b9291939060ff80921692600784106158ad5760009585875260136020526040872092600019936005805b615827575b50600185016156b5575b505050505050505050565b600494855b81811161577357506156fa90604051926156d38461480c565b6001600160a01b039485168452602084019586526040840196875260608401998a52614bca565b95909561576157505184546001600160a01b031916911617835551600183015551600282015591516003928301805460ff191691909216179055908252600f602052604090912001805460ff60481b1916600160481b1790553880808080808080806156aa565b634e487b7160e01b8a52899052602489fd5b6000198101818111615814576157899084614bca565b506157948285614bca565b61580257908982826157af9594036157b4575b505050615664565b6156ba565b825481546001600160a01b0319166001600160a01b039190911617815560018381015490820155600280840154908201556003928301549201805460ff1916919092161790553889816157a7565b634e487b7160e01b8d528c895260248dfd5b634e487b7160e01b8c526011885260248cfd5b946000198601908682116158995761583f8284614bca565b5060028101549089828911928315615874575b50505060001461586d57506158679095615664565b8061569b565b95506156a0565b891492509082615889575b5050388981615852565b60030154168a119050883861587f565b634e487b7160e01b8b52601160045260248bfd5b505050505050565b60009060ff16806158d65750506158d261271091610fa090614df7565b0490565b600181036158f05750506158d261271091610bb890614df7565b6002810361590a5750506158d2612710916107d090614df7565b600381036159245750506158d2612710916101f490614df7565b60040361593c57506158d2612710916101f490614df7565b905090565b8015615a9e5760008181526013602052604080822080546001600160a01b039493929190851615908115615a8b575b5061597c575b50505050565b600d602052808220549182615992575b50615976565b6159ca6127106159c27f000000000000000000000000000000000000000000000000000000000000000086614df7565b048094614dea565b92848252600d60205281838120556001850195868611615a77578280928192898352600d6020528683206159ff898254614ddd565b90557f0000000000000000000000000000000000000000000000000000000000000000165af1615a2d615146565b5015615a67577fd02ee9eafb934e2ffd95384478ef177c9932fd0d6cb1813747b8eefdf55d8b199160209151908152a3388080808061598c565b516312171d8360e31b8152600490fd5b634e487b7160e01b83526011600452602483fd5b60079150600360ff910154161038615970565b50565b60045481118015615ad4575b615ace576000908152600a60205260409020546001600160401b0316151590565b50600090565b508015615aad565b615ae46153a3565b5060045481111580615b9c575b15615b6057600052600a602090808252604060002060405192615b1384614842565b600091845b848410615b435750508351516001600160401b0316159250615b3a9150505790565b50614b2a6153a3565b600683600192615b5285614e65565b815201920193019290615b18565b60405162461bcd60e51b815260206004820152601460248201527310de58db1948191bd95cc81b9bdd08195e1a5cdd60621b6044820152606490fd5b50801515615af1565b60405190615bb28261485e565b816101006000918281528260208201528260408201528260608201528260808201528260a08201528260c08201528260e08201520152565b90600091808352601a602052604083205415615a9e5760196020526040832054906103e8918281029281840414901517156141ef5783604091614b2a949552601a602052205490615126565b90615c4082614d1c565b615c4d60405191826148e0565b8281528092615c5e601f1991614d1c565b0190602036910137565b929060009360018060a01b03168452602092601284526040852090604051808387829554938481520190895287892092895b89828210615d5857505050615cb1925003836148e0565b81519485841015615d165750615cc79083614ddd565b82858211615d0e575b615cd991614dea565b91615ce383615c36565b955b838110615cf25750505050565b80610986615d03615d099385614ddd565b85614e51565b615ce5565b859150615cd0565b6040519596949594935084019150506001600160401b03811183821017615d44576040528082523681379190565b634e487b7160e01b82526041600452602482fd5b8554845260019586019588955093019201615c9a56fe9c7b6f99cba4ae2b8837d2a4ff724e1273427755c6f2e43bac3108bccb98b66add45cfbd9f2d20e6b7b6f5fa3148363d48017feae0c98de41ec4435a5aa754468be0079c531659141344cd1fd0a4f28419497f9722a3daafe3b4186f6b6457e0dbc55064e49993e4c979488990287b80a393512ce56bbe0cb3834df880cf97c7a2646970667358221220cbb988a2c089ebd437b2ae64c0dcf635d5600d376d6c55a461f655b9ffb2bd3464736f6c63430008140033",
  "linkReferences": {},
  "deployedLinkReferences": {}
}