{
  "_format": "hh-sol-artifact-1",
  "contractName": "OptimisticOracle",
  "sourceName": "contracts/OptimisticOracle.sol",
  "abi": [
    {
      "inputs": [
        {
          "internalType": "address",
          "name": "_bondToken",
          "type": "address"
        },
        {
          "internalType": "address",
          "name": "_bitredictPool",
          "type": "address"
        }
      ],
      "stateMutability": "nonpayable",
      "type": "constructor"
    },
    {
      "inputs": [
        {
          "internalType": "address",
          "name": "owner",
          "type": "address"
        }
      ],
      "name": "OwnableInvalidOwner",
      "type": "error"
    },
    {
      "inputs": [
        {
          "internalType": "address",
          "name": "account",
          "type": "address"
        }
      ],
      "name": "OwnableUnauthorizedAccount",
      "type": "error"
    },
    {
      "anonymous": false,
      "inputs": [
        {
          "indexed": true,
          "internalType": "bytes32",
          "name": "marketId",
          "type": "bytes32"
        },
        {
          "indexed": true,
          "internalType": "address",
          "name": "claimer",
          "type": "address"
        },
        {
          "indexed": false,
          "internalType": "uint256",
          "name": "amount",
          "type": "uint256"
        }
      ],
      "name": "BondClaimed",
      "type": "event"
    },
    {
      "anonymous": false,
      "inputs": [
        {
          "indexed": true,
          "internalType": "bytes32",
          "name": "marketId",
          "type": "bytes32"
        },
        {
          "indexed": true,
          "internalType": "uint256",
          "name": "poolId",
          "type": "uint256"
        },
        {
          "indexed": false,
          "internalType": "string",
          "name": "question",
          "type": "string"
        },
        {
          "indexed": false,
          "internalType": "string",
          "name": "category",
          "type": "string"
        },
        {
          "indexed": false,
          "internalType": "uint256",
          "name": "eventEndTime",
          "type": "uint256"
        }
      ],
      "name": "MarketCreated",
      "type": "event"
    },
    {
      "anonymous": false,
      "inputs": [
        {
          "indexed": true,
          "internalType": "bytes32",
          "name": "marketId",
          "type": "bytes32"
        },
        {
          "indexed": false,
          "internalType": "bytes32",
          "name": "finalOutcome",
          "type": "bytes32"
        },
        {
          "indexed": false,
          "internalType": "address",
          "name": "winner",
          "type": "address"
        },
        {
          "indexed": false,
          "internalType": "uint256",
          "name": "reward",
          "type": "uint256"
        }
      ],
      "name": "MarketResolved",
      "type": "event"
    },
    {
      "anonymous": false,
      "inputs": [
        {
          "indexed": true,
          "internalType": "bytes32",
          "name": "marketId",
          "type": "bytes32"
        },
        {
          "indexed": true,
          "internalType": "address",
          "name": "disputer",
          "type": "address"
        },
        {
          "indexed": false,
          "internalType": "uint256",
          "name": "bond",
          "type": "uint256"
        }
      ],
      "name": "OutcomeDisputed",
      "type": "event"
    },
    {
      "anonymous": false,
      "inputs": [
        {
          "indexed": true,
          "internalType": "bytes32",
          "name": "marketId",
          "type": "bytes32"
        },
        {
          "indexed": true,
          "internalType": "address",
          "name": "proposer",
          "type": "address"
        },
        {
          "indexed": false,
          "internalType": "bytes32",
          "name": "outcome",
          "type": "bytes32"
        },
        {
          "indexed": false,
          "internalType": "uint256",
          "name": "bond",
          "type": "uint256"
        }
      ],
      "name": "OutcomeProposed",
      "type": "event"
    },
    {
      "anonymous": false,
      "inputs": [
        {
          "indexed": true,
          "internalType": "address",
          "name": "previousOwner",
          "type": "address"
        },
        {
          "indexed": true,
          "internalType": "address",
          "name": "newOwner",
          "type": "address"
        }
      ],
      "name": "OwnershipTransferred",
      "type": "event"
    },
    {
      "anonymous": false,
      "inputs": [
        {
          "indexed": true,
          "internalType": "address",
          "name": "user",
          "type": "address"
        },
        {
          "indexed": false,
          "internalType": "string",
          "name": "action",
          "type": "string"
        },
        {
          "indexed": false,
          "internalType": "int256",
          "name": "reputationDelta",
          "type": "int256"
        },
        {
          "indexed": true,
          "internalType": "bytes32",
          "name": "marketId",
          "type": "bytes32"
        },
        {
          "indexed": false,
          "internalType": "uint256",
          "name": "timestamp",
          "type": "uint256"
        }
      ],
      "name": "ReputationAction",
      "type": "event"
    },
    {
      "anonymous": false,
      "inputs": [
        {
          "indexed": true,
          "internalType": "address",
          "name": "user",
          "type": "address"
        },
        {
          "indexed": false,
          "internalType": "uint256",
          "name": "oldReputation",
          "type": "uint256"
        },
        {
          "indexed": false,
          "internalType": "uint256",
          "name": "newReputation",
          "type": "uint256"
        }
      ],
      "name": "ReputationUpdated",
      "type": "event"
    },
    {
      "anonymous": false,
      "inputs": [
        {
          "indexed": true,
          "internalType": "bytes32",
          "name": "marketId",
          "type": "bytes32"
        },
        {
          "indexed": true,
          "internalType": "address",
          "name": "voter",
          "type": "address"
        },
        {
          "indexed": false,
          "internalType": "bytes32",
          "name": "outcome",
          "type": "bytes32"
        },
        {
          "indexed": false,
          "internalType": "uint256",
          "name": "votingPower",
          "type": "uint256"
        }
      ],
      "name": "VoteCast",
      "type": "event"
    },
    {
      "inputs": [],
      "name": "CHALLENGE_WINDOW",
      "outputs": [
        {
          "internalType": "uint256",
          "name": "",
          "type": "uint256"
        }
      ],
      "stateMutability": "view",
      "type": "function"
    },
    {
      "inputs": [],
      "name": "DISPUTE_BOND",
      "outputs": [
        {
          "internalType": "uint256",
          "name": "",
          "type": "uint256"
        }
      ],
      "stateMutability": "view",
      "type": "function"
    },
    {
      "inputs": [],
      "name": "MIN_DISPUTE_REPUTATION",
      "outputs": [
        {
          "internalType": "uint256",
          "name": "",
          "type": "uint256"
        }
      ],
      "stateMutability": "view",
      "type": "function"
    },
    {
      "inputs": [],
      "name": "MIN_REPUTATION",
      "outputs": [
        {
          "internalType": "uint256",
          "name": "",
          "type": "uint256"
        }
      ],
      "stateMutability": "view",
      "type": "function"
    },
    {
      "inputs": [],
      "name": "PROPOSAL_BOND",
      "outputs": [
        {
          "internalType": "uint256",
          "name": "",
          "type": "uint256"
        }
      ],
      "stateMutability": "view",
      "type": "function"
    },
    {
      "inputs": [],
      "name": "RESOLUTION_WINDOW",
      "outputs": [
        {
          "internalType": "uint256",
          "name": "",
          "type": "uint256"
        }
      ],
      "stateMutability": "view",
      "type": "function"
    },
    {
      "inputs": [
        {
          "internalType": "uint256",
          "name": "",
          "type": "uint256"
        }
      ],
      "name": "allMarkets",
      "outputs": [
        {
          "internalType": "bytes32",
          "name": "",
          "type": "bytes32"
        }
      ],
      "stateMutability": "view",
      "type": "function"
    },
    {
      "inputs": [
        {
          "internalType": "address[]",
          "name": "users",
          "type": "address[]"
        },
        {
          "internalType": "uint256[]",
          "name": "reputations",
          "type": "uint256[]"
        }
      ],
      "name": "batchSetReputations",
      "outputs": [],
      "stateMutability": "nonpayable",
      "type": "function"
    },
    {
      "inputs": [],
      "name": "bitredictPool",
      "outputs": [
        {
          "internalType": "contract IBitredictPool",
          "name": "",
          "type": "address"
        }
      ],
      "stateMutability": "view",
      "type": "function"
    },
    {
      "inputs": [],
      "name": "bondToken",
      "outputs": [
        {
          "internalType": "contract IERC20",
          "name": "",
          "type": "address"
        }
      ],
      "stateMutability": "view",
      "type": "function"
    },
    {
      "inputs": [
        {
          "internalType": "bytes32",
          "name": "",
          "type": "bytes32"
        },
        {
          "internalType": "uint256",
          "name": "",
          "type": "uint256"
        }
      ],
      "name": "categoryMarkets",
      "outputs": [
        {
          "internalType": "bytes32",
          "name": "",
          "type": "bytes32"
        }
      ],
      "stateMutability": "view",
      "type": "function"
    },
    {
      "inputs": [
        {
          "internalType": "bytes32",
          "name": "marketId",
          "type": "bytes32"
        }
      ],
      "name": "claimBonds",
      "outputs": [],
      "stateMutability": "nonpayable",
      "type": "function"
    },
    {
      "inputs": [
        {
          "internalType": "bytes32",
          "name": "marketId",
          "type": "bytes32"
        },
        {
          "internalType": "uint256",
          "name": "poolId",
          "type": "uint256"
        },
        {
          "internalType": "string",
          "name": "question",
          "type": "string"
        },
        {
          "internalType": "string",
          "name": "category",
          "type": "string"
        },
        {
          "internalType": "uint256",
          "name": "eventEndTime",
          "type": "uint256"
        }
      ],
      "name": "createMarket",
      "outputs": [],
      "stateMutability": "nonpayable",
      "type": "function"
    },
    {
      "inputs": [
        {
          "internalType": "bytes32",
          "name": "marketId",
          "type": "bytes32"
        }
      ],
      "name": "disputeOutcome",
      "outputs": [],
      "stateMutability": "nonpayable",
      "type": "function"
    },
    {
      "inputs": [
        {
          "internalType": "bytes32",
          "name": "",
          "type": "bytes32"
        }
      ],
      "name": "disputes",
      "outputs": [
        {
          "internalType": "bytes32",
          "name": "marketId",
          "type": "bytes32"
        },
        {
          "internalType": "uint256",
          "name": "totalVotingPower",
          "type": "uint256"
        },
        {
          "internalType": "uint256",
          "name": "disputeEndTime",
          "type": "uint256"
        },
        {
          "internalType": "bool",
          "name": "resolved",
          "type": "bool"
        }
      ],
      "stateMutability": "view",
      "type": "function"
    },
    {
      "inputs": [
        {
          "internalType": "bytes32",
          "name": "marketId",
          "type": "bytes32"
        },
        {
          "internalType": "bytes32",
          "name": "outcome",
          "type": "bytes32"
        }
      ],
      "name": "emergencyResolveMarket",
      "outputs": [],
      "stateMutability": "nonpayable",
      "type": "function"
    },
    {
      "inputs": [
        {
          "internalType": "bytes32",
          "name": "marketId",
          "type": "bytes32"
        }
      ],
      "name": "emergencyWithdrawBonds",
      "outputs": [],
      "stateMutability": "nonpayable",
      "type": "function"
    },
    {
      "inputs": [],
      "name": "getAllMarkets",
      "outputs": [
        {
          "internalType": "bytes32[]",
          "name": "",
          "type": "bytes32[]"
        }
      ],
      "stateMutability": "view",
      "type": "function"
    },
    {
      "inputs": [
        {
          "internalType": "bytes32",
          "name": "marketId",
          "type": "bytes32"
        }
      ],
      "name": "getDispute",
      "outputs": [
        {
          "internalType": "uint256",
          "name": "totalVotingPower",
          "type": "uint256"
        },
        {
          "internalType": "uint256",
          "name": "disputeEndTime",
          "type": "uint256"
        },
        {
          "internalType": "bool",
          "name": "resolved",
          "type": "bool"
        },
        {
          "internalType": "address[]",
          "name": "voters",
          "type": "address[]"
        }
      ],
      "stateMutability": "view",
      "type": "function"
    },
    {
      "inputs": [
        {
          "internalType": "bytes32",
          "name": "marketId",
          "type": "bytes32"
        }
      ],
      "name": "getMarket",
      "outputs": [
        {
          "components": [
            {
              "internalType": "bytes32",
              "name": "marketId",
              "type": "bytes32"
            },
            {
              "internalType": "uint256",
              "name": "poolId",
              "type": "uint256"
            },
            {
              "internalType": "string",
              "name": "question",
              "type": "string"
            },
            {
              "internalType": "string",
              "name": "category",
              "type": "string"
            },
            {
              "internalType": "bytes32",
              "name": "proposedOutcome",
              "type": "bytes32"
            },
            {
              "internalType": "address",
              "name": "proposer",
              "type": "address"
            },
            {
              "internalType": "uint256",
              "name": "proposalTime",
              "type": "uint256"
            },
            {
              "internalType": "uint256",
              "name": "proposalBond",
              "type": "uint256"
            },
            {
              "internalType": "address",
              "name": "disputer",
              "type": "address"
            },
            {
              "internalType": "uint256",
              "name": "disputeTime",
              "type": "uint256"
            },
            {
              "internalType": "uint256",
              "name": "disputeBond",
              "type": "uint256"
            },
            {
              "internalType": "bytes32",
              "name": "finalOutcome",
              "type": "bytes32"
            },
            {
              "internalType": "enum OptimisticOracle.MarketState",
              "name": "state",
              "type": "uint8"
            },
            {
              "internalType": "uint256",
              "name": "eventEndTime",
              "type": "uint256"
            },
            {
              "internalType": "bool",
              "name": "bondsClaimed",
              "type": "bool"
            }
          ],
          "internalType": "struct OptimisticOracle.Market",
          "name": "",
          "type": "tuple"
        }
      ],
      "stateMutability": "view",
      "type": "function"
    },
    {
      "inputs": [
        {
          "internalType": "string",
          "name": "category",
          "type": "string"
        }
      ],
      "name": "getMarketsByCategory",
      "outputs": [
        {
          "internalType": "bytes32[]",
          "name": "",
          "type": "bytes32[]"
        }
      ],
      "stateMutability": "view",
      "type": "function"
    },
    {
      "inputs": [
        {
          "internalType": "bytes32",
          "name": "marketId",
          "type": "bytes32"
        }
      ],
      "name": "getOutcome",
      "outputs": [
        {
          "internalType": "bool",
          "name": "isSettled",
          "type": "bool"
        },
        {
          "internalType": "bytes",
          "name": "outcome",
          "type": "bytes"
        }
      ],
      "stateMutability": "view",
      "type": "function"
    },
    {
      "inputs": [
        {
          "internalType": "bytes32",
          "name": "marketId",
          "type": "bytes32"
        },
        {
          "internalType": "bytes32",
          "name": "outcome",
          "type": "bytes32"
        }
      ],
      "name": "getOutcomeTotals",
      "outputs": [
        {
          "internalType": "uint256",
          "name": "",
          "type": "uint256"
        }
      ],
      "stateMutability": "view",
      "type": "function"
    },
    {
      "inputs": [
        {
          "internalType": "bytes32",
          "name": "marketId",
          "type": "bytes32"
        },
        {
          "internalType": "address",
          "name": "voter",
          "type": "address"
        }
      ],
      "name": "getVote",
      "outputs": [
        {
          "internalType": "bytes32",
          "name": "outcome",
          "type": "bytes32"
        },
        {
          "internalType": "uint256",
          "name": "votingPower",
          "type": "uint256"
        },
        {
          "internalType": "uint256",
          "name": "timestamp",
          "type": "uint256"
        }
      ],
      "stateMutability": "view",
      "type": "function"
    },
    {
      "inputs": [
        {
          "internalType": "bytes32",
          "name": "",
          "type": "bytes32"
        }
      ],
      "name": "markets",
      "outputs": [
        {
          "internalType": "bytes32",
          "name": "marketId",
          "type": "bytes32"
        },
        {
          "internalType": "uint256",
          "name": "poolId",
          "type": "uint256"
        },
        {
          "internalType": "string",
          "name": "question",
          "type": "string"
        },
        {
          "internalType": "string",
          "name": "category",
          "type": "string"
        },
        {
          "internalType": "bytes32",
          "name": "proposedOutcome",
          "type": "bytes32"
        },
        {
          "internalType": "address",
          "name": "proposer",
          "type": "address"
        },
        {
          "internalType": "uint256",
          "name": "proposalTime",
          "type": "uint256"
        },
        {
          "internalType": "uint256",
          "name": "proposalBond",
          "type": "uint256"
        },
        {
          "internalType": "address",
          "name": "disputer",
          "type": "address"
        },
        {
          "internalType": "uint256",
          "name": "disputeTime",
          "type": "uint256"
        },
        {
          "internalType": "uint256",
          "name": "disputeBond",
          "type": "uint256"
        },
        {
          "internalType": "bytes32",
          "name": "finalOutcome",
          "type": "bytes32"
        },
        {
          "internalType": "enum OptimisticOracle.MarketState",
          "name": "state",
          "type": "uint8"
        },
        {
          "internalType": "uint256",
          "name": "eventEndTime",
          "type": "uint256"
        },
        {
          "internalType": "bool",
          "name": "bondsClaimed",
          "type": "bool"
        }
      ],
      "stateMutability": "view",
      "type": "function"
    },
    {
      "inputs": [],
      "name": "owner",
      "outputs": [
        {
          "internalType": "address",
          "name": "",
          "type": "address"
        }
      ],
      "stateMutability": "view",
      "type": "function"
    },
    {
      "inputs": [
        {
          "internalType": "bytes32",
          "name": "marketId",
          "type": "bytes32"
        },
        {
          "internalType": "bytes32",
          "name": "outcome",
          "type": "bytes32"
        }
      ],
      "name": "proposeOutcome",
      "outputs": [],
      "stateMutability": "nonpayable",
      "type": "function"
    },
    {
      "inputs": [],
      "name": "renounceOwnership",
      "outputs": [],
      "stateMutability": "nonpayable",
      "type": "function"
    },
    {
      "inputs": [],
      "name": "reputationSystem",
      "outputs": [
        {
          "internalType": "contract IReputationSystem",
          "name": "",
          "type": "address"
        }
      ],
      "stateMutability": "view",
      "type": "function"
    },
    {
      "inputs": [
        {
          "internalType": "bytes32",
          "name": "marketId",
          "type": "bytes32"
        }
      ],
      "name": "resolveMarket",
      "outputs": [],
      "stateMutability": "nonpayable",
      "type": "function"
    },
    {
      "inputs": [
        {
          "internalType": "address",
          "name": "_reputationSystem",
          "type": "address"
        }
      ],
      "name": "setReputationSystem",
      "outputs": [],
      "stateMutability": "nonpayable",
      "type": "function"
    },
    {
      "inputs": [
        {
          "internalType": "address",
          "name": "user",
          "type": "address"
        },
        {
          "internalType": "uint256",
          "name": "reputation",
          "type": "uint256"
        }
      ],
      "name": "setUserReputation",
      "outputs": [],
      "stateMutability": "nonpayable",
      "type": "function"
    },
    {
      "inputs": [
        {
          "internalType": "address",
          "name": "newOwner",
          "type": "address"
        }
      ],
      "name": "transferOwnership",
      "outputs": [],
      "stateMutability": "nonpayable",
      "type": "function"
    },
    {
      "inputs": [
        {
          "internalType": "address",
          "name": "",
          "type": "address"
        }
      ],
      "name": "userReputation",
      "outputs": [
        {
          "internalType": "uint256",
          "name": "",
          "type": "uint256"
        }
      ],
      "stateMutability": "view",
      "type": "function"
    },
    {
      "inputs": [
        {
          "internalType": "bytes32",
          "name": "marketId",
          "type": "bytes32"
        },
        {
          "internalType": "bytes32",
          "name": "outcome",
          "type": "bytes32"
        }
      ],
      "name": "voteOnDispute",
      "outputs": [],
      "stateMutability": "nonpayable",
      "type": "function"
    }
  ],
  "bytecode": "0x60c0346200013757601f620034f738819003918201601f19168301916001600160401b038311848410176200013c57808492604094855283398101031262000137576200005a6020620000528362000152565b920162000152565b9033156200011e5760008054336001600160a01b0319821681178355604051946001600160a01b0394909385939192918416907f8be0079c531659141344cd1fd0a4f28419497f9722a3daafe3b4186f6b6457e09080a3166080521660a05261338f908162000168823960805181818161034a015281816105b9015281816108d00152818161148b0152818161155101528181611ada01528181613026015261316b015260a051818181610d9201528181611eab0152818161266b01526129ba0152f35b604051631e4fbdf760e01b815260006004820152602490fd5b600080fd5b634e487b7160e01b600052604160045260246000fd5b51906001600160a01b0382168203620001375756fe608080604052600436101561001357600080fd5b600090813560e01c908163022824b7146129a65750806311be199714612954578063136ba6aa146128765780632fcec8001461272757806330526c3b146125f057806331143cee146125b05780633c7dad191461256857806340672a1b14611d655780634c68ae6314611d415780634dffca88146119e357806352d84d1e146119915780635d1a3b82146119555780636587eda11461192c578063697c6045146119105780636e66fb47146118b1578063715018a614611857578063734c8544146118395780637564912b1461172457806376e6caff1461169d5780637aa8ab22146113d45780637e3681bd146113b05780638da5cb5b14611389578063a09f8be31461136d578063b05239bb14610d40578063b0772d0b14610cba578063b3ddbe1514610c8a578063b3e7c2bd14610c23578063b8a3a36b146108ff578063c28f4392146108ba578063c3c95c7b14610665578063cede2d4214610530578063d62aad2914610512578063e2f410f514610268578063e503bb051461022f5763f2fde38b146101a257600080fd5b3461022c57602036600319011261022c576101bb612a2f565b6101c3612c6b565b6001600160a01b0390811690811561021357600054826001600160601b0360a01b821617600055167f8be0079c531659141344cd1fd0a4f28419497f9722a3daafe3b4186f6b6457e0600080a380f35b604051631e4fbdf760e01b815260048101849052602490fd5b80fd5b503461022c57602036600319011261022c576020906040906001600160a01b03610257612a2f565b168152600483522054604051908152f35b503461022c5761027736612a19565b9080835260206002815261029060408520541515612c97565b6001546001600160a01b03919082168181156104f35760405163baccbfdb60e01b815233600482015291829060249082905afa9081156104e85786916104b5575b5060646102df911015612cdb565b8285526002815260408520600c81019060ff82541660058110156104a15761045c57600d810154421061042157610317861515612d27565b604051906323b872dd60e01b825233600483015230602483015283826064818b6802b5e3af16b1880000998a60448401527f0000000000000000000000000000000000000000000000000000000000000000165af19081156104165761038860079287948b916103e9575b50612d7d565b87600482015560058101336001600160601b0360a01b8254161790554260068201550155600160ff198254161790556040519384528301527f9309959b56da38a7d20756c4ba4d271701cd1562f4995a7324bd95575db83e6660403393a380f35b6104099150873d891161040f575b6104018183612b06565b810190612d65565b38610382565b503d6103f7565b6040513d8a823e3d90fd5b60405162461bcd60e51b8152600481018490526013602482015272115d995b9d081b9bdd08195b991959081e595d606a1b6044820152606490fd5b60405162461bcd60e51b815260048101849052601a60248201527f4d61726b6574206e6f742070656e64696e67206f7574636f6d650000000000006044820152606490fd5b634e487b7160e01b88526021600452602488fd5b90508181813d83116104e1575b6104cc8183612b06565b810103126104dc575160646102d1565b600080fd5b503d6104c2565b6040513d88823e3d90fd5b50503385526004815261050d606460408720541015612cdb565b6102df565b503461022c578060031936011261022c576020604051620151808152f35b503461022c576020806003193601126106615761054b612c6b565b6004358252600281526040822061056b6007820154600a83015490612dc0565b9081610575578380f35b600e01805460ff19166001179055825460405163a9059cbb60e01b81526001600160a01b0391821660048201526024810192909252829082908186816044810103927f0000000000000000000000000000000000000000000000000000000000000000165af1908115610656578391610639575b50156105f55780808380f35b6064906040519062461bcd60e51b82526004820152601b60248201527f456d657267656e6379207769746864726177616c206661696c656400000000006044820152fd5b6106509150823d841161040f576104018183612b06565b386105e9565b6040513d85823e3d90fd5b5080fd5b503461022c57602036600319011261022c57806040916101c0835161068981612aea565b8281528260208201526060858201526060808201528260808201528260a08201528260c08201528260e08201528261010082015282610120820152826101408201528261016082015282610180820152826101a082015201526004358152600260205220604051906106fa82612aea565b805482526001810154602083015261071460028201612b27565b604083015261072560038201612b27565b6060830152600481015460808301526005808201546001600160a01b0390811660a0850152600683015460c0850152600783015460e08501526008830154166101008401526009820154610120840152600a820154610140840152600b820154610160840152600c82015460ff16908110156108a45760ff91600e91610180850152600d8101546101a085015201541615156101c082015260405180916020825280516020830152602081015160408301526101c061080e6107f860408401516101e06060870152610200860190612a5d565b6060840151858203601f19016080870152612a5d565b91608081015160a085015260018060a01b0360a08201511660c085015260c081015160e085015260e081015161010085015260018060a01b036101008201511661012085015261012081015161014085015261014081015161016085015261016081015161018085015261088c6101808201516101a0860190612bcd565b6101a081015182850152015115156101e08301520390f35b634e487b7160e01b600052602160045260246000fd5b503461022c578060031936011261022c576040517f00000000000000000000000000000000000000000000000000000000000000006001600160a01b03168152602090f35b503461022c5761090e36612a19565b908083526002602081815261092860408620541515612c97565b6001546001600160a01b0392908316828115610c045760405163baccbfdb60e01b815233600482015291829060249082905afa908115610bf9578791610bcb575b50604b610977911015612cdb565b83865280825260408620906003835260ff600c604089209301541660058110156104a1578103610b905760058201544211610b55576109b7861515612d27565b6001820193336000528484528160406000200154610b2057338852600484526040882054948515610ae9576040519060608201908282106001600160401b03831117610ad357849160405289835286830188815260408401914283523360005288526040600020935184555160018401555191015560038301805490600160401b821015610abf5781610a54916001600497969594018155612a45565b819291549060031b9133831b921b19161790558688528101835260408720610a7d858254612dc0565b905501610a8b838254612dc0565b90556040519384528301527fad441f9de4a3beb10e0d1ffe3b9b28f07e66aa51e7fcee0cc3d8596daaac270960403393a380f35b634e487b7160e01b8a52604160045260248afd5b634e487b7160e01b600052604160045260246000fd5b60405162461bcd60e51b815260048101869052600f60248201526e2737903b37ba34b733903837bbb2b960891b6044820152606490fd5b60405162461bcd60e51b815260048101859052600d60248201526c105b1c9958591e481d9bdd1959609a1b6044820152606490fd5b60405162461bcd60e51b8152600481018490526013602482015272159bdd1a5b99c81c195c9a5bd908195b991959606a1b6044820152606490fd5b60405162461bcd60e51b815260048101849052601360248201527213585c9ad95d081b9bdd08191a5cdc1d5d1959606a1b6044820152606490fd5b90508281813d8311610bf2575b610be28183612b06565b810103126104dc5751604b610969565b503d610bd8565b6040513d89823e3d90fd5b505033865260048252610c1e604b60408820541015612cdb565b610977565b503461022c57604036600319011261022c576024356001600160a01b03811691908290036104dc5760406001916004358152600360205220019060005260205260606040600020805490600260018201549101549060405192835260208301526040820152f35b503461022c576040602091610c9e36612a19565b9082526003845260028383200190825283522054604051908152f35b503461022c578060031936011261022c57604051600580548083529083526020808301937f036b6384b5eca791c62761152d0c79bb0604c104a5fb6f4eb0703f3154bb3db092915b828210610d2957610d2585610d1981890382612b06565b60405191829182612c30565b0390f35b835486529485019460019384019390910190610d02565b503461022c5760a036600319011261022c576044356001600160401b03811161066157610d71903690600401612bda565b6064356001600160401b03811161136957610d90903690600401612bda565b7f00000000000000000000000000000000000000000000000000000000000000006001600160a01b03163303611324576004358352600260205260408320546112e7574260843511156112a357604051610de981612aea565b600435815260243560208201528260408201528160608201528360808201528360a08201528360c08201528360e082015283610100820152836101208201528361014082015283610160820152836101808201526084356101a0820152836101c08201526004358452600260205260408420815181556020820151600182015560408201518051906001600160401b0382116111c4578190610e8e6002850154612a9d565b601f8111611252575b50602090601f83116001146111e35788926111d8575b50508160011b916000199060031b1c19161760028201555b60608201518051906001600160401b0382116111c4578190610eea6003850154612a9d565b601f8111611173575b50602090601f83116001146111045788926110f9575b50508160011b916000199060031b1c19161760038201555b6080820151600482015560a0820151600580830180546001600160a01b039384166001600160a01b03199182161790915560c0850151600685015560e08501516007850155610100850151600885018054919094169116179091556101208301516009830155610140830151600a830155610160830151600b8301556101808301519190600c8201908310156110e557600e60ff926101c092841995858783541691161790556101a0860151600d82015501930151151591835416911617905560055490600160401b9182811015610ad35760018101806005558110156110cf576005600052600435907f036b6384b5eca791c62761152d0c79bb0604c104a5fb6f4eb0703f3154bb3db00155805160208201208452600660205260408420805492831015610ad3578261105d91600161109795018155612a45565b81549060031b90600435821b91600019901b191617905561108960405193606085526060850190612a5d565b908382036020850152612a5d565b60843560408301527f78fb87fee77ef31b7db9ff0b08af431bb3a3b7e0112e29bdbc797d0e4d35cf8d6024359280600435930390a380f35b634e487b7160e01b600052603260045260246000fd5b634e487b7160e01b87526021600452602487fd5b015190503880610f09565b9250600384018852602088209088935b601f1984168510611158576001945083601f1981161061113f575b505050811b016003820155610f21565b015160001960f88460031b161c1916905538808061112f565b81810151835560209485019460019093019290910190611114565b90915060038401885260208820601f840160051c8101602085106111bd575b90849392915b601f830160051c820181106111ae575050610ef3565b60008155859450600101611198565b5080611192565b634e487b7160e01b87526041600452602487fd5b015190503880610ead565b9250600284018852602088209088935b601f1984168510611237576001945083601f1981161061121e575b505050811b016002820155610ec5565b015160001960f88460031b161c1916905538808061120e565b818101518355602094850194600190930192909101906111f3565b90915060028401885260208820601f840160051c81016020851061129c575b90849392915b601f830160051c8201811061128d575050610e97565b60008155859450600101611277565b5080611271565b606460405162461bcd60e51b815260206004820152602060248201527f4576656e7420656e642074696d65206d75737420626520696e206675747572656044820152fd5b60405162461bcd60e51b81526020600482015260156024820152744d61726b657420616c72656164792065786973747360581b6044820152606490fd5b60405162461bcd60e51b815260206004820152601b60248201527f4f6e6c7920426974726564696374506f6f6c2063616e2063616c6c00000000006044820152606490fd5b8280fd5b503461022c578060031936011261022c576020604051604b8152f35b503461022c578060031936011261022c57546040516001600160a01b039091168152602090f35b503461022c578060031936011261022c5760206040516802b5e3af16b18800008152f35b503461022c57602080600319360112610661576004358083526002825261140060408420541515612c97565b80835260028252604083209160ff600c8401541660058110156116895760030361164f57600e8301805460ff81166116125760ff1916600117905560088301546001600160a01b039081166114fa576005840180546007909501805460405163a9059cbb60e01b81529684166001600160a01b0316600488015260248701529492919082846044818a7f000000000000000000000000000000000000000000000000000000000000000087165af1938415610bf95760008051602061331a833981519152946114d59189916114e35750612d7d565b54169354604051908152a380f35b6104099150853d871161040f576104018183612b06565b600b84015460048501548103611601575060056115206007860154600a87015490612dc0565b9401805460405163a9059cbb60e01b81529083166001600160a01b031660048201526024810186905283816044818a7f000000000000000000000000000000000000000000000000000000000000000088165af1908115610bf95787916115e4575b50156115a65754604051948552169260008051602061331a8339815191529190a380f35b60405162461bcd60e51b815260048101849052601660248201527514995dd85c99081d1c985b9cd9995c8819985a5b195960521b6044820152606490fd5b6115fb9150843d861161040f576104018183612b06565b38611582565b9291505061160f9250612efa565b80f35b60405162461bcd60e51b8152600481018490526015602482015274109bdb991cc8185b1c9958591e4818db185a5b5959605a1b6044820152606490fd5b6064906040519062461bcd60e51b82526004820152601360248201527213585c9ad95d081b9bdd081c995cdbdb1d9959606a1b6044820152fd5b634e487b7160e01b85526021600452602485fd5b503461022c57602080600319360112610661576004356001600160401b038111611369576116cf903690600401612bda565b81815191012082526006815260408220916040518092808554928381520194835280832092905b82821061170d57610d2585610d1981890382612b06565b8354865294850194600193840193909101906116f6565b503461022c57602036600319011261022c57600435815260026020526040902080546001820154916002810161175990612b27565b61176560038301612b27565b91600481015492600160a01b600190038060058401541690600684015490600785015490600886015416600986015491600a87015493600b88015495600c89015460ff1697600d8a015499600e015460ff169a6040519e8f9e8f908152602001528d6101e090816040820152016117db91612a5d565b8d810360608f01526117ec91612a5d565b9a60808d015260a08c015260c08b015260e08a0152610100890152610120880152610140870152610160860152610180850161182791612bcd565b6101a084015215156101c08301520390f35b503461022c578060031936011261022c5760206040516202a3008152f35b503461022c578060031936011261022c57611870612c6b565b600080546001600160a01b0319811682556001600160a01b03167f8be0079c531659141344cd1fd0a4f28419497f9722a3daafe3b4186f6b6457e08280a380f35b503461022c57604036600319011261022c576118cb612a2f565b60008051602061333a8339815191526040602435926118e8612c6b565b60018060a01b031692838552600460205281852090808254925582519182526020820152a280f35b503461022c578060031936011261022c57602060405160648152f35b503461022c578060031936011261022c576001546040516001600160a01b039091168152602090f35b503461022c57602036600319011261022c57611972600435612e22565b90610d2560405192839215158352604060208401526040830190612a5d565b503461022c57602036600319011261022c576004356005548110156106615760209060056000527f036b6384b5eca791c62761152d0c79bb0604c104a5fb6f4eb0703f3154bb3db00154604051908152f35b503461022c576020806003193601126106615760043580835260028252611a0f60408420541515612c97565b6001546001600160a01b0392908316818115611d225760405163baccbfdb60e01b815233600482015291829060249082905afa908115611d17578591611ce9575b50604b611a5e911015612cdb565b8184526002815260408420600c81019060ff82541660058110156110e557600103611ca4576006810154620151808101809111611b98574211611c5f57846005820154163314611c0e576040516323b872dd60e01b815233600482015230602482015283816064818a68056bc75e2d631000009a8b60448401527f0000000000000000000000000000000000000000000000000000000000000000165af1908115610bf9578791611bf1575b5015611bac57600a816008879301336001600160601b0360a01b825416179055426009820155015560ff199060028282541617905582855260038252604085208381556202a3004201804211611b985760058201556006018054909116905560405192835233927f2cf997baab6ffa43a4ea6d22103db1212210a1692382c6d95fc16394e30b99cd9190a380f35b634e487b7160e01b87526011600452602487fd5b60405162461bcd60e51b815260048101849052601c60248201527f4469737075746520626f6e64207472616e73666572206661696c6564000000006044820152606490fd5b611c089150843d861161040f576104018183612b06565b38611b0a565b60405162461bcd60e51b8152600481018490526024808201527f50726f706f7365722063616e6e6f742064697370757465206f776e2070726f706044820152631bdcd85b60e21b6064820152608490fd5b60405162461bcd60e51b815260048101849052601860248201527f4368616c6c656e67652077696e646f77206578706972656400000000000000006044820152606490fd5b60405162461bcd60e51b815260048101849052601c60248201527f4d61726b6574206e6f7420696e2070726f706f736564207374617465000000006044820152606490fd5b90508181813d8311611d10575b611d008183612b06565b810103126104dc5751604b611a50565b503d611cf6565b6040513d87823e3d90fd5b505033845260048152611d3c604b60408620541015612cdb565b611a5e565b503461022c578060031936011261022c57602060405168056bc75e2d631000008152f35b503461022c57602036600319011261022c5760043581526002602052611d9060408220541515612c97565b600435815260026020526040812090600c82015460ff811660058110156125545760018103611f855750506006820154620151808101809111611f7157421115611f2c57600482015491600b8101928355600360ff19600c8301541617600c8201556005810160018060a01b0380825416948585526004602052604085205495600a8701808811611b985760008051602061333a833981519152604088998493848b52600460205280838c205582519182526020820152a2604051906000805160206132da8339815191526004359280611e6a428261321f565b0390a354915416600783015490604051928352602083015260408201526000805160206132fa833981519152606060043592a25b6001810154600b909101547f00000000000000000000000000000000000000000000000000000000000000006001600160a01b03169190823b15611f2757604484928360405195869485936311bf11df60e11b8552600485015260248401525af18015611f1c57611f0c5750f35b611f1590612ad7565b61022c5780f35b6040513d84823e3d90fd5b505050fd5b60405162461bcd60e51b815260206004820152601c60248201527f4368616c6c656e67652077696e646f77206e6f742065787069726564000000006044820152606490fd5b634e487b7160e01b82526011600452602482fd5b9192909160020361250f57600435835260036020526040832060058101544211156124ca57611fbb60ff60068301541615612de3565b600435845260036020819052604085209081015485949185805b8381106124695750505050600160069185600b860155600360ff1980921617600c86015582840154161791015560043583526002602052604083209160036020526040842091816004850154146000146123955760058401546001600160a01b03168086526004602052604086205490600a82018211611b98579060409187526004602052600a81018288205560008051602061333a83398151915260018060a01b03600588015416928392600a825191808352016020820152a2604051906000805160206132da83398151915260043592806120b2428261321f565b0390a35b845b6003840154811015612228576120d18160038601612a45565b905460039190911b1c6001600160a01b03166000818152600186016020526040902054840361218b578087526004602052604087205460058101811161217757908060008051602061333a83398151915260406121729594838c52600460205260058101828d20556005825191808352016020820152a2604051906000805160206132da833981519152600435928061216a428261329d565b0390a3612ec7565b6120b8565b634e487b7160e01b88526011600452602488fd5b8087526004602052604087205460038110612205578060021981011161217757908060008051602061333a83398151915260406121729594818c60021983019182915b8781526004602052205582519182526020820152a2604051906000805160206132da833981519152600435928061216a4282613264565b908060008051602061333a83398151915260406121729594818c809182916121ce565b50600484015491949390925060089185146122eb570180546001600160a01b0390811680855260046020526040852054919592600a830191828411611b9857869760008051602061333a833981519152926040928952600460205284838a2055541693849382519182526020820152a2604051906000805160206132da83398151915260043592806122ba428261329d565b0390a35b6040519081528260208201528260408201526000805160206132fa833981519152606060043592a2611e9e565b0180546001600160a01b03908116808552600460205260408520549195926008831061237a576007198301838111611b9857869760008051602061333a83398151915292604092945b8952600460205284838a2055541693849382519182526020820152a2604051906000805160206132da83398151915260043592806123724282613264565b0390a36122be565b6040869760008051602061333a833981519152928894612334565b60058401546001600160a01b03168086526004602052604086205490600f82106124625781600e19810111611b9857600e198201905b8752600460205280604088205560008051602061333a833981519152604060018060a01b0360058901541693849382519182526020820152a26040519060608252601c60608301527f4f5554434f4d455f50524f504f5345445f494e434f52524543544c59000000006080830152600e1960208301524260408301526000805160206132da83398151915260a060043593a36120b6565b86906123cb565b6124768160038501612a45565b60018060a01b0391549060031b1c1660005260018301602052604060002054808a526002840160205260408a20548381116124bc575b50506124b790612ec7565b611fd5565b90985091506124b7386124ac565b60405162461bcd60e51b815260206004820152601760248201527f566f74696e6720706572696f64206e6f7420656e6465640000000000000000006044820152606490fd5b60405162461bcd60e51b815260206004820152601f60248201527f4d61726b6574206e6f7420726561647920666f72207265736f6c7574696f6e006044820152606490fd5b634e487b7160e01b83526021600452602483fd5b503461022c57604036600319011261022c5760243590600435815260066020526040812090815483101561022c5760206125a28484612a45565b90546040519160031b1c8152f35b503461022c57602036600319011261022c576125ca612a2f565b6125d2612c6b565b60018060a01b03166001600160601b0360a01b600154161760015580f35b503461022c576125ff36612a19565b612607612c6b565b818352600260205260408320600c810180549060ff821660058110156110e5576003612634911415612de3565b83600b840155600360ff198093161790558385526003602052604085208054612713575b5050600101546001600160a01b039084907f00000000000000000000000000000000000000000000000000000000000000008316803b15611369576044839260405194859384926311bf11df60e11b845260048401528860248401525af18015611d17576126ed575b506000805160206132fa833981519152916060918554166040519182526020820152846040820152a280f35b916060919461270a6000805160206132fa83398151915294612ad7565b949150916126c1565b600660019101918254161790553880612658565b503461022c57604036600319011261022c576001600160401b03906004358281116106615761275a9036906004016129e9565b92602435908111611369576127739036906004016129e9565b909361277d612c6b565b81810361283957835b818110612791578480f35b6001600160a01b03806127a5838588612ed6565b6127ae90612ee6565b168652602090600482526040872054916127c984878b612ed6565b35826127d686888b612ed6565b6127df90612ee6565b1689526004825260408920556127f6848689612ed6565b6127ff90612ee6565b9061280b85888c612ed6565b35906040519485528401521690604060008051602061333a83398151915291a261283490612ec7565b612786565b60405162461bcd60e51b8152602060048201526015602482015274082e4e4c2f240d8cadccee8d040dad2e6dac2e8c6d605b1b6044820152606490fd5b503461022c5760208060031936011261066157906004358152600382526040812091600483015491600584015492600360ff600687015416950192604051808286549182815201908196865283862090865b81811061293757505050816128de910382612b06565b604051968796608088019488528388015215156040870152608060608701525180925260a0850193925b82811061291757505050500390f35b83516001600160a01b031685528695509381019392810192600101612908565b82546001600160a01b0316845292850192600192830192016128c8565b503461022c57602036600319011261022c576040608091600435815260036020522080549060048101549060ff6006600583015492015416916040519384526020840152604083015215156060820152f35b9050346106615781600319360112610661577f00000000000000000000000000000000000000000000000000000000000000006001600160a01b03168152602090f35b9181601f840112156104dc578235916001600160401b0383116104dc576020808501948460051b0101116104dc57565b60409060031901126104dc576004359060243590565b600435906001600160a01b03821682036104dc57565b80548210156110cf5760005260206000200190600090565b919082519283825260005b848110612a89575050826000602080949584010152601f8019910116010190565b602081830181015184830182015201612a68565b90600182811c92168015612acd575b6020831014612ab757565b634e487b7160e01b600052602260045260246000fd5b91607f1691612aac565b6001600160401b038111610ad357604052565b6101e081019081106001600160401b03821117610ad357604052565b90601f801991011681019081106001600160401b03821117610ad357604052565b9060405191826000825492612b3b84612a9d565b908184526001948581169081600014612baa5750600114612b67575b5050612b6592500383612b06565b565b9093915060005260209081600020936000915b818310612b92575050612b6593508201013880612b57565b85548884018501529485019487945091830191612b7a565b915050612b6594506020925060ff191682840152151560051b8201013880612b57565b9060058210156108a45752565b81601f820112156104dc578035906001600160401b038211610ad35760405192612c0e601f8401601f191660200185612b06565b828452602083830101116104dc57816000926020809301838601378301015290565b6020908160408183019282815285518094520193019160005b828110612c57575050505090565b835185529381019392810192600101612c49565b6000546001600160a01b03163303612c7f57565b60405163118cdaa760e01b8152336004820152602490fd5b15612c9e57565b60405162461bcd60e51b815260206004820152601560248201527413585c9ad95d08191bd95cc81b9bdd08195e1a5cdd605a1b6044820152606490fd5b15612ce257565b60405162461bcd60e51b815260206004820152601760248201527f496e73756666696369656e742072657075746174696f6e0000000000000000006044820152606490fd5b15612d2e57565b60405162461bcd60e51b815260206004820152600f60248201526e496e76616c6964206f7574636f6d6560881b6044820152606490fd5b908160209103126104dc575180151581036104dc5790565b15612d8457565b60405162461bcd60e51b8152602060048201526014602482015273109bdb99081d1c985b9cd9995c8819985a5b195960621b6044820152606490fd5b91908201809211612dcd57565b634e487b7160e01b600052601160045260246000fd5b15612dea57565b60405162461bcd60e51b815260206004820152601060248201526f105b1c9958591e481c995cdbdb1d995960821b6044820152606490fd5b9060009182526002602052604080832060ff600c82015416600581101561168957600314612e8057508281519160208301908382106001600160401b03831117612e6c5752815290565b634e487b7160e01b83526041600452602483fd5b600b90939193015492805193602085015260208452808401918483106001600160401b03841117612eb357505260019190565b634e487b7160e01b81526041600452602490fd5b6000198114612dcd5760010190565b91908110156110cf5760051b0190565b356001600160a01b03811681036104dc5790565b90600090828252602092600284526040938484209360039081835286812095612f2c6007820154600a83015490612dc0565b868352600288018552888320549182159081613127575060019889810198859187018b5b612f64575b50505050505050505050505050565b805483101561312257828b8e612f7b8f9685612a45565b90546001600160a01b03918d1b1c8116808c52928d52908a2080548614612faf575b505050612fa990612ec7565b92612f50565b95909192939495015480880290888204148815171561310e57866130fa578f908f96959493928d8b8d93049384612fe9575b505050612f9d565b5163a9059cbb60e01b81526001600160a01b03861660048083019190915260248201869052989950969795969495939492909183916044918391907f0000000000000000000000000000000000000000000000000000000000000000165af19081156130ec578b916130cf575b501561308c575091612fa9918f8f9695948d8f929160008051602061331a8339815191529251908152a390388f818d8c92612fe1565b8f5162461bcd60e51b81529081018c9052601c60248201527f566f74657220726577617264207472616e73666572206661696c6564000000006044820152606490fd5b6130e691508d803d1061040f576104018183612b06565b38613056565b50508f5190503d8a823e3d90fd5b634e487b7160e01b8a52601260045260248afd5b634e487b7160e01b8a52601160045260248afd5b612f55565b60080180548b5163a9059cbb60e01b81526001600160a01b03918216600482015260248101859052919c9b9a509798509596919591945090915085905081604481857f000000000000000000000000000000000000000000000000000000000000000088165af191821561321457916131f7575b50156131be5760008051602061331a8339815191529394959654169451908152a3565b845162461bcd60e51b8152600481018490526012602482015271109bdb99081c99599d5b990819985a5b195960721b6044820152606490fd5b61320e9150843d861161040f576104018183612b06565b3861319b565b8751903d90823e3d90fd5b919060608352601a60608401527f4f5554434f4d455f50524f504f5345445f434f52524543544c590000000000006080840152604060a0840193600a60208201520152565b919060608352601060608401526f10d2105313115391d157d1905253115160821b6080840152604060a084019360071960208201520152565b919060608352601460608401527310d2105313115391d157d4d550d0d154d4d1955360621b6080840152604060a0840193600a6020820152015256fe771bf1bb87cc205af921972b0ee8396e8a8e65d500a6950d7a84ad9ddf9d5e5891ca3f85aaee021f5716eb2dc0420a08d010f2c3559cffd95c5047b027e0ff9603e8263f3afed7930daa8af1e52a6fb85e3c91af66348b09d23e2201467c21455b88a2e3fc1a53234357ab78c104df11c33ccfa79886793654565ad70b8afb6ea2646970667358221220f41ea31b4c7ebf407a715a6265db360092113648e5651e4cf8b9ba715a92121664736f6c63430008140033",
  "linkReferences": {},
  "deployedLinkReferences": {}
}