{
  "_format": "hh-sol-artifact-1",
  "contractName": "ReputationSystem",
  "sourceName": "contracts/ReputationSystem.sol",
  "abi": [
    {
      "inputs": [],
      "stateMutability": "nonpayable",
      "type": "constructor"
    },
    {
      "inputs": [
        {
          "internalType": "address",
          "name": "owner",
          "type": "address"
        }
      ],
      "name": "OwnableInvalidOwner",
      "type": "error"
    },
    {
      "inputs": [
        {
          "internalType": "address",
          "name": "account",
          "type": "address"
        }
      ],
      "name": "OwnableUnauthorizedAccount",
      "type": "error"
    },
    {
      "anonymous": false,
      "inputs": [
        {
          "indexed": true,
          "internalType": "address",
          "name": "contractAddr",
          "type": "address"
        },
        {
          "indexed": false,
          "internalType": "bool",
          "name": "authorized",
          "type": "bool"
        }
      ],
      "name": "AuthorizedContractSet",
      "type": "event"
    },
    {
      "anonymous": false,
      "inputs": [
        {
          "indexed": true,
          "internalType": "address",
          "name": "updater",
          "type": "address"
        },
        {
          "indexed": false,
          "internalType": "bool",
          "name": "authorized",
          "type": "bool"
        }
      ],
      "name": "AuthorizedUpdaterSet",
      "type": "event"
    },
    {
      "anonymous": false,
      "inputs": [
        {
          "indexed": true,
          "internalType": "address",
          "name": "previousOwner",
          "type": "address"
        },
        {
          "indexed": true,
          "internalType": "address",
          "name": "newOwner",
          "type": "address"
        }
      ],
      "name": "OwnershipTransferred",
      "type": "event"
    },
    {
      "anonymous": false,
      "inputs": [
        {
          "indexed": true,
          "internalType": "address",
          "name": "user",
          "type": "address"
        },
        {
          "indexed": false,
          "internalType": "enum ReputationSystem.ReputationAction",
          "name": "action",
          "type": "uint8"
        },
        {
          "indexed": false,
          "internalType": "uint256",
          "name": "points",
          "type": "uint256"
        },
        {
          "indexed": false,
          "internalType": "string",
          "name": "details",
          "type": "string"
        }
      ],
      "name": "ReputationActionRecorded",
      "type": "event"
    },
    {
      "anonymous": false,
      "inputs": [
        {
          "indexed": true,
          "internalType": "address",
          "name": "user",
          "type": "address"
        },
        {
          "indexed": false,
          "internalType": "uint256",
          "name": "oldReputation",
          "type": "uint256"
        },
        {
          "indexed": false,
          "internalType": "uint256",
          "name": "newReputation",
          "type": "uint256"
        },
        {
          "indexed": false,
          "internalType": "string",
          "name": "reason",
          "type": "string"
        }
      ],
      "name": "ReputationUpdated",
      "type": "event"
    },
    {
      "anonymous": false,
      "inputs": [
        {
          "indexed": true,
          "internalType": "address",
          "name": "user",
          "type": "address"
        },
        {
          "indexed": false,
          "internalType": "bool",
          "name": "verified",
          "type": "bool"
        }
      ],
      "name": "UserVerified",
      "type": "event"
    },
    {
      "inputs": [],
      "name": "DEFAULT_REPUTATION",
      "outputs": [
        {
          "internalType": "uint256",
          "name": "",
          "type": "uint256"
        }
      ],
      "stateMutability": "view",
      "type": "function"
    },
    {
      "inputs": [],
      "name": "MAX_REPUTATION",
      "outputs": [
        {
          "internalType": "uint256",
          "name": "",
          "type": "uint256"
        }
      ],
      "stateMutability": "view",
      "type": "function"
    },
    {
      "inputs": [],
      "name": "MIN_GUIDED_POOL_REPUTATION",
      "outputs": [
        {
          "internalType": "uint256",
          "name": "",
          "type": "uint256"
        }
      ],
      "stateMutability": "view",
      "type": "function"
    },
    {
      "inputs": [],
      "name": "MIN_OPEN_POOL_REPUTATION",
      "outputs": [
        {
          "internalType": "uint256",
          "name": "",
          "type": "uint256"
        }
      ],
      "stateMutability": "view",
      "type": "function"
    },
    {
      "inputs": [],
      "name": "MIN_OUTCOME_PROPOSAL_REPUTATION",
      "outputs": [
        {
          "internalType": "uint256",
          "name": "",
          "type": "uint256"
        }
      ],
      "stateMutability": "view",
      "type": "function"
    },
    {
      "inputs": [],
      "name": "MIN_PREMIUM_FEATURES_REPUTATION",
      "outputs": [
        {
          "internalType": "uint256",
          "name": "",
          "type": "uint256"
        }
      ],
      "stateMutability": "view",
      "type": "function"
    },
    {
      "inputs": [
        {
          "internalType": "address",
          "name": "",
          "type": "address"
        },
        {
          "internalType": "string",
          "name": "",
          "type": "string"
        }
      ],
      "name": "actionCounts",
      "outputs": [
        {
          "internalType": "uint256",
          "name": "",
          "type": "uint256"
        }
      ],
      "stateMutability": "view",
      "type": "function"
    },
    {
      "inputs": [
        {
          "internalType": "address",
          "name": "",
          "type": "address"
        }
      ],
      "name": "authorizedContracts",
      "outputs": [
        {
          "internalType": "bool",
          "name": "",
          "type": "bool"
        }
      ],
      "stateMutability": "view",
      "type": "function"
    },
    {
      "inputs": [
        {
          "internalType": "address",
          "name": "",
          "type": "address"
        }
      ],
      "name": "authorizedUpdaters",
      "outputs": [
        {
          "internalType": "bool",
          "name": "",
          "type": "bool"
        }
      ],
      "stateMutability": "view",
      "type": "function"
    },
    {
      "inputs": [
        {
          "internalType": "address[]",
          "name": "users",
          "type": "address[]"
        },
        {
          "internalType": "uint256[]",
          "name": "reputations",
          "type": "uint256[]"
        }
      ],
      "name": "batchUpdateReputation",
      "outputs": [],
      "stateMutability": "nonpayable",
      "type": "function"
    },
    {
      "inputs": [
        {
          "internalType": "address",
          "name": "user",
          "type": "address"
        }
      ],
      "name": "canCreateGuidedPool",
      "outputs": [
        {
          "internalType": "bool",
          "name": "",
          "type": "bool"
        }
      ],
      "stateMutability": "view",
      "type": "function"
    },
    {
      "inputs": [
        {
          "internalType": "address",
          "name": "user",
          "type": "address"
        }
      ],
      "name": "canCreateOpenPool",
      "outputs": [
        {
          "internalType": "bool",
          "name": "",
          "type": "bool"
        }
      ],
      "stateMutability": "view",
      "type": "function"
    },
    {
      "inputs": [
        {
          "internalType": "address",
          "name": "user",
          "type": "address"
        }
      ],
      "name": "canProposeOutcome",
      "outputs": [
        {
          "internalType": "bool",
          "name": "",
          "type": "bool"
        }
      ],
      "stateMutability": "view",
      "type": "function"
    },
    {
      "inputs": [
        {
          "internalType": "address",
          "name": "user",
          "type": "address"
        }
      ],
      "name": "getReputationBundle",
      "outputs": [
        {
          "internalType": "uint256",
          "name": "reputation",
          "type": "uint256"
        },
        {
          "internalType": "bool",
          "name": "canCreateGuided",
          "type": "bool"
        },
        {
          "internalType": "bool",
          "name": "canCreateOpen",
          "type": "bool"
        },
        {
          "internalType": "bool",
          "name": "canPropose",
          "type": "bool"
        }
      ],
      "stateMutability": "view",
      "type": "function"
    },
    {
      "inputs": [],
      "name": "getReputationThresholds",
      "outputs": [
        {
          "internalType": "uint256",
          "name": "minGuided",
          "type": "uint256"
        },
        {
          "internalType": "uint256",
          "name": "minOpen",
          "type": "uint256"
        },
        {
          "internalType": "uint256",
          "name": "minProposal",
          "type": "uint256"
        },
        {
          "internalType": "uint256",
          "name": "minPremium",
          "type": "uint256"
        },
        {
          "internalType": "uint256",
          "name": "defaultRep",
          "type": "uint256"
        },
        {
          "internalType": "uint256",
          "name": "maxRep",
          "type": "uint256"
        }
      ],
      "stateMutability": "pure",
      "type": "function"
    },
    {
      "inputs": [
        {
          "internalType": "address",
          "name": "user",
          "type": "address"
        }
      ],
      "name": "getUserReputation",
      "outputs": [
        {
          "internalType": "uint256",
          "name": "",
          "type": "uint256"
        }
      ],
      "stateMutability": "view",
      "type": "function"
    },
    {
      "inputs": [
        {
          "internalType": "address",
          "name": "user",
          "type": "address"
        }
      ],
      "name": "getUserReputationData",
      "outputs": [
        {
          "internalType": "uint256",
          "name": "reputation",
          "type": "uint256"
        },
        {
          "internalType": "uint256",
          "name": "influenceScoreValue",
          "type": "uint256"
        },
        {
          "internalType": "uint256",
          "name": "socialEngagementValue",
          "type": "uint256"
        },
        {
          "internalType": "uint256",
          "name": "predictionStreakValue",
          "type": "uint256"
        },
        {
          "internalType": "uint256",
          "name": "longestStreakValue",
          "type": "uint256"
        },
        {
          "internalType": "bool",
          "name": "verified",
          "type": "bool"
        },
        {
          "internalType": "uint256",
          "name": "totalActionsCount",
          "type": "uint256"
        },
        {
          "internalType": "uint256",
          "name": "successfulActionsCount",
          "type": "uint256"
        },
        {
          "internalType": "uint256",
          "name": "successRate",
          "type": "uint256"
        }
      ],
      "stateMutability": "view",
      "type": "function"
    },
    {
      "inputs": [
        {
          "internalType": "address",
          "name": "",
          "type": "address"
        }
      ],
      "name": "influenceScore",
      "outputs": [
        {
          "internalType": "uint256",
          "name": "",
          "type": "uint256"
        }
      ],
      "stateMutability": "view",
      "type": "function"
    },
    {
      "inputs": [
        {
          "internalType": "address",
          "name": "caller",
          "type": "address"
        }
      ],
      "name": "isAuthorized",
      "outputs": [
        {
          "internalType": "bool",
          "name": "",
          "type": "bool"
        }
      ],
      "stateMutability": "view",
      "type": "function"
    },
    {
      "inputs": [
        {
          "internalType": "address",
          "name": "",
          "type": "address"
        }
      ],
      "name": "isVerifiedCreator",
      "outputs": [
        {
          "internalType": "bool",
          "name": "",
          "type": "bool"
        }
      ],
      "stateMutability": "view",
      "type": "function"
    },
    {
      "inputs": [
        {
          "internalType": "address",
          "name": "",
          "type": "address"
        }
      ],
      "name": "lastActionTime",
      "outputs": [
        {
          "internalType": "uint256",
          "name": "",
          "type": "uint256"
        }
      ],
      "stateMutability": "view",
      "type": "function"
    },
    {
      "inputs": [
        {
          "internalType": "address",
          "name": "",
          "type": "address"
        }
      ],
      "name": "longestStreak",
      "outputs": [
        {
          "internalType": "uint256",
          "name": "",
          "type": "uint256"
        }
      ],
      "stateMutability": "view",
      "type": "function"
    },
    {
      "inputs": [],
      "name": "owner",
      "outputs": [
        {
          "internalType": "address",
          "name": "",
          "type": "address"
        }
      ],
      "stateMutability": "view",
      "type": "function"
    },
    {
      "inputs": [
        {
          "internalType": "address",
          "name": "",
          "type": "address"
        }
      ],
      "name": "predictionStreak",
      "outputs": [
        {
          "internalType": "uint256",
          "name": "",
          "type": "uint256"
        }
      ],
      "stateMutability": "view",
      "type": "function"
    },
    {
      "inputs": [
        {
          "internalType": "address",
          "name": "user",
          "type": "address"
        },
        {
          "internalType": "enum ReputationSystem.ReputationAction",
          "name": "action",
          "type": "uint8"
        },
        {
          "internalType": "string",
          "name": "details",
          "type": "string"
        }
      ],
      "name": "recordReputationAction",
      "outputs": [],
      "stateMutability": "nonpayable",
      "type": "function"
    },
    {
      "inputs": [],
      "name": "renounceOwnership",
      "outputs": [],
      "stateMutability": "nonpayable",
      "type": "function"
    },
    {
      "inputs": [
        {
          "internalType": "enum ReputationSystem.ReputationAction",
          "name": "",
          "type": "uint8"
        }
      ],
      "name": "reputationPoints",
      "outputs": [
        {
          "internalType": "int256",
          "name": "",
          "type": "int256"
        }
      ],
      "stateMutability": "view",
      "type": "function"
    },
    {
      "inputs": [
        {
          "internalType": "address",
          "name": "contractAddr",
          "type": "address"
        },
        {
          "internalType": "bool",
          "name": "authorized",
          "type": "bool"
        }
      ],
      "name": "setAuthorizedContract",
      "outputs": [],
      "stateMutability": "nonpayable",
      "type": "function"
    },
    {
      "inputs": [
        {
          "internalType": "address",
          "name": "updater",
          "type": "address"
        },
        {
          "internalType": "bool",
          "name": "authorized",
          "type": "bool"
        }
      ],
      "name": "setAuthorizedUpdater",
      "outputs": [],
      "stateMutability": "nonpayable",
      "type": "function"
    },
    {
      "inputs": [
        {
          "internalType": "address",
          "name": "user",
          "type": "address"
        },
        {
          "internalType": "bool",
          "name": "verified",
          "type": "bool"
        }
      ],
      "name": "setUserVerified",
      "outputs": [],
      "stateMutability": "nonpayable",
      "type": "function"
    },
    {
      "inputs": [
        {
          "internalType": "address",
          "name": "",
          "type": "address"
        }
      ],
      "name": "socialEngagement",
      "outputs": [
        {
          "internalType": "uint256",
          "name": "",
          "type": "uint256"
        }
      ],
      "stateMutability": "view",
      "type": "function"
    },
    {
      "inputs": [
        {
          "internalType": "address",
          "name": "",
          "type": "address"
        }
      ],
      "name": "successfulActions",
      "outputs": [
        {
          "internalType": "uint256",
          "name": "",
          "type": "uint256"
        }
      ],
      "stateMutability": "view",
      "type": "function"
    },
    {
      "inputs": [
        {
          "internalType": "address",
          "name": "",
          "type": "address"
        }
      ],
      "name": "totalActions",
      "outputs": [
        {
          "internalType": "uint256",
          "name": "",
          "type": "uint256"
        }
      ],
      "stateMutability": "view",
      "type": "function"
    },
    {
      "inputs": [
        {
          "internalType": "address",
          "name": "newOwner",
          "type": "address"
        }
      ],
      "name": "transferOwnership",
      "outputs": [],
      "stateMutability": "nonpayable",
      "type": "function"
    },
    {
      "inputs": [
        {
          "internalType": "address",
          "name": "user",
          "type": "address"
        },
        {
          "internalType": "uint256",
          "name": "newReputation",
          "type": "uint256"
        }
      ],
      "name": "updateReputation",
      "outputs": [],
      "stateMutability": "nonpayable",
      "type": "function"
    },
    {
      "inputs": [
        {
          "internalType": "address",
          "name": "",
          "type": "address"
        }
      ],
      "name": "userReputation",
      "outputs": [
        {
          "internalType": "uint256",
          "name": "",
          "type": "uint256"
        }
      ],
      "stateMutability": "view",
      "type": "function"
    }
  ],
  "bytecode": "0x608060409080825234610186573315610170575060008054336001600160a01b0319821681178355600f9284929091906001600160a01b03167f8be0079c531659141344cd1fd0a4f28419497f9722a3daafe3b4186f6b6457e08380a3808052600d6020526004828220556001815260028282205560028152600382822055600381526008828220556004815282828220556005815260088282205560068152600e198282205560078152600c8282205560088152601319808383205560098252600a83832055600a8252600b1983832055600b8252600283832055600c825260001983832055600d8252600183832055600e8252600383832055838252603119838320556010825260631983832055601182526014838320556012825282822055601381526001828220556014815260038282205560158152600482822055601681526006828220556017815260088282205560188152600a8282205560198152205551611236908161018c8239f35b631e4fbdf760e01b815260006004820152602490fd5b600080fdfe608060408181526004918236101561001657600080fd5b600092833560e01c9182631ac9b58714610e345750816327f0bfd614610dfc57816331bc3fca14610dc6578163350df23c14610d8e57816338841bda14610d715781633e2cb90214610d2e57816350dcf82714610d335781635b33f2601461072e57816369ce34ab14610d2e5781636a56e60f14610cb6578163715018a614610c6e578163810a30ce14610b5f5781638da5cb5b14610b375781638ff29cfe14610af957816394f4c71e14610a9757816398581e6e14610a3f57816399fc65d4146109e75781639c82b87e146109af5781639eb74fa01461075d5781639f98f9c81461072e578163a61dd46e146105f6578163a75f78bb146105be578163ad8ce724146105b9578163adc257e9146105b9578163baccbfdb14610572578163c7d67a9014610540578163d213c0f214610523578163d5b9221b146104e5578163de96303b146104ad578163e503bb0514610475578163f2fa739214610413578163f2fde38b1461039e578163f5c91a08146102e7578163faef13ac146102af578163fbad6cf51461020c575063fe9fbb80146101b157600080fd5b3461020857602036600319011261020857602091906001600160a01b036101d6610e73565b168252600b835260ff81832054169182156101f5575b50519015158152f35b600c84528190205460ff169150386101ec565b5080fd5b83833461020857602092836003193601126102ab57610229610e73565b825163baccbfdb60e01b81526001600160a01b03909116918101919091528381602481305afa9283156102a057809361026a575b5050602890519110158152f35b909192508382813d8311610299575b6102838183610eaa565b810103126102965750519060288461025d565b80fd5b503d610279565b8251903d90823e3d90fd5b8280fd5b5050346102085760203660031901126102085760209181906001600160a01b036102d7610e73565b1681526002845220549051908152f35b5050346102085780600319360112610208576000805160206111a183398151915260a0610312610e73565b606060243591338752600b60205260ff8688205416801561038c575b61033790611043565b6103456101f4841115611080565b600180851b031694858752600160205280872092808454945581519384526020840152820152600d60608201526c4d616e75616c2075706461746560981b6080820152a280f35b50600c6020528587205460ff1661032e565b9050346102ab5760203660031901126102ab576103b9610e73565b906103c2611006565b6001600160a01b039182169283156103fd57505082546001600160a01b0319811683178455166000805160206111c18339815191528380a380f35b51631e4fbdf760e01b8152908101849052602490fd5b505034610208577f9e332d211d74bf0f2703fcd38834004e77ced4c08da277cb45fb05e35ac5b280602061044636610f5c565b9061044f611006565b60018060a01b031693848652600c835261046b82828820611032565b519015158152a280f35b5050346102085760203660031901126102085760209181906001600160a01b0361049d610e73565b1681526001845220549051908152f35b5050346102085760203660031901126102085760209181906001600160a01b036104d5610e73565b1681526005845220549051908152f35b5050346102085760203660031901126102085760209160ff9082906001600160a01b03610510610e73565b168152600c855220541690519015158152f35b505034610208578160031936011261020857602090516101f48152f35b9050346102ab5760203660031901126102ab573591601a831015610296575061056a602092610fd7565b549051908152f35b505034610208576020366003190112610208576020916001600160a01b03610598610e73565b1681526001835281902054806105b357506028905b51908152f35b906105ad565b610fbb565b5050346102085760203660031901126102085760209181906001600160a01b036105e6610e73565b1681526007845220549051908152f35b919050346102ab57806003193601126102ab576001600160401b0390823582811161072a576106289036908501610f8b565b939092602435908111610726576106429036908301610f8b565b90338752602092600b845260ff85892054168015610715575b61066490611043565b8287036106da5750865b868110610679578780f35b6106926101f461068a8386866110ff565b351115611080565b61069d8184846110ff565b35906106aa8189896110ff565b356001600160a01b03811692908390036106d6576106d1928a5260018652868a20556110f0565b61066e565b8980fd5b845162461bcd60e51b81529081018490526015602482015274082e4e4c2f240d8cadccee8d040dad2e6dac2e8c6d605b1b6044820152606490fd5b50600c84528488205460ff1661065b565b8580fd5b8480fd5b5050346102085760203660031901126102085760209061075461074f610e73565b611125565b90519015158152f35b919050346102ab5760603660031901126102ab57610779610e73565b9060243592601a84101561072a576044356001600160401b038111610726576107a59036908301610ee3565b92338652602090600b825260ff8488205416801561099e575b6107c790611043565b6107d086610fd7565b546001600160a01b03909116808852600183528488205490969095888313801561090a57838801958689116108f75750869386936060969360a0998d8d956000805160206111a18339815191529d9b986101f48091116108ee575b5091608093916000805160206111e18339815191529695935b88825260018a528a8383205560078a5282822061086181546110f0565b9055888252600a8a5242838320556108d6575b5051938492835287830152898983015261089b81518092818d860152898686019101610f39565b601f01601f19168101030190a28251948552840152820152600f60608201526e1058dd1a5bdb881c9958dbdc991959608a1b6080820152a280f35b60088952206108e581546110f0565b9055888f610874565b9850608061082b565b634e487b7160e01b8b526011905260248afd5b94888a610916866110c9565b8a10610967575050610927846110c9565b8803908882116108f757506000805160206111e1833981519152879460806000805160206111a18339815191529a98956060989560a09b8f8f9799610844565b6000805160206111e18339815191529192509460806000805160206111a18339815191529a9895606098958b8960a09d9a99610844565b50600c82528387205460ff166107be565b5050346102085760203660031901126102085760209181906001600160a01b036109d7610e73565b1681526008845220549051908152f35b505034610208577f0b820fe6cf998498ff3199cab21fb6482c7a422cbdf4ea7e8f1d3904058899856020610a1a36610f5c565b90610a23611006565b60018060a01b031693848652600b835261046b82828820611032565b505034610208577f34736af44d2b91cd43fa896d4cfe0861ec1e6b4538583d385fc671639e9153b26020610a7236610f5c565b90610a7b611006565b60018060a01b0316938486526006835261046b82828820611032565b505034610208576020366003190112610208576080916001600160a01b03610abd610e73565b16815260016020528190205480610af357506028905b606482101581602882935194808652101560208501528301526060820152f35b90610ad3565b5050346102085760203660031901126102085760209160ff9082906001600160a01b03610b24610e73565b168152600b855220541690519015158152f35b505034610208578160031936011261020857905490516001600160a01b039091168152602090f35b8284346102965760209081600319360112610296576001600160a01b03610b84610e73565b168152600182528281205480610c6857506028925b6002835280822054906003845280832054868552818420546005865282852054916006875260ff8487205416936007885280872054956008895281882054978715908115600014610c5b5760648a02918a83046064148b151715610c4757610c3457506101209b50879004985b82519a8b528a015288015260608701526080860152151560a085015260c084015260e0830152610100820152f35b634e487b7160e01b815260128d52602490fd5b50634e487b7160e01b815260118d52602490fd5b90506101209b5098610c06565b92610b99565b8334610296578060031936011261029657610c87611006565b80546001600160a01b03198116825581906001600160a01b03166000805160206111c18339815191528280a380f35b9050346102ab57816003193601126102ab57610cd0610e73565b906024356001600160401b03811161072a579183602095610cf88794610d1d96369101610ee3565b6001600160a01b03909316815260098452208451825190948593829085908701610f39565b820190815203019020549051908152f35b610e8e565b5050346102085760203660031901126102085760209160ff9082906001600160a01b03610d5e610e73565b1681526006855220541690519015158152f35b5050346102085781600319360112610208576020905161012c8152f35b5050346102085760203660031901126102085760209181906001600160a01b03610db6610e73565b1681526003845220549051908152f35b9050346102ab5760203660031901126102ab5760209282916001600160a01b03610dee610e73565b168252845220549051908152f35b5050346102085760203660031901126102085760209181906001600160a01b03610e24610e73565b168152600a845220549051908152f35b8390853461029657806003193601126102965750606460c0926028835281602084015282015261012c6060820152602860808201526101f460a0820152f35b600435906001600160a01b0382168203610e8957565b600080fd5b34610e89576000366003190112610e8957602060405160288152f35b601f909101601f19168101906001600160401b03821190821017610ecd57604052565b634e487b7160e01b600052604160045260246000fd5b81601f82011215610e89578035906001600160401b038211610ecd5760405192610f17601f8401601f191660200185610eaa565b82845260208383010111610e8957816000926020809301838601378301015290565b60005b838110610f4c5750506000910152565b8181015183820152602001610f3c565b6040906003190112610e89576004356001600160a01b0381168103610e8957906024358015158103610e895790565b9181601f84011215610e89578235916001600160401b038311610e89576020808501948460051b010111610e8957565b34610e89576000366003190112610e8957602060405160648152f35b601a811015610ff057600052600d602052604060002090565b634e487b7160e01b600052602160045260246000fd5b6000546001600160a01b0316330361101a57565b60405163118cdaa760e01b8152336004820152602490fd5b9060ff801983541691151516179055565b1561104a57565b60405162461bcd60e51b815260206004820152600e60248201526d139bdd08185d5d1a1bdc9a5e995960921b6044820152606490fd5b1561108757565b60405162461bcd60e51b815260206004820152601a60248201527952657075746174696f6e2065786365656473206d6178696d756d60301b6044820152606490fd5b600160ff1b81146110da5760000390565b634e487b7160e01b600052601160045260246000fd5b60001981146110da5760010190565b919081101561110f5760051b0190565b634e487b7160e01b600052603260045260246000fd5b60405163baccbfdb60e01b81526001600160a01b039091166004820152602081602481305afa801561119457600090611162575b60649150101590565b6020823d821161118c575b8161117a60209383610eaa565b81010312610296575060649051611159565b3d915061116d565b6040513d6000823e3d90fdfe4146a620f234be49686701963664655b5fb451997f8462f773d272d68f17043f8be0079c531659141344cd1fd0a4f28419497f9722a3daafe3b4186f6b6457e0e183bf4de186bdc9462a8619f83cdadf9fdb7eaf27962551a46b263e5bc8fc02a264697066735822122039fee32c97be2b9f1694dcbcb32ef4fc636e5c9b779597863e19a53c549a20cd64736f6c63430008140033",
  "linkReferences": {},
  "deployedLinkReferences": {}
}