{
  "_format": "hh-sol-artifact-1",
  "contractName": "ReputationSystem",
  "sourceName": "contracts/ReputationSystem.sol",
  "abi": [
    {
      "inputs": [
        {
          "internalType": "address",
          "name": "initialOwner",
          "type": "address"
        }
      ],
      "stateMutability": "nonpayable",
      "type": "constructor"
    },
    {
      "inputs": [
        {
          "internalType": "address",
          "name": "owner",
          "type": "address"
        }
      ],
      "name": "OwnableInvalidOwner",
      "type": "error"
    },
    {
      "inputs": [
        {
          "internalType": "address",
          "name": "account",
          "type": "address"
        }
      ],
      "name": "OwnableUnauthorizedAccount",
      "type": "error"
    },
    {
      "anonymous": false,
      "inputs": [
        {
          "indexed": true,
          "internalType": "address",
          "name": "previousOwner",
          "type": "address"
        },
        {
          "indexed": true,
          "internalType": "address",
          "name": "newOwner",
          "type": "address"
        }
      ],
      "name": "OwnershipTransferred",
      "type": "event"
    },
    {
      "anonymous": false,
      "inputs": [
        {
          "indexed": true,
          "internalType": "address",
          "name": "user",
          "type": "address"
        },
        {
          "indexed": false,
          "internalType": "uint256",
          "name": "oldReputation",
          "type": "uint256"
        },
        {
          "indexed": false,
          "internalType": "uint256",
          "name": "newReputation",
          "type": "uint256"
        }
      ],
      "name": "ReputationUpdated",
      "type": "event"
    },
    {
      "anonymous": false,
      "inputs": [
        {
          "indexed": true,
          "internalType": "address",
          "name": "updater",
          "type": "address"
        },
        {
          "indexed": false,
          "internalType": "bool",
          "name": "authorized",
          "type": "bool"
        }
      ],
      "name": "UpdaterAuthorized",
      "type": "event"
    },
    {
      "inputs": [],
      "name": "DEFAULT_REPUTATION",
      "outputs": [
        {
          "internalType": "uint256",
          "name": "",
          "type": "uint256"
        }
      ],
      "stateMutability": "view",
      "type": "function"
    },
    {
      "inputs": [],
      "name": "MAX_REPUTATION",
      "outputs": [
        {
          "internalType": "uint256",
          "name": "",
          "type": "uint256"
        }
      ],
      "stateMutability": "view",
      "type": "function"
    },
    {
      "inputs": [],
      "name": "MIN_GUIDED_POOL_REPUTATION",
      "outputs": [
        {
          "internalType": "uint256",
          "name": "",
          "type": "uint256"
        }
      ],
      "stateMutability": "view",
      "type": "function"
    },
    {
      "inputs": [],
      "name": "MIN_OPEN_POOL_REPUTATION",
      "outputs": [
        {
          "internalType": "uint256",
          "name": "",
          "type": "uint256"
        }
      ],
      "stateMutability": "view",
      "type": "function"
    },
    {
      "inputs": [],
      "name": "MIN_OUTCOME_PROPOSAL_REPUTATION",
      "outputs": [
        {
          "internalType": "uint256",
          "name": "",
          "type": "uint256"
        }
      ],
      "stateMutability": "view",
      "type": "function"
    },
    {
      "inputs": [
        {
          "internalType": "address",
          "name": "",
          "type": "address"
        }
      ],
      "name": "authorizedUpdaters",
      "outputs": [
        {
          "internalType": "bool",
          "name": "",
          "type": "bool"
        }
      ],
      "stateMutability": "view",
      "type": "function"
    },
    {
      "inputs": [
        {
          "internalType": "address[]",
          "name": "users",
          "type": "address[]"
        },
        {
          "internalType": "uint256[]",
          "name": "reputations",
          "type": "uint256[]"
        }
      ],
      "name": "batchUpdateReputation",
      "outputs": [],
      "stateMutability": "nonpayable",
      "type": "function"
    },
    {
      "inputs": [
        {
          "internalType": "address",
          "name": "user",
          "type": "address"
        }
      ],
      "name": "canCreateGuidedPool",
      "outputs": [
        {
          "internalType": "bool",
          "name": "",
          "type": "bool"
        }
      ],
      "stateMutability": "view",
      "type": "function"
    },
    {
      "inputs": [
        {
          "internalType": "address",
          "name": "user",
          "type": "address"
        }
      ],
      "name": "canCreateOpenPool",
      "outputs": [
        {
          "internalType": "bool",
          "name": "",
          "type": "bool"
        }
      ],
      "stateMutability": "view",
      "type": "function"
    },
    {
      "inputs": [
        {
          "internalType": "address",
          "name": "user",
          "type": "address"
        }
      ],
      "name": "canProposeOutcome",
      "outputs": [
        {
          "internalType": "bool",
          "name": "",
          "type": "bool"
        }
      ],
      "stateMutability": "view",
      "type": "function"
    },
    {
      "inputs": [
        {
          "internalType": "address",
          "name": "user",
          "type": "address"
        }
      ],
      "name": "getUserReputation",
      "outputs": [
        {
          "internalType": "uint256",
          "name": "",
          "type": "uint256"
        }
      ],
      "stateMutability": "view",
      "type": "function"
    },
    {
      "inputs": [
        {
          "internalType": "address",
          "name": "user",
          "type": "address"
        }
      ],
      "name": "initializeUserReputation",
      "outputs": [],
      "stateMutability": "nonpayable",
      "type": "function"
    },
    {
      "inputs": [],
      "name": "owner",
      "outputs": [
        {
          "internalType": "address",
          "name": "",
          "type": "address"
        }
      ],
      "stateMutability": "view",
      "type": "function"
    },
    {
      "inputs": [],
      "name": "renounceOwnership",
      "outputs": [],
      "stateMutability": "nonpayable",
      "type": "function"
    },
    {
      "inputs": [
        {
          "internalType": "address",
          "name": "updater",
          "type": "address"
        },
        {
          "internalType": "bool",
          "name": "authorized",
          "type": "bool"
        }
      ],
      "name": "setAuthorizedUpdater",
      "outputs": [],
      "stateMutability": "nonpayable",
      "type": "function"
    },
    {
      "inputs": [
        {
          "internalType": "address",
          "name": "newOwner",
          "type": "address"
        }
      ],
      "name": "transferOwnership",
      "outputs": [],
      "stateMutability": "nonpayable",
      "type": "function"
    },
    {
      "inputs": [
        {
          "internalType": "address",
          "name": "user",
          "type": "address"
        },
        {
          "internalType": "uint256",
          "name": "newReputation",
          "type": "uint256"
        }
      ],
      "name": "updateReputation",
      "outputs": [],
      "stateMutability": "nonpayable",
      "type": "function"
    },
    {
      "inputs": [
        {
          "internalType": "address",
          "name": "",
          "type": "address"
        }
      ],
      "name": "userReputation",
      "outputs": [
        {
          "internalType": "uint256",
          "name": "",
          "type": "uint256"
        }
      ],
      "stateMutability": "view",
      "type": "function"
    }
  ],
  "bytecode": "0x6080346100cd57601f610a5a38819003918201601f19168301916001600160401b038311848410176100d2578084926020946040528339810103126100cd57516001600160a01b0390818116908190036100cd5780156100b457600080546001600160a01b031981168317825560408051946101f4949193928291167f8be0079c531659141344cd1fd0a4f28419497f9722a3daafe3b4186f6b6457e08480a381526001602052205561097190816100e98239f35b604051631e4fbdf760e01b815260006004820152602490fd5b600080fd5b634e487b7160e01b600052604160045260246000fdfe6040608081526004908136101561001557600080fd5b600090813560e01c80633e2cb902146106fa5780635b33f2601461058d57806369ce34ab146106fa578063715018a6146106a05780638da5cb5b146106795780638ff29cfe1461063c57806399fc65d4146105bb5780639f98f9c81461058d578063a61dd46e146103cc578063ad8ce724146103c7578063adc257e9146103c7578063baccbfdb14610381578063d213c0f214610365578063db7b29aa146102f1578063e503bb05146102ba578063f2fde38b14610233578063f5c91a081461018c5763fbad6cf5146100e757600080fd5b3461018857602092836003193601126101845761010261071b565b825163baccbfdb60e01b81526001600160a01b03909116918101919091528381602481305afa928315610179578093610143575b5050602890519110158152f35b909192508382813d8311610172575b61015c8183610888565b8101031261016f57505190602838610136565b80fd5b503d610152565b8251903d90823e3d90fd5b8280fd5b5080fd5b50346101885780600319360112610188577f5b88a2e3fc1a53234357ab78c104df11c33ccfa79886793654565ad70b8afb6e6101c661071b565b9160243592338552600260205260ff82862054168015610220575b6101ea906107aa565b6101f86101f4851115610802565b60018060a01b031692838552600160205281852090808254925582519182526020820152a280f35b5084546001600160a01b031633146101e1565b5082346101845760203660031901126101845761024e61071b565b9061025761077e565b6001600160a01b039182169283156102a457505082546001600160a01b0319811683178455167f8be0079c531659141344cd1fd0a4f28419497f9722a3daafe3b4186f6b6457e08380a380f35b51631e4fbdf760e01b8152908101849052602490fd5b50346101885760203660031901126101885760209181906001600160a01b036102e161071b565b1681526001845220549051908152f35b5034610188576020366003190112610188576001600160a01b0361031361071b565b169081835260016020528083209081541561032c578380f35b60287f5b88a2e3fc1a53234357ab78c104df11c33ccfa79886793654565ad70b8afb6e9255805184815260286020820152a28180808380f35b5034610188578160031936011261018857602090516101f48152f35b5034610188576020366003190112610188576020916001600160a01b036103a661071b565b1681526001835281902054806103c157506028905b51908152f35b906103bb565b610762565b5082903461018457806003193601126101845767ffffffffffffffff918035838111610589576103ff9036908301610731565b60249391939485359081116105855761041b9036908501610731565b94909433885260206002815260ff858a2054168015610572575b61043e906107aa565b81840361053857885b848110610452578980f35b61045d81848a61084e565b356101f4101561046c90610802565b85836001600160a01b0387838e8361048588858d61084e565b61048e90610874565b1681528d848b89600193848d5281878720549a6104aa9261084e565b35966104b59261084e565b6104be90610874565b16825288522055858b856104d3818c8c61084e565b6104dc90610874565b926104e69261084e565b3584519384528684015216917f5b88a2e3fc1a53234357ab78c104df11c33ccfa79886793654565ad70b8afb6e91a2600019811461052657600101610447565b634e487b7160e01b8a5260118752888afd5b8560168960649388519362461bcd60e51b855284015282015275082e4e4c2f2e640d8cadccee8d040dad2e6dac2e8c6d60531b6044820152fd5b5088546001600160a01b03163314610435565b8680fd5b8480fd5b5034610188576020366003190112610188576020906105b26105ad61071b565b6108c0565b90519015158152f35b50346101885780600319360112610188576105d461071b565b60243590811515809203610638577f5c001b1d70af3e0a09eed53bc0588d57fec6d23196319ba29c6313eb3321273c9160209161060f61077e565b6001600160a01b031680865260028352848620805460ff191660ff84161790559351908152a280f35b8380fd5b50346101885760203660031901126101885760209160ff9082906001600160a01b0361066661071b565b1681526002855220541690519015158152f35b5034610188578160031936011261018857905490516001600160a01b039091168152602090f35b823461016f578060031936011261016f576106b961077e565b80546001600160a01b03198116825581906001600160a01b03167f8be0079c531659141344cd1fd0a4f28419497f9722a3daafe3b4186f6b6457e08280a380f35b3461071657600036600319011261071657602060405160288152f35b600080fd5b600435906001600160a01b038216820361071657565b9181601f840112156107165782359167ffffffffffffffff8311610716576020808501948460051b01011161071657565b3461071657600036600319011261071657602060405160648152f35b6000546001600160a01b0316330361079257565b60405163118cdaa760e01b8152336004820152602490fd5b156107b157565b60405162461bcd60e51b815260206004820152602360248201527f4e6f7420617574686f72697a656420746f20757064617465207265707574617460448201526234b7b760e91b6064820152608490fd5b1561080957565b60405162461bcd60e51b815260206004820152601a60248201527f52657075746174696f6e2065786365656473206d6178696d756d0000000000006044820152606490fd5b919081101561085e5760051b0190565b634e487b7160e01b600052603260045260246000fd5b356001600160a01b03811681036107165790565b90601f8019910116810190811067ffffffffffffffff8211176108aa57604052565b634e487b7160e01b600052604160045260246000fd5b60405163baccbfdb60e01b81526001600160a01b039091166004820152602081602481305afa801561092f576000906108fd575b60649150101590565b6020823d8211610927575b8161091560209383610888565b8101031261016f5750606490516108f4565b3d9150610908565b6040513d6000823e3d90fdfea26469706673582212205e461ff672a8294a8a42d4137566a48fcd412867be700832ce3ee9c22650e94a64736f6c63430008140033",
  "linkReferences": {},
  "deployedLinkReferences": {}
}