{
  "_format": "hh-sol-artifact-1",
  "contractName": "ReputationSystem",
  "sourceName": "contracts/ReputationSystem.sol",
  "abi": [
    {
      "inputs": [
        {
          "internalType": "address",
          "name": "initialOwner",
          "type": "address"
        }
      ],
      "stateMutability": "nonpayable",
      "type": "constructor"
    },
    {
      "inputs": [
        {
          "internalType": "address",
          "name": "owner",
          "type": "address"
        }
      ],
      "name": "OwnableInvalidOwner",
      "type": "error"
    },
    {
      "inputs": [
        {
          "internalType": "address",
          "name": "account",
          "type": "address"
        }
      ],
      "name": "OwnableUnauthorizedAccount",
      "type": "error"
    },
    {
      "anonymous": false,
      "inputs": [
        {
          "indexed": true,
          "internalType": "address",
          "name": "contractAddress",
          "type": "address"
        },
        {
          "indexed": false,
          "internalType": "bool",
          "name": "authorized",
          "type": "bool"
        }
      ],
      "name": "ContractAuthorized",
      "type": "event"
    },
    {
      "anonymous": false,
      "inputs": [
        {
          "indexed": true,
          "internalType": "address",
          "name": "user",
          "type": "address"
        },
        {
          "indexed": false,
          "internalType": "uint256",
          "name": "oldInfluence",
          "type": "uint256"
        },
        {
          "indexed": false,
          "internalType": "uint256",
          "name": "newInfluence",
          "type": "uint256"
        }
      ],
      "name": "InfluenceUpdated",
      "type": "event"
    },
    {
      "anonymous": false,
      "inputs": [
        {
          "indexed": true,
          "internalType": "address",
          "name": "previousOwner",
          "type": "address"
        },
        {
          "indexed": true,
          "internalType": "address",
          "name": "newOwner",
          "type": "address"
        }
      ],
      "name": "OwnershipTransferred",
      "type": "event"
    },
    {
      "anonymous": false,
      "inputs": [
        {
          "indexed": true,
          "internalType": "address",
          "name": "user",
          "type": "address"
        },
        {
          "indexed": false,
          "internalType": "enum ReputationSystem.ReputationAction",
          "name": "action",
          "type": "uint8"
        },
        {
          "indexed": false,
          "internalType": "int256",
          "name": "points",
          "type": "int256"
        },
        {
          "indexed": false,
          "internalType": "string",
          "name": "details",
          "type": "string"
        }
      ],
      "name": "ReputationActionOccurred",
      "type": "event"
    },
    {
      "anonymous": false,
      "inputs": [
        {
          "indexed": true,
          "internalType": "address",
          "name": "user",
          "type": "address"
        },
        {
          "indexed": false,
          "internalType": "uint256",
          "name": "oldReputation",
          "type": "uint256"
        },
        {
          "indexed": false,
          "internalType": "uint256",
          "name": "newReputation",
          "type": "uint256"
        },
        {
          "indexed": false,
          "internalType": "string",
          "name": "reason",
          "type": "string"
        }
      ],
      "name": "ReputationUpdated",
      "type": "event"
    },
    {
      "anonymous": false,
      "inputs": [
        {
          "indexed": true,
          "internalType": "address",
          "name": "user",
          "type": "address"
        },
        {
          "indexed": false,
          "internalType": "uint256",
          "name": "oldEngagement",
          "type": "uint256"
        },
        {
          "indexed": false,
          "internalType": "uint256",
          "name": "newEngagement",
          "type": "uint256"
        }
      ],
      "name": "SocialEngagementUpdated",
      "type": "event"
    },
    {
      "anonymous": false,
      "inputs": [
        {
          "indexed": true,
          "internalType": "address",
          "name": "user",
          "type": "address"
        },
        {
          "indexed": false,
          "internalType": "uint256",
          "name": "newStreak",
          "type": "uint256"
        },
        {
          "indexed": false,
          "internalType": "uint256",
          "name": "longestStreak",
          "type": "uint256"
        }
      ],
      "name": "StreakUpdated",
      "type": "event"
    },
    {
      "anonymous": false,
      "inputs": [
        {
          "indexed": true,
          "internalType": "address",
          "name": "updater",
          "type": "address"
        },
        {
          "indexed": false,
          "internalType": "bool",
          "name": "authorized",
          "type": "bool"
        }
      ],
      "name": "UpdaterAuthorized",
      "type": "event"
    },
    {
      "anonymous": false,
      "inputs": [
        {
          "indexed": true,
          "internalType": "address",
          "name": "user",
          "type": "address"
        },
        {
          "indexed": false,
          "internalType": "bool",
          "name": "verified",
          "type": "bool"
        }
      ],
      "name": "VerificationGranted",
      "type": "event"
    },
    {
      "inputs": [],
      "name": "DEFAULT_REPUTATION",
      "outputs": [
        {
          "internalType": "uint256",
          "name": "",
          "type": "uint256"
        }
      ],
      "stateMutability": "view",
      "type": "function"
    },
    {
      "inputs": [],
      "name": "MAX_REPUTATION",
      "outputs": [
        {
          "internalType": "uint256",
          "name": "",
          "type": "uint256"
        }
      ],
      "stateMutability": "view",
      "type": "function"
    },
    {
      "inputs": [],
      "name": "MIN_GUIDED_POOL_REPUTATION",
      "outputs": [
        {
          "internalType": "uint256",
          "name": "",
          "type": "uint256"
        }
      ],
      "stateMutability": "view",
      "type": "function"
    },
    {
      "inputs": [],
      "name": "MIN_OPEN_POOL_REPUTATION",
      "outputs": [
        {
          "internalType": "uint256",
          "name": "",
          "type": "uint256"
        }
      ],
      "stateMutability": "view",
      "type": "function"
    },
    {
      "inputs": [],
      "name": "MIN_OUTCOME_PROPOSAL_REPUTATION",
      "outputs": [
        {
          "internalType": "uint256",
          "name": "",
          "type": "uint256"
        }
      ],
      "stateMutability": "view",
      "type": "function"
    },
    {
      "inputs": [],
      "name": "MIN_PREMIUM_FEATURES_REPUTATION",
      "outputs": [
        {
          "internalType": "uint256",
          "name": "",
          "type": "uint256"
        }
      ],
      "stateMutability": "view",
      "type": "function"
    },
    {
      "inputs": [
        {
          "internalType": "address",
          "name": "",
          "type": "address"
        },
        {
          "internalType": "string",
          "name": "",
          "type": "string"
        }
      ],
      "name": "actionCounts",
      "outputs": [
        {
          "internalType": "uint256",
          "name": "",
          "type": "uint256"
        }
      ],
      "stateMutability": "view",
      "type": "function"
    },
    {
      "inputs": [
        {
          "internalType": "enum ReputationSystem.ReputationAction",
          "name": "",
          "type": "uint8"
        }
      ],
      "name": "actionPoints",
      "outputs": [
        {
          "internalType": "int256",
          "name": "",
          "type": "int256"
        }
      ],
      "stateMutability": "view",
      "type": "function"
    },
    {
      "inputs": [
        {
          "internalType": "address",
          "name": "",
          "type": "address"
        }
      ],
      "name": "authorizedContracts",
      "outputs": [
        {
          "internalType": "bool",
          "name": "",
          "type": "bool"
        }
      ],
      "stateMutability": "view",
      "type": "function"
    },
    {
      "inputs": [
        {
          "internalType": "address",
          "name": "",
          "type": "address"
        }
      ],
      "name": "authorizedUpdaters",
      "outputs": [
        {
          "internalType": "bool",
          "name": "",
          "type": "bool"
        }
      ],
      "stateMutability": "view",
      "type": "function"
    },
    {
      "inputs": [
        {
          "internalType": "address[]",
          "name": "users",
          "type": "address[]"
        },
        {
          "internalType": "enum ReputationSystem.ReputationAction[]",
          "name": "actions",
          "type": "uint8[]"
        },
        {
          "internalType": "string[]",
          "name": "details",
          "type": "string[]"
        }
      ],
      "name": "batchProcessReputationActions",
      "outputs": [],
      "stateMutability": "nonpayable",
      "type": "function"
    },
    {
      "inputs": [
        {
          "internalType": "address",
          "name": "user",
          "type": "address"
        }
      ],
      "name": "canAccessPremiumFeatures",
      "outputs": [
        {
          "internalType": "bool",
          "name": "",
          "type": "bool"
        }
      ],
      "stateMutability": "view",
      "type": "function"
    },
    {
      "inputs": [
        {
          "internalType": "address",
          "name": "user",
          "type": "address"
        }
      ],
      "name": "canCreateGuidedPool",
      "outputs": [
        {
          "internalType": "bool",
          "name": "",
          "type": "bool"
        }
      ],
      "stateMutability": "view",
      "type": "function"
    },
    {
      "inputs": [
        {
          "internalType": "address",
          "name": "user",
          "type": "address"
        }
      ],
      "name": "canCreateOpenPool",
      "outputs": [
        {
          "internalType": "bool",
          "name": "",
          "type": "bool"
        }
      ],
      "stateMutability": "view",
      "type": "function"
    },
    {
      "inputs": [
        {
          "internalType": "address",
          "name": "user",
          "type": "address"
        }
      ],
      "name": "canProposeOutcome",
      "outputs": [
        {
          "internalType": "bool",
          "name": "",
          "type": "bool"
        }
      ],
      "stateMutability": "view",
      "type": "function"
    },
    {
      "inputs": [
        {
          "internalType": "address",
          "name": "user",
          "type": "address"
        }
      ],
      "name": "getUserReputation",
      "outputs": [
        {
          "internalType": "uint256",
          "name": "",
          "type": "uint256"
        }
      ],
      "stateMutability": "view",
      "type": "function"
    },
    {
      "inputs": [
        {
          "internalType": "address",
          "name": "user",
          "type": "address"
        }
      ],
      "name": "getUserStats",
      "outputs": [
        {
          "internalType": "uint256",
          "name": "reputation",
          "type": "uint256"
        },
        {
          "internalType": "uint256",
          "name": "influence",
          "type": "uint256"
        },
        {
          "internalType": "uint256",
          "name": "socialEngagementValue",
          "type": "uint256"
        },
        {
          "internalType": "uint256",
          "name": "streak",
          "type": "uint256"
        },
        {
          "internalType": "uint256",
          "name": "longestStreakValue",
          "type": "uint256"
        },
        {
          "internalType": "bool",
          "name": "verified",
          "type": "bool"
        },
        {
          "internalType": "uint256",
          "name": "totalActionsCount",
          "type": "uint256"
        },
        {
          "internalType": "uint256",
          "name": "successfulActionsCount",
          "type": "uint256"
        },
        {
          "internalType": "uint256",
          "name": "successRate",
          "type": "uint256"
        }
      ],
      "stateMutability": "view",
      "type": "function"
    },
    {
      "inputs": [
        {
          "internalType": "address",
          "name": "user",
          "type": "address"
        }
      ],
      "name": "grantVerification",
      "outputs": [],
      "stateMutability": "nonpayable",
      "type": "function"
    },
    {
      "inputs": [
        {
          "internalType": "address",
          "name": "",
          "type": "address"
        }
      ],
      "name": "influenceScore",
      "outputs": [
        {
          "internalType": "uint256",
          "name": "",
          "type": "uint256"
        }
      ],
      "stateMutability": "view",
      "type": "function"
    },
    {
      "inputs": [
        {
          "internalType": "address",
          "name": "user",
          "type": "address"
        }
      ],
      "name": "initializeUserReputation",
      "outputs": [],
      "stateMutability": "nonpayable",
      "type": "function"
    },
    {
      "inputs": [
        {
          "internalType": "address",
          "name": "",
          "type": "address"
        }
      ],
      "name": "isVerifiedCreator",
      "outputs": [
        {
          "internalType": "bool",
          "name": "",
          "type": "bool"
        }
      ],
      "stateMutability": "view",
      "type": "function"
    },
    {
      "inputs": [
        {
          "internalType": "address",
          "name": "",
          "type": "address"
        }
      ],
      "name": "lastActionTime",
      "outputs": [
        {
          "internalType": "uint256",
          "name": "",
          "type": "uint256"
        }
      ],
      "stateMutability": "view",
      "type": "function"
    },
    {
      "inputs": [
        {
          "internalType": "address",
          "name": "",
          "type": "address"
        }
      ],
      "name": "longestStreak",
      "outputs": [
        {
          "internalType": "uint256",
          "name": "",
          "type": "uint256"
        }
      ],
      "stateMutability": "view",
      "type": "function"
    },
    {
      "inputs": [],
      "name": "owner",
      "outputs": [
        {
          "internalType": "address",
          "name": "",
          "type": "address"
        }
      ],
      "stateMutability": "view",
      "type": "function"
    },
    {
      "inputs": [
        {
          "internalType": "address",
          "name": "",
          "type": "address"
        }
      ],
      "name": "predictionStreak",
      "outputs": [
        {
          "internalType": "uint256",
          "name": "",
          "type": "uint256"
        }
      ],
      "stateMutability": "view",
      "type": "function"
    },
    {
      "inputs": [
        {
          "internalType": "address",
          "name": "user",
          "type": "address"
        },
        {
          "internalType": "enum ReputationSystem.ReputationAction",
          "name": "action",
          "type": "uint8"
        },
        {
          "internalType": "string",
          "name": "details",
          "type": "string"
        }
      ],
      "name": "processReputationAction",
      "outputs": [],
      "stateMutability": "nonpayable",
      "type": "function"
    },
    {
      "inputs": [],
      "name": "renounceOwnership",
      "outputs": [],
      "stateMutability": "nonpayable",
      "type": "function"
    },
    {
      "inputs": [
        {
          "internalType": "address",
          "name": "user",
          "type": "address"
        }
      ],
      "name": "revokeVerification",
      "outputs": [],
      "stateMutability": "nonpayable",
      "type": "function"
    },
    {
      "inputs": [
        {
          "internalType": "address",
          "name": "contractAddr",
          "type": "address"
        },
        {
          "internalType": "bool",
          "name": "authorized",
          "type": "bool"
        }
      ],
      "name": "setAuthorizedContract",
      "outputs": [],
      "stateMutability": "nonpayable",
      "type": "function"
    },
    {
      "inputs": [
        {
          "internalType": "address",
          "name": "updater",
          "type": "address"
        },
        {
          "internalType": "bool",
          "name": "authorized",
          "type": "bool"
        }
      ],
      "name": "setAuthorizedUpdater",
      "outputs": [],
      "stateMutability": "nonpayable",
      "type": "function"
    },
    {
      "inputs": [
        {
          "internalType": "address",
          "name": "",
          "type": "address"
        }
      ],
      "name": "socialEngagement",
      "outputs": [
        {
          "internalType": "uint256",
          "name": "",
          "type": "uint256"
        }
      ],
      "stateMutability": "view",
      "type": "function"
    },
    {
      "inputs": [
        {
          "internalType": "address",
          "name": "",
          "type": "address"
        }
      ],
      "name": "successfulActions",
      "outputs": [
        {
          "internalType": "uint256",
          "name": "",
          "type": "uint256"
        }
      ],
      "stateMutability": "view",
      "type": "function"
    },
    {
      "inputs": [
        {
          "internalType": "address",
          "name": "",
          "type": "address"
        }
      ],
      "name": "totalActions",
      "outputs": [
        {
          "internalType": "uint256",
          "name": "",
          "type": "uint256"
        }
      ],
      "stateMutability": "view",
      "type": "function"
    },
    {
      "inputs": [
        {
          "internalType": "address",
          "name": "newOwner",
          "type": "address"
        }
      ],
      "name": "transferOwnership",
      "outputs": [],
      "stateMutability": "nonpayable",
      "type": "function"
    },
    {
      "inputs": [
        {
          "internalType": "address",
          "name": "user",
          "type": "address"
        },
        {
          "internalType": "uint256",
          "name": "newReputation",
          "type": "uint256"
        },
        {
          "internalType": "string",
          "name": "reason",
          "type": "string"
        }
      ],
      "name": "updateReputation",
      "outputs": [],
      "stateMutability": "nonpayable",
      "type": "function"
    },
    {
      "inputs": [
        {
          "internalType": "address",
          "name": "",
          "type": "address"
        }
      ],
      "name": "userReputation",
      "outputs": [
        {
          "internalType": "uint256",
          "name": "",
          "type": "uint256"
        }
      ],
      "stateMutability": "view",
      "type": "function"
    }
  ],
  "bytecode": "0x6080346101b757601f611edf38819003918201601f191683019291906001600160401b038411838510176101bc5781602092849260409687528339810103126101b757516001600160a01b0390818116908190036101b757801561019f57600080546001600160a01b03198116831782556007938593918291167f8be0079c531659141344cd1fd0a4f28419497f9722a3daafe3b4186f6b6457e08480a3815260016020526103e880838320556002602052828220556006602052818120600160ff19825416179055808052600d60205260048282205560018152600282822055600281526003828220556003815260088282205560048152600f828220556005815260088282205560068152600e1982822055828152600a82822055600881526004198282205560098152600c82822055600a815260021982822055600b8152600582822055600c8152600682822055600d8152600882822055600e8152600a82822055600f815260058282205560108152600382822055601181526004828220556012815260148282205560138152205551611d0c90816101d38239f35b8251631e4fbdf760e01b815260006004820152602490fd5b600080fd5b634e487b7160e01b600052604160045260246000fdfe6080604052600436101561001257600080fd5b60003560e01c806314d4c60414610d3d57806327f0bfd614610d0357806331bc3fca14610cc9578063350df23c14610c8f5780633799252e14610c5e57806338841bda14610c415780633e2cb90214610ad95780634e43603a14610b1d57806350dcf82714610ade5780635b33f2601461078657806369ce34ab14610ad95780636a56e60f146109f0578063715018a61461099757806379435c83146109445780638b640665146108bb5780638da5cb5b146108925780638ff29cfe1461085357806399fc65d4146107ed5780639c82b87e146107b35780639f98f9c814610786578063a75f78bb1461074c578063ad8ce72414610747578063adc257e914610747578063baccbfdb146106f8578063bdd6f7a7146105a7578063c212d0ea14610538578063d213c0f21461051b578063d5b9221b146104dc578063db7b29aa14610456578063de96303b1461041c578063e503bb05146103e2578063e998d2fa14610376578063f2fa739214610309578063f2fde38b1461027b578063faef13ac146102415763fbad6cf5146101a857600080fd5b3461022957602080600319360112610229576101c2610fab565b60405163baccbfdb60e01b81526001600160a01b0390911660048201528181602481305afa90811561023557600091610203575b5060506040519110158152f35b90508181813d831161022e575b61021a8183611028565b810103126102295751386101f6565b600080fd5b503d610210565b6040513d6000823e3d90fd5b34610229576020366003190112610229576001600160a01b03610262610fab565b1660005260026020526020604060002054604051908152f35b3461022957602036600319011261022957610294610fab565b61029c6110c3565b6001600160a01b039081169081156102f057600054826bffffffffffffffffffffffff60a01b821617600055167f8be0079c531659141344cd1fd0a4f28419497f9722a3daafe3b4186f6b6457e0600080a3005b604051631e4fbdf760e01b815260006004820152602490fd5b346102295760207f3213ab8ec2ed122402f038736b41878b69ae9f61f49a7edd0666bce891d29fc961033a36611078565b92906103446110c3565b6001600160a01b03166000818152600c835260409020805460ff191660ff86151516179055925b6040519015158152a2005b346102295760203660031901126102295761038f610fab565b6103976110c3565b6001600160a01b03166000818152600660209081526040808320805460ff19169055519182527fe0c2875f73f47c80699766364c55ce5c9046b02c1b323254ca1a45be6b55834191a2005b34610229576020366003190112610229576001600160a01b03610403610fab565b1660005260016020526020604060002054604051908152f35b34610229576020366003190112610229576001600160a01b0361043d610fab565b1660005260056020526020604060002054604051908152f35b34610229576020366003190112610229576001600160a01b03610477610fab565b16806000526001602052604060002080541561048f57005b60509055600080516020611cb783398151915260a0604051600081526050602082015260606040820152601060608201526f155cd95c881a5b9a5d1a585b1a5e995960821b6080820152a2005b34610229576020366003190112610229576001600160a01b036104fd610fab565b16600052600c602052602060ff604060002054166040519015158152f35b346102295760003660031901126102295760206040516103e88152f35b3461022957602036600319011261022957610551610fab565b6105596110c3565b60018060a01b03168060005260066020526040600020600160ff198254161790557fe0c2875f73f47c80699766364c55ce5c9046b02c1b323254ca1a45be6b558341602060405160018152a2005b34610229576060366003190112610229576105c0610fab565b6024359060443567ffffffffffffffff8111610229576105e490369060040161104a565b929033600052600b60205260ff6040600020541680156106e4575b15610693576103e8821161064e57610649600080516020611cb78339815191529360018060a01b03169485600052600160205260406000209284845494556040519485948561118d565b0390a2005b60405162461bcd60e51b815260206004820152601a60248201527f52657075746174696f6e2065786365656473206d6178696d756d0000000000006044820152606490fd5b60405162461bcd60e51b815260206004820152602360248201527f4e6f7420617574686f72697a656420746f20757064617465207265707574617460448201526234b7b760e91b6064820152608490fd5b506000546001600160a01b031633146105ff565b34610229576020366003190112610229576001600160a01b03610719610fab565b166000526001602052604060002054801560001461073f5750602060505b604051908152f35b602090610737565b6110a7565b34610229576020366003190112610229576001600160a01b0361076d610fab565b1660005260076020526020604060002054604051908152f35b346102295760203660031901126102295760206107a96107a4610fab565b6116cb565b6040519015158152f35b34610229576020366003190112610229576001600160a01b036107d4610fab565b1660005260086020526020604060002054604051908152f35b346102295760207f5c001b1d70af3e0a09eed53bc0588d57fec6d23196319ba29c6313eb3321273c61081e36611078565b92906108286110c3565b6001600160a01b03166000818152600b835260409020805460ff191660ff861515161790559261036b565b34610229576020366003190112610229576001600160a01b03610874610fab565b16600052600b602052602060ff604060002054166040519015158152f35b34610229576000366003190112610229576000546040516001600160a01b039091168152602090f35b3461022957602080600319360112610229576108d5610fab565b60405163baccbfdb60e01b81526001600160a01b0390911660048201528181602481305afa90811561023557600091610917575b506102586040519110158152f35b90508181813d831161093d575b61092e8183611028565b81010312610229575182610909565b503d610924565b346102295760603660031901126102295761095d610fab565b6024356014811015610229576044359167ffffffffffffffff83116102295761098d61099593369060040161104a565b9290916111ac565b005b34610229576000366003190112610229576109b06110c3565b600080546001600160a01b0319811682556001600160a01b03167f8be0079c531659141344cd1fd0a4f28419497f9722a3daafe3b4186f6b6457e08280a3005b3461022957604036600319011261022957610a09610fab565b6024359067ffffffffffffffff908183116102295736602384011215610229578260040135918211610ac35760405191602093610a4f85601f19601f8501160185611028565b818452366024838301011161022957816000926024879301838701378401015260018060a01b031660005260098252816040600020916040519281849251908460005b838110610aae5750505082019081520301902054604051908152f35b82810182015188820152879550869101610a92565b634e487b7160e01b600052604160045260246000fd5b610ff0565b34610229576020366003190112610229576001600160a01b03610aff610fab565b166000526006602052602060ff604060002054166040519015158152f35b3461022957602080600319360112610229576001600160a01b03610b3f610fab565b16600052600181526040600020548015600014610c3c575060505b60028252604060002054916003815260406000205460048252604060002054600583526040600020546006845260ff6040600020541690600785526040600020549260088652604060002054948415988915600014610c2f576064870299878b0460641488151715610c1957610c0357856101209a04975b604051998a52890152604088015260608701526080860152151560a085015260c084015260e0830152610100820152f35b634e487b7160e01b600052601260045260246000fd5b634e487b7160e01b600052601160045260246000fd5b6101209950600097610bd2565b610b5a565b346102295760003660031901126102295760206040516102588152f35b3461022957602036600319011261022957600435601481101561022957610c86602091610fc1565b54604051908152f35b34610229576020366003190112610229576001600160a01b03610cb0610fab565b1660005260036020526020604060002054604051908152f35b34610229576020366003190112610229576001600160a01b03610cea610fab565b1660005260046020526020604060002054604051908152f35b34610229576020366003190112610229576001600160a01b03610d24610fab565b16600052600a6020526020604060002054604051908152f35b346102295760603660031901126102295760043567ffffffffffffffff811161022957610d6e903690600401610f7a565b9060243567ffffffffffffffff811161022957610d8f903690600401610f7a565b909260443567ffffffffffffffff811161022957610db1903690600401610f7a565b92909133600052600b60205260ff604060002054168015610f66575b8015610f52575b610ddd906110ef565b81811480610f49575b15610f0b5760005b818110610df757005b610e028183886116bb565b35906001600160a01b038216820361022957610e1f81858a6116bb565b3560148110156102295786821015610ef5578160051b860135601e19873603018112156102295786019067ffffffffffffffff8235116102295781353603602083011361022957303b15610229576040516379435c8360e01b81526001600160a01b03909416600485015260009184918291610eba91610ea390602485019061115f565b60606044840152606483019060208135910161116c565b038183305af1801561023557610eda575b610ed59150611150565b610dee565b67ffffffffffffffff8211610ac357610ed591604052610ecb565b634e487b7160e01b600052603260045260246000fd5b60405162461bcd60e51b8152602060048201526016602482015275082e4e4c2f2e640d8cadccee8d040dad2e6dac2e8c6d60531b6044820152606490fd5b50838114610de6565b506000546001600160a01b03163314610dd4565b50600c60205260ff60406000205416610dcd565b9181601f840112156102295782359167ffffffffffffffff8311610229576020808501948460051b01011161022957565b600435906001600160a01b038216820361022957565b6014811015610fda57600052600d602052604060002090565b634e487b7160e01b600052602160045260246000fd5b3461022957600036600319011261022957602060405160508152f35b6040810190811067ffffffffffffffff821117610ac357604052565b90601f8019910116810190811067ffffffffffffffff821117610ac357604052565b9181601f840112156102295782359167ffffffffffffffff8311610229576020838186019501011161022957565b6040906003190112610229576004356001600160a01b0381168103610229579060243580151581036102295790565b3461022957600036600319011261022957602060405160c88152f35b6000546001600160a01b031633036110d757565b60405163118cdaa760e01b8152336004820152602490fd5b156110f657565b60405162461bcd60e51b815260206004820152602c60248201527f4e6f7420617574686f72697a656420746f2070726f636573732072657075746160448201526b74696f6e20616374696f6e7360a01b6064820152608490fd5b6000198114610c195760010190565b906014821015610fda5752565b908060209392818452848401376000828201840152601f01601f1916010190565b6111a9949260609282526020820152816040820152019161116c565b90565b939293919091600094338652602092600b8452604060ff818920541680156116aa575b8015611697575b6111df906110ef565b6111e886610fc1565b5495861561168c5760018060a01b03851696878a5260098752898784822061120f85611864565b9086519382859351915b8281106116775750508201908152030190206112358154611150565b9055878a5260078752828a2061124b8154611150565b9055878a52600a875242838b2055898113968761165f575b888b5260019a8b82528961127b84878420549a61174a565b998183528d84528a87842055600284528d8784209086825493611600575b50505050815260038252848120549b60148510159c8d6115df576010861480156115f3575b8e81156115cf575b5061154f575b508c60049d8e855261152057600286148015611543575b818115611534575b8115611510575b5015611498575092828b83819e9f958297600080516020611cb78339815191529f977f8f05cc901c543089c73b956d227540e372e7380a694c28307934e64bcd24f303986113ee9e9d9c9b98528083528a842061134f8154611150565b90558484528083528a842054600584528b85205410611484575b8252837fd9ad1f2b351c160231808ff9bc723542c8d3b0cdad54db25801bfe561bd4c6e38b808620546005865281872054825191825286820152a25b8383526006825260ff8a84205416156113f3575b505050506113c98651809461115f565b820152606084820152806113e160608201888861116c565b0390a2519485948561118d565b0390a2565b80825289808420546002845281852054906007855260c8838720549110159182611478575b508161146c575b5061142b575b506113b9565b7fe0c2875f73f47c80699766364c55ce5c9046b02c1b323254ca1a45be6b5583419360068452208160ff198254161790558951908152a28438828189611425565b6032915010153861141f565b60641115915038611418565b8083528a842054600584528b852055611369565b6114fd5792828b8693819e9f9587600080516020611cb78339815191529f98977f8f05cc901c543089c73b956d227540e372e7380a694c28307934e64bcd24f303986113ee9e9d9c9b146114ed575b506113a5565b8484528252828a812055386114e7565b634e487b7160e01b825260218d52602482fd5b905061152057600e8614816112f2565b50634e487b7160e01b825260218d52602482fd5b9050611520578d8614816112eb565b505081600386146112e3565b8b8352600384528683208054908382018092116115bb57558b835260038452868320548c918890808311611586575b5050506112cc565b7fa6b86bfd9aa95cedcd1bad9f7ee3816bbf47d395c1331ca9e380165602c8dc2b92825191825287820152a28a38878161157e565b634e487b7160e01b85526011600452602485fd5b90506115df57600d86148e6112c6565b634e487b7160e01b83526021600452602483fd5b50919c508c9185156112be565b61160b911c8361173d565b90558183526002845286808420549180831161162a575b508e86611299565b7fc019dd0974665fb135b9e81e4f44597ec3ca56651c87921c91cc8a5c0fd1705892825191825286820152a289388681611622565b60088152838b206116708154611150565b9055611263565b818101860151878201528d9587955001611219565b505050505050509050565b5087546001600160a01b031633146111d6565b50600c855260ff81892054166111cf565b9190811015610ef55760051b0190565b60405163baccbfdb60e01b81526001600160a01b039091166004820152602081602481305afa801561023557600090611708575b60c89150101590565b6020823d8211611735575b8161172060209383611028565b81010312611732575060c890516116ff565b80fd5b3d9150611713565b91908201809211610c1957565b6001600160a01b0381166000908152600160205260408120549092908061182557506050915b838213156117d1576117819061182b565b908181029181830414901517156117bd5760649004906103e892836117a6848461173d565b111590506117b357505090565b6111a9925061173d565b634e487b7160e01b83526011600452602483fd5b50909190600160ff1b81146118115780820383111561180b5782019182116117f7575090565b634e487b7160e01b81526011600452602490fd5b50905090565b634e487b7160e01b82526011600452602482fd5b91611770565b6001600160a01b0316600090815260046020526040902054600a81101561185e576005111561185957606490565b609690565b5060c890565b6014811015610fda578015611c8d5760018114611c665760028114611c425760038114611c135760048114611be75760058114611bb65760068114611b8d5760078114611b535760088114611b195760098114611ae857600a8114611abb57600b8114611a8f57600c8114611a6657600d8114611a3757600e8114611a0d57600f81146119e457601081146119b6576011811461198957601281146119575760131461192d576040516119168161100c565b60078152662aa725a727aba760c91b602082015290565b6040516119398161100c565b600e81526d282922a6a4aaa6afa0a1aa24a7a760911b602082015290565b506040516119648161100c565b601581527415915492519250d0551253d397d050d21251559151605a1b602082015290565b506040516119968161100c565b601081526f1253919315515390d157d1d05253915160821b602082015290565b506040516119c38161100c565b601181527014d3d0d2505317d15391d051d153515395607a1b602082015290565b506040516119f18161100c565b600c81526b53545245414b5f424f4e555360a01b602082015290565b50604051611a1a8161100c565b600d81526c21a7a6a127afa122aa2faba7a760991b602082015290565b50604051611a448161100c565b601281527110d3d35093d7d413d3d317d0d4915055115160721b602082015290565b50604051611a738161100c565b600c81526b1413d3d317d093d3d4d5115160a21b602082015290565b50604051611a9c8161100c565b600f81526e27a2222ca9a9a2acafa0a1aa24a7a760891b602082015290565b50604051611ac88161100c565b601081526f10d2105313115391d157d1905253115160821b602082015290565b50604051611af58161100c565b601481527310d2105313115391d157d4d550d0d154d4d1955360621b602082015290565b50604051611b268161100c565b601c81527f4f5554434f4d455f50524f504f5345445f494e434f52524543544c5900000000602082015290565b50604051611b608161100c565b601a81527f4f5554434f4d455f50524f504f5345445f434f52524543544c59000000000000602082015290565b50604051611b9a8161100c565b600c81526b1413d3d317d4d4105353515160a21b602082015290565b50604051611bc38161100c565b60148152730504f4f4c5f46494c4c45445f41424f56455f36360641b602082015290565b50604051611bf48161100c565b600f81526e4245545f574f4e5f4d41535349564560881b602082015290565b50604051611c208161100c565b60128152714245545f574f4e5f484947485f56414c554560701b602082015290565b50604051611c4f8161100c565b60078152662122aa2faba7a760c91b602082015290565b50604051611c738161100c565b600a81526910915517d4131050d15160b21b602082015290565b50604051611c9a8161100c565b600c81526b1413d3d317d0d4915055115160a21b60208201529056fe4146a620f234be49686701963664655b5fb451997f8462f773d272d68f17043fa2646970667358221220771fb44b1ef8b084804d50a1c757a7920738e3edd0ed016a8e83941069fb68c264736f6c63430008140033",
  "linkReferences": {},
  "deployedLinkReferences": {}
}