{
  "_format": "hh-sol-artifact-1",
  "contractName": "BitredictPool",
  "sourceName": "contracts/BitredictPool.sol",
  "abi": [
    {
      "inputs": [
        {
          "internalType": "address",
          "name": "_bitrToken",
          "type": "address"
        },
        {
          "internalType": "address",
          "name": "_feeCollector",
          "type": "address"
        },
        {
          "internalType": "address",
          "name": "_guidedOracle",
          "type": "address"
        },
        {
          "internalType": "address",
          "name": "_optimisticOracle",
          "type": "address"
        }
      ],
      "stateMutability": "nonpayable",
      "type": "constructor"
    },
    {
      "inputs": [
        {
          "internalType": "address",
          "name": "owner",
          "type": "address"
        }
      ],
      "name": "OwnableInvalidOwner",
      "type": "error"
    },
    {
      "inputs": [
        {
          "internalType": "address",
          "name": "account",
          "type": "address"
        }
      ],
      "name": "OwnableUnauthorizedAccount",
      "type": "error"
    },
    {
      "anonymous": false,
      "inputs": [
        {
          "indexed": true,
          "internalType": "uint256",
          "name": "poolId",
          "type": "uint256"
        },
        {
          "indexed": true,
          "internalType": "address",
          "name": "bettor",
          "type": "address"
        },
        {
          "indexed": false,
          "internalType": "uint256",
          "name": "amount",
          "type": "uint256"
        },
        {
          "indexed": false,
          "internalType": "bool",
          "name": "isForOutcome",
          "type": "bool"
        }
      ],
      "name": "BetPlaced",
      "type": "event"
    },
    {
      "anonymous": false,
      "inputs": [
        {
          "indexed": true,
          "internalType": "uint256",
          "name": "poolId",
          "type": "uint256"
        },
        {
          "indexed": false,
          "internalType": "enum BoostTier",
          "name": "tier",
          "type": "uint8"
        }
      ],
      "name": "BoostExpired",
      "type": "event"
    },
    {
      "anonymous": false,
      "inputs": [
        {
          "indexed": true,
          "internalType": "uint256",
          "name": "comboPoolId",
          "type": "uint256"
        },
        {
          "indexed": true,
          "internalType": "address",
          "name": "bettor",
          "type": "address"
        },
        {
          "indexed": false,
          "internalType": "uint256",
          "name": "amount",
          "type": "uint256"
        }
      ],
      "name": "ComboBetPlaced",
      "type": "event"
    },
    {
      "anonymous": false,
      "inputs": [
        {
          "indexed": true,
          "internalType": "uint256",
          "name": "comboPoolId",
          "type": "uint256"
        },
        {
          "indexed": true,
          "internalType": "address",
          "name": "creator",
          "type": "address"
        },
        {
          "indexed": false,
          "internalType": "uint256",
          "name": "conditionCount",
          "type": "uint256"
        },
        {
          "indexed": false,
          "internalType": "uint16",
          "name": "totalOdds",
          "type": "uint16"
        }
      ],
      "name": "ComboPoolCreated",
      "type": "event"
    },
    {
      "anonymous": false,
      "inputs": [
        {
          "indexed": true,
          "internalType": "uint256",
          "name": "comboPoolId",
          "type": "uint256"
        },
        {
          "indexed": false,
          "internalType": "bool",
          "name": "creatorSideWon",
          "type": "bool"
        },
        {
          "indexed": false,
          "internalType": "uint256",
          "name": "timestamp",
          "type": "uint256"
        }
      ],
      "name": "ComboPoolSettled",
      "type": "event"
    },
    {
      "anonymous": false,
      "inputs": [
        {
          "indexed": true,
          "internalType": "uint256",
          "name": "poolId",
          "type": "uint256"
        },
        {
          "indexed": true,
          "internalType": "address",
          "name": "provider",
          "type": "address"
        },
        {
          "indexed": false,
          "internalType": "uint256",
          "name": "amount",
          "type": "uint256"
        }
      ],
      "name": "LiquidityAdded",
      "type": "event"
    },
    {
      "anonymous": false,
      "inputs": [
        {
          "indexed": true,
          "internalType": "address",
          "name": "previousOwner",
          "type": "address"
        },
        {
          "indexed": true,
          "internalType": "address",
          "name": "newOwner",
          "type": "address"
        }
      ],
      "name": "OwnershipTransferred",
      "type": "event"
    },
    {
      "anonymous": false,
      "inputs": [
        {
          "indexed": true,
          "internalType": "uint256",
          "name": "poolId",
          "type": "uint256"
        },
        {
          "indexed": false,
          "internalType": "enum BoostTier",
          "name": "tier",
          "type": "uint8"
        },
        {
          "indexed": false,
          "internalType": "uint256",
          "name": "expiry",
          "type": "uint256"
        },
        {
          "indexed": false,
          "internalType": "uint256",
          "name": "fee",
          "type": "uint256"
        }
      ],
      "name": "PoolBoosted",
      "type": "event"
    },
    {
      "anonymous": false,
      "inputs": [
        {
          "indexed": true,
          "internalType": "uint256",
          "name": "poolId",
          "type": "uint256"
        },
        {
          "indexed": true,
          "internalType": "address",
          "name": "creator",
          "type": "address"
        },
        {
          "indexed": false,
          "internalType": "uint256",
          "name": "eventStartTime",
          "type": "uint256"
        },
        {
          "indexed": false,
          "internalType": "uint256",
          "name": "eventEndTime",
          "type": "uint256"
        },
        {
          "indexed": false,
          "internalType": "enum OracleType",
          "name": "oracleType",
          "type": "uint8"
        },
        {
          "indexed": false,
          "internalType": "bytes32",
          "name": "marketId",
          "type": "bytes32"
        }
      ],
      "name": "PoolCreated",
      "type": "event"
    },
    {
      "anonymous": false,
      "inputs": [
        {
          "indexed": true,
          "internalType": "uint256",
          "name": "poolId",
          "type": "uint256"
        },
        {
          "indexed": false,
          "internalType": "string",
          "name": "reason",
          "type": "string"
        }
      ],
      "name": "PoolRefunded",
      "type": "event"
    },
    {
      "anonymous": false,
      "inputs": [
        {
          "indexed": true,
          "internalType": "uint256",
          "name": "poolId",
          "type": "uint256"
        },
        {
          "indexed": false,
          "internalType": "bytes32",
          "name": "result",
          "type": "bytes32"
        },
        {
          "indexed": false,
          "internalType": "bool",
          "name": "creatorSideWon",
          "type": "bool"
        },
        {
          "indexed": false,
          "internalType": "uint256",
          "name": "timestamp",
          "type": "uint256"
        }
      ],
      "name": "PoolSettled",
      "type": "event"
    },
    {
      "anonymous": false,
      "inputs": [
        {
          "indexed": true,
          "internalType": "address",
          "name": "user",
          "type": "address"
        },
        {
          "indexed": false,
          "internalType": "enum ReputationAction",
          "name": "action",
          "type": "uint8"
        },
        {
          "indexed": false,
          "internalType": "uint256",
          "name": "value",
          "type": "uint256"
        },
        {
          "indexed": true,
          "internalType": "bytes32",
          "name": "poolId",
          "type": "bytes32"
        },
        {
          "indexed": false,
          "internalType": "uint256",
          "name": "timestamp",
          "type": "uint256"
        }
      ],
      "name": "ReputationActionOccurred",
      "type": "event"
    },
    {
      "anonymous": false,
      "inputs": [
        {
          "indexed": true,
          "internalType": "uint256",
          "name": "poolId",
          "type": "uint256"
        },
        {
          "indexed": true,
          "internalType": "address",
          "name": "user",
          "type": "address"
        },
        {
          "indexed": false,
          "internalType": "uint256",
          "name": "amount",
          "type": "uint256"
        }
      ],
      "name": "RewardClaimed",
      "type": "event"
    },
    {
      "anonymous": false,
      "inputs": [
        {
          "indexed": true,
          "internalType": "uint256",
          "name": "poolId",
          "type": "uint256"
        },
        {
          "indexed": true,
          "internalType": "address",
          "name": "user",
          "type": "address"
        }
      ],
      "name": "UserWhitelisted",
      "type": "event"
    },
    {
      "inputs": [],
      "name": "BOOST_DURATION",
      "outputs": [
        {
          "internalType": "uint256",
          "name": "",
          "type": "uint256"
        }
      ],
      "stateMutability": "view",
      "type": "function"
    },
    {
      "inputs": [],
      "name": "HIGH_ODDS_THRESHOLD",
      "outputs": [
        {
          "internalType": "uint256",
          "name": "",
          "type": "uint256"
        }
      ],
      "stateMutability": "view",
      "type": "function"
    },
    {
      "inputs": [],
      "name": "MAX_BRONZE_POOLS",
      "outputs": [
        {
          "internalType": "uint256",
          "name": "",
          "type": "uint256"
        }
      ],
      "stateMutability": "view",
      "type": "function"
    },
    {
      "inputs": [],
      "name": "MAX_GOLD_POOLS",
      "outputs": [
        {
          "internalType": "uint256",
          "name": "",
          "type": "uint256"
        }
      ],
      "stateMutability": "view",
      "type": "function"
    },
    {
      "inputs": [],
      "name": "MAX_LP_PROVIDERS",
      "outputs": [
        {
          "internalType": "uint256",
          "name": "",
          "type": "uint256"
        }
      ],
      "stateMutability": "view",
      "type": "function"
    },
    {
      "inputs": [],
      "name": "MAX_PARTICIPANTS",
      "outputs": [
        {
          "internalType": "uint256",
          "name": "",
          "type": "uint256"
        }
      ],
      "stateMutability": "view",
      "type": "function"
    },
    {
      "inputs": [],
      "name": "MAX_SILVER_POOLS",
      "outputs": [
        {
          "internalType": "uint256",
          "name": "",
          "type": "uint256"
        }
      ],
      "stateMutability": "view",
      "type": "function"
    },
    {
      "inputs": [
        {
          "internalType": "enum BoostTier",
          "name": "",
          "type": "uint8"
        }
      ],
      "name": "activeBoostCount",
      "outputs": [
        {
          "internalType": "uint256",
          "name": "",
          "type": "uint256"
        }
      ],
      "stateMutability": "view",
      "type": "function"
    },
    {
      "inputs": [
        {
          "internalType": "uint256",
          "name": "poolId",
          "type": "uint256"
        },
        {
          "internalType": "uint256",
          "name": "amount",
          "type": "uint256"
        }
      ],
      "name": "addLiquidity",
      "outputs": [],
      "stateMutability": "payable",
      "type": "function"
    },
    {
      "inputs": [
        {
          "internalType": "uint256",
          "name": "poolId",
          "type": "uint256"
        },
        {
          "internalType": "address",
          "name": "user",
          "type": "address"
        }
      ],
      "name": "addToWhitelist",
      "outputs": [],
      "stateMutability": "nonpayable",
      "type": "function"
    },
    {
      "inputs": [
        {
          "internalType": "address",
          "name": "user",
          "type": "address"
        }
      ],
      "name": "adjustedFeeRate",
      "outputs": [
        {
          "internalType": "uint256",
          "name": "",
          "type": "uint256"
        }
      ],
      "stateMutability": "view",
      "type": "function"
    },
    {
      "inputs": [],
      "name": "arbitrationTimeout",
      "outputs": [
        {
          "internalType": "uint256",
          "name": "",
          "type": "uint256"
        }
      ],
      "stateMutability": "view",
      "type": "function"
    },
    {
      "inputs": [],
      "name": "bettingGracePeriod",
      "outputs": [
        {
          "internalType": "uint256",
          "name": "",
          "type": "uint256"
        }
      ],
      "stateMutability": "view",
      "type": "function"
    },
    {
      "inputs": [
        {
          "internalType": "uint256",
          "name": "",
          "type": "uint256"
        },
        {
          "internalType": "address",
          "name": "",
          "type": "address"
        }
      ],
      "name": "bettorStakes",
      "outputs": [
        {
          "internalType": "uint256",
          "name": "",
          "type": "uint256"
        }
      ],
      "stateMutability": "view",
      "type": "function"
    },
    {
      "inputs": [],
      "name": "bitrToken",
      "outputs": [
        {
          "internalType": "contract IERC20",
          "name": "",
          "type": "address"
        }
      ],
      "stateMutability": "view",
      "type": "function"
    },
    {
      "inputs": [
        {
          "internalType": "uint256",
          "name": "",
          "type": "uint256"
        }
      ],
      "name": "boostFees",
      "outputs": [
        {
          "internalType": "uint256",
          "name": "",
          "type": "uint256"
        }
      ],
      "stateMutability": "view",
      "type": "function"
    },
    {
      "inputs": [
        {
          "internalType": "uint256",
          "name": "poolId",
          "type": "uint256"
        },
        {
          "internalType": "enum BoostTier",
          "name": "tier",
          "type": "uint8"
        }
      ],
      "name": "boostPool",
      "outputs": [],
      "stateMutability": "payable",
      "type": "function"
    },
    {
      "inputs": [
        {
          "internalType": "bytes32",
          "name": "",
          "type": "bytes32"
        },
        {
          "internalType": "uint256",
          "name": "",
          "type": "uint256"
        }
      ],
      "name": "categoryPools",
      "outputs": [
        {
          "internalType": "uint256",
          "name": "",
          "type": "uint256"
        }
      ],
      "stateMutability": "view",
      "type": "function"
    },
    {
      "inputs": [
        {
          "internalType": "uint256",
          "name": "poolId",
          "type": "uint256"
        }
      ],
      "name": "claim",
      "outputs": [],
      "stateMutability": "nonpayable",
      "type": "function"
    },
    {
      "inputs": [
        {
          "internalType": "uint256",
          "name": "comboPoolId",
          "type": "uint256"
        }
      ],
      "name": "claimCombo",
      "outputs": [],
      "stateMutability": "nonpayable",
      "type": "function"
    },
    {
      "inputs": [
        {
          "internalType": "uint256",
          "name": "",
          "type": "uint256"
        },
        {
          "internalType": "address",
          "name": "",
          "type": "address"
        }
      ],
      "name": "claimed",
      "outputs": [
        {
          "internalType": "bool",
          "name": "",
          "type": "bool"
        }
      ],
      "stateMutability": "view",
      "type": "function"
    },
    {
      "inputs": [
        {
          "internalType": "uint256[]",
          "name": "poolIds",
          "type": "uint256[]"
        }
      ],
      "name": "cleanupExpiredBoosts",
      "outputs": [],
      "stateMutability": "nonpayable",
      "type": "function"
    },
    {
      "inputs": [
        {
          "internalType": "uint256",
          "name": "",
          "type": "uint256"
        },
        {
          "internalType": "address",
          "name": "",
          "type": "address"
        }
      ],
      "name": "comboBettorStakes",
      "outputs": [
        {
          "internalType": "uint256",
          "name": "",
          "type": "uint256"
        }
      ],
      "stateMutability": "view",
      "type": "function"
    },
    {
      "inputs": [
        {
          "internalType": "uint256",
          "name": "",
          "type": "uint256"
        },
        {
          "internalType": "address",
          "name": "",
          "type": "address"
        }
      ],
      "name": "comboClaimed",
      "outputs": [
        {
          "internalType": "bool",
          "name": "",
          "type": "bool"
        }
      ],
      "stateMutability": "view",
      "type": "function"
    },
    {
      "inputs": [
        {
          "internalType": "uint256",
          "name": "",
          "type": "uint256"
        },
        {
          "internalType": "address",
          "name": "",
          "type": "address"
        }
      ],
      "name": "comboLPStakes",
      "outputs": [
        {
          "internalType": "uint256",
          "name": "",
          "type": "uint256"
        }
      ],
      "stateMutability": "view",
      "type": "function"
    },
    {
      "inputs": [
        {
          "internalType": "uint256",
          "name": "",
          "type": "uint256"
        },
        {
          "internalType": "uint256",
          "name": "",
          "type": "uint256"
        }
      ],
      "name": "comboPoolBettors",
      "outputs": [
        {
          "internalType": "address",
          "name": "",
          "type": "address"
        }
      ],
      "stateMutability": "view",
      "type": "function"
    },
    {
      "inputs": [],
      "name": "comboPoolCount",
      "outputs": [
        {
          "internalType": "uint256",
          "name": "",
          "type": "uint256"
        }
      ],
      "stateMutability": "view",
      "type": "function"
    },
    {
      "inputs": [
        {
          "internalType": "uint256",
          "name": "",
          "type": "uint256"
        },
        {
          "internalType": "uint256",
          "name": "",
          "type": "uint256"
        }
      ],
      "name": "comboPoolLPs",
      "outputs": [
        {
          "internalType": "address",
          "name": "",
          "type": "address"
        }
      ],
      "stateMutability": "view",
      "type": "function"
    },
    {
      "inputs": [
        {
          "internalType": "uint256",
          "name": "",
          "type": "uint256"
        }
      ],
      "name": "comboPools",
      "outputs": [
        {
          "internalType": "address",
          "name": "creator",
          "type": "address"
        },
        {
          "internalType": "uint256",
          "name": "creatorStake",
          "type": "uint256"
        },
        {
          "internalType": "uint256",
          "name": "totalCreatorSideStake",
          "type": "uint256"
        },
        {
          "internalType": "uint256",
          "name": "maxBettorStake",
          "type": "uint256"
        },
        {
          "internalType": "uint256",
          "name": "totalBettorStake",
          "type": "uint256"
        },
        {
          "internalType": "uint16",
          "name": "totalOdds",
          "type": "uint16"
        },
        {
          "internalType": "bool",
          "name": "settled",
          "type": "bool"
        },
        {
          "internalType": "bool",
          "name": "creatorSideWon",
          "type": "bool"
        },
        {
          "internalType": "bool",
          "name": "usesBitr",
          "type": "bool"
        },
        {
          "internalType": "uint256",
          "name": "eventStartTime",
          "type": "uint256"
        },
        {
          "internalType": "uint256",
          "name": "eventEndTime",
          "type": "uint256"
        },
        {
          "internalType": "uint256",
          "name": "bettingEndTime",
          "type": "uint256"
        },
        {
          "internalType": "uint256",
          "name": "resultTimestamp",
          "type": "uint256"
        },
        {
          "internalType": "string",
          "name": "category",
          "type": "string"
        },
        {
          "internalType": "uint256",
          "name": "maxBetPerUser",
          "type": "uint256"
        }
      ],
      "stateMutability": "view",
      "type": "function"
    },
    {
      "inputs": [
        {
          "components": [
            {
              "internalType": "bytes32",
              "name": "marketId",
              "type": "bytes32"
            },
            {
              "internalType": "bytes32",
              "name": "expectedOutcome",
              "type": "bytes32"
            },
            {
              "internalType": "bool",
              "name": "resolved",
              "type": "bool"
            },
            {
              "internalType": "bytes32",
              "name": "actualOutcome",
              "type": "bytes32"
            }
          ],
          "internalType": "struct BitredictPool.OutcomeCondition[]",
          "name": "conditions",
          "type": "tuple[]"
        },
        {
          "internalType": "uint16",
          "name": "combinedOdds",
          "type": "uint16"
        },
        {
          "internalType": "uint256",
          "name": "creatorStake",
          "type": "uint256"
        },
        {
          "internalType": "uint256",
          "name": "earliestEventStart",
          "type": "uint256"
        },
        {
          "internalType": "uint256",
          "name": "latestEventEnd",
          "type": "uint256"
        },
        {
          "internalType": "string",
          "name": "category",
          "type": "string"
        },
        {
          "internalType": "uint256",
          "name": "maxBetPerUser",
          "type": "uint256"
        },
        {
          "internalType": "bool",
          "name": "useBitr",
          "type": "bool"
        }
      ],
      "name": "createComboPool",
      "outputs": [],
      "stateMutability": "payable",
      "type": "function"
    },
    {
      "inputs": [
        {
          "internalType": "bytes32",
          "name": "_predictedOutcome",
          "type": "bytes32"
        },
        {
          "internalType": "uint256",
          "name": "_odds",
          "type": "uint256"
        },
        {
          "internalType": "uint256",
          "name": "_creatorStake",
          "type": "uint256"
        },
        {
          "internalType": "uint256",
          "name": "_eventStartTime",
          "type": "uint256"
        },
        {
          "internalType": "uint256",
          "name": "_eventEndTime",
          "type": "uint256"
        },
        {
          "internalType": "string",
          "name": "_league",
          "type": "string"
        },
        {
          "internalType": "string",
          "name": "_category",
          "type": "string"
        },
        {
          "internalType": "string",
          "name": "_region",
          "type": "string"
        },
        {
          "internalType": "bool",
          "name": "_isPrivate",
          "type": "bool"
        },
        {
          "internalType": "uint256",
          "name": "_maxBetPerUser",
          "type": "uint256"
        },
        {
          "internalType": "bool",
          "name": "_useBitr",
          "type": "bool"
        },
        {
          "internalType": "enum OracleType",
          "name": "_oracleType",
          "type": "uint8"
        },
        {
          "internalType": "bytes32",
          "name": "_marketId",
          "type": "bytes32"
        }
      ],
      "name": "createPool",
      "outputs": [],
      "stateMutability": "payable",
      "type": "function"
    },
    {
      "inputs": [],
      "name": "creationFeeBITR",
      "outputs": [
        {
          "internalType": "uint256",
          "name": "",
          "type": "uint256"
        }
      ],
      "stateMutability": "view",
      "type": "function"
    },
    {
      "inputs": [],
      "name": "creationFeeSTT",
      "outputs": [
        {
          "internalType": "uint256",
          "name": "",
          "type": "uint256"
        }
      ],
      "stateMutability": "view",
      "type": "function"
    },
    {
      "inputs": [
        {
          "internalType": "address",
          "name": "",
          "type": "address"
        },
        {
          "internalType": "uint256",
          "name": "",
          "type": "uint256"
        }
      ],
      "name": "creatorActivePools",
      "outputs": [
        {
          "internalType": "uint256",
          "name": "",
          "type": "uint256"
        }
      ],
      "stateMutability": "view",
      "type": "function"
    },
    {
      "inputs": [
        {
          "internalType": "address",
          "name": "stakingContract",
          "type": "address"
        }
      ],
      "name": "distributeFees",
      "outputs": [],
      "stateMutability": "nonpayable",
      "type": "function"
    },
    {
      "inputs": [],
      "name": "feeCollector",
      "outputs": [
        {
          "internalType": "address",
          "name": "",
          "type": "address"
        }
      ],
      "stateMutability": "view",
      "type": "function"
    },
    {
      "inputs": [
        {
          "internalType": "address",
          "name": "creator",
          "type": "address"
        },
        {
          "internalType": "uint256",
          "name": "limit",
          "type": "uint256"
        },
        {
          "internalType": "uint256",
          "name": "offset",
          "type": "uint256"
        }
      ],
      "name": "getActivePoolsByCreator",
      "outputs": [
        {
          "internalType": "uint256[]",
          "name": "poolIds",
          "type": "uint256[]"
        }
      ],
      "stateMutability": "view",
      "type": "function"
    },
    {
      "inputs": [
        {
          "internalType": "bytes32",
          "name": "categoryHash",
          "type": "bytes32"
        },
        {
          "internalType": "uint256",
          "name": "limit",
          "type": "uint256"
        },
        {
          "internalType": "uint256",
          "name": "offset",
          "type": "uint256"
        }
      ],
      "name": "getPoolsByCategory",
      "outputs": [
        {
          "internalType": "uint256[]",
          "name": "poolIds",
          "type": "uint256[]"
        }
      ],
      "stateMutability": "view",
      "type": "function"
    },
    {
      "inputs": [],
      "name": "guidedOracle",
      "outputs": [
        {
          "internalType": "address",
          "name": "",
          "type": "address"
        }
      ],
      "stateMutability": "view",
      "type": "function"
    },
    {
      "inputs": [
        {
          "internalType": "uint256",
          "name": "",
          "type": "uint256"
        },
        {
          "internalType": "address",
          "name": "",
          "type": "address"
        }
      ],
      "name": "lpStakes",
      "outputs": [
        {
          "internalType": "uint256",
          "name": "",
          "type": "uint256"
        }
      ],
      "stateMutability": "view",
      "type": "function"
    },
    {
      "inputs": [],
      "name": "minBetAmount",
      "outputs": [
        {
          "internalType": "uint256",
          "name": "",
          "type": "uint256"
        }
      ],
      "stateMutability": "view",
      "type": "function"
    },
    {
      "inputs": [],
      "name": "minPoolStakeBITR",
      "outputs": [
        {
          "internalType": "uint256",
          "name": "",
          "type": "uint256"
        }
      ],
      "stateMutability": "view",
      "type": "function"
    },
    {
      "inputs": [],
      "name": "minPoolStakeSTT",
      "outputs": [
        {
          "internalType": "uint256",
          "name": "",
          "type": "uint256"
        }
      ],
      "stateMutability": "view",
      "type": "function"
    },
    {
      "inputs": [],
      "name": "optimisticOracle",
      "outputs": [
        {
          "internalType": "address",
          "name": "",
          "type": "address"
        }
      ],
      "stateMutability": "view",
      "type": "function"
    },
    {
      "inputs": [],
      "name": "owner",
      "outputs": [
        {
          "internalType": "address",
          "name": "",
          "type": "address"
        }
      ],
      "stateMutability": "view",
      "type": "function"
    },
    {
      "inputs": [
        {
          "internalType": "uint256",
          "name": "poolId",
          "type": "uint256"
        },
        {
          "internalType": "uint256",
          "name": "amount",
          "type": "uint256"
        }
      ],
      "name": "placeBet",
      "outputs": [],
      "stateMutability": "payable",
      "type": "function"
    },
    {
      "inputs": [
        {
          "internalType": "uint256",
          "name": "comboPoolId",
          "type": "uint256"
        },
        {
          "internalType": "uint256",
          "name": "amount",
          "type": "uint256"
        }
      ],
      "name": "placeComboBet",
      "outputs": [],
      "stateMutability": "payable",
      "type": "function"
    },
    {
      "inputs": [],
      "name": "platformFee",
      "outputs": [
        {
          "internalType": "uint256",
          "name": "",
          "type": "uint256"
        }
      ],
      "stateMutability": "view",
      "type": "function"
    },
    {
      "inputs": [
        {
          "internalType": "uint256",
          "name": "",
          "type": "uint256"
        },
        {
          "internalType": "uint256",
          "name": "",
          "type": "uint256"
        }
      ],
      "name": "poolBettors",
      "outputs": [
        {
          "internalType": "address",
          "name": "",
          "type": "address"
        }
      ],
      "stateMutability": "view",
      "type": "function"
    },
    {
      "inputs": [
        {
          "internalType": "uint256",
          "name": "",
          "type": "uint256"
        }
      ],
      "name": "poolBoostExpiry",
      "outputs": [
        {
          "internalType": "uint256",
          "name": "",
          "type": "uint256"
        }
      ],
      "stateMutability": "view",
      "type": "function"
    },
    {
      "inputs": [
        {
          "internalType": "uint256",
          "name": "",
          "type": "uint256"
        }
      ],
      "name": "poolBoostTier",
      "outputs": [
        {
          "internalType": "enum BoostTier",
          "name": "",
          "type": "uint8"
        }
      ],
      "stateMutability": "view",
      "type": "function"
    },
    {
      "inputs": [],
      "name": "poolCount",
      "outputs": [
        {
          "internalType": "uint256",
          "name": "",
          "type": "uint256"
        }
      ],
      "stateMutability": "view",
      "type": "function"
    },
    {
      "inputs": [
        {
          "internalType": "uint256",
          "name": "",
          "type": "uint256"
        }
      ],
      "name": "poolIdToCreatorIndex",
      "outputs": [
        {
          "internalType": "uint256",
          "name": "",
          "type": "uint256"
        }
      ],
      "stateMutability": "view",
      "type": "function"
    },
    {
      "inputs": [
        {
          "internalType": "uint256",
          "name": "",
          "type": "uint256"
        },
        {
          "internalType": "uint256",
          "name": "",
          "type": "uint256"
        }
      ],
      "name": "poolLPs",
      "outputs": [
        {
          "internalType": "address",
          "name": "",
          "type": "address"
        }
      ],
      "stateMutability": "view",
      "type": "function"
    },
    {
      "inputs": [
        {
          "internalType": "uint256",
          "name": "",
          "type": "uint256"
        },
        {
          "internalType": "address",
          "name": "",
          "type": "address"
        }
      ],
      "name": "poolWhitelist",
      "outputs": [
        {
          "internalType": "bool",
          "name": "",
          "type": "bool"
        }
      ],
      "stateMutability": "view",
      "type": "function"
    },
    {
      "inputs": [
        {
          "internalType": "uint256",
          "name": "",
          "type": "uint256"
        }
      ],
      "name": "pools",
      "outputs": [
        {
          "internalType": "address",
          "name": "creator",
          "type": "address"
        },
        {
          "internalType": "uint16",
          "name": "odds",
          "type": "uint16"
        },
        {
          "internalType": "bool",
          "name": "settled",
          "type": "bool"
        },
        {
          "internalType": "bool",
          "name": "creatorSideWon",
          "type": "bool"
        },
        {
          "internalType": "bool",
          "name": "isPrivate",
          "type": "bool"
        },
        {
          "internalType": "bool",
          "name": "usesBitr",
          "type": "bool"
        },
        {
          "internalType": "bool",
          "name": "filledAbove60",
          "type": "bool"
        },
        {
          "internalType": "enum OracleType",
          "name": "oracleType",
          "type": "uint8"
        },
        {
          "internalType": "uint256",
          "name": "creatorStake",
          "type": "uint256"
        },
        {
          "internalType": "uint256",
          "name": "totalCreatorSideStake",
          "type": "uint256"
        },
        {
          "internalType": "uint256",
          "name": "maxBettorStake",
          "type": "uint256"
        },
        {
          "internalType": "uint256",
          "name": "totalBettorStake",
          "type": "uint256"
        },
        {
          "internalType": "bytes32",
          "name": "predictedOutcome",
          "type": "bytes32"
        },
        {
          "internalType": "bytes32",
          "name": "result",
          "type": "bytes32"
        },
        {
          "internalType": "bytes32",
          "name": "marketId",
          "type": "bytes32"
        },
        {
          "internalType": "uint256",
          "name": "eventStartTime",
          "type": "uint256"
        },
        {
          "internalType": "uint256",
          "name": "eventEndTime",
          "type": "uint256"
        },
        {
          "internalType": "uint256",
          "name": "bettingEndTime",
          "type": "uint256"
        },
        {
          "internalType": "uint256",
          "name": "resultTimestamp",
          "type": "uint256"
        },
        {
          "internalType": "uint256",
          "name": "arbitrationDeadline",
          "type": "uint256"
        },
        {
          "internalType": "string",
          "name": "league",
          "type": "string"
        },
        {
          "internalType": "string",
          "name": "category",
          "type": "string"
        },
        {
          "internalType": "string",
          "name": "region",
          "type": "string"
        },
        {
          "internalType": "uint256",
          "name": "maxBetPerUser",
          "type": "uint256"
        }
      ],
      "stateMutability": "view",
      "type": "function"
    },
    {
      "inputs": [
        {
          "internalType": "uint256",
          "name": "poolId",
          "type": "uint256"
        }
      ],
      "name": "refundPool",
      "outputs": [],
      "stateMutability": "nonpayable",
      "type": "function"
    },
    {
      "inputs": [
        {
          "internalType": "uint256",
          "name": "poolId",
          "type": "uint256"
        },
        {
          "internalType": "address",
          "name": "user",
          "type": "address"
        }
      ],
      "name": "removeFromWhitelist",
      "outputs": [],
      "stateMutability": "nonpayable",
      "type": "function"
    },
    {
      "inputs": [],
      "name": "renounceOwnership",
      "outputs": [],
      "stateMutability": "nonpayable",
      "type": "function"
    },
    {
      "inputs": [
        {
          "internalType": "uint256",
          "name": "comboPoolId",
          "type": "uint256"
        },
        {
          "internalType": "uint256",
          "name": "conditionIndex",
          "type": "uint256"
        },
        {
          "internalType": "bytes32",
          "name": "actualOutcome",
          "type": "bytes32"
        }
      ],
      "name": "resolveComboCondition",
      "outputs": [],
      "stateMutability": "nonpayable",
      "type": "function"
    },
    {
      "inputs": [
        {
          "internalType": "uint256",
          "name": "poolId",
          "type": "uint256"
        },
        {
          "internalType": "bytes32",
          "name": "outcome",
          "type": "bytes32"
        }
      ],
      "name": "settlePool",
      "outputs": [],
      "stateMutability": "nonpayable",
      "type": "function"
    },
    {
      "inputs": [
        {
          "internalType": "uint256",
          "name": "poolId",
          "type": "uint256"
        }
      ],
      "name": "settlePoolAutomatically",
      "outputs": [],
      "stateMutability": "nonpayable",
      "type": "function"
    },
    {
      "inputs": [],
      "name": "totalCollectedBITR",
      "outputs": [
        {
          "internalType": "uint256",
          "name": "",
          "type": "uint256"
        }
      ],
      "stateMutability": "view",
      "type": "function"
    },
    {
      "inputs": [],
      "name": "totalCollectedSTT",
      "outputs": [
        {
          "internalType": "uint256",
          "name": "",
          "type": "uint256"
        }
      ],
      "stateMutability": "view",
      "type": "function"
    },
    {
      "inputs": [
        {
          "internalType": "address",
          "name": "newOwner",
          "type": "address"
        }
      ],
      "name": "transferOwnership",
      "outputs": [],
      "stateMutability": "nonpayable",
      "type": "function"
    },
    {
      "inputs": [
        {
          "internalType": "uint256",
          "name": "poolId",
          "type": "uint256"
        }
      ],
      "name": "withdrawCreatorStake",
      "outputs": [],
      "stateMutability": "nonpayable",
      "type": "function"
    },
    {
      "inputs": [
        {
          "internalType": "uint256",
          "name": "poolId",
          "type": "uint256"
        }
      ],
      "name": "withdrawLiquidity",
      "outputs": [],
      "stateMutability": "nonpayable",
      "type": "function"
    }
  ],
  "bytecode": "0x60e034620001ce57601f62005f2038819003918201601f19168301926001600160401b0392909183851183861017620001d3578160809284926040978852833981010312620001ce576200005381620001e9565b91602062000063818401620001e9565b916200007f606062000077888701620001e9565b9501620001e9565b943315620001b65760008054336001600160a01b031980831682178455956001600160a01b0395939290919086167f8be0079c531659141344cd1fd0a4f28419497f9722a3daafe3b4186f6b6457e08480a389516080810181811085821117620001a2578b52828152671bc16d674ec80000828201526729a2241af62c00008b820152674563918244f400006060820152915b600481106200018c57505050501690600154161760015560805260a05260c05251615d219081620001ff8239608051818181610e750152611f14015260a051818181610bc901528181610eba01528181612ef40152613fa3015260c051818181610e370152818161301d0152818161313401526141200152f35b8251841660068201559181019160010162000112565b634e487b7160e01b84526041600452602484fd5b8651631e4fbdf760e01b815260006004820152602490fd5b600080fd5b634e487b7160e01b600052604160045260246000fd5b51906001600160a01b0382168203620001ce5756fe61010080604052600436101561001457600080fd5b600090813560e01c90816301b708c214614bcc575080630a861f2a1461478d5780630e8a01bc1461431d57806310d0325214614228578063120aa877146141df578063152cdda914613f1b5780631787010f14613c555780631f117f9b14613163578063223029221461311e578063237e23be14612e8857806326232a2e146106e157806329402fea14612e625780632d78546114612dc95780633256435014612da6578063379607f514612b62578063394d997614610b5b57806339cb2c9114612b355780633df2afa614612b0b5780633e8670ff14612ad9578063480d154114612aa55780634afe62b5146126ab5780634c2809f1146106b95780634d7aae7814612687578063598f2d84146124515780635e4de6651461241f578063657c183f146124035780636b657612146123ba578063715018a61461236057806384499bb61461233c5780638b4ed235146123125780638da5cb5b146122eb5780638f63f748146122cd5780639413f25c14611eee5780639cd441da14611b6c5780639fd482be14611b20578063a0b310df14611ad9578063a0f8b49114611a9c578063a12a41cf14611a54578063a695ee3814611a28578063a7a891bf146119f6578063a8245783146118a4578063aac137d614611886578063ab78cc151461186a578063ac4afa381461168f578063aedc598114611648578063bc19c6dd14610f30578063c26e797e14610ee9578063c341261014610ea4578063c415b95c14610e5f578063c4baad8114610ba7578063d0f808be14610b60578063d96d09aa146106e1578063d9c6176c14610b5b578063e0de55d01461085a578063e82ac07614610827578063ebbe74d7146106be578063ed517547146107df578063f05e2525146107c1578063f23b420f14610776578063f2fde38b146106e6578063f3baf070146106e1578063f525cb68146106c3578063f56926b2146106be578063f8bf195f146106be578063fa968eea146106b9578063fea3e613146106475763ffd230c91461030357600080fd5b604036600319011261064457600435602480359060048210156106405761032d60025484106151c2565b8115610607578284526017602090815260408520546001600160a01b031633036105cc578385526017815260086040862001544210156105925760006001840361053f5760055b61037d85614f23565b54101561050a57848652600b825260ff60408720541660048110156104f757801515806104e3575b6104c8575b506104b557826006015491823403610472576103c883600454615028565b600455848652600b82526040862060ff1981541660ff8616179055620151804201908142116104605750917fefc14802c8cf8d64bd7c3cfffe96632ef815d3f9d4a6dcf5033b415a166b53b69391606093868852600c8252604088205561042e83614f23565b61043881546151b3565b9055858752600c81526040872054906104546040518095614eb9565b8301526040820152a280f35b634e487b7160e01b8752601160045286fd5b90601a6064926040519262461bcd60e51b845260048401528201527f496e636f727265637420626f6f73742066656520616d6f756e740000000000006044820152fd5b50634e487b7160e01b8452602160045283fd5b6104d190614f23565b6104db8154615c41565b9055386103aa565b50858752600c8352604087205442106103a5565b634e487b7160e01b875260216004528387fd5b50600f6064926040519262461bcd60e51b845260048401528201526e109bdbdcdd081d1a595c88199d5b1b608a1b6044820152fd5b6002840361054e576005610374565b50600060038403610560576005610374565b50600c6064926040519262461bcd60e51b845260048401528201526b24b73b30b634b2103a34b2b960a11b6044820152fd5b60156064926040519262461bcd60e51b8452600484015282015274115d995b9d08185b1c9958591e481cdd185c9d1959605a1b6044820152fd5b60166064926040519262461bcd60e51b845260048401528201527513db9b1e4818dc99585d1bdc8818d85b88189bdbdcdd60521b6044820152fd5b60649060126040519162461bcd60e51b8352602060048401528201527124b73b30b634b2103137b7b9ba103a34b2b960711b6044820152fd5b8380fd5b80fd5b503461064457604036600319011261064457600435610664614d71565b9061067260025482106151c2565b808352601760205260408320546001600160a01b0391906106969083163314615b0e565b8352600d602052604083209116600052602052604060002060ff19815416905580f35b614edc565b614f3c565b50346106445780600319360112610644576020600254604051908152f35b614dff565b503461064457602036600319011261064457610700614d87565b610708614f58565b6001600160a01b0390811690811561075d57600054826bffffffffffffffffffffffff60a01b821617600055167f8be0079c531659141344cd1fd0a4f28419497f9722a3daafe3b4186f6b6457e0600080a380f35b604051631e4fbdf760e01b815260048101849052602490fd5b50346106445761078536614e75565b919081526014602052604081209081548310156106445760206107a88484614e8b565b905460405160039290921b1c6001600160a01b03168152f35b50346106445780600319360112610644576020600354604051908152f35b503461064457604036600319011261064457602435906004358152600e602052604081209081548310156106445760206108198484614e8b565b90546040519160031b1c8152f35b50346106445760203660031901126106445760043590600482101561064457602061085183614f23565b54604051908152f35b503461064457602080600319360112610b575760043561087d6003548210615c6a565b8083526011825260408320916005830161089d60ff825460101c166157dd565b82855260168252604085203360005282526108c060ff6040600020541615615817565b82855260168252604085203360005282526040600020600160ff198254161790558493815460ff8160181c16600014610ab757508386526015835260408620336000528352604060002054908115908115610a59575b5050505b83610923578480f35b54811c60ff1615610a195760015460405163a9059cbb60e01b8152336004820152602481018590529190819083906001600160a01b0316818881604481015b03925af1918215610a0e5785926109b0575b5061099f7f24b5efa61dd1cfc659205a97fb8ed868f3cb8c81922bab2b96423e5de1de2cb792615895565b6040519384523393a3388080808480f35b91508082813d8311610a07575b6109c78183614c62565b81010312610a035761099f6109fc7f24b5efa61dd1cfc659205a97fb8ed868f3cb8c81922bab2b96423e5de1de2cb7936150cb565b9250610974565b8480fd5b503d6109bd565b6040513d87823e3d90fd5b7f24b5efa61dd1cfc659205a97fb8ed868f3cb8c81922bab2b96423e5de1de2cb790610a548580808088335af1610a4e6155ff565b50615855565b61099f565b9091929550612710918284029084820484141715610aa357816004610a8b610a93936002610a9a98979601549061511b565b91015461555d565b0490615028565b92388080610916565b634e487b7160e01b88526011600452602488fd5b9050838652601383526040862033600052835260406000205480610add575b505061091a565b909450610b1b612710610b13610b046064610afc61ffff8b168761555d565b04948561513b565b610b0d336158d6565b9061555d565b04809261513b565b948115610ad657831c60ff1615610b4357610b3890600554615028565b6005555b3880610ad6565b610b4f90600454615028565b600455610b3c565b5080fd5b614e57565b5034610644576040366003190112610644576040610b7c614d71565b9160043581526013602052209060018060a01b03166000526020526020604060002054604051908152f35b50346106445760603660031901126106445760043560243560018060a01b03807f0000000000000000000000000000000000000000000000000000000000000000163314908115610e33575b5015610e0157600390610c0882548410615c6a565b82845260116020526040842091600583019160ff91610c2d83855460101c1615615570565b600c8501918254811015610dbc57610c458184615c4e565b50908460028093015416610d7757610c7782610c618387615c4e565b5001916001928360ff1982541617905585615c4e565b5083604435910155809389958a938254945b858110610d13575b5050505050505080610d05575b610ca6578480f35b7f229d1ce99036a89ca341013e342e45bf92c5f3802ab63e6c2e9c718e0ac39882928262010000604094549315159363ff0000008560181b169063ffff00001916171790556009429101558151908152426020820152a2388080808480f35b506007830154421015610c9e565b8282610d1f8387615c4e565b5001541615610d625786610d338286615c4e565b50015485610d418387615c4e565b50015403610d58575b610d53906151b3565b610c89565b9397508793610d4a565b50505050505050508438808080808080610c91565b60405162461bcd60e51b815260206004820152601a60248201527f436f6e646974696f6e20616c7265616479207265736f6c7665640000000000006044820152606490fd5b60405162461bcd60e51b815260206004820152601760248201527f496e76616c696420636f6e646974696f6e20696e6465780000000000000000006044820152606490fd5b60405162461bcd60e51b815260206004820152600a6024820152694e6f74206f7261636c6560b01b6044820152606490fd5b90507f000000000000000000000000000000000000000000000000000000000000000016331438610bf3565b50346106445780600319360112610644576040517f00000000000000000000000000000000000000000000000000000000000000006001600160a01b03168152602090f35b50346106445780600319360112610644576040517f00000000000000000000000000000000000000000000000000000000000000006001600160a01b03168152602090f35b5034610644576040366003190112610644576040610f05614d71565b916004358152601b602052209060018060a01b03166000526020526020604060002054604051908152f35b50610100366003190112610644576004356001600160401b038111610b575736602382011215610b5757806004013590610f6982614f0c565b91610f776040519384614c62565b8083526024602084019160071b83010191368311610a0357602401905b8282106115ca575050506024359161ffff831683036106445760a4356001600160401b038111610b5757610fcc903690600401614db8565b9160e4359283151584036115c5578151600281101590816115b9575b501561157457606461ffff86161180611564575b1561152757831561150c5761101e683635c9adc5dea000006044351015614fd0565b603c420180421161143757611036906064351161504b565b60643560843511156114d15783156114c3576802b5e3af16b18800005b8361106060443583615028565b86156114a2576001546040516323b872dd60e01b81523360048201523060248201526044810192909252909160209183916064918391906001600160a01b03165af1908115610a0e57859161145f575b50906110be6110c6926150d8565b600554615028565b6005555b61ffff6064868216048116600019011161144b576110f961ffff600019816064818a160416011660443561511b565b93606435603b1981011161143757600354845260116020526040842094336bffffffffffffffffffffffff60a01b875416178655604435600187015560443560028701556003860155836004860155600585019064ff00000000825491151560201b169061ffff88169064ffffffffff19161717905560643560068501556084356007850155603b196064350160088501558260098501558051906001600160401b0382116114235781906111b1600a870154614bf1565b601f81116113d2575b50602090601f8311600114611360578592611355575b50508160011b916000199060031b1c191617600a8401559291925b60c435600b850155600c829401935b81518110156112995761120d818361562f565b518554600160401b8110156112855780600161122c9201885587615c4e565b9190916112715790600360608361126c959451845560208101516001850155600284016040820151151560ff8019835416911617905501519101556151b3565b6111fa565b634e487b7160e01b85526004859052602485fd5b634e487b7160e01b85526041600452602485fd5b5061134f9192600354845260146020526112b63360408620615154565b60035484526015602052604084203360005260205260443560406000205561ffff600354925191604051928352166020820152817f9fd48ac66783aaba800ed3f46853bc3ada5277bd5db71378441d817c74bafa8c60403393a380604051600080516020615cac83398151915233918061134742604435836040909392919360608101946000825260208201520152565b0390a36151b3565b60035580f35b0151905038806111d0565b9250600a86018552602085209085935b601f19841685106113b7576001945083601f1981161061139e575b505050811b01600a8401559291926111eb565b015160001960f88460031b161c1916905538808061138b565b81810151835560209485019460019093019290910190611370565b909150600a8601855260208520601f840160051c81016020851061141c575b90849392915b601f830160051c8201811061140d5750506111ba565b600081558594506001016113f7565b50806113f1565b634e487b7160e01b84526041600452602484fd5b634e487b7160e01b84526011600452602484fd5b634e487b7160e01b83526011600452602483fd5b90506020813d60201161149a575b8161147a60209383614c62565b81010312610a0357906110be6114926110c6936150cb565b9192506110b0565b3d915061146d565b6114bb9291506114b3903414615088565b600454615028565b6004556110ca565b670de0b6b3a7640000611053565b60405162461bcd60e51b8152602060048201526013602482015272496e76616c6964206576656e742074696d657360681b6044820152606490fd5b611522674563918244f400006044351015614f84565b61101e565b60405162461bcd60e51b8152602060048201526015602482015274496e76616c696420636f6d62696e6564206f64647360581b6044820152606490fd5b5061c35061ffff86161115610ffc565b60405162461bcd60e51b815260206004820152601760248201527f322d3420636f6e646974696f6e732072657175697265640000000000000000006044820152606490fd5b60049150111538610fe8565b600080fd5b6080908183360312611644576040519182018281106001600160401b0382111761162e57604052823582526020830135602083015260408301359081151582036115c557826020926040608095015260608086013590820152815201910190610f94565b634e487b7160e01b600052604160045260246000fd5b8580fd5b5034610644576040366003190112610644576040611664614d71565b9160043581526019602052209060018060a01b03166000526020526020604060002054604051908152f35b50346106445760203660031901126106445760043581526017602052604090208080546001820154600283015460a052600383015460c0526004830154600584015460068501546007860154600887015490600988015492600a89015494600b8a015496600c8b015498600d8c0161170690614c83565b9a611713600e8e01614c83565b9c600f0161172090614c83565b9d601001546080526040518060e052600160a01b60019003821690528060a01c61ffff1660e0516020015260ff808260b01c16151560e05160400152808260b81c16151560e05160600152808260c01c16151560e05160800152808260c81c16151560e05160a00152808260d01c16151560e05160c0015260e05160e0019160d81c16906117ad91614eff565b60e051610100015260a05160e051610120015260c05160e051610140015260e051610160015260e051610180015260e0516101a0015260e0516101c0015260e0516101e0015260e051610200015260e051610220015260e051610240015260e05161026001526103008060e051610280015260e0510161182c91614d4c565b60e051808203906102a0015261184191614d4c565b60e051808203906102c0015261185691614d4c565b60805160e0516102e0015260e05180910390f35b50346106445780600319360112610644576020604051603c8152f35b50346106445780600319360112610644576020600454604051908152f35b503461064457602080600319360112610b5757600435906001600160401b03908183116106405736602384011215610640578260040135918211610640576024926005368585831b8401011161164457855b848110611901578680f35b8581831b840101356002548110156119ec57808852600b80865260ff60408a20541690600c9081885260408b205460048410156119d957928b92899261195e97969583151590816119ce575b50611963575b5050505050506151b3565b6118f6565b857f3b39599a0e569d32e7c39669f521b7704a4abb9e4ec2a4d9826f205270f6c3029552835260408d2060ff198154169055848d5282528b60408120556119a981614f23565b6119b38154615c41565b90556119c26040518092614eb9565ba2388886828080611953565b90504210153861194d565b634e487b7160e01b8c5260216004528a8cfd5b5061195e906151b3565b503461064457611a0536614e75565b919081526012602052604081209081548310156106445760206107a88484614e8b565b5034610644576020366003190112610644576020611a4c611a47614d87565b6158d6565b604051908152f35b503461064457604036600319011261064457611a6e614d87565b6001600160a01b03168152600f60205260408120805460243592908310156106445760206108198484614e8b565b503461064457606036600319011261064457611ad5611ac9611abc614d87565b6044359060243590615a92565b60405191829182614e1c565b0390f35b5034610644576040366003190112610644576040611af5614d71565b9160043581526015602052209060018060a01b03166000526020526020604060002054604051908152f35b5034610644576040366003190112610644576040611b3c614d71565b916004358152600d602052209060018060a01b0316600052602052602060ff604060002054166040519015158152f35b50611b7636614e75565b90611b8460025482106151c2565b80835260206017815260408420805490611ba460ff8360b01c1615615340565b670de0b6b3a76400008510611ea9576969e10de76676d08000008511611e6e57611bd3600a82015442106153bb565b60028101918254861910611e3057848752601b84526040872033600052845260406000205415611de0575b60c01c60ff16611db9575b838652601b83526040862033600052835260406000205415611da0575b838652601b8352604086203360005283526040600020611c47868254615028565b9055611c54858354615028565b8092556001810154916004820154838115918215611d96575b5050611d8e575b50805491606461ffff8460a01c16611c8e828210156153fe565b04906000198201918211610aa357611cac60ff94939260039261511b565b91015560c81c1615611d6e576001546040516323b872dd60e01b815233600482015230602482015260448101859052919081908390606490829089906001600160a01b03165af1918215610a0e578592611d26575b50611d1a600080516020615ccc833981519152926150d8565b6040519384523393a380f35b91508082813d8311611d67575b611d3d8183614c62565b81010312610a0357611d1a611d60600080516020615ccc833981519152936150cb565b9250611d01565b503d611d33565b600080516020615ccc83398151915290611d89843414615088565b611d1a565b915038611c74565b1190508338611c6d565b838652601a8352611db43360408820615154565b611c26565b838652600d835260408620336000528352611ddb60ff604060002054166154c6565b611c09565b848752601a84526064604088205410611bfe5760405162461bcd60e51b8152600481018590526015602482015274546f6f206d616e79204c502070726f76696465727360581b6044820152606490fd5b60405162461bcd60e51b815260048101859052601660248201527543726561746f72207374616b65206f766572666c6f7760501b6044820152606490fd5b60405162461bcd60e51b81526004810184905260136024820152724c697175696469747920746f6f206c6172676560681b6044820152606490fd5b60405162461bcd60e51b815260048101849052601760248201527f4c69717569646974792062656c6f77206d696e696d756d0000000000000000006044820152606490fd5b503461064457602080600319360112610b5757611f09614d87565b906001600160a01b037f000000000000000000000000000000000000000000000000000000000000000081811692913384900361229357600454946005549486159384918215908161218c575b5087159687159283612032575b50509161202a575b50611f74578680f35b1691601e8402938404601e14171561201657601e8402938404601e14171561143757908184923b156120125760649183604492846040519788968795633d6bcfaf60e11b87520460048601520460248401525af1801561200757611fdc575b80808080808680f35b6001600160401b038111611ff35760405238611fd3565b634e487b7160e01b82526041600452602482fd5b6040513d84823e3d90fd5b8280fd5b634e487b7160e01b85526011600452602485fd5b905038611f6b565b909350601e8902898104601e148917156121785760648c91048160055581866120998d612064858d600154169261513b565b60405163a9059cbb60e01b8082526001600160a01b039099166004820152602481019190915295869283919082906044820190565b03925af192831561216b578793612132575b506001546040519485526001600160a01b038916600486015260248501929092528391891690829081604481015b03925af193841561212757879415611f635790809450813d8311612120575b6121028183614c62565b8101031261211c5761211486936150cb565b503880611f63565b8980fd5b503d6120f8565b6040513d8d823e3d90fd5b9283813d8311612164575b6121478183614c62565b81010312610644576120d99361215d88946150cb565b50936120ab565b503d61213d565b50604051903d90823e3d90fd5b634e487b7160e01b8c52601160045260248cfd5b90919250601e8902898104601e1487171561227f578a80808c946121b9606483960480978460045561513b565b905af16121c46155ff565b50156122305789808080938888165af16121dc6155ff565b50156121eb5790849138611f56565b60405162461bcd60e51b815260048101879052601b60248201527f535454207374616b696e67207472616e73666572206661696c656400000000006044820152606490fd5b60405162461bcd60e51b815260048101889052602160248201527f5354542066656520636f6c6c6563746f72207472616e73666572206661696c656044820152601960fa1b6064820152608490fd5b634e487b7160e01b8b52601160045260248bfd5b60405162461bcd60e51b815260048101849052601260248201527127b7363c903332b29031b7b63632b1ba37b960711b6044820152606490fd5b50346106445780600319360112610644576020600554604051908152f35b5034610644578060031936011261064457546040516001600160a01b039091168152602090f35b50346106445760203660031901126106445760406020916004358152601083522054604051908152f35b503461064457806003193601126106445760206040516802b5e3af16b18800008152f35b5034610644578060031936011261064457612379614f58565b80546001600160a01b03198116825581906001600160a01b03167f8be0079c531659141344cd1fd0a4f28419497f9722a3daafe3b4186f6b6457e08280a380f35b50346106445760403660031901126106445760ff60406020926123db614d71565b6004358252601685528282206001600160a01b03909116825284522054604051911615158152f35b5034610644578060031936011261064457602060405160648152f35b50346106445761242e36614e75565b91908152601a602052604081209081548310156106445760206107a88484614e8b565b5061245b36614e75565b906124696003548210615c6a565b80835260206011815260ff60408520600581019061248d83835460101c1615615340565b6124a1670de0b6b3a764000087101561537b565b6124b0600882015442106153bb565b600b60048201916124d16124c5898554615028565b6003830154101561544a565b015480612658575b5084875260138452604087203388528452604087205415612627575b8487526013845260408720338852845260408720612514878254615028565b9055612521868254615028565b905554821c16156125fa576001546040516323b872dd60e01b815233600482015230602482015260448101859052919081908390606490829089906001600160a01b03165af1918215610a0e5785926125a0575b50611d1a7fa62ac007af53ff4400791f2f3468865d30bb8700e4624a47647a3d5e6cbcf2e9926150d8565b91508082813d83116125f3575b6125b78183614c62565b81010312610a0357611d1a6125ec7fa62ac007af53ff4400791f2f3468865d30bb8700e4624a47647a3d5e6cbcf2e9936150cb565b9250612575565b503d6125ad565b7fa62ac007af53ff4400791f2f3468865d30bb8700e4624a47647a3d5e6cbcf2e990611d89843414615088565b8487526012845261263f6101f4604089205410615482565b848752601284526126533360408920615154565b6124f5565b612681908689526013865260408920338a52865261267a8860408b2054615028565b1115615511565b386124d9565b50346106445780600319360112610644576020604051683635c9adc5dea000008152f35b506126b536614e75565b906126c360025482106151c2565b808352602060178152604084206126d9816151fd565b6126e7604082015115615340565b6126fb670de0b6b3a764000086101561537b565b69152d02c7e14af68000008511612a705761271c61022082015142106153bb565b6101008101918251610160830193845190888215928315612a5a575b505050612a4e575b606461ffff8685015116612756828210156153fe565b04906000198201918211612a3a579061276e9161511b565b926127858461277e898451615028565b111561544a565b8051871910612a0457906127f4878793848b526019885260408b20338c5288526127d98260408d20548d8115806129e7575b60808b01516129c2575b6102e08b0180516129a5575b5061298a575b50615028565b858c526019895260408c20338d52895260408c205551615028565b90816004820155846003820155805460ff8160d01c16159586612942575b5060a0956128fb575b505050500151156128e8576001546040516323b872dd60e01b815233600482015230602482015260448101859052919081908390606490829089906001600160a01b03165af1918215610a0e5785926128ad575b5061287b6001926150d8565b6040519384528301527fb1bd10cf5ea9540f12b9b182707734fd82deacc56830e2bd316133deb372bff460403393a380f35b91508082813d83116128e1575b6128c48183614c62565b81010312610a035761287b6128da6001936150cb565b925061286f565b503d6128ba565b6001906128f6843414615088565b61287b565b600160d01b9060ff60d01b1916179055600080516020615cac8339815191526060600180871b0385511692604051906001825288820152426040820152a38338808061281b565b9193509193945060648402848104606414851517156129765791603c61296e89959360a098979561511b565b101595612812565b634e487b7160e01b8a52601160045260248afd5b808961299f925260188d526040339120615154565b8d6127d3565b6129bc906129b38686615028565b90511015615511565b386127cd565b898252600d8d52604082203383528d526129e260ff6040842054166154c6565b6127c1565b89825260188d526129ff6101f4604084205410615482565b6127b7565b60405162461bcd60e51b815260048101869052600e60248201526d5374616b65206f766572666c6f7760901b6044820152606490fd5b634e487b7160e01b89526011600452602489fd5b50610120820151612740565b612a65929350615028565b905110388881612738565b60405162461bcd60e51b815260048101849052600d60248201526c42657420746f6f206c6172676560981b6044820152606490fd5b50346106445760203660031901126106445760ff60406020926004358152600b8452205416612ad76040518092614eb9565bf35b503461064457612ae836614e75565b919081526018602052604081209081548310156106445760206107a88484614e8b565b50346106445760203660031901126106445760406020916004358152600c83522054604051908152f35b5034610644576020366003190112610644576004356004811015610b575760209060060154604051908152f35b503461064457602080600319360112610b5757600435612b8560025482106151c2565b80835260178252612b98604084206151fd565b91612ba8604084015115156157dd565b818452601c8152604084203385528152612bc960ff60408620541615615817565b818452601c8152604080852033865282528420805460ff19166001179055606083015184939015612cb557828552601b8252604085203386528252604085205480158015612c5f575b50505b83612c1e578480f35b60a0015115610a195760015460405163a9059cbb60e01b8152336004820152602481018590529190819083906001600160a01b031681888160448101610962565b90919450612710908183029083820483141715612ca15790610a93612c8e612c9994936101208901519061511b565b61016088015161555d565b923880612c12565b634e487b7160e01b87526011600452602487fd5b82855260198252604085203386528252604085205480612cd6575b50612c15565b9350826064612cec61ffff85850151168761555d565b0494612d09612710612d01610b04848a61513b565b04809761513b565b9580612d72575b5060a083015115612d6157686c6b935b8bbd4000008110155b612d34575b50612cd0565b604051906003825284820152426040820152600080516020615cac83398151915260603392a38238612d2e565b678ac7230489e80000811015612d29565b60a084015115612d9257612d8890600554615028565b6005555b38612d10565b612d9e90600454615028565b600455612d8c565b50346106445780600319360112610644576020604051674563918244f400008152f35b503461064457604036600319011261064457600435612de6614d71565b90612df460025482106151c2565b808352601760205260408320546001600160a01b0390612e179082163314615b0e565b818452600d6020526040842092169182845260205260408320600160ff198254161790557fef35c6815799b054cdc749d1f5bb07547c285ef9d7559c6e839da576f42b49098380a380f35b503461064457606036600319011261064457611ad5611ac96044356024356004356159e9565b503461064457604036600319011261064457600435602435612ead60025483106151c2565b818352601760205260408320908154612ecc60ff8260b01c16156156ca565b612edc6009840154421015615708565b60ff8160d81c16600281101561310a578061301457507f00000000000000000000000000000000000000000000000000000000000000006001600160a01b03163303612fbc577f86acb9671870fda5e7ea8aa500f96625102d6f2e5a2ee12d3ca0fb612850fa299260ff915b60068201849055600582015460ff60b81b1960b085901b19909216600160b01b17919091169084141560b81b60ff60b81b161781555b42600b820155612f8d85615b48565b5460b81c16612fb660405192839242918460409194939260608201958252151560208201520152565b0390a280f35b60405162461bcd60e51b815260206004820152602a60248201527f4f6e6c7920677569646564206f7261636c652063616e20736574746c652067756044820152696964656420706f6f6c7360b01b6064820152608490fd5b6001036130cf577f00000000000000000000000000000000000000000000000000000000000000006001600160a01b03163303613075577f86acb9671870fda5e7ea8aa500f96625102d6f2e5a2ee12d3ca0fb612850fa299260ff91612f48565b60405162461bcd60e51b815260206004820152602c60248201527f4f6e6c79206f7074696d6973746963206f7261636c652063616e20736574746c60448201526b65206f70656e20706f6f6c7360a01b6064820152608490fd5b60405162461bcd60e51b8152602060048201526013602482015272496e76616c6964206f7261636c65207479706560681b6044820152606490fd5b634e487b7160e01b86526021600452602486fd5b50346106445780600319360112610644576040517f00000000000000000000000000000000000000000000000000000000000000006001600160a01b03168152602090f35b506101a03660031901126106445760a4356001600160401b038111610b5757613190903690600401614db8565b60c4356001600160401b038111612012576131af903690600401614db8565b9060e4356001600160401b038111610640576131cf903690600401614db8565b61010435918215158303610a03576101443515156101443503610a03576002610164351015610a035760646024351180613c47575b15613bec576101443515613bd157613229683635c9adc5dea000006044351015614fd0565b69d3c21bcecceda100000060443511613b9a57426064351115613b55576064356084351115613b1057603c4201804211613a515761326a906064351161504b565b6301e133804201804211613a51576064351015613adb576101443515613acc57846802b5e3af16b18800005b6132a260443582615028565b6101443515613ab4576001546040516323b872dd60e01b81523360048201523060248201526044810192909252909260209184916064918391906001600160a01b03165af1918215613aa9578792613a65575b506110be613302926150d8565b6005555b6064602435046000198101908111613a51576133249060443561511b565b606435603b19810111613a5157620151806084350160843511613a51576040519361334e85614c2b565b33855261ffff6024351660208601528660408601528660608601521515608085015261014435151560a08501528560c08501526133916101643560e08601615148565b604435610100850181905261012085015261014084015261016083018590526004356101808401526101a08301859052610184356101c08401526064356101e084018190526084356102008501819052603b19909101610220850152610240840186905262015180016102608401526102808301526102a082018390526102c0820152610124356102e0820152600254835260176020908152604080852083518154938501519285015160608601516001600160c01b03199095166001600160a01b03929092169190911760a09390931b61ffff60a01b169290921791151560b01b60ff60b01b169190911791151560b81b60ff60b81b169190911781559060808101511515825460ff60c81b60a0840151151560c81b1660ff60d01b60c0850151151560d01b169160e08501516002811015613a3d5760ff60d81b9060d81b169360ff60c01b9060c01b169063ffffffff60c01b1916171717178255610100810151600183015561012081015160028301556101408101516003830155610160810151600483015561018081015160058301556101a081015160068301556101c081015160078301556101e081015160088301556102008101516009830155610220810151600a830155610240810151600b830155610260810151600c8301556102808101518051906001600160401b038211613895578190613598600d860154614bf1565b601f81116139ed575b50602090601f831160011461397e578792613973575b50508160011b916000199060031b1c191617600d8301555b6102a08101518051906001600160401b0382116138955781906135f5600e860154614bf1565b601f8111613923575b50602090601f83116001146138b45787926138a9575b50508160011b916000199060031b1c191617600e8301555b6102c08101518051906001600160401b03821161389557613650600f850154614bf1565b601f8111613851575b50602090601f83116001146137e1579180601094926102e09489926137d6575b50508160011b916000199060031b1c191617600f8501555b01519101556002548252601a6020526136ad3360408420615154565b6002548252601b602052604082203383526020526044356040832055602081519101208152600e6020526136e76040822060025490615177565b338152600f6020526136ff6040822060025490615177565b338152600f602052604081205460001981019081116137c2576002548252601060205260408220556137bc60025480604051600080516020615cac83398151915233918061376442604435836040909392919360608101946000825260208201520152565b0390a3604051606435815260843560208201526137876040820161016435614eff565b610184356060820152817f1f0b2ea2d1ad174a9b71a251bd90e47ad5395c0e34e6e0fd0f80c1495eddd42260803393a36151b3565b60025580f35b634e487b7160e01b82526011600452602482fd5b015190503880613679565b600f85018752602087209190601f198416885b81811061383957509260019285926102e0966010989610613820575b505050811b01600f850155613691565b015160001960f88460031b161c19169055388080613810565b929360206001819287860151815501950193016137f4565b600f8501875260208720601f840160051c81016020851061388e575b601f830160051c82018110613883575050613659565b88815560010161386d565b508061386d565b634e487b7160e01b86526041600452602486fd5b015190503880613614565b9250600e85018752602087209087935b601f1984168510613908576001945083601f198116106138ef575b505050811b01600e83015561362c565b015160001960f88460031b161c191690553880806138df565b818101518355602094850194600190930192909101906138c4565b909150600e8501875260208720601f840160051c81016020851061396c575b90849392915b601f830160051c8201811061395e5750506135fe565b898155859450600101613948565b5080613942565b0151905038806135b7565b9250600d85018752602087209087935b601f19841685106139d2576001945083601f198116106139b9575b505050811b01600d8301556135cf565b015160001960f88460031b161c191690553880806139a9565b8181015183556020948501946001909301929091019061398e565b909150600d8501875260208720601f840160051c810160208510613a36575b90849392915b601f830160051c82018110613a285750506135a1565b898155859450600101613a12565b5080613a0c565b634e487b7160e01b89526021600452602489fd5b634e487b7160e01b86526011600452602486fd5b91506020823d8211613aa1575b81613a7f60209383614c62565b81010312613a9d576110be613a96613302936150cb565b92506132f5565b8680fd5b3d9150613a72565b6040513d89823e3d90fd5b613ac492506114b3903414615088565b600455613306565b84670de0b6b3a7640000613296565b60405162461bcd60e51b815260206004820152600d60248201526c22bb32b73a103a37b7903330b960991b6044820152606490fd5b60405162461bcd60e51b815260206004820152601d60248201527f4576656e7420656e64206d7573742062652061667465722073746172740000006044820152606490fd5b60405162461bcd60e51b815260206004820152601760248201527f4576656e74206d75737420626520696e206675747572650000000000000000006044820152606490fd5b60405162461bcd60e51b815260206004820152600f60248201526e5374616b6520746f6f206c6172676560881b6044820152606490fd5b613be7674563918244f400006044351015614f84565b613229565b60405162461bcd60e51b815260206004820152602d60248201527f496e76616c6964206f6464733a206d757374206265206265747765656e20312e60448201526c0303120616e64203130302e303609c1b6064820152608490fd5b506127106024351115613204565b503461064457602090816003193601126106445760043590613c7a60025483106151c2565b81815260178352604081208054926001600160a01b038085163303613ed65760ff94613cab868260b01c1615615570565b613cb96004850154156155b3565b600a840154421115613e915760ff60b01b1916600160b01b178355818452601a86526040808520905181548082529186528786209096918790818a0190885b8b828210613e7957505050613d0f92500387614c62565b845b8651811015613e215782613d25828961562f565b511690848752601b895260408720828852895288604088205480613d55575b5050613d5091506151b3565b613d11565b8885895460c81c16600014613dff575060015460405163a9059cbb60e01b81526001600160a01b039590951660048601526024850191909152919291829060449082908b9089165af1908115613aa9578791613dc1575b5090613dba613d5092615686565b8838613d44565b90508881813d8311613df8575b613dd88183614c62565b81010312613a9d5790613dba613df0613d50936150cb565b919250613dac565b503d613dce565b613e1c925080808093613d50975af1613e166155ff565b50615643565b613dba565b85847f5d017285e8f2eb1ffcbc2466eaedb487942e395d5f1e312f09e9384b1687bea560608b613e5084615b48565b6010604051918083528201526f139bc818995d1cc81c9958d95a5d995960821b6040820152a280f35b8554881684526001958601958c955093019201613cf8565b60405162461bcd60e51b815260048101889052601860248201527f42657474696e6720706572696f64206e6f7420656e64656400000000000000006044820152606490fd5b60405162461bcd60e51b815260048101879052601960248201527f4f6e6c792063726561746f722063616e207769746864726177000000000000006044820152606490fd5b503461064457602080600319360112610b575760043590613f3f60025483106151c2565b81835260178152604083208054613f5c60ff8260b01c16156156ca565b613f6c6009830154421015615708565b60ff8160d81c16600281101561310a57806140f857506007820154604051632e8d1dc160e11b8152600481019190915285816024817f00000000000000000000000000000000000000000000000000000000000000006001600160a01b03165afa9081156140ed57869087926140c8575b501561408557613fec906157ba565b9260015b1561404d575060068201839055600582015461ffff60b01b199091169083141560b81b60ff60b81b1617600160b01b1781557f86acb9671870fda5e7ea8aa500f96625102d6f2e5a2ee12d3ca0fb612850fa29919060ff90612f7e565b6064906040519062461bcd60e51b8252600482015260116024820152704f7574636f6d65206e6f7420726561647960781b6044820152fd5b6064846040519062461bcd60e51b825280600483015260248201527f477569646564206f7574636f6d65206e6f7420617661696c61626c65207965746044820152fd5b90506140e691503d8088833e6140de8183614c62565b81019061574a565b9038613fdd565b6040513d88823e3d90fd5b6001036130cf576007820154604051632e8d1dc160e11b8152600481019190915285816024817f00000000000000000000000000000000000000000000000000000000000000006001600160a01b03165afa9081156140ed57869087926141c2575b501561417157614169906157ba565b926001613ff0565b60405162461bcd60e51b8152600481018590526024808201527f4f7074696d6973746963206f7574636f6d65206e6f742066696e616c697a6564604482015263081e595d60e21b6064820152608490fd5b90506141d891503d8088833e6140de8183614c62565b903861415a565b50346106445760403660031901126106445760ff6040602092614200614d71565b6004358252601c85528282206001600160a01b03909116825284522054604051911615158152f35b50346106445760203660031901126106445760406020916004358152601183522060018060a01b0381541690614312600182015491600281015460038201546004830154600584015460ff600686015491600787015493600888015495600989015497600b614299600a8c01614c83565b9a01549b6040519e8f9e8f908152015260408d015260608c015260808b015261ffff811660a08b0152818160101c16151560c08b0152818160181c16151560e08b015260201c1615156101008901526101208801526101408701526101608601526101808501526101e0806101a0860152840190614d4c565b906101c08301520390f35b50346106445760209081600319360112610644576004359061434260025483106151c2565b818152601783526040812080549260ff93614362858260b01c16156156ca565b600c8301544211156147485760ff60b01b1916600160b01b178255808352601a8552604080842090518154808252918552868520909591869081890190875b8a828210614729575050506143b892500386614c62565b835b85518110156144cf576001600160a01b039087826143d8838a61562f565b5116858852601b825260408820818952825260408820549081614408575b50505061440391506151b3565b6143ba565b8886895460c81c166000146144b1575060015460405163a9059cbb60e01b81526001600160a01b0392909216600483015260248201929092529293839160449183918b91165af19081156140ed578691614473575b509061446b61440392615686565b8738806143f6565b90508781813d83116144aa575b61448a8183614c62565b81010312611644579061446b6144a2614403936150cb565b91925061445d565b503d614480565b61440395506144ca935080809381935af1613e166155ff565b61446b565b50859291938481526018928385526040822095604051808888829a54938481520190865288862092865b8a82821061470a5750505061451092500388614c62565b825b87518110156146af57836001600160a01b038881614530858d61562f565b51169185845260199283835260408520818652835260408520549182614565575b505050505050614560906151b3565b614512565b885460c81c8b16156146495760015460405163a9059cbb60e01b81526001600160a01b03939093166004840152602483019390935293945092839160449183918b91165af19081156140ed578691614614575b50156145d15750614560905b9050838988818080614551565b876064916040519162461bcd60e51b8352600483015260248201527f4249545220626574746f7220726566756e64206661696c6564000000000000006044820152fd5b90508881813d8311614642575b61462b8183614c62565b810103126116445761463c906150cb565b8a6145b8565b503d614621565b508493508392509082915af161465d6155ff565b501561466c57614560906145c4565b606487876040519162461bcd60e51b8352600483015260248201527f53545420626574746f7220726566756e64206661696c656400000000000000006044820152fd5b83827f5d017285e8f2eb1ffcbc2466eaedb487942e395d5f1e312f09e9384b1687bea560608a6146de84615b48565b60136040519180835282015272105c989a5d1c985d1a5bdb881d1a5b595bdd5d606a1b6040820152a280f35b85546001600160a01b031684526001958601958d9550930192016144f9565b85546001600160a01b031684526001958601958b9550930192016143a1565b60405162461bcd60e51b815260048101879052601e60248201527f4172626974726174696f6e20706572696f64206e6f74206578706972656400006044820152606490fd5b503461064457602080600319360112610b57576004356147b060025482106151c2565b808352601782526040832080546147cd60ff8260b01c1615615570565b6001600160a01b039081163314614b8957828552601b8452604085203386528452604085205415614b4c5760088201544210614b0f57908491600482016148158154156155b3565b848452601b8652604084203385528652604084205492858552601b8752604085203386528752846040812055600281019161485185845461513b565b8093556001928383015480925411614b07575b5061ffff825460a01c166064811015614ad5575b5050918493918793878652601a8552604086208287905b6149df575b50505460c81c60ff1615614983575460405163a9059cbb60e01b81523360048201526024810193909352919492935084926044928492165af1908115614978578491614943575b50156148fe575b600080516020615ccc833981519152604051928484523393a380f35b60405162461bcd60e51b815260048101839052601960248201527f42495452204c50207769746864726177616c206661696c6564000000000000006044820152606490fd5b90508281813d8311614971575b61495a8183614c62565b810103126106405761496b906150cb565b386148db565b503d614950565b6040513d86823e3d90fd5b50508291508190335af16149956155ff565b506148e25760405162461bcd60e51b815260048101839052601860248201527f535454204c50207769746864726177616c206661696c656400000000000000006044820152606490fd5b91939550809294965054878a82841015614ac95750506149ff8284614e8b565b905460039291831b1c87163314614a2a57505090614a1d84926151b3565b908995939188979561488f565b9190939495969750600019918281019081116121785790614a6088614a52614a7f9487614e8b565b905490881b1c169185614e8b565b90919082549060031b9160018060a01b03809116831b921b1916179055565b81548015614ab5579386938a96938c99969860ff948b9a0192614aa28484614e8b565b81939154921b1b19169055559038614894565b634e487b7160e01b8b52603160045260248bfd5b96949250969492614894565b60649192939495965004906000198201918211612a3a57889594939291614afb9161511b565b60038201553880614878565b905038614864565b60405162461bcd60e51b8152600481018590526015602482015274115d995b9d081b9bdd081cdd185c9d1959081e595d605a1b6044820152606490fd5b60405162461bcd60e51b8152600481018590526015602482015274139bc81b1a5c5d5a591a5d1e481c1c9bdd9a591959605a1b6044820152606490fd5b6064846040519062461bcd60e51b825280600483015260248201527f43726561746f722063616e6e6f742075736520746869732066756e6374696f6e6044820152fd5b905034610b575781600319360112610b57576001546001600160a01b03168152602090f35b90600182811c92168015614c21575b6020831014614c0b57565b634e487b7160e01b600052602260045260246000fd5b91607f1691614c00565b61030081019081106001600160401b0382111761162e57604052565b602081019081106001600160401b0382111761162e57604052565b90601f801991011681019081106001600160401b0382111761162e57604052565b9060405191826000825492614c9784614bf1565b908184526001948581169081600014614d065750600114614cc3575b5050614cc192500383614c62565b565b9093915060005260209081600020936000915b818310614cee575050614cc193508201013880614cb3565b85548884018501529485019487945091830191614cd6565b915050614cc194506020925060ff191682840152151560051b8201013880614cb3565b60005b838110614d3c5750506000910152565b8181015183820152602001614d2c565b90602091614d6581518092818552858086019101614d29565b601f01601f1916010190565b602435906001600160a01b03821682036115c557565b600435906001600160a01b03821682036115c557565b6001600160401b03811161162e57601f01601f191660200190565b81601f820112156115c557803590614dcf82614d9d565b92614ddd6040519485614c62565b828452602083830101116115c557816000926020809301838601378301015290565b346115c55760003660031901126115c55760206040516101f48152f35b6020908160408183019282815285518094520193019160005b828110614e43575050505090565b835185529381019392810192600101614e35565b346115c55760003660031901126115c5576020604051620151808152f35b60409060031901126115c5576004359060243590565b8054821015614ea35760005260206000200190600090565b634e487b7160e01b600052603260045260246000fd5b906004821015614ec65752565b634e487b7160e01b600052602160045260246000fd5b346115c55760003660031901126115c5576020604051670de0b6b3a76400008152f35b906002821015614ec65752565b6001600160401b03811161162e5760051b60200190565b6004811015614ec657600052600a602052604060002090565b346115c55760003660031901126115c557602060405160058152f35b6000546001600160a01b03163303614f6c57565b60405163118cdaa760e01b8152336004820152602490fd5b15614f8b57565b60405162461bcd60e51b815260206004820152601f60248201527f535454207374616b652062656c6f77206d696e696d756d2028352053545429006044820152606490fd5b15614fd757565b60405162461bcd60e51b8152602060048201526024808201527f42495452207374616b652062656c6f77206d696e696d756d20283130303020426044820152634954522960e01b6064820152608490fd5b9190820180921161503557565b634e487b7160e01b600052601160045260246000fd5b1561505257565b60405162461bcd60e51b815260206004820152600e60248201526d22bb32b73a103a37b79039b7b7b760911b6044820152606490fd5b1561508f57565b60405162461bcd60e51b8152602060048201526014602482015273125b98dbdc9c9958dd0814d51508185b5bdd5b9d60621b6044820152606490fd5b519081151582036115c557565b156150df57565b60405162461bcd60e51b815260206004820152601460248201527310925514881d1c985b9cd9995c8819985a5b195960621b6044820152606490fd5b8115615125570490565b634e487b7160e01b600052601260045260246000fd5b9190820391821161503557565b6002821015614ec65752565b90815491600160401b83101561162e5782614a60916001614cc195018155614e8b565b90815491600160401b83101561162e578261519a916001614cc195018155614e8b565b90919082549060031b91821b91600019901b1916179055565b60001981146150355760010190565b156151c957565b60405162461bcd60e51b815260206004820152600c60248201526b125b9d985b1a59081c1bdbdb60a21b6044820152606490fd5b9060405161520a81614c2b565b6102e06010829461527f815460018060a01b038116865261ffff8160a01c16602087015260ff90818160b01c1615156040880152818160b81c1615156060880152818160c01c1615156080880152818160c81c16151560a0880152818160d01c16151560c088015260d81c1660e08601615148565b6001810154610100850152600281015461012085015260038101546101408501526004810154610160850152600581015461018085015260068101546101a085015260078101546101c085015260088101546101e08501526009810154610200850152600a810154610220850152600b810154610240850152600c81015461026085015261530f600d8201614c83565b610280850152615321600e8201614c83565b6102a0850152615333600f8201614c83565b6102c08501520154910152565b1561534757565b60405162461bcd60e51b815260206004820152600c60248201526b141bdbdb081cd95d1d1b195960a21b6044820152606490fd5b1561538257565b60405162461bcd60e51b81526020600482015260116024820152704265742062656c6f77206d696e696d756d60781b6044820152606490fd5b156153c257565b60405162461bcd60e51b815260206004820152601460248201527310995d1d1a5b99c81c195c9a5bd908195b99195960621b6044820152606490fd5b1561540557565b60405162461bcd60e51b815260206004820152601c60248201527f496e76616c6964206f64647320666f722063616c63756c6174696f6e000000006044820152606490fd5b1561545157565b60405162461bcd60e51b8152602060048201526009602482015268141bdbdb08199d5b1b60ba1b6044820152606490fd5b1561548957565b60405162461bcd60e51b8152602060048201526015602482015274546f6f206d616e79207061727469636970616e747360581b6044820152606490fd5b156154cd57565b606460405162461bcd60e51b815260206004820152602060248201527f4e6f742077686974656c697374656420666f72207072697661746520706f6f6c6044820152fd5b1561551857565b60405162461bcd60e51b815260206004820152601860248201527f45786365656473206d61782062657420706572207573657200000000000000006044820152606490fd5b8181029291811591840414171561503557565b1561557757565b60405162461bcd60e51b8152602060048201526014602482015273141bdbdb08185b1c9958591e481cd95d1d1b195960621b6044820152606490fd5b156155ba57565b60405162461bcd60e51b815260206004820152601e60248201527f506f6f6c2068617320626574732c2063616e6e6f7420776974686472617700006044820152606490fd5b3d1561562a573d9061561082614d9d565b9161561e6040519384614c62565b82523d6000602084013e565b606090565b8051821015614ea35760209160051b010190565b1561564a57565b60405162461bcd60e51b815260206004820152601460248201527314d515081314081c99599d5b990819985a5b195960621b6044820152606490fd5b1561568d57565b60405162461bcd60e51b815260206004820152601560248201527410925514881314081c99599d5b990819985a5b1959605a1b6044820152606490fd5b156156d157565b60405162461bcd60e51b815260206004820152600f60248201526e105b1c9958591e481cd95d1d1b1959608a1b6044820152606490fd5b1561570f57565b60405162461bcd60e51b8152602060048201526013602482015272115d995b9d081b9bdd08195b991959081e595d606a1b6044820152606490fd5b91906040838203126115c55761575f836150cb565b926020810151906001600160401b0382116115c5570181601f820112156115c557805161578b81614d9d565b926157996040519485614c62565b818452602082840101116115c5576157b79160208085019101614d29565b90565b6020815191015190602081106157ce575090565b6000199060200360031b1b1690565b156157e457565b60405162461bcd60e51b815260206004820152600b60248201526a139bdd081cd95d1d1b195960aa1b6044820152606490fd5b1561581e57565b60405162461bcd60e51b815260206004820152600f60248201526e105b1c9958591e4818db185a5b5959608a1b6044820152606490fd5b1561585c57565b60405162461bcd60e51b815260206004820152601160248201527014d515081c185e5bdd5d0819985a5b1959607a1b6044820152606490fd5b1561589c57565b60405162461bcd60e51b815260206004820152601260248201527110925514881c185e5bdd5d0819985a5b195960721b6044820152606490fd5b6001546040516370a0823160e01b81526001600160a01b0392831660048201529160209183916024918391165afa9081156159ab5760009161597a575b50690a968163f0a57b4000008110156159745769043c33c193756480000081101561596d5769010f0cf064dd5920000081101561596657686c6b935b8bbd4000001115615960576101f490565b6101c290565b5061019090565b5061015e90565b5060fa90565b906020823d82116159a3575b8161599360209383614c62565b8101031261064457505138615913565b3d9150615986565b6040513d6000823e3d90fd5b906159c182614f0c565b6159ce6040519182614c62565b82815280926159df601f1991614f0c565b0190602036910137565b9291906000938452600e6020526040842090815480841015615a77578082615a1286809461513b565b1115615a67575050915b615a25836159b7565b945b838110615a345750505050565b80615a4b615a45615a629385615028565b85614e8b565b90549060031b1c615a5c828961562f565b526151b3565b615a27565b615a71925061513b565b91615a1c565b505050509060405190615a8982614c47565b80825236813790565b6001600160a01b03166000908152600f60205260408120805491949392909180841015615a77578082615ac686809461513b565b1115615afe575050915b615ad9836159b7565b945b838110615ae85750505050565b80615a4b615a45615af99385615028565b615adb565b615b08925061513b565b91615ad0565b15615b1557565b60405162461bcd60e51b815260206004820152600b60248201526a2737ba1031b932b0ba37b960a91b6044820152606490fd5b600090808252601760205260018060a01b036040832054168252600f60205260408220818352601060205260408320549080549182811080615c28575b615b91575b5050505050565b60001992808401908111613a5157808203615bf6575b505080548015615be257820191615bbe8383614e8b565b909182549160031b1b19169055558152601060205260408120553880808080615b8a565b634e487b7160e01b85526031600452602485fd5b615c009083614e8b565b90549060031b1c615c158161519a8486614e8b565b8552601060205260408520553880615ba7565b5083615c348284614e8b565b90549060031b1c14615b85565b8015615035576000190190565b8054821015614ea35760005260206000209060021b0190600090565b15615c7157565b60405162461bcd60e51b8152602060048201526012602482015271125b9d985b1a590818dbdb589bc81c1bdbdb60721b6044820152606490fdfed43c77f044c1f8bc6adf6676b4ce17edda35ef8ee63f154568826c0ecb3c6bf3c733c2813826d31c105dbff518b08258e9e7aeb3eb1c7c7f642d77696faf501da2646970667358221220161e37efee32d6a363b96485583ddf0d63d6428419d89fb370b8a21581bce31064736f6c63430008140033",
  "linkReferences": {},
  "deployedLinkReferences": {}
}